:020000040801F1
:1000000000050020A1010108D12401083B190108C5
:10001000CD240108C50401087D2901080000000065
:100020000000000000000000000000007F25010823
:10003000C904010800000000D52401088125010839
:10004000BB010108BB010108BB010108BB0101089C
:10005000BB010108BB010108BB010108BB0101088C
:10006000BB010108BB010108BB010108BB0101087C
:10007000BB010108BB010108BB010108BB0101086C
:10008000BB010108BB010108BB010108BB0101085C
:10009000BB010108BB010108BB010108BB0101084C
:1000A000BB010108BB010108BB010108BB0101083C
:1000B000BB010108BB010108BB010108BB0101082C
:1000C000BB010108BB010108BB010108BB0101081C
:1000D000BB01010875290108BB010108BB0101082A
:1000E000BB010108BB010108BB010108BB010108FC
:1000F000BB010108BB010108BB010108BB010108EC
:10010000BB010108BB010108BB010108BB010108DB
:10011000BB010108BB010108BB010108BB010108CB
:10012000BB010108BB010108BB010108BB010108BB
:10013000BB010108BB010108BB010108BB010108AB
:10014000BB010108BB010108BB010108BB0101089B
:10015000BB010108BB010108BB010108BB0101088B
:10016000BB010108BB010108BB010108BB0101087B
:10017000BB010108BB010108BB0101080000000030
:10018000BB010108BB010108DFF810D000F088F9BD
:100190000048004749540108AFF3008000050020E3
:1001A0000648804706480047FEE7FEE7FEE7FEE711
:1001B000FEE7FEE7FEE7FEE7FEE7FEE73D26010875
:1001C000890101082DE9F05F0546002092469B4613
:1001D00088460646814640241BE02846414647465D
:1001E000224600F0EFF853465A46C01A914110D308
:1001F00011461846224600F0D6F82D1A67EB010882
:100200004F4622460120002100F0CDF817EB0009EF
:100210004E41201EA4F10104DFDC484631462A4647
:100220004346BDE8F09FD2B201E000F8012B491E21
:10023000FBD270470022F6E710B513460A46044683
:100240001946FFF7F0FF204610BD2DE9FE4F81EA69
:10025000030404F0004421F0004100944FF0000B2F
:1002600023F0004350EA01045ED052EA03045BD05D
:10027000C3F30A54C1F30A552C44A4F2F334019495
:10028000A0FB0254C1F3130141F48011C3F3130323
:1002900043F4801301FB024400FB034E840A970AD7
:1002A00044EA815447EA8357A4FB076802958D0A04
:1002B00005FB07854FEA932C04FB0C542705029D90
:1002C0004FEA065847EA1637B5EB08056EEB070C00
:1002D000870E920E47EA811742EA8312A7FB0201BA
:1002E000B6EB0B0164EB00042B0D43EA0C335E18F4
:1002F00044EB1C50DA465146E7FB0201C5F31304F8
:100300004FEA0B3343EA14534FEA0432019C43EAA9
:100310000603A4F10C040294009CCDE900B400F0A3
:1003200070F803B0BDE8F08F00200146F9E70EB584
:1003300040F2334102910021CDE900110A460B46FB
:1003400000F05FF803B000BDC1F30A5210B5C1F36D
:10035000130140F2FF3341F480119A4201DA002088
:1003600010BD40F233439A42A2F2334203DC5242C0
:1003700000F028F810BD904010BD30B50B46014686
:1003800000202022012409E021FA02F59D4205D334
:1003900003FA02F5491B04FA02F52844151EA2F1DE
:1003A0000102F1DC30BD202A04DB203A00FA02F120
:1003B000002070479140C2F1200320FA03F3194353
:1003C00090407047202A04DB203A21FA02F00021F5
:1003D000704721FA02F3D040C2F120029140084355
:1003E0001946704710B5141E73F1000408DA401C5A
:1003F00041F1000192185B411A4301D120F0010044
:1004000010BD2DE9F04D92469B4611B1B1FA81F233
:1004100002E0B0FA80F220329046FFF7C4FF0446B3
:100420000F4640EA0A0041EA0B0153465A46084388
:1004300013D0114653EA010019D0C8F140025046CA
:10044000FFF7C0FF05460E46504659464246FFF7A5
:10045000AAFF084305D0012004E020463946BDE844
:10046000F08D0020054346EAE0762C4337430A9896
:100470006305E40AA0EB08000022FD0A44EA4754A1
:100480000A3002D500200146E9E70105101969414B
:10049000DDE9084500196941BDE8F04DA2E700001B
:1004A000064C074D06E0E06840F0010394E80700C1
:1004B00098471034AC42F6D3FFF76AFE6C9E0108F1
:1004C0008C9E010800BFFEE7704772B600BFFEE7D2
:1004D00070B50446B3F5804F13D1D1E9000540EA69
:1004E00005108D6840EA05208D6928438D8940EA12
:1004F000054054F82250064E3540284344F8220067
:1005000003E06FF0704044F82200002070BD00004E
:100510000000F0CF70B50246086852F8200020F0C5
:1005200001000E6842F826008868082801D140239F
:1005300000E00023486818438E683043CE6830439B
:100540000E6930434E693043CE6930430E6A304302
:100550004E6A30438E6A3043CE6A30430E6B40EAB7
:10056000060488690443C86B0443074D45F480655D
:1005700045F4E025086852F82000A84320430E689F
:1005800042F82600002070BD7FFB080010B503462E
:10059000D1E9000440EA04108C6840EA04208C8908
:1005A00040EA0444088A401E44EA0054087D801E44
:1005B00044EA00608C692043541C53F8244004F042
:1005C00040442043541C43F82400002010BD000088
:1005D00000B587B0142102A8FFF72CFE2A48006856
:1005E00008B107B000BD01202749086000BF002006
:1005F00001902648006840F0010024490860084640
:10060000006800F00100019000BF00BF8814029054
:100610000220039000200490032005900C200690F7
:1006200002A91B4800F03CF84FF6807002900220AF
:10063000039000200490032005900C20069002A94E
:10064000144800F02DF84CF2337002900220039011
:1006500000200490032005900C20069002A90E486B
:1006600000F01EF84FF4805002900220039000200A
:100670000490032005900C20069002A9074800F082
:100680000FF800BFADE7000000000020383802403E
:100690000014024000100240000C0240001802400A
:1006A000F8B502460B460025002400200021D6E0C4
:1006B000012606FA01F51E6806EA0504AC4274D16B
:1006C0001E7906F00306012E04D01E7906F00306FB
:1006D000022E13D190684F000326BE40B0434F0056
:1006E000DE68BE4030439060506801268E40B043C3
:1006F0001E79C6F300168E40304350601E7906F016
:100700000306032E09D0D0684F000326BE40B04335
:100710004F009E68BE403043D0601E7906F003064D
:10072000022E13D1CF0802F1200656F827004E07FB
:10073000F70E0F26BE40B0434F07FF0E1E69BE40A6
:100740003043CF0802F1200646F8270010684F001A
:100750000326BE40B0431E7906F003064F00BE409C
:10076000304310605E6806F44036002E76D000BF3D
:10077000002600963C4E366846F480463A4F3E606E
:100780003E46366806F48046009600BF00BF374EEE
:100790008F0856F827008E07370F0F26BE40B0434C
:1007A000334EB24202D1002624E057E0314EB2422D
:1007B00001D101261EE0304EB24201D1022619E0DD
:1007C0002E4EB24201D1032614E02D4EB24201D189
:1007D00004260FE02B4EB24201D105260AE02A4E34
:1007E000B24201D1062605E0284EB24201D10726C9
:1007F00000E008268F073F0FBE4030431B4E8F0896
:1008000046F82700224E3068A0435E6806F4801642
:1008100006B120431E4E3060361D3068A0435E682E
:1008200006F4001606B12043194E361D3060184EEE
:10083000361F3068A0435E6806F4003606B12043D8
:10084000134E361F3060361F3068A0435E6806F4D2
:10085000803606B120430E4E083E3060491C1029F8
:10086000FFF426AFF8BD00004438024008380140CC
:10087000000002400004024000080240000C024058
:10088000001002400014024000180240001C024008
:10089000083C0140024613690B400BB1012000E007
:1008A0000020704710B5426921EA020302EA010400
:1008B00043EA0443836110BD0AB1816101E00B0486
:1008C00083617047014800687047000008000020FD
:1008D00010B50D48006840F400700B4908600846E8
:1008E000006840F4806008600846006840F480704A
:1008F0000860032000F0A6F80F2000F007F800F0D1
:100900002BF8002010BD0000003C024070B50446EA
:100910000E4800784FF47A71B1FBF0F00C49096889
:10092000B1FBF0F5284600F005FF08B1012070BDCD
:10093000102C07D200222146501E00F045F8054831
:10094000046001E00120F2E70020F0E71000002041
:10095000140000200C00002008B500BF002000900B
:100960000E48006840F480400C4908600846006862
:1009700000F48040009000BF00BF00BF0020009046
:10098000081F006840F08050091F08600846006892
:1009900000F08050009000BF00BF08BD4438024006
:1009A0000146084600280DDB00BF00BF00F01F0312
:1009B00001229A4043099B0003F1E023C3F8002180
:1009C00000BF00BF00BF70472DE9F05F80460D46B5
:1009D0001646002701F0F8FF074639462A463346F7
:1009E00001F00700C0F1070ABAF1040F02D94FF075
:1009F000040A01E0C0F1070AD14600F1040ABAF185
:100A0000070F02D24FF0000A01E0A0F1030AD4461A
:100A10004FF0010A0AFA09FAAAF1010A0AEA020ADF
:100A20000AFA0CFA4FF0010B0BFA0CFBABF1010BBD
:100A30000BEA030B4AEA0B042146404601F0CCFFC7
:100A4000BDE8F09F00BF00F00702064B19684FF6A3
:100A5000FF031940044B0B4343EA0221014B196089
:100A600000BF70470CED00E00000FA05F8B5044641
:100A700000250026207800F0010020B9207800F041
:100A8000040004282FD100205B498866FFF71AFF75
:100A9000054606E0FFF716FF401B022801D9032098
:100AA000F8BD56480068C0F3C0600028F2D1606805
:100AB0008101207A41EA00705049843108600120A8
:100AC0004D498866FFF7FEFE054606E0FFF7FAFE91
:100AD000401B022801D90320E2E748480068C0F320
:100AE000C0600028F2D0207800F0020002287DD1FA
:100AF00000BF0020009041484030006840F0805026
:100B00003E49403108600846006800F0805000907F
:100B100000BF00BF3A48006840F480703849086060
:100B2000FFF7D0FE054606E0FFF7CCFE401B02288B
:100B300001D90320B4E73248006800F4807000282F
:100B4000F2D02E487030006800F440764EB3A08991
:100B500000F44070B04224D028487030006820F47F
:100B60004076012027490860002008602348703043
:100B70000660006800F0010098B1FFF7A3FE05468B
:100B800008E0FFF79FFE401B41F28831884201D9FF
:100B9000032085E7194870300068C0F34000002842
:100BA000EFD000BFA08900F44070B0F5407F0CD1B9
:100BB00012480830006820F4F810134AE168114028
:100BC00008430E490831086007E00C480830006807
:100BD00020F4F810094908310860084870300068AE
:100BE000A189C1F30B010843044900E002E0703120
:100BF000086000BF002053E7000047420038024071
:100C000000700040400E4742FFFCFF0F70B50446E5
:100C10000D460CB9012070BD5848006800F007006F
:100C2000A84209D255490D700846006800F0070037
:100C3000A84201D00120EEE7207800F0020002284F
:100C40001DD1207800F00400042805D14C4800682C
:100C500040F4E0504A490860207800F00800082875
:100C600005D14748006840F4604045490860444861
:100C7000006820F0F000A16808434149086020782E
:100C800000F00100A8B36068012807D13C4808388B
:100C90000068C0F34040B8B90120BCE76068022892
:100CA00002D06068032807D1354808380068C0F3CF
:100CB000406048B90120AEE7314808380068C0F309
:100CC000400008B90120A6E72D48006820F0030085
:100CD000616808432A490860FFF7F4FD064609E009
:100CE000FFF7F0FD801B41F28831884202D90320D2
:100CF00091E707E02248006800F00C006168B0EB63
:100D0000810FEDD11D48006800F00700A84209D905
:100D10001A490D700846006800F00700A84201D08B
:100D2000012078E7207800F00400042807D1144857
:100D3000006820F4E050E168084311490860207819
:100D400000F00800082808D10D48006820F4604031
:100D5000216940EAC1000A49086000F03FF80849EB
:100D60000968C1F30311074A515CC840064908608D
:100D700006480068FFF7CAFD00204CE7003C02402F
:100D80000838024014570108140000200C0000200D
:100D900001480068704700001400002000B5FFF70C
:100DA000F7FF04490968C1F38221034A515CC84036
:100DB00000BD0000083802402457010800B5FFF7C5
:100DC000E7FF04490968C1F34231034A515CC84056
:100DD00000BD000008380240245701082DE9F04703
:100DE000002400250026A1462548006800F00C00DC
:100DF00020B1042805D008283AD105E0DFF8849016
:100E000039E0DFF8849036E01D48001F006800F0EC
:100E10003F041B48001F006800F4800078B11A48A6
:100E20001749091F0968C1F38811A0FB0170014629
:100E3000224600233846FFF7C5F905460EE0114863
:100E40000F49091F0968C1F38811A0FB0170014611
:100E5000224600233846FFF7B5F905460848001F2B
:100E60000068C0F30140401C4600B5FBF6F902E003
:100E7000DFF8109000BF00BF4846BDE8F0870000D3
:100E8000083802400024F40000127A00F8B5044645
:100E90000CB90120F8BD207800F00100002874D0C2
:100EA000F948006800F00C0004280DD0F6480068EE
:100EB00000F00C00082813D1F348001F006800F46C
:100EC0008000B0F5800F0BD1EF4808380068C0F300
:100ED0004040002859D06068002856D10120D9E749
:100EE00000BF6068B0F5803F08D1E7480838006867
:100EF00040F48030E449083908601EE06068B0F5CD
:100F0000A02F0DD1E0480838006840F48020DE4969
:100F1000083908600846006840F4803008600CE03A
:100F2000D9480838006820F48030D749083908606B
:100F30000846006820F48020086000BF606890B117
:100F4000FFF7C0FC054606E0FFF7BCFC401B642829
:100F500001D903209EE7CC4808380068C0F3404020
:100F60000028F1D011E0FFF7ADFC054606E0FFF7E1
:100F7000A9FC401B642801D903208BE7C24808382C
:100F80000068C0F340400028F1D1207800F0020052
:100F900002285FD1BC48006800F00C0058B1BA4884
:100FA000006800F00C0008281CD1B748001F00683A
:100FB00000F48000B0B9B44808380068C0F34000BD
:100FC00020B1E068012801D0012063E7AE4808386D
:100FD000006820F0F800216940EAC100AA490839F8
:100FE000086037E0E06800B30120A8490860FFF717
:100FF00069FC054606E0FFF765FC401B022801D9A5
:10100000032047E7A04808380068C0F340000028E4
:10101000F1D09D480838006820F0F800216940EAC6
:10102000C10099490839086014E000209749086018
:10103000FFF748FC054606E0FFF744FC401B02288A
:1010400001D9032026E7904808380068C0F3400023
:101050000028F1D1207800F0080008282CD1606920
:10106000A8B101208A490860FFF72CFC054606E07C
:10107000FFF728FC401B022801D903200AE7824819
:101080006C300068C0F340000028F1D014E000206C
:101090007F490860FFF716FC054606E0FFF712FCE3
:1010A000401B022801D90320F4E677486C30006821
:1010B000C0F340000028F1D1207800F0040004289B
:1010C00070D1002770483830006800F0805090B927
:1010D00000BF002000906C483830006840F080501D
:1010E0006949383108600846006800F08050009077
:1010F00000BF00BF01276748006800F48070B0B9E6
:101100006448006840F4807062490860FFF7DAFBC9
:10111000054606E0FFF7D6FB401B022801D9032055
:10112000B8E65C48006800F480700028F2D000BF88
:10113000A068012808D154486830006840F00100D8
:101140005149683108601DE0A06805280DD14E485E
:101150006830006840F004004B4968310860084678
:10116000006840F0010008600CE047486830006803
:1011700020F001004449683108600846006820F00A
:101180000400086000BFA068A8B1FFF79BFB0546FC
:1011900009E0FFF797FB401B41F28831884202D9F2
:1011A000032077E626E0384868300068C0F3400046
:1011B0000028EED013E0FFF785FB054608E0FFF7B7
:1011C00081FB401B41F28831884201D9032061E64E
:1011D0002D4868300068C0F340000028EFD1012F8F
:1011E00007D129483830006820F08050264938312E
:1011F000086000BFA069002845D02348006800F0BF
:101200000C0008285DD0A069022845D100201F49A4
:101210000866FFF757FB054606E0FFF753FB401B48
:10122000022801D9032035E6174808380068C0F3C2
:1012300040600028F1D1D4E907010843616A40EA1F
:1012400081110122A06AC2EB500041EA00412C202A
:10125000005D41EA00600C49091F086001200B494C
:101260000866FFF72FFB054606E0FFF72BFB401B48
:10127000022801D903200DE6034808380068C0F3AE
:1012800040600028F1D049E00838024000004742A1
:10129000800E474200700040002021490866FFF799
:1012A00011FB054606E0FFF70DFB401B022801D9A4
:1012B0000320EFE51B480068C0F340600028F2D12E
:1012C0002CE0A069012800D1E4E51648001D06685D
:1012D000A069012820D006F48001E06981421BD179
:1012E00006F03F01206A814216D147F6C0703040B7
:1012F000616AB0EB811F0FD106F440310122A06A70
:10130000C2EB5000B1EB004F06D106F070612C200B
:10131000005DB1EB006F01D00120BBE50020B9E515
:10132000000047420038024070B505460B4616469D
:101330000024286840680E4900EA0104200CD87097
:10134000C4F30420587004F03F009870C4F3423096
:1013500018705EB9D87801F0BEF8D870587801F0EE
:10136000BAF85870987801F0B6F89870002070BDFF
:101370003FFFFF0070B504460B4616460025206867
:10138000806A586020680069C0F30E009860206889
:1013900000680E4900EA0105C5F305401870C5F361
:1013A0000620587005F07F009870A80DD8705EB9BF
:1013B000187801F090F81870587801F08CF858708F
:1013C000987801F088F89870002070BD7F7F7F00CA
:1013D00070B5044601250CB9012070BD607F20B9AD
:1013E00000202077204600F04DF80220607720682A
:1013F000C068C0F3001000283CD100BFCA2021689B
:10140000486253202168486200BF204601F07BF803
:101410000546EDB920688068194908402168886050
:101420002169606808436169084321688968084345
:10143000216888602168E068086120680169208966
:1014400041EA004021680861204601F081F8054624
:101450005DB92068006C20F4802021680864206851
:10146000006CA16908432168086400BFFF2021685F
:10147000486200E000250DB9012060772846ACE7FE
:10148000BFFF8FFF1FB5044600200090019002901F
:1014900003900949206888420CD102200090C001C5
:1014A00003906846FFF7E2FA08B1FFF70EF8012053
:1014B000024908601FBD0000002800403C0E474262
:1014C0002DE9F04105460C4617464FF0000800BFD5
:1014D000287F012802D10220BDE8F0810120287771
:1014E00000BF022068774FB9607800F01000102824
:1014F00004D1607800F0EF000A30607087B9E078BE
:1015000000F0F4FF0304607800F0F0FF43EA0023EA
:10151000A07800F0EBFF0343207843EA403809E06D
:10152000E0780004617840EA0120A178084321783E
:1015300040EA413800BFCA20296848625320296820
:10154000486200BF284600F0DEFF064646B90B4859
:1015500008EA000029684860284600F0F9FF0646BE
:101560000EB90120687700BFFF202968486200BFDC
:1015700000BF0020287700BF3046ADE73FFFFF00E7
:101580002DE9F04104460D4617464FF0000800BF14
:10159000207F012802D10220BDE8F08101202077C0
:1015A00000BF02206077CFB92068806800F040005B
:1015B00000B102E00020E87000BF287800F096FF3C
:1015C0000304687800F092FF43EA0023A87800F053
:1015D0008DFF0343E87843EA805812E02068806872
:1015E00000F0400000B102E00020E87000BF287861
:1015F0000004697840EA0120A9780843E97840EAC4
:10160000815800BFCA20216848625320216848627F
:1016100000BF204600F077FF0646B6B9124808EA38
:101620000000216808602068806820F4802021681C
:101630008860D5E903010843216889680843216867
:101640008860204600F084FF06460EB901206077CE
:1016500000BFFF202168486200BF00BF0020207744
:1016600000BF304698E700007F7F7F0070B50446DA
:1016700000250B482168C860FFF724F9054607E0FC
:10168000FFF720F9401BB0F57A7F01D9032070BD28
:101690002068C06800F020000028F1D00020F6E7A4
:1016A0005F7F010070B504460E4615460CB9012057
:1016B00070BD94F8490028B9002084F848002046FD
:1016C00000F01FF804F108012068FEF723FF3146FF
:1016D000A2682068FEF75AFF2946236BD4E901026D
:1016E000FEF7F6FEA168206850F8210040F00100E6
:1016F000A268216841F82200012084F849000020F6
:10170000D6E710B50446FEF763FF10BD042808D1E4
:101710004FF0E021096941F004014FF0E02211612E
:1017200007E04FF0E021096921F004014FF0E022C9
:101730001161704770B504462546681EB0F1807F80
:1017400001D301200FE0681E4FF0E02148610F2116
:101750004FF0FF3001F040F900204FF0E0218861A8
:1017600007200861002070BD10B504460CB90120A7
:1017700010BDA06900B100E000BF94F8410028B995
:10178000002084F84000204600F02AF8242084F845
:1017900041002068C06820F400502168C8602046DD
:1017A00000F08CFF2068006920F4904021680861F7
:1017B0002068406920F02A00216848612068C068DC
:1017C00040F400502168C86000206064202084F844
:1017D000410084F842000020606300BFC8E70000B9
:1017E00010B586B00446142101A8FEF723FD1F4959
:1017F0002068884238D100BF002000901C48006853
:1018000040F010001A4908600846006800F0100017
:10181000009000BF00BF00BF0020009014481438A3
:10182000006840F001001249143908600846006859
:1018300000F00100009000BF00BF4FF4C0600190B5
:1018400002200290002003900320049007200590BE
:1018500001A90848FEF724FF002201212520FFF7F7
:10186000B3F82520FFF79CF806B010BD001001402A
:1018700044380240000002402DE9F84F04460E466D
:10188000174699464FF0000A94F84200202852D19A
:1018900006B117B90120BDE8F88F0020606422204E
:1018A00084F8420000202063FFF70CF88246A785E9
:1018B000E785A068B0F5805F04D1206910B90025E4
:1018C000B04602E035464FF000082CE053460022B7
:1018D00020212046CDF8009001F006F820B120200C
:1018E00084F842000320D6E745B920684068C0F379
:1018F0000800A8F8000008F1020811E0A068B0F59F
:10190000805F03D0A06828B9206918B920684068B2
:10191000287004E02068406800F07F0028706D1C8B
:10192000E08D401EE085E08D0028CFD1202084F896
:1019300042000020AFE70220ADE700BFFEE7000055
:1019400010B50446012C01D12349087022480078C3
:1019500058B310212148FEF79DFF50B108211F48C0
:10196000FEF798FF28B101211D48FEF793FF0128DB
:101970001BD10A2003F058FD0020174908701021E0
:101980001648FEF787FF08B9012010BD082113484B
:10199000FEF780FF08B90220F7E701211048FEF7A3
:1019A00079FF012815D10320EFE710210B48FEF73E
:1019B00071FF01280DD108210848FEF76BFF0128AF
:1019C00007D101210648FEF765FF10B90120024941
:1019D00008700020D9E70000180000200010024025
:1019E0000000024070B5044600260948058840887A
:1019F00045430021084600F075FA00F0EDFB00BFFA
:101A000002E004490C80761CAE42FAD370BD00009F
:101A1000EC0000208000006C10B504464948847139
:101A2000002C45D1F020474908804FF4A070488031
:101A30000846808845F21051884210D14FF430504A
:101A4000404908814FF4285048814FF42C50888138
:101A50004FF4F07008804FF4487048801AE039481D
:101A6000808841F6631188420DD12C2035490881C8
:101A70002B2048812A2088814FF4F07008804FF491
:101A80004870488006E02C202E4908812A20488191
:101A90002B2088812B48808845F2103188424CD118
:101AA0004FF4A070274908804FF4F070488044E05C
:101AB0004FF4A07023490880F020488008468088B1
:101AC00045F21051884210D14FF430501D49088121
:101AD0004FF4285048814FF42C5088814FF44870BF
:101AE00008804FF4F07048801AE01648808841F66C
:101AF000631188420DD12C20124908812A20488187
:101B00002B2088814FF4487008804FF4F070488093
:101B100006E02C200B4908812A2048812B2088814F
:101B20000848808845F21031884206D14FF4F070A1
:101B3000044908804FF4A0704880002000F0B8F8F5
:101B400010BD0000EC00002030B504460D463948B9
:101B5000808845F21051884220D13649488900F0EA
:101B60002FFB201200F020FB32494989491C88B222
:101B700000F026FBE0B200F017FB2E49888900F048
:101B80001FFB281200F010FB2A498989491C88B2E2
:101B900000F016FBE8B200F007FB42E02548808821
:101BA00041F66311884228D12248807920B9214822
:101BB0000088401E001B84B21E49488900F000FBCB
:101BC000201200F0F1FAE0B200F0EEFA201200F07C
:101BD000EBFAE0B200F0E8FA1649888900F0F0FA72
:101BE000281200F0E1FAE8B200F0DEFA281200F064
:101BF000DBFAE8B200F0D8FA13E00E49488900F0A9
:101C0000DFFA201200F0D0FAE0B200F0CDFA094974
:101C1000888900F0D5FA281200F0C6FAE8B200F080
:101C2000C3FA04480089044908804FF0D841A1F85C
:101C3000802030BDEC0000207E00006C08B5034819
:101C400000880090BDF8000008BD00008000006C16
:101C500070B52DED048B0446BE2000F0B1FA0520CE
:101C600000F0A2FA2046FEF762FB41EC190B9FED53
:101C70000E0B53EC102BFEF7E8FA41EC180BFEF7B5
:101C800063FB85B2284600F08FFA012000F08CFA41
:101C9000FF2000F089FA002000F086FA002000F012
:101CA00083FABDEC048B70BD6666666666660440AA
:101CB000F0B505460024002789488079012805D120
:101CC0008748808841F66311884208D1844880792A
:101CD000F0B98348808841F66311884218D1082DF5
:101CE00015D2DFE805F00406080A0C0E10120625CE
:101CF0000DE007250BE0042509E0052507E0012597
:101D000005E0002503E0032501E0022500BF00BF38
:101D1000082D1CD2DFE805F00406090C0F12151877
:101D200000BF14E044F0800411E044F040040EE0F1
:101D300044F0C0040BE044F0200408E044F06004E8
:101D400005E044F0A00402E044F0E00400BF00BF5E
:101D50006348808845F21051884202D14FF45857A9
:101D600000E036275E48808849F24131884205D03C
:101D70005B48808847F28971884201D144F00804A9
:101D80002146384600F032FA5548808841F6631102
:101D900088421DD004F0200068B1514800885049A5
:101DA0004988884214DA4E48068840884C490880A1
:101DB000084646800CE04A480088494949888842DC
:101DC00006DD474806884088454908800846468021
:101DD0004348808845F21051884252D14049488991
:101DE00000F0EEF9002000F0DFF93D494989491C77
:101DF00088B200F0E5F9002000F0D6F938494989A9
:101E0000891C88B200F0DCF935490988491EC1F304
:101E10000F2000F0C9F932494989C91C88B200F085
:101E2000CFF92F490978491EC8B200F0BDF92C49F5
:101E3000888900F0C5F9002000F0B6F928498989A1
:101E4000491C88B200F0BCF9002000F0ADF924492B
:101E50008989891C88B200F0B3F921494988491E53
:101E6000C1F30F2000F0A0F91D498989C91C88B26F
:101E700000F0A6F91A498978491EC8B200F094F911
:101E80002DE01749488900F09BF9002000F08CF9FB
:101E9000002000F089F912490988491EC1F30F207A
:101EA00000F082F90E490978491EC8B200F07CF9A9
:101EB0000B49888900F084F9002000F075F90020B2
:101EC00000F072F906494988491EC1F30F2000F05D
:101ED0006BF903498978491EC8B200F065F9F0BD75
:101EE000EC00002010B502460C464548808841F6BB
:101EF0006311884247D142488079A8B94048008898
:101F0000401E801A82B23E49488900F059F90020EB
:101F100000F04AF9002000F047F9101200F044F9EF
:101F2000D0B200F041F916E03549488900F048F98F
:101F3000101200F039F9D0B200F036F930490988B2
:101F4000491EC1F30F2000F02FF92D490978491ED1
:101F5000C8B200F029F92A49888900F031F9201225
:101F600000F022F9E0B200F01FF925494988491E26
:101F7000C1F30F2000F018F921498978491EC8B231
:101F800000F012F93AE01E48808845F2105188426C
:101F900020D11B49488900F013F9101200F004F910
:101FA00017494989491C88B200F00AF9D0B200F0FB
:101FB000FBF81349888900F003F9201200F0F4F8C7
:101FC0000F498989491C88B200F0FAF8E0B200F0A4
:101FD000EBF813E00A49488900F0F2F8101200F01B
:101FE000E3F8D0B200F0E0F80549888900F0E8F89D
:101FF000201200F0D9F8E0B200F0D6F810BD0000D1
:10200000EC0000202DE9F84F80460F4616461C468E
:10201000BB462046E31704EB5373DB1021464FEA1F
:10202000E47C04EB5C7C4FEAEC0CA4EBCC0CBCF144
:10203000000F02D04FF0010C01E04FF0000C6344A0
:10204000224604EBD27C4FEA6C0C03FB0CF3DBB2B0
:102050000093A6F12000C6B200255EE00C2C07D14B
:1020600006EB46002F4901EB800010F805901BE0BD
:10207000102C05D12C4800EB061010F8059013E049
:10208000182C07D106EBC600284901EB800010F898
:10209000059009E0202C05D1254800EBC61010F86A
:1020A000059001E0BDE8F88F4FF0000A2FE009F03D
:1020B000800030B11F48394602684046FFF744FDB2
:1020C00007E00A9828B91C48394602684046FFF7DD
:1020D0003BFD4FEA49604FEA1069781C87B2174808
:1020E0004088B84200DCDDE7A7EB0B00A0420AD134
:1020F0005F4608F101001FFA80F81048008840454B
:1021000000DCCFE706E00AF1010000F0FF0ABAF1B7
:10211000080FCCDB00BF681CC5B2009885429DDB70
:1021200000BFBFE72C570108A05B010890610108C0
:10213000EC6E01081C00002020000020EC000020B4
:102140002DE9F84704460D4690469946DDE90967B2
:1021500004F0FF0A08EB04001FFA80F809EB050001
:102160001FFA80F916E0444502DB5446A81985B2EF
:102170004D4500DB14E0002000903A7833462946B4
:102180002046FFF73FFF304606EBD07104EB6101BC
:102190008CB27F1C38787E2802DC38782028E2DA7E
:1021A00000BFBDE8F887000001B5BDF80000009051
:1021B000BDF800000149088008BD00008000006CE7
:1021C00001B5BDF800000090BDF80000014908808D
:1021D00008BD00007E00006C0248008902490880AA
:1021E00070470000EC0000207E00006C034A108065
:1021F0004FF0D842A2F88010704700007E00006CBB
:1022000000B587B01C216846FEF714F84FF0204057
:102210001849086018484860062088600021154861
:10222000C16001611021416100218161C1610162D0
:1022300041624FF4805181620021C16201634163B8
:10224000816341640F2000900190FF2002900F20D5
:102250000390102004901120059000200690002289
:1022600069460448FFF71EFA08B1FEF72EF907B0D9
:1022700000BD00009C000020040100A000B587B054
:10228000142102A8FDF7D6FF00BF00200190584896
:10229000006840F01000564908600846006800F0E9
:1022A0001000019000BF00BF00BF00200190084651
:1022B000006840F0040008600846006800F0040070
:1022C000019000BF00BF00BF0020019008460068D9
:1022D00040F0200008600846006800F020000190EF
:1022E00000BF00BF00BF002001900846006840F01A
:1022F000800008600846006800F08000019000BF80
:1023000000BF00BF002001900846006840F00100B7
:1023100008600846006800F00100019000BF00BF9F
:1023200000BF002001900846006840F002000860ED
:102330000846006800F00200019000BF00BF00BF27
:10234000002001900846006840F008000860084638
:10235000006800F00800019000BF00BF00BF00202F
:1023600001900846006840F0400008600846006898
:1023700000F04000019000BF00BF01224FF4C06197
:102380001C48FEF799FA00224FF400411A48FEF764
:1023900093FA18200290002003900120049002A9D3
:1023A0001648FEF77DF94FF4C060029001200390BB
:1023B00000200490059002A90E48FEF771F9012053
:1023C0000290002003900220049002A90C48FEF71E
:1023D00067F94FF400400290012003900020049020
:1023E000059002A90448FEF75BF907B000BD0000A4
:1023F0003038024000140240000402400010024045
:102400000000024000B587B0142102A8FDF712FFBA
:10241000002001901D481E490860002048607F216F
:102420001B488160FF21C160002101614161816120
:10243000FEF7CEFF08B1FEF748F816208DF8080029
:1024400000208DF809008DF80A0005900690012201
:1024500002A90F48FFF794F808B1FEF736F80720F5
:102460008DF8040001208DF8050019208DF8060074
:1024700025208DF80700012201A90548FFF720F863
:1024800008B1FEF722F807B000BD000000280040A8
:102490003400002010B50B480B4908604FF4E130C0
:1024A0004860002108488160C16001610C214161E0
:1024B00000218161C161FFF757F908B1FEF705F806
:1024C00010BD0000001001405400002000BFFEE7D6
:1024D00000BFFEE77047014600BF080900EB80001F
:1024E000420001F00F001044C0B2704701460022C4
:1024F00003E0521CA1F10A00C1B20A29F9D2100767
:1025000041EA1060704770B5044600260025206837
:10251000C06800F04000C8B92068C06840F0800082
:102520002168C860FEF7CEF9064608E0FEF7CAF952
:10253000801BB0F57A7F02D90420607701252068DE
:10254000C06800F0400008B9012DEFD1284670BDE9
:1025500070B5044600252068C06820F0800021681E
:10256000C8602068806800F0200030B92046FFF77E
:102570007DF810B1042060770125284670BD7047B2
:102580007047000000B593B0302107A8FDF752FE58
:10259000142102A8FDF74EFE00BF0020019025483F
:1025A000006840F08050234908600846006800F049
:1025B0008050019000BF00BF00BF002001901E4866
:1025C000006840F480401C4908600846006800F438
:1025D0008040019000BF00BF052007904FF480307D
:1025E00008900120099002200D9041050E910421D0
:1025F0000F91A8211091022111910421129107A895
:10260000FEF744FC08B1FDF760FF0F2002900220A6
:102610000390002004904FF4A05005904FF4805098
:102620000690052102A8FEF7F1FA08B1FDF74DFF6B
:1026300013B000BD403802400070004003480068FD
:1026400040F47000014908607047000088ED00E028
:1026500000BF00BF02680C3252E8002F22F49071D4
:1026600002680C3242E80013002BF3D100BF00BF18
:1026700000BF0268143252E8002F22F00101026804
:10268000143242E80013002BF3D100BF016B012983
:102690000ED100BF00BF02680C3252E8002F22F0BA
:1026A000100102680C3242E80013002BF3D100BF86
:1026B000202180F842100021016370472DE9F84F76
:1026C00004462068006920F44050E168084321680E
:1026D00008612169A068084361690843E16908430A
:1026E00000902068C06849F20C6188430099084353
:1026F0002168C8602068406920F44070A1690843DF
:102700002168486176492068884203D0754920686D
:10271000884203D1FEF752FB814602E0FEF73EFB02
:102720008146E069B0F5004F6CD102206168A0FBE2
:10273000015003461920A9FB007001462A4638467D
:10274000FDF740FD6421B0FBF1F04FEA001A0220D2
:102750006168A0FB01510B461920A9FB00712A46B4
:102760003846FDF72FFD834602206168A0FB01502B
:1027700003461920A9FB00712A463846FDF722FDC1
:102780006421B0FBF1F000EBC00101EB0010ABEBFA
:102790008000322101EBC0006421B0FBF1F000F0B9
:1027A000F8000AEB400A02206168A0FB01500346D2
:1027B0001920A9FB007001462A463846FDF702FDA4
:1027C000834602206168A0FB015003461920A9FB43
:1027D00000712A463846FDF7F5FC6421B0FBF1F0A4
:1027E00000EBC00101EB0010ABEB8000322101EBEC
:1027F000C0006421B0FBF1F000F0070050442168F4
:1028000088606AE004206168A0FB0150034619203B
:10281000A9FB007001462A463846FDF7D3FC8246E4
:1028200004206168A0FB015003461920A9FB007039
:1028300001462A463846FDF7C5FC6421B0FBF1F09D
:1028400000EBC00101EB0010AAEB8000322101EB8C
:1028500000106421B0FBF1F000F0F00A0420616880
:10286000A0FB017003461920A9FB00513A462846F7
:10287000FDF7A8FC6421B0FBF1F00AEB001A04207C
:102880006168A0FB01510B461920A9FB00712A4683
:102890003846FDF797FC834604206168A0FB015091
:1028A00003461920A9FB007001462A463846FDF769
:1028B00089FC6421B0FBF1F000EBC00101EB0010DA
:1028C000ABEB8000322101EB00106421B0FBF1F092
:1028D00000F00F00504421688860BDE8F88F0000C8
:1028E00000100140001401402DE9F84304460D4654
:1028F00017469846089E31E0701C70B3FDF7E2FF62
:10290000A0EB0800B04200D816B90320BDE8F88358
:102910002068C06800F00400F8B1802D1ED0402D62
:102920001CD020680068C0F3C000B0B100BF002018
:10293000009020680068009020684068009000BF08
:1029400000BF2046FFF784FE0820606400BF00201F
:1029500084F8400000BF0120D8E7FFE72068006846
:102960002840A84201D1012000E00020B842C3D095
:102970000020CBE710B502F0A7FE10BD00BFFEE7B8
:102980000FB4054B10B503A9044A029800F048F8AB
:1029900010BC5DF814FB00000D5401082400002059
:1029A0000FB4084B10B504A902AA039800F038F838
:1029B000044602A9002000F0D4F9204610BC5DF8BE
:1029C00014FB0000632D010802480068C0F30220D8
:1029D000704700000CED00E010B5002804DB0A078A
:1029E000130E054A135406E00A07140E034A00F0BA
:1029F0000F031B1FD45410BD00E400E018ED00E0ED
:102A000002E008C8121F08C1002AFAD170477047B7
:102A1000002001E001C1121F002AFBD17047000015
:102A20002DE9FF4F8BB088460546002606E0252895
:102A30000BD0DDE90D1290476D1C761C287800281C
:102A4000F5D10FB03046BDE8F08F0024A146A24674
:102A50000122AE4900E0044315F8013F203B02FA91
:102A600003F00842F7D128782A2810D06FF02F02FF
:102A70002878A0F13001092915D809EB890102EB6A
:102A8000410144F0020400EB01096D1CF0E758F825
:102A9000041B5FEA010903D544F40054C9F100099D
:102AA00044F002046D1C28782E2817D115F8010F68
:102AB00044F004042A280ED06FF02F022878A0F1E9
:102AC000300109290AD80AEB8A0102EB410100EB27
:102AD000010A6D1CF2E758F804AB6D1C28786C28CD
:102AE0000FD006DC4C2817D068280DD06A2814D1E6
:102AF00004E0742810D07A280FD10DE044F40014BB
:102B00000AE044F4801401E044F4401469788142FE
:102B100002D104F580146D1C6D1C2878692865D0DD
:102B200006DC00288DD0632827D0642806D15DE01C
:102B30006E2808D073282AD0752877D0DDE90D12C9
:102B40009047761CE0E0C4F30250022809D0032825
:102B50000DD0D8F8001004280DD00E6008F104083C
:102B6000D2E0D8F80010F217C1E90062F6E7D8F811
:102B700000100E80F2E70E70F0E718F8041B8DF8D5
:102B8000001000208DF80100EB46012003E058F80A
:102B900004BB4FF0FF3061074FF0000701D40AE09B
:102BA0007F1C57450DDA8742FADB1BF80710002916
:102BB000F6D106E07F1C8742FCDB1BF807100029DA
:102BC000F8D1DDE90D23A9EB07008146214600F08D
:102BD000B1F83044C61904E0DDE90D121BF8010B11
:102BE00090477F1EF8D22146484688E058F8040BEB
:102BF000C4F302514FF00A0B032900D100B204299B
:102C000000D140B2002802DA40422D2102E0210525
:102C100005D52B218DF82410012104E006E0E10701
:102C200010D02021F6E708AF089113E058F8040B04
:102C3000C4F302514FF00A0B032900D180B20429DA
:102C400000D1C0B20021EEE75946FDF796FB3031C6
:102C500007F8011D0028F7D1ADEB070000F1200BAC
:102C6000600702D524F4803401E04FF0010ADA4510
:102C700002DDAAEB0B0000E00020824600EB0B0116
:102C800008980144A9EB01000A90E00306D4DDE9AD
:102C90000D2321460A9800F04DF806444FF0000934
:102CA00008E009A911F80900DDE90D12904709F1C2
:102CB0000109761C08998945F3DBE0030CD5DDE9B1
:102CC0000D2321460A9800F035F8064404E0DDE9BA
:102CD0000D1230209047761CBAF10001AAF1010ACA
:102CE000F5DC05E0DDE90D1217F8010B9047761CC5
:102CF000BBF10001ABF1010BF4DC0A982146DDE9E0
:102D00000D2300F005F806446D1C97E60928010024
:102D10002DE9F041044600251E461746880404D4D8
:102D200005E039462020B0476D1C641EF9D52846C1
:102D3000BDE8F0812DE9F041044600251E4690468D
:102D4000C80301D5302700E02027880404D505E01A
:102D500041463846B0476D1C641EF9D52846BDE88B
:102D6000F0810A68531C0B601070704710B5044660
:102D70000420FEF7CBFC0148046010BD30000020A9
:102D800004480068C06840F0200002490968C86033
:102D9000704700005400002011B5002404E04FF4F7
:102DA0007A7000F007F8641CBDF800008442F6D386
:102DB00018BD000071B500224FF0E0256C690E4E81
:102DC000009D366805FB06F34FF0E025A96910E089
:102DD0004FF0E025A86988420BD0884202D20D1A34
:102DE0002A4402E0251A0D442A4401469A4200D39F
:102DF00000E0EDE700BF78BD3000002010B5D32023
:102E0000FFF7DEF9FEF71AFFFD498880FEF716FF8F
:102E1000FB498880FEF712FFF949888008468088C0
:102E20004FF6FF7101EA0020F5498880FEF706FFA2
:102E3000F34989880843F24988800846808849F226
:102E4000413188427DD00420FFF7BAF9FEF7F6FE43
:102E5000EB498880FEF7F2FEE9498880FEF7EEFE36
:102E6000E7498880084680884FF6FF7101EA002014
:102E7000E3498880FEF7E2FEE14989880843E0499A
:102E800088800846808848F25251884203D147F230
:102E90008970DB498880DA48808847F289718842E6
:102EA000D0D0D420FFF78CF9FEF7C8FED449888033
:102EB000FEF7C4FED2498880FEF7C0FED049888064
:102EC000084680884FF6FF7101EA0020CC498880CF
:102ED000FEF7B4FECA4989880843C9498880084674
:102EE000808845F2103188426BD055214FF47040F4
:102EF000FFF77CF9AA214FF20100FFF777F9522181
:102F00004FF20200FFF772F908214FF20300FFF7BA
:102F10006DF901214FF20400FFF768F94FF44540C5
:102F2000FFF74EF9FEF78AFEB5498880084680888B
:102F30004FF6FF7101EA0020B14988804CF2015040
:102F400000E03EE0FFF73CF9FEF778FEAC498988E7
:102F50000843AB4988800520FFF71EFFA8488088FA
:102F6000B0F5004F03D145F21050A5498880A44820
:102F7000808845F21051884223D0A120FFF720F924
:102F8000FEF75CFE9E498880FEF758FE9C498880CB
:102F9000084680884FF6FF7101EA00209849888032
:102FA000FEF74CFE96498988084395498880084673
:102FB000808845F26171884203D141F663109049DF
:102FC00088808F48808849F2413188427ED1CF2065
:102FD000FFF7F6F80020FFF7E7F8C120FFF7E4F865
:102FE0003020FFF7E1F8ED20FFF7EAF86420FFF763
:102FF000DBF80320FFF7D8F81220FFF7D5F881207F
:10300000FFF7D2F8E820FFF7DBF88520FFF7CCF8D0
:103010001020FFF7C9F87A20FFF7C6F8CB20FFF79A
:10302000CFF83920FFF7C0F82C20FFF7BDF80020BB
:10303000FFF7BAF83420FFF7B7F80220FFF7B4F82B
:10304000F720FFF7BDF82020FFF7AEF8EA20FFF7E2
:10305000B7F80020FFF7A8F80020FFF7A5F8C02078
:10306000FFF7AEF81B20FFF79FF8C120FFF7A8F885
:103070000120FFF799F8C520FFF7A2F83020FFF7ED
:1030800093F83020FFF790F8C720FFF799F8B720A2
:10309000FFF78AF83620FFF793F84820FFF784F807
:1030A0003A20FFF78DF85520FFF77EF8B120FFF7A3
:1030B00087F80020FFF778F81A20FFF775F8B62098
:1030C000FFF77EF80A20FFF76FF800E09AE0A220F1
:1030D000FFF76AF8F220FFF773F80020FFF764F8B3
:1030E0002620FFF76DF80120FFF75EF8E020FFF7DC
:1030F00067F80F20FFF758F82A20FFF755F8282027
:10310000FFF752F80820FFF74FF80E20FFF74CF8B2
:103110000820FFF749F85420FFF746F8A920FFF7E9
:1031200043F84320FFF740F80A20FFF73DF80F204F
:10313000FFF73AF80020FFF737F80020FFF734F8E0
:103140000020FFF731F80020FFF72EF8E120FFF70D
:1031500037F80020FFF728F81520FFF725F817208B
:10316000FFF722F80720FFF71FF81120FFF71CF8E0
:103170000620FFF719F82B20FFF716F85620FFF767
:1031800013F83C20FFF710F80520FFF70DF810208A
:10319000FFF70AF80F20FFF707F83F20FFF704F8C2
:1031A0003F20FFF701F80F20FEF7FEFF2B20FFF76F
:1031B00007F80020FEF7F8FF0020FEF7F5FF0120DA
:1031C000FEF7F2FF3F20FEF7EFFF2A20FEF7F8FFA1
:1031D0000020FEF7E9FF0020FEF7E6FF0020FEF7E3
:1031E000E3FFEF20FEF7E0FF1120FEF7E9FF782074
:1031F000FFF7D2FD2920FEF7E3FF02F0A9B8000097
:10320000EC000020FE48808847F2897188427CD11A
:103210001120FEF7D5FF7820FFF7BEFD3620FEF720
:10322000CFFF0020FEF7C0FF3A20FEF7C9FF0520C0
:10323000FEF7BAFFB220FEF7C3FF0C20FEF7B4FF83
:103240000C20FEF7B1FF0020FEF7AEFF3320FEF7A3
:10325000ABFF3320FEF7A8FFB720FEF7B1FF352004
:10326000FEF7A2FFBB20FEF7ABFF3220FEF79CFF6C
:10327000C020FEF7A5FF0C20FEF796FFC220FEF748
:103280009FFF0120FEF790FFC320FEF799FF10205B
:10329000FEF78AFFC420FEF793FF2020FEF784FF8D
:1032A000C620FEF78DFF0F20FEF77EFFD020FEF731
:1032B00087FFA420FEF778FFA120FEF775FFE0202E
:1032C000FEF77EFFD020FEF76FFF0020FEF76CFFB9
:1032D0000220FEF769FF0720FEF766FF0A20FEF7CF
:1032E00063FF2820FEF760FF3220FEF75DFF4420D9
:1032F000FEF75AFF4220FEF757FF0620FEF754FF65
:103300000E20FEF751FF122000E056E0FEF74CFFC2
:103310001420FEF749FF1720FEF746FFE120FEF7D5
:103320004FFFD020FEF740FF0020FEF73DFF0220B8
:10333000FEF73AFF0720FEF737FF0A20FEF734FFBB
:103340002820FEF731FF3120FEF72EFF5420FEF734
:103350002BFF4720FEF728FF0E20FEF725FF1C203D
:10336000FEF722FF1720FEF71FFF1B20FEF71CFFB2
:103370001E20FEF719FF2A20FEF722FF0020FEF78D
:1033800013FF0020FEF710FF0020FEF70DFFEF20D7
:10339000FEF70AFF2B20FEF713FF0020FEF704FFC5
:1033A0000020FEF701FF0120FEF7FEFE3F20FEF7A2
:1033B000FBFE2920FEF704FF1FE79148808845F2B5
:1033C0001031884240F07C87ED20FEF7F9FE0120A5
:1033D000FEF7EAFEFE20FEF7E7FEEE20FEF7F0FE27
:1033E000DE20FEF7E1FE2120FEF7DEFEF120FEF7F3
:1033F000E7FE0120FEF7D8FEDF20FEF7E1FE1020F9
:10340000FEF7D2FEC420FEF7DBFE8F20FEF7CCFED7
:10341000C620FEF7D5FE0020FEF7C6FEE220FEF72E
:10342000C3FEE220FEF7C0FEE220FEF7BDFEBF2095
:10343000FEF7C6FEAA20FEF7B7FEB020FEF7C0FEDC
:103440000D20FEF7B1FE0020FEF7AEFE0D20FEF7C8
:10345000ABFE0020FEF7A8FE1120FEF7A5FE00201F
:10346000FEF7A2FE1920FEF79FFE0020FEF79CFE4D
:103470002120FEF799FE0020FEF796FE2D20FEF794
:1034800093FE0020FEF790FE3D20FEF78DFE00200B
:10349000FEF78AFE5D20FEF787FE0020FEF784FE21
:1034A0005D20FEF781FE0020FEF77EFEB120FEF7D4
:1034B00087FE8020FEF778FE0020FEF775FE8B2049
:1034C000FEF772FE0020FEF76FFE9620FEF76CFE00
:1034D0000020FEF769FEB220FEF772FE0020FEF724
:1034E00063FE0020FEF760FE0220FEF75DFE002076
:1034F000FEF75AFE0320FEF757FE0020FEF754FEAB
:10350000B320FEF75DFE0020FEF74EFE0020FEF722
:103510004BFE0020FEF748FE0020FEF745FE00208F
:10352000FEF742FE0020FEF73FFE0020FEF73CFEC5
:103530000020FEF739FE0020FEF736FE0020FEF7E1
:1035400033FE0020FEF730FE0020FEF72DFE0020A7
:10355000FEF72AFE0020FEF727FE0020FEF724FEDD
:103560000020FEF721FE0020FEF71EFE0020FEF7E1
:103570001BFE0020FEF718FE0020FEF715FE0020BF
:10358000FEF712FE0020FEF70FFE0020FEF70CFEF5
:103590000020FEF709FEB420FEF712FE8B20FEF796
:1035A00003FE0020FEF700FE9620FEF7FDFD002042
:1035B000FEF7FAFDA120FEF7F7FD0020FEF7F4FD6F
:1035C000B520FEF7FDFD0220FEF7EEFD0020FEF720
:1035D000EBFD0320FEF7E8FD0020FEF7E5FD0420EB
:1035E000FEF7E2FD0020FEF7DFFDB620FEF7E8FD66
:1035F0000020FEF7D9FD0020FEF7D6FDB72001E040
:10360000EC000020FEF7DCFD0020FEF7CDFD0020E1
:10361000FEF7CAFD3F20FEF7C7FD0020FEF7C4FD00
:103620005E20FEF7C1FD0020FEF7BEFD6420FEF720
:10363000BBFD0020FEF7B8FD8C20FEF7B5FD002095
:10364000FEF7B2FDAC20FEF7AFFD0020FEF7ACFDAB
:10365000DC20FEF7A9FD0020FEF7A6FD7020FEF796
:10366000A3FD0020FEF7A0FD9020FEF79DFD0020A9
:10367000FEF79AFDEB20FEF797FD0020FEF794FD84
:10368000DC20FEF791FD0020FEF78EFDB820FEF74E
:1036900097FD0020FEF788FD0020FEF785FD002045
:1036A000FEF782FD0020FEF77FFD0020FEF77CFD87
:1036B0000020FEF779FD0020FEF776FD0020FEF7E2
:1036C00073FDBA20FEF77CFD2420FEF76DFD00207F
:1036D000FEF76AFD0020FEF767FD0020FEF764FD9F
:1036E000C120FEF76DFD2020FEF75EFD0020FEF7F5
:1036F0005BFD5420FEF758FD0020FEF755FDFF202E
:10370000FEF752FD0020FEF74FFDC220FEF758FDE8
:103710000A20FEF749FD0020FEF746FD0420FEF7D3
:1037200043FD0020FEF740FDC320FEF749FD3C208D
:10373000FEF73AFD0020FEF737FD3A20FEF734FD94
:103740000020FEF731FD3920FEF72EFD0020FEF7A8
:103750002BFD3720FEF728FD0020FEF725FD3C203D
:10376000FEF722FD0020FEF71FFD3620FEF71CFDB0
:103770000020FEF719FD3220FEF716FD0020FEF7AF
:1037800013FD2F20FEF710FD0020FEF70DFD2C206D
:10379000FEF70AFD0020FEF707FD2920FEF704FDD5
:1037A0000020FEF701FD2620FEF7FEFC0020FEF7BC
:1037B000FBFC2420FEF7F8FC0020FEF7F5FC24209B
:1037C000FEF7F2FC0020FEF7EFFC2320FEF7ECFCF6
:1037D0000020FEF7E9FC3C20FEF7E6FC0020FEF7A7
:1037E000E3FC3620FEF7E0FC0020FEF7DDFC322093
:1037F000FEF7DAFC0020FEF7D7FC2F20FEF7D4FC02
:103800000020FEF7D1FC2C20FEF7CEFC0020FEF7B6
:10381000CBFC2920FEF7C8FC0020FEF7C5FC2620C3
:10382000FEF7C2FC0020FEF7BFFC2420FEF7BCFC24
:103830000020FEF7B9FC2420FEF7B6FC0020FEF7BE
:10384000B3FC2320FEF7B0FC0020FEF7ADFCC42043
:10385000FEF7B6FC6220FEF7A7FC0020FEF7A4FCF2
:103860000520FEF7A1FC0020FEF79EFC8420FEF759
:103870009BFC0020FEF798FCF020FEF795FC002052
:10388000FEF792FC1820FEF78FFC0020FEF78CFC60
:10389000A420FEF789FC0020FEF786FC1820FEF726
:1038A00083FC0020FEF780FC5020FEF77DFC00200A
:1038B000FEF77AFC0C20FEF777FC0020FEF774FC84
:1038C0001720FEF771FC0020FEF76EFC9520FEF736
:1038D0006BFC0020FEF768FCF320FEF765FC00207F
:1038E000FEF762FCE620FEF75FFC0020FEF75CFCC2
:1038F000C520FEF765FC3220FEF756FC0020FEF7DF
:1039000053FC4420FEF750FC0020FEF74DFC6520E0
:10391000FEF74AFC0020FEF747FC7620FEF744FC49
:103920000020FEF741FC8820FEF73EFC0020FEF759
:103930003BFCC620FEF744FC2020FEF735FC0020AF
:10394000FEF732FC1720FEF72FFC0020FEF72CFCC0
:103950000120FEF729FC0020FEF726FCC720FEF719
:103960002FFC0020FEF720FC0020FEF71DFC0020AD
:10397000FEF71AFC0020FEF717FCC820FEF720FC1B
:103980000020FEF711FC0020FEF70EFC0020FEF7E1
:103990000BFC0020FEF708FCC920FEF711FC0020FC
:1039A000FEF702FC0020FEF7FFFB0020FEF7FCFB09
:1039B0000020FEF7F9FB0020FEF7F6FB0020FEF7E3
:1039C000F3FB0020FEF7F0FB0020FEF7EDFB0020EC
:1039D000FEF7EAFB0020FEF7E7FB0020FEF7E4FB22
:1039E0000020FEF7E1FB0020FEF7DEFB0020FEF7E3
:1039F000DBFB0020FEF7D8FB0020FEF7D5FBE02024
:103A0000FEF7DEFB1620FEF7CFFB0020FEF7CCFB17
:103A10001C20FEF7C9FB0020FEF7C6FB2120FEF7A5
:103A2000C3FB0020FEF7C0FB3620FEF7BDFB0020E5
:103A3000FEF7BAFB4620FEF7B7FB0020FEF7B4FB0B
:103A40005220FEF7B1FB0020FEF7AEFB6420FEF72C
:103A5000ABFB0020FEF7A8FB7A20FEF7A5FB0020B9
:103A6000FEF7A2FB8B20FEF79FFB0020FEF79CFBDE
:103A70009920FEF799FB0020FEF796FBA820FEF7A1
:103A800093FB0020FEF790FBB920FEF78DFB002092
:103A9000FEF78AFBC420FEF787FB0020FEF784FBBD
:103AA000CA20FEF781FB0020FEF77EFBD220FEF746
:103AB0007BFB0020FEF778FBD920FEF775FB00208A
:103AC000FEF772FBE020FEF76FFB0020FEF76CFBB9
:103AD000F320FEF769FB0020FEF766FBE120FEF70E
:103AE0006FFB1620FEF760FB0020FEF75DFB1C203D
:103AF000FEF75AFB0020FEF757FB2220FEF754FB8F
:103B00000020FEF751FB3620FEF74EFB0020FEF7AB
:103B10004BFB4520FEF748FB0020FEF745FB5220FB
:103B2000FEF742FB0020FEF73FFB6420FEF73CFB64
:103B30000020FEF739FB7A20FEF736FB0020FEF767
:103B400033FB8B20FEF730FB0020FEF72DFB992086
:103B5000FEF72AFB0020FEF727FBA820FEF724FB38
:103B60000020FEF721FBB920FEF71EFB0020FEF728
:103B70001BFBC420FEF718FB0020FEF715FBCA2034
:103B8000FEF712FB0020FEF70FFBD220FEF70CFB26
:103B90000020FEF709FBD820FEF706FB0020FEF709
:103BA00003FBE020FEF700FB0020FEF7FDFAF32008
:103BB000FEF7FAFA0020FEF7F7FAE220FEF700FB24
:103BC0000520FEF7F1FA0020FEF7EEFA0B20FEF7D3
:103BD000EBFA0020FEF7E8FA1B20FEF7E5FA0020DA
:103BE000FEF7E2FA3420FEF7DFFA0020FEF7DCFAF7
:103BF0004420FEF7D9FA0020FEF7D6FA4F20FEF750
:103C0000D3FA0020FEF7D0FA6120FEF7CDFA0020AB
:103C1000FEF7CAFA7920FEF7C7FA0020FEF7C4FAC9
:103C20008820FEF7C1FA0020FEF7BEFA9720FEF7C3
:103C3000BBFA0020FEF7B8FAA620FEF7B5FA00207E
:103C4000FEF7B2FAB720FEF7AFFA0020FEF7ACFAA3
:103C5000C220FEF7A9FA0020FEF7A6FAC720FEF759
:103C6000A3FA0020FEF7A0FAD120FEF79DFA00206B
:103C7000FEF79AFAD620FEF797FA0020FEF794FA9C
:103C8000DD20FEF791FA0020FEF78EFAF320FEF712
:103C90008BFA0020FEF788FAE320FEF791FA052060
:103CA000FEF782FA0020FEF77FFA0A20FEF77CFA80
:103CB0000020FEF779FA1C20FEF776FA0020FEF7C6
:103CC00073FA3320FEF770FA0020FEF76DFA4420F5
:103CD000FEF76AFA0020FEF767FA5020FEF764FA52
:103CE0000020FEF761FA6220FEF75EFA0020FEF780
:103CF0005BFA7820FEF758FA0020FEF755FA882084
:103D0000FEF752FA0020FEF74FFA9720FEF74CFA22
:103D10000020FEF749FAA620FEF746FA0020FEF73B
:103D200043FAB720FEF740FA0020FEF73DFAC22022
:103D3000FEF73AFA0020FEF737FAC720FEF734FA0A
:103D40000020FEF731FAD120FEF72EFA0020FEF710
:103D50002BFAD520FEF728FA0020FEF725FADD2001
:103D6000FEF722FA0020FEF71FFAF320FEF71CFAF6
:103D70000020FEF719FAE420FEF722FA0120FEF7F0
:103D800013FA0020FEF710FA0120FEF70DFA0020CA
:103D9000FEF70AFA0220FEF707FA0020FEF704FAFF
:103DA0002A20FEF701FA0020FEF7FEF93C20FEF77C
:103DB000FBF90020FEF7F8F94B20FEF7F5F900209B
:103DC000FEF7F2F95D20FEF7EFF90020FEF7ECF9BF
:103DD0007420FEF7E9F90020FEF7E6F98420FEF7EB
:103DE000E3F90020FEF7E0F99320FEF7DDF900206B
:103DF000FEF7DAF9A220FEF7D7F90020FEF7D4F992
:103E0000B320FEF7D1F90020FEF7CEF9BE20FEF771
:103E1000CBF90020FEF7C8F9C420FEF7C5F9002051
:103E2000FEF7C2F9CD20FEF7BFF90020FEF7BCF97E
:103E3000D320FEF7B9F90020FEF7B6F9DD20FEF732
:103E4000B3F90020FEF7B0F9F320FEF7ADF900203A
:103E5000FEF7AAF9E520FEF7B3F90020FEF7A4F972
:103E60000020FEF7A1F90020FEF79EF90020FEF7E2
:103E70009BF90220FEF798F90020FEF795F929201A
:103E8000FEF792F90020FEF78FF93C20FEF78CF93F
:103E90000020FEF789F94B20FEF786F90020FEF797
:103EA00083F95D20FEF780F90020FEF77DF974208C
:103EB000FEF77AF90020FEF777F98420FEF774F90F
:103EC0000020FEF771F99320FEF76EF90020FEF74F
:103ED0006BF9A220FEF768F90020FEF765F9B32020
:103EE000FEF762F90020FEF75FF9BE20FEF75CF9ED
:103EF0000020FEF759F9C420FEF756F90020FEF71E
:103F000053F9CD20FEF750F90020FEF74DF9D320EC
:103F1000FEF74AF90020FEF747F9DC20FEF744F9E6
:103F20000020FEF741F9F320FEF73EF90020FEF7EE
:103F30003BF9E620FEF744F91120FEF735F90020A1
:103F4000FEF732F93420FEF72FF90020FEF72CF9A6
:103F50005620FEF729F90020FEF726F97620FEF715
:103F600023F90020FEF720F97720FEF71DF9002045
:103F7000FEF71AF96620FEF717F90020FEF714F98C
:103F80008820FEF711F90020FEF70EF99920FEF7C0
:103F90000BF90020FEF708F9BB20FEF705F9002019
:103FA000FEF702F99920FEF7FFF80020FEF7FCF873
:103FB0006620FEF7F9F80020FEF7F6F85520FEF728
:103FC000F3F80020FEF7F0F85520FEF7EDF800209A
:103FD000FEF7EAF84520FEF7E7F80020FEF7E4F8E0
:103FE0004320FEF7E1F80020FEF7DEF84420FEF75C
:103FF000DBF80020FEF7D8F8E720FEF7E1F83220E2
:10400000FEF7D2F80020FEF7CFF85520FEF7CCF8E7
:104010000020FEF7C9F87620FEF7C6F80020FEF76C
:10402000C3F86620FEF7C0F80020FEF7BDF8672051
:10403000FEF7BAF80020FEF7B7F86720FEF7B4F8ED
:104040000020FEF7B1F88720FEF7AEF80020FEF75B
:10405000ABF89920FEF7A8F80020FEF7A5F8BB20E2
:10406000FEF7A2F80020FEF79FF89920FEF79CF8D3
:104070000020FEF799F87720FEF796F80020FEF76B
:1040800093F84420FEF790F80020FEF78DF85620B4
:10409000FEF78AF80020FEF787F82320FEF784F861
:1040A0000020FEF781F83320FEF77EF80020FEF7AF
:1040B0007BF84520FEF778F80020FEF775F8E82039
:1040C000FEF77EF80020FEF76FF80020FEF76CF890
:1040D0009920FEF769F80020FEF766F88720FEF7C2
:1040E00063F80020FEF760F88820FEF75DF80020F6
:1040F000FEF75AF87720FEF757F80020FEF754F83D
:104100006620FEF751F80020FEF74EF88820FEF7F3
:104110004BF80020FEF748F8AA20FEF745F80020EB
:10412000FEF742F8BB20FEF73FF80020FEF73CF810
:104130009920FEF739F80020FEF736F86620FEF7E2
:1041400033F80020FEF730F85520FEF72DF8002058
:10415000FEF72AF85520FEF727F80020FEF724F88E
:104160004420FEF721F80020FEF71EF84420FEF759
:104170001BF80020FEF718F85520FEF715F8002070
:10418000FEF712F8E920FEF71BF8AA20FEF70CF85C
:104190000020FEF709F80020FEF706F80020FEF7E1
:1041A00003F80020FEF70CF8AA20FDF7FDFFCF2052
:1041B000FEF706F80020FDF7F7FF0020FDF7F4FFFB
:1041C0000020FDF7F1FF0020FDF7EEFF0020FDF7D6
:1041D000EBFF0020FDF7E8FF0020FDF7E5FF0020E2
:1041E000FDF7E2FF0020FDF7DFFF0020FDF7DCFF19
:1041F0000020FDF7D9FF0020FDF7D6FF0020FDF7D6
:10420000D3FF0020FDF7D0FF0020FDF7CDFF0020F9
:10421000FDF7CAFF0020FDF7C7FFF020FDF7D0FF34
:104220000020FDF7C1FF5020FDF7BEFF0020FDF785
:10423000BBFF0020FDF7B8FF0020FDF7B5FFF3201E
:10424000FDF7BEFF0020FDF7AFFFF920FDF7B8FF37
:104250000620FDF7A9FF1020FDF7A6FF2920FDF796
:10426000A3FF0020FDF7A0FF3A20FDF7A9FF55208E
:10427000FDF79AFF1120FDF7A3FF6420FEF79AFDDA
:104280002920FDF79DFF3520FDF79AFF0020FDF75F
:104290008BFF5120FDF794FFFF20FDF785FF532092
:1042A000FDF78EFF2C20FDF77FFF5520FDF788FFDF
:1042B0008220FDF779FF2C20FDF782FF01F048B83E
:1042C000FE48808845F2105188427DD155214FF437
:1042D0007040FDF78BFFAA214FF20100FDF786FF2A
:1042E00052214FF20200FDF781FF08214FF2030037
:1042F000FDF77CFF01214FF20400FDF777FF0D2150
:104300004FF43040FDF772FF0D214BF20100FDF735
:104310006DFF0D214BF20200FDF768FF34214FF4D1
:104320003640FDF763FF34214BF20160FDF75EFF7D
:1043300034214BF20260FDF759FF0D214FF431405B
:10434000FDF754FF0D214BF20110FDF74FFF0D213A
:104350004BF20210FDF74AFF34214FF43740FDF7CE
:1043600045FF34214BF20170FDF740FF34214BF241
:104370000270FDF73BFF00214FF43240FDF736FF9E
:1043800000214BF20120FDF731FF00214BF202200A
:10439000FDF72CFF24214FF43840FDF727FF24219F
:1043A0004BF60100FDF722FF24214BF60200FDF73A
:1043B0001DFF01214FF43F40FDF718FF0F214FF47F
:1043C0003340FDF713FF00E0FDE30F214BF2013016
:1043D000FDF70CFF0F214BF20230FDF707FF3421F0
:1043E0004FF43940FDF702FF34214BF60110FDF781
:1043F000FDFE34214BF60210FDF7F8FE08214FF4C4
:104400003540FDF7F3FE08214BF20150FDF7EEFEBB
:1044100008214BF20250FDF7E9FE03214FF4424020
:10442000FDF7E4FE24214FF43A40FDF7DFFE24219E
:104430004BF60120FDF7DAFE24214BF60220FDF7B2
:10444000D5FE00214FF43C40FDF7D0FE78214BF61D
:104450000140FDF7CBFE00214BF60240FDF7C6FE02
:1044600000214FF43D40FDF7C1FE78214BF601508D
:10447000FDF7BCFE00214BF60250FDF7B7FE002110
:104480004FF43E40FDF7B2FE64214BF60160FDF7AC
:10449000ADFE00214FF45140FDF7A8FE33214DF24F
:1044A0000110FDF7A3FE00214DF20210FDF79EFE64
:1044B00034214DF20310FDF799FE00214DF2041056
:1044C000FDF794FE3A214DF20510FDF78FFE002115
:1044D0004DF20610FDF78AFE4A214DF20710FDF756
:1044E00085FE00214DF20810FDF780FE5C214DF2A3
:1044F0000910FDF77BFE00214DF20A10FDF776FE54
:1045000081214DF20B10FDF771FE00214DF20C10D0
:10451000FDF76CFEA6214DF20D10FDF767FE0021A0
:104520004DF20E10FDF762FEE5214DF20F10FDF782
:104530005DFE01214DF21010FDF758FE13214DF2E2
:104540001110FDF753FE01214DF21210FDF74EFE42
:1045500054214DF21310FDF749FE01214DF21410C4
:10456000FDF744FE82214DF21510FDF73FFE0121BB
:104570004DF21610FDF73AFECA214DF21710FDF765
:1045800035FE02214DF21810FDF730FE00214DF2EC
:104590001910FDF72BFE02214DF21A10FDF726FE31
:1045A00001214DF21B10FDF721FE02214DF21C10DE
:1045B000FDF71CFE34214DF21D10FDF717FE022100
:1045C0004DF21E10FDF712FE67214DF21F10FDF790
:1045D0000DFE02214DF22010FDF708FE84214DF260
:1045E0002110FDF703FE02214DF22210FDF7FEFD22
:1045F000A4214DF22310FDF7F9FD02214DF2241004
:10460000FDF7F4FDB7214DF22510FDF7EFFD022176
:104610004DF22610FDF7EAFDCF214DF22710FDF7F0
:10462000E5FD02214DF22810FDF7E0FDDE214DF2FF
:104630002910FDF7DBFD02214DF22A10FDF7D6FD12
:10464000F2214DF22B10FDF7D1FD02214DF22C107D
:10465000FDF7CCFDFE214DF22D10FDF7C7FD032126
:104660004DF22E10FDF7C2FD10214DF22F10FDF777
:10467000BDFD03214DF23010FDF7B8FD33214DF2A1
:104680003110FDF7B3FD03214DF23210FDF7AEFD01
:104690006D214DF23310FDF7A9FD00214FF452407A
:1046A000FDF7A4FD33214DF20120FDF79FFD002110
:1046B0004DF20220FDF79AFD342101E0EC000020CC
:1046C0004DF20320FDF792FD00214DF20420FDF78D
:1046D0008DFD3A214DF20520FDF788FD00214DF2B8
:1046E0000620FDF783FD4A214DF20720FDF77EFDF0
:1046F00000214DF20820FDF779FD5C214DF20920E3
:10470000FDF774FD00214DF20A20FDF76FFD8121B8
:104710004DF20B20FDF76AFD00214DF20C20FDF754
:1047200065FDA6214DF20D20FDF760FD00214DF243
:104730000E20FDF75BFDE5214DF20F20FDF756FD44
:1047400001214DF21020FDF751FD13214DF21120F2
:10475000FDF74CFD01214DF21220FDF747FD5421DC
:104760004DF21320FDF742FD01214DF21420FDF71B
:104770003DFD82214DF21520FDF738FD01214DF25E
:104780001620FDF733FDCA214DF21720FDF72EFD4F
:1047900002214DF21820FDF729FD00214DF21920CC
:1047A000FDF724FD02214DF21A20FDF71FFD012126
:1047B0004DF21B20FDF71AFD02214DF21C20FDF7E2
:1047C00015FD34214DF21D20FDF710FD02214DF2A3
:1047D0001E20FDF70BFD67214DF21F20FDF706FDA2
:1047E00002214DF22020FDF701FD84214DF2212010
:1047F000FDF7FCFC02214DF22220FDF7F7FCA4217D
:104800004DF22320FDF7F2FC02214DF22420FDF7AA
:10481000EDFCB7214DF22520FDF7E8FC02214DF219
:104820002620FDF7E3FCCF214DF22720FDF7DEFC2B
:1048300002214DF22820FDF7D9FCDE214DF229207E
:10484000FDF7D4FC02214DF22A20FDF7CFFCF22126
:104850004DF22B20FDF7CAFC02214DF22C20FDF772
:10486000C5FCFE214DF22D20FDF7C0FC03214DF2C9
:104870002E20FDF7BBFC10214DF22F20FDF7B6FCDA
:1048800003214DF23020FDF7B1FC33214DF23120F0
:10489000FDF7ACFC03214DF23220FDF7A7FC6D21A2
:1048A0004DF23320FDF7A2FC00214FF45340FDF7F9
:1048B0009DFC33214DF20130FDF798FC00214DF2B3
:1048C0000230FDF793FC34214DF20330FDF78EFCEE
:1048D00000214DF20430FDF789FC3A214DF20530FC
:1048E000FDF784FC00214DF20630FDF77FFC4A21E4
:1048F0004DF20730FDF77AFC00214DF20830FDF74C
:1049000075FC5C214DF20930FDF770FC00214DF281
:104910000A30FDF76BFC81214DF20B30FDF766FC90
:1049200000214DF20C30FDF761FCA6214DF20D3057
:10493000FDF75CFC00214DF20E30FDF757FCE52140
:104940004DF20F30FDF752FC01214DF21030FDF712
:104950004DFC13214DF21130FDF748FC01214DF2C1
:104960001230FDF743FC54214DF21330FDF73EFCAD
:1049700001214DF21430FDF739FC82214DF2153042
:10498000FDF734FC01214DF21630FDF72FFCCA2152
:104990004DF21730FDF72AFC02214DF21830FDF7D9
:1049A00025FC00214DF21930FDF720FC02214DF2CB
:1049B0001A30FDF71BFC01214DF21B30FDF716FCF0
:1049C00002214DF21C30FDF711FC34214DF21D3057
:1049D000FDF70CFC02214DF21E30FDF707FC6721AC
:1049E0004DF21F30FDF702FC02214DF22030FDF7A1
:1049F000FDFB84214DF22130FDF7F8FB02214DF241
:104A00002230FDF7F3FBA4214DF22330FDF7EEFB3E
:104A100002214DF22430FDF7E9FBB7214DF225309C
:104A2000FDF7E4FB02214DF22630FDF7DFFBCF213D
:104A30004DF22730FDF7DAFB02214DF22830FDF769
:104A4000D5FBDE214DF22930FDF7D0FB02214DF2DE
:104A50002A30FDF7CBFBF2214DF22B30FDF7C6FBE0
:104A600002214DF22C30FDF7C1FBFE214DF22D301D
:104A7000FDF7BCFB03214DF22E30FDF7B7FB1021F3
:104A80004DF22F30FDF7B2FB03214DF23030FDF730
:104A9000ADFB33214DF23130FDF7A8FB03214DF280
:104AA0003230FDF7A3FB6D214DF23330FDF79EFB55
:104AB00000214FF45440FDF799FB33214DF20140A2
:104AC000FDF794FB00214DF20240FDF78FFB3421EE
:104AD0004DF20340FDF78AFB00214DF20440FDF743
:104AE00085FB3A214DF20540FDF780FB00214DF298
:104AF0000640FDF77BFB4A214DF20740FDF776FBB0
:104B000000214DF20840FDF771FB5C214DF2094098
:104B1000FDF76CFB00214DF20A40FDF767FB812198
:104B20004DF20B40FDF762FB00214DF20C40FDF70A
:104B30005DFBA6214DF20D40FDF758FB00214DF223
:104B40000E40FDF753FBE5214DF20F40FDF74EFB04
:104B500001214DF21040FDF749FB13214DF21140A8
:104B6000FDF744FB01214DF21240FDF73FFB5421BC
:104B70004DF21340FDF73AFB01214DF21440FDF7D1
:104B800035FB82214DF21540FDF730FB01214DF23E
:104B90001640FDF72BFBCA214DF21740FDF726FB0F
:104BA00002214DF21840FDF721FB00214DF2194082
:104BB000FDF71CFB02214DF21A40FDF717FB012106
:104BC0004DF21B4000E005E3FDF710FB02214DF222
:104BD0001C40FDF70BFB34214DF21D40FDF706FB99
:104BE00002214DF21E40FDF701FB67214DF21F40EF
:104BF000FDF7FCFA02214DF22040FDF7F7FA84217F
:104C00004DF22140FDF7F2FA02214DF22240FDF76C
:104C1000EDFAA4214DF22340FDF7E8FA02214DF20E
:104C20002440FDF7E3FAB7214DF22540FDF7DEFA07
:104C300002214DF22640FDF7D9FACF214DF227404F
:104C4000FDF7D4FA02214DF22840FDF7CFFADE211C
:104C50004DF22940FDF7CAFA02214DF22A40FDF734
:104C6000C5FAF2214DF22B40FDF7C0FA02214DF2B8
:104C70002C40FDF7BBFAFE214DF22D40FDF7B6FAB0
:104C800003214DF22E40FDF7B1FA10214DF22F40D5
:104C9000FDF7ACFA03214DF23040FDF7A7FA3321BE
:104CA0004DF23140FDF7A2FA03214DF23240FDF7FB
:104CB0009DFA6D214DF23340FDF798FA00214FF433
:104CC0005540FDF793FA33214DF20150FDF78EFA6E
:104CD00000214DF20250FDF789FA34214DF20350C4
:104CE000FDF784FA00214DF20450FDF77FFA3A21D6
:104CF0004DF20550FDF77AFA00214DF20650FDF70E
:104D000075FA4A214DF20750FDF770FA00214DF275
:104D10000850FDF76BFA5C214DF20950FDF766FA79
:104D200000214DF20A50FDF761FA81214DF20B503E
:104D3000FDF75CFA00214DF20C50FDF757FAA62161
:104D40004DF20D50FDF752FA00214DF20E50FDF7D5
:104D50004DFAE5214DF20F50FDF748FA01214DF2D1
:104D60001050FDF743FA13214DF21150FDF73EFAB2
:104D700001214DF21250FDF739FA54214DF2135032
:104D8000FDF734FA01214DF21450FDF72FFA82217C
:104D90004DF21550FDF72AFA01214DF21650FDF79C
:104DA00025FACA214DF21750FDF720FA02214DF2E3
:104DB0001850FDF71BFA00214DF21950FDF716FAB5
:104DC00002214DF21A50FDF711FA01214DF21B504C
:104DD000FDF70CFA02214DF21C50FDF707FA3421C1
:104DE0004DF21D50FDF702FA02214DF21E50FDF763
:104DF000FDF967214DF21F50FDF7F8F902214DF240
:104E00002050FDF7F3F984214DF22150FDF7EEF922
:104E100002214DF22250FDF7E9F9A4214DF2235071
:104E2000FDF7E4F902214DF22450FDF7DFF9B72137
:104E30004DF22550FDF7DAF902214DF22650FDF72B
:104E4000D5F9CF214DF22750FDF7D0F902214DF2CF
:104E50002850FDF7CBF9DE214DF22950FDF7C6F9B8
:104E600002214DF22A50FDF7C1F9F2214DF22B50EB
:104E7000FDF7BCF902214DF22C50FDF7B7F9FE21E8
:104E80004DF22D50FDF7B2F903214DF22E50FDF7F2
:104E9000ADF910214DF22F50FDF7A8F903214DF285
:104EA0003050FDF7A3F933214DF23150FDF79EF953
:104EB00003214DF23250FDF799F96D214DF2335037
:104EC000FDF794F900214FF45640FDF78FF9332197
:104ED0004DF20160FDF78AF900214DF20260FDF705
:104EE00085F934214DF20360FDF780F900214DF280
:104EF0000460FDF77BF93A214DF20560FDF776F984
:104F000000214DF20660FDF771F94A214DF207606C
:104F1000FDF76CF900214DF20860FDF767F95C219F
:104F20004DF20960FDF762F900214DF20A60FDF7CC
:104F30005DF981214DF20B60FDF758F900214DF22A
:104F40000C60FDF753F9A6214DF20D60FDF74EF907
:104F500000214DF20E60FDF749F9E5214DF20F6099
:104F6000FDF744F901214DF21060FDF73FF91321DF
:104F70004DF21160FDF73AF901214DF21260FDF793
:104F800035F954214DF21360FDF730F901214DF24E
:104F90001460FDF72BF982214DF21560FDF726F91B
:104FA00001214DF21660FDF721F9CA214DF217607B
:104FB000FDF71CF902214DF21860FDF717F90021E9
:104FC0004DF21960FDF712F902214DF21A60FDF75A
:104FD0000DF901214DF21B60FDF708F902214DF298
:104FE0001C60FDF703F934214DF21D60FDF7FEF85A
:104FF00002214DF21E60FDF7F9F867214DF21F60A6
:10500000FDF7F4F802214DF22060FDF7EFF884215E
:105010004DF22160FDF7EAF802214DF22260FDF722
:10502000E5F8A4214DF22360FDF7E0F802214DF2EE
:105030002460FDF7DBF8B7214DF22560FDF7D6F8C7
:1050400002214DF22660FDF7D1F8CF214DF2276005
:10505000FDF7CCF802214DF22860FDF7C7F8DE21FC
:105060004DF22960FDF7C2F802214DF22A60FDF7EA
:10507000BDF8F2214DF22B60FDF7B8F802214DF298
:105080002C60FDF7B3F8FE214DF22D60FDF7AEF870
:1050900003214DF22E60FDF7A9F810214DF22F608B
:1050A000FDF7A4F803214DF23060FDF79FF833219E
:1050B0004DF23160FDF79AF803214DF23260FDF7B1
:1050C00095F86D214DF23360FDF790F855214FF4BE
:1050D0007040FDF78BF8AA214FF20100FDF786F82A
:1050E00052214FF20200FDF781F808214FF2030030
:1050F000FDF77CF800214FF20400FDF777F8CC2192
:105100004FF43140FDF772F800214BF20110FDF72A
:105110006DF805214FF43640FDF768F870214FF423
:105120003740FDF763F870214BF20170FDF75EF830
:1051300001214FF43840FDF759F803214BF60100E7
:10514000FDF754F803214BF60200FDF74FF8032159
:105150004BF60300FDF74AF802214FF43C40FDF7FF
:1051600045F800214BF60140FDF740F800214BF6D1
:105170000240FDF73BF8D0214FF44940FDF736F8E7
:1051800002214CF60110FDF731F850214CF60210C7
:10519000FDF72CF850214CF60310FDF727F85021AD
:1051A0004CF60410FDF722F800214FF45450FDF79F
:1051B0001DF855214FF46850FDF718F84FF488504A
:1051C000FCF7FEFF7820FDF7F5FD4FF42450FCF7C7
:1051D000F7FFBDE08A48808841F663118842F8D124
:1051E000E220FCF7EDFF1D20FCF7DEFF0220FCF7BC
:1051F000DBFF0420FCF7D8FF6420FDF7DBFDE02097
:10520000FCF7DEFF0120FCF7CFFF0A20FDF7C4FD0D
:10521000E020FCF7D5FF0320FCF7C6FF0C20FDF7CC
:10522000BBFD0120FCF7CCFF0A20FDF7B5FDE62011
:10523000FCF7C6FF2F20FCF7B7FFFF20FCF7B4FFF9
:10524000FF20FCF7B1FFB020FCF7BAFF2020FCF7ED
:10525000ABFF0020FCF7A8FF0320FCF7A5FF40F2FE
:105260001F30FCF7A1FF0120FCF79EFF40F2DF108A
:10527000FCF79AFF0020FCF797FFB420FCF7A0FF93
:105280000420FCF791FF40F21F40FCF78DFF002047
:10529000FCF78AFF2E20FCF787FF0020FCF784FF35
:1052A0000020FCF781FF0020FCF77EFF0020FCF7C8
:1052B0007BFFB620FCF784FF0220FCF775FF4FF45C
:1052C0000370FCF771FF0020FCF76EFF1720FCF75E
:1052D0006BFF1520FCF768FF0020FCF765FF00203E
:1052E000FCF762FFF020FCF76BFF0320FCF75CFF8C
:1052F0002920FCF765FFD020FCF762FF0020FCF7B7
:1053000053FFBE20FCF75CFF0520FCF74DFFFE209D
:10531000FCF74AFF0120FCF747FF0020FCF744FFA1
:105320000020FCF741FF0020FCF73EFFB820FCF70F
:1053300047FF0320FCF738FF0120FCF735FFBA20B8
:10534000FCF73EFF0120FCF72FFF6420FCF780FCF8
:105350002B48808849F24131884217D028488088FC
:1053600047F28971884211D02548808845F2103172
:1053700088420BD02248808845F21051884205D0DF
:105380001F48808841F6631188422CD11D4800686F
:1053900020F00F004FF02041C1F81C010846D0F862
:1053A0001C0120F47060C1F81C010846D0F81C01F3
:1053B00040F00300C1F81C011148808847F2897150
:1053C000884208D10F48006840F440704FF02041F7
:1053D000C1F81C0107E00B48006840F400704FF072
:1053E0002041C1F81C010020FCF716FB0122D1036B
:1053F0000548FBF761FA4FF6FF70FCF7F3FA10BDB2
:10540000EC0000201C0100A00004024000BF054A7F
:10541000126802F04002002AF9D0C2B2014B5A6071
:105420007047000000100140002107E042F6E061F3
:1054300000BF0A1EA1F1010399B2FAD1021EA0F128
:10544000010398B2F2D1704792B0002400256C4855
:105450006C490860FBF73CFAFDF794F8FCF70EFF87
:10546000FCF7CEFEFDF716F8FCF7CCFFA820FDF701
:105470007DFCFDF785FCFDF7C1FC4FF6FF70FCF7E6
:10548000B1FA4FF478406049086060A0FDF778FAFF
:1054900061A010210B46C822CDE9001032211E2048
:1054A000FCF74EFE61A010210B46C822CDE900108A
:1054B00046211E20FCF744FE5FA010210B46C822A7
:1054C000CDE900105A211E20FCF73AFE5EA0102103
:1054D0000B46C822CDE900106E211E20FCF730FEDD
:1054E0005CA010210B46C822CDE9001082211E20AD
:1054F000FCF726FE5DA010210B46C822CDE9001066
:1055000096211E20FCF71CFE5CA010210B46C82231
:10551000CDE90010AA211E20FCF712FE1F203A49F7
:1055200008606CE0601CC4B20A2094FBF0F100FB40
:105530001140002843D100220DA95448FBF71AFF5F
:105540009DF8360000909DF835309DF8342050A12C
:1055500002A8FDF725FA02A810210B46D222CDE9B8
:105560000010BE211E20FCF7EBFD00220CA94748CD
:10557000FBF7DAFE9DF8320000909DF831309DF87F
:10558000332048A102A8FDF70BFA02A810210B4610
:10559000D222CDE9001011461E20FCF7D1FD9DF866
:1055A000302046A102A8FDF7FBF902A810210B4606
:1055B000D222CDE90010E6211E20FCF7C1FD142007
:1055C00094FBF0F100FB114020B94FF400713D480D
:1055D000FBF768F90A20FDF7DFFB0020FCF7B0F9C4
:1055E0000546012D04D1002281023648FBF764F9FB
:1055F000022D04D1012291023248FBF75DF991E7B7
:105600000000010808ED00E01C00002057656C63F5
:105610006F6D6521210D0A004578706C6F7265729F
:105620002053544D33324634000000004150502086
:10563000544553540000000041544F4D40414C49E3
:10564000454E54454B000000323032352F312F315A
:10565000390000004B45595F55503A436F7079202F
:1056600041505032464C4153480000004B4559319F
:105670003A4C454431204F4E000000004B45593014
:105680003A4C454431204F4646000000340000208B
:1056900054696D653A253032643A253032643A25D2
:1056A00030326400446174653A3230253032642D02
:1056B000253032642D253032640000005765656B5B
:1056C0003A2564000014024008B50F4800680068DD
:1056D000C0F34010B0B14FF47A73012269460A4812
:1056E000FCF7CAF809480068B0F5F03F0AD29DF807
:1056F00000000749054A1268885404480068401CA5
:105700000249086008BD0000540000202C00002061
:10571000001000200000000000000000010203044F
:105720000607080900000000010203040000000051
:105730000000000000000000000000003F400000EA
:105740000000000000003000400030004000000079
:1057500009000BC03D000BC03D00090018C02440EB
:105760007FE0224031800000180024C01B000D8023
:105770003240018003801C4027401C8007400040CD
:1057800010006000000000000000000000000000A9
:1057900000001F80204040200000402020401F804B
:1057A00000000000090006001F800600090000003C
:1057B000040004003F8004000400000000100060AA
:1057C00000000000000000000400040004000400C9
:1057D0000400000000000040000000000000000085
:1057E000002001C006003800400000001F8020405B
:1057F000204020401F800000000010403FC00040BB
:105800000000000018C02140224024401840000041
:1058100010802040244024401B80000002000D0026
:1058200011003FC0014000003C802440244024403F
:10583000238000001F802440244034400380000067
:105840003000200027C03800200000001B802440CA
:10585000244024401B8000001C0022C02240224023
:105860001F80000000000000084000000000000051
:1058700000000000046000000000000000000400C0
:105880000A001100208040400900090009000900B9
:105890000900000000004040208011000A000400C0
:1058A0001800200023402400180000001F80204022
:1058B000274029401F400000004007C039000F006A
:1058C00001C0004020403FC0244024401B80000015
:1058D0001F802040204020403080000020403FC0FA
:1058E000204020401F80000020403FC024402E4028
:1058F00030C0000020403FC024402E003000000097
:105900000F001080204022403380020020403FC022
:10591000040004003FC02040204020403FC0204001
:10592000204000000060202020203FC020002000F8
:1059300020403FC024400B0030C0204020403FC0EA
:1059400020400040004000C03FC03C0003C03C007D
:105950003FC0000020403FC00C4023003FC020005B
:105960001F802040204020401F80000020403FC07A
:1059700024402400180000001F802140214020E026
:105980001FA0000020403FC02440260019C0004056
:1059900018C02440244022403180000030002040C4
:1059A0003FC020403000000020003F800040004009
:1059B0003F80200020003E0001C00700380020008A
:1059C000380007C03C0007C038000000204039C044
:1059D000060039C0204000002000384007C0384091
:1059E00020000000304021C02640384020C0000088
:1059F000000000007FE04020402000000000700018
:105A00000C000380004000000000402040207FE0A8
:105A10000000000000002000400020000000000006
:105A20000010001000100010001000100000000016
:105A3000400000000000000000000280054005401A
:105A400003C0004020003FC0044004400380000029
:105A50000000038004400440064000000000038072
:105A6000044024403FC00040000003800540054042
:105A700003400000000004401FC0244024402000D8
:105A8000000002E0055005500650042020403FC0B1
:105A90000440040003C000400000044027C0004050
:105AA0000000000000100010041027E000000000BB
:105AB00020403FC00140070004C004402040204077
:105AC0003FC000400040000007C0040007C00400C1
:105AD00003C00000044007C00440040003C00040AD
