:020000040800F2
:10000000380C0020A101000819110008AB0F0008EE
:1000100015110008AD0200081915000800000000C5
:100020000000000000000000000000001F11000898
:10003000B1020008000000001D1100082111000895
:10004000BB010008BB010008BB010008BB010008A0
:10005000BB010008BB010008BB010008BB01000890
:10006000BB010008BB010008BB010008BB01000880
:10007000BB010008BB010008BB010008BB01000870
:10008000BB010008BB010008BB010008BB01000860
:10009000BB010008BB010008BB010008BB01000850
:1000A000BB010008BB010008BB010008BB01000840
:1000B000BB010008BB010008BB010008BB01000830
:1000C000BB010008BB010008BB010008BB01000820
:1000D000BB01000811150008BB010008BB010008A6
:1000E000BB010008BB010008BB010008BB01000800
:1000F000BB010008BB010008BB010008BB010008F0
:10010000BB010008BB010008BB010008BB010008DF
:10011000BB010008BB010008BB010008BB010008CF
:10012000BB010008BB010008BB010008BB010008BF
:10013000BB010008BB010008BB010008BB010008AF
:10014000BB010008BB010008BB010008BB0100089F
:10015000BB010008BB010008BB010008BB0100088F
:10016000BB010008BB010008BB010008BB0100087F
:10017000BB010008BB010008BB0100080000000033
:10018000BB010008BB010008DFF810D000F07CF8CC
:100190000048004705160008AFF30080380C002027
:1001A0000648804706480047FEE7FEE7FEE7FEE711
:1001B000FEE7FEE7FEE7FEE7FEE7FEE7D9110008EF
:1001C000890100082DE9F05F0546002092469B4614
:1001D00088460646814640241BE02846414647465D
:1001E000224600F041F853465A46C01A914110D3B6
:1001F00011461846224600F028F82D1A67EB010830
:100200004F4622460120002100F01FF817EB00099D
:100210004E41201EA4F10104DFDC484631462A4647
:100220004346BDE8F09FD2B201E000F8012B491E21
:10023000FBD270470022F6E710B513460A46044683
:100240001946FFF7F0FF204610BD202A04DB203AB4
:1002500000FA02F1002070479140C2F1200320FA19
:1002600003F3194390407047202A04DB203A21FA17
:1002700002F00021704721FA02F3D040C2F12002BF
:100280009140084319467047064C074D06E0E06868
:1002900040F0010394E8070098471034AC42F6D3CD
:1002A000FFF776FFB0160008D016000800BFFEE783
:1002B000704772B600BFFEE7F8B502460B46002550
:1002C000002400200021D6E0012606FA01F51E6870
:1002D00006EA0504AC4274D11E7906F00306012E2D
:1002E00004D01E7906F00306022E13D190684F0049
:1002F0000326BE40B0434F00DE68BE4030439060EE
:10030000506801268E40B0431E79C6F300168E4019
:10031000304350601E7906F00306032E09D0D068E2
:100320004F000326BE40B0434F009E68BE4030439E
:10033000D0601E7906F00306022E13D1CF0802F119
:10034000200656F827004E07F70E0F26BE40B04392
:100350004F07FF0E1E69BE403043CF0802F1200652
:1003600046F8270010684F000326BE40B0431E79B0
:1003700006F003064F00BE40304310605E6806F48E
:100380004036002E76D000BF002600963C4E3668E0
:1003900046F480463A4F3E603E46366806F4804654
:1003A000009600BF00BF374E8F0856F827008E0713
:1003B000370F0F26BE40B043334EB24202D1002663
:1003C00024E057E0314EB24201D101261EE0304E0A
:1003D000B24201D1022619E02E4EB24201D10326CB
:1003E00014E02D4EB24201D104260FE02B4EB24252
:1003F00001D105260AE02A4EB24201D1062605E0C7
:10040000284EB24201D1072600E008268F073F0F91
:10041000BE4030431B4E8F0846F82700224E3068FE
:10042000A0435E6806F4801606B120431E4E30607D
:10043000361D3068A0435E6806F4001606B12043FE
:10044000194E361D3060184E361F3068A0435E6866
:1004500006F4003606B12043134E361F3060361FB7
:100460003068A0435E6806F4803606B120430E4E25
:10047000083E3060491C1029FFF426AFF8BD00008B
:1004800044380240083801400000024000040240A5
:1004900000080240000C024000100240001402401C
:1004A00000180240001C0240083C01400AB1816172
:1004B00001E00B0483617047014800687047000049
:1004C0000000002010B50D48006840F400700B4992
:1004D00008600846006840F48060086008460068CC
:1004E00040F480700860032000F0A6F80F2000F0B0
:1004F00007F800F02BF8002010BD0000003C02407F
:1005000070B504460E4800784FF47A71B1FBF0F0F4
:100510000C490968B1FBF0F5284600F043FC08B12E
:10052000012070BD102C07D200222146501E00F081
:1005300045F80548046001E00120F2E70020F0E7FB
:10054000080000200C0000200400002008B500BFB7
:10055000002000900E48006840F480400C4908607C
:100560000846006800F48040009000BF00BF00BF54
:1005700000200090081F006840F08050091F0860AC
:100580000846006800F08050009000BF00BF08BD22
:10059000443802400146084600280DDB00BF00BF7A
:1005A00000F01F0301229A4043099B0003F1E0235E
:1005B000C3F8002100BF00BF00BF70472DE9F05F06
:1005C00080460D461646002700F0A8FF074639462C
:1005D0002A46334601F00700C0F1070ABAF1040FBA
:1005E00002D94FF0040A01E0C0F1070AD14600F138
:1005F000040ABAF1070F02D24FF0000A01E0A0F19D
:10060000030AD4464FF0010A0AFA09FAAAF1010ACC
:100610000AEA020A0AFA0CFA4FF0010B0BFA0CFB79
:10062000ABF1010B0BEA030B4AEA0B0421464046EF
:1006300000F07CFFBDE8F09F00BF00F00702064B12
:1006400019684FF6FF031940044B0B4343EA02219C
:10065000014B196000BF70470CED00E00000FA0587
:1006600070B504460D460CB9012070BD58480068AD
:1006700000F00700A84209D255490D7008460068ED
:1006800000F00700A84201D00120EEE7207800F03A
:10069000020002281DD1207800F00400042805D1B2
:1006A0004C48006840F4E0504A490860207800F067
:1006B0000800082805D14748006840F460404549D3
:1006C00008604448006820F0F000A16808434149F0
:1006D0000860207800F00100A8B36068012807D105
:1006E0003C4808380068C0F34040B8B90120BCE776
:1006F0006068022802D06068032807D135480838AE
:100700000068C0F3406048B90120AEE731480838BE
:100710000068C0F3400008B90120A6E72D48006832
:1007200020F00300616808432A490860FFF7C4FE0F
:10073000064609E0FFF7C0FE801B41F2883188427F
:1007400002D9032091E707E02248006800F00C007E
:100750006168B0EB810FEDD11D48006800F0070023
:10076000A84209D91A490D700846006800F0070030
:10077000A84201D0012078E7207800F00400042886
:1007800007D11448006820F4E050E168084311499B
:100790000860207800F00800082808D10D4800689B
:1007A00020F46040216940EAC1000A49086000F075
:1007B0003FF808490968C1F30311074A515CC84072
:1007C0000649086006480068FFF79AFE00204CE7DB
:1007D000003C024008380240981600080C00002037
:1007E0000400002001480068704700000C00002051
:1007F00000B5FFF7F7FF04490968C1F38221034AF6
:10080000515CC84000BD000008380240A81600082E
:1008100000B5FFF7E7FF04490968C1F34231034A15
:10082000515CC84000BD000008380240A81600080E
:100830002DE9F047002400250026A1462548006840
:1008400000F00C0020B1042805D008283AD105E0BA
:10085000DFF8849039E0DFF8849036E01D48001F0F
:10086000006800F03F041B48001F006800F480008F
:1008700078B11A481749091F0968C1F38811A0FB0C
:1008800001700146224600233846FFF79BFC0546CF
:100890000EE011480F49091F0968C1F38811A0FB38
:1008A00001700146224600233846FFF78BFC0546BF
:1008B0000848001F0068C0F30140401C4600B5FB1B
:1008C000F6F902E0DFF8109000BF00BF4846BDE82F
:1008D000F0870000083802400024F40000127A007B
:1008E000F8B504460CB90120F8BD207800F00100ED
:1008F000002874D0F948006800F00C0004280DD0DE
:10090000F648006800F00C00082813D1F348001FD7
:10091000006800F48000B0F5800F0BD1EF48083874
:100920000068C0F34040002859D06068002856D1C4
:100930000120D9E700BF6068B0F5803F08D1E748E3
:100940000838006840F48030E449083908601EE047
:100950006068B0F5A02F0DD1E0480838006840F479
:100960008020DE49083908600846006840F480307D
:1009700008600CE0D9480838006820F48030D74976
:10098000083908600846006820F48020086000BF2D
:10099000606890B1FFF790FD054606E0FFF78CFD1B
:1009A000401B642801D903209EE7CC480838006822
:1009B000C0F340400028F1D011E0FFF77DFD05466F
:1009C00006E0FFF779FD401B642801D903208BE77F
:1009D000C24808380068C0F340400028F1D12078B0
:1009E00000F0020002285FD1BC48006800F00C0053
:1009F00058B1BA48006800F00C0008281CD1B7486C
:100A0000001F006800F48000B0B9B44808380068DE
:100A1000C0F3400020B1E068012801D0012063E765
:100A2000AE480838006820F0F800216940EAC100AB
:100A3000AA490839086037E0E06800B30120A849F6
:100A40000860FFF739FD054606E0FFF735FD401B5E
:100A5000022801D9032047E7A04808380068C0F3FE
:100A600040000028F1D09D480838006820F0F800C8
:100A7000216940EAC10099490839086014E0002062
:100A800097490860FFF718FD054606E0FFF714FDDB
:100A9000401B022801D9032026E790480838006847
:100AA000C0F340000028F1D1207800F008000828A9
:100AB0002CD16069A8B101208A490860FFF7FCFCCD
:100AC000054606E0FFF7F8FC401B022801D9032089
:100AD0000AE782486C300068C0F340000028F1D07B
:100AE00014E000207F490860FFF7E6FC054606E0B9
:100AF000FFF7E2FC401B022801D90320F4E6774807
:100B00006C300068C0F340000028F1D1207800F07C
:100B10000400042870D1002770483830006800F0C5
:100B2000805090B900BF002000906C4838300068B9
:100B300040F080506949383108600846006800F08C
:100B40008050009000BF00BF01276748006800F494
:100B50008070B0B96448006840F4807062490860F1
:100B6000FFF7AAFC054606E0FFF7A6FC401B02289B
:100B700001D90320B8E65C48006800F480700028C2
:100B8000F2D000BFA068012808D15448683000683E
:100B900040F001005149683108601DE0A068052857
:100BA0000DD14E486830006840F004004B49683170
:100BB00008600846006840F0010008600CE0474803
:100BC0006830006820F00100444968310860084638
:100BD000006820F00400086000BFA068A8B1FFF71B
:100BE0006BFC054609E0FFF767FC401B41F28831CA
:100BF000884202D9032077E626E03848683000684A
:100C0000C0F340000028EED013E0FFF755FC054686
:100C100008E0FFF751FC401B41F28831884201D9BE
:100C2000032061E62D4868300068C0F340000028CA
:100C3000EFD1012F07D129483830006820F08050CB
:100C400026493831086000BFA069002845D02348F4
:100C5000006800F00C0008285DD0A069022845D18A
:100C600000201F490866FFF727FC054606E0FFF74E
:100C700023FC401B022801D9032035E61748083819
:100C80000068C0F340600028F1D1D4E907010843AF
:100C9000616A40EA81110122A06AC2EB500041EA78
:100CA00000412C20005D41EA00600C49091F0860EA
:100CB00001200B490866FFF7FFFB054606E0FFF73A
:100CC000FBFB401B022801D903200DE6034808382E
:100CD0000068C0F340600028F1D049E008380240C5
:100CE00000004742800E474200700040002021492A
:100CF0000866FFF7E1FB054606E0FFF7DDFB401B5A
:100D0000022801D90320EFE51B480068C0F34060CA
:100D10000028F2D12CE0A069012800D1E4E51648B2
:100D2000001D0668A069012820D006F48001E06952
:100D300081421BD106F03F01206A814216D147F65D
:100D4000C0703040616AB0EB811F0FD106F44031B2
:100D50000122A06AC2EB5000B1EB004F06D106F0B1
:100D600070612C20005DB1EB006F01D00120BBE56C
:100D70000020B9E50000474200380240042808D1AD
:100D80004FF0E021096941F004014FF0E0221161C8
:100D900007E04FF0E021096921F004014FF0E02263
:100DA0001161704770B504462546681EB0F1807F1A
:100DB00001D301200FE0681E4FF0E02148610F21B0
:100DC0004FF0FF3000F0B2FB00204FF0E0218861CF
:100DD00007200861002070BD10B504460CB9012041
:100DE00010BDA06900B100E000BF94F8410028B92F
:100DF000002084F84000204600F02AF8242084F8DF
:100E000041002068C06820F400502168C860204676
:100E100000F022FA2068006920F4904021680861FF
:100E20002068406920F02A00216848612068C06875
:100E300040F400502168C86000206064202084F8DD
:100E4000410084F842000020606300BFC8E7000052
:100E500010B586B00446142101A8FFF7EBF91F492D
:100E60002068884238D100BF002000901C480068EC
:100E700040F010001A4908600846006800F01000B1
:100E8000009000BF00BF00BF00200090144814383D
:100E9000006840F0010012491439086008460068F3
:100EA00000F00100009000BF00BF4FF4C06001904F
:100EB0000220029000200390032004900720059058
:100EC00001A90848FFF7F8F9002201212520FFF7C2
:100ED00075FB2520FFF75EFB06B010BD001001403A
:100EE00044380240000002402DE9F84F04460E4607
:100EF000174699464FF0000A94F84200202852D134
:100F000006B117B90120BDE8F88F002060642220E7
:100F100084F8420000202063FFF7CEFA8246A785BE
:100F2000E785A068B0F5805F04D1206910B900257D
:100F3000B04602E035464FF000082CE05346002250
:100F400020212046CDF8009000F09CFA20B120200E
:100F500084F842000320D6E745B920684068C0F312
:100F60000800A8F8000008F1020811E0A068B0F538
:100F7000805F03D0A06828B9206918B9206840684C
:100F8000287004E02068406800F07F0028706D1C25
:100F9000E08D401EE085E08D0028CFD1202084F830
:100FA00042000020AFE70220ADE700BFFEE70000EF
:100FB00000B587B0142102A8FFF73CF900BF00205C
:100FC00001904148006840F010003F490860084621
:100FD000006800F01000019000BF00BF00BF0020BB
:100FE00001900846006840F020000860084600684C
:100FF00000F02000019000BF00BF00BF0020019062
:101000000846006840F0800008600846006800F06C
:101010008000019000BF00BF00BF00200190084683
:10102000006840F0010008600846006800F0010018
:10103000019000BF00BF00BF00200190084600687B
:1010400040F0020008600846006800F002000190CD
:1010500000BF00BF01224FF4C0611C48FFF726FA11
:1010600000224FF400411A48FFF720FA182002909E
:10107000002003900120049002A91648FFF71CF9F4
:101080004FF4C0600290012003900020049005906E
:1010900002A90E48FFF710F90120029000200390EA
:1010A0000220049002A90C48FFF706F94FF4004013
:1010B00002900120039000200490059002A90448AA
:1010C000FFF7FAF807B000BD3038024000140240C4
:1010D00000040240001002400000024010B50B481E
:1010E0000B4908604FF4E1304860002108488160F6
:1010F000C16001610C21416100218161C161FFF783
:101100006BFE08B1FFF7D5F810BD000000100140DC
:101110002000002000BFFEE700BFFEE770477047D9
:101120007047000000B593B0302107A8FFF782F8A0
:10113000142102A8FFF77EF800BF00200190244888
:10114000006840F08050224908600846006800F0BE
:101150008050019000BF00BF00BF002001901D48DB
:10116000006840F480401B4908600846006800F4AD
:101170008040019000BF00BF01200790000408904C
:1011800002200D9041050E9104210F91A82110918C
:10119000022111910421129107A8FFF7A1FB08B1C8
:1011A000FFF787F80F2002900220039000200490A0
:1011B0004FF4A05005904FF480500690052102A8EE
:1011C000FFF74EFA08B1FFF774F813B000BD000046
:1011D00040380240007000400348006840F470004E
:1011E000014908607047000088ED00E000BF00BFC3
:1011F00002680C3252E8002F22F4907102680C321F
:1012000042E80013002BF3D100BF00BF00BF02680B
:10121000143252E8002F22F001010268143242E831
:101220000013002BF3D100BF016B01290ED100BFC9
:1012300000BF02680C3252E8002F22F01001026851
:101240000C3242E80013002BF3D100BF202180F8BC
:1012500042100021016370472DE9F84F04462068D1
:10126000006920F44050E168084321680861216961
:10127000A068084361690843E16908430090206859
:10128000C06849F20C618843009908432168C8602E
:101290002068406920F44070A169084321684861D2
:1012A00076492068884203D075492068884203D176
:1012B000FFF7AEFA814602E0FFF79AFA8146E0694D
:1012C000B0F5004F6CD102206168A0FB01500346CD
:1012D0001920A9FB007001462A463846FEF772FF26
:1012E0006421B0FBF1F04FEA001A02206168A0FB14
:1012F00001510B461920A9FB00712A463846FEF71A
:1013000061FF834602206168A0FB0150034619205B
:10131000A9FB00712A463846FEF754FF6421B0FB52
:10132000F1F000EBC00101EB0010ABEB80003221CB
:1013300001EBC0006421B0FBF1F000F0F8000AEB13
:10134000400A02206168A0FB015003461920A9FB56
:10135000007001462A463846FEF734FF83460220D5
:101360006168A0FB015003461920A9FB00712A46C1
:101370003846FEF727FF6421B0FBF1F000EBC00117
:1013800001EB0010ABEB8000322101EBC0006421C7
:10139000B0FBF1F000F007005044216888606AE07B
:1013A00004206168A0FB015003461920A9FB0070CE
:1013B00001462A463846FEF705FF8246042061684A
:1013C000A0FB015003461920A9FB007001462A46E4
:1013D0003846FEF7F7FE6421B0FBF1F000EBC001E8
:1013E00001EB0010AAEB8000322101EB0010642118
:1013F000B0FBF1F000F0F00A04206168A0FB01707E
:1014000003461920A9FB00513A462846FEF7DAFEAA
:101410006421B0FBF1F00AEB001A04206168A0FB24
:1014200001510B461920A9FB00712A463846FEF7E8
:10143000C9FE834604206168A0FB015003461920C1
:10144000A9FB007001462A463846FEF7BBFE642120
:10145000B0FBF1F000EBC00101EB0010ABEB800042
:10146000322101EB00106421B0FBF1F000F00F001D
:10147000504421688860BDE8F88F000000100140EA
:10148000001401402DE9F84304460D4617469846DE
:10149000089E31E0701C70B3FFF70EF8A0EB080057
:1014A000B04200D816B90320BDE8F8832068C068B0
:1014B00000F00400F8B1802D1ED0402D1CD0206813
:1014C0000068C0F3C000B0B100BF002000902068E9
:1014D0000068009020684068009000BF00BF204670
:1014E000FFF784FE0820606400BF002084F84000FD
:1014F00000BF0120D8E7FFE7206800682840A84225
:1015000001D1012000E00020B842C3D00020CBE789
:1015100010B500F09BF810BD00BFFEE70248006860
:10152000C0F30220704700000CED00E010B5002869
:1015300004DB0A07130E054A135406E00A07140ECB
:10154000034A00F00F031B1FD45410BD00E400E059
:1015500018ED00E002E008C8121F08C1002AFAD105
:1015600070477047002001E001C1121F002AFBD123
:101570007047000010B504460420FFF7FFFB014848
:10158000046010BD1C00002004480068C06840F0E2
:10159000200002490968C860704700002000002050
:1015A00011B5002404E04FF47A7000F007F8641CD1
:1015B000BDF800008442F6D318BD000071B50022CA
:1015C0004FF0E0256C690E4E009D366805FB06F372
:1015D0004FF0E025A96910E04FF0E025A8698842A6
:1015E0000BD0884202D20D1A2A4402E0251A0D447B
:1015F0002A4401469A4200D300E0EDE700BF78BDDF
:101600001C0000200024FEF75DFFFFF78BFDFFF7B5
:10161000CFFCFFF763FDA820FFF7ACFFFFF7B4FF97
:1016200010E00948006850B107480068844203D1BF
:1016300000200549086002E00348008884B20A20BF
:10164000FFF7AEFFEDE700001800002008B50F48D7
:1016500000680068C0F34010B0B14FF47A73012203
:1016600069460A48FFF740FC09480068B0F5FA6F80
:101670000AD29DF800000749054A126888540448B8
:101680000068401C0249086008BD000020000020DE
:10169000180000206800002000000000000000008A
:1016A0000102030406070809000000000102030408
:1016B000D01600080000002020000000541500088B
:1016C000F016000820000020180C00006415000827
:1016D0000000000010000000010000000024F400E1
:1016E00000000000000000000000000000000000FA
:040000050800018965
:00000001FF
