:020000040800F2
:10000000E048002061020008251F00082B120008AC
:10001000211F000891030008A1260008000000002D
:10002000000000000000000000000000A101000826
:100030009903000800000000FD010008E523000806
:100040007B0200087B0200087B0200087B0200089C
:100050007B0200087B0200087B0200087B0200088C
:100060007B0200087B0200087B0200087B0200087C
:100070007B0200087B0200087B0200087B0200086C
:100080007B0200087B0200087B0200087B0200085C
:100090007B0200087B0200087B0200087B0200084C
:1000A0007B0200087B0200087B0200087B0200083C
:1000B0007B0200087B0200087B0200087B0200082C
:1000C0007B0200087B0200087B0200087B0200081C
:1000D0007B0200086D2600087B0200087B020008F6
:1000E0007B0200087B0200087B0200087B020008FC
:1000F0007B0200087B0200087B0200087B020008EC
:100100007B0200087B0200087B0200087B020008DB
:100110007B0200087B0200086525000875250008A1
:100120007B0200087B020008950300087B020008A0
:100130007B0200087B0200087B0200087B020008AB
:100140007B0200087B0200087B0200087B0200089B
:100150007B0200087B020008970300087B0200086E
:100160007B0200087B0200087B0200087B0200087B
:100170007B0200087B0200087B02000800000000F0
:100180007B0200087B020008DFF810D000F0EEF8D8
:100190000048004711290008AFF30080E048002024
:1001A0002C4B19680868B0E8F04F80F30988BFF35A
:1001B0006F8F4FF0000080F311887047000000003F
:1001C00008480068006880F308884FF0000080F35A
:1001D000148862B661B6BFF34F8FBFF36F8F00DF35
:1001E00000BF00BF08ED00E0DFF80C00016841F43B
:1001F00070010160704700BF88ED00E0EFF30980F7
:10020000BFF36F8F134B1A681EF0100F08BF20ED5D
:10021000108A20E9F04F106009B44FF0500080F3CD
:100220001188BFF34F8FBFF36F8F03F007FA4FF0C2
:10023000000080F3118809BC19680868B0E8F04F25
:100240001EF0100F08BFB0EC108A80F30988BFF3CE
:100250006F8F704714000020EFF305807047000097
:100260000648804706480047FEE7FEE7FEE7FEE750
:10027000FEE7FEE7FEE7FEE7FEE7FEE7CD24000827
:10028000890100082DE9F05F0546002092469B4653
:1002900088460646814640241BE02846414647469C
:1002A000224600F053F853465A46C01A914110D3E3
:1002B00011461846224600F03AF82D1A67EB01085D
:1002C0004F4622460120002100F031F817EB0009CB
:1002D0004E41201EA4F10104DFDC484631462A4687
:1002E0004346BDE8F09F40EA01039B0703D009E0C5
:1002F00008C9121F08C0042AFAD203E011F8013B12
:1003000000F8013B521EF9D27047D2B201E000F86A
:10031000012B491EFBD270470022F6E710B51346A9
:100320000A4604461946FFF7F0FF204610BD202A72
:1003300004DB203A00FA02F1002070479140C2F13C
:10034000200320FA03F3194390407047202A04DB6E
:10035000203A21FA02F00021704721FA02F3D0403E
:10036000C2F120029140084319467047064C074DE0
:1003700006E0E06840F0010394E807009847103475
:10038000AC42F6D3FFF704FFD4540008F45400083D
:1003900000BFFEE770477047704772B600BFFEE7C8
:1003A0000348006803490968C1EB014108447047EC
:1003B000241400408000002070B5044600F01AF9B3
:1003C00006462546681C10B104480078054400BF65
:1003D00000F010F9801BA842FAD370BD0C00002079
:1003E000F8B502460B460025002400200021D6E087
:1003F000012606FA01F51E6806EA0504AC4274D12E
:100400001E7906F00306012E04D01E7906F00306BD
:10041000022E13D190684F000326BE40B0434F0018
:10042000DE68BE4030439060506801268E40B04385
:100430001E79C6F300168E40304350601E7906F0D8
:100440000306032E09D0D0684F000326BE40B043F8
:100450004F009E68BE403043D0601E7906F0030610
:10046000022E13D1CF0802F1200656F827004E07BE
:10047000F70E0F26BE40B0434F07FF0E1E69BE4069
:100480003043CF0802F1200646F8270010684F00DD
:100490000326BE40B0431E7906F003064F00BE405F
:1004A000304310605E6806F44036002E76D000BF00
:1004B000002600963C4E366846F480463A4F3E6031
:1004C0003E46366806F48046009600BF00BF374EB1
:1004D0008F0856F827008E07370F0F26BE40B0430F
:1004E000334EB24202D1002624E057E0314EB242F0
:1004F00001D101261EE0304EB24201D1022619E0A0
:100500002E4EB24201D1032614E02D4EB24201D14B
:1005100004260FE02B4EB24201D105260AE02A4EF6
:10052000B24201D1062605E0284EB24201D107268B
:1005300000E008268F073F0FBE4030431B4E8F0858
:1005400046F82700224E3068A0435E6806F4801605
:1005500006B120431E4E3060361D3068A0435E68F1
:1005600006F4001606B12043194E361D3060184EB1
:10057000361F3068A0435E6806F4003606B120439B
:10058000134E361F3060361F3068A0435E6806F495
:10059000803606B120430E4E083E3060491C1029BB
:1005A000FFF426AFF8BD000044380240083801408F
:1005B000000002400004024000080240000C02401B
:1005C000001002400014024000180240001C0240CB
:1005D000083C014010B5426921EA020302EA010425
:1005E00043EA0443836110BD0AB1816101E00B0459
:1005F00083617047014800687047000004000020D4
:1006000003480068034909780844014908607047B5
:10061000040000200C00002010B50D48006840F4D4
:1006200000700B4908600846006840F4806008606C
:100630000846006840F480700860032000F0DCF891
:100640000F2000F007F800F05FF8002010BD000058
:10065000003C02402DE9F04188B004460027B8462E
:1006600000BF002001902348006840F0100021499D
:1006700008600846006800F01000019000BF00BF4D
:1006800002A903A800F08EF9069F1FB900F0B2F985
:10069000054602E000F0AEF945001748B5FBF0F062
:1006A000A0F1010815481649086040F2E7311448E6
:1006B000C160C0F80480002101618160816100F0A7
:1006C00051FC064696B90E4800F080FC06466EB90D
:1006D000362000F043F8102C07D2002221463620A5
:1006E00000F04CF80748046000E00126304608B0EE
:1006F000BDE8F0814038024040420F000010004049
:10070000DC0100200800002008B500BF0020009098
:100710001148006840F480400F49086008460068AE
:1007200000F48040009000BF00BF00BF0020009098
:10073000081F006840F08050091F086008460068E4
:1007400000F08050009000BF00BF00220F21901EDB
:1007500000F014F808BD0000443802400146084685
:10076000002809DB00F01F0301229A4043099B0087
:1007700003F1E023C3F8002100BF70472DE9F05FCB
:1007800080460D461646002701F0A2FF074639466F
:100790002A46334601F00700C0F1070ABAF1040FF8
:1007A00002D94FF0040A01E0C0F1070AD14600F176
:1007B000040ABAF1070F02D24FF0000A01E0A0F1DB
:1007C000030AD4464FF0010A0AFA09FAAAF1010A0B
:1007D0000AEA020A0AFA0CFA4FF0010B0BFA0CFBB8
:1007E000ABF1010B0BEA030B4AEA0B04214640462E
:1007F00001F08AFFBDE8F09F00BF00F00702064B42
:1008000019684FF6FF031940044B0B4343EA0221DA
:10081000014B196000BF70470CED00E00000FA05C5
:1008200070B504460D460CB9012070BD58480068EB
:1008300000F00700A84209D255490D70084600682B
:1008400000F00700A84201D00120EEE7207800F078
:10085000020002281DD1207800F00400042805D1F0
:100860004C48006840F4E0504A490860207800F0A5
:100870000800082805D14748006840F46040454911
:1008800008604448006820F0F000A168084341492E
:100890000860207800F00100A8B36068012807D143
:1008A0003C4808380068C0F34040B8B90120BCE7B4
:1008B0006068022802D06068032807D135480838EC
:1008C0000068C0F3406048B90120AEE731480838FD
:1008D0000068C0F3400008B90120A6E72D48006871
:1008E00020F00300616808432A490860FFF782FE90
:1008F000064609E0FFF77EFE801B41F28831884200
:1009000002D9032091E707E02248006800F00C00BC
:100910006168B0EB810FEDD11D48006800F0070061
:10092000A84209D91A490D700846006800F007006E
:10093000A84201D0012078E7207800F004000428C4
:1009400007D11448006820F4E050E16808431149D9
:100950000860207800F00800082808D10D480068D9
:1009600020F46040216940EAC1000A49086000F0B3
:1009700051F808490968C1F30311074A515CC8409E
:100980000649086006480068FFF764FE00204CE74F
:10099000003C024008380240983C0008100000204B
:1009A000080000200F2202600D4A126802F00302C4
:1009B00042600B4A126802F0F0028260084A126834
:1009C00002F4E052C260064A126802F46042D208A1
:1009D0000261044A126802F007020A6070470000D0
:1009E00008380240003C024001480068704700009F
:1009F0001000002000B5FFF7F7FF04490968C1F3B4
:100A00008221034A515CC84000BD00000838024002
:100A1000A83C00082DE9F047002400250026A14647
:100A20002548006800F00C0020B1042805D00828F3
:100A30003AD105E0DFF8849039E0DFF8849036E0C1
:100A40001D48001F006800F03F041B48001F00689D
:100A500000F4800078B11A481749091F0968C1F3EA
:100A60008811A0FB01700146224600233846FFF79B
:100A700009FC05460EE011480F49091F0968C1F33A
:100A80008811A0FB01700146224600233846FFF77B
:100A9000F9FB05460848001F0068C0F30140401CF0
:100AA0004600B5FBF6F902E0DFF8109000BF00BF8A
:100AB0004846BDE8F0870000083802400024F400F2
:100AC00000127A00F8B504460CB90120F8BD207870
:100AD00000F00100002874D0F948006800F00C0014
:100AE00004280DD0F648006800F00C00082813D147
:100AF000F348001F006800F48000B0F5800F0BD1B0
:100B0000EF4808380068C0F34040002859D06068BA
:100B1000002856D10120D9E700BF6068B0F5803FBA
:100B200008D1E7480838006840F48030E4490839C3
:100B300008601EE06068B0F5A02F0DD1E0480838CD
:100B4000006840F48020DE490839086008460068E3
:100B500040F4803008600CE0D9480838006820F480
:100B60008030D749083908600846006820F48020A2
:100B7000086000BF606890B1FFF73CFD054606E0E5
:100B8000FFF738FD401B642801D903209EE7CC48BD
:100B900008380068C0F340400028F1D011E0FFF7AA
:100BA00029FD054606E0FFF725FD401B642801D915
:100BB00003208BE7C24808380068C0F34040002893
:100BC000F1D1207800F0020002285FD1BC48006813
:100BD00000F00C0058B1BA48006800F00C0008287A
:100BE0001CD1B748001F006800F48000B0B9B448B9
:100BF00008380068C0F3400020B1E068012801D047
:100C0000012063E7AE480838006820F0F800216949
:100C100040EAC100AA490839086037E0E06800B33B
:100C20000120A8490860FFF7E5FC054606E0FFF74C
:100C3000E1FC401B022801D9032047E7A0480838FF
:100C40000068C0F340000028F1D09D4808380068D3
:100C500020F0F800216940EAC1009949083908608C
:100C600014E0002097490860FFF7C4FC054606E041
:100C7000FFF7C0FC401B022801D9032026E790485B
:100C800008380068C0F340000028F1D1207800F057
:100C9000080008282CD16069A8B101208A490860A1
:100CA000FFF7A8FC054606E0FFF7A4FC401B02285E
:100CB00001D903200AE782486C300068C0F3400085
:100CC0000028F1D014E000207F490860FFF792FC73
:100CD000054606E0FFF78EFC401B022801D90320E1
:100CE000F4E677486C300068C0F340000028F1D18A
:100CF000207800F00400042870D1002770483830B4
:100D0000006800F0805090B900BF002000906C484F
:100D10003830006840F08050694938310860084632
:100D2000006800F08050009000BF00BF01276748B6
:100D3000006800F48070B0B96448006840F48070C6
:100D400062490860FFF756FC054606E0FFF752FCD3
:100D5000401B022801D90320B8E65C48006800F473
:100D600080700028F2D000BFA068012808D1544844
:100D70006830006840F001005149683108601DE0AA
:100D8000A06805280DD14E486830006840F0040086
:100D90004B49683108600846006840F0010008606F
:100DA0000CE047486830006820F001004449683191
:100DB00008600846006820F00400086000BFA068D2
:100DC000A8B1FFF717FC054609E0FFF713FC401B2D
:100DD00041F28831884202D9032077E626E038487C
:100DE00068300068C0F340000028EED013E0FFF741
:100DF00001FC054608E0FFF7FDFB401B41F288318E
:100E0000884201D9032061E62D4868300068C0F3AC
:100E100040000028EFD1012F07D129483830006861
:100E200020F0805026493831086000BFA0690028B2
:100E300045D02348006800F00C0008285DD0A06968
:100E4000022845D100201F490866FFF7D3FB05465D
:100E500006E0FFF7CFFB401B022801D9032035E64F
:100E6000174808380068C0F340600028F1D1D4E981
:100E700007010843616A40EA81110122A06AC2EBBE
:100E8000500041EA00412C20005D41EA00600C491D
:100E9000091F086001200B490866FFF7ABFB0546F8
:100EA00006E0FFF7A7FB401B022801D903200DE64F
:100EB000034808380068C0F340600028F1D049E0DA
:100EC0000838024000004742800E47420070004050
:100ED000002021490866FFF78DFB054606E0FFF775
:100EE00089FB401B022801D90320EFE51B4800685D
:100EF000C0F340600028F2D12CE0A069012800D1A5
:100F0000E4E51648001D0668A069012820D006F413
:100F10008001E06981421BD106F03F01206A8142D5
:100F200016D147F6C0703040616AB0EB811F0FD117
:100F300006F440310122A06AC2EB5000B1EB004F31
:100F400006D106F070612C20005DB1EB006F01D07E
:100F50000120BBE50020B9E500004742003802400F
:100F60007047704710B504460CB9012010BD94F8C5
:100F70003D0028B9002084F83C00204600F025F808
:100F8000022084F83D00211D206801F0F7FA0120BD
:100F900084F8460000BF84F83E0001213F2001553F
:100FA000402001554120015500BF00BF012084F8B9
:100FB000420043200155442001554520015500BF02
:100FC000012084F83D000020D0E77047014691F8E9
:100FD0003D00012801D001207047022081F83D002A
:100FE0000868C06840F001000B68D8601A4B0868B8
:100FF00098421BD00868B0F1804F17D0174B086893
:10100000984213D0164B086898420FD0154B0868C9
:1010100098420BD0144B0868984207D0134B0868CD
:10102000984203D0124B086898420CD10868806837
:1010300000F00702062A0CD00868006840F00100A2
:101040000B68186005E00868006840F001000B6854
:1010500018600020C0E700000000014000040040CC
:1010600000080040000C0040000401400040014026
:1010700000180040704710B5044620680069C0F3AE
:101080004000D8B12068C068C0F34000B0B16FF034
:10109000020021680861012020772068806900F043
:1010A000030018B12046FFF7E5FF05E0204600F0F9
:1010B000ADF8204600F0ABF80020207720680069EA
:1010C000C0F38000D8B12068C068C0F38000B0B120
:1010D0006FF0040021680861022020772068806991
:1010E00000F4407018B12046FFF7C4FF05E0204629
:1010F00000F08CF8204600F08AF800202077206865
:101100000069C0F3C000D8B12068C068C0F3C00057
:10111000B0B16FF0080021680861042020772068D2
:10112000C06900F0030018B12046FFF7A3FF05E0F7
:10113000204600F06BF8204600F069F80020207788
:1011400020680069C0F30010D8B12068C068C0F3FF
:101150000010B0B16FF010002168086108202077FE
:101160002068C06900F4407018B12046FFF782FF84
:1011700005E0204600F04AF8204600F048F800203C
:1011800020772068006900F0010058B12068C0682D
:1011900000F0010030B16FF00100216808612046C5
:1011A00000F036F820680069C0F3C01058B120681C
:1011B000C068C0F3C01030B16FF0800021680861D2
:1011C0002046FFF7CDFE20680069C0F3801058B1BB
:1011D0002068C068C0F3801030B16FF04000216813
:1011E0000861204600F020F820680069C0F3401034
:1011F00058B12068C068C0F3401030B16FF02000D3
:10120000216808612046FFF7ACFE10BD70477047AB
:1012100010B5044603492068884201D1FFF7F0F970
:1012200010BD000000100040704700BFFEE7002125
:1012300006E0142100BF0A1EA1F10103D9B2FAD1C0
:10124000021EA0F10103D8B2F3D170472DE9F0419D
:1012500007460C4615461E46384600F052F8002058
:1012600040EA4400C1B2384600F023F8384600F0A6
:1012700080F828B1384600F060F80120BDE8F08120
:101280002946384600F015F8384600F072F8314625
:10129000384600F00EF8384600F06BF820B13846BA
:1012A00000F04BF80120E9E7384600F046F800204E
:1012B000E4E770B506460C46304602F0FAFA002123
:1012C000304602F001FA002518E0E109304602F04C
:1012D0000DFA6006040E0120FFF7A9FF0121304638
:1012E00002F0F2F90120FFF7A2FF0021304602F0E0
:1012F000EBF90120FFF79BFF681CC5B2082DE4DB6A
:1013000070BD10B50446204602F0D3FA01212046F4
:1013100002F0ECF90121204602F0D6F90120FFF796
:1013200086FF0021204602F0E1F90120FFF77FFF50
:101330000021204602F0C8F910BD10B50446204631
:1013400002F0B7FA0021204602F0BEF90021204643
:1013500002F0CCF90120FFF76AFF0121204602F0DC
:10136000B3F90120FFF763FF0121204602F0BEF927
:1013700010BD70B505460024284602F087FA012109
:10138000284602F0B3F90120FFF751FF012128465A
:1013900002F09AF90120FFF74AFF08E0601CC4B28E
:1013A000FA2C04DD2846FFF7C8FF012070BD28464F
:1013B00002F062FA0028F1D10021284602F084F9F7
:1013C0000020F3E708B5054909680143034A1160A5
:1013D000114609680140009100BF08BD3038024045
:1013E00008B5054909680143034A116011460968B7
:1013F0000140009100BF08BD44380240054A525CDC
:101400000244526922F00402024B5B5C03445A61BD
:1014100070470000503C0008044A525C825822F099
:101420000102024B5B5CC25070470000B03C0008F8
:10143000044A525C825842F00102024B5B5CC2508B
:1014400070470000B03C000802460348405C10446E
:10145000406880B270470000B03C00080246034874
:10146000405C105800F0010070470000B03C0008DC
:1014700010B5054B5B5CC35823F060631343024C0B
:10148000645C035110BD0000503C000810B5054BD2
:101490005B5CC35823F400231343024C645C035188
:1014A00010BD0000B03C000810B5064B5B5C034467
:1014B0005B686FF30F031343024C645C0444636086
:1014C00010BD0000B03C000810B5054B5B5CC35874
:1014D00023F0C0031343024C645C035110BD0000B1
:1014E000503C0008024B5B5C0344DA60704700002C
:1014F000B03C000810B5054B5B5CC35823F4806317
:101500001343024C645C035110BD0000503C0008C2
:1015100010B5054B5B5CC35823F4C0431343024C26
:10152000645C035110BD0000503C000810B5054B31
:101530005B5CC35823F490731343024C645C035107
:1015400010BD0000503C0008024B5B5C03449A60F5
:1015500070470000B03C000810B5054B5B5CC358F9
:1015600023F400731343024C645C035110BD00006C
:10157000503C000810B5054B5B5CC35823F4C053C6
:101580001343024C645C035110BD0000503C000842
:1015900010B5054B5B5CC35823F440331343024C36
:1015A000645C035110BD0000503C0008F0B50246D9
:1015B0000B4600240021186890FAA0F0B0FA80F4DD
:1015C0008AE00125A540186800EA050100297DD0C0
:1015D0005868012802D0586802281CD1986895687C
:1015E00091FAA1F6B6FA86F677000326BE40B54317
:1015F00091FAA1F6B6FA86F6760000FA06F63543B9
:10160000956000BFD86855688D4301FB00F63543EF
:10161000556000BF00BF1869D56891FAA1F6B6FA07
:1016200086F677000326BE40B54391FAA1F6B6FAD6
:1016300086F6760000FA06F63543D56000BF586896
:10164000022831D191FAA1F0B0FA80F0082814D222
:101650005869156A91FAA1F6B6FA86F6B7000F2610
:10166000BE40B54391FAA1F6B6FA86F6B60000FA86
:1016700006F63543156200BF16E05869556A0E0A32
:1016800096FAA6F6B6FA86F6B7000F26BE40B54320
:101690000E0A96FAA6F6B6FA86F6B60000FA06F62E
:1016A0003543556200BF00BF5868156891FAA1F62E
:1016B000B6FA86F677000326BE40B54391FAA1F646
:1016C000B6FA86F6760000FA06F600E003E0354347
:1016D000156000BF00BF641C1868E04000287FF45C
:1016E00070AFF0BD10B5044600F012FE2060206817
:1016F00000F0DAFD6060606800F0E6FDA060606800
:1017000000F0F4FDE06010BD02480068C0F38810EE
:10171000704700000438024030B50246012300BF84
:101720001068C0F3801038BBD1E9000420438C68F6
:101730002043CC6820430C6920434C6920438C69CA
:101740002043CC6920430C6A204314684FF6BF75D0
:10175000AC4320431060506820F004004C6940EA1C
:1017600014405060086AB0F5005F04D1486A84B242
:10177000146100BF00BF0023D06920F40060D06175
:10178000184630BD10B5024613682C4882420ED070
:10179000B2F1804F0BD02A48824208D029488242B9
:1017A00005D02948824202D02848824204D123F041
:1017B00070004C6840EA04032048824220D0B2F115
:1017C000804F1DD01E4882421AD01E48824217D038
:1017D0001D48824214D01D48824211D01C488242CA
:1017E0000ED01C4882420BD01B48824208D01B48B6
:1017F000824205D01A48824202D01A48824204D15D
:1018000023F44070CC6840EA040313608868D06217
:1018100000BF0888906200BF0848824202D00B488F
:10182000824203D10869106300BF00BF00BF506946
:1018300040F00100506100BF002010BD00000140D9
:101840000004004000080040000C0040000401407B
:1018500000400140004401400048014000180040A1
:10186000001C00400020004008B50168009100BF46
:101870004168009100BF08BD2DE9FF4104460D46B7
:1018800001270026204600F059F8002845D1E968D4
:101890006868084329690843A9690843E16849F26F
:1018A0000C6291430843E060A868216921F440512B
:1018B0000143216100BF6869616921F440710143FE
:1018C000616100BF6846FFF70DFF1648844201D1F1
:1018D000039E17E01448844201D1029E12E013488F
:1018E000844201D1029E0DE01148844201D1039E41
:1018F00008E01048844201D1029E03E00E48844271
:1019000000D1029E4EB1286838B1002731462046EA
:101910002B68AA6900F017F800BF384604B0BDE88C
:10192000F0810000001001400044004000480040E9
:1019300000140140004C0040005000400146C868BF
:10194000C0F3403070472DE9FC5F06460C469146D7
:101950001D46B9F5004F68D10220A0FB0570034673
:101960001920A4FB00A001463A465046FEF78AFC27
:101970006421B0FBF1F04FEA001A0220A0FB0571D0
:101980000B461920A4FB00B13A465846FEF77AFCF4
:1019900083460220A0FB057003461920A4FB00012A
:1019A0003A46CDE90001FEF76DFC6421B0FBF1F091
:1019B00000EBC00101EB0010ABEB8000322101EB2A
:1019C000C0006421B0FBF1F000F0F8000AEB400A1F
:1019D0000220A0FB057003461920A4FB00B13A4683
:1019E0005846FEF74FFC83460220A0FB05700346D5
:1019F0001920A4FB00013A46CDE90001FEF742FCA4
:101A00006421B0FBF1F000EBC00101EB0010ABEB87
:101A10008000322101EBC0006421B0FBF1F000F046
:101A20000700504480B2B06067E00420A0FB05705E
:101A300003461920A4FB00A001463A465046FEF793
:101A400021FC82460420A0FB05711920A4FB00B0F4
:101A500084463A460B4658466146FEF713FC64211D
:101A6000B0FBF1F000EBC00101EB0010AAEB80002D
:101A7000322101EB00106421B0FBF1F000F0F00A1C
:101A80000420A0FB057003461920A4FB00B001460A
:101A90003A465846FEF7F6FB6421B0FBF1F00AEB3C
:101AA000001A0420A0FB057003461920A4FB00B116
:101AB0003A465846FEF7E6FB83460420A0FB057035
:101AC00003461920A4FB00013A46CDE90001FEF7C8
:101AD000D9FB6421B0FBF1F000EBC00101EB001079
:101AE000ABEB8000322101EB00106421B0FBF1F080
:101AF00000F00F00504480B2B060BDE8FC9F70B5AC
:101B00004FF48000FFF75EFC00F0DAFD054600228E
:101B1000052100F009FA044621463A2000F0E0FDD4
:101B20003A2000F0BFFD00F0CBFD05460022052164
:101B300000F0FAF904462146462000F0D1FD462087
:101B400000F0B0FD70BD000000B587B0142102A800
:101B5000FEF7E2FB00BF002001904748006840F01C
:101B60002000454908600846006800F02000019008
:101B700000BF00BF00BF002001900846006840F091
:101B8000800008600846006800F08000019000BFF7
:101B900000BF00BF002001900846006840F001002F
:101BA00008600846006800F00100019000BF00BF17
:101BB00000BF002001900846006840F04000086027
:101BC0000846006800F04000019000BF00BF00BF61
:101BD000002001900846006840F0020008600846B6
:101BE000006800F00200019000BF00BF01224FF426
:101BF000C0612248FEF7F8FC002240212048FEF791
:101C0000F3FC012280211E48FEF7EEFC01224FF476
:101C100040711C48FEF7E8FC4FF4C06002900120C0
:101C2000039004900220059002A91448FEF7D8FB07
:101C3000C02002900120039004900220059002A988
:101C40000F48FEF7CDFB4FF4807002900020039008
:101C50000120049002A90A48FEF7C2FB4FF440702D
:101C600002900120039004900220059002A90548EB
:101C7000FEF7B6FB07B000BD30380240001402404A
:101C8000001802400004024000B591B0282107A8C6
:101C9000FEF742FB182101A8FEF73EFB4FF48050EF
:101CA000FFF79EFB0120FFF78DFBE0200190022053
:101CB00002900320039000200490059005200690D8
:101CC00001A91248FFF772FC002007904FF48270C0
:101CD0000890002009900A9001200B9040020C907F
:101CE00038200D9000200E900F900A20109007A928
:101CF0000748FFF711FD00200549496821F0100150
:101D00000143034A516000BF11B000BD0000024012
:101D10000030014030B587B0142102A8FEF7FCFA6C
:101D200020202049096801431E4A116011460968B4
:101D30000140019100BF00BF00F0C2FC0546002237
:101D4000052100F0F1F804462146372000F0C8FCD8
:101D5000372000F0A7FC5320ADF8080000200390C6
:101D60004FF6FF70049002A90F48FFF70BFD00BF6C
:101D70000D48006820F080000B49086000BF00207B
:101D8000496821F070010143074A516000BF00BF5C
:101D90001046806820F080001146886000BF07B0C0
:101DA00030BD0000403802400014004030B58DB016
:101DB0001C2106A8FEF7B0FA18216846FEF7ACFA17
:101DC0001020FFF70DFB0120FFF7FCFA4FF4C06075
:101DD00000900220019003200290002003900490C4
:101DE0000720059069464B48FFF7E0FB4FF0006283
:101DF00002214948FFF73CFB002202214648FFF739
:101E000063FB4FF4003202214348FFF7C1FB4FF45C
:101E1000807202214048FFF789FB002202213E48E0
:101E2000FFF79AFB4FF4806202213B48FFF762FB09
:101E3000002202213848FFF79DFB0022022136488C
:101E4000FFF766FB02213448FFF7D8FA4FF0006233
:101E500007213148FFF70CFB402207212E48FFF7EE
:101E600033FB4FF4803207212B48FFF791FB002210
:101E700007212948FFF75AFB002207212648FFF7D0
:101E80006BFB4FF4806207212348FFF733FB0022EE
:101E900007212148FFF76EFB002207211E48FFF7AC
:101EA00037FB07211C48FFF7A9FA00F009FC05469B
:101EB0000022052100F038F804462146252000F0D4
:101EC0000FFC252000F0EEFB4FF4E13006900020DF
:101ED0000790089009900C200A9000200B900C901D
:101EE00006A90E48FFF7C8FC00BF0C48006920F4A3
:101EF00090400A4908610846406920F02A0048617C
:101F000000BF00BF0846C06840F40050C86000BF72
:101F10000DB030BD000002400064024000100140DE
:101F200000BFFEE700BFFEE7F0B503460C4603F036
:101F30000701C1F10700042801D9042001E0C1F123
:101F400007000646081D072801D2002000E0C81E31
:101F500005460120B040401E2040A8400127AF4068
:101F60007F1E17403843F0BD70B500240CE00025FB
:101F700006E00020074901EBC5010855681CC5B201
:101F8000802DF6DB601CC4B2082CF0DB00F0A0F85A
:101F900070BD0000DC400020F0B5144600267F280C
:101FA00001DC3F2900DDF0BD0B46CF1701EB577771
:101FB000FF10C7F10707FAB2CF1701EB5777FF10F1
:101FC000A1EBC707FDB2C5F107070123BB40DEB295
:101FD0004CB10A4B03EBC0039B5C3343074F07EB49
:101FE000C007BB5408E0054B03EBC0039B5CB34345
:101FF000024F07EBC007BB5400BFD4E7DC40002012
:1020000010B50021AE2000F03FF90021D52000F0EE
:102010003BF90021502000F037F90021A82000F002
:1020200033F900213F2000F02FF90021D32000F0E8
:102030002BF90021084600F027F90021402000F08C
:1020400023F900218D2000F01FF90021142000F059
:102050001BF90021202000F017F90021022000F0D8
:1020600013F90021A12000F00FF90021C02000F099
:102070000BF90021DA2000F007F90021122000F00E
:1020800003F90021812000F0FFF80021EF2000F08B
:10209000FBF80021D92000F0F7F80021F12000F032
:1020A000F3F80021DB2000F0EFF80021302000F0F1
:1020B000EBF80021A42000F0E7F80021A62000F0B2
:1020C000E3F80021AF2000F0DFF8FFF74DFF10BD6F
:1020D00070B500241CE004F1B001C8B2002100F08A
:1020E000D3F80021084600F0CFF80021102000F0BE
:1020F000CBF8002508E0084901EBC501085D012186
:1021000000F0C2F8681CC5B2802DF4DB601CC4B2BC
:10211000082CE0DB70BD0000DC4000202DE9F84F0A
:1021200080460F4616461C46BA462046E31704EB87
:102130005373DB1021464FEAE47C04EB5C7C4FEAEE
:10214000EC0CA4EBCC0CBCF1000F02D04FF0010C56
:1021500001E04FF0000C6344224604EBD27C4FEACE
:102160006C0C03FB0CF303F0FF0BA6F12000C6B2CE
:1021700000254EE00C2C07D106EB4600274901EB69
:102180008000405D009013E0102C05D1244800EB46
:102190000610405D00900BE0182C07D106EBC6003E
:1021A000204901EB8000405D009001E0BDE8F88F20
:1021B0004FF0000927E0009800F0800028B1394670
:1021C00040460A9AFFF7E8FE09E00A9808B901209C
:1021D00000E00020024639464046FFF7DDFE009849
:1021E0004006000E0090781CC7B2A7EB0A00A04280
:1021F00005D1574608F1010000F0FF0806E009F19B
:10220000010000F0FF09B9F1080FD4DB00BF681C22
:10221000C5B25D45AEDB00BFC8E70000DB3C00088F
:102220004F4100083F470008F8B506460F461546DF
:102230001C4621E004EBD4714910C1F18001B14288
:1022400002DA00263819C7B2C4F14000B84204DAF5
:10225000002006460746FFF787FE012000902A78F7
:10226000234639463046FFF759FF204604EBD0712C
:1022700006EB6101CEB26D1C28787E2802DC28783E
:102280002028D7DAF8BD000070B505460E460EB11D
:10229000402400E000242B4622463C210148FEF762
:1022A000D5FF70BD14400020014600BF04480068FF
:1022B00000F0F0000009034A125C21FA02F07047B6
:1022C00008380240983C0008014600BF05480068F5
:1022D00000F4E050044A02EB9020027821FA02F068
:1022E0007047000008380240A83C0008014600BFC3
:1022F0000548006800F46040044A02EB5030027860
:1023000021FA02F07047000008380240A83C00089B
:1023100010B5002400BF0C48006800F00C0020B18C
:10232000042804D0082809D103E0084C08E0084C30
:1023300006E0082000F00EF8044601E0034C00BF60
:1023400000BF204610BD0000083802400024F40001
:1023500000127A002DE9F0410446002500260027EE
:1023600000BF1548006800F4800006461EB1B6F5AF
:10237000800F04D101E0114D03E0114D01E00F4D3C
:1023800000BF00BF082C14D100BF0B48006800F04C
:102390003F00B5FBF0F8FFF7B7F908FB00F8064877
:1023A000006800F44030012101EB10404000B8FB10
:1023B000F0F73846BDE8F081043802400024F4000C
:1023C00000127A0010B500F0C5F800F08DF810BDCD
:1023D00000BFFFF7F7FF0248006800F04DFBF8E789
:1023E0000000002010B500BF502080F31188BFF31B
:1023F0004F8FBFF36F8F00BF01F004FB18B14FF098
:1024000080500449086000BF002080F3118800BF9D
:1024100010BD000004ED00E000B593B0302107A826
:10242000FDF77AFF142102A8FDF776FF00BF002018
:1024300001902448006840F0805022490860084616
:10244000006800F08050019000BF00BF00BF002076
:1024500001901D48006840F480401B490860084610
:10246000006800F48040019000BF00BF0120079089
:102470000004089002200D9041050E9104210F9157
:10248000A8211091022111910421129107A8FEF7B1
:1024900019FB08B1FDF781FF0F2002900220039085
:1024A000002004904FF4A05005904FF48050069007
:1024B000052102A8FEF7B4F908B1FDF76EFF13B0CD
:1024C00000BD000040380240007000400348006832
:1024D00040F47000014908607047000088ED00E09A
:1024E00010B500F041FA10BD1CB5054804210023C9
:1024F0008022CDE9001003A1054801F0EDF91CBDD3
:102500007C000020746573745F7461736B0000005D
:10251000552600080EB5012000F036F9094B20229F
:102520000949A1F1200000F04BF9092008218A0196
:102530004B01CDE900210290044A1146044800F005
:1025400006F90EBDA9310008343F00200004024006
:1025500014400020704710B5FFF7DCFFFFF7C0FF05
:1025600010BD000010B50248FEF785FD10BD00004B
:10257000DC01002010B500F07DF810BD10B5026838
:10258000294B98420ED0B0F1804F0BD0274B984288
:1025900008D0274B984205D0264B984202D0264BB4
:1025A000984203D122F070024B681A431E4B9842A6
:1025B00020D0B0F1804F1DD01C4B98421AD01C4B3C
:1025C000984217D01B4B984214D01B4B984211D005
:1025D0001A4B98420ED01A4B98420BD0194B984286
:1025E00008D0194B984205D0184B984202D0184B8E
:1025F000984203D122F44072CB681A4322F0800340
:102600004C6943EA040202608B68C3620B68836210
:10261000054B984202D0084B984201D10B690363E5
:102620000123436110BD0000000001400004004090
:1026300000080040000C0040000401400040014040
:10264000004401400048014000180040001C0040C8
:102650000020004008B501F0CFF9009005E000F03F
:10266000CDF90121684600F0A5FEF8E710B500F0AD
:1026700007FD10BD00BF0848006900F0010050B11F
:1026800000BF6FF001000449086100BF0348006803
:10269000401C024908607047001400408000002080
:1026A00000BFFEE7002809DB00F01F020121914076
:1026B0004209920002F1E022C2F8001170470000C6
:1026C00002480068C0F30220704700000CED00E0F3
:1026D00002480068C0F30220704700000CED00E0E3
:1026E00010B5002804DB0A07130E054A135406E050
:1026F0000A07140E034A00F00F031B1FD45410BD29
:1027000000E400E018ED00E010B5002804DB0A0743
:10271000130E054A135406E00A07140E034A00F08C
:102720000F031B1FD45410BD00E400E018ED00E0BF
:1027300002E008C8121F08C1002AFAD1704770478A
:10274000002001E001C1121F002AFBD170472DE9D2
:10275000F04704460D4616461F46DDE9099ADDF8A6
:10276000208025606660A760C4F80C80C4F81090D3
:10277000C4F814A00121204600F0A6FF0121204644
:1027800000F0B4FFBDE8F0870B49087000BF0B49AB
:10279000C96841F00101094AD16000BF00BF6FF074
:1027A0000101116100BF00BF1146096841F001013C
:1027B000116000BF7047000084000020001400403A
:1027C0002DE9F04105460C4616461F463F48068255
:1027D00045618461C7613E4A02213E48FEF7B4FE6E
:1027E0002A4602213B48FEF77DFE3A4802213A4A3A
:1027F000525C02441269384B5B5C03441C6100BFAD
:102800003246FEF751FE33480221334A525C825869
:1028100042F48022304B5B5CC25000BFFEF7FCFDEF
:1028200002212C48FEF704FE294A07212948FEF719
:102830008BFE07212748FEF7EFFD2548001F00BF4C
:1028400000BF00BF00F1140252E8002F42F0400127
:1028500000F1140242E80013002BF3D100BF00BFC7
:102860001B48001F00BF00BF00BF00F1140252E868
:10287000002F42F0800100F1140242E80013002B07
:10288000F3D100BF00BF1248001F00BF00BF00BF50
:1028900000F10C0252E8002F42F0100100F10C028E
:1028A00042E80013002BF3D100BF00BF0848001F0F
:1028B000FEF7DAFF00BF0648001FC06840F4005072
:1028C0000349091FC86000BFBDE8F0815C400020DB
:1028D0000410014000640240B03C000810B50446FA
:1028E0000A48007868B1FDF75BFD04EB4401C1EBD9
:1028F000C41100EBC10200BFFDF752FD9042FBD9AD
:1029000002E02046FDF758FD10BD000084000020C5
:1029100088B0FDF781FEFFF77FFDFFF715F9FFF7A0
:10292000EEF8FFF7F7F9FFF741FAFFF7ADF9FFF718
:1029300012FE1C22064901A8FDF7D5FC002101A8C2
:1029400000F06BF80349086000F062F800BFFEE792
:102950007C3C00080000002001460020842901D0B2
:10296000CA1C10447047000010B5FFF749FBFFF781
:10297000FBFA00212E20FFF787FC00212620FFF71D
:1029800083FC00210846FFF77FFC00210846FFF783
:102990007BFC00210720FFF777FC00210720FFF7D1
:1029A00073FC00210846FFF76FFC0021FF20FFF7B2
:1029B0006BFC18230CA214211120FFF735FCFFF744
:1029C00087FB4FF47A70FFF789FFFFF7CDFA1823E2
:1029D00007A214210A20FFF727FCFFF779FB00214B
:1029E0002F20FFF751FC10BD57656C636F6D6500BC
:1029F000536E65656B3230323200000010B54FF413
:102A000000710248FDF7E6FD10BD00000014024011
:102A100010B500F0B3FD002010BD7FB504460D4693
:102A2000606998B1A06988B1B4F90800FFF794FF14
:102A30000646D4E90510CDE9006102902B462269D3
:102A4000D4E9001000F07AFF039013E0B4F9080015
:102A5000FFF782FF064603A8CDE90060238A9AB2F9
:102A60002B46D4E9001000F037FF012802D00020E7
:102A700004B070BD0398FBE710B50446204600F093
:102A800003FD002010BD00002DE9F04105460E4673
:102A90001C4807681C480068001D00F086FB50B900
:102AA0001948006890F82C100120884017490968DF
:102AB000814316480160681C38B936B11248016874
:102AC000091D134800F0BCFB1AE07C190E48006891
:102AD0004460BC4207D20C480168091D0D480068DB
:102AE00000F094FB0CE008480168091D0A480068E2
:102AF00000F08CFB09480068844201D2074804605A
:102B0000BDE8F08128000020140000202C000020E7
:102B1000000300201C0000201800002044000020BA
:102B200010B5044600F098FB23480068401C224979
:102B300008602248006840B92048046008460068E0
:102B400001280DD100F03EF90AE01D48006838B9AF
:102B50001A480068C06AE16A884201D817480460D0
:102B600018480068401C1749086094F82C10012090
:102B7000884015490968084313490860E16A01EB78
:102B80008101124A02EB8100211D00F059FB00F087
:102B90008DFB0B48006868B108480068C06AE16AAC
:102BA000884207D24FF0805009490860BFF34F8F29
:102BB000BFF36F8F10BD0000240000201400002020
:102BC00030000020400000202C00002024020020C3
:102BD00004ED00E010B516E000F03EFB0C48C068C4
:102BE000C468201D00F0E1FA0A480068401E094947
:102BF000086009480068401E0749086000F056FB5D
:102C0000204600F00BF8044800680028E4D110BD0D
:102C1000EC020020240000202000002010B5044613
:102C200094F8510030B9206B00F05EFB204600F0B4
:102C30005BFB1AE094F85100012803D1204600F014
:102C400053FB12E094F85100022801D1012000E06A
:102C5000002050B900BF502080F31188BFF34F8F80
:102C6000BFF36F8F00BF00BFFEE710BD30B54FF45C
:102C70007053174800F007042CB1C01D20F0070066
:102C8000134C041B1B1B0246124C22600024114DE6
:102C90006C60D018083820F007000F4C206000242A
:102CA0000D4D2D686C600C4D2D682C601146441A3A
:102CB0004C60094C24680C60084D4C682C60084D31
:102CC0004C682C604FF00044064D2C6030BD000075
:102CD0001403002050000020580000206000002055
:102CE0005C0000206C00002000BFFFF773FF064867
:102CF00000680128F9D94FF0805004490860BFF3FB
:102D00004F8FBFF36F8FF0E72402002004ED00E047
:102D10002DE9FF5F81460E469246DDE90E7B109C51
:102D2000AAF10100216B01EB800828F0070808F0E8
:102D3000070008B9012000E0002050B900BF502072
:102D400080F31188BFF34F8FBFF36F8F00BF00BFB9
:102D5000FEE786B1002507E0715D04F134004155BE
:102D6000705D00B902E06D1C102DF5D300BF00218D
:102D70004320015502E0002084F83400072F00D3DF
:102D80000627E76267640020A064201D00F03BFA7C
:102D900004F1180000F037FA2461C7F10700A061C0
:102DA00064620020E06484F8500049464046039A7B
:102DB00000F050F92060BBF1000F01D0CBF80040CB
:102DC000BDE8FF9F10B5002407E004EB84010F4A23
:102DD00002EB810000F00AFA641C072CF5D30C48C2
:102DE00000F004FA0B4800F001FA0B4800F0FEF97D
:102DF0000A4800F0FBF90A4800F0F8F904480949CC
:102E0000086004480849086010BD00002402002042
:102E1000B0020020C4020020D8020020EC020020F2
:102E200000030020180000201C00002010B50146FF
:102E3000164800E0006803688B42FBD302464368F3
:102E400013448B4204D143684C68234443600146D9
:102E50000A464B6813440468A34211D10C4C036822
:102E60002468A34208D04B680468646823444B601C
:102E700003681B680B6005E0054B1B680B6001E0F5
:102E800003680B60884200D0016010BD5000002034
:102E9000580000200A490968096809B9012100E0C1
:102EA000002121B14FF0FF31064A116006E00449CC
:102EB0000968C968C868034A416811607047000022
:102EC00018000020440000200E480068401C08B98B
:102ED000012000E0002050B900BF502080F311888D
:102EE000BFF34F8FBFF36F8F00BF00BFFEE700BF80
:102EF000502080F31188BFF34F8FBFF36F8F00BF57
:102F000000BFFEE7700000202DE9F04104464FF0BD
:102F1000000800F08BFB4948006808B9FFF7A6FEDF
:102F2000474800682040002870D1D4B1083404F02C
:102F30000700B0B104F00700C0F10800044404F039
:102F4000070008B9012000E0002050B900BF502060
:102F500080F31188BFF34F8FBFF36F8F00BF00BFA7
:102F6000FEE7002C52D03748006884424ED8364ED7
:102F70003046056801E02E462D686868A04202D2FE
:102F800028680028F7D12D48006885423ED0306877
:102F900000F10808286830606868001B102819D9FB
:102FA0002F1907F0070008B9012000E0002050B9F0
:102FB00000BF502080F31188BFF34F8FBFF36F8F96
:102FC00000BF00BFFEE76868001B78606C60384691
:102FD000FFF72CFF1B4968680968081A194908603F
:102FE0000846006819490968884203D215480068F4
:102FF000164908601249686809680843686000203B
:10300000286013480068401C1149086000F09EFDCC
:1030100008F0070008B9012000E0002050B900BF07
:10302000502080F31188BFF34F8FBFF36F8F00BF25
:1030300000BFFEE74046BDE8F081000058000020D8
:103040006C0000205C000020500000206000002088
:1030500064000020001F4FF080730360001F21F008
:1030600001030360001F054B036014380260001F5A
:103070006FF002030360203870470000C92E00087B
:1030800010B500BF43480068C0F3401030B100BF26
:103090006FF020003F49086000BF7AE000BF3D4864
:1030A0000068C0F30010002873D03A48FEF7DCFB3C
:1030B00039480221394A525C825802F400229ABBF4
:1030C000FEF7AAF903E002213348FEF7A5F9022131
:1030D0003148FEF7C3F90028F5D100BF4FF40010C6
:1030E0002D49886000BF00BF4010886000BF4210BB
:1030F00002212948FEF7CAF902212748FEF7A4F960
:103100002749098A081A2749088002212248FEF720
:103110008FF92348C06900283BD021494869CA6912
:1031200020490988904734E0FFE702211A48FEF75A
:1031300073F903E002211848FEF76EF902211648E0
:10314000FEF78CF90028F5D100BF4FF400101249AA
:10315000886000BF00BF4010886000BF00220221CD
:103160000D48FEF793F902210B48FEF76DF90C4963
:10317000098A081A0B49088002210748FEF758F906
:103180000748C06928B106498869CA69054909889C
:10319000904710BD0010014000640240B03C0008A0
:1031A0005C40002086000020704701460A69D1E992
:1031B00001309860D1E9010358605068884201D11C
:1031C00088685060002008611068401E1060106818
:1031D00070470000034B0360034B0B6040231360F8
:1031E0007047000088000020DC00002000F108018A
:1031F00041604FF0FF31816000F10801C160016161
:1032000000210160704700210161704710B502463E
:103210000B685C1C0CB9106907E002F1080000E0C3
:103220004068446824689C42FAD944684C604C6801
:10323000A160886041600A611468641C146010BD5C
:1032400042684A6093688B60936859609160086136
:1032500003685B1C0360704700BF502080F3118837
:10326000BFF34F8FBFF36F8F00BF0E480068401C45
:103270000C49086008460068012812D10A48006815
:10328000C0B208B9012000E0002050B900BF5020B2
:1032900080F31188BFF34F8FBFF36F8F00BF00BF64
:1032A000FEE770477000002004ED00E00D48006864
:1032B00050B900BF502080F31188BFF34F8FBFF388
:1032C0006F8F00BF00BFFEE706480068401E05493B
:1032D00008600846006820B9002080F3118800BF0C
:1032E00000BF70477000002070B506463546002EBE
:1032F00044D0083D2C46224960680968084008B15E
:10330000012000E0002050B900BF502080F3118858
:10331000BFF34F8FBFF36F8F00BF00BFFEE7206882
:1033200008B9012000E0002050B900BF502080F310
:103330001188BFF34F8FBFF36F8F00BF00BFFEE751
:103340000F49606809680840C0B12068B0B90C49ED
:10335000606809688843606000F068F9094960683E
:1033600009680844074908602046FFF75FFD0648E2
:103370000068401C0449086000F0E8FB70BD0000D4
:103380006C0000205C0000206800002000204FF04E
:10339000E02108618861064800684FF47A71B0FB4B
:1033A000F1F0401E4FF0E0214861072008617047AE
:1033B000100000202DE9F04704460F464FF00009A9
:1033C00054B900BF502080F31188BFF34F8FBFF373
:1033D0006F8F00BF00BFFEE70FB1012000E00020AB
:1033E00050B900BF502080F31188BFF34F8FBFF357
:1033F0006F8F00BF00BFFEE72048006808B90120BA
:1034000000E0002050B900BF502080F31188BFF3C6
:103410004F8FBFF36F8F00BF00BFFEE700F006F9CC
:10342000174806682068C5192068B04207D9206887
:10343000A8420BD9B54209D94FF0010906E020682E
:10344000A84201D8B54201D94FF001092560B9F170
:10345000000F03D0A81B0021FFF716FB00F076FB3E
:103460008046B8F1000F07D14FF080500549086041
:10347000BFF34F8FBFF36F8FBDE8F0874C00002084
:103480002800002004ED00E070B50546FFF7E4FEDB
:1034900015B93048006800E028460446201DFFF7B3
:1034A00084FE78B9E06A00EB80002B4951F82000D7
:1034B00040B994F82C1001208840284909688143BC
:1034C00026480160A06A18B104F11800FFF76DFEEC
:1034D00023480068401C224908601E480068844256
:1034E00009D1211D1F48FFF7ABFE1F480068401C93
:1034F0001D49086009E01D480068401E1B4908601E
:103500002046FFF78BFBFFF7C5FCFFF7CFFE1848FF
:103510000068E8B10F480068844219D11548006876
:1035200008B9012000E0002050B900BF502080F30E
:103530001188BFF34F8FBFF36F8F00BF00BFFEE74F
:103540004FF080500C490860BFF34F8FBFF36F8F6F
:1035500070BD000014000020240200202C00002078
:1035600040000020EC020020200000202400002069
:10357000300000204C00002004ED00E010B586B0C3
:1035800000200590049003AA04A905A8FFF722FED5
:103590000022DDE904101346CDE9002102901CA1B0
:1035A0001D48039A00F0CAF91C49086008460068E3
:1035B00008B1012400E00024012C15D100BF5020E7
:1035C00080F31188BFF34F8FBFF36F8F00BF4FF0B1
:1035D000FF30134908600120124908600020124999
:1035E000086000F095F810E0601C08B1012000E0D0
:1035F000002050B900BF502080F31188BFF34F8FD7
:10360000BFF36F8F00BF00BFFEE706B010BD000024
:1036100049444C4500000000E92C00084800002007
:1036200044000020300000202800002002480068EC
:10363000401C0149086070474C0000201D4800688C
:1036400018B101201C49086032E000201A490860C6
:103650001A480068B0FA80F0C0F11F0101EB810048
:10366000174A52F8200008B1012000E0002050B9AC
:1036700000BF502080F31188BFF34F8FBFF36F8FCF
:1036800000BF00BFFEE701EB81020D4B03EB8200A0
:1036900042685268426000F108024368934202D1D6
:1036A0004268526842604268D268064B1A6000BFA6
:1036B000704700004C000020380000202C00002043
:1036C000240200201400002070B504460D4635B1D8
:1036D000228991B201222068FCF786FF05E0228949
:1036E00091B200222068FCF77FFF70BD70B50446E0
:1036F0000D4635B1A28991B201226068FCF774FFD2
:1037000005E0A28991B200226068FCF76DFF70BDF0
:103710001CB5524800685249884201D0012000E09F
:10372000002050B900BF502080F31188BFF34F8FA5
:10373000BFF36F8F00BF00BFFEE7484800684849ED
:10374000491E884201D0012000E0002050B900BF8E
:10375000502080F31188BFF34F8FBFF36F8F00BFEE
:1037600000BFFEE73F49084600780190FF200A4667
:1037700010700846007800909DF8000000F0F000FE
:103780009DF80020904201D1012000E0002050B9B6
:1037900000BF502080F31188BFF34F8FBFF36F8FAE
:1037A00000BF00BFFEE79DF8000000F050002E4A69
:1037B000107007202D4A106009E02C480068401E58
:1037C0002A4A10609DF800004006000E00909DF807
:1037D000000000F080008028EFD024480068C0F18D
:1037E0000700042801D1012000E0002050B900BFEB
:1037F000502080F31188BFF34F8FBFF36F8F00BF4E
:1038000000BFFEE7194800680002184A1060104621
:10381000008800F4E0601060124A019810700F48B0
:103820002030006840F470000C49203108600846E0
:10383000006840F070400860FFF7A8FD00200C49C8
:103840000860FCF7D1FC0B48006840F04040094993
:103850000860FCF7B5FC00201CBD000000ED00E096
:1038600071C20F4100E400E07400002078000020E5
:103870007000002034EF00E001464A681269CB680E
:103880001A400AB1012000E0002070474168096831
:10389000027D530003229A409143426811604168BF
:1038A0000968027D530000229A401143426811606A
:1038B000704741680968027D530003229A40914392
:1038C0004268116041680968027D530001229A40F4
:1038D00011434268116070472DE9FF4F85B0804663
:1038E00089461746DDE912ABB800FFF70DFB064627
:1038F00056B15420FFF708FB04460CB1266304E0E0
:103900003046FFF7F1FC00E000248CB1002084F881
:103910005100CDE900ABCDE902403A464946404668
:10392000089BFFF7F5F92046FFF7FAF8012501E0BB
:103930004FF0FF35284609B0BDE8F08F2DE9F04F74
:1039400085B00746884691469A46DDE90EB6109C3A
:103950000EB1012000E0002050B900BF502080F3DC
:103960001188BFF34F8FBFF36F8F00BF00BFFEE71B
:103970000CB1012000E0002050B900BF502080F3BE
:103980001188BFF34F8FBFF36F8F00BF00BFFEE7FB
:10399000542003900398542801D1012000E0002016
:1039A00050B900BF502080F31188BFF34F8FBFF391
:1039B0006F8F00BF00BFFEE700BFB4B1AEB12546B8
:1039C0002C462E63022085F85100002004A953469E
:1039D0004A46CDE900B1CDE9025041463846FFF7ED
:1039E00097F92846FFF79CF801E00020049004981E
:1039F00005B0BDE8F08F000001490868704700007D
:103A0000280000202DE9F0414FF0000844480068EC
:103A100000287CD143480068451C4248056015BB1E
:103A200041480068006808B9012000E0002050B952
:103A300000BF502080F31188BFF34F8FBFF36F8F0B
:103A400000BF00BFFEE738480768384800683649BD
:103A500008603648076036480068401C34490860F2
:103A6000FFF718FA00BF3348006885423CD300BF17
:103A70002D480068006808B9012000E0002020B14E
:103A80004FF0FF302B4908602DE027480068C068E0
:103A9000C4686668B54202D22648066023E0201D4D
:103AA000FFF783FBA06A18B104F11800FFF77DFB54
:103AB00094F82C10012088401F49096808431E49CA
:103AC0000860E16A01EB81011C4A02EB8100211DC3
:103AD000FFF7B6FB1A49E06A0968C96A8842C7D38A
:103AE0004FF00108C4E700BF15480068C06A00EB4A
:103AF0008000124951F82000012801D94FF0010837
:103B00001048006808B14FF0010805E0FFE70E48D3
:103B10000068401C0C4908604046BDE8F081000088
:103B20004C00002028000020180000201C0000206D
:103B30003C000020440000202C0000202402002033
:103B400014000020380000203400002070B500244C
:103B500000263648006850B900BF502080F3118815
:103B6000BFF34F8FBFF36F8F00BF00BFFEE7FFF7BC
:103B700073FB2E480068401E2C4908600846006808
:103B800000284FD12A48006800284BD024E029485B
:103B9000C068C46804F11800FFF707FB201DFFF799
:103BA00004FB94F82C10012088402349096808433D
:103BB00021490860E16A01EB8101204A02EB8100A2
:103BC000211DFFF73DFB1E49E06A0968C96A88426A
:103BD00002D301201B4908601648006808B901207B
:103BE00000E000200028D2D00CB1FFF753F91648AE
:103BF000056865B100BFFFF705FF10B1012011494D
:103C000008606D1E002DF6D100200F4908600D4898
:103C1000006838B1012630070C490860BFF34F8FA8
:103C2000BFF36F8FFFF742FB304670BD4C000020A2
:103C300024000020D80200202C00002024020020B4
:103C400014000020380000203400002004ED00E0C3
:103C5000102840587088A0B8000000000404040038
:103C6000000800000008000008000000080002042E
:103C700006080A0C0001020304050600C8540008E7
:103C8000D1230008000000000000000080000000B8
:103C90000000000000000000000000000000000024
:103CA00001020304060708090000000001020304E2
:103CB000102840587088A0B80000000004040400D8
:103CC00000080000000800000800000008000204CE
:103CD00006080A0C000102030405060000000000AB
:103CE00000000000000000000000003F4000000055
:103CF00000000000003000400030004000000009DB
:103D0000000BC03D000BC03D00090018C024407FDF
:103D1000E0224031800000180024C01B000D8032DA
:103D200040018003801C4027401C80074000401059
:103D30000060000000000000000000000000000023
:103D4000001F80204040200000402020401F8000B5
:103D5000000000090006001F8006000900000004A2
:103D60000004003F80040004000000001000600018
:103D7000000000000000000400040004000400042F
:103D800000000000000040000000000000000000F3
:103D90002001C006003800400000001F80204020A5
:103DA0004020401F800000000010403FC000400045
:103DB00000000018C021402240244018400000109C
:103DC000802040244024401B80000002000D001190
:103DD000003FC0014000003C802440244024402398
:103DE0008000001F802440244034400380000030C5
:103DF00000200027C03800200000001B8024402441
:103E00004024401B8000001C0022C0224022401F92
:103E100080000000000000084000000000000000DA
:103E20000000000460000000000000000004000A20
:103E30000011002080404009000900090009000924
:103E400000000000004040208011000A000400181B
:103E500000200023402400180000001F802040277D
:103E60004029401F400000004007C039000F0001FA
:103E7000C0004020403FC0244024401B8000001F61
:103E8000802040204020403080000020403FC02063
:103E90004020401F80000020403FC024402E403082
:103EA000C0000020403FC024402E00300000000F22
:103EB000001080204022403380020020403FC00498
:103EC0000004003FC02040204020403FC020402050
:103ED0004000000060202020203FC0200020002063
:103EE000403FC024400B0030C0204020403FC02055
:103EF000400040004000C03FC03C0003C03C003FC9
:103F0000C0000020403FC00C4023003FC020001FE5
:103F1000802040204020401F80000020403FC024DF
:103F2000402400180000001F802140214020E01F95
:103F3000A0000020403FC02440260019C0004018C7
:103F4000C024402440224031800000300020403F07
:103F5000C020403000000020003F80004000403F73
:103F600080200020003E0001C007003800200038FB
:103F70000007C03C0007C038000000204039C006E0
:103F80000039C0204000002000384007C0384020E1
:103F9000000000304021C02640384020C000000012
:103FA0000000007FE0402040200000000070000C76
:103FB000000380004000000000402040207FE0001F
:103FC0000000000000200040002000000000000071
:103FD0001000100010001000100010000000004041
:103FE00000000000000000000002800540054003C2
:103FF000C0004020003FC004400440038000000097
:1040000000038004400440064000000000038004D8
:104010004024403FC00040000003800540054003AD
:10402000400000000004401FC02440244020000045
:104030000002E0055005500650042020403FC00417
:1040400040040003C000400000044027C0004000BE
:1040500000000000100010041027E0000000002005
:10406000403FC00140070004C00440204020403FC2
:10407000C000400040000007C0040007C004000367
:10408000C00000044007C00440040003C00040001A
:104090000003800440044003800000041007F00483
:1040A00050044003800000000003800440045007D7
:1040B000F00010044007C0024004000400000000AB
:1040C0000006400540054004C00000000004001F39
:1040D00080044000400000040007800040044007C6
:1040E000C000400400070004C00180060004000670
:1040F0000001C0070001C006000000044006C00126
:104100000006C0044000000410071004E00180060F
:104110000004000000044005C00640044000000008
:1041200000000004007BE0402000000000000000D0
:1041300000FFF000000000000040207BE0040000D1
:1041400000000040008000400020002000400000EF
:10415000000000000000000000000000000000005F
:1041600000000000001FCC000C0000000000000058
:10417000000800300060000800300060000000020D
:104180002003FC1E20022003FC1E20022000000051
:10419000000E1811043FFF10840C78000000000F7F
:1041A0000010840F3800C0077818840078000000E1
:1041B000780F8410C411240E9800E40084000808CD
:1041C0000068007000000000000000000000000017
:1041D000000000000007E018182004400200000062
:1041E0000040022004181807E00000000000000250
:1041F00040024001800FF0018002400240000000B8
:1042000080008000800FF8008000800080000000A7
:1042100001000D000E000000000000000000000082
:10422000000080008000800080008000800080000E
:1042300000000C000C000000000000000000000066
:104240000000060018006001800600180020000031
:104250000007F0080810041004080807F000000028
:1042600000080408041FFC00040004000000000013
:10427000000E0C10141024104411840E0C000000C9
:10428000000C1810041104110412880C70000000B6
:104290000000E00320042408241FFC002400000088
:1042A000001F981084110411041088107000000081
:1042B0000007F0088811041104188800700000003D
:1042C000001C00100010FC13001C00100000000077
:1042D000000E3811441084108411440E3800000080
:1042E000000700088C10441044088807F000000004
:1042F0000000000000030C030C00000000000000A0
:1043000000000000010106000000000000000000A5
:104310000000800140022004100808100400000280
:1043200020022002200220022002200220000000A1
:104330000010040808041002200140008000000062
:10434000000E001200100C106C10800F0000000313
:10435000E00C1813E4142417C4082807D000000048
:1043600004003C03C41C40074000E4001C0004108F
:10437000041FFC1104110411040E880070000003D6
:10438000E00C1810041004100410081C1000001099
:10439000041FFC100410041004080807F0000010AB
:1043A000041FFC1104110417C410040818000010A5
:1043B000041FFC1104110017C010000800000003C6
:1043C000E00C181004100410441C78004000001089
:1043D000041FFC10840080008010841FFC10040067
:1043E00000100410041FFC10041004000000000062
:1043F000030001100110011FFE100010000000104A
:10440000041FFC110403801464181C100400001025
:10441000041FFC1004000400040004000C00001041
:10442000041FFC1F0000FC1F001FFC1004000010F4
:10443000041FFC0C04030000E010181FFC10000710
:10444000F00808100410041004080807F000001019
:10445000041FFC10841080108010800F00000007E3
:10446000F0081810241024101C080A07F20000108D
:10447000041FFC1104110011C011300E0C000400C7
:10448000000E1C11041084108410441C3800001805
:1044900000100010041FFC10041000180000001091
:1044A000001FF810040004000410041FF81000108E
:1044B000001E0011E0001C007013801C0010001F83
:1044C000C0103C00E01F0000E0103C1FC0000010C6
:1044D00004180C163401C001C01634180C10041056
:1044E000001C00130400FC13041C00100000000852
:1044F00004101C1064108413041C04101800000025
:1045000000000000007FFE40024002400200000068
:104510000030000C0003800060001C00030000005D
:10452000004002400240027FFE0000000000000048
:10453000000000200040004000400020000000007B
:104540000100010001000100010001000100010063
:1045500000400040002000000000000000000000BB
:10456000000098012401440144014400FC000410AF
:10457000001FFC0088010401040088007000000096
:10458000000070008801040104010400880000009C
:1045900000007000880104010411081FFC000400E1
:1045A0000000F8014401440144014400C800000037
:1045B00000010401040FFC11041104110018000093
:1045C0000000D601290129012901C90106000010B6
:1045D000041FFC008401000100010400FC00040031
:1045E000000104190419FC0004000400000000008C
:1045F00000000300010101190119FE000000001074
:10460000041FFC0024004001B4010C010400000060
:1046100000100410041FFC0004000400000000014E
:104620000401FC0104010001FC0104010000FC0183
:104630000401FC008401000100010400FC000400EE
:104640000000F8010401040104010400F800000165
:104650000101FF00850104010400880070000000D2
:10466000000070008801040104010501FF00010140
:1046700004010401FC008401040100018000000029
:104680000000CC0124012401240124019800000031
:10469000000100010007F80104010400000000010E
:1046A0000001F8000400040004010801FC000401FA
:1046B0000001800170000C00100160018001000108
:1046C000F0010C003001C00030010C01F0010000CD
:1046D000000104018C00740170018C0104000001D0
:1046E0000101810171000E001801600180010000CC
:1046F000000184010C013401440184010C0000001C
:104700000000000000000001003EFC4002400200EA
:1047100000000000000000FFFF000000000000009B
:1047200000400240023EFC010000000000000000CA
:104730000060008000800040004000200020000059
:104740000000000000000000000000000000000069
:104750000000000000000000000000000000000059
:104760000000000000000000000000000000000049
:1047700000000F80380FFE380F8038000000000066
:104780000000000000000000000000000001000028
:104790000600000C00003800003100000600000C8C
:1047A0000000380000300000000000000000006140
:1047B000800067F807F980006180006180006180F7
:1047C0000061800067F807F9800061800000000048
:1047D000000000000001C0E003E0F006300804180B
:1047E000081FFFFE040E080787F00381E0000000A9
:1047F00000000001F000060C00040408060C700123
:10480000F9C0000E00003BE000EC18070808040C9B
:10481000180003E00000000001E00007F003F818B2
:10482000041C0804170807E1D003C0E00023B0000F
:104830003C080020080000100000000000000100FB
:10484000003100003200001C0000000000000000E9
:104850000000000000000000000000000000000058
:104860000000000000000000000000000000007FC9
:104870000001FFC00780F00C0018100004200002A7
:104880000000000000002000021000040C001807C7
:1048900080F001FFC0007F00000000000000000069
:1048A0000000000000000000000000420000660060
:1048B000006600003C0000180003FFC00018000064
:1048C0003C00006600006600004200000000000896
:1048D0000000080000080000080000080001FFC0F8
:1048E00000080000080000080000080000080000A0
:1048F000000000000100003100003200001C000038
:1049000000000000000000000000000000000000A7
:10491000000000000000000800000800000800007F
:104920000800000800000800000800000800000857
:104930000000080000000000000000000000003837
:1049400000003800003800000000000000000000F7
:104950000000000000000000000000000000000057
:104960000600001C000070000180000E00003800EE
:1049700000C0000700001C00003000000000000024
:104980000000007F8001FFE0038070060018040033
:104990000804000806001803807001FFE0007F8013
:1049A00000000000000000000001000801000801F4
:1049B000000803FFF807FFF80000080000080000E7
:1049C0000800000000000000000001C03802C058CC
:1049D000040098040118040218040418061C1803A3
:1049E000F81801E0F800000000000000000001C01D
:1049F000E003C0F0040008040808040808061808CA
:104A000003F41801E7F00001E000000000000000DE
:104A10000000000300000D00001100006100008193
:104A20000803010807FFF80FFFF80001080001085C
:104A30000000000000000000E007FCD006080806A7
:104A40001008061008061008061838060FF00607AA
:104A5000C0000000000000000000003F8001FFE0F7
:104A60000384300208180410080410080410080712
:104A70001810030FF00007C0000000000000000045
:104A80000003C0000700000600000600F80607F853
:104A900006180006E0000700000600000000000005
:104AA000000001E1E003F7F00634100418080418D0
:104AB00008040C08040C0806161803F3F001C1E002
:104AC00000000000000000F80003FC30030638047A
:104AD00002080402080402080404100308F001FF9D
:104AE000C0007F0000000000000000000000000087
:104AF00000000000000000703800703800703800BE
:104B000000000000000000000000000000000000A5
:104B10000000000000000000000000301A00301CFF
:104B20000000000000000000000000000000000085
:104B300000000000000008000014000022000041F6
:104B400000008080010040020020040010080008DE
:104B500000000000000000210000210000210000F2
:104B6000210000210000210000210000210000217F
:104B70000000210000000000000000000008000804
:104B8000040010020020010040008080004100006D
:104B9000220000140000080000000000000003C014
:104BA0000004C000040000080038080F3808083866
:104BB0000810000C300007E00003C00000000000F7
:104BC0000000003F8000FFE0038070020F100670BD
:104BD0008804C088048308047F8802C090030120F1
:104BE00000FE400000080000180001F8003E080127
:104BF000C20007020007E20000FE00001FC800011B
:104C0000F800003800000804000807FFF807FFF864
:104C1000040808040808040808040808061808031B
:104C2000F41801E7F00001E0000000000000003F80
:104C30008001FFE0038070020018040008040008EF
:104C40000400080400100600200780C000000004D3
:104C5000000807FFF807FFF8040008040008040034
:104C60000804001802001003807001FFE0007F803C
:104C700000000004000807FFF807FFF80408080414
:104C80000808040808040808043E08040008060090
:104C90001801006000000004000807FFF807FFF893
:104CA000040808040800040800040800043E000684
:104CB0000000060000018000000000000000003F2E
:104CC0008001FFE003807006001804000804020859
:104CD0000402080203F00783F0000200000200044F
:104CE000000807FFF807FFF804080800080000089C
:104CF0000000080000080004080807FFF807FFF894
:104D0000040008000000000000040008040008047B
:104D1000000807FFF807FFF8040008040008040073
:104D2000080000000000000000000000060000076E
:104D300000000104000104000104000307FFFE0756
:104D4000FFFC04000004000004000004000807FF4A
:104D5000F807FFF8040C08001800003E0004C780A4
:104D60000503C80600F80400380400180000080411
:104D7000000807FFF807FFF804000800000800001B
:104D8000080000080000080000080000180000608B
:104D900000000004000807FFF807800807FC000077
:104DA0007FC00003F80007C000780007800807FFF5
:104DB000F807FFF804000804000807FFF8070008D8
:104DC00003C00000E000003800001E0000070000E3
:104DD00001C00400F007FFF8040000000000007F9D
:104DE0008001FFE00380700600180400080400083A
:104DF00006001803003001FFE0007F80000000047F
:104E0000000807FFF807FFF804040804040004047E
:104E100000040400040400060C0003F80001F00084
:104E2000000000000000007F8001FFE003807006AA
:104E300000880400880400C806003C03003E01FF0F
:104E4000E6007F8400000004000807FFF807FFF871
:104E5000040808040800040C00040F00040BC0063A
:104E600010F003F03801E00800000800000001E045
:104E7000F803F030063010041808041808040C0871
:104E8000040C080206180207F00781E00000000188
:104E9000800006000004000004000004000807FF72
:104EA000F807FFF8040008040000040000060000F2
:104EB00001800004000007FFE007FFF00400180075
:104EC00000080000080000080000080000080400B6
:104ED0001007FFE004000004000006000007E000E7
:104EE00007FE00041FE00001F80000380001E004A4
:104EF0003E0007C00006000004000004000007E0B8
:104F00000007FFC0041FF80007C007F80007FF8074
:104F1000043FF80007C004F8000700000400000088
:104F2000000004000806001807C07805F1C8003E1C
:104F300000001F800463E80780F8060018040008DA
:104F400000000004000006000007800007E00804DD
:104F50007C08001FF80007F800180804E0080700A4
:104F600000060000040000000000010008060038F0
:104F70000400F80403E8040F08047C0805F008079F
:104F8000C0080700180400600000000000000000D6
:104F9000000000000000000000003FFFFE200002B3
:104FA0002000022000022000022000020000000079
:104FB000000000000008000007000000C0000038EA
:104FC000000006000001C000003000000E000001DB
:104FD000000000000000000000200002200002206D
:104FE00000022000022000023FFFFE00000000003F
:104FF00000000000000000000000000000000000B1
:1050000008000010000030000020000030000010F8
:105010000000080000000000000000000001000087
:10502000010000010000010000010000010000017A
:10503000000001000001000001000001000001006B
:105040000000000000000000200000200000100010
:105050000010000000000000000000000000000040
:105060000000000000000000F00019F8001B18000C
:105070002208002608002408002410003FF8001F22
:10508000F800000800001800000004000007FFF806
:105090000FFFF0001818001008002008002008007A
:1050A0003018001FF0000FC00000000000000007D3
:1050B000C0001FF000183000200800200800200861
:1050C000003C08001C100000600000000000000010
:1050D00000000007C0001FF0003818002008002062
:1050E0000800200804101007FFF80FFFF000001060
:1050F0000000000000000000000007C0001FF000DA
:105100001230002218002208002208003208001E77
:1051100010000E2000000000000000200000200809
:1051200000200801FFF803FFF80620080420080407
:10513000200807200003000000000000000000001D
:105140000E000E6E001FF30031B10020B10020B13F
:10515000003191001F13002E1E00200E00300000B1
:10516000000004000807FFF80FFFF80010080020F7
:1051700000002000002008003FF8001FF800000891
:1051800000000000000000000000200800200800CF
:105190002008063FF8063FF800000800000800005D
:1051A00008000000000000000000000000000003F4
:1051B000000003002001002001002003063FFE063E
:1051C0003FFC0000000000000000000000000400A0
:1051D0000807FFF80FFFF8000188000300002FC048
:1051E0000038F80020380020080000080000000007
:1051F000000000000004000804000804000807FF85
:10520000F80FFFF800000800000800000800000088
:10521000000000002008003FF8003FF800100800E0
:105220002000003FF8003FF8001008002000003F79
:10523000F8003FF8000008000000002008003FF8D8
:10524000003FF800100800100000200000200800B7
:105250003FF8001FF80000080000000000000007F1
:10526000C0000FF0001830003008002008002008AF
:10527000003008001830000FF00007C000000000E8
:105280000000002001003FFF003FFF001011002040
:1052900009002008002008003038001FF0000FC06F
:1052A0000000000000000007C0001FF000381800D8
:1052B0002008002008002009001011001FFF003FF7
:1052C000FF00000100000000200800200800200866
:1052D000003FF8003FF80008080010080020080010
:1052E000200000300000300000000000000000003E
:1052F00000000C78001E1800330800230800210865
:105300000021880021980030F00038600000000083
:10531000000000200000200000200000FFF003FF3C
:10532000F8002008002008002008000030000000DD
:10533000000000000000002000003FF0007FF800A7
:105340000018000008000008002010003FF8007F4F
:10535000F0000010000000000000002000003000FD
:10536000003C00003F800023F00000780000700047
:105370002380003C00003000002000002000003CA2
:1053800000003FE00023F80000E0002700003E009E
:10539000003FE00021F80001E0003E000020000096
:1053A0000000002008002008003838003E68002770
:1053B000800003C8002CF8003838002018002008AE
:1053C000000000000000002000003003003C01004D
:1053D0003F830023EC000070002380003C0000208D
:1053E000000020000000000000000000000038085D
:1053F0000020380020F80023E8002F88003E080035
:1054000038080020180000700000000000000000B4
:105410000000000000000000000000080000140070
:105420001FF7FC3000062000020000000000000012
:10543000000000000000000000000000000000006C
:1054400000FFFFFF0000000000000000000000005F
:105450000000000000000000002000023000061FD5
:10546000F7FC00140000080000000000000000002D
:1054700000000000000000000000180000600000B4
:105480004000004000002000001000000800000460
:1054900000000400000C00001000001028405870AC
:1054A00088A0B80000000004040400000800000008
:1054B000080000080000000800020406080A0C00AA
:1054C000010203040506000064656661756C74548E
:1054D00061736B00F4540008000000208800000095
:1054E000302700087C55000888000020584800003C
:1054F000402700080000000000000000100000002D
:10550000010000000024F400000000000000000082
:10551000000000000000000000000000000000008B
:10552000000000000000000000000000000000007B
:10553000000000000000000000000000000000006B
:10554000000000000000000000000000000000005B
:10555000000000000000000000000000000000004B
:1055600000000000AAAAAAAA000000000000000093
:0C5570000000000000000000000000002F
:040000050800018965
:00000001FF
