:020000040800F2
:1000000018040020050100081B080008E907000883
:100010001908000871010008D90800080000000054
:10002000000000000000000000000000450800087B
:1000300073010008000000001D08000847080008C0
:100040001F0100081F0100081F0100081F01000810
:100050001F0100081F0100081F0100081F01000800
:100060001F0100081F0100081F0100081F010008F0
:100070001F0100081F0100081F0100081F010008E0
:100080001F0100081F0100081F0100081F010008D0
:100090001F0100081F0100081F0100081F010008C0
:1000A0001F0100081F0100081F0100081F010008B0
:1000B0001F0100081F0100081F0100081F010008A0
:1000C0001F0100081F0100081F0100081F01000890
:1000D0001F0100081F0100081F0100081F01000880
:1000E0001F0100081F0100081F010008DFF810D0E1
:1000F00000F02CF80048004735090008AFF30080F5
:10010000180400200648804706480047FEE7FEE73F
:10011000FEE7FEE7FEE7FEE7FEE7FEE7FEE7FEE7B7
:10012000B3080008ED000008D2B201E000F8012B8E
:10013000491EFBD270470022F6E710B513460A4667
:1001400004461946FFF7F0FF204610BD064C074D48
:1001500006E0E06840F0010394E807009847103497
:10016000AC42F6D3FFF7C6FF6C0900088C09000803
:10017000FEE7704772B6FEE70148806870470000EE
:1001800000000020024881680278114481607047B5
:100190000000002010B50748016841F0100101601F
:1001A000032000F069F80F2000F006F800F026F8B0
:1001B000002010BD0020024070B504460D4D4FF4E4
:1001C0007A712878B1FBF0F00B490968B1FBF0F0C7
:1001D00000F0F6FA08B1012070BD102C07D2002201
:1001E0002146501E00F028F86C60002070BD0120F0
:1001F00070BD0000000000200C00002008B50C4875
:10020000816941F001018161816901F00101009181
:10021000C16941F08051C161C06900F08050009017
:100220000449486820F0E06040F00070486008BD74
:100230000010024000000140F0B40D460D4B1B6859
:10024000C3F30223C3F10704042C00D90424191DAD
:10025000072901D2002300E0DB1E012606FA04F183
:10026000491E294099409E40761E16403143F0BCFD
:1002700000F033BB0CED00E000F00701054A106808
:100280004FF6FF03184040EA01200349084310607D
:10029000704700000CED00E00000FA052DE9F04782
:1002A00004460D46002C17D0DFF83081D8F8000046
:1002B00000F00700A84211D2D8F8000020F0070093
:1002C0002843C8F80000D8F8000000F00700A84252
:1002D00004D00120BDE8F0870120FBE72068404EF4
:1002E000810712D5400703D5706840F4E060706064
:1002F0002078000703D5706840F460507060706823
:10030000A16820F0F000084370602078C0072CD06E
:100310006068012806D0022809D0316889070BD40B
:100320000120D7E73168890306D40120D2E731687C
:10033000890101D40120CDE7716821F00301014357
:100340007160FFF719FF074641F2883906E0FFF7B1
:1003500013FFC01B484501D90320BBE770686168E3
:1003600000F00C00B0EB810FF1D1D8F8000000F0E4
:100370000700A8420ED9D8F8000020F00700284353
:10038000C8F80000D8F8000000F00700A84201D02B
:1003900001209FE72078400705D57068E16820F4C8
:1003A000E060084370602078000706D57068216916
:1003B00020F4605040EAC100706000F019F87168E4
:1003C000084AC1F30311515CC84007490860074857
:1003D0000068FFF7F1FE00207CE7000000200240EB
:1003E000001002405C0900080C00002004000020FE
:1003F0000E4B59680E4801F00C02042A11D0082A4D
:100400000FD10C48C1F38342805CC9030AD55968F7
:10041000084AC1F34041921E515C054A5043B0FB6B
:10042000F1F0704704494843704700000010024053
:1004300000127A004C09000800093D002DE9F84F30
:100440000446002C0ED02078D94DC0075ED06868D5
:10045000C0F3810001280BD06868C0F38100022836
:1004600003D00CE00120BDE8F88F6868C00306D512
:10047000286880034AD56068A8BB0120F3E760685C
:10048000B0F5803F11D0A8B1B0F5A02F1BD02868DF
:1004900020F480302860286820F48020286060687C
:1004A00030B3FFF769FE06461EE0286840F480304E
:1004B0002860F4E7286820F480302860286820F459
:1004C00080202860EBE7286840F4802028602868B6
:1004D00040F480302860E2E7FFF74EFE801B64287E
:1004E00002D90320BFE711E028688003F4D50DE0AE
:1004F000FFF742FE064606E0FFF73EFE801B64283B
:1005000001D90320AFE728688003F5D42078DFF80D
:10051000A48280074FF0010A4FF0000945D56868B2
:1005200010F00C0F07D06868C0F38100022812D1C8
:100530006868C0030FD42868800704D520690128A3
:1005400001D001208FE72868616920F0F80040EAB7
:10055000C100286029E02069B8B1C8F800A0FFF701
:100560000BFE064606E0FFF707FE801B022801D9B6
:10057000032078E728688007F5D52868616920F0AE
:10058000F80040EAC10028600FE0C8F80090FFF7CB
:10059000F3FD064606E0FFF7EFFD801B022801D9B8
:1005A000032060E728688007F5D42078000726D567
:1005B0008148A16999B1C0F800A0FFF7DDFD0646AA
:1005C00006E0FFF7D9FD801B022801D903204AE786
:1005D000686A8007F5D5012000F022F90FE0C0F825
:1005E0000090FFF7C9FD064606E0FFF7C5FD801B3A
:1005F000022801D9032036E7686A8007F5D42078FD
:10060000400773D50026E869C00008D4E86940F0C7
:100610008050E861E86900F0805000900126DFF822
:100620009CB1DBF80000C00514D4DBF8000040F4F6
:100630008070CBF80000FFF79FFD074606E0FFF74C
:100640009BFDC01B642801D903200CE7DBF80000E8
:10065000C005F4D5E068012812D0B0B105281DD03E
:10066000286A20F001002862286A20F0040028622D
:10067000E06841F2883B28B3FFF77EFD07461DE0A6
:10068000286A40F001002862F2E7286A20F00100A1
:100690002862286A20F004002862E9E7286A40F00E
:1006A00004002862286A40F001002862E0E7FFF7B2
:1006B00063FDC01B584501D90320D4E6286A800792
:1006C000F5D50DE0FFF758FD074606E0FFF754FDAE
:1006D000C01B584501D90320C5E6286A8007F5D418
:1006E000012E03D1E86920F08050E861E069A0B3F1
:1006F0006968C1F38101022946D0022805D0C8F8F3
:100700006090FFF739FD04463AE0C8F86090FFF7C3
:1007100033FD064606E0FFF72FFD801B022801D9B6
:100720000320A0E628688001F5D4206AB0F5803F58
:1007300005D16868A16820F4003008436860D4E9F6
:1007400008010843696821F4741108436860C8F817
:1007500060A0FFF711FD044607E026E0FFF70CFD5F
:10076000001B022801D903207DE628688001F5D509
:100770001BE0FFF701FD001B022801D9032072E6F0
:1007800028688001F5D410E001280CD06868226A3E
:1007900000F48031914204D1616A00F47010884203
:1007A00003D001205FE601205DE600205BE600004B
:1007B00000100240000042428004424200700040AB
:1007C00010B5401EB0F1807F01D3012010BD4FF065
:1007D000E02460610F21601700F07FF80020A06125
:1007E00007202061002010BDFEE7000008B5094881
:1007F000816941F020018161816901F0200100914E
:10080000816941F004018161806900F00400009079
:1008100008BD000000100240FEE7FEE77047000040
:1008200008B507494FF4FA520968B1FBF2F14143A8
:10083000009100BF0098411E0091FAD208BD00004F
:100840000C000020704710B500F03CF8BDE81040E7
:10085000FFF798BC30B58FB0282105A8FFF76BFCD7
:1008600014216846FFF767FC0121059108040690F2
:1008700000240794099102250C950D904FF4E01087
:100880000E9005A8FFF7DAFD08B1FFF773FC0F2003
:100890000090019502944FF480600390049402212B
:1008A0006846FFF7FBFC002801D0FFF763FC0FB0A0
:1008B00030BD7047014800F02FB80000A08601004D
:1008C0007047000003480168002902D00168491EF2
:1008D0000160704710000020FEE70907090E00289C
:1008E00004DB00F1E02080F80014704700F00F00F6
:1008F00000F1E02080F8141D704702E008C8121FC4
:1009000008C1002AFAD170477047002001E001C1F8
:10091000121F002AFBD1704710B505490968B1FBC9
:10092000F0F0FFF74DFF002800D0FEE710BD0000FB
:100930000C000020FFF72EFCFFF78CFFFFF756FF9F
:10094000FFF7B8FFFFF7BCFFFCE701020203040555
:10095000060708090A0B0C0D0E0F1010000000000E
:100960000000000001020304060708098C090008C2
:100970000000002014000000FA080008A009000888
:1009800014000020040400000A090008010000000F
:1009900010000000000000000024F400000000002F
:04000005080000ED02
:00000001FF
