:020000040800F2
:100000005062002061020008915500085B2E000834
:100010008D550008D3050008FD8A00080000000087
:10002000000000000000000000000000A101000826
:100030009B07000800000000FD010008AD5D0008FE
:100040007B0200087B0200087B0200087B0200089C
:100050007B0200087B0200087B0200087B0200088C
:100060007B0200087B0200087B0200087B0200087C
:100070007B0200087B0200087B0200087B0200086C
:100080007B020008A50600087B0200087B0200082E
:100090007B0200087B0200087B0200087B0200084C
:1000A0007B0200087B0200087B0200087B0200083C
:1000B0007B0200087B0200087B020008612E00081A
:1000C0007B0200087B0200087B0200087B0200081C
:1000D0007B020008D56000087B0200087B02000854
:1000E0007B0200087B0200087B0200087B020008FC
:1000F0007B0200087B0200087B0200087B020008EC
:100100007B0200087B0200087B0200087B020008DB
:100110007B0200087B020008D15F0008E15F000855
:100120007B020008B5060008B70600087B0200083D
:100130007B0200087B0200087B0200087B020008AB
:100140007B0200087B0200087B020008C5570008FC
:100150007B020008B9060008BB060008DD60000845
:100160007B0200087B0200087B0200087B0200087B
:100170007B0200087B0200087B02000800000000F0
:100180007B0200087B020008DFF810D000F0E4F9E1
:1001900000480047C1B40008AFF30080506200205F
:1001A0002C4B19680868B0E8F04F80F30988BFF35A
:1001B0006F8F4FF0000080F311887047000000003F
:1001C00008480068006880F308884FF0000080F35A
:1001D000148862B661B6BFF34F8FBFF36F8F00DF35
:1001E00000BF00BF08ED00E0DFF80C00016841F43B
:1001F00070010160704700BF88ED00E0EFF30980F7
:10020000BFF36F8F134B1A681EF0100F08BF20ED5D
:10021000108A20E9F04F106009B44FF0500080F3CD
:100220001188BFF34F8FBFF36F8F0CF021F84FF0A1
:10023000000080F3118809BC19680868B0E8F04F25
:100240001EF0100F08BFB0EC108A80F30988BFF3CE
:100250006F8F70471C000020EFF30580704700008F
:100260000648804706480047FEE7FEE7FEE7FEE750
:10027000FEE7FEE7FEE7FEE7FEE7FEE7955E000825
:10028000890100082DE9F05F0546002092469B4653
:1002900088460646814640241BE02846414647469C
:1002A000224600F0EBF853465A46C01A914110D34B
:1002B00011461846224600F0D2F82D1A67EB0108C5
:1002C0004F4622460120002100F0C9F817EB000933
:1002D0004E41201EA4F10104DFDC484631462A4687
:1002E0004346BDE8F09F40EA01039B0703D009E0C5
:1002F00008C9121F08C0042AFAD203E011F8013B12
:1003000000F8013B521EF9D27047D2B201E000F86A
:10031000012B491EFBD270470022F6E710B51346A9
:100320000A4604461946FFF7F0FF204610BD2DE9A6
:10033000FE4F81EA030404F0004421F000410094E0
:100340004FF0000B23F0004350EA01045ED052EA64
:1003500003045BD0C3F30A54C1F30A552C44A4F23E
:10036000F3340194A0FB0254C1F3130141F4801152
:10037000C3F3130343F4801301FB024400FB034E59
:10038000840A970A44EA815447EA8357A4FB076822
:1003900002958D0A05FB07854FEA932C04FB0C544C
:1003A0002705029D4FEA065847EA1637B5EB0805C0
:1003B0006EEB070C870E920E47EA811742EA831212
:1003C000A7FB0201B6EB0B0164EB00042B0D43EA23
:1003D0000C335E1844EB1C50DA465146E7FB020131
:1003E000C5F313044FEA0B3343EA14534FEA0432C4
:1003F000019C43EA0603A4F10C040294009CCDE99D
:1004000000B400F05AF803B0BDE8F08F00200146B8
:10041000F9E70EB540F2334102910021CDE9001118
:100420000A460B4600F049F803B000BDC1F30A527A
:1004300010B5C1F3130140F2FF3341F480119A4229
:1004400001DA002010BD40F233439A42A2F2334257
:1004500003DC524200F012F810BD904010BD202A7B
:1004600004DB203A00FA02F1002070479140C2F10B
:10047000200320FA03F3194390407047202A04DB3D
:10048000203A21FA02F00021704721FA02F3D0400D
:10049000C2F12002914008431946704710B5141E5E
:1004A00073F1000408DA401C41F1000192185B412D
:1004B0001A4301D120F0010010BD2DE9F04D924604
:1004C0009B4611B1B1FA81F202E0B0FA80F220321B
:1004D0009046FFF7C4FF04460F4640EA0A0041EA8F
:1004E0000B0153465A46084313D0114653EA010004
:1004F00019D0C8F140025046FFF7C0FF05460E462E
:10050000504659464246FFF7AAFF084305D001204E
:1005100004E020463946BDE8F08D0020054346EA58
:10052000E0762C4337430A986305E40AA0EB080001
:100530000022FD0A44EA47540A3002D50020014651
:10054000E9E7010510196941DDE90845001969412C
:10055000BDE8F04DA2E70000064C074D06E0E0685C
:1005600040F0010394E8070098471034AC42F6D3FA
:10057000FFF70EFE401401086014010870B58C18D6
:1005800010F8015B15F0070301D110F8013B2A11A7
:1005900006D110F8012B03E010F8016B01F8016B94
:1005A0005B1EF9D12B0705D40023521E0DD401F890
:1005B000013BFAE710F8013BCB1A921C03E013F859
:1005C000015B01F8015B521EF9D5A142D8D300208E
:1005D00070BD00BFFEE70346042B15D007DC7BB1DE
:1005E000012B0ED0022B0DD0032B12D10BE0202BB0
:1005F0000BD0212B0AD0222B09D0232B09D107E0C5
:1006000008E007E006E005E004E003E002E001E0C6
:1006100000E000BF00BF00207047002070470000CE
:1006200010B500220449054805F0F7FF04490348C6
:1006300005F0E4FF002010BD204F002044420020C0
:100640002047002070B504460D462146034805F0BA
:10065000D5FF024805F09EFF002070BD44420020F7
:1006600010B503460C460021084610BD70B5024681
:100670000C46FF25FF2309E012F8010B80EA030175
:100680000648405C80EA05030548455C201EA4F14D
:100690000106B4B2F0D143EA052070BDC2CA000819
:1006A000C2CB000810B5024800F040F910BD0000B0
:1006B000FC0100207047704770477047014608787A
:1006C00010381823B0FBF3F20848805CC865032A91
:1006D00005D908686FF30900001D886503E0086804
:1006E0006FF309008865886D704700004CCA0008E8
:1006F000014600208A6A8B69CBB932B1012A0DD03C
:10070000022A03D0032A10D10EE000BFCB6A03F007
:100710008073B3F1807F00D1012007E0CB6AB3F191
:10072000C07F00D1012001E000E000BF34E08B6910
:10073000B3F5005F1AD132B1012A07D0022A03D0E3
:10074000032A11D10AE000BF01200EE0CB6A03F0BA
:100750008073B3F1807F00D1012006E0CB6AB3F152
:10076000C07F00D1012000E000BF15E032B1012AB6
:1007700005D0022A04D0032A0CD103E000BF00BF39
:10078000012008E0CB6A03F08073B3F1807F00D1D1
:10079000012000E000BF00BF7047704772B600BF85
:1007A000FEE7000070B50446B3F5804F13D1D1E9E0
:1007B000000540EA05108D6840EA05208D69284350
:1007C0008D8940EA054054F82250064E35402843B2
:1007D00044F8220003E06FF0704044F8220000204B
:1007E00070BD00000000F0CF70B50246086852F8F6
:1007F000200020F001000E6842F8260088680828D2
:1008000001D1402300E00023486818438E6830433C
:10081000CE6830430E6930434E693043CE69304371
:100820000E6A30434E6A30438E6A3043CE6A30439C
:100830000E6B40EA060488690443C86B0443074D05
:1008400045F4806545F4E025086852F82000A84387
:1008500020430E6842F82600002070BD7FFB080090
:1008600010B50346D1E9000440EA04108C6840EA60
:1008700004208C8940EA0444088A401E44EA00545B
:10088000087D801E44EA00608C692043541C53F8A4
:10089000244004F040442043541C43F8240000202A
:1008A00010BD10B505F07AFB05F000FB10BD00008F
:1008B00070B50A480468001D0568001D06683444C8
:1008C00054B108220649204603F076F9042204496F
:1008D0001031284603F070F970BD0000107AFF1F38
:1008E000EA0000200348006803490968C1EB0141A0
:1008F00008447047241400409C000020014691F8F1
:100900003500022803D0802048650120704705206B
:1009100081F835000868006820F001000A6810605E
:100920000020F3E7014691F835007047F8B504461A
:10093000002000908C4800684FF41651B0FBF1F78E
:10094000A56D2E6894F85C1008208840304098B15E
:100950002068006800F0040070B12068006820F092
:1009600004002168086094F85C1008208840A860A2
:10097000606D40F00100606594F85C1001208840D3
:10098000304068B12068406900F0800040B194F8C0
:100990005C1001208840A860606D40F00200606536
:1009A00094F85C1004208840304068B120680068EA
:1009B00000F0020040B194F85C1004208840A86068
:1009C000606D40F00400606594F85C101020884071
:1009D000304078B32068006800F0080050B394F805
:1009E0005C1010208840A8602068006800F4802017
:1009F00080B12068006800F4002028B9206CC8B1DC
:100A00002046216C884715E0A06C98B12046A16C67
:100A100088470FE02068006800F4807028B92068DB
:100A2000006820F0080021680860206C10B12046A2
:100A3000216C884794F85C102020884030400028C2
:100A400065D02068006800F0100000285FD094F89E
:100A50005C1020208840A86094F83500052828D133
:100A60002068006820F0160021680860206840694E
:100A700020F0800021684861206C08B9A06C28B182
:100A80002068006820F008002168086094F85C1075
:100A90003F208840A860012084F8350000BF002076
:100AA00084F8340000BF206D10B12046216D8847C6
:100AB000F8BD2068006800F4802080B120680068DC
:100AC00000F4002028B9606C10B12046616C8847A2
:100AD0001DE0E06BD8B12046E16B884717E0206845
:100AE000006800F4807068B92068006820F0100089
:100AF00021680860012084F8350000BF002084F8D8
:100B0000340000BFE06B10B12046E16B8847606D98
:100B100038B3606D00F00100F0B1052084F83500B5
:100B20002068006820F001002168086000BF00987C
:100B3000401C0090B84200D905E02068006800F031
:100B400001000028F3D100BF012084F8350000BF68
:100B5000002084F8340000BFE06C10B12046E16C46
:100B6000884700BFA4E70000180000202DE9F041ED
:100B70000446002500F0ECF9074614B90120BDE851
:100B8000F081606A00B100BF022084F8350000BF28
:100B9000002084F8340000BF2068006820F00100C5
:100BA000216808600AE000F0D3F9C01B052805D9C8
:100BB00020206065032084F83500E0E720680068A5
:100BC00000F001000028EED12068056821480540AA
:100BD000D4E901010843E1680843216908436169D8
:100BE0000843A1690843E1690843216A08430543B2
:100BF000606A042803D1D4E90B0108430543206847
:100C000005602068456925F00705606A0543606A4C
:100C100004280DD1A06A0543E06A48B12046FFF7D9
:100C200067FD28B140206065012084F83500A6E703
:100C3000206845612046FFF741FD064694F85C10A8
:100C40003F208840B06000206065012084F83500B6
:100C5000002094E73F8010F070B5044600F078F96A
:100C600006462546681C10B104480078054400BFBC
:100C700000F06EF9801BA842FAD370BD140000206A
:100C800000B587B0142102A8FFF746FB2A48006888
:100C900008B107B000BD01202749086000BF00204F
:100CA00001902648006840F0010024490860084689
:100CB000006800F00100019000BF00BF881402909E
:100CC0000220039000200490032005900C20069041
:100CD00002A91B4800F03CF84FF6807002900220F9
:100CE000039000200490032005900C20069002A998
:100CF000144800F02DF84CF233700290022003905B
:100D000000200490032005900C20069002A90E48B4
:100D100000F01EF84FF48050029002200390002053
:100D20000490032005900C20069002A9074800F0CB
:100D30000FF800BFADE70000040000203838024083
:100D40000014024000100240000C02400018024053
:100D5000F8B502460B460025002400200021D6E00D
:100D6000012606FA01F51E6806EA0504AC4274D1B4
:100D70001E7906F00306012E04D01E7906F0030644
:100D8000022E13D190684F000326BE40B0434F009F
:100D9000DE68BE4030439060506801268E40B0430C
:100DA0001E79C6F300168E40304350601E7906F05F
:100DB0000306032E09D0D0684F000326BE40B0437F
:100DC0004F009E68BE403043D0601E7906F0030697
:100DD000022E13D1CF0802F1200656F827004E0745
:100DE000F70E0F26BE40B0434F07FF0E1E69BE40F0
:100DF0003043CF0802F1200646F8270010684F0064
:100E00000326BE40B0431E7906F003064F00BE40E5
:100E1000304310605E6806F44036002E76D000BF86
:100E2000002600963C4E366846F480463A4F3E60B7
:100E30003E46366806F48046009600BF00BF374E37
:100E40008F0856F827008E07370F0F26BE40B04395
:100E5000334EB24202D1002624E057E0314EB24276
:100E600001D101261EE0304EB24201D1022619E026
:100E70002E4EB24201D1032614E02D4EB24201D1D2
:100E800004260FE02B4EB24201D105260AE02A4E7D
:100E9000B24201D1062605E0284EB24201D1072612
:100EA00000E008268F073F0FBE4030431B4E8F08DF
:100EB00046F82700224E3068A0435E6806F480168C
:100EC00006B120431E4E3060361D3068A0435E6878
:100ED00006F4001606B12043194E361D3060184E38
:100EE000361F3068A0435E6806F4003606B1204322
:100EF000134E361F3060361F3068A0435E6806F41C
:100F0000803606B120430E4E083E3060491C102941
:100F1000FFF426AFF8BD0000443802400838014015
:100F2000000002400004024000080240000C0240A1
:100F3000001002400014024000180240001C024051
:100F4000083C01400AB1816101E00B0483617047F4
:100F500001480068704700000C000020704770478F
:100F60002DE9F04705464FF0000928684668D5F896
:100F70002CA095F83E7095F83D80102F01D0402FA1
:100F800075D12868D0F818902868446904F00100E9
:100F900060B9BAF52A0F02D0BAF12A4F01D1012067
:100FA00000E00020012801D1BDE8F08704F0010035
:100FB00048B1C6F3402030B1284601F059FF284619
:100FC00002F0C6FBB7E0C4F3C00030B1C6F3402066
:100FD00018B1284602F073FAADE0C4F3400030B116
:100FE000C6F3402018B1284602F07EFAA3E0C9F308
:100FF000800040B32868406800F40060B0F5006FDE
:10100000E0D0C4F3C01048B1C6F3802030B1C4F3BF
:10101000800018B9284602F0E6F98CE0C4F380009D
:101020000028CFD0C6F340200028CBD0B8F1210F44
:1010300003D1284602F087F97DE0402F7BD1284676
:1010400002F0D5FB77E02868406800F40060B0F556
:10105000006F70D0C4F3801050B1C6F3802038B157
:10106000C4F3800020B9284602F0F5F863E00BE0F5
:10107000C4F3800000285ED0C6F3402000285AD078
:10108000284602F055F856E0286C10B128684469EB
:1010900004E02868D0F8189028684469C4F3400038
:1010A00060B1C6F3402048B1286C10B12868D0F870
:1010B00018904946284602F059FC3CE0C4F3001061
:1010C00030B1C6F3402018B1284602F087FC32E068
:1010D000B8F1210F02D0B8F1290F16D1C4F3C01016
:1010E00048B1C6F3802030B1C4F3800018B9284657
:1010F00002F019FC1FE0C4F38000E0B1C6F3402009
:10110000C8B1284602F002FC15E0C4F3801048B1D3
:10111000C6F3802030B1C4F3800018B9284602F02D
:10112000D2FB08E0C4F3800028B1C6F3402010B120
:10113000284602F0BBFB00BF36E7704770B5044697
:101140000CB9012070BD94F83D0028B9002084F846
:101150003C00204600F0E0F8242084F83D002068A0
:10116000006820F00100216808602068006840F4F1
:101170000040216808602068006820F40040216871
:10118000086001F01BFA05465C496068884206D891
:101190005B48854201D2012007E0002005E0594864
:1011A000854201D2012000E00020012800D1C9E7DA
:1011B0005548B5FBF0F62068406820F03F0030430A
:1011C000216848604D496068884201D8701C07E07A
:1011D0004FF4967070434FF47A71B0FBF1F0401CFD
:1011E0002168096A21F03F010843216808624349E8
:1011F0006068884214D8681E61684900B0FBF1F04D
:10120000401CC0F30B00042801D204203DE0681EFE
:1012100061684900B0FBF1F0401CC0F30B0034E002
:10122000A06838B9681E616801EB4101B0FBF1F0BC
:10123000401C0AE0681E616801EBC10202EB01116B
:10124000B0FBF1F0401C40F48040C0F30B0008B943
:1012500001201AE0A06848B9681E616801EB4101ED
:10126000B0FBF1F0401CC0F30B000CE0681E61689D
:1012700001EBC10202EB0111B0FBF1F0401CC0F325
:101280000B0040F4804040F400402168C9694CF6EE
:10129000FF72914308432168C861D4E907010843FC
:1012A0002168096821F0C001084321680860D4E979
:1012B000031008432168896848F2FF3291430843CC
:1012C00021688860D4E9050108432168C96821F0D4
:1012D000FF0108432168C8602068006840F00100F1
:1012E0002168086000202064202084F83D00002050
:1012F000206384F83E0000BF24E70000A0860100C0
:1013000080841E0000093D0040420F007047704776
:10131000704770477047000010B586B0044614212E
:1013200001A8FEF7F9FF2F492068884258D100BF75
:10133000002000902C48006840F002002A49086014
:101340000846006800F00200009000BF00BFC02007
:1013500001901220029000200390032004900420AA
:10136000059001A92148FFF7F3FC00BF0020009081
:101370001D481030006840F400101B49103108600F
:101380000846006800F40010009000BF00BF184835
:10139000184908604FF0007048604021154881608E
:1013A0000021C1604FF480610161002141618161D0
:1013B000C1614FF48031016200214162FFF7D6FB29
:1013C00008B1FFF7EBF900BF0A486063846300BF10
:1013D000002205211F2000F0CFF81F2000F0BCF8EC
:1013E00006B010BD005400403038024000040240F6
:1013F000A0600240FC01002070477047034800686D
:101400000349097808440149086070470C0000202E
:101410001400002010B50D48006840F400700B491E
:1014200008600846006840F480600860084600686C
:1014300040F480700860032000F0DCF80F2000F01A
:1014400007F800F05FF8002010BD0000003C0240EB
:101450002DE9F04188B004460027B84600BF0020BF
:1014600001902348006840F01000214908600846B8
:10147000006800F01000019000BF00BF02A903A89F
:1014800001F074F8069F1FB901F098F8054602E0D4
:1014900001F094F845001748B5FBF0F0A0F1010801
:1014A00015481649086040F2E7311448C160C0F899
:1014B0000480002101618160816101F06BFB0646BF
:1014C00096B90E4801F09AFB06466EB9362000F038
:1014D00043F8102C07D200222146362000F04CF8A9
:1014E0000748046000E00126304608B0BDE8F081FE
:1014F0004038024040420F0000100040000400202D
:101500001000002008B500BF0020009011480068BE
:1015100040F480400F4908600846006800F48040AD
:10152000009000BF00BF00BF00200090081F0068AF
:1015300040F08050091F08600846006800F08050A5
:10154000009000BF00BF00220F21901E00F014F891
:1015500008BD00004438024001460846002809DB67
:1015600000F01F0301229A4043099B0003F1E0238E
:10157000C3F8002100BF70472DE9F05F80460D469B
:101580001646002707F038FB074639462A463346F9
:1015900001F00700C0F1070ABAF1040F02D94FF0B9
:1015A000040A01E0C0F1070AD14600F1040ABAF1C9
:1015B000070F02D24FF0000A01E0A0F1030AD4465F
:1015C0004FF0010A0AFA09FAAAF1010A0AEA020A24
:1015D0000AFA0CFA4FF0010B0BFA0CFBABF1010B02
:1015E0000BEA030B4AEA0B042146404607F020FBB6
:1015F000BDE8F09F00BF00F00702064B19684FF6E8
:10160000FF031940044B0B4343EA0221014B1960CD
:1016100000BF70470CED00E00000FA05704702467D
:101620001068416200207047F0B5034615461868FF
:10163000446A21B944EA05401E68B06219E018689E
:10164000806A04EB1044002208E0186800F58270FC
:1016500050F8220004EB1044501CC2B2481E9042C5
:10166000F3D844EA0547186800F582704E1E40F82A
:1016700026700020F0BD10B50446D4F8080505F02A
:10168000B8FC10BD70B504460D4605EBC50304F16A
:101690003C0101EB83010A692946D4F8080505F0ED
:1016A000A3FB70BD70B504460D4605EBC50304F5FC
:1016B0001F7101EB83010A692946D4F8080505F07A
:1016C00017FC70BD10B50446D4F8080505F094FC6D
:1016D00010BD2DE9F04104460D4605F0800080283C
:1016E00008D105F00F0000EBC00104F13C0000EB55
:1016F000810607E005F00F0000EBC00104F51F7044
:1017000000EB81063146206806F068FF0746384640
:10171000BDE8F08170B504460E4606F080008028D2
:101720000AD106F00F0000EBC00104F13C0000EB11
:1017300081050120687009E006F00F0000EBC00190
:1017400004F51F7000EB81050020687006F00F00A3
:10175000287000BF94F8BC04012801D1022070BD9C
:10176000012084F8BC0400BF2946206806F016FA60
:1017700000BF002084F8BC0400BF00BFEFE770B5D5
:1017800004460E4606F00F006168884201D9012028
:1017900070BD06F0800080280AD106F00F0000EB33
:1017A000C00104F13C0000EB81050120687009E0F4
:1017B00006F00F0000EBC00104F51F7000EB81057F
:1017C000002068700020A87006F00F00287000BF8D
:1017D00094F8BC04012801D10220D9E7012084F843
:1017E000BC0400BF2946206806F0C0FC00BF0020F2
:1017F00084F8BC0400BF00BFCAE7024601F00F0036
:1018000000EBC00302F51F7000EB8300006A704715
:101810002DE9F04705460E4690461F464FF0000959
:1018200006F0800080280AD106F00F0000EBC0010E
:1018300005F13C0000EB81040120607009E006F036
:101840000F0000EBC00105F51F7000EB81040020C4
:10185000607006F00F002070C4F80C80277160786B
:1018600008B120782081022F01D10020607100BFD3
:1018700095F8BC04012802D10220BDE8F0870120C0
:1018800085F8BC0400BF2146286806F09DF800BF1B
:10189000002085F8BC0400BF4846EEE72DE9F04182
:1018A00004460E461746984606F00F0000EBC001AE
:1018B00004F51F7000EB81052F61C5F8188000202A
:1018C0002862687006F00F0028702069012800D196
:1018D0006F6106F00F0028B9227C2946206806F0C7
:1018E0001FFB04E0227C2946206806F0D3FC002080
:1018F000BDE8F08170B504460D4605F00F00616843
:10190000884201D9012070BD05F0800080280AD1ED
:1019100005F00F0000EBC00104F13C0000EB810674
:101920000120707007E005EBC50104F51F7000EBA6
:101930008106002070700120B07005F00F0030703B
:1019400000BF94F8BC04012801D10220DBE701208C
:1019500084F8BC0400BF3146206806F04EFC05F058
:101960000F0028B9217C04F2C442206806F0C6FBAF
:1019700000BF002084F8BC0400BF00BFC3E72DE90E
:10198000F04104460E461746984606F00F0000EB5D
:10199000C00104F13C0000EB81052F61C5F81880FF
:1019A000002028620120687006F00F00287020696E
:1019B000012800D16F6106F00F0028B9227C29466A
:1019C000206806F0ADFA04E0227C2946206806F083
:1019D00061FC0020BDE8F0812DE9FE4F0446D4F8FB
:1019E00000B05E46206806F0E0FE002874D1206852
:1019F00006F01AFF08B9BDE8FE8F40F608008059CE
:101A0000C0F30D20C4F8FC04206806F00DFF00F0C0
:101A10000200022805D12068406900F00200216818
:101A20004861206806F000FF00F01000102845D142
:101A30002068806920F0100021688861DBF8209020
:101A400009F00F0000EBC00104F51F7000EB810AE4
:101A5000C9F3434002281AD147F6F07009EA0000A2
:101A600030B3C9F30A125846DAF8101006F0E1FE56
:101A7000C9F30A11DAF810000844CAF81000C9F3D3
:101A80000A11DAF820000844CAF8200010E0C9F36F
:101A9000434006280CD1082204F2C441584606F0FF
:101AA000C8FEC9F30A11DAF820000844CAF8200079
:101AB0002068806940F0100021688861206806F085
:101AC000B3FE00F40020B0F5002F7BD10025206884
:101AD00006F07AFE029072E0E1E2029800F0010066
:101AE000002868D0E9B2206806F091FE804608F030
:101AF000010048B1012106F5306000EB451081601E
:101B00002946204603F098FE08F00800082809D16D
:101B1000082106F5306000EB45108160294620461B
:101B200003F058FE08F01000102805D1102106F52A
:101B3000306000EB4510816008F00200022824D1DB
:101B4000DBF8140000F08000802807D140F6040084
:101B5000805940F4806140F60400815105EBC501D5
:101B600004F51F7000EB810A9AF80300012806D1E2
:101B700000208AF80300E9B2204600F09BFA022117
:101B800006F5306000EB4510816008F02000202849
:101B900005D1202106F5306000EB4510816008F486
:101BA0000050B0F5005F06D14FF4005106F53060EB
:101BB00000EB451081606D1C02984008029002986D
:101BC00000288AD1206806F02FFE00F48020B0F5AE
:101BD000802F7DD1206806F0EDFD029000259AE06F
:101BE000029800F00100002873D0E9B2206806F0E6
:101BF000F5FD804608F00100F0B305F00F0101206B
:101C00008840019040F634008159019821EA000093
:101C100040F634018851012106F5106000EB4510B3
:101C200081602069012824D105EBC50104F13C0045
:101C300000EB810005EBC502016904F13C0000EBFB
:101C40008200C068014405EBC50204F13C0000EBD2
:101C5000820001616DB905EBC50104F13C0000EBA8
:101C60008100806928B904F2C4420121206806F08D
:101C700045FAE9B2204600E001E0FFF703FD08F075
:101C80000800082805D1082106F5106000EB451072
:101C9000816008F01000102805D1102106F51060B1
:101CA00000EB4510816008F04000402805D140213C
:101CB00006F5106000EB4510816008F00200022874
:101CC0001DD12946584606F031FD05EBC50101E05E
:101CD00025E01CE004F13C0000EB810A9AF80300C7
:101CE000012806D100208AF80300E9B2204600F05E
:101CF000D8F9022106F5106000EB4510816008F06C
:101D00008000802803D12946204603F037FE6D1C51
:101D1000029840080290029800287FF461AF206882
:101D200006F082FD00F00040B0F1004F1CD140F6FB
:101D30000400805920F0010140F60400815194F81C
:101D4000F404012807D1002084F8F404002120467F
:101D5000FFF764FC02E0204600F0D4FA20684069F6
:101D600000F0004021684861206806F05DFD00F445
:101D70000060B0F5006F0ED140F60800805900F009
:101D8000010010B1204600F015FB2068406900F406
:101D9000006021684861206806F046FD00F480502C
:101DA000B0F5805F7ED140F60400805920F001013B
:101DB00040F6040081511021206806F0B7FC00278E
:101DC00032E04FF67F3106F5106000EB471081607E
:101DD00006F5106000EB4710006820F4001106F5CE
:101DE000106000EB471001604FF67F3106F5306060
:101DF00000EB4710816006F5306000EB471000688B
:101E000020F4001106F5306000EB4710016006F584
:101E1000306000EB4710006840F0006106F530606C
:101E200000EB471001607F1C6068B842C9D840F6DB
:101E30001C00805940F0011140F61C008151206BBC
:101E400070B1D6F8840840F00B01C6F8841840F64B
:101E50004400805940F00B0140F6440081510FE0EE
:101E600040F61400805942F22B01084340F6140159
:101E70008851081F805940F00B014FF401608151D7
:101E8000D6F8000820F4FE60C6F80008217C04F2B1
:101E9000C442206806F032F92068406900F480509E
:101EA000216800E000E04861206806F0BDFC00F415
:101EB0000050B0F5005F17D1206805F0EDFD2068F7
:101EC00006F060FCE06000F073FB0090227B20686D
:101ED000009906F031FD204600F0FCF920684069C9
:101EE00000F4005021684861206806F09DFC00F075
:101EF0000800082808D1204600F00BFA2068406945
:101F000000F0080021684861206806F08DFC00F0B0
:101F10008000802818D1DBF8180020F08000CBF872
:101F2000180001250DE005EBC50104F51F7000EB5D
:101F30008100C078012803D1E9B22046FFF7C9FB30
:101F40006D1C6068A842EED8206806F06DFC00F4B5
:101F50008010B0F5801F2DD1012522E006F510601C
:101F600000EB4510D0F8009005EBC50104F13C00F2
:101F700000EB81000079012812D109F00040B0F196
:101F8000004F0DD1012105EBC50204F13C0000EB2F
:101F90008200C170E8B240F080012046FFF799FB53
:101FA0006D1C6068A842D9D82068406900F4801090
:101FB00021684861206806F037FC00F40010B0F595
:101FC000001F44D1012538E006F5306000EB4510D4
:101FD000D0F8009005EBC50104F51F7000EB8100FF
:101FE0000079012828D109F00040B0F1004F23D139
:101FF00009F4803094F8FC1401F0010188421BD1EF
:10200000012105EBC50204F51F7000EB8200C170D1
:10201000DBF8180040F08000CBF81800DBF8140063
:1020200000F0800040B940F60400805940F400718F
:1020300040F60400815103E06D1C6068A842C3D8DB
:1020400000BF2068406900F40010216848612068E2
:1020500006F0EAFB00F08040B0F1804F08D1204646
:10206000FFF709FB2068406900F080402168486163
:10207000206806F0D9FB00F0040004280FD1206886
:10208000D0F8049009F00400042802D12046FFF79C
:1020900019FB2068406840EA09002168486000BFD9
:1020A000A9E470B504460D462946D4F8080505F0A4
:1020B0000FF870BD70B504460D462946D4F80805E2
:1020C00005F02AF870BD70B58AB0044614B9012035
:1020D0000AB070BD266894F8BD0428B9002084F8C1
:1020E000BC04204600F0A2F8032084F8BD04F06B85
:1020F00000F4807008B900212161206805F008FF14
:10210000282204F110016846FEF7EDF894E80F006C
:1021100005F0D6FC20B1022084F8BD040120D7E7E9
:102120000021206806F0B5FB002531E0012105EB18
:10213000C50204F13C0000EB8200417005EBC501D3
:1021400004F13C0000F8215005EBC50100EB8100D3
:102150000581002105EBC50204F13C0000EB820083
:10216000017105EBC50204F13C0000EB8200C16087
:1021700005EBC50204F13C0000EB8200016105EBB8
:10218000C50204F13C0000EB82008161681CC5B20D
:102190006068A842CAD800252AE0002105EBC502E4
:1021A00004F51F7000EB8200417005EBC50104F5DA
:1021B0001F7000F82150002105EBC50200EB8200E2
:1021C000017105EBC50204F51F7000EB8200C160D0
:1021D00005EBC50204F51F7000EB8200016105EB01
:1021E000C50204F51F7000EB82008161681CC5B256
:1021F0006068A842D1D8282204F110016846FEF791
:1022000072F894E80F0005F093FD20B1022084F8E5
:10221000BD0401205CE7002084F83800012084F828
:10222000BD04206805F072FD002051E710B586B0AE
:102230000446142101A8FEF76FF82068B0F1A04F02
:1022400042D100BF002000902048006840F001000B
:102250001E4908600846006800F00100009000BFB9
:1022600000BF4FF4C0500190022002900020039064
:10227000032004900A20059001A91548FEF768FD87
:1022800000BF1248001D006840F080000F49091D82
:10229000086000BF002000900C481430006840F433
:1022A00080400A49143108600846006800F4804004
:1022B000009000BF00BF00BF002205214320FFF7B0
:1022C0005BF94320FFF748F906B010BD30380240F3
:1022D0000000024070B504460125E06808B90025F9
:1022E00006E0E068022801D1012501E0FEF756FA78
:1022F0002946D4F8080504F0B8FFD4F8080504F01E
:102300005FFF70BD10B50446D4F8080504F08EFFD9
:1023100010BD10B50446D4F8080504F092FF10BDB6
:1023200070B504460D4600BF94F8BC04012801D1E5
:10233000022070BD012084F8BC0400BF84F838502E
:102340002946206806F0D9FA00BF002084F8BC04B2
:1023500000BF00BFEDE710B5044604F2C441D4F855
:10236000080504F099FF10BD70B50446256800BF4C
:1023700094F8BC04012801D1022070BD012084F82A
:10238000BC0400BFA06A012806D1A069012803D0BF
:10239000A86B40F48030A863206806F095F92068A7
:1023A00005F0A2FC00BF002084F8BC0400BF00BF01
:1023B000E3E7000010B50446D4F8080504F0C9FFAF
:1023C0002068D0F8000E40F001002168C1F8000E2E
:1023D000206A28B10348006840F0060001490860FF
:1023E00010BD000010ED00E070B504460D460CB9BC
:1023F000012070BD5848006800F00700A84209D2CB
:1024000055490D700846006800F00700A84201D049
:102410000120EEE7207800F0020002281DD120788C
:1024200000F00400042805D14C48006840F4E05056
:102430004A490860207800F00800082805D147487C
:10244000006840F46040454908604448006820F056
:10245000F000A168084341490860207800F00100BD
:10246000A8B36068012807D13C4808380068C0F369
:102470004040B8B90120BCE76068022802D060681B
:10248000032807D1354808380068C0F3406048B9D0
:102490000120AEE7314808380068C0F3400008B9B1
:1024A0000120A6E72D48006820F00300616808437A
:1024B0002A490860FEF74CFD064609E0FEF748FD94
:1024C000801B41F28831884202D9032091E707E05E
:1024D0002248006800F00C006168B0EB810FEDD17C
:1024E0001D48006800F00700A84209D91A490D707C
:1024F0000846006800F00700A84201D0012078E7F4
:10250000207800F00400042807D11448006820F463
:10251000E050E168084311490860207800F00800A5
:10252000082808D10D48006820F46040216940EA7D
:10253000C1000A49086000F051F808490968C1F370
:102540000311074A515CC840064908600648006804
:10255000FEF77EFF00204CE7003C024008380240B6
:1025600054CA000818000020100000200F2202604A
:102570000D4A126802F0030242600B4A126802F030
:10258000F0028260084A126802F4E052C260064A11
:10259000126802F46042D2080261044A126802F032
:1025A00007020A607047000008380240003C024001
:1025B00001480068704700001800002000B5FFF7D0
:1025C000F7FF04490968C1F38221034A515CC840FE
:1025D00000BD00000838024064CA00082DE9F04739
:1025E000002400250026A1462548006800F00C00C4
:1025F00020B1042805D008283AD105E0DFF88490FE
:1026000039E0DFF8849036E01D48001F006800F0D4
:102610003F041B48001F006800F4800078B11A488E
:102620001749091F0968C1F38811A0FB0170014611
:10263000224600233846FDF725FE05460EE01148E8
:102640000F49091F0968C1F38811A0FB01700146F9
:10265000224600233846FDF715FE05460848001FB0
:102660000068C0F30140401C4600B5FBF6F902E0EB
:10267000DFF8109000BF00BF4846BDE8F0870000BB
:10268000083802400024F40000127A00F8B504462D
:102690000CB90120F8BD207800F00100002874D0AA
:1026A000F948006800F00C0004280DD0F6480068D6
:1026B00000F00C00082813D1F348001F006800F454
:1026C0008000B0F5800F0BD1EF4808380068C0F3E8
:1026D0004040002859D06068002856D10120D9E731
:1026E00000BF6068B0F5803F08D1E748083800684F
:1026F00040F48030E449083908601EE06068B0F5B5
:10270000A02F0DD1E0480838006840F48020DE4951
:10271000083908600846006840F4803008600CE022
:10272000D9480838006820F48030D7490839086053
:102730000846006820F48020086000BF606890B1FF
:10274000FEF706FC054606E0FEF702FC401B642887
:1027500001D903209EE7CC4808380068C0F3404008
:102760000028F1D011E0FEF7F3FB054606E0FEF786
:10277000EFFB401B642801D903208BE7C2480838CF
:102780000068C0F340400028F1D1207800F002003A
:1027900002285FD1BC48006800F00C0058B1BA486C
:1027A000006800F00C0008281CD1B748001F006822
:1027B00000F48000B0B9B44808380068C0F34000A5
:1027C00020B1E068012801D0012063E7AE48083855
:1027D000006820F0F800216940EAC100AA490839E0
:1027E000086037E0E06800B30120A8490860FEF700
:1027F000AFFB054606E0FEF7ABFB401B022801D904
:10280000032047E7A04808380068C0F340000028CC
:10281000F1D09D480838006820F0F800216940EAAE
:10282000C10099490839086014E000209749086000
:10283000FEF78EFB054606E0FEF78AFB401B0228EA
:1028400001D9032026E7904808380068C0F340000B
:102850000028F1D1207800F0080008282CD1606908
:10286000A8B101208A490860FEF772FB054606E020
:10287000FEF76EFB401B022801D903200AE78248BD
:102880006C300068C0F340000028F1D014E0002054
:102890007F490860FEF75CFB054606E0FEF758FB43
:1028A000401B022801D90320F4E677486C30006809
:1028B000C0F340000028F1D1207800F00400042883
:1028C00070D1002770483830006800F0805090B90F
:1028D00000BF002000906C483830006840F0805005
:1028E0006949383108600846006800F0805000905F
:1028F00000BF00BF01276748006800F48070B0B9CE
:102900006448006840F4807062490860FEF720FB6C
:10291000054606E0FEF71CFB401B022801D90320F8
:10292000B8E65C48006800F480700028F2D000BF70
:10293000A068012808D154486830006840F00100C0
:102940005149683108601DE0A06805280DD14E4846
:102950006830006840F004004B4968310860084660
:10296000006840F0010008600CE0474868300068EB
:1029700020F001004449683108600846006820F0F2
:102980000400086000BFA068A8B1FEF7E1FA0546A0
:1029900009E0FEF7DDFA401B41F28831884202D996
:1029A000032077E626E0384868300068C0F340002E
:1029B0000028EED013E0FEF7CBFA054608E0FEF75C
:1029C000C7FA401B41F28831884201D9032061E6F1
:1029D0002D4868300068C0F340000028EFD1012F77
:1029E00007D129483830006820F080502649383116
:1029F000086000BFA069002845D02348006800F0A7
:102A00000C0008285DD0A069022845D100201F498C
:102A10000866FEF79DFA054606E0FEF799FA401BA8
:102A2000022801D9032035E6174808380068C0F3AA
:102A300040600028F1D1D4E907010843616A40EA07
:102A400081110122A06AC2EB500041EA00412C2012
:102A5000005D41EA00600C49091F086001200B4934
:102A60000866FEF775FA054606E0FEF771FA401BA8
:102A7000022801D903200DE6034808380068C0F396
:102A800040600028F1D049E0083802400000474289
:102A9000800E474200700040002021490866FEF782
:102AA00057FA054606E0FEF753FA401B022801D903
:102AB0000320EFE51B480068C0F340600028F2D116
:102AC0002CE0A069012800D1E4E51648001D066845
:102AD000A069012820D006F48001E06981421BD161
:102AE00006F03F01206A814216D147F6C07030409F
:102AF000616AB0EB811F0FD106F440310122A06A58
:102B0000C2EB5000B1EB004F06D106F070612C20F3
:102B1000005DB1EB006F01D00120BBE50020B9E5FD
:102B2000000047420038024070B504460E46154684
:102B30000CB9012070BD94F8490028B9002084F830
:102B40004800204600F01FF804F108012068FDF756
:102B50004BFE3146A2682068FDF782FE2946236BB2
:102B6000D4E90102FDF71EFEA168206850F821009B
:102B700040F00100A268216841F82200012084F899
:102B800049000020D6E710B50446FEF779F810BDDD
:102B90007047704710B504460CB9012010BD94F879
:102BA0003D0028B9002084F83C00204600F025F8BC
:102BB000022084F83D00211D206803F015FA012051
:102BC00084F8460000BF84F83E0001213F200155F3
:102BD000402001554120015500BF00BF012084F86D
:102BE000420043200155442001554520015500BFB6
:102BF000012084F83D000020D0E77047014691F89D
:102C00003D00012801D001207047022081F83D00DD
:102C10000868C06840F001000B68D8601A4B08686B
:102C200098421BD00868B0F1804F17D0174B086846
:102C3000984213D0164B086898420FD0154B08687D
:102C400098420BD0144B0868984207D0134B086881
:102C5000984203D0124B086898420CD108688068EB
:102C600000F00702062A0CD00868006840F0010056
:102C70000B68186005E00868006840F001000B6808
:102C800018600020C0E70000000001400004004080
:102C900000080040000C00400004014000400140DA
:102CA00000180040704710B5044620680069C0F362
:102CB0004000D8B12068C068C0F34000B0B16FF0E8
:102CC000020021680861012020772068806900F0F7
:102CD000030018B12046FFF7E5FF05E0204600F0AD
:102CE000ADF8204600F0ABF800202077206800699E
:102CF000C0F38000D8B12068C068C0F38000B0B1D4
:102D00006FF0040021680861022020772068806944
:102D100000F4407018B12046FFF7C4FF05E02046DC
:102D200000F08CF8204600F08AF800202077206818
:102D30000069C0F3C000D8B12068C068C0F3C0000B
:102D4000B0B16FF008002168086104202077206886
:102D5000C06900F0030018B12046FFF7A3FF05E0AB
:102D6000204600F06BF8204600F069F8002020773C
:102D700020680069C0F30010D8B12068C068C0F3B3
:102D80000010B0B16FF010002168086108202077B2
:102D90002068C06900F4407018B12046FFF782FF38
:102DA00005E0204600F04AF8204600F048F80020F0
:102DB00020772068006900F0010058B12068C068E1
:102DC00000F0010030B16FF0010021680861204679
:102DD00000F036F820680069C0F3C01058B12068D0
:102DE000C068C0F3C01030B16FF080002168086186
:102DF0002046FFF7CDFE20680069C0F3801058B16F
:102E00002068C068C0F3801030B16FF040002168C6
:102E10000861204600F020F820680069C0F34010E7
:102E200058B12068C068C0F3401030B16FF0200086
:102E3000216808612046FFF7ACFE10BD704770475F
:102E400010B5044603492068884201D1FEF7D6FA3E
:102E500010BD000000100040704700BFFEE70000FA
:102E600010B50248FEF77CF810BD0000A801002054
:102E7000C16AB1F52A0F02D10121C16205E0C16A20
:102E8000B1F12A4F01D10821C1627047F8B505465A
:102E900000200090AC6B94F83D603948006819211F
:102EA000B0FBF1F04FF47A71B0FBF1F0C0EBC00071
:102EB00000EB8000009000BF009820B9206C40F02B
:102EC0002000206409E00098401E009020680068FF
:102ED00000F40070B0F5007FEED000BF606B10B161
:102EE0000020616BC863A06B10B10020A16BC863A8
:102EF0002068006820F480602168086000206085F8
:102F0000606B10B10020616B0865A06B10B10020F0
:102F1000A16B08652068006820F001002168086046
:102F200094F83D0060280AD1202084F83D0000205C
:102F300084F83E0020642046FEF710F81EE006F0FC
:102F40002800282811D12068006840F0010021687D
:102F500008602068006840F48060216808600020F4
:102F60002063282084F83D0005E0202084F83D00FF
:102F7000002084F83E002046FEF7DFF8F8BD000090
:102F8000180000202DE9F041044694F83D6094F8C3
:102F90003E70102F01D0402F07D1222E05D120687E
:102FA000006820F400602168086006F028002828E6
:102FB00005D100202063282084F83D0010E020681F
:102FC000406800F40060B0F5006F07D0602E05D0B7
:102FD000202084F83D00002084F83E00002020637B
:102FE0002068406800F40060B0F5006F40D12068B0
:102FF000406820F4006021684860606B90F83500FC
:10300000012814D04848616B0865606BFDF776FCB9
:1030100000285BD02068006820F00100216808606B
:10302000202084F83D00606B016D88474EE03E48EB
:10303000A16B0865A06BFDF761FC002846D02068F5
:103040004069C0F3801030B120680069616A08707F
:10305000606A401C60622068006820F001002168FE
:103060000860202084F83D00A06B016D88472DE0AA
:1030700094F83D0060281AD1202084F83D000020FB
:10308000206420684069C0F3801030B12068006976
:10309000616A0870606A401C60622068006820F005
:1030A0000100216808602046FDF758FF0EE0206807
:1030B0004069C0F3801030B120680069616A08700F
:1030C000606A401C60622046FEF737F8256C05F008
:1030D000010058B905F00200022807D005F00400ED
:1030E000042803D005F00800082805D120684068AE
:1030F00020F4E0602168486094F83D60206C00F0A6
:10310000040004280ED1282E0CD10848E0620020CB
:103110002063202084F83D00002084F83E002046F3
:10312000FEF7F4F8BDE8F0818D2E00080000FFFFE7
:1031300070B50446E56A608D042810D120684068A7
:1031400020F480602168486020680069616A087026
:10315000606A401C6062608D401E60857AE0608D10
:1031600003281AD12068406820F4806021684860F4
:10317000042D07D0022D05D02068006820F480605F
:103180002168086020680069616A0870606A401CF4
:103190006062608D401E60855CE0608D02284FD1CA
:1031A000012D01D0102D06D12068006820F4806028
:1031B0002168086012E0042D01D0022D06D120689C
:1031C000006840F480602168086007E0102D05D099
:1031D0002068006840F40070216808602068006979
:1031E000616A0870606A401C6062608D401E608584
:1031F00020680069616A0870606A401C6062608DC6
:10320000401E60852068406820F440702168486056
:10321000202084F83D0094F83E00402807D100208B
:1032200084F83E0020632046FEF773F812E0002089
:1032300084F83E00122020632046FEF768F809E07B
:1032400020680069616A0870606A401C6062608D75
:10325000401E608570BD70B5044694F83D0022287C
:1032600070D1658D032D13D920680069616A0870DB
:10327000606A401C6062608D401E6085608D03281E
:103280005FD12068406820F480602168486058E081
:10329000E06A02284FD0012D01D0002D4BD12046ED
:1032A00000F062FC68BB2068006820F48060216840
:1032B00008602068406820F4E06021684860206869
:1032C0000069616A0870606A401C6062608D401E1F
:1032D0006085202084F83D0094F83E00402807D106
:1032E000002084F83E0020632046FEF712F828E014
:1032F000002084F83E00122020632046FEF707F8E5
:103300001FE02068406820F4E06021684860206881
:103310000069616A0870606A401C6062608D401ECE
:103320006085202084F83D00002084F83E0020467F
:10333000FDF703FF05E02068406820F48060216805
:10334000486000BF70BD70B50446E56A94F83D0062
:10335000212847D1608D50B1606A007821680861EA
:10336000606A401C6062608D401E60853AE0082DF6
:1033700016D0202D14D015F5803F11D0206840685C
:1033800020F4E0602168486011202063002084F868
:103390003E00202084F83D002046FDF7B9FF21E0E3
:1033A0002068406820F4E060216848602068006878
:1033B00040F400702168086000202063202084F819
:1033C0003D0094F83E00402806D1002084F83E00DD
:1033D0002046FDF79FFF05E0002084F83E002046D0
:1033E000FDF796FF70BD2DE9F041044694F83D507D
:1033F00094F83E70E66A208DB0BB212D3CD1082E9A
:1034000016D0202E14D016F5803F11D020684068C9
:1034100020F4E0602168486011202063002084F8D7
:103420003E00202084F83D002046FDF771FF44E077
:103430002068406820F4E0602168486020680068E7
:1034400040F400702168086000202063202084F888
:103450003D0094F83E00402807D1002084F83E004B
:103460002046FDF757FF28E006E0002084F83E00E4
:103470002046FDF74DFF20E0212D03D0402F1CD129
:10348000222D1AD1608D30B92068406820F4806008
:103490002168486011E094F83E00402803D120469E
:1034A00000F0A5F909E0606A007821680861606AA7
:1034B000401C6062608D401E6085BDE8F081416CFB
:1034C000C9B202681161416B11B1416BC96B21B97D
:1034D000816B41B1816BC96B29B10168496841F4C5
:1034E000006102685160704738B590F83E20C16AAB
:1034F000036B90F83D40222C73D1046D64B9402ACF
:103500000AD100BF00240094046864690094046830
:10351000A469009400BF1AE1046DC4B90469B4F54C
:10352000404F14D100BF00240094046864690094E3
:103530000468A469009400BF00BF0468246844F4D0
:10354000807405682C60046D641C0465FFE0448D84
:103550008CB900BF00240094046864690094046876
:10356000A469009400BF00BF0468246844F4007498
:1035700005682C60DDE0448D012C72D111F5803F8F
:1035800030D10468246824F4806405682C600468E1
:10359000646804F40064B4F5006F10D10468246812
:1035A00024F4806405682C6000BF00240094046843
:1035B000646900940468A469009400BFB9E000BF86
:1035C000002400940468646900940468A469009469
:1035D00000BF00BF0468246844F4007405682C60D0
:1035E000A7E0A9E0082923D0202921D0122B01D15E
:1035F00001291DD104290AD0022908D0102906D09A
:103600000468246824F4806405682C6005E004687C
:10361000246844F4806405682C6000BF0024009492
:103620000468646900940468A469009400BF80E0A1
:103630000468246824F4806405682C6000BF0024BA
:1036400000940468646900940468A469009400BF4D
:1036500000BF0468246844F4007405682C6068E0C6
:10366000FFE7448D022C3BD1042910D002290ED053
:1036700010290CD00468246824F4806405682C6048
:103680000468246844F4006405682C6005E004685C
:10369000246844F4806405682C600468646804F459
:1036A0000064B4F5006F10D111F5803F07D00129F7
:1036B00005D0082903D0102901D0202905D104689C
:1036C000646844F4805405686C6000BF0024009472
:1036D0000468646900940468A469009400BF28E049
:1036E0000468246844F4806405682C600468646895
:1036F00004F40064B4F5006F10D111F5803F07D0D9
:10370000012905D0082903D0102901D0202905D18D
:103710000468646844F4805405686C6000BF002449
:1037200000940468646900940468A469009400BF6C
:1037300000BF002404650AE000BF00240094046870
:10374000646900940468A469009400BF00BF38BD98
:1037500090F83E1040290ED1016D29B9416C01F05D
:10376000FE010268116141E0416CC9B241F0010102
:10377000026811613AE00169B1F5804F20D190F8FB
:103780003D10212905D1416C01F0FE010268116153
:1037900005E0416CC9B241F0010102681161416B61
:1037A00011B1416BC96B21B9816BF9B1816BC96BE7
:1037B000E1B10168496841F400610268516015E0B7
:1037C000016D41B9416C01F44071F02242EAE1110E
:1037D000026811610AE0016D012907D1416C01F411
:1037E0004071F12242EAE11102681161704770B53F
:1037F000044694F83D50206D98B9E06C012807D13B
:10380000A06CC0B221680861206D801C20654CE06E
:10381000A06CC0F3072021680861206D401C206562
:1038200043E0206D012807D1A06CC0B22168086177
:10383000206D401C206538E0206D022835D1222DF6
:1038400009D12068006840F4807021680860206D0C
:10385000401C206529E0608D60B1212D0AD1606A8D
:10386000007821680861606A401C6062608D401EBB
:1038700060851AE0608DC0B9212D16D1206840689E
:1038800020F4E060216848602068006840F400701F
:103890002168086000202063202084F83D0000207B
:1038A00084F83E002046FDF735FD70BD418D49B1DD
:1038B00001680969426A1170416A491C4162418D7F
:1038C000491E4185704770B5044694F83D50608D9F
:1038D000D8B120680069616A0870606A401C606243
:1038E000608D401E6085608D78B92A2D0DD12068CD
:1038F000406820F4806021684860222020632820EE
:1039000084F83D002046FDF777FD70BD418D49B13B
:10391000416A097802681161416A491C4162418D1E
:10392000491E4185704770B5044694F83D50608D3E
:10393000D8B1606A007821680861606A401C6062E2
:10394000608D401E6085608D78B9292D0DD120686D
:10395000406820F48060216848602120206328208E
:1039600084F83D002046FDF748FD70BDF8B50446DB
:103970000D46002794F83D0000F0280028281CD1AF
:103980002068406820F4806021684860C5F38000AA
:1039900000B90127C5F3C01010B9A08986B201E0B3
:1039A000208B86B200BF002084F83C0000BF324666
:1039B00039462046FDF7D3FA0FE000BF0020009003
:1039C00020684069009020688069009000BF00BFB7
:1039D00000BF002084F83C0000BFF8BD38B50446A5
:1039E00094F83D502068406820F4E0602168486009
:1039F00000BF0020009020684069009020680068A7
:103A000040F001002168086000BF00BF2068006826
:103A100020F48060216808602068406800F400603D
:103A2000B0F5006F42D1222D01D02A2D1FD1A06BFD
:103A3000006840686085608D18B1206C40F004001B
:103A400020642068406820F4006021684860A06B12
:103A5000FCF768FF012829D04148A16B0865A06BDD
:103A6000FCF74CFF10B3A06B016D88471EE0606B44
:103A7000006840686085608D18B1206C40F00400DB
:103A800020642068406820F4006021684860606B12
:103A9000FCF748FF012809D03148616B0865606B6D
:103AA000FCF72CFF10B1606B016D8847608D18B377
:103AB00020684069C0F3800048B120680069616AED
:103AC0000870606A401C6062608D401E60852068DE
:103AD0004069C0F3801048B120680069616A0870CD
:103AE000606A401C6062608D401E6085608D18B108
:103AF000206C40F004002064206C18B12046FFF7D1
:103B000041FA2BE02A2D07D100202063282084F8D9
:103B10003D002046FDF770FC94F83D0028280DD1AB
:103B20001048E06200202063202084F83D0000203F
:103B300084F83E002046FDF7E9FB0FE0206B2228C9
:103B400001D0222D0AD100202063202084F83D00DE
:103B5000002084F83E002046FDF74EFC38BD0000F2
:103B60008D2E00080000FFFF08B5014600200090E0
:103B7000104800681922B0FBF2F04FF47A72B0FBE3
:103B8000F2F000EB8000009000BF0098401E009013
:103B9000009828B9086C40F020000864012008BD96
:103BA0000868006800F40070B0F5007FEDD00020D8
:103BB000F5E700001800002030B50B46002100BFDB
:103BC00016E00A24B4EB107F05D9302404EB1074FE
:103BD00003F8114005E0412404EB10740A3C03F89B
:103BE0001140000100254C00641C1D554C1CE1B225
:103BF0009142E6DB30BD000070B50446002609485E
:103C00000588408845430021084600F075FA00F019
:103C1000EDFB00BF02E004490C80761CAE42FAD3F3
:103C200070BD0000344200208000006C10B50446D6
:103C300049488471002C45D1F020474908804FF451
:103C4000A07048800846808845F21051884210D103
:103C50004FF43050404908814FF4285048814FF4C8
:103C60002C5088814FF4F07008804FF448704880E1
:103C70001AE03948808841F6631188420DD12C2022
:103C8000354908812B2048812A2088814FF4F07023
:103C900008804FF44870488006E02C202E490881A7
:103CA0002A2048812B2088812B48808845F21031BA
:103CB00088424CD14FF4A070274908804FF4F0702F
:103CC000488044E04FF4A07023490880F0204880E9
:103CD0000846808845F21051884210D14FF4305088
:103CE0001D4908814FF4285048814FF42C50888199
:103CF0004FF4487008804FF4F07048801AE016487E
:103D0000808841F6631188420DD12C201249088128
:103D10002A2048812B2088814FF4487008804FF476
:103D2000F070488006E02C200B4908812A20488149
:103D30002B2088810848808845F21031884206D1BE
:103D40004FF4F070044908804FF4A07048800020C0
:103D500000F0B8F810BD00003442002030B5044631
:103D60000D463948808845F21051884220D13649A5
:103D7000488900F02FFB201200F020FB32494989CE
:103D8000491C88B200F026FBE0B200F017FB2E4978
:103D9000888900F01FFB281200F010FB2A4989894E
:103DA000491C88B200F016FBE8B200F007FB42E0C5
:103DB0002548808841F66311884228D122488079BD
:103DC00020B921480088401E001B84B21E49488942
:103DD00000F000FB201200F0F1FAE0B200F0EEFA81
:103DE000201200F0EBFAE0B200F0E8FA16498889F8
:103DF00000F0F0FA281200F0E1FAE8B200F0DEFA82
:103E0000281200F0DBFAE8B200F0D8FA13E00E490D
:103E1000488900F0DFFA201200F0D0FAE0B200F09A
:103E2000CDFA0949888900F0D5FA281200F0C6FABF
:103E3000E8B200F0C3FA04480089044908804FF052
:103E4000D841A1F8802030BD344200207E00006CB3
:103E500008B5034800880090BDF8000008BD0000C8
:103E60008000006C70B52DED048B0446BE2000F080
:103E7000B1FA052000F0A2FA2046FCF7CAFA41EC9C
:103E8000190B9FED0E0B53EC102BFCF750FA41EC85
:103E9000180BFCF7CBFA85B2284600F08FFA012008
:103EA00000F08CFAFF2000F089FA002000F086FA7A
:103EB000002000F083FABDEC048B70BD6666666678
:103EC00066660440F0B505460024002789488079DD
:103ED000012805D18748808841F66311884208D1BE
:103EE00084488079F0B98348808841F6631188421C
:103EF00018D1082D15D2DFE805F00406080A0C0ECB
:103F0000101206250DE007250BE0042509E0052524
:103F100007E0012505E0002503E0032501E0022577
:103F200000BF00BF082D1CD2DFE805F00406090C15
:103F30000F12151800BF14E044F0800411E044F0A3
:103F400040040EE044F0C0040BE044F0200408E01C
:103F500044F0600405E044F0A00402E044F0E00412
:103F600000BF00BF6348808845F21051884202D1EB
:103F70004FF4585700E036275E48808849F24131B7
:103F8000884205D05B48808847F28971884201D118
:103F900044F008042146384600F032FA554880883B
:103FA00041F6631188421DD004F0200068B15148E9
:103FB000008850494988884214DA4E48068840886B
:103FC0004C490880084646800CE04A480088494928
:103FD0004988884206DD4748068840884549088068
:103FE000084646804348808845F21051884252D1A5
:103FF0004049488900F0EEF9002000F0DFF93D4922
:104000004989491C88B200F0E5F9002000F0D6F992
:1040100038494989891C88B200F0DCF9354909889A
:10402000491EC1F30F2000F0C9F932494989C91C62
:1040300088B200F0CFF92F490978491EC8B200F0C4
:10404000BDF92C49888900F0C5F9002000F0B6F9C7
:1040500028498989491C88B200F0BCF9002000F089
:10406000ADF924498989891C88B200F0B3F9214946
:104070004988491EC1F30F2000F0A0F91D49898924
:10408000C91C88B200F0A6F91A498978491EC8B23D
:1040900000F094F92DE01749488900F09BF90020C1
:1040A00000F08CF9002000F089F912490988491EB6
:1040B000C1F30F2000F082F90E490978491EC8B2F9
:1040C00000F07CF90B49888900F084F9002000F0A9
:1040D00075F9002000F072F906494988491EC1F3BC
:1040E0000F2000F06BF903498978491EC8B200F02F
:1040F00065F9F0BD3442002010B502460C46454833
:10410000808841F66311884247D142488079A8B936
:1041100040480088401E801A82B23E49488900F01B
:1041200059F9002000F04AF9002000F047F9101278
:1041300000F044F9D0B200F041F916E03549488961
:1041400000F048F9101200F039F9D0B200F036F959
:1041500030490988491EC1F30F2000F02FF92D497D
:104160000978491EC8B200F029F92A49888900F067
:1041700031F9201200F022F9E0B200F01FF92549D0
:104180004988491EC1F30F2000F018F921498978A8
:10419000491EC8B200F012F93AE01E48808845F284
:1041A0001051884220D11B49488900F013F91012A0
:1041B00000F004F917494989491C88B200F00AF94E
:1041C000D0B200F0FBF81349888900F003F92012FF
:1041D00000F0F4F80F498989491C88B200F0FAF818
:1041E000E0B200F0EBF813E00A49488900F0F2F879
:1041F000101200F0E3F8D0B200F0E0F80549888929
:1042000000F0E8F8201200F0D9F8E0B200F0D6F89B
:1042100010BD0000344200202DE9F84F80460F46C3
:1042200016461C46BB462046E31704EB5373DB10CF
:1042300021464FEAE47C04EB5C7C4FEAEC0CA4EBF7
:10424000CC0CBCF1000F02D04FF0010C01E04FF09C
:10425000000C6344224604EBD27C4FEA6C0C03FB57
:104260000CF3DBB20093A6F12000C6B200255EE09D
:104270000C2C07D106EB46002F4901EB800010F80B
:1042800005901BE0102C05D12C4800EB061010F80F
:10429000059013E0182C07D106EBC600284901EB66
:1042A000800010F8059009E0202C05D1254800EB8E
:1042B000C61010F8059001E0BDE8F88F4FF0000A35
:1042C0002FE009F0800030B11F48394602684046AF
:1042D000FFF744FD07E00A9828B91C4839460268F0
:1042E0004046FFF73BFD4FEA49604FEA1069781CF2
:1042F00087B217484088B84200DCDDE7A7EB0B0027
:10430000A0420AD15F4608F101001FFA80F8104868
:104310000088404500DCCFE706E00AF1010000F02C
:10432000FF0ABAF1080FCCDB00BF681CC5B20098C9
:1043300085429DDB00BFBFE7F1CC000865D10008D6
:1043400055D70008B1E40008A8000020AC00002008
:10435000344200202DE9F84704460D469046994620
:10436000DDE9096704F0FF0A08EB04001FFA80F892
:1043700009EB05001FFA80F916E0444502DB5446BC
:10438000A81985B24D4500DB14E0002000903A7872
:10439000334629462046FFF73FFF304606EBD071F3
:1043A00004EB61018CB27F1C38787E2802DC3878FF
:1043B0002028E2DA00BFBDE8F887000001B5BDF8AB
:1043C00000000090BDF800000149088008BD000011
:1043D0008000006C01B5BDF800000090BDF8000041
:1043E0000149088008BD00007E00006C0248008979
:1043F0000249088070470000344200207E00006CB3
:10440000034A10804FF0D842A2F880107047000095
:104410007E00006C08B5054909680143034A116034
:10442000114609680140009100BF08BD30380240C4
:1044300008B5054909680143034A11601146096836
:104440000140009100BF08BD4038024008B5054951
:1044500009680143034A116011460968014000914F
:1044600000BF08BD44380240054A525C024452690C
:1044700022F00402024B5B5C03445A617047000067
:1044800004CA0008044A525C825822F00102024B1E
:104490005B5CC250704700006CCA0008044A525C62
:1044A000825842F00102024B5B5CC2507047000030
:1044B0006CCA000802460348405C1044406880B261
:1044C000704700006CCA000802460348405C105860
:1044D00000F00100704700006CCA000810B5054BE1
:1044E0005B5CC35823F060631343024C645C03516C
:1044F00010BD000004CA000810B5054B5B5CC35832
:1045000023F400231343024C645C035110BD0000EC
:104510006CCA000810B5064B5B5C03445B686FF324
:104520000F031343024C645C0444636010BD00003D
:104530006CCA000810B5054B5B5CC35823F0C00380
:104540001343024C645C035110BD000004CA000810
:10455000024B5B5C0344DA60704700006CCA0008E1
:1045600010B5054B5B5CC35823F480631343024CC6
:10457000645C035110BD000004CA000810B5054B6F
:104580005B5CC35823F4C0431343024C645C035187
:1045900010BD000004CA000810B5054B5B5CC35891
:1045A00023F490731343024C645C035110BD00006C
:1045B00004CA0008024B5B5C03449A607047000029
:1045C0006CCA000810B5054B5B5CC35823F400733C
:1045D0001343024C645C035110BD000004CA000880
:1045E00010B5054B5B5CC35823F4C0531343024C16
:1045F000645C035110BD000004CA000810B5054BEF
:104600005B5CC35823F440331343024C645C035196
:1046100010BD000004CA0008F0B502460B46002495
:104620000021186890FAA0F0B0FA80F48AE0012521
:10463000A540186800EA050100297DD058680128C6
:1046400002D0586802281CD19868956891FAA1F6A2
:10465000B6FA86F677000326BE40B54391FAA1F676
:10466000B6FA86F6760000FA06F63543956000BF86
:10467000D86855688D4301FB00F63543556000BF8F
:1046800000BF1869D56891FAA1F6B6FA86F67700E8
:104690000326BE40B54391FAA1F6B6FA86F6760037
:1046A00000FA06F63543D56000BF5868022831D1BC
:1046B00091FAA1F0B0FA80F0082814D25869156A6E
:1046C00091FAA1F6B6FA86F6B7000F26BE40B543BA
:1046D00091FAA1F6B6FA86F6B60000FA06F6354368
:1046E000156200BF16E05869556A0E0A96FAA6F6DA
:1046F000B6FA86F6B7000F26BE40B5430E0A96FA04
:10470000A6F6B6FA86F6B60000FA06F63543556206
:1047100000BF00BF5868156891FAA1F6B6FA86F690
:1047200077000326BE40B54391FAA1F6B6FA86F6A5
:10473000760000FA06F600E003E03543156000BF9E
:1047400000BF641C1868E04000287FF470AFF0BD23
:1047500010B5044601F048FA2060206801F010FA14
:104760006060606801F01CFAA060606801F02AFADD
:10477000E06010BD02480068C0F388107047000078
:1047800004380240016841F040010160704730B5D3
:104790000246012300BF1068C0F3801038BBD1E986
:1047A000000420438C682043CC6820430C692043DC
:1047B0004C6920438C692043CC6920430C6A204318
:1047C00014684FF6BF75AC4320431060506820F06A
:1047D00004004C6940EA14405060086AB0F5005F7C
:1047E00004D1486A84B2146100BF00BF0023D069BD
:1047F00020F40060D061184630BD0146886800F0A2
:104800000100704701468868C0F340007047026AA3
:104810000A4302627047016821F08001016070471D
:10482000816821F0800181607047000010B5024668
:1048300013682C4882420ED0B2F1804F0BD02A4828
:10484000824208D02948824205D02948824202D0BB
:104850002848824204D123F070004C6840EA0403E7
:104860002048824220D0B2F1804F1DD01E488242A3
:104870001AD01E48824217D01D48824214D01D48CB
:10488000824211D01C4882420ED01C4882420BD07A
:104890001B48824208D01B48824205D01A488242F7
:1048A00002D01A48824204D123F44070CC6840EA16
:1048B000040313608868D06200BF0888906200BF5C
:1048C0000848824202D00B48824203D10869106333
:1048D00000BF00BF00BF506940F00100506100BF41
:1048E000002010BD0000014000040040000800400E
:1048F000000C004000040140004001400044014021
:104900000048014000180040001C0040002000400A
:1049100070B50246012901D1002416E0042901D115
:10492000012412E0102901D102240EE0402901D116
:1049300003240AE0B1F5807F01D1042405E0B1F53C
:10494000806F01D1052400E006242346064CE55C77
:1049500002F1180428190468044DEE5C0425B540E2
:10496000AC43046070BD00000CCA000813CA000804
:1049700070B50246012901D1002416E0042901D1B5
:10498000012412E0102901D102240EE0402901D1B6
:1049900003240AE0B1F5807F01D1042405E0B1F5DC
:1049A000806F01D1052400E006242346064CE55C17
:1049B00002F1180428190468044DEE5C0825B5407E
:1049C0002C43046070BD00000CCA000813CA000824
:1049D0002DE9F04106460C4615460127012C08D06A
:1049E000102C0CD0B4F5807F0FD0B4F5805F18D1B7
:1049F00011E02946304600F0EDFD074612E0294659
:104A0000304600F027FE07460CE02946304600F00D
:104A100067FE074606E02946304600F0A1FE07463D
:104A200000E000BF00BF3846BDE8F08181637047F9
:104A3000426822F070020A434260704708B501687C
:104A4000009100BF4168009100BF08BD016921F4D9
:104A500090410161416921F02A0141617047C168BB
:104A600041F40051C1607047C16841F40051C16018
:104A7000704700BF00BF00F1140252E8002F42F05F
:104A8000400100F1140242E80013002BF3D100BFF3
:104A9000704700BF00BF00F1140252E8002F42F03F
:104AA000800100F1140242E80013002BF3D100BF93
:104AB000704700BF00BF00F10C0252E8002F42F027
:104AC000100100F10C0242E80013002BF3D100BFEB
:104AD000704700002DE9FF4104460D4601270026DE
:104AE000204600F063F8002845D1E968686808436B
:104AF00029690843A9690843E16849F20C629143B6
:104B00000843E060A868216921F440510143216114
:104B100000BF6869616921F440710143616100BFB0
:104B20006846FFF715FE1648844201D1039E17E040
:104B30001448844201D1029E12E01348844201D1FC
:104B4000029E0DE01148844201D1039E08E0104806
:104B5000844201D1029E03E00E48844200D1029EAD
:104B60004EB1286838B10027314620462B68AA6923
:104B700000F021F800BF384604B0BDE8F081000025
:104B80000010014000440040004800400014014073
:104B9000004C00400050004001460868C0F300107F
:104BA000704701460868C0F3401070470146C86866
:104BB000C0F3403070472DE9FC5F06460C46914635
:104BC0001D46B9F5004F68D10220A0FB05700346D1
:104BD0001920A4FB00A001463A465046FBF752FBC1
:104BE0006421B0FBF1F04FEA001A0220A0FB05712E
:104BF0000B461920A4FB00B13A465846FBF742FB8E
:104C000083460220A0FB057003461920A4FB000187
:104C10003A46CDE90001FBF735FB6421B0FBF1F02A
:104C200000EBC00101EB0010ABEB8000322101EB87
:104C3000C0006421B0FBF1F000F0F8000AEB400A7C
:104C40000220A0FB057003461920A4FB00B13A46E0
:104C50005846FBF717FB83460220A0FB057003466E
:104C60001920A4FB00013A46CDE90001FBF70AFB3D
:104C70006421B0FBF1F000EBC00101EB0010ABEBE5
:104C80008000322101EBC0006421B0FBF1F000F0A4
:104C90000700504480B2B06067E00420A0FB0570BC
:104CA00003461920A4FB00A001463A465046FBF7F4
:104CB000E9FA82460420A0FB05711920A4FB00B08C
:104CC00084463A460B4658466146FBF7DBFA6421B8
:104CD000B0FBF1F000EBC00101EB0010AAEB80008B
:104CE000322101EB00106421B0FBF1F000F0F00A7A
:104CF0000420A0FB057003461920A4FB00B0014668
:104D00003A465846FBF7BEFA6421B0FBF1F00AEBD5
:104D1000001A0420A0FB057003461920A4FB00B173
:104D20003A465846FBF7AEFA83460420A0FB0570CE
:104D300003461920A4FB00013A46CDE90001FBF728
:104D4000A1FA6421B0FBF1F000EBC00101EB00100F
:104D5000ABEB8000322101EB00106421B0FBF1F0DD
:104D600000F00F00504480B2B060BDE8FC9F70B509
:104D70004FF48000FFF74EFB4FF40010FFF74AFBA3
:104D8000002205211120FCF7F7FB1120FCF7E4FBC2
:104D900003F02AFF05460022052100F0FBFB044634
:104DA0002146392003F030FF392003F00FFF03F0D4
:104DB0001BFF05460022052100F0ECFB04462146BE
:104DC0003A2003F021FF3A2003F000FF03F00CFF2C
:104DD00005460022052100F0DDFB04462146452062
:104DE00003F012FF452003F0F1FE03F0FDFE05463F
:104DF0000022052100F0CEFB04462146462003F0A8
:104E000003FF462003F0E2FE70BD000000B58FB046
:104E10001C2108A8FBF780FA1C2101A8FBF77CFAEB
:104E20004FF02040214908602148486006208860F2
:104E300000211E48C1600161102141610021816192
:104E4000C161016241624FF4805181620021C162FF
:104E50004FF480410163002141638163416402207A
:104E600008900F20099010200A9000200B9010202D
:104E70000C9011200D9000200E90092001900F2021
:104E8000029008200390002004901020059011202B
:104E900006900020079001AA08A90448FDF744FEE7
:104EA00008B1FBF77BFC0FB000BD00005C020020E6
:104EB000040100A000B587B0142102A8FBF72CFA6A
:104EC00000BF002001906B48006840F01000694965
:104ED00008600846006800F01000019000BF00BFA5
:104EE00000BF002001900846006840F020000860E4
:104EF0000846006800F02000019000BF00BF00BF1E
:104F0000002001900846006840F0800008600846D4
:104F1000006800F08000019000BF00BF00BF0020CB
:104F200001900846006840F00100086008460068EB
:104F300000F00100019000BF00BF00BF0020019001
:104F40000846006840F0020008600846006800F06B
:104F50000200019000BF00BF00BF00200190084682
:104F6000006840F0080008600846006800F008008B
:104F7000019000BF00BF00BF0020019008460068FC
:104F800040F0400008600846006800F040000190D2
:104F900000BF00BF00BF002001900846006840F03D
:104FA000040008600846006800F00400019000BF9B
:104FB00000BF01224FF4C0612F48FBF7C3FF01225D
:104FC0004FF486412D48FBF7BDFF00224FF400410E
:104FD0002A48FBF7B7FF002240212948FBF7B2FF20
:104FE000012280212648FBF7ADFF18200290002007
:104FF00003900120049002A92248FBF7A9FE4FF478
:10500000C06002900120039004900220059002A944
:105010001948FBF79DFE012002900020039002201A
:10502000049002A91848FBF793FE4FF44340029006
:105030000120039004900220059002A90F48FBF77D
:1050400087FEC0200290012003900490022005906A
:1050500002A90B48FBF77CFE4FF480700290002001
:1050600003900120049002A90548FBF771FE07B0E8
:1050700000BD00003038024000140240000402402D
:1050800000180240001002400000024010B50B481A
:105090000B4908600B484860002109488160C160E5
:1050A0004FF480410161002141618161C161016270
:1050B000FCF744F808B1FBF771FB10BD0054004049
:1050C000A8010020801A060000B591B0282107A889
:1050D000FBF722F9182101A8FBF71EF94FF48050C5
:1050E000FFF7B4F90220FFF795F93820019002206C
:1050F0000290032003900020049005900520069064
:1051000001A91348FFF788FA002007904FF4827036
:1051100008900020099002200A9001200B90400284
:105120000C9038200D9000200E900F900A201090C7
:1051300007A90848FFF72BFB00200649496821F022
:1051400010010143034A516000BF11B000BD0000CF
:10515000000402400030014000B593B014210EA8B5
:10516000FBF7DAF8202106A8FBF7D6F818216846E5
:10517000FBF7D2F80420FFF75BF942F2CF00ADF85D
:10518000380000200F90C7201090002011900EA929
:105190002548FFF74BFB2448FFF73DFB0020224941
:1051A000896844F20702914301431F4A916000BF9E
:1051B00001211046FFF7DCFB6020069000200790DD
:1051C000089009900A9006AA01211748FFF700FCF1
:1051D00001211548FFF79CFB10211348FFF7C8FB7E
:1051E00006AA10211048FFF7F3FB10210E48FFF725
:1051F0008FFB00210C48FFF71BFC0B48FFF710FB4F
:105200000820FFF707F94FF440500090022001906A
:105210000020029003900490022005906946034804
:10522000FFF7FAF913B000BD00080040000C02407F
:1052300030B585B014216846FBF76EF82020FFF7E3
:10524000F7F803F0D1FC05460022052100F0A2F991
:1052500004462146372003F0D7FC372003F0B6FC84
:105260005320ADF80000002001904FF6FF7002902F
:1052700069460748FFF7DAFA0548FFF7CCFA00213C
:105280000348FFF7D5FB0248FFF7CAFA05B030BD67
:105290000014004030B58DB01C2106A8FBF73CF887
:1052A00018216846FBF738F81020FFF7CFF80120E7
:1052B000FFF7B0F84FF4C060009002200190032087
:1052C000029000200390049007200590694644480E
:1052D000FFF7A2F94FF0006202214248FFF7FEF803
:1052E000002202213F48FFF725F94FF40032022146
:1052F0003C48FFF783F94FF4807202213948FFF7E9
:105300004BF9002202213748FFF75CF94FF4806225
:1053100002213448FFF724F9002202213148FFF727
:105320005FF9002202212F48FFF728F902212D48BA
:10533000FFF79AF84FF0006207212A48FFF7CEF8EE
:10534000402207212748FFF7F5F84FF48032072164
:105350002448FFF753F9002207212248FFF71CF9E0
:10536000002207211F48FFF72DF94FF48062072123
:105370001C48FFF7F5F8002207211A48FFF730F91B
:10538000002207211748FFF7F9F807211548FFF712
:105390006BF803F029FC05460022052100F0FAF81D
:1053A00004462146252003F02FFC252003F00EFCA7
:1053B0004FF4E130069000200790089009900C20EF
:1053C0000A9000200B900C9006A90748FFF782FB7B
:1053D0000548FFF73BFB0448FFF741FB0DB030BD2C
:1053E00000000240006402400010014030B58DB062
:1053F0001C2106A8FAF790FF18216846FAF78CFFDF
:105400002020FFF723F80420FFF704F8C0200090C5
:1054100002200190032002900020039004900820B5
:10542000059069464348FFF7F7F84FF020620121E5
:105430004148FFF753F8002201213F48FFF77AF86F
:105440004FF4003201213C48FFF7D8F80022012137
:105450003948FFF7A1F8002201213748FFF7B2F8D9
:105460004FF4806201213448FFF77AF800220121CD
:105470003148FFF7B5F8002201212F48FFF77EF8E9
:1054800001212D48FEF7F0FF4FF0206206212A4847
:10549000FFF724F8402206212748FFF74BF84FF486
:1054A000803206212448FFF7A9F80022062122486D
:1054B000FFF772F8002206211F48FFF783F84FF428
:1054C000806206211C48FFF74BF8002206211A488B
:1054D000FFF786F8002206211748FFF74FF806214C
:1054E0001548FEF7C1FF03F07FFB054600220521AA
:1054F00000F050F804462146472003F085FB472082
:1055000003F064FB4FF4E130069000200790089010
:1055100009900C200A9000200B900C9006A90748D7
:10552000FFF7D8FA0548FFF791FA0448FFF797FA12
:105530000DB030BD0008024000640240001401407C
:1055400010B500220D490E4801F00BFC08B1FBF725
:1055500025F90C490A4801F039FF08B1FBF71EF99B
:105560000949074801F03EF808B1FBF717F904486C
:1055700002F02EF808B1FBF711F910BDB4000020BD
:1055800044420020280100200401002000BFFEE763
:1055900000BFFEE7F0B503460C4603F00701C1F17A
:1055A0000700042801D9042001E0C1F107000646E4
:1055B000081D072801D2002000E0C81E0546012072
:1055C000B040401E2040A8400127AF407F1E17403A
:1055D0003843F0BD70B50246106A20F00100106239
:1055E000136A5568946924F0030424F070000E686F
:1055F00040EA060423F002000E6940EA060323F0A5
:1056000001004E6840EA06031048824202D010486A
:10561000824213D123F008004E6940EA860323F04A
:1056200004008E6840EA860325F480708E6940EAA3
:10563000060525F40070CE6940EA46055560946180
:10564000C868506300BF1362002070BD00000140B5
:10565000000401402DE9F04104460D46206A20F087
:1056600010002062266AD4F80480A76927F44077E6
:1056700027F4E040296840EA012726F02000296944
:1056800040EA011626F01000696840EA0116124847
:10569000844202D01148844213D126F08000696907
:1056A00040EA811626F04000A96840EA811628F4F5
:1056B0008060A96940EA810828F40060E96940EA4D
:1056C000C108C4F80480A7612046E968FFF7AEF975
:1056D00026620020BDE8F081000001400004014086
:1056E00070B50246106A20F480701062136A556823
:1056F000D46924F0030424F070000E6840EA060424
:1057000023F400700E6940EA062323F480704E688B
:1057100040EA06231048824202D01048824213D148
:1057200023F400604E6940EA862323F480608E688B
:1057300040EA862325F480508E6940EA061525F458
:105740000050CE6940EA46155560D461C868D06300
:1057500000BF1362002070BD000001400004014042
:1057600070B50246106A20F480501062146A5568C1
:10577000D36923F4407323F4E0400E6840EA062323
:1057800024F400500E6940EA063424F480504E6838
:1057900040EA06340948824202D00948824204D1D4
:1057A00025F480408E6940EA86155560D361C8684B
:1057B000106400BF1462002070BD000000000140B2
:1057C0000004014010B50248FCF706F910BD0000C6
:1057D000205700202DE9F04704460D46266837463D
:1057E000D6F8408007F5306000EB4510D0F80890FF
:1057F000104880450BD909F40040B0F5004F06D1A0
:105800004FF4004107F5306000EB45108160204601
:10581000FCF7A1FD0748804508D92069012805D17A
:1058200004F2C4420121206802F068FC0020BDE8B7
:10583000F08700000A30544F2DE9F04705460C462A
:10584000D5F800904E46D9F840A006F5306000EB40
:105850004410D0F808802869012855D108F00800C4
:1058600008280FD1434882450BD908F40040B0F511
:10587000004F7BD14FF4004106F5306000EB44103F
:10588000816073E008F02000202806D1202106F571
:10589000306000EB4410816068E008F028000028C8
:1058A00064D1344882450CD908F40040B0F5004F6B
:1058B00007D14FF4004106F5306000EB44108160E1
:1058C00054E004EBC40105F51F7000EB810706F5F9
:1058D000306000EB4410F9690069C0F31200081A47
:1058E000386264B9B86930B905F2C4420121286848
:1058F00002F004FC03E0396A386908443861E1B217
:105900002846FBF7CFFE31E01B4882451BD108F447
:105910000040B0F5004F07D14FF4004106F530606C
:1059200000EB4410816021E008F02000202805D120
:10593000202106F5306000EB44108160E1B228467A
:10594000FBF7B0FE12E06CB904EBC40105F51F7063
:1059500000EB8100806928B905F2C4420021286863
:1059600002F0CCFBE1B22846FBF79CFE0020BDE82C
:10597000F08700000A30544F0A31544F2DE9F84F98
:1059800007460E46D7F80090C84606EBC60107F159
:105990003C0000EB8104A169206A884202D9012001
:1059A000BDE8F88F216AA069451AE068A84200D2D4
:1059B000E568E81C4FEA900A17E0216AA069451AD9
:1059C000E068A84200D2E568E81C4FEA900A387CFB
:1059D000ABB2F2B200904846216903F057F8206953
:1059E00028442061206A2844206208F5106000EBFA
:1059F0004610806980B2504506D3A169206A88426A
:105A000002D2A0690028D8D1216AA06988420ED8A4
:105A100006F00F01012000FA01FB40F6340050F8B7
:105A2000080020EA0B0040F6340141F8080000208D
:105A3000B6E7000000B9704781782A4A127891428F
:105A40004ED10179C831642291FBF2F100EE101AB7
:105A5000B8EEC00A244981ED060A41797F39224A0D
:105A6000118081797F395180C1797F399180017AA4
:105A70007F39D1801146B1F90010FF2901DDFF21E6
:105A800011801949B1F90210FF2902DDFF21164AE0
:105A900051801549B1F90410FF2902DDFF21124A96
:105AA00091801149B1F90610FF2902DDFF210E4A4C
:105AB000D180002112E0827A437A42EA0322012354
:105AC0008B401A4022B101228A400AB1012300E032
:105AD0000023054A083253544A1CD1B21029EADB8C
