:020000040800F2
:10000000180B0020CD0100082F120008050C000875
:100010002D12000817030008211500080000000039
:100020000000000000000000000000003D13000878
:100030001D03000800000000631200083F130008C1
:10004000E7010008E7010008E7010008E7010008F0
:10005000E7010008E7010008E7010008E7010008E0
:10006000E7010008E7010008E7010008E7010008D0
:10007000E7010008E7010008190300081B03000856
:10008000E7010008E7010008E7010008E7010008B0
:10009000E7010008E7010008E7010008E7010008A0
:1000A000E7010008E7010008E7010008E701000890
:1000B000E7010008E7010008E7010008E701000880
:1000C000E7010008E7010008E7010008E701000870
:1000D000E7010008E5140008E7010008E70100084F
:1000E000E7010008E7010008E7010008E701000850
:1000F000E7010008E7010008E7010008E701000840
:10010000E7010008E7010008E7010008E70100082F
:10011000E7010008E7010008E7010008E114000812
:10012000E7010008E7010008E7010008E70100080F
:1001300000F002F800F03AF80AA090E8000C8244BF
:100140008344AAF10107DA4501D100F02FF8AFF29C
:10015000090EBAE80F0013F0010F18BFFB1A43F0A5
:1001600001031847F84F000018500000103A24BF50
:1001700078C878C1FAD8520724BF30C830C144BF0C
:1001800004680C607047000000230024002500264E
:10019000103A28BF78C1FBD8520728BF30C148BFEA
:1001A0000B6070471FB51FBD10B510BD00F07AF889
:1001B0001146FFF7F7FF01F0F7FA00F098F803B4E3
:1001C000FFF7F2FF03BC00F09FF8000009488047EA
:1001D00009480047FEE7FEE7FEE7FEE7FEE7FEE729
:1001E000FEE7FEE7FEE7FEE704480549054A064B41
:1001F00070470000AB13000831010008180500200B
:10020000180B002018070020180700204FF00002EC
:100210000429C0F0128010F0030C00F01B80CCF118
:10022000040CBCF1020F18BF00F8012BA8BF20F886
:10023000022BA1EB0C0100F00DB85FEAC17C24BFDA
:1002400000F8012B00F8012B48BF00F8012B704784
:100250004FF0000200B5134694469646203922BF5F
:10026000A0E80C50A0E80C50B1F12001BFF4F7AFAA
:10027000090728BFA0E80C5048BF0CC05DF804EB8C
:10028000890028BF40F8042B08BF704748BF20F8FA
:10029000022B11F0804F18BF00F8012B70477047F8
:1002A00070477047754600F02BF8AE46050069466A
:1002B000534620F00700854618B020B5FFF794FF9D
:1002C000BDE820404FF000064FF000074FF0000857
:1002D0004FF0000B21F00701AC46ACE8C009ACE8D8
:1002E000C009ACE8C009ACE8C0098D46704710B53C
:1002F0000446AFF300802046BDE81040FFF75FBF23
:1003000000487047B804002001491820ABBEFEE742
:10031000260002007047FEE770477047704772B6CC
:10032000FEE700000348016803484068C0EB004056
:1003300008447047241400401000002070B50446A3
:1003400000F028F90546601C02D0044800780444F7
:1003500000F020F9401BA042FAD370BD000000203D
:100360002DE9F84F00240023DFF8E0914FF00F084B
:10037000A9F1040B09F1040AABF1040EDFE0012737
:10038000A7403A40BA4275D1DFF8C4C14D68A5EB29
:100390000C0665452BD00DDC032D34D005DC35B3C0
:1003A000012D19D0022D2FD11BE0112D16D0122DA9
:1003B0002AD119E0B6F5881F19D006DCB6F5803FC2
:1003C00015D0B6F5801F1FD111E0B6F5001F0ED075
:1003D000B6F5041F18D10AE0CB6815E0CB681B1DE9
:1003E00012E0CB6808330FE0CB680C330CE08B686D
:1003F00023B1012B04D00823476105E0042303E067
:100400000823076100E00023FF2A01D8054601E028
:1004100000F1040502D84FEA840603E0A4F10806BF
:100420004FEA86062F6808FA06FC27EA0C0703FA4B
:1004300006F647EA06072F604D68ED007ED5454D6C
:10044000AE6946F00106AE61AD6905F001050095A3
:10045000414D24F003067719BE68A5072D0F08FA51
:1004600005FC26EA0C06DFF8F4C0604503D14FF026
:10047000000C25E062E0DFF8E8C0604502D14FF0F3
:10048000010C1DE0DFF8DCC0604502D14FF0020C2A
:1004900016E0DFF8D4C0604502D14FF0030C0FE046
:1004A000DFF8C8C0604502D14FF0040C08E0DFF867
:1004B000C0C0604502D14FF0050C01E04FF0060CC2
:1004C0000CFA05FC4CEA060CC7F808C04D68ED02B2
:1004D00005D5D9F800501543C9F8005004E0D9F803
:1004E00000509543C9F800504D68AD0205D5DAF8C3
:1004F00000501543CAF8005004E0DAF80050954364
:10050000CAF800504D68AD0305D5DBF8005015431F
:10051000CBF8005004E0DBF800509543CBF80050D6
:100520004D68ED0305D5DEF800501543CEF80050B8
:1005300004E0DEF800509543CEF80050641C0A68D1
:1005400032FA04F57FF41BAFBDE8F88F08040140D0
:10055000000011100010024000000140000801409E
:10056000000C01400010014000140140001801403F
:10057000001C0140C26821EA02030A4043EA02412A
:1005800001617047002A01D00161704709040161CF
:10059000704700000148806870470000000000209C
:1005A0000248816802781144816070470000002091
:1005B00010B50748016841F010010160032000F008
:1005C00069F80F2000F006F800F026F8002010BDB2
:1005D0000020024070B504460D4D4FF47A71287822
:1005E000B1FBF0F00B490968B1FBF0F000F0F6FA4E
:1005F00008B1012070BD102C07D200222146501EE8
:1006000000F028F86C60002070BD012070BD000073
:10061000000000200C00002008B50C48816941F062
:1006200001018161816901F001010091C16941F01D
:100630008051C161C06900F0805000900449486851
:1006400020F0E06040F00070486008BD00100240FB
:1006500000000140F0B40D460D4B1B68C3F30223AC
:10066000C3F10704042C00D90424191D072901D261
:10067000002300E0DB1E012606FA04F1491E294092
:1006800099409E40761E16403143F0BC00F06EBF8C
:100690000CED00E000F00701054A10684FF6FF037B
:1006A000184040EA012003490843106070470000E9
:1006B0000CED00E00000FA052DE9F04704460D4678
:1006C000002C17D0DFF83081D8F8000000F00700C8
:1006D000A84211D2D8F8000020F007002843C8F83B
:1006E0000000D8F8000000F00700A84204D0012064
:1006F000BDE8F0870120FBE72068404E810712D556
:10070000400703D5706840F4E0607060207800070F
:1007100003D5706840F4605070607068A16820F084
:10072000F000084370602078C0072CD06068012872
:1007300006D0022809D0316889070BD40120D7E7F9
:100740003168890306D40120D2E73168890101D4D8
:100750000120CDE7716821F0030101437160FFF7CB
:1007600019FF074641F2883906E0FFF713FFC01B67
:10077000484501D90320BBE77068616800F00C00B0
:10078000B0EB810FF1D1D8F8000000F00700A842CB
:100790000ED9D8F8000020F007002843C8F8000060
:1007A000D8F8000000F00700A84201D001209FE720
:1007B0002078400705D57068E16820F4E0600843C0
:1007C00070602078000706D57068216920F46050B9
:1007D00040EAC100706000F019F87168084AC1F37E
:1007E0000311515CC8400749086007480068FFF7DB
:1007F000F1FE00207CE700000020024000100240D3
:100800006F2700080C000020040000200E4B5968E0
:100810000E4801F00C02042A11D0082A0FD10C480E
:10082000C1F38342805CC9030AD55968084AC1F301
:100830004041921E515C054A5043B0FBF1F07047B5
:1008400004494843704700000010024000127A003B
:100850005F27000800093D002DE9F84F0446002CF1
:100860000ED02078D94DC0075ED06868C0F38100F3
:1008700001280BD06868C0F38100022803D00CE087
:100880000120BDE8F88F6868C00306D5286880039A
:100890004AD56068A8BB0120F3E76068B0F5803FE7
:1008A00011D0A8B1B0F5A02F1BD0286820F480305B
:1008B0002860286820F480202860606830B3FFF743
:1008C00069FE06461EE0286840F480302860F4E7A0
:1008D000286820F480302860286820F48020286070
:1008E000EBE7286840F480202860286840F48030D6
:1008F0002860E2E7FFF74EFE801B642802D9032040
:10090000BFE711E028688003F4D50DE0FFF742FE51
:10091000064606E0FFF73EFE801B642801D903204F
:10092000AFE728688003F5D42078DFF8A482800739
:100930004FF0010A4FF0000945D5686810F00C0F20
:1009400007D06868C0F38100022812D16868C0032C
:100950000FD42868800704D52069012801D0012020
:100960008FE72868616920F0F80040EAC10028603C
:1009700029E02069B8B1C8F800A0FFF70BFE0646D1
:1009800006E0FFF707FE801B022801D9032078E765
:1009900028688007F5D52868616920F0F80040EAEA
:1009A000C10028600FE0C8F80090FFF7F3FD06468D
:1009B00006E0FFF7EFFD801B022801D9032060E766
:1009C00028688007F5D42078000726D58148A169DA
:1009D00099B1C0F800A0FFF7DDFD064606E0FFF77D
:1009E000D9FD801B022801D903204AE7686A8007E5
:1009F000F5D5012000F036FC0FE0C0F80090FFF7BD
:100A0000C9FD064606E0FFF7C5FD801B022801D997
:100A1000032036E7686A8007F5D42078400773D54D
:100A20000026E869C00008D4E86940F08050E86119
:100A3000E86900F0805000900126DFF89CB1DBF8F7
:100A40000000C00514D4DBF8000040F48070CBF83F
:100A50000000FFF79FFD074606E0FFF79BFDC01B68
:100A6000642801D903200CE7DBF80000C005F4D5A9
:100A7000E068012812D0B0B105281DD0286A20F006
:100A800001002862286A20F004002862E06841F230
:100A9000883B28B3FFF77EFD07461DE0286A40F03B
:100AA00001002862F2E7286A20F001002862286A23
:100AB00020F004002862E9E7286A40F00400286278
:100AC000286A40F001002862E0E7FFF763FDC01BE1
:100AD000584501D90320D4E6286A8007F5D50DE0F2
:100AE000FFF758FD074606E0FFF754FDC01B5845C9
:100AF00001D90320C5E6286A8007F5D4012E03D169
:100B0000E86920F08050E861E069A0B36968C1F34A
:100B10008101022946D0022805D0C8F86090FFF76D
:100B200039FD04463AE0C8F86090FFF733FD064609
:100B300006E0FFF72FFD801B022801D90320A0E665
:100B400028688001F5D4206AB0F5803F05D1686837
:100B5000A16820F4003008436860D4E90801084324
:100B6000696821F4741108436860C8F860A0FFF751
:100B700011FD044607E026E0FFF70CFD001B0228EC
:100B800001D903207DE628688001F5D51BE0FFF739
:100B900001FD001B022801D9032072E628688001AC
:100BA000F5D410E001280CD06868226A00F4803186
:100BB000914204D1616A00F47010884203D0012090
:100BC0005FE601205DE600205BE6000000100240C9
:100BD00000004242800442420070004010B5401EB6
:100BE000B0F1807F01D3012010BD4FF0E02460619F
:100BF0000F21601700F0BAFC0020A06107202061DF
:100C0000002010BDFEE7000008B504498A690243D0
:100C10008A6189690140009108BD0000001002400E
:100C2000044B194411F8011C435823F44053134357
:100C3000435070475627000810B5054B194411F86A
:100C4000011C435844F21004A3431343435010BD06
:100C500056270008044B194411F8011C435823F08F
:100C6000800313434350704756270008044B194430
:100C700011F8011C435823F4406313434350704759
:100C800056270008044B194411F8011C435823F05F
:100C9000200313434350704756270008044B194460
:100CA00011F8011C435823F040031343435070478D
:100CB00056270008044B194411F8011C435823F42B
:100CC0004073134343507047562700082DE9F04105
:100CD0000A68C2F30F2595FAA5F2B2FA82F26BE028
:100CE000012393402B4266D0082A03D240F201131D
:100CF000934006E0A2F108034FF001149C4044F039
:100D000080634C68082C0BD10C69C6681F0A97FADF
:100D1000A7F7B7FA87F726EA1326BC402643C66032
:100D20004F6800EB136493FAA3FCBCFA8CFC4FEA07
:100D30008C084FF00F0C26680CFA08FC26EA0C060B
:100D400093FAA3FCBCFA8CFC4FEA8C0C07FA0CF764
:100D50003E4326604F68012F01D0092F2BD18F68A9
:100D600093FAA3FCBCFA8CFC4FEA8C084FF0030CFE
:100D70000CFA08FC26EA0C0693FAA3FCBCFA8CFCDD
:100D80004FEA8C0C07FA0CF73E432660CF6893FAC3
:100D9000A3FCBCFA8CFC4FEA8C084FF0040C0CFA54
:100DA00008FC93FAA3F3B3FA83F39B0026EA0C063C
:100DB0009F403E432660521C35FA02F390D100203A
:100DC000BDE8F08100B5034600F088FA186000F035
:100DD0005BFA586000F066FA9860586800F070FAA4
:100DE000D86000BD2DE9F04102681D4C1D4D1E4E1E
:100DF0001E4F1F4B4FF0804CA04209D0984207D0A5
:100E0000604505D0A84203D0B04201D0B84205D118
:100E1000D1F8048022F0700242EA0802A04209D010
:100E2000984207D0604505D0A84203D0B04201D017
:100E3000B84203D1CD6822F440722A4302608A6826
:100E4000C2620A888262A04201D0984201D1096937
:100E50000163416941F0010141610020BDE8F08179
:100E6000002C01400004004000080040000C00403D
:100E7000003401402DE9FF4104460E4601270025BC
:100E8000E068C0F34030002867D1F1687068E2681C
:100E90000843316941F20C639A4311430843E0600F
:100EA000B068216921F44051014321617069616991
:100EB00021F44071014361616846FFF783FF2948CF
:100EC000844201D1039D12E02748844201D1029D52
:100ED0000DE02648844201D1029D08E02448844266
:100EE00001D1029D03E02348844200D1029DA5B3B5
:100EF000306890B3002705EBC50101EB05118000B8
:100F0000B1FBF0F36422B3FBF2F36FF01806734306
:100F1000B1FBF0F5B1FBF0F605EB8305322303EBF3
:100F20000515B5FBF2F5B6FBF2F605F0F00505EB9D
:100F30000615B1FBF0F6B1FBF0F0B0FBF2F06FF08C
:100F40001801484306EB800003EB0010B0FBF2F001
:100F500000F00F00284480B2A06004B03846BDE81D
:100F6000F08100000038014000440040004800408B
:100F7000004C00400050004008B51248416941F063
:100F800001014161406900F00100009000F0D6FAD3
:100F90000022114600F04CF901460E2000F0D6FA6E
:100FA0000E2000F0BEFA00F0C9FA0022114600F04F
:100FB0003FF901460F2000F0C9FABDE808400F20B4
:100FC00000F0AFBA001002402DE9F04186B00020D9
:100FD00002900390049005902248816941F04001FD
:100FE0008161816901F040010191816941F0040151
:100FF0008161816901F004010191816941F0080179
:101000008161806900F008000190DFF85C800122B6
:1010100020214046FFF7B6FA144F0122E02138465E
:10102000FFF7B0FA202502950124039404940226C8
:10103000059602A94046FFF793F90295039404949C
:10104000059602A93846FFF78BF9C0200290039459
:1010500004940320059002A93846FFF781F906B0F1
:10106000BDE8F0810010024000180140000C014072
:1010700010B586B0142101A8FFF7EAF81848C16935
:1010800041F02001C161C06900F02000009000F033
:1010900055FA0022114600F0CBF80146372000F047
:1010A00055FA372000F03DFA4720ADF80400002043
:1010B00002904FF6FF7003900A4C01A92046FFF7FB
:1010C00091FE206820F080002060606820F07000B1
:1010D0006060A06820F08000A06006B010BD000035
:1010E000001002400014004030B58DB01C2106A84D
:1010F000FFF7AEF8142101A8FFF7AAF84FF48040DB
:10110000FFF782FD0420FFF77FFD4348019009208F
:1011100002900320039000240494404D01A9284626
:10112000FFF7D4FD3E4901910421029101A928460F
:10113000FFF7CCFD3B4D002205212846FFF77CFD43
:101140004FF4005205212846FFF76AFD20220521B1
:101150002846FFF797FD002205212846FFF79EFD50
:10116000802205212846FFF775FD0022052128462B
:10117000FFF7A0FD002205212846FFF777FD10228A
:1011800004212846FFF758FDAA1404212846FFF73A
:1011900047FD002204212846FFF774FD00220421A8
:1011A0002846FFF77BFD802204212846FFF752FDE9
:1011B000002204212846FFF77DFD00220421284655
:1011C000FFF754FD00F0BAF90022114600F030F8A4
:1011D0000146252000F0BAF9252000F0A2F94FF4CD
:1011E000E13006900794089409940C200A900B941F
:1011F0000C940D4C06A92046FFF73CFE206920F414
:1012000090402061606920F02A006061E06840F44D
:101210000050E0600DB030BD020002040008014043
:10122000040004040000024000380140FEE7FEE72D
:1012300030B500F00703C3F10704042C00D90424DF
:10124000181D072801D2002300E0DB1E012505FA46
:1012500004F0401E084098409D406D1E15402843F4
:1012600030BD704708B507494FF4FA520968B1FB21
:10127000F2F14143009100BF0098411E0091FAD263
:1012800008BD00000C0000200449496801F0F0018D
:10129000034A0909515CC840704700000010024031
:1012A0006F2700080449496801F4E061034A02EB32
:1012B00011210978C8407047001002407F270008BC
:1012C0000449496801F46051034A02EBD1210978CD
:1012D000C8407047001002407F2700080648406859
:1012E00000F00C010548002905D0042903D0082985
:1012F00001D100F005B870470010024000127A00DA
:101300000C4A506800F480300B49002809D0B0F531
:10131000803F06D15068C0F34040401C4900B1FBFB
:10132000F0F1506800F47010022202EB9040484344
:10133000704700000010024000093D00704710B5E2
:1013400000F0E4F8BDE81040FFF72AB930B58FB0DF
:10135000282105A8FEF77CFF14216846FEF778FFD8
:1013600001210591080406900024079409910225A3
:101370000C950D904FF4E0100E9005A8FFF76CFA55
:1013800008B1FEF7CCFF0F200090019502944FF4B6
:1013900080600390049402216846FFF78DF90028CD
:1013A00001D0FEF7BCFF0FB030BD704710B5054847
:1013B00000F000F9012000F0E9F8BDE81040024813
:1013C00000F0B8BAA08601002400002010B520214A
:1013D0003348FFF7CFF8334800F09CFA0121314839
:1013E00000F01AFB00212F4800F013FB2E492D4876
:1013F00000F0FFFA2DA314220A212A4800F07CFAFB
:101400000121284800F005FB2949264800F0F1FA9F
:1014100028A308221F21234800F06EFA002121484A
:1014200000F0F7FA20491F4800F0E3FA22A31E2239
:101430003D211C4800F060FA20A31E224D211948CE
:1014400000F05AFA2F2323220C21164800F0F6F957
:101450002F2324220D21134800F0F0F90C23202221
:101460003721104800F050FA0C23212238210D4872
:1014700000F04AFA12490B4800F0BBFA11A33622D9
:101480000B21084800F038FA064800F084FA0028DA
:10149000A4D1BDE8104044F6206000F0BDB80000C3
:1014A000000C0140240000205A2A000855000000CA
:1014B000CF4C00083800000067000000B2000000B8
:1014C000872700086769746875622E636F6D2F6FD8
:1014D0006C696B726175732F75386732000000009C
:1014E00000F002B87047000006480169C1F300012E
:1014F000002906D06FF00101016103484168491CD1
:10150000416070470014004010000020034801684B
:10151000002902D00168491E0160704718000020B0
:10152000FEE7002809DB00F01F020121914040097D
:10153000800000F1E020C0F8001170470248006808
:10154000C0F30220704700000CED00E00907090E0F
:10155000002804DB00F1E02080F80014704700F060
:101560000F0000F1E02080F8141D70470907090EF4
:10157000002804DB00F1E02080F80014704700F040
:101580000F0000F1E02080F8141D70470749087033
:101590000748C16841F00101C1606FF001010161BC
:1015A000016841F001010160704700001000002057
:1015B0000014004010B505490968B1FBF0F0FFF7D1
:1015C0000DFB002800D0FEE710BD00000C0000203D
:1015D00010B502460A48007800280CD0FEF7A2FE9B
:1015E00002EB4201C1EBC21100EBC102FEF79AFE11
:1015F0009042FBD910BDBDE810401046FEF79EBEDC
:101600001000002000B50246FEF78CFE0244FEF7F3
:1016100089FE9042FBD900BD01B5034800990160E5
:1016200001680029FCD108BD1800002000224C21CF
:1016300001F070B800224D2101F06CB801684A7BBE
:101640002D2101F067B810B5044601224C21204637
:1016500001F060F801224D21204601F05BF82046A0
:10166000BDE81040FFF7EABF10B50446204600F081
:101670001DF82046FFF7E2FF204600F00BF8204659
:1016800000F014F82046FFF7D9FF2046BDE81040CF
:10169000FFF7CCBF10B5044601224C21204601F0D3
:1016A00039F82046BDE81040FFF7C8BF01224D21A0
:1016B00001F030B810B5044694F82500002808D091
:1016C0002046FFF7F3FF2046FFF7B8FF2046FFF75D
:1016D000E1FF2046FFF7EAFF2046FFF7ABFF204679
:1016E000FFF7ACFF2046FFF7A1FF012084F825009B
:1016F00010BD10B504462046FFF79CFF2046FFF7BB
:101700009DFF2046FFF7C6FF2046FFF7CFFF20468C
:10171000FFF794FF002184F8251010BD10B5044692
:10172000002903D02046FFF7C1FF02E02046FFF763
:1017300081FF2046FFF782FF2046FFF7ABFF2046E0
:10174000BDE81040FFF772BF70B505460C4604F0C7
:1017500080012846FFF7E2FF04F040012846FFF72A
:10176000DDFF04F020012846FFF7D8FF04F0100148
:101770002846FFF7D3FF04F008012846FFF7CEFF05
:1017800004F004012846FFF7C9FF04F002012846CF
:10179000FFF7C4FF04F001012846FFF7BFFF28460A
:1017A000BDE87040FFF760BFFEF702FFFFF7CEFD18
:1017B000FFF70AFCFFF7E0FBFFF75AFCFFF794FC8A
:1017C000FFF7F4FDFFF702FEFCE70168097C90F8E3
:1017D00038204A43D100406BFEF718BD2DE9F04197
:1017E00004460D4616461F4694F87000002806D0A1
:1017F00001280AD002280ED0032817D111E0E16D8C
:1018000020468847304486B210E0E16D2046884784
:10181000281A85B20AE0E16D20468847301A86B260
:1018200004E0E16D20468847284485B23B463246B5
:1018300029462046BDE8F04100F041BB38B5002400
:10184000009400F001F838BD3FB581B00446089916
:1018500094F88C00002837D0BDF81000002833D051
:1018600001280FD9022902D0032906D00AE0BDF8C9
:101870000820101A401C029004E0BDF80C20101A39
:10188000401C039001F0010505B3B4F84810BDF801
:101890000800814218D8B4F84A10814214D9B4F82B
:1018A0004E30B4F84C2004A903A800F08FF90028AA
:1018B0000AD00095206BBDF81030BDF80C2085686B
:1018C000BDF808102046A84705B030BDB4F84C104C
:1018D000BDF80C008142F7D8B4F84E108142F3D91C
:1018E000B4F84A30B4F8482004A902A800F06EF910
:1018F0000028DED1E8E7000030B4024C446030BC80
:1019000000F093B9A522000838B501240094FFF730
:101910009BFF38BD10B5044694F89310002902D0FF
:101920002046FFF752FF2046BDE81040002100F09E
:1019300052B8000010B50446084B094A0949204630
:1019400000F0A4F8204600F067FC0021204600F0DB
:1019500073FC2046BDE81040FFF737BF5D26000846
:10196000F1220008F84F000870B51E46049B04469B
:101970000D46B4F84E10B4F84C0000F016FB40B120
:1019800048343346618820882A46BDE8704000F01C
:101990000CBB002070BD70B50446204600F0D2FBA1
:1019A00094F8390094F838100844C5B22068407C97
:1019B000A84204D8204600F037FC002070BD94F8FF
:1019C000930010B12046FFF700FF2946204600F0A3
:1019D00002F8012070BD10B5044684F83910206B60
:1019E000016820468847206B41682046BDE81040CA
:1019F000084710B50446A06D884209D0A16504F1DE
:101A0000740000F037FB2046BDE8104000F05AB8E3
:101A100010BD80F87010704780F86D10704700009E
:101A20000149C165704700009D1C0008002130304D
:101A3000018481844FF6FF714184C18450F83019CC
:101A40004968084770B5044604980025A565E36217
:101A5000616384F8382084F8395084F86D5084F834
:101A6000915084F88D50012184F8921084F89310DD
:101A700020630168204688472046FFF7D7FF2046AD
:101A8000FFF7CEFF84F8705070BD00007CB50546AE
:101A90000C4600931346084A0849284600F0D4FB38
:101AA00001A800F0E1FA0146054B00949DF80420DE
:101AB0002846FFF7C7FF7CBD012400083525000834
:101AC000D71F000810B5816D002918D010F9811FAB
:101AD000417390F901208273037B8138002B0ED073
:101AE000012B0DD090F97E4090F980301C448C423F
:101AF00001DD80F88E409A4201DD80F88F3010BD04
:101B000090F98330994201DA80F88E3090F9841090
:101B10008A42F4DD80F88F1010BD002B06D0012B17
:101B200007D0022B08D0104480B27047084480B21E
:101B30007047801A80B27047401A80B27047002BFD
:101B400006D0012B07D0022B08D0401A80B2704774
:101B5000104480B27047084480B27047801A80B247
:101B6000704738B504465034E08800906388A288F6
:101B700034F850192046FFF7F7FE18B3012084F817
:101B80008C00B4F84810B4F85000814201D2A4F897
:101B90004800B4F84A10B4F85200814201D9A4F8C0
:101BA0004A00B4F84C10B4F85400814201D2A4F8B1
:101BB0004C00B4F84E10B4F85600814201D9A4F894
:101BC0004E0038BD002084F88C0038BD30B5048844
:101BD0000D882544ADB2AC4205D99C4202D25D1EAF
:101BE000ADB200E014469C4201D3002030BD9542C6
:101BF00001D8002030BD944200D214469D4200D945
:101C00001D460480281B0880012030BD38B5049C87
:101C1000C58F521B92B20094C46AA04738BD38B534
:101C2000049C0094FFF7F2FF38BD2DE9F047804691
:101C30000C4615461E46404600F089FD00274FF62B
:101C4000FF79D8F8042031784046904703464B4549
:101C500002D13846BDE8F087761CA3F57F40FE38F8
:101C6000EFD02A4621464046FFF7B8FD98F870307D
:101C700033B1012B07D0022B08D0032B0BD108E086
:101C800021188CB207E029188DB204E0211A8CB219
:101C900001E0291A8DB2384487B2D2E7002070479C
:101CA00010B50C46214600F006F80122641EA24041
:101CB000801A40B210BD30B5047B05682B78E34034
:101CC0006218D2B2082A09D3C4F108046D1C056059
:101CD0002D78A5401D43EBB2083AD2B201248C40C6
:101CE000641E1C400273204630BD2DE9F8430546B2
:101CF00005F16004284600F03EF915F96B6F2046A7
:101D0000E97BFFF7CDFF8146297C2046FFF7C8FF1E
:101D10008046697C6B3D2046FFF7C2FF074694F979
:101D20000A00002878DD06EB0800404242B2237C1E
:101D30009046A0884946FFF7F0FEA080237C4246EB
:101D4000E0884946FFF7FBFEE080A18802460B468B
:101D5000104694F810C0BCF1000F09D0BCF1010F7F
:101D60000DD0BCF1020F14D0BCF1030F29D11EE03D
:101D700094F90AC063449BB2304480B221E0891BCD
:101D8000491C89B25B1C9BB294F90AC0604480B2C2
:101D900017E094F90AC0A1EB0C01491C89B25B1C45
:101DA0009BB2921B521C92B2401C80B209E0334499
:101DB0009BB294F90AC0A2EB0C02521C92B2401CD6
:101DC00080B200902846FFF7CFFD40B3002020727C
:101DD000607295F876102046FFF76DFF804695F803
:101DE00077102046FFF767FF8146002241462846CC
:101DF00000F017F801224946284600F012F80121A8
:101E00002046FFF758FF0028EFD194F90900B042AF
:101E1000DFDBA07B85F892003846BDE8F8833846C2
:101E2000FBE72DE9F74F84B081460D4609F16004C8
:101E300094F80880677AA07AA0EB0800C6B2B24690
:101E4000B54200D2AA46A088E1880191237C7AB2EB
:101E50004FFA88F193460391FFF75FFE0290237CCF
:101E60005A4603990198FFF76AFE0246069850B158
:101E7000A07B89F89200207C009053464846029946
:101E8000FFF7E2FC0BE0607B48B9E07B89F8920049
:101E9000207C0090534648460299FFF7D5FCB54296
:101EA00006D208EB05002072677207B0BDE8F08F1C
:101EB000A81BC5B24FF000087F1CFFB2BBE770B58E
:101EC00004460025A4F86410A4F8662019462046AC
:101ED00000F00BF8014619B12046FFF706FF85B266
:101EE000284670BD08440078704770B502460D461C
:101EF000906D1730FF2D13D8612D03D3B2F88810E1
:101F0000084404E0412D02D3B2F886100844417819
:101F100029B30278AA4201D1801C70BD0844F6E7BB
:101F2000B2F88A100C1826460021304600F019F845
:101F300004440221304600F014F8361DA842F3D3C1
:101F40004FF6FF72207802EA00216078084330B132
:101F5000A84201D1E01C70BDA0780444F2E7002043
:101F600070BD084401784FF6FF7202EA0121407803
:101F7000084480B2704730B5054605F16004216021
:101F80000020207315F8781F2046FFF794FEA072FA
:101F900069782046FFF78FFEE072A87EA07310B12B
:101FA0000020E07330BD0120FBE78A4209D2834262
:101FB00001D9012070479A4201D9012070470020C1
:101FC0007047834205D99A4201D901207047002009
:101FD0007047002070472DE9F041DDF818C002F08D
:101FE00007060124B440E7B20024002590F892804F
:101FF000B8F1010F00D83C4600D03D4622F0070260
:1020000007683F7C07FB02F7BAB2476B3A441144BA
:10201000BCF1000F0AD108782043684001F8010B99
:102020005B1E9BB2002BF6D1BDE8F0810A782243FB
:102030006A400A70761C06F007065B1E9BB236B13A
:102040006206140E6A06150E002BEFD1ECE7428FE4
:10205000114490F89220012A01D84FF00104F3D0E6
:102060004FF00105F0E700000821017000487047BB
:10207000B800002070B504460D4600212846FFF741
:1020800031FF207001212846FFF72CFF60700221EC
:102090002846FFF727FFA07003212846FFF722FFFD
:1020A000E07004212846FFF71DFF20710521284616
:1020B000FFF718FF607106212846FFF713FFA07194
:1020C00007212846FFF70EFFE07108212846FFF799
:1020D00009FF207209212846FFF704FF60720A21D8
:1020E0002846FFF7FFFEA0720B212846FFF7FAFEF5
:1020F000E0720C212846FFF7F5FE20730D212846DB
:10210000FFF7F0FE60730E212846FFF7EBFEA07389
:102110000F212846FFF7E6FEE07310212846FFF75F
:10212000E1FE207411212846FFF71BFF6082132176
:102130002846FFF716FFA08215212846FFF711FF5A
:10214000E08270BD2DE9F0410746002497F8386021
:1021500097F83950386890F811802A462146384659
:1021600000F00AF8641CE4B26D1CEDB2B44201D276
:102170004545F2D3BDE8F08138B503681B7C446B5C
:10218000594389B24FF6FF7505EAC1012144009118
:10219000002100F032F838BDF0B5016890F8382021
:1021A0004FF6FF7606EAC20383870B7C06EAC30379
:1021B000438790F8393006EAC304C4874D7C9F18E2
:1021C000AF4201D9EA1A92B206EAC20220F8404FA1
:1021D000224442808A8A8280C98AC180F0BDFFF78A
:1021E000DBBF0021403001818188418101888181EC
:1021F0004188C1814038FFF7B4BC1CB5049C8DF800
:1022000005108DF806208DF80430009401228468B2
:102210006B460F21A0471CBD30B484680023A44640
:1022200030BC1A460A21604730B484680023A446B3
:1022300030BC1A461021604730B484680023A4469D
:102240000A4630BC0B2160472DE9F0410446069F49
:102250000D461646204600F009F8A560E6602361A9
:1022600067612046BDE8F04100F014B80021083055
:1022700040F8081C064A026042608260C260C17673
:1022800081770161FF21017780F8201070470000FD
:102290005926000830B484680023A44630BC1A468E
:1022A000092160470846002801D00A2801D14FF6CD
:1022B000FF70704730B404690023A44630BC1A464E
:1022C0001921604713B501AA012100F001F81CBDD6
:1022D00030B404691346A4460A4630BC172160474F
:1022E00030B404690023A44630BC1A461821604764
:1022F00070B5064615461C46182919D004DC142969
:1023000012D0172904D10CE019291AD020291BD08A
:10231000002070BD21783046FFF716FA641C6D1E50
:10232000EDB2002DF6D10FE03046FFF78CF90BE04F
:102330003046FFF7BFF996F824103046FFF704FA4D
:1023400002E03046FFF7D5F9012070BD30B4C46813
:102350000023A44630BC1A461921604730B4C46833
:102360000023A4460A4630BC1621604730B4C46836
:102370000023A4460A4630BC1521604730B4C46827
:102380001346A4460A4630BC17216047F8B50546F7
:102390000C4614F8011B182923D00EDC152918D07F
:1023A000162916D0172922D1207800906A460121DB
:1023B0002846FFF7E3FF641CEBE7192911D0FE293B
:1023C00015D1227800922921284600F0A3F9641C37
:1023D000DFE722780092EE6800232846B047641CAD
:1023E000D7E70023EE681A462846B047D1E7F8BD84
:1023F00030B4C4680023A44630BC1A461821604794
:102400002DE9F0410646084614461D46DFF8B48023
:10241000A0F11402002798F80010062A4FD2DFE836
:1024200002F03203161B424511B13046FFF742FF5E
:102430003046FFF755FF00213046FFF743FF2146A6
:102440003046FFF73FFF012088F8000034E02146C6
:102450003046FFF737FF2FE059B13046FFF72AFF2C
:1024600007E02A461821304600F05AF9183CE4B239
:102470001835182CF5D82A462146304600F050F978
:1024800088F8007018E096F82410FF2902D178210E
:1024900086F82410376901462B4622463046BC4652
:1024A000BDE8F041604788F8007005E011B13046A2
:1024B000FFF700FF88F800700120BDE8F0810020E0
:1024C000FBE700001C00002070B50446002365698E
:1024D0001A4628212046A8470023E5681A461421F9
:1024E0002046A84701224B21204600F013F920681E
:1024F00029210279204600F00DF900224B212046C7
:1025000000F008F9206829210279204600F002F93C
:1025100001224B21204600F0FDF820682921427954
:102520002046BDE8704000F0F5B80160897C80F875
:102530002210704770B505460C462146284600F02B
:102540001BF808B1012070BD092C0BD00A2C01D05A
:10255000002070BD2846FFF7B7FF05492846FFF762
:1025600015FF03E003492846FFF7DFFF012070BD98
:102570002A5000082C5100082DE9F0410546144668
:102580001E460B2908D00D2912D00E2925D00F295F
:1025900032D00020BDE8F08124B12E492846FFF753
:1025A000F5FE55E02B492846491FFFF7EFFE4FE0A7
:1025B0004CB1284928460C31FFF7E8FE2868C07C5A
:1025C00085F8220044E023492846491DFFF7DEFE36
:1025D0002868807C85F822003AE02846FFF708FF4B
:1025E00081212846FFF7C2FE21462846FFF7B6FEA6
:1025F0002846FFF7ABFE2BE02846FFF7F9FE70797F
:10260000C00095F822100844C7B240212846FFF7C1
:10261000ADFE102040EA17112846FFF7A7FE07F08D
:102620000F012846FFF79AFEB07940F0B001284626
:10263000FFF794FE30793268C006010E2846FFF796
:102640009DFE641EE4B2002CF4D12846FFF77EFE06
:1026500001209FE7095000080020704710B52C4B5F
:102660004D293BD00CDC2B2918D004DC292920D0A3
:102670002A290ED114E02D291FD04C2909D120E0A0
:102680000022502937D0512938D0522939D0532926
:102690003AD0012180F82710012010BD00BFFBE7D0
:1026A00000204FF4A07100BF401C80B28842FAD3D2
:1026B000F2E70120FEF78CFFEEE70520FEF7A2FF10
:1026C000EAE72AB1012240211846FDF75BFFE3E764
:1026D000002240211846FDF755FFDDE72AB101220F
:1026E00080211846FDF74EFFD6E7002280211846CC
:1026F000FDF748FFD0E780F82720CDE780F82720B6
:10270000CAE780F82720C7E780F82720C4E7000041
:10271000000C014030B444690023A44630BC60473B
:102720002DE9F04104460F4616462046FFF7D8FD36
:1027300040212046FFF7C6FD256933463A4617215A
:102740002046A8472046BDE8F041FFF7B3BD002171
:1027500080F826107047081C3044586C8001020233
:10276000030405060708090A0B0C0D0E0F101000D4
:102770000000000000000001020304060708090031
:10278000000000010203045F0002020303020404CC
:10279000040600FF05FF05FF00E901D302B620058E
:1027A00080CD002106E9C8AC00220693CB24152376
:1027B0000AACC8A434541A2A012409B3C7A5A147F6
:1027C0004A002508ABC864D446012609ACC8C51424
:1027D000AB98022705D1CB082807F2C7A9660029C4
:1027E00008B2C7C45429002A07ABC8A46A352B080D
:1027F000ABC8C5B462022C0692C729002D058BCA4E
:102800000C2E05C9C8042F07ABC85665043008ABA9
:10281000C8554355003107ABC825590D3207ABC821
:1028200035531A3308ABC8CC9417003408ABC8240E
:102830003562013508ABC88CA817003607ABC84D08
:10284000D5023708ABC8CC5446003807ABC8ADD664
:10285000023907ABC8B5E4023A06E1C8C4003B0739
:10286000AAC765A8003C07ABC8A6BA003D069BC92D
:10287000EC013E07ABC8E4AA043F08ABC8E894618A
:10288000024006ABC82D5B4108ABC85543A90042C6
:1028900008ABC8A8B4D2024308ABC85532550044AF
:1028A00008ABC8A8642D004508ABC88CA8E2004658
:1028B00008ABC88CA862044708ABC8CDA4920048F6
:1028C00008ABC82435940A4907ABC8AC580D4A0771
:1028D000ABC896AA024B08ABC824B5920A4C07AB0A
:1028E000C8C4E6004D08ABC8A431940A4E08ABC872
:1028F000AAA124004F07ABC85556055008ABC8A87D
:10290000B462045107B3C755561D5208ABC8A8B4EA
:10291000920A5307ABC8EDBC005407ABC8ACD80251
:102920005507ABC824D7085608ABC8246BA4045776
:1029300008ABC82435860A5808ABC824D5520159BB
:1029400008ABC8245556005A07ABC8CC540E5B06DA
:10295000EAC8AC4A5C07ABC8C45C065D06AAC8A856
:102960006A5E0593CB355F058BC70C6006D2CBC47E
:10297000006107A3C82D95046208ABC84495D40232
:102980006306A3C8CD2C6408ABC8A6A59200650653
:10299000A3C855536608ABC8A6B462026708ABC7A4
:1029A000AD2417006808ABC84495AC006908ABC8F3
:1029B0006524D3006A08B3C766582E006B08ABC8FD
:1029C000C4B4920A6C07ABC8C8D6006D08A3C8A4EB
:1029D000A154006E07A3C8A864056F07A3C855AA31
:1029E000027008ABC7A8B462047108ABC72D956428
:1029F000007208A3C8A41523007307A3C88DBC00E8
:102A00007408ABC8A51573007507A3C8242B0976F5
:102A100007A3C824AB027708A3C82435540078075D
:102A2000A3C8A432157908ABC72495E4027A07A39A
:102A3000C8CC94067B08B3C7A624EB007C06E9C883
:102A40000C017D09B3C7E4A8628A007E0794CB25F8
:102A5000950000000004FFFF0000BF02050405060A
:102A6000010406152600F918FA19F904E10AAE2244
:102A700058200BD51CF587FFFF7F17002119D51CA7
:102A8000F587532316588BF417879CFB0011689E1B
:102A90000D920F2F002224D51CF58743A2884506EE
:102AA00051641045065164104506516410450651A5
:102AB00064104506F9F0FF13002343D51CF587EB9E
:102AC000838C3506596390350659638C45C6380F9B
:102AD0008CF1C018171A83AC31C81A83AC31C622E6
:102AE00063A007C478608C07C61964AC31C81A8328
:102AF000AC31061B632C32C622637C78243BD51C88
:102B0000F5875B2412689A520C91900C114488430B
:102B10000411011141560984654D6B8925464259BE
:102B20004490450431811041CA182490F240302E5F
:102B3000AD5622F56114002541D51CF587DBE41064
:102B4000720A298810A204294490500A112410E323
:102B5000100A049D4016110412582015956AA81DEC
:102B6000344821810C524820831022C820848C4490
:102B700048398598F2E136002641D51CF587EBC629
:102B800021A6541144114212212411421221631131
:102B900041186AC799861A098488420611459042ED
:102BA0000219A42042CC21E494428C3145A4F28045
:102BB000286990634AF8701B002710D51CF5875BC5
:102BC0004292487F1FFE7F06002823D51CF5877B95
:102BD0002396675C793548450A92487F9244124BA8
:102BE00024B18A241A686289448A02002925D51CE6
:102BF000F587BD210BB46215492C91481229492251
:102C00007D90440A125820058BB35E8143860F0ED7
:102C1000002A29D51CF5879F2591B6C62043981216
:102C20008628E40161DC2AD038C488208A0C920A04
:102C3000218898A1C2111F7E14002B18D51CF5877E
:102C40005F2091BEF580200F08F2805024D2F7E17A
:102C500077012C15D51CF587FFFF9D110B34CFC0D4
:102C600012499C228963012D0ED51CF587FFCD6783
:102C7000BE0FFF97002E11D51CF587FFFF2281E6BE
:102C800059907CB805002F29D51CF58783818E4883
:102C90004112491C91C411294822812412482281E1
:102CA00024124822812412482281448E0FDB0030F6
:102CB00043D51CF587FBC5A5B592092591420E3178
:102CC000C510530C29A610630A29231042C810848A
:102CD00090310621648C41081183506114428E2189
:102CE000A518628A21A618724821C80493D64AAE54
:102CF0007C783116D51CF58717C8330D2DC54820B3
:102D00002C1012E9FFBF0F0F3221D51CF587F3C637
:102D100025C55211E61043904024D2208904D25E8A
:102D200005E92249C1FC3E9C063328D51CF587F3F2
:102D3000C525C55211260953220D9276186AA8A5F9
:102D400058451A0A889C61C831C220A654331F5EB8
:102D500000342FD51CF587474624B07AC65D6D0434
:102D6000C248206C08B2C6206B0CA20621891092C2
:102D70004621E881501E08E581E048A4F7E13A00C9
:102D80003525D51CF587D3EE788744BAB8144B0D9A
:102D90009152CE3844924867C621861C624E38A7AD
:102DA000A5D5CC87073635D51CF587FBC5A5B592CB
:102DB0000905952212892352C1A8861A32A39C5272
:102DC000C8A10C39C490430C39C4904319724821EE
:102DD000A98892D64AAE7C7801003721D51CF587A8
:102DE000D3EE7871441247A4E288248E48C511A915
:102DF00038220549A42089E4C323003839D51CF5BD
:102E000087F3A629C552110591520E31E410430EE5
:102E100031041142521164298618094511421031BA
:102E2000141A86205208228520528A21C7088398C6
:102E300052CD7C783935D51CF587F3C5A5B59209F7
:102E40002591420E31E450861C62C821861C624ADC
:102E500029A70C731C6ACA0412A9382249A29054EB
:102E600082416CA5663E3C01003A16D51CF587FFF1
:102E70001A81E659907C788940F32C483EDC023B6D
:102E80001CD51CF587FF1A81E659907C7869C4022D
:102E9000CD33B04412A748E29881013C1BD51CF504
:102EA000879F0A72C0E20EBBE70A34F08206DE603A
:102EB00089648A0F0F023D1BD51CF587BFFD80205A
:102EC0000F08F280F830F880200F08F280F8F02F19
:102ED000023E19D51CF5872F073A6481E8E17B563D
:102EE00033EDB03B671E89E2C3073F25D51CF5874C
:102EF00053A529C59011E6104390400405442205CE
:102F0000092CAF8254A43E240934CF82E4C3034089
:102F100043D51CF587FBA629C59011E55085A45122
:102F200086416410350659630C23C818A2103286F6
:102F300020858C214821630842CA18A30433886085
:102F4000648C45C8288110224B3C8224A6163B1F66
:102F5000AE034138D51CF58717C21C728A05166866
:102F6000DC08C38D301A09848D31D818449141D4BE
:102F7000284331D4903BE310430E312311421221F8
:102F8000449131161164910F9701423AD51CF5878F
:102F9000CB4B35E40E21C790530A41A410440A419B
:102FA000A490430C21C7B8D3D033E4944210292411
:102FB000114212212411421221049142CA29CFB890
:102FC000C33E9C07432AD51CF587FBA6A9D4CE1186
:102FD000C614434A418490240C8124D24F92486203
:102FE00041E21443CC11E634A59AF9701E00443E28
:102FF000D51CF587CB4B35E40E21C710530C39A5F2
:1030000010440A41A490440849849044084984909B
:103010004408498490440849A310440A41A49043B9
:103020000C31C510624E432CA90F2F004522D51C30
:10303000F587CB0F84F240280F8442227DD11DEF0B
:103040009048BFF840280F84F240F8701A004616E6
:10305000D51CF587D3CF7C8644FA62431D2291FEAE
:10306000FBF00C004732D51CF587FBC525D58E1922
:10307000E55085A061480A67447A05115210210580
:103080001192082189148248218818728839C21C3B
:1030900097143B1FCE034846D51CF587CB049142BD
:1030A00010290491421029049142102904914210E0
:1030B0002904914210290F84F240280F84421029DC
:1030C00004914210290491421029049142102904CC
:1030D0009142102904914210F9701A004913D51C2D
:1030E000F587D30D758D44FAFFC71AEA3E1C074ACF
:1030F0001CD51CF587EB2C718D44FAFF5430240D40
:1031000052501145AD955CF9F006004B40D51CF5C9
:1031100087C30415421029E410431D520822842459
:10312000328822A22812CA4A0CB5C41223822C3239
:103130008822A324424822852052CA21A6187288D8
:1031400021A714820A21897C380D004C11D51CF569
:1031500087CB24D2FFFFC567BE0FB7014D4ED51CEC
:10316000F587C3630D4212212411524E21E51462EA
:103170008A21A61872C621671C42C2140821610A5E
:1031800084105104214414410819631042C6188464
:10319000101208950821891092082189109208219F
:1031A0008910920821897C380D004E4DD51CF58779
:1031B000CB0491421029E590520E29C690720A293B
:1031C000A790820829240C420A09649042C418A4DA
:1031D000104115328620850C1248216404520841A2
:1031E0008594538831851853C829859C52082285B7
:1031F0002052481A1F4E034F3BD51CF587F3A629D2
:10320000C59011E610432152082284283288228377
:1032100028328822832832882283283288228328F1
:1032200042861A8520520822863A4618C4946AE6D5
:10323000C3035029D51CF587CB2C35E40E29C69045
:10324000530A41A410440A41A410440A39A59062CB
:10325000CC33EEB04422FDFBF00E005143D51CF5FB
:1032600087F3A629C59011E610530A41A41044CA59
:1032700050641045065164104506516410450651CE
:1032800064104506516410450841A410440C3115E2
:10329000298829D50E1C92C4D4903B1F3800523E79
:1032A000D51CF587CB2C35E40E21C790530A41A4D9
:1032B00010440A41A410440A39C490628C3B0DB1F9
:1032C0004408498490440A41A410440C39C414436E
:1032D0000E31E49442102904950F97015330D51C08
:1032E000F587FBA6A9D49011C614330E41E290488D
:1032F000248906A287DE81271249223141912214B6
:1033000029039172C4310E31763E9C075416D51CA8
:10331000F587C30F08F280200F884522FDFFDF8765
:1033200017005542D51CF587CB24114212212411D8
:10333000421221241142122124114212212411424D
:10334000122124114212212411421221241142126D
:103350002124114212210495420E316698D3D26283
:10336000E7C37900563BD51CF587C3449141141936
:10337000448D421029041133D038E48C430C41C3EE
:103380008C44CA48841035C858648C450461438C09
:1033900046C268C899674112891C527C780200575E
:1033A00052D51CF587BB848D31D818A38832C62826
:1033B000838C41C834283206354619A38851C62863
:1033C0006294218C1885042346216156481062843A
:1033D000618C18411C23CC31A39C42CA29A49C4275
:1033E0000A1A66A461461A66A4614612487C380E21
:1033F000005839D51CF587C32491421031D4216679
:1034000024424822642C22C8228134E4CC3390C068
:10341000028D430D3122C822822842482284206234
:1034200028440A418410453E5C065929D51CF5877D
:10343000C344914112290491420E65C8218524425A
:103440004822642C22C8226234D4CE33AF44FAEF2F
:10345000C30B005A2ED51CF587CB0F84F240280FE2
:1034600004482281542490C411092491402A12480E
:10347000E28804923858200F08F280200F880F97B6
:10348000015B14D51CF5873B2C718944FAFFFF22A0
:103490004BDC870A005C2BD51CF587BD1189249174
:1034A000481289249148128924914812892491480C
:1034B00012891C92C8214924924422870C1F0E01B4
:1034C0005D12D51CF5872B0D7591FEFF7FA8F721A6
:1034D00003005E20D51CF5871784249140E3501B20
:1034E000813022C81A642842082266A870C287FF69
:1034F00087015F13D51CF587FFFF671F18E3813134
:103500001E181F1A00601AD51CF5873B818A29E610
:1035100090249258C112899CE690E2C3FF41006159
:103520002AD51CF5877FE1B0951A2AC2A48048A449
:10353000123BCE3C530C290491424E29C49862049C
:1035400032EFB85406F9701A006233D51CF58723A0
:1035500024D24F14D5903B4718530C754A21881438
:1035600082482188148248218814824821879862E1
:103570008831C318774648688CF2E1016321D51C75
:10358000F5877FC234A51832C2986228240C89F4CA
:103590002489E5087444412DA9663E9C076435D50D
:1035A0001CF5878324D2A78A20A81D678C388698AB
:1035B0005208228520520822852052082285205256
:1035C0000822A51C628829C688731C6AAA08F2E131
:1035D0003400652CD51CF5877FC134A5582AC21C40
:1035E00062C81988148248792094074279201412FD
:1035F000492C91A0908C30A7A5D5CC87F300661CF0
:10360000D51CF58763A629C55211051123128954CB
:103610006BA86324D2FFFBF006006736D51CF58744
:10362000BF5FC838AF3C100A21E510331031E410F9
:10363000430E2905155112534AA54562810EB9F36F
:103640000A418490440849849C61CC3B6CA10E00E3
:103650006836D51CF5872B24D26F94440242EEA025
:10366000508E29C414431D62C821861C62C821865D
:103670001C62C821861C62C821861C62C821861C67
:1036800062C8211F4E036919D51CF5875343125890
:103690002289E3838C1A16E9FF1A4BDC87E3006A60
:1036A0001FD51CF58773231658C5F181554B8BF434
:1036B000FF53C190244A414594B45672E6036B35DA
:1036C000D51CF5872324D2EF94424C31A49443486F
:1036D000416494440459241096B112C822832832BC
:1036E0004A22A42052CA21861C628A21A71482CAB7
:1036F00087CB006C12D51CF5872B896591FEFFC71F
:10370000DCF13EDC066D1DD51CF5873F4D0219A48A
:103710003C20C8036394604219F4FFFFFFFFDF877A
:10372000CB006E35D51CF587BF4D46492420E40EED
:103730000AE598424C31D421861C62C821861C625D
:10374000C821861C62C821861C62C821861C62C8EA
:1037500021861CF2E136006F30D51CF5877FC1B49D
:10376000B41832C19C528A21871492082189109280
:10377000082189109208218914728829861C134C0B
:10378000622AB9F2E105007034D51CF587BF4D44BB
:10379000510DB9738431C550A71482482188148211
:1037A0004821881482482188147288298698238C9D
:1037B00071A721228A2291DE0705007132D51CF5FE
:1037C00087BF5F0441ED3863C431C49442102904BB
:1037D0009142102904914210290491421031E410C1
:1037E000434C31469CE350534590485F06721CD5CC
:1037F0001CF587BF4E464924A4F34C0AE418234E17
:1038000081059248FF7D7805007328D51CF5877FD8
:10381000E1B095DA31E21872C62128A012CF530E1A
:1038200041138B118998814839C21C87D8421FCE19
:1038300003741DD51CF58757492471C8A9B9E32D18
:1038400012E9BF22940964AD959AF9701C00753590
:10385000D51CF587BF4D0E31E410430E31E4104303
:103860000E31E410430E31E410430E31E410430EE8
:1038700031E410430E31A59463C2390E355504F975
:10388000701B007630D51CF5873F5DD228248D4211
:103890001031038D43CE38C41044CA48A40C35C837
:1038A00058648C450461248C869C79E69548E2F83E
:1038B000F004007743D51CF587BF4C16196391318E
:1038C0008A20640C42066D0C420619A38C51C42850
:1038D000431831CA10468C428208438C428210231E
:1038E0000C638439469853863985945348418490B3
:1038F00034CCF8701C00782FD51CF587BF4D1029EB
:10390000C590430A4984104504592490769E790550
:1039100016681C6244104506518410440C31552130
:10392000887C380D007939D51CF587BF4D122104EC
:1039300091421031E41043CE40C31044CA5083106A
:10394000450651640C460261240C37C270E71558D5
:103950002089D40A84AC21CA4A0CBDF2C1007A1D68
:10396000D51CF5873FFECC07E9607915A4C1F2CAE2
:103970007B2094074279207C380D007B21D51CF5F3
:1039800087270E4B4B29F348A40F12775C8126162C
:10399000392489F48B059EA7586A28037C0ED51C10
:1039A000F5875324D2FFFFFFE7017D1FD51CF58764
:1039B000D3C725A6609124D227493CCF72E5914810
:1039C0007FB038B3D44A0C7D007E17D51CF5877FB5
:1039D000F314515628E301510641AE7CF87F0200F2
:1039E000A00BD51CF587FFFF7F1700A118D51CF58C
:1039F0008753049A6783E40334E414E91FAC17C7C0
:103A0000872700A240D51CF58737482471C8018B51
:103A10004BAA9D129029828461C818231842C608B7
:103A20008690A108198A90A1C8208A0CA2C8188C77
:103A30008841C229610C815028A8A5C58E1B72F649
:103A4000610100A32BD51CF587FBC5A5B592092400
:103A500095121489144C2C73449248174724F098FB
:103A6000605618E501418A5025A0F2E13800A429EA
:103A7000D51CF5878F8B24CE3B2DAD540649E30C26
:103A800034CE40E30C440A492594D4CE3343143158
:103A90004E50E2C3BF0900A52FD51CF587C34411C2
:103AA0004210290411431D624622842442C6228208
:103AB00030124643CE3C030973C7632412E68EC717
:103AC00048A43EBC0000A611D51CF5875324D2FFA4
:103AD000F7012791FE9F07A73AD51CF5874BA6292A
:103AE000C55211E610331031229158A281A8293510
:103AF000C4418498430C39C4906308414CA986A002
:103B0000892512240E39C3147344414DA9663EE43D
:103B100001A818D51CF587C541862AA2A4224A2AE5
:103B2000A2A841C687FFFF1500A948D51CF5875FED
:103B3000284E29864829860413082101053246505B
:103B4000618811081961881146196284498D30A96C
:103B5000112635C208848831C2105418630415C672
:103B600018020542C620829462C8694A35F3E13CD6
:103B700000AA25D51CF587F3C621A6982083854287
:103B80001A5A4AAD440849A3904446494C2D96BA66
:103B90003BDE87BF0E00AB2ED51CF587FF5A308168
:103BA0000D32541124154112192491411219441552
:103BB0005154114515515411451541D62083051313
:103BC0003E7C0800AC10D51CF587FF4BEE7891DEEB
:103BD000873F0400AD0ED51CF587FFCD67BE0FFFF4
:103BE0009700AE47D51CF5875F284E2986482946A1
:103BF00009424648810C21C61862464618621A449A
:103C00008C30441A230C91C608432032C210131979
:103C100081843186186384318618E390430822C575
:103C20000C739A52CD7C380F00AF0ED51CF587E38C
:103C30004B6D1FFEFF4700B01CD51CF587F3A62572
:103C4000A6541125114212212415519462C8950FD2
:103C5000FF1F04B120D51CF5876F91486F3D20C828
:103C600003823C201489F4FBC03E20C803823C2020
:103C70003E5C06B21ED51CF5874BC5A5B51419448C
:103C80008D32E4880492573D02096489FBF0BF0A33
:103C900000B321D51CF5874BC5A5B5D620430E77BB
:103CA0009C794712399430231142D25AC9950FFF9B
:103CB000CB00B414D51CF58789304924B0402A8E36
:103CC000293EFCFFEB00B53BD51CF5873F4D0E317F
:103CD000E410430E31E410430E31E410430E31E49E
:103CE00010430E31E410430E31E410430E31A5149D
:103CF00021C4094B3C40C4124650641012E97D6057
:103D000000B64CD51CF5874B0BB5E38C12A32C31B8
:103D1000CA12A32C31CA12A32C318C12C328314EE3
:103D200012032131941183113118118311311811AB
:103D30008311311811831131181183113118118336
:103D4000113118118311311811E3431900B711D53E
:103D50001CF587FF0D02CDB320F9F0BF0C00B8139E
:103D6000D51CF587FFFFF7C524B1B031064BAE2057
:103D700000B913D51CF5875B031677B930869CFF15
:103D80003EFC2F03BA2AD51CF587FBC521A6D620F9
:103D9000241142D230230D33D230230D33D22824C4
:103DA00011429462E8910F843BDE87BF0E00BB2E68
:103DB000D51CF587FF5230810D3216116511511651
:103DC00019649141161924155150110515515011BE
:103DD000251151D4208305133E7C0C00BC4ED51C0C
:103DE000F587BD81C2296810830609629C81C619C6
:103DF000681882861969149246196A10A206196B0E
:103E00000C124724714412472464A841482284A418
:103E1000414A1A438481C61861A021A643823243D5
:103E2000A842D040210D393EA401BD4DD51CF587D7
:103E3000BD81C2296810730809629C818621689837
:103E40009186196994A146196A10A206196B0C1281
:103E500047247144124724A2A8214E1A6108728691
:103E600010649C818619689CE99042D028049132A4
:103E7000942889A50F6100BE4FD51CF587B9F25073
:103E800019458C51861A841C43C831832C22880919
:103E9000658871C4208198240642812832462471A5
:103EA000441247247190A108196A1092C828690C1D
:103EB00083C81061A0318418680855C65065A08178
:103EC000041A727C4803BF28D51CF5874B049A67F7
:103ED00041F20127918204965741020B249142013D
:103EE00011241031E498701053AA950F2F00C03E92
:103EF000D51C3517B23C04CB141F9C30879C6281C3
:103F0000051A37C270238C460261630C3606516471
:103F10001035CA500C35E4CE38C49043CC48849058
:103F2000440851648C450459E4C36500C13FD51C65
:103F3000F5074140D35033507CB0C21C728A05163D
:103F400068DC08C38D301A09848D31D8184491413A
:103F5000D4284331D4903BE310430E312311421255
:103F600021449131161164910F9701C243D51C75FC
:103F70000A7344D3D22AA12832C80A46C030879C8B
:103F80006281051A37C270238C460261630C3606C3
:103F900051641035CA500C35E4CE38C49043CC4837
:103FA0008490440851648C450459E4C36500C342BD
:103FB000D51CB5210F8971DC2101A940CA073ACC73
:103FC00021A7586081C68D30DC08A39140D81883A2
:103FD0008D411419448D3214430DB9330E31E41060
:103FE000331221241142141963114116F97019007A
:103FF000C43FD51C751E64A8224A2AA2A4228A1A8C
:10400000647C50C494248924966739D486186D083A
:10401000B288206B90B1062189A586DA21861CCA58
:104020000C440A49A30C4506516490453E5C06C504
:1040300043D51C351AB1BC218413433831841B612C
:10404000BC12879CC5020B346E84E146186E04C214
:10405000C6186C0CA2C8206A94A1186AC89D718801
:104060002187188248198910A206218A8CB1C88735
:10407000CB00C639D51CF587F32C31D4D071A7A15C
:104080003602692310460261431036443244243319
:10409000463263104506515B6289109246218814AE
:1040A00082485162182586511F2E03C731D51CF551
:1040B00087FBC525D5CE11C614434A418490240CF4
:1040C0008124D24F92486241E21443CC11E634A5D8
:1040D0009A89629258D8188325573A00C826D51C69
:1040E000B521D1C003090DFF81501E08E58150485C
:1040F000A42FBAE31D12E9171F08E581501E081FFF
:104100001E04C926D51CB522EF30E4C807F781503C
:104110001E08E5815048A42FBAE31D12E9171F08B5
:10412000E581501E081F1E04CA2DD51CB50A9240F9
:10413000E3D02A82AC41C60A27A40742792094071B
:10414000422191BEE88E7748A45F7C209407427993
:10415000207C380D00CB2DD51C751E65A4320A2A93
:10416000A3A0324A1A65F4074279209407422191AC
:10417000BEE88E7748A45F7C2094074279207C3883
:104180000D00CC1BD51CF5099344034F1C347C1047
:104190001AEA1A89F4FF8F35D47D380E00CD18D570
:1041A0001CF51AEFB4E3C807B8A1AE9148FFFF5859
:1041B00043DD872701CE1ED51C75129240D3D22A2B
:1041C000822842C60A27A886BA4622FDFF630D75DB
:1041D0001F8E03CF1ED51C751E65A4320A2AA3A00C
:1041E000324A1A65F886BA4622FDFF630D751F8EA6
:1041F00003D03BD51CF587D36AB1D41019E7905290
:104200000E31C590430C39C410440A4164A442469F
:104210002A64A4422152082285A061C821861C621A
:10422000A8434A396418D4D052EAC303D157D51CE5
:10423000B521F088811A22E1A840CA0793205208CC
:1042400022A51C52CA21C518524E21E51452102134
:104250008584414821810C528818831422A842C6C3
:1042600010A490410229848C400A21A890720A313E
:10427000A610630A39A590530A41A410440A49E3E1
:10428000C36900D241D51C3517B2C003CB141F142B
:10429000D39462C8087388A11029041142141944E8
:1042A00091411419449141141944914114194491B4
:1042B000411421438D4210290411431D230C624AED
:1042C00035F3E101D342D51CF50761C0E28E2B50D6
:1042D0007C904C538A2123CC218642A4104408515F
:1042E000641045065164104506516410450651643A
:1042F00010450651840C350A41A410440C758C30CD
:104300008829D5CC8707D444D51C75129240E392F6
:104310002AA2A841C614CD34A51832C21C62284472
:104320000A41841045065164104506516410450643
:10433000516410450651641045C850A310440A4109
:10434000C450C708839852CD7C78D544D51CB52974
:1043500024A414C671688803C907D834A51832C2CA
:104360001C6228440A4184104506516410450651D8
:1043700064104506516410450651641045C850A3A9
:1043800010440A41C450C708839852CD7C78D64760
:10439000D51C751964A8224A2AA2A4228A1A647C10
:1043A000804D538A2123CC218642A41044085164B5
:1043B00010450651641045065164104506516410BD
:1043C000450651840C350A41A410440C758C308884
:1043D00029D5CC8707D729D51CF587DF0C731C811D
:1043E000882188909288282BB5F3CA330EB11288A1
:1043F0002AA2A0420A1A86A480C487BF0400D84D0E
:10440000D51CF587F130493262A076DA31C21C62E0
:1044100028630A31861033C220C40841062943901C
:1044200041C8181419831A839041C6206410310AB8
:1044300019448C420609C38C720A29C610530A39E2
:104440004698D321224A22537C1807D948D51CF517
:10445000097444034F1C347C92082189109208216E
:1044600089109208218910920821891092082189C7
:104470001092082189109208218910920821891030
:104480009208218910824A21871833CC6969B1F3D7
:10449000E13C00DA48D51CF51AEFB4E3880C1F1094
:1044A000920821891092082189109208218910927E
:1044B00008218910920821891092082189109208F8
:1044C00021891092082189109208218910824A219D
:1044D000871833CC6969B1F3E15100DB4CD51C7509
:1044E0001AB1BCD3922AA2A851C60C8824424822F1
:1044F000842442482284244248228424424822843C
:10450000244248228424424822842442482284248B
:10451000424822842442482284A052C821C60C73F7
:104520005A5AEC7C380F00DC4DD51C759952190590
:1045300095515019258D323E90241142122124119B
:10454000421221241142122124114212212411422B
:10455000122124114212212411421221241142124B
:104560002124114212210495420E316698D3D26261
:10457000E7C37900DD30D51C350B923CD3CE233117
:104580007C4088228324520822851CCA90430A4911
:10459000849044C858449045C468A89D675E89F4D7
:1045A000DF871700DE29D51CF587CB24D2C586DC32
:1045B0007986986208228520520822852052082296
:1045C000851C629E71A72112E97D780700DF46D520
:1045D0001CF5874BC5A5B592110591520C39C490B5
:1045E000430C39C410530C29E510711011071191B7
:1045F0000C31A610440A418590440849849044082F
:10460000498410440A11429842823224A44384F916
:10461000701E00E034D51CF5877E982396482489C7
:104620004412193E3087ADD450112605442295D846
:1046300071E6996248218814724A21C61423907940
:10464000C7A532C887D300E133D51CF587093147A8
:104650002CAF402A92193E3887ADD450112605441C
:104660002295D871E6996248218814724A21C614AD
:10467000239079C7A532C887D300E239D51CF587C6
:104680000521472CEFB8110823812C32080B457CFB
:10469000300E5BA9A1224C0A88442AB1E3CC33C571
:1046A00090421029E494428C294620F38E4B659069
:1046B0000FA701E334D51CF587C9F29018C7A121D3
:1046C0008E0AA47CA81DB6524345981410895462E2
:1046D000C799678A21852052C8298518538C40E6DE
:1046E0001D97CA201F4E03E437D51CF5873BA38CCA
:1046F0005446416514544649A38C0FEE614A355423
:10470000844901914825769C79A618520822859CF7
:10471000528831C50864DE71A90CF2E13400E53736
:10472000D51CF587FE80E609319C18C209319C89A9
:10473000E3837DD84A0D156152402452891D679E3E
:10474000298614824821A714624C310299775C2A89
:10475000837C380D00E63CD51CF5873F4F0839288F
:1047600098F2802024A0304A28840C45C850848CBC
:10477000F240200F88F1C0106590440849849044AD
:104780004821611471C4180F0C72C431A5900FA791
:1047900001E72AD51CF5877FC234A5DA31E294728D
:1047A0008621481812E94912CB11E888825A5AEC3E
:1047B0004031492C4D10C192331C00E836D51CF510
:1047C000877E9823964824894412193E30A629C52D
:1047D0005211E61043CE40A41044CA03A13C10CAB3
:1047E00003A19048628904856484392DAD663E9C9E
:1047F00007E935D51CF5878940472CAF402A122997
:104800003E38A629C55211E61043CE40A41044CA32
:1048100003A13C10CA03A1904862890485648439CD
:104820002DAD663E9C07EA3AD51CF587BE982396C7
:10483000771A6A439045065982880F88694AB154AD
:104840008439C4903310290491F240280F84F24037
:104850002824925822412119614E4BAB990FE70150
:10486000EB38D51CF5873BA38C5446416514544660
:1048700049A38C0FAE694AB1544639E44C6914928D
:104880004679209407427920141289249120818C42
:1048900030A729D5CC87F300EC1CD51CF587908870
:1048A0002456914812C70C1F14D4B048FFD758E2C1
:1048B0003E3C0900ED1BD51CF587989024124860FA
:1048C00081248E0F326A58A4FF6B2C711F9E04EE58
:1048D00020D51CF5877E984312681C62241036068A
:1048E00061A1880F026A58A4FF6B2C711F8E03EF21
:1048F0001FD51CF5873B830C5544494594544451BE
:10490000838C0F2A6A58A4FF6B2C711F8E03F03919
:10491000D51CF587C9010F094CB184D6526B0C2206
:10492000094B8AA1768C30A62AE414421221241164
:1049300042122124114212212491420E31C590636A
:1049400082494CA9663E3CF140D51CF587C5F2CEA4
:1049500010A82112500AA57C289151120908B98388
:104960004239A610530C7588218718728821871840
:104970007288218718728821871872882187187297
:104980008821877CB80D00F239D51CF587BC9023AF
:1049900056914812890C1F1CD3D262C804734A294D
:1049A000861C52482284244248228424424822847D
:1049B0002452C821A618724C3089A9E4CA8717006E
:1049C000F339D51CF5870531472C90820592193EA5
:1049D00040A6A5C59009E694520C39A49044084914
:1049E00084904408498490440849A490434C31E49D
:1049F00098601253C9950F2F00F43FD51CF587BE60
:104A000090239677DC0884914016198485223E20F5
:104A1000A6A5C59009E694520C39A490440849848F
:104A2000904408498490440849A490434C31E49848
:104A3000601253C9950F2F00F539D51CF587C5F2C3
:104A40009010C89D31CE2B1F72A6A5C59009E69483
:104A5000520C39A4904408498490440849849044F5
:104A60000849A490434C31E498601253C9950F2F24
:104A700000F63DD51CF58733A38C5446416514548C
:104A80004649A38C0FB0696931648239A514430E7D
:104A900029241142122124114212212411421229E7
:104AA000E410530C392698C45472E5C30B00F71A6E
:104AB000D51CF5871F16924422C507F799EF434E80
:104AC000481289141F7E1700F83FD51CF587DF16A2
:104AD00093ACA45662C80473CA3886901146216408
:104AE00008420819821032C6208408320821621058
:104AF0002A1042CA0883106348392698C4D052232A
:104B00009445A4F8300E00F93FD51CF5879288250E
:104B100012492291448A193E10E410430E31E410E8
:104B2000430E31E410430E31E410430E31E41043E0
:104B30000E31E410430E31E410534A39269CE35001
:104B40005345900F2F02FA3CD51CF5879698041612
:104B50004893E3834B0E31E410430E31E410430ECF
:104B600031E410430E31E410430E31E410430E31B2
:104B7000E410430E31A59463C2390E355504F9F0A3
:104B80002200FB43D51CF587BE90041668DC088420
:104B90001131D8188485123E39C490430C39C49021
:104BA000430C39C490430C39C490430C39C490432E
:104BB0000C39C490430C39C494528E09E738D4544C
:104BC00011E4C36D00FC42D51CF58733A38C544619
:104BD000416514544649A38C0F2639C490430C39BF
:104BE000C490430C39C490430C39C490430C39C46D
:104BF00090430C39C490430C39C494528E09E73861
:104C0000D45411E4C36D00FD43D51CF5879890245E
:104C100012486081248E0F2E498410440A41C490AA
:104C2000430C39030D431029430D421419449131AB
:104C30001809849130DC08C39D57608124522B10E1
:104C4000B286282B31F4CA071800FE35D51CF5872B
:104C50002324D24F14D5903B4718530C754A218812
:104C60001482482188148248218814824821879818
:104C7000628839C218771A22A22812E97D5000FFF3
:104C800048D51CF5873B830C554449459454445101
:104C9000838C0F2649A310440C39C49033D03004C0
:104CA00091421029430D421419648D311809A48DC5
:104CB00030DC08C39D576089438E489620838D5011
:104CC0005662E8950F060000000004FFFF00001286
:104CD0000205040506010406182700F81EF81EF751
:104CE00000000000030A200BF80CF887FFFFFFCF3D
:104CF000002A31F80CF8870F964928D582216D10CB
:104D0000524431828C421E28E481729C331141F45A
:104D10008820AD88B20A29A998828A2969A0F1E180
:104D20009F032B1BF80CF88777CBAC6F3D50C80363
:104D3000853C50C8038595597F1FFE49002C18F803
:104D40000CF887FFFF6B641A79E225CD2C93503263
:104D5000293A6C70002D16F80CF887FFFA03C33C53
:104D600030CC03C33C303EFCFF2D002E12F80CF873
:104D700087FFFF73831679E2250B1D1F1E2F2FF867
:104D80000C781C95CC32C9AC649945965964994508
:104D90009659269965925926996592592699952C86
:104DA000B3C8328B2CB34C62C5876700304DF80C0A
:104DB000F807DAC4D4D872CA08938A29A89872CAA4
:104DC00031A61C63C839A598444A21A1905286286F
:104DD000A410220A29838C42CA18A412A3145202D6
:104DE00029852453CA39A598538C39B5634A496635
:104DF00098E4167329960FDF033119F80CF8079C15
:104E0000480391538CB5124A13A4CCFAFFFF3E7CA1
:104E10000F00322FF80CF807DA40C59A7AA9907380
:104E20002A3452492195599B641659A489562CB2AB
:104E3000DE24B3C80786796098078679607CF8120B
:104E4000003336F80CF807DA40C55C7A2024528C1F
:104E500012A7D032CB24B344D3944B4FB925CF2CD7
:104E6000B4CC5A0AA920910A1AA7A042CE792024CC
:104E7000C7D63B1FBE07003435F80CF8079FCC4A55
:104E80009A7841F49223A138124A23A230320A239D
:104E9000A32C428A22A528524A22A6A0070A79A05A
:104EA00090070A79A0BC32EBF7E163003538F80CC3
:104EB000F807F501711E10E701711E10A7CCBAC9E1
:104EC00098532F3D109021069163524885125A66DF
:104ED0000D0545CE48C59463CC21063D10925BEB91
:104EE0009D0FDF033642F80CF807DC40C59A7AE8DC
:104EF0001092CA11A9CC32C92CC2AC971E08E80185
:104F000071D030C79C620A2AA624624A2AA5A452FC
:104F10004A2AA5A4624822A73AC6146486514EB50F
:104F2000A6A0F9F03900372DF80CF807F481611EBE
:104F300018E681611E18B2CC22CB2CB2CC32C9AC9F
:104F40006499659259C932CB24B3926556B2CCEAC2
:104F5000C337013840F80CF807DB40C59A7AC90C12
:104F6000938A29A73E540C49A514654461CB25B703
:104F700058112795525039E590444C49A594544A0C
:104F800049A594548A39C69862CE032139B6DEF910
:104F9000F039003941F80CF807DA40D5D872C91059
:104FA000838A29A7A0620A2AA624624A22A624622A
:104FB0004A2AA61C630C41E701711E102985B28C98
:104FC00020949A550AA8A4614C22C424A71A5BD045
:104FD0007CF820003A1AF80CF8873F3D6891275E6C
:104FE000B2D0F1E1DB831679E2250B1D1F1E000014
:104FF0000004FFFF00000000DF210008E32100089B
:105000001F1C00081815AF19FF1815AE19FF181549
:10501000A115C819FF1815A015C019FF1815A1155D
:10502000C019FF1815A015C819FF1815AE15D5160B
:105030008015A8163F15D316001540158D161415AA
:1050400020160015A115C815DA1612158116CF15F0
:10505000D916F115DB1640152E15A415A619FF1843
:1050600015AE15D5168015A8163F15D31600154098
:10507000158D16141520160015A115C815DA16126F
:10508000158116EF15D916A115DB1600152E15A4DE
:1050900015A619FF1815AE15D5168015A8163F15BB
:1050A000D316001540158D16141520160015A115E0
:1050B000C815DA1602158116CF15D916F115DB16AB
:1050C00040152E15A415A619FF1815AE15A415D553
:1050D000165015A8163F15D31600154015AD168BA2
:1050E00015D9162215DB16351532158116FF15A6B2
:1050F00015DA161219FF1815AE15D5168015A81653
:105100003F15D316001540158D16141520160015E1
:10511000A115C015DA1612158116CF15D916F1157D
:10512000DB1640152E15A415A619FF000001140A60
:105130006464323200127A000004289610080000DD
:10514000800040000001140A6464323200093D000E
:105150000004289610080202800040007C510008DC
:1051600000000020240000006C010008A05100088D
:1051700024000020F40A000088010008010000005B
:1051800010000000000000000024F40000000000F7
:10519000000000000000000000000000000000000F
:0400000508000131BD
:00000001FF
