:020000040800F2
:1000000020090020A1010008A91A0008AD0D000870
:10001000A51A0008AD0200084921000800000000F0
:100020000000000000000000000000004D1F00085C
:10003000B5020008000000002D1E00084F1F000838
:10004000BB010008BB010008BB010008BB010008A0
:10005000BB010008BB010008BB010008BB01000890
:10006000BB010008BB010008BB010008BB01000880
:10007000BB010008BB010008BB010008BB01000870
:10008000BB010008BB010008BB010008BB01000860
:10009000BB010008BB010008BB010008BB01000850
:1000A000BB010008BB010008BB010008BB01000840
:1000B000BB010008BB010008BB010008BB01000830
:1000C000BB010008BB010008BB010008BB01000820
:1000D000BB01000815210008BB010008BB01000896
:1000E000BB010008BB010008BB010008BB01000800
:1000F000BB010008BB010008BB010008BB010008F0
:10010000BB010008BB010008BB010008BB010008DF
:10011000BB010008BB010008BB0100080D2100085D
:10012000BB010008BB010008B1020008BB010008C8
:10013000BB010008BB010008BB010008BB010008AF
:10014000BB010008BB010008BB010008BB0100089F
:10015000BB010008BB010008B3020008BB01000896
:10016000BB010008BB010008BB010008BB0100087F
:10017000BB010008BB010008BB0100080000000033
:10018000BB010008BB010008DFF810D000F07CF8CC
:1001900000480047B9230008AFF300802009002081
:1001A0000648804706480047FEE7FEE7FEE7FEE711
:1001B000FEE7FEE7FEE7FEE7FEE7FEE70D200008AC
:1001C000890100082DE9F05F0546002092469B4614
:1001D00088460646814640241BE02846414647465D
:1001E000224600F041F853465A46C01A914110D3B6
:1001F00011461846224600F028F82D1A67EB010830
:100200004F4622460120002100F01FF817EB00099D
:100210004E41201EA4F10104DFDC484631462A4647
:100220004346BDE8F09FD2B201E000F8012B491E21
:10023000FBD270470022F6E710B513460A46044683
:100240001946FFF7F0FF204610BD202A04DB203AB4
:1002500000FA02F1002070479140C2F1200320FA19
:1002600003F3194390407047202A04DB203A21FA17
:1002700002F00021704721FA02F3D040C2F12002BF
:100280009140084319467047064C074D06E0E06868
:1002900040F0010394E8070098471034AC42F6D3CD
:1002A000FFF776FF0C3E00082C3E000800BFFEE77B
:1002B00070477047704772B600BFFEE7034800689A
:1002C00003490968C1EB0141084470472414004008
:1002D0001000002070B5044600F01AF906462546C5
:1002E000681C10B104480078054400BF00F010F904
:1002F000801BA842FAD370BD08000020F8B5024662
:100300000B460025002400200021D6E0012606FA35
:1003100001F51E6806EA0504AC4274D11E7906F0A8
:100320000306012E04D01E7906F00306022E13D117
:1003300090684F000326BE40B0434F00DE68BE40C9
:1003400030439060506801268E40B0431E79C6F35A
:1003500000168E40304350601E7906F00306032ECF
:1003600009D0D0684F000326BE40B0434F009E68BE
:10037000BE403043D0601E7906F00306022E13D132
:10038000CF0802F1200656F827004E07F70E0F2679
:10039000BE40B0434F07FF0E1E69BE403043CF083A
:1003A00002F1200646F8270010684F000326BE40E1
:1003B000B0431E7906F003064F00BE403043106084
:1003C0005E6806F44036002E76D000BF0026009608
:1003D0003C4E366846F480463A4F3E603E463668AC
:1003E00006F48046009600BF00BF374E8F0856F8CF
:1003F00027008E07370F0F26BE40B043334EB24260
:1004000002D1002624E057E0314EB24201D101264C
:100410001EE0304EB24201D1022619E02E4EB24209
:1004200001D1032614E02D4EB24201D104260FE083
:100430002B4EB24201D105260AE02A4EB24201D12A
:10044000062605E0284EB24201D1072600E0082624
:100450008F073F0FBE4030431B4E8F0846F82700E2
:10046000224E3068A0435E6806F4801606B1204331
:100470001E4E3060361D3068A0435E6806F40016DC
:1004800006B12043194E361D3060184E361F3068B5
:10049000A0435E6806F4003606B12043134E361FB3
:1004A0003060361F3068A0435E6806F4803606B1BF
:1004B00020430E4E083E3060491C1029FFF426AF41
:1004C000F8BD0000443802400838014000000240F6
:1004D0000004024000080240000C024000100240EC
:1004E0000014024000180240001C0240083C014079
:1004F00010B5426921EA020302EA010443EA044317
:10050000836110BD0AB1816101E00B048361704712
:1005100001480068704700000000002003480068A0
:100520000349097808440149086070470000002029
:100530000800002010B50D48006840F400700B4919
:1005400008600846006840F480600860084600685B
:1005500040F480700860032000F092F80F2000F053
:1005600007F800F02BF8002010BD0000003C02400E
:1005700070B504460E4800784FF47A71B1FBF0F084
:100580000C490968B1FBF0F5284600F0F5FB08B10D
:10059000012070BD102C07D200222146501E00F011
:1005A00031F80548046001E00120F2E70020F0E79F
:1005B000080000200C0000200400002008B500BF47
:1005C000002000900E48006840F480400C4908600C
:1005D0000846006800F48040009000BF00BF00BFE4
:1005E00000200090081F006840F08050091F08603C
:1005F0000846006800F08050009000BF00BF08BDB2
:10060000443802402DE9F05F80460D46164600272B
:1006100001F0B2FD074639462A46334601F007008D
:10062000C0F1070ABAF1040F02D94FF0040A01E041
:10063000C0F1070AD14600F1040ABAF1070F02D24D
:100640004FF0000A01E0A0F1030AD4464FF0010A7E
:100650000AFA09FAAAF1010A0AEA020A0AFA0CFAE3
:100660004FF0010B0BFA0CFBABF1010B0BEA030B88
:100670004AEA0B042146404601F09AFDBDE8F09F8E
:1006800000BF00F00702064B19684FF6FF03194040
:10069000044B0B4343EA0221014B196000BF704732
:1006A0000CED00E00000FA0570B504460D460CB9EB
:1006B000012070BD5848006800F00700A84209D228
:1006C00055490D700846006800F00700A84201D0A7
:1006D0000120EEE7207800F0020002281DD12078EA
:1006E00000F00400042805D14C48006840F4E050B4
:1006F0004A490860207800F00800082805D14748DA
:10070000006840F46040454908604448006820F0B3
:10071000F000A168084341490860207800F001001A
:10072000A8B36068012807D13C4808380068C0F3C6
:100730004040B8B90120BCE76068022802D0606878
:10074000032807D1354808380068C0F3406048B92D
:100750000120AEE7314808380068C0F3400008B90E
:100760000120A6E72D48006820F0030061680843D7
:100770002A490860FFF7CCFE064609E0FFF7C8FEED
:10078000801B41F28831884202D9032091E707E0BB
:100790002248006800F00C006168B0EB810FEDD1D9
:1007A0001D48006800F00700A84209D91A490D70D9
:1007B0000846006800F00700A84201D0012078E751
:1007C000207800F00400042807D11448006820F4C1
:1007D000E050E168084311490860207800F0080003
:1007E000082808D10D48006820F46040216940EADB
:1007F000C1000A49086000F019F808490968C1F306
:100800000311074A515CC840064908600648006861
:10081000FFF7AEFE00204CE7003C024008380240E3
:10082000DD2500080C000020040000202DE9F04721
:10083000002400250026A1462548006800F00C0091
:1008400020B1042805D008283AD105E0DFF88490CB
:1008500039E0DFF8849036E01D48001F006800F0A2
:100860003F041B48001F006800F4800078B11A485C
:100870001749091F0968C1F38811A0FB01700146DF
:10088000224600233846FFF79DFC05460EE011483E
:100890000F49091F0968C1F38811A0FB01700146C7
:1008A000224600233846FFF78DFC05460848001F06
:1008B0000068C0F30140401C4600B5FBF6F902E0B9
:1008C000DFF8109000BF00BF4846BDE8F087000089
:1008D000083802400024F40000127A00F8B50446FB
:1008E0000CB90120F8BD207800F00100002874D078
:1008F000F948006800F00C0004280DD0F6480068A4
:1009000000F00C00082813D1F348001F006800F421
:100910008000B0F5800F0BD1EF4808380068C0F3B5
:100920004040002859D06068002856D10120D9E7FE
:1009300000BF6068B0F5803F08D1E748083800681C
:1009400040F48030E449083908601EE06068B0F582
:10095000A02F0DD1E0480838006840F48020DE491F
:10096000083908600846006840F4803008600CE0F0
:10097000D9480838006820F48030D7490839086021
:100980000846006820F48020086000BF606890B1CD
:10099000FFF7BEFD054606E0FFF7BAFD401B6428E1
:1009A00001D903209EE7CC4808380068C0F34040D6
:1009B0000028F1D011E0FFF7ABFD054606E0FFF798
:1009C000A7FD401B642801D903208BE7C2480838E3
:1009D0000068C0F340400028F1D1207800F0020008
:1009E00002285FD1BC48006800F00C0058B1BA483A
:1009F000006800F00C0008281CD1B748001F0068F0
:100A000000F48000B0B9B44808380068C0F3400072
:100A100020B1E068012801D0012063E7AE48083822
:100A2000006820F0F800216940EAC100AA490839AD
:100A3000086037E0E06800B30120A8490860FFF7CC
:100A400067FD054606E0FFF763FD401B022801D95C
:100A5000032047E7A04808380068C0F3400000289A
:100A6000F1D09D480838006820F0F800216940EA7C
:100A7000C10099490839086014E0002097490860CE
:100A8000FFF746FD054606E0FFF742FD401B022842
:100A900001D9032026E7904808380068C0F34000D9
:100AA0000028F1D1207800F0080008282CD16069D6
:100AB000A8B101208A490860FFF72AFD054606E033
:100AC000FFF726FD401B022801D903200AE78248D0
:100AD0006C300068C0F340000028F1D014E0002022
:100AE0007F490860FFF714FD054606E0FFF710FD9B
:100AF000401B022801D90320F4E677486C300068D7
:100B0000C0F340000028F1D1207800F00400042850
:100B100070D1002770483830006800F0805090B9DC
:100B200000BF002000906C483830006840F08050D2
:100B30006949383108600846006800F0805000902C
:100B400000BF00BF01276748006800F48070B0B99B
:100B50006448006840F4807062490860FFF7D8FC80
:100B6000054606E0FFF7D4FC401B022801D903200C
:100B7000B8E65C48006800F480700028F2D000BF3E
:100B8000A068012808D154486830006840F001008E
:100B90005149683108601DE0A06805280DD14E4814
:100BA0006830006840F004004B496831086008462E
:100BB000006840F0010008600CE0474868300068B9
:100BC00020F001004449683108600846006820F0C0
:100BD0000400086000BFA068A8B1FFF799FC0546B3
:100BE00009E0FFF795FC401B41F28831884202D9A9
:100BF000032077E626E0384868300068C0F34000FC
:100C00000028EED013E0FFF783FC054608E0FFF76D
:100C10007FFC401B41F28831884201D9032061E604
:100C20002D4868300068C0F340000028EFD1012F44
:100C300007D129483830006820F0805026493831E3
:100C4000086000BFA069002845D02348006800F074
:100C50000C0008285DD0A069022845D100201F495A
:100C60000866FFF755FC054606E0FFF751FC401B00
:100C7000022801D9032035E6174808380068C0F378
:100C800040600028F1D1D4E907010843616A40EAD5
:100C900081110122A06AC2EB500041EA00412C20E0
:100CA000005D41EA00600C49091F086001200B4902
:100CB0000866FFF72DFC054606E0FFF729FC401B00
:100CC000022801D903200DE6034808380068C0F364
:100CD00040600028F1D049E0083802400000474257
:100CE000800E474200700040002021490866FFF74F
:100CF0000FFC054606E0FFF70BFC401B022801D95C
:100D00000320EFE51B480068C0F340600028F2D1E3
:100D10002CE0A069012800D1E4E51648001D066812
:100D2000A069012820D006F48001E06981421BD12E
:100D300006F03F01206A814216D147F6C07030406C
:100D4000616AB0EB811F0FD106F440310122A06A25
:100D5000C2EB5000B1EB004F06D106F070612C20C1
:100D6000005DB1EB006F01D00120BBE50020B9E5CB
:100D7000000047420038024070B504462546681E10
:100D8000B0F1807F01D301200FE0681E4FF0E02119
:100D900048610F214FF0FF3001F00AFA00204FF0B8
:100DA000E021886107200861002070BD00BFFEE7D8
:100DB000002106E0142100BF0A1EA1F10103D9B2EF
:100DC000FAD1021EA0F10103D8B2F3D170472DE988
:100DD000F04107460C4615461E46384600F052F8CC
:100DE000002040EA4400C1B2384600F023F83846FB
:100DF00000F080F828B1384600F060F80120BDE826
:100E0000F0812946384600F015F8384600F072F8AF
:100E10003146384600F00EF8384600F06BF820B145
:100E2000384600F04BF80120E9E7384600F046F874
:100E30000020E4E770B506460C46304601F0A6FBFC
:100E40000021304601F061FB002518E0E109304641
:100E500001F06DFB6006040E0120FFF7A9FF0121E0
:100E6000304601F052FB0120FFF7A2FF002130467F
:100E700001F04BFB0120FFF79BFF681CC5B2082D5A
:100E8000E4DB70BD10B50446204601F07FFB012174
:100E9000204601F04CFB0121204601F036FB0120E9
:100EA000FFF786FF0021204601F041FB0120FFF7FC
:100EB0007FFF0021204601F028FB10BD10B504463D
:100EC000204601F063FB0021204601F01EFB0021BB
:100ED000204601F02CFB0120FFF76AFF012120468C
:100EE00001F013FB0120FFF763FF0121204601F011
:100EF0001EFB10BD70B505460024284601F033FBEB
:100F00000121284601F013FB0120FFF751FF0121C9
:100F1000284601F0FAFA0120FFF74AFF08E0601CBA
:100F2000C4B2FA2C04DD2846FFF7C8FF012070BDCB
:100F3000284601F00EFB0028F1D10021284601F0DF
:100F4000E4FA0020F3E7000008B505490968014309
:100F5000034A1160114609680140009100BF08BDB5
:100F60003038024008B5054909680143034A116059
:100F7000114609680140009100BF08BD4438024095
:100F8000054A525C0244526922F00402024B5B5C47
:100F900003445A6170470000B2250008044A525CBD
:100FA000825822F00102024B5B5CC2507047000085
:100FB000F5250008044A525C825842F00102024BB7
:100FC0005B5CC25070470000F525000802460348EC
:100FD000405C1044406880B270470000F52500086E
:100FE00002460348405C105800F0010070470000C2
:100FF000F525000810B5054B5B5CC35823F0606312
:101000001343024C645C035110BD0000B22500087C
:1010100010B5054B5B5CC35823F400231343024C0B
:10102000645C035110BD0000F525000810B5064BA7
:101030005B5C03445B686FF30F031343024C645C17
:101040000444636010BD0000F525000810B5054B91
:101050005B5CC35823F0C0031343024C645C035130
:1010600010BD0000B2250008024B5B5C0344DA604F
:1010700070470000F525000810B5054B5B5CC358B0
:1010800023F480631343024C645C035110BD0000E1
:10109000B225000810B5054B5B5CC35823F4C04370
:1010A0001343024C645C035110BD0000B2250008DC
:1010B00010B5054B5B5CC35823F490731343024C8B
:1010C000645C035110BD0000B2250008024B5B5C5C
:1010D00003449A6070470000F525000810B5054BE1
:1010E0005B5CC35823F400731343024C645C0351EC
:1010F00010BD0000B225000810B5054B5B5CC3585D
:1011000023F4C0531343024C645C035110BD000030
:10111000B225000810B5054B5B5CC35823F440337F
:101120001343024C645C035110BD0000B22500085B
:10113000F0B502460B4600240021186890FAA0F092
:10114000B0FA80F48AE00125A540186800EA05019C
:1011500000297DD05868012802D0586802281CD187
:101160009868956891FAA1F6B6FA86F67700032694
:10117000BE40B54391FAA1F6B6FA86F6760000FABB
:1011800006F63543956000BFD86855688D4301FB6E
:1011900000F63543556000BF00BF1869D56891FA65
:1011A000A1F6B6FA86F677000326BE40B54391FA5B
:1011B000A1F6B6FA86F6760000FA06F63543D56053
:1011C00000BF5868022831D191FAA1F0B0FA80F03E
:1011D000082814D25869156A91FAA1F6B6FA86F66B
:1011E000B7000F26BE40B54391FAA1F6B6FA86F6CF
:1011F000B60000FA06F63543156200BF16E05869DE
:10120000556A0E0A96FAA6F6B6FA86F6B7000F26C3
:10121000BE40B5430E0A96FAA6F6B6FA86F6B600B2
:1012200000FA06F63543556200BF00BF58681568DE
:1012300091FAA1F6B6FA86F677000326BE40B543CA
:1012400091FAA1F6B6FA86F6760000FA06F600E004
:1012500003E03543156000BF00BF641C1868E04020
:1012600000287FF470AFF0BD10B5044600F014FE06
:101270002060206800F0DCFD6060606800F0E8FD40
:10128000A060606800F0F6FDE06010BD02480068F4
:10129000C0F38810704700000438024030B50246A1
:1012A000012300BF1068C0F3801038BBD1E90004EF
:1012B00020438C682043CC6820430C6920434C6950
:1012C00020438C692043CC6920430C6A2043146876
:1012D0004FF6BF75AC4320431060506820F0040007
:1012E0004C6940EA14405060086AB0F5005F04D1D0
:1012F000486A84B2146100BF00BF0023D06920F4A3
:101300000060D061184630BD10B5024613682C4805
:1013100082420ED0B2F1804F0BD02A48824208D0D0
:101320002948824205D02948824202D02848824278
:1013300004D123F070004C6840EA04032048824244
:1013400020D0B2F1804F1DD01E4882421AD01E48D4
:10135000824217D01D48824214D01D48824211D0CB
:101360001C4882420ED01C4882420BD01B4882424D
:1013700008D01B48824205D01A48824202D01A483F
:10138000824204D123F44070CC6840EA0403136025
:101390008868D06200BF0888906200BF0848824217
:1013A00002D00B48824203D10869106300BF00BF1E
:1013B00000BF506940F00100506100BF002010BD27
:1013C000000001400004004000080040000C004004
:1013D0000004014000400140004401400048014039
:1013E00000180040001C00400020004008B50168C3
:1013F000009100BF4168009100BF08BD2DE9FF4189
:1014000004460D4601270026204600F059F8002822
:1014100045D1E9686868084329690843A969084310
:10142000E16849F20C6291430843E060A8682169D1
:1014300021F440510143216100BF6869616921F4D1
:1014400040710143616100BF6846FFF70DFF164818
:10145000844201D1039E17E01448844201D1029EC8
:1014600012E01348844201D1029E0DE011488442EB
:1014700001D1039E08E01048844201D1029E03E09E
:101480000E48844200D1029E4EB1286838B1002730
:10149000314620462B68AA6900F017F800BF38468D
:1014A00004B0BDE8F081000000100140004400409D
:1014B0000048004000140140004C00400050004033
:1014C0000146C868C0F3403070472DE9FC5F06460E
:1014D0000C4691461D46B9F5004F68D10220A0FB8D
:1014E000057003461920A4FB00A001463A46504669
:1014F000FEF768FE6421B0FBF1F04FEA001A02200B
:10150000A0FB05710B461920A4FB00B13A465846D2
:10151000FEF758FE83460220A0FB05700346192003
:10152000A4FB00013A46CDE90001FEF74BFE642121
:10153000B0FBF1F000EBC00101EB0010ABEB800061
:10154000322101EBC0006421B0FBF1F000F0F800A3
:101550000AEB400A0220A0FB057003461920A4FBF9
:1015600000B13A465846FEF72DFE83460220A0FB06
:10157000057003461920A4FB00013A46CDE900019D
:10158000FEF720FE6421B0FBF1F000EBC00101EB9F
:101590000010ABEB8000322101EBC0006421B0FBF6
:1015A000F1F000F00700504480B2B06067E0042022
:1015B000A0FB057003461920A4FB00A001463A4693
:1015C0005046FEF7FFFD82460420A0FB057119205E
:1015D000A4FB00B084463A460B4658466146FEF7E7
:1015E000F1FD6421B0FBF1F000EBC00101EB001054
:1015F000AAEB8000322101EB00106421B0FBF1F076
:1016000000F0F00A0420A0FB057003461920A4FB9B
:1016100000B001463A465846FEF7D4FD6421B0FBBF
:10162000F1F00AEB001A0420A0FB05700346192014
:10163000A4FB00B13A465846FEF7C4FD8346042099
:10164000A0FB057003461920A4FB00013A46CDE932
:101650000001FEF7B7FD6421B0FBF1F000EBC00123
:1016600001EB0010ABEB8000322101EB0010642194
:10167000B0FBF1F000F00F00504480B2B060BDE864
:10168000FC9F70B54FF48000FFF75EFC00F06CFD2E
:1016900005460022114600F009FA044621463A2088
:1016A00000F072FD3A2000F051FD00F05DFD0546AE
:1016B0000022114600F0FAF904462146462000F0C7
:1016C00063FD462000F042FD70BD000000B587B00C
:1016D000142102A8FEF7AEFD00BF0020019047488C
:1016E000006840F02000454908600846006800F0A6
:1016F0002000019000BF00BF00BF002001900846FD
:10170000006840F0800008600846006800F0800033
:10171000019000BF00BF00BF002001900846006894
:1017200040F0010008600846006800F001000190E8
:1017300000BF00BF00BF002001900846006840F0D5
:10174000400008600846006800F04000019000BFBB
:1017500000BF00BF002001900846006840F0020072
:1017600008600846006800F00200019000BF00BF5A
:1017700001224FF4C0612248FEF7C4FE002240213E
:101780002048FEF7BFFE012280211E48FEF7BAFE68
:1017900001224FF440711C48FEF7B4FE4FF4C060C4
:1017A00002900120039004900220059002A91448A1
:1017B000FEF7A4FDC02002900120039004900220B7
:1017C000059002A90F48FEF799FD4FF48070029032
:1017D000002003900120049002A90A48FEF78EFD24
:1017E0004FF4407002900120039004900220059075
:1017F00002A90548FEF782FD07B000BD303802405F
:1018000000140240001802400004024000B591B0EC
:10181000282107A8FEF70EFD182101A8FEF70AFDF2
:101820004FF48050FFF79EFB0120FFF78DFBE02077
:101830000190022002900320039000200490059064
:101840000520069001A91248FFF772FC00200790BE
:101850004FF482700890002009900A9001200B90AC
:1018600040020C9038200D9000200E900F900A201E
:10187000109007A90748FFF711FD002005494968A6
:1018800021F010010143034A516000BF11B000BDB7
:10189000000002400030014030B587B0142102A89A
:1018A000FEF7C8FC20202049096801431E4A116048
:1018B000114609680140019100BF00BF00F054FCCF
:1018C00005460022114600F0F1F804462146372073
:1018D00000F05AFC372000F039FC5320ADF8080026
:1018E000002003904FF6FF70049002A90F48FFF705
:1018F0000BFD00BF0D48006820F080000B49086018
:1019000000BF0020496821F070010143074A51607F
:1019100000BF00BF1046806820F08000114688603C
:1019200000BF07B030BD0000403802400014004046
:1019300030B58DB01C2106A8FEF77CFC1821684646
:10194000FEF778FC1020FFF70DFB0120FFF7FCFAF3
:101950004FF4C0600090022001900320029000200C
:10196000039004900720059069464B48FFF7E0FB81
:101970004FF0006202214948FFF73CFB00220221A0
:101980004648FFF763FB4FF4003202214348FFF75C
:10199000C1FB4FF4807202214048FFF789FB00220F
:1019A00002213E48FFF79AFB4FF4806202213B4838
:1019B000FFF762FB002202213848FFF79DFB00225F
:1019C00002213648FFF766FB02213448FFF7D8FAB8
:1019D0004FF0006207213148FFF70CFB402207213E
:1019E0002E48FFF733FB4FF4803207212B48FFF7D7
:1019F00091FB002207212948FFF75AFB002207210B
:101A00002648FFF76BFB4FF4806207212348FFF75E
:101A100033FB002207212148FFF76EFB002207213C
:101A20001E48FFF737FB07211C48FFF7A9FA00F013
:101A30009BFB05460022114600F038F8044621467B
:101A4000252000F0A1FB252000F080FB4FF4E130C1
:101A5000069000200790089009900C200A90002022
:101A60000B900C9006A90E48FFF7C8FC00BF0C486D
:101A7000006920F490400A4908610846406920F056
:101A80002A00486100BF00BF0846C06840F400500B
:101A9000C86000BF0DB030BD0000024000640240CD
:101AA0000010014000BFFEE700BFFEE7F0B50346AF
:101AB0000C4603F00701C1F10700042801D90420F6
:101AC00001E0C1F107000646081D072801D20020E9
:101AD00000E0C81E05460120B040401E2040A8403E
:101AE0000127AF407F1E17403843F0BD70B500247A
:101AF0000CE0002506E00020074901EBC501085570
:101B0000681CC5B2802DF6DB601CC4B2082CF0DB6B
:101B100000F0A0F870BD000020010020F0B51446D0
:101B200000267F2801DC3F2900DDF0BD0B46CF17E2
:101B300001EB5777FF10C7F10707FAB2CF1701EB98
:101B40005777FF10A1EBC707FDB2C5F107070123C7
:101B5000BB40DEB24CB10A4B03EBC0039B5C33438A
:101B6000074F07EBC007BB5408E0054B03EBC0036E
:101B70009B5CB343024F07EBC007BB5400BFD4E7E5
:101B80002001002010B50021AE2000F03FF9002117
:101B9000D52000F03BF90021502000F037F900215A
:101BA000A82000F033F900213F2000F02FF9002198
:101BB000D32000F02BF90021084600F027F900217E
:101BC000402000F023F900218D2000F01FF90021B2
:101BD000142000F01BF90021202000F017F900214B
:101BE000022000F013F90021A12000F00FF90021DC
:101BF000C02000F00BF90021DA2000F007F90021E5
:101C0000122000F003F90021812000F0FFF80021EC
:101C1000EF2000F0FBF80021D92000F0F7F80021B8
:101C2000F12000F0F3F80021DB2000F0EFF80021B4
:101C3000302000F0EBF80021A42000F0E7F80021AC
:101C4000A62000F0E3F80021AF2000F0DFF8FFF756
:101C50004DFF10BD70B500241CE004F1B001C8B206
:101C6000002100F0D3F80021084600F0CFF8002151
:101C7000102000F0CBF8002508E0084901EBC50171
:101C8000085D012100F0C2F8681CC5B2802DF4DBAC
:101C9000601CC4B2082CE0DB70BD000020010020F5
:101CA0002DE9F84F80460F4616461C46BA46204698
:101CB000E31704EB5373DB1021464FEAE47C04EB9B
:101CC0005C7C4FEAEC0CA4EBCC0CBCF1000F02D016
:101CD0004FF0010C01E04FF0000C6344224604EB8E
:101CE000D27C4FEA6C0C03FB0CF303F0FF0BA6F164
:101CF0002000C6B200254EE00C2C07D106EB4600B2
:101D0000274901EB8000405D009013E0102C05D1C5
:101D1000244800EB0610405D00900BE0182C07D122
:101D200006EBC600204901EB8000405D009001E019
:101D3000BDE8F88F4FF0000927E0009800F0800020
:101D400028B1394640460A9AFFF7E8FE09E00A98AA
:101D500008B9012000E00020024639464046FFF75E
:101D6000DDFE00984006000E0090781CC7B2A7EB7D
:101D70000A00A04205D1574608F1010000F0FF0813
:101D800006E009F1010000F0FF09B9F1080FD4DB0A
:101D900000BF681CC5B25D45AEDB00BFC8E70000F0
:101DA00020260008942A000884300008F8B506466A
:101DB0000F4615461C4621E004EBD4714910C1F1D1
:101DC0008001B14202DA00263819C7B2C4F14000DE
:101DD000B84204DA002006460746FFF787FE0120D6
:101DE00000902A78234639463046FFF759FF2046AF
:101DF00004EBD07106EB6101CEB26D1C28787E2811
:101E000002DC28782028D7DAF8BD000070B5054636
:101E10000E460EB1402400E000242B4622463C2111
:101E20000148FEF7D4FF70BD580000207047000045
:101E3000014600BF0448006800F0F0000009034AB2
:101E4000125C21FA02F0704708380240DD250008D4
:101E5000014600BF0548006800F4E050044A02EB68
:101E60009020027821FA02F0704700000838024002
:101E7000ED250008014600BF0548006800F46040F9
:101E8000044A02EB5030027821FA02F07047000059
:101E900008380240ED25000810B5002400BF0C48AA
:101EA000006800F00C0020B1042804D0082809D1F3
:101EB00003E0084C08E0084C06E0082000F00EF8AB
:101EC000044601E0034C00BF00BF204610BD0000E7
:101ED000083802400024F40000127A002DE9F04195
:101EE000044600250026002700BF1548006800F4BE
:101EF000800006461EB1B6F5800F04D101E0114DF9
:101F000003E0114D01E00F4D00BF00BF082C14D1BC
:101F100000BF0B48006800F03F00B5FBF0F8FFF78A
:101F2000B5F908FB00F80648006800F440300121CC
:101F300001EB10404000B8FBF0F73846BDE8F081F7
:101F4000043802400024F40000127A00704710B5F3
:101F5000FEF7E4FA10BD000000B593B0302107A8E9
:101F6000FEF768F9142102A8FEF764F900BF00200B
:101F700001902448006840F08050224908600846DB
:101F8000006800F08050019000BF00BF00BF00203B
:101F900001901D48006840F480401B4908600846D5
:101FA000006800F48040019000BF00BF012007904E
:101FB0000004089002200D9041050E9104210F911C
:101FC000A8211091022111910421129107A8FEF776
:101FD00085FC08B1FEF76FF90F20029002200390F4
:101FE000002004904FF4A05005904FF480500690CC
:101FF000052102A8FEF758FB08B1FEF75CF913B003
:1020000000BD0000403802400070004003480068F6
:1020100040F47000014908607047000088ED00E05E
:102020000EB5012000F004F9284B20222849A1F127
:10203000200000F019F9092008218A014B01CDE99F
:1020400000210290234A1146234800F0D4F8FFF7FC
:1020500099FDFFF74BFD00212E20FFF7D7FE002151
:102060002620FFF7D3FE00210846FFF7CFFE002110
:102070000846FFF7CBFE00210720FFF7C7FE00212F
:102080000720FFF7C3FE00210846FFF7BFFE00212F
:10209000FF20FFF7BBFE182310A214211120FFF729
:1020A00085FEFFF7D7FD4FF47A7000F06BF9FFF76C
:1020B0001DFD18230BA214210A20FFF777FEFFF75E
:1020C000C9FD00212F20FFF7A1FE0EBD0925000844
:1020D00038000020000402405800002057656C635F
:1020E0006F6D6500536E65656B32303232000000F3
:1020F00010B54FF400710448FEF7FAF94FF49670EA
:1021000000F040F910BD00000014024010B500F0CE
:1021100005F810BD10B500F063F910BD00BF084808
:10212000006900F0010050B100BF6FF001000449E8
:10213000086100BF03480068401C024908607047FE
:10214000001400401000002000BFFEE7002809DB5B
:1021500000F01F02012191404209920002F1E022A9
:10216000C2F800117047000002480068C0F3022066
:10217000704700000CED00E002480068C0F3022048
:10218000704700000CED00E010B5002804DB0A07E2
:10219000130E054A135406E00A07140E034A00F012
:1021A0000F031B1FD45410BD00E400E018ED00E045
:1021B00010B5002804DB0A07130E054A135406E085
:1021C0000A07140E034A00F00F031B1FD45410BD5E
:1021D00000E400E018ED00E002E008C8121F08C1AA
:1021E000002AFAD170477047002001E001C1121F98
:1021F000002AFBD170472DE9F04704460D461646EC
:102200001F46DDE9099ADDF8208025606660A76039
:10221000C4F80C80C4F81090C4F814A00121204622
:1022200000F073F90121204600F081F9BDE8F08744
:102230000B49087000BF0B49C96841F00101094A08
:10224000D16000BF00BF6FF00101116100BF00BF8E
:102250001146096841F00101116000BF704700009C
:1022600014000020001400402DE9F04105460C4602
:1022700016461F463F48068245618461C7613E4A53
:1022800002213E48FEF722FF2A4602213B48FEF784
:10229000EBFE3A4802213A4A525C02441269384B3A
:1022A0005B5C03441C6100BF3246FEF7BFFE33484F
:1022B0000221334A525C825842F48022304B5B5CEC
:1022C000C25000BFFEF76AFE02212C48FEF772FEE4
:1022D000294A07212948FEF7F9FE07212748FEF77A
:1022E0005DFE2548001F00BF00BF00BF00F11402C3
:1022F00052E8002F42F0400100F1140242E80013BE
:10230000002BF3D100BF00BF1B48001F00BF00BF60
:1023100000BF00F1140252E8002F42F0800100F1EA
:10232000140242E80013002BF3D100BF00BF124893
:10233000001F00BF00BF00BF00F10C0252E8002FD9
:1023400042F0100100F10C0242E80013002BF3D11F
:1023500000BF00BF0848001FFFF748F800BF06484D
:10236000001FC06840F400500349091FC86000BF47
:10237000BDE8F081A000002004100140006402408C
:10238000F525000810B504460A48007868B1FDF745
:1023900095FF04EB4401C1EBC41100EBC10200BF87
:1023A000FDF78CFF9042FBD902E02046FDF792FF3B
:1023B00010BD000014000020FEF7BCF8FFF7CCFDB4
:1023C000FFF784F9FFF75DF9FFF766FAFFF7B0FA58
:1023D000FFF71CFAFFF724FE01E0FFF789FEFCE798
:1023E00010B500BF43480068C0F3401030B100BFD3
:1023F0006FF020003F49086000BF7AE000BF3D4811
:102400000068C0F30010002873D03A48FEF7EEFFD2
:1024100039480221394A525C825802F400229ABBA0
:10242000FEF7BCFD03E002213348FEF7B7FD0221B1
:102430003148FEF7D5FD0028F5D100BF4FF400105C
:102440002D49886000BF00BF4010886000BF421067
:1024500002212948FEF7DCFD02212748FEF7B6FDE0
:102460002749098A081A2749088002212248FEF7CD
:10247000A1FD2348C06900283BD021494869CA69A9
:1024800020490988904734E0FFE702211A48FEF707
:1024900085FD03E002211848FEF780FD0221164861
:1024A000FEF79EFD0028F5D100BF4FF40010124941
:1024B000886000BF00BF4010886000BF002202217A
:1024C0000D48FEF7A5FD02210B48FEF77FFD0C49E4
:1024D000098A081A0B49088002210748FEF76AFD9D
:1024E0000748C06928B106498869CA690549098849
:1024F000904710BD0010014000640240F52500081F
:10250000A000002016000020704770B504460D465C
:1025100035B1228991B201222068FDF7F3FF05E071
:10252000228991B200222068FDF7ECFF70BD70B5E2
:1025300004460D4635B1A28991B201226068FDF7CB
:10254000E1FF05E0A28991B200226068FDF7DAFFA1
:1025500070BD01464A681269CB681A400AB1012071
:1025600000E00020704741680968027D53000322A3
:102570009A4091434268116041680968027D5300A6
:1025800000229A401143426811607047416809680F
:10259000027D530003229A409143426811604168D2
:1025A0000968027D530001229A401143426811607C
:1025B0007047102840587088A0B80000000004043C
:1025C00004000008000000080000080000000800E7
:1025D000020406080A0C00010203040506000000BC
:1025E00000000000000102030406070809000000C3
:1025F0000001020304102840587088A0B8000000B1
:1026000000040404000008000000080000080000A6
:10261000000800020406080A0C0001020304050673
:1026200000000000000000000000000000000000AA
:102630003F4000000000000000003000400030007B
:102640004000000009000BC03D000BC03D00090028
:1026500018C024407FE0224031800000180024C0D0
:102660001B000D803240018003801C4027401C80ED
:102670000740004010006000000000000000000063
:102680000000000000001F8020404020000040208B
:1026900020401F8000000000090006001F80060087
:1026A00009000000040004003F8004000400000052
:1026B00000100060000000000000000004000400A2
:1026C00004000400040000000000004000000000BE
:1026D00000000000002001C006003800400000009B
:1026E0001F802040204020401F800000000010403C
:1026F0003FC000400000000018C02140224024409C
:102700001840000010802040244024401B8000001E
:1027100002000D0011003FC0014000003C80244039
:1027200024402440238000001F8024402440344063
:10273000038000003000200027C038002000000087
:102740001B802440244024401B8000001C0022C029
:10275000224022401F8000000000000008400000CE
:102760000000000000000000046000000000000005
:10277000000004000A001100208040400900090008
:1027800009000900090000000000404020801100FD
:102790000A00040018002000234024001800000054
:1027A0001F802040274029401F400000004007C0F4
:1027B00039000F0001C0004020403FC024402440A9
:1027C0001B8000001F8020402040204030800000FF
:1027D00020403FC0204020401F80000020403FC0DC
:1027E00024402E4030C0000020403FC024402E0036
:1027F000300000000F001080204022403380020093
:1028000020403FC0040004003FC020402040204042
:102810003FC02040204000000060202020203FC01A
:102820002000200020403FC024400B0030C020404A
:1028300020403FC020400040004000C03FC03C005E
:1028400003C03C003FC0000020403FC00C402300BC
:102850003FC020001F802040204020401F800000FB
:1028600020403FC024402400180000001F80214069
:10287000214020E01FA0000020403FC0244026004F
:1028800019C0004018C0244024402240318000007C
:10289000300020403FC020403000000020003F803A
:1028A000004000403F80200020003E0001C00700A3
:1028B00038002000380007C03C0007C03800000086
:1028C000204039C0060039C02040000020003840B8
:1028D00007C0384020000000304021C0264038406A
:1028E00020C00000000000007FE0402040200000E9
:1028F000000070000C000380004000000000402039
:1029000040207FE000000000000020004000200088
:102910000000000000100010001000100010001057
:1029200000000000400000000000000000000280E5
:102930000540054003C0004020003FC00440044063
:1029400003800000000003800440044006400000B3
:1029500000000380044024403FC00040000003808A
:102960000540054003400000000004401FC0244013
:1029700024402000000002E00550055006500420CD
:1029800020403FC00440040003C000400000044059
:1029900027C000400000000000100010041027E0D5
:1029A0000000000020403FC00140070004C0044078
:1029B000204020403FC000400040000007C004000D
:1029C00007C0040003C00000044007C00440040026
:1029D00003C0004000000380044004400380000066
:1029E000041007F00450044003800000000003803E
:1029F0000440045007F00010044007C002400400E7
:102A000004000000000006400540054004C000002E
:102A1000000004001F800440004000000400078004
:102A20000040044007C000400400070004C00180CB
:102A300006000400060001C0070001C006000000F7
:102A4000044006C0010006C0044000000410071046
:102A500004E00180060004000000044005C00640B8
:102A6000044000000000000004007BE04020000063
:102A7000000000000000FFF0000000000000402007
:102A80007BE00400000000004000800040002000C7
:102A900020004000000000000000000000000000D6
:102AA000000000000000000000001FCC000C00002F
:102AB0000000000000000800300060000800300046
:102AC00060000000022003FC1E20022003FC1E20E8
:102AD0000220000000000E1811043FFF10840C7843
:102AE000000000000F0010840F3800C00778188421
:102AF0000078000000780F8410C411240E9800E4C0
:102B00000084000808006800700000000000000059
:102B10000000000000000000000007E0181820047A
:102B200040020000000040022004181807E00000E6
:102B3000000000000240024001800FF001800240CE
:102B4000024000000080008000800FF800800080BC
:102B5000008000000001000D000E000000000000D9
:102B600000000000000000800080008000800080E5
:102B7000008000800000000C000C0000000000003D
:102B80000000000000000006001800600180060040
:102B900018002000000007F00808100410040808BE
:102BA00007F000000000080408041FFC00040004F3
:102BB0000000000000000E0C1014102410441184BA
:102BC0000E0C000000000C181004110411041288EF
:102BD0000C700000000000E00320042408241FFC07
:102BE0000024000000001F981084110411041088B4
:102BF00010700000000007F0088811041104188804
:102C00000070000000001C00100010FC13001C00ED
:102C10001000000000000E3811441084108411448C
:102C20000E38000000000700088C1044104408888B
:102C300007F00000000000000000030C030C00007F
:102C4000000000000000000000010106000000007C
:102C5000000000000000008001400220041008086D
:102C60001004000002200220022002200220022084
:102C70000220000000001004080804100220014097
:102C80000080000000000E001200100C106C10807C
:102C90000F00000003E00C1813E4142417C40828E4
:102CA00007D000000004003C03C41C40074000E4BF
:102CB000001C000410041FFC1104110411040E88F0
:102CC0000070000003E00C18100410041004100839
:102CD0001C10000010041FFC10041004100408084D
:102CE00007F0000010041FFC1104110417C41004A5
:102CF0000818000010041FFC1104110017C0100078
:102D00000800000003E00C181004100410441C78A4
:102D10000040000010041FFC10840080008010841C
:102D20001FFC10040000100410041FFC1004100409
:102D30000000000000030001100110011FFE100040
:102D40001000000010041FFC110403801464181C00
:102D50001004000010041FFC100400040004000410
:102D6000000C000010041FFC1F0000FC1F001FFCD3
:102D70001004000010041FFC0C04030000E01018F5
:102D80001FFC100007F008081004100410040808C5
:102D900007F0000010041FFC1084108010801080C9
:102DA0000F00000007F0081810241024101C080A57
:102DB00007F2000010041FFC1104110011C01130B3
:102DC0000E0C000400000E1C11041084108410442A
:102DD0001C3800001800100010041FFC1004100024
:102DE0001800000010001FF8100400040004100474
:102DF0001FF8100010001E0011E0001C007013806E
:102E00001C0010001FC0103C00E01F0000E0103C40
:102E10001FC000001004180C163401C001C0163485
:102E2000180C100410001C00130400FC13041C00F8
:102E3000100000000804101C1064108413041C040B
:102E4000101800000000000000007FFE4002400259
:102E500040020000000030000C0003800060001CF5
:102E60000003000000004002400240027FFE00001C
:102E70000000000000000000200040004000400072
:102E8000200000000001000100010001000100011C
:102E90000001000100004000400020000000000090
:102EA0000000000000000098012401440144014496
:102EB00000FC000410001FFC0088010401040088CD
:102EC000007000000000007000880104010401048B
:102ED000008800000000007000880104010411084F
:102EE0001FFC0004000000F80144014401440144B7
:102EF00000C800000000010401040FFC11041104CB
:102F000011001800000000D601290129012901C97A
:102F10000106000010041FFC0084010001000104F0
:102F200000FC000400000104190419FC0004000462
:102F3000000000000000000300010101190119FE5A
:102F40000000000010041FFC0024004001B4010C2C
:102F5000010400000000100410041FFC0004000421
:102F600000000000010401FC0104010001FC010457
:102F7000010000FC010401FC0084010001000104C7
:102F800000FC0004000000F8010401040104010435
:102F900000F80000010101FF008501040104008820
:102FA00000700000000000700088010401040105A9
:102FB00001FF00010104010401FC0084010401007F
:102FC00001800000000000CC012401240124012420
:102FD0000198000000000100010007F8010401044D
:102FE00000000000010001F80004000400040108D2
:102FF00001FC0004010001800170000C0010016060
:103000000180010001F0010C003001C00030010C12
:1030100001F0010000000104018C00740170018CBA
:1030200001040000010101810171000E001801601E
:103030000180010000000184010C0134014401847D
:10304000010C0000000000000000000001003EFC38
:10305000400240020000000000000000FFFF0000EE
:10306000000000000000400240023EFC01000000A1
:103070000000000000006000800080004000400070
:103080002000200000000000000000000000000000
:103090000000000000000000000000000000000030
:1030A0000000000000000000000000000000000020
:1030B000000000000000000F80380FFE380F80383D
:1030C0000000000000000000000000000000000000
:1030D00000000100000600000C0000380000310074
:1030E000000600000C000038000030000000000066
:1030F0000000000061800067F807F980006180002F
:1031000061800061800061800067F807F9800061DC
:103110008000000000000000000001C0E003E0F0BB
:103120000630080418081FFFFE040E080787F00386
:1031300081E000000000000001F000060C00040423
:1031400008060C7001F9C0000E00003BE000EC180E
:10315000070808040C180003E00000000001E0006C
:1031600007F003F818041C0804170807E1D003C08F
:10317000E00023B0003C0800200800001000000020
:103180000000000100003100003200001C000000BF
:10319000000000000000000000000000000000002F
:1031A000000000000000000000000000000000001F
:1031B000000000007F0001FFC00780F00C00181025
:1031C00000042000020000000000002000021000A7
:1031D000040C00180780F001FFC0007F0000000011
:1031E00000000000000000000000000000000000DF
:1031F0004200006600006600003C0000180003FF6B
:10320000C0001800003C000066000066000042009C
:10321000000000000800000800000800000800008E
:10322000080001FFC00008000008000008000008B6
:103230000000080000000000000100003100003222
:1032400000001C0000000000000000000000000062
:10325000000000000000000000000000080000085E
:103260000000080000080000080000080000080036
:103270000008000008000008000000000000000036
:103280000000000038000038000038000000000096
:10329000000000000000000000000000000000002E
:1032A00000000000000600001C000070000180000B
:1032B0000E0000380000C0000700001C00003000B5
:1032C00000000000000000007F8001FFE00380702C
:1032D00006001804000804000806001803807001A6
:1032E000FFE0007F800000000000000000000100FF
:1032F0000801000801000803FFF807FFF8000008B4
:1033000000000800000800000000000000000001AC
:10331000C03802C0580400980401180402180404BC
:1033200018061C1803F81801E0F80000000000005F
:1033300000000001C0E003C0F00400080408080415
:10334000080806180803F41801E7F00001E000007F
:1033500000000000000000000300000D000011004C
:1033600000610000810803010807FFF80FFFF80063
:1033700001080001080000000000000000E007FC58
:10338000D0060808061008061008061008061838A7
:10339000060FF00607C0000000000000000000005B
:1033A0003F8001FFE0038430020818041008041075
:1033B00008041008071810030FF00007C0000000F1
:1033C00000000000000003C0000700000600000627
:1033D00000F80607F806180006E0000700000600DF
:1033E0000000000000000001E1E003F7F0063410E7
:1033F000041808041808040C08040C08061618031E
:10340000F3F001C1E000000000000000F80003FC40
:1034100030030638040208040208040208040410F9
:103420000308F001FFC0007F000000000000000062
:103430000000000000000000000000007038007074
:10344000380070380000000000000000000000009C
:10345000000000000000000000000000000000006C
:10346000301A00301C0000000000000000000000C6
:103470000000000000000000000000080000140030
:103480000022000041000080800100400200200472
:1034900000100800080000000000000021000021CA
:1034A0000000210000210000210000210000210077
:1034B00000210000210000210000000000000000A9
:1034C00000000800080400100200200100400080F5
:1034D00080004100002200001400000800000000ED
:1034E00000000003C00004C0000400000800380809
:1034F0000F380808380810000C300007E00003C03F
:1035000000000000000000003F8000FFE00380702A
:10351000020F1006708804C088048308047F8802A4
:10352000C09003012000FE400000080000180001C8
:10353000F8003E0801C20007020007E20000FE009A
:10354000001FC80001F80000380000080400080748
:10355000FFF807FFF804080804080804080804082E
:103560000806180803F41801E7F00001E000000065
:10357000000000003F8001FFE0038070020018049B
:10358000000804000804000804001006002007805A
:10359000C000000004000807FFF807FFF804000857
:1035A00004000804000804001802001003807001E1
:1035B000FFE0007F8000000004000807FFF807FF1D
:1035C000F8040808040808040808040808043E0869
:1035D000040008060018010060000000040008074D
:1035E000FFF807FFF80408080408000408000408AE
:1035F00000043E00060000060000018000000000FC
:10360000000000003F8001FFE00380700600180406
:1036100000080402080402080203F00783F0000215
:103620000000020004000807FFF807FFF80408087C
:10363000000800000800000800000800040808074F
:10364000FFF807FFF8040008000000000000040075
:103650000804000804000807FFF807FFF804000842
:103660000400080400080000000000000000000042
:10367000000600000700000104000104000104002E
:103680000307FFFE07FFFC04000004000004000025
:1036900004000807FFF807FFF8040C0800180000F2
:1036A0003E0004C7800503C80600F8040038040083
:1036B0001800000804000807FFF807FFF8040008D6
:1036C00000000800000800000800000800000800D2
:1036D000001800006000000004000807FFF80780E1
:1036E0000807FC00007FC00003F80007C000780056
:1036F00007800807FFF807FFF80400080400080720
:10370000FFF807000803C00000E000003800001EBA
:10371000000007000001C00400F007FFF8040000EB
:10372000000000007F8001FFE003807006001804A5
:10373000000804000806001803003001FFE0007FC5
:103740008000000004000807FFF807FFF8040408E1
:10375000040400040400040400040400060C000334
:10376000F80001F000000000000000007F8001FF71
:10377000E00380700600880400880400C806003C4E
:1037800003003E01FFE6007F8400000004000807FC
:10379000FFF807FFF8040808040800040C00040FF1
:1037A00000040BC00610F003F03801E00800000828
:1037B00000000001E0F803F030063010041808049F
:1037C0001808040C08040C080206180207F0078108
:1037D000E00000000180000600000400000400007A
:1037E00004000807FFF807FFF804000804000004BD
:1037F000000006000001800004000007FFE007FF52
:10380000F00400180000080000080000080000088C
:1038100000000804001007FFE00400000400000698
:10382000000007E00007FE00041FE00001F80000B0
:10383000380001E0043E0007C0000600000400005C
:1038400004000007E00007FFC0041FF80007C007DE
:10385000F80007FF80043FF80007C004F8000700E5
:103860000004000000000004000806001807C078EB
:1038700005F1C8003E00001F800463E80780F806D9
:103880000018040008000000040000060000078083
:103890000007E008047C08001FF80007F80018087B
:1038A00004E008070000060000040000000000011A
:1038B00000080600380400F80403E8040F08047C3C
:1038C0000805F00807C008070018040060000000A1
:1038D0000000000000000000000000000000003FA9
:1038E000FFFE200002200002200002200002200033
:1038F00002000000000000000000080000070000B7
:1039000000C0000038000006000001C000003000C8
:10391000000E000001000000000000000000200078
:10392000022000022000022000022000023FFFFED1
:103930000000000000000000000000000000000087
:10394000000000000008000010000030000020000F
:10395000003000001000000800000000000000001F
:103960000000010000010000010000010000010052
:103970000001000001000001000001000001000042
:103980000100000100000000000000000020000015
:1039900020000010000010000000000000000000E7
:1039A00000000000000000000000000000F000190E
:1039B000F8001B1800220800260800240800241024
:1039C000003FF8001FF80000080000180000000485
:1039D000000007FFF80FFFF0001818001008002083
:1039E00008002008003018001FF0000FC000000081
:1039F0000000000007C0001FF00018300020080081
:103A00002008002008003C08001C10000060000096
:103A1000000000000000000007C0001FF000381880
:103A200000200800200800200804101007FFF80FED
:103A3000FFF0000010000000000000000000000780
:103A4000C0001FF0001230002218002208002208D7
:103A5000003208001E10000E2000000000000000D0
:103A6000200000200800200801FFF803FFF80620CE
:103A700008042008042008072000030000000000BC
:103A800000000000000E000E6E001FF30031B100B8
:103A900020B10020B1003191001F13002E1E002024
:103AA0000E00300000000004000807FFF80FFFF8C8
:103AB000001008002000002000002008003FF8004F
:103AC0001FF80000080000000000000000000020B7
:103AD00008002008002008063FF8063FF80000080C
:103AE00000000800000800000000000000000000C6
:103AF000000000000300000300200100200100205E
:103B000003063FFE063FFC0000000000000000002E
:103B100000000004000807FFF80FFFF8000188000C
:103B20000300002FC00038F80020380020080000F3
:103B30000800000000000000000004000804000865
:103B400004000807FFF80FFFF80000080000080055
:103B50000008000000000000002008003FF8003FBF
:103B6000F8001008002000003FF8003FF80010089F
:103B7000002000003FF8003FF800000800000000AF
:103B80002008003FF8003FF8001008001000002057
:103B900000002008003FF8001FF8000008000000A7
:103BA0000000000007C0000FF000183000300800CF
:103BB0002008002008003008001830000FF000072F
:103BC000C0000000000000002001003FFF003FFF98
:103BD00000101100200900200800200800303800E3
:103BE0001FF0000FC00000000000000007C0001F11
:103BF000F0003818002008002008002009001011EB
:103C0000001FFF003FFF000001000000002008002F
:103C10002008002008003FF8003FF80008080010C6
:103C200008002008002000003000003000000000E4
:103C3000000000000000000C78001E18003308008F
:103C400023080021080021880021980030F0003866
:103C500060000000000000002000002000002000A4
:103C600000FFF003FFF800200800200800200800F3
:103C70000030000000000000000000002000003FB5
:103C8000F0007FF800001800000800000800201075
:103C9000003FF8007FF0000010000000000000006E
:103CA0002000003000003C00003F800023F00000B6
:103CB00078000070002380003C00003000002000ED
:103CC000002000003C00003FE00023F80000E0007E
:103CD0002700003E00003FE00021F80001E0003E28
:103CE00000002000000000002008002008003838F4
:103CF000003E680027800003C8002CF80038380018
:103D00002018002008000000000000002000003003
:103D100003003C01003F830023EC0000700023807F
:103D2000003C000020000020000000000000000017
:103D300000000038080020380020F80023E8002F99
:103D400088003E08003808002018000070000000BD
:103D50000000000000000000000000000000000063
:103D600008000014001FF7FC3000062000020000CD
:103D70000000000000000000000000000000000043
:103D8000000000000000FFFFFF0000000000000036
:103D90000000000000000000000000000000200003
:103DA000023000061FF7FC001400000800000000AD
:103DB00000000000000000000000000000000018EB
:103DC00000006000004000004000002000001000E3
:103DD000000800000400000400000C0000100000B7
:103DE000102840587088A0B80000000004040400A7
:103DF000000800000008000008000000080002049D
:103E000006080A0C00010203040506002C3E000807
:103E10000000002018000000D8210008443E0008DF
:103E20001800002008090000E82100080000000038
:103E300010000000010000000024F4000000000059
:043E4000000000007E
:040000050800018965
:00000001FF
