:020000040800F2
:1000000018040020A1010008070B00087909000866
:10001000050B0008AD020008E50B00080000000019
:100020000000000000000000000000000B0B0008B2
:10003000AF02000800000000090B00080D0B0008CB
:10004000BB010008BB010008BB010008BB010008A0
:10005000BB010008BB010008BB010008BB01000890
:10006000BB010008BB010008BB010008BB01000880
:10007000BB010008BB010008BB010008BB01000870
:10008000BB010008BB010008BB010008BB01000860
:10009000BB010008BB010008BB010008BB01000850
:1000A000BB010008BB010008BB010008BB01000840
:1000B000BB010008BB010008BB010008BB01000830
:1000C000BB010008BB010008BB010008BB01000820
:1000D000BB010008BB010008BB010008BB01000810
:1000E000BB010008BB010008BB010008BB01000800
:1000F000BB010008BB010008BB010008BB010008F0
:10010000BB010008BB010008BB010008BB010008DF
:10011000BB010008BB010008BB010008BD0B0008C3
:10012000BB010008BB010008BB010008BB010008BF
:10013000BB010008BB010008BB010008BB010008AF
:10014000BB010008BB010008BB010008BB0100089F
:10015000BB010008BB010008BB010008BB0100088F
:10016000BB010008BB010008BB010008BB0100087F
:10017000BB010008BB010008BB0100080000000033
:10018000BB010008BB010008DFF810D000F07CF8CC
:10019000004800474D0C0008AFF300801804002011
:1001A0000648804706480047FEE7FEE7FEE7FEE711
:1001B000FEE7FEE7FEE7FEE7FEE7FEE7A50B000829
:1001C000890100082DE9F05F0546002092469B4614
:1001D00088460646814640241BE02846414647465D
:1001E000224600F041F853465A46C01A914110D3B6
:1001F00011461846224600F028F82D1A67EB010830
:100200004F4622460120002100F01FF817EB00099D
:100210004E41201EA4F10104DFDC484631462A4647
:100220004346BDE8F09FD2B201E000F8012B491E21
:10023000FBD270470022F6E710B513460A46044683
:100240001946FFF7F0FF204610BD202A04DB203AB4
:1002500000FA02F1002070479140C2F1200320FA19
:1002600003F3194390407047202A04DB203A21FA17
:1002700002F00021704721FA02F3D040C2F12002BF
:100280009140084319467047064C074D06E0E06868
:1002900040F0010394E8070098471034AC42F6D3CD
:1002A000FFF776FF780C0008980C0008FEE770470F
:1002B00072B6FEE701488068704700000000002029
:1002C0000248816802781144816070470000002074
:1002D00010B50B48016841F400710160016841F4F8
:1002E00080610160016841F480710160032000F0C9
:1002F00063F80F2000F006F800F026F8002010BD8B
:10030000003C024070B504460D4D4FF47A712878D8
:10031000B1FBF0F00B490968B1FBF0F000F018FBFD
:1003200008B1012070BD102C07D200222146501EBA
:1003300000F022F86C60002070BD012070BD00004C
:10034000000000200C00002008B50A48016841F4B4
:1003500080410160006800F4804000900548001F63
:10036000016841F080510160006800F08050009009
:1003700008BD000044380240F0B40D460D4B1B6828
:10038000C3F30223C3F10704042C00D90424191D6C
:10039000072901D2002300E0DB1E012606FA04F142
:1003A000491E294099409E40761E16403143F0BCBC
:1003B00000F019BC0CED00E000F00701054A1068E0
:1003C0004FF6FF03184040EA01200349084310603C
:1003D000704700000CED00E00000FA052DE9F04741
:1003E00004460D46002C13D0DFF82891D9F8000000
:1003F000EFB200F00700A8420CD289F80070D9F8DB
:10040000000000F00700A84204D00120BDE8F087FA
:100410000120FBE72068404E810712D5400703D535
:10042000306840F4E05030602078000703D5306831
:1004300040F4604030603068A16820F0F00008436C
:1004400030602078C00731D033496068083901280E
:1004500008D002280BD0032809D0096889070BD4DB
:100460000120D3E70968890306D40120CEE7096893
:10047000890101D40120C9E7316821F0030101435A
:100480003160FFF717FF804641F2883A07E0FFF737
:1004900011FFA0EB0800504501D90320B6E73068F2
:1004A000616800F00C00B0EB810FF0D1D9F80000CA
:1004B00000F00700A84209D989F80070D9F80000B7
:1004C00000F00700A84201D001209FE720784007F4
:1004D00005D53068E16820F4E050084330602078AA
:1004E000000706D53068216920F4604040EAC10069
:1004F000306000F019F83168084AC1F30311515C0B
:10050000C8400749086007480068FFF7FBFE002065
:100510007CE70000003C024008380240660C0008FE
:100520000C0000200400002010B51748006810F0EF
:100530000C01164816D04310042912D0082911D1F5
:10054000114C241F216801F03F02216849020AD59D
:100550002068C0F38810A0FB03010023FFF732FEE0
:1005600009E0184610BD21680023C1F38811A1FBE2
:100570000001FFF727FE2168C1F30141491C490032
:10058000B0FBF1F010BD0000083802400024F40078
:100590002DE9F84F0446002C13D02078DFF8A08313
:1005A000C007A8F1040556D008F104000168C1F3A2
:1005B000810101290CD00068C0F38100022803D01A
:1005C0000DE00120BDE8F88FD8F80000400206D504
:1005D000286880033FD5606870BB0120F2E760683F
:1005E000B0F5803F10D0B0F5A02F12D0286820F4CD
:1005F00080302860286820F4802028606068E0B19E
:10060000FFF758FE064614E0286840F48030286062
:10061000F4E7286840F480202860286840F480309F
:100620002860EBE7FFF746FE801B642801D9032012
:10063000C8E728688003F5D50DE0FFF73BFE0646C6
:1006400006E0FFF737FE801B642801D90320B9E7D5
:1006500028688003F5D42078BA4F80074FF000094E
:1006600048D5B748001D016811F00C0F08D000688C
:10067000C0F38100022813D1D8F8000040020FD443
:100680002868800704D5E068012801D0012099E797
:100690002868216920F0F80040EAC100286029E0BC
:1006A000E068B8B101203860FFF704FE064606E0B6
:1006B000FFF700FE801B022801D9032082E728688B
:1006C0008007F5D52868216920F0F80040EAC100CC
:1006D00028600FE0C7F80090FFF7ECFD064606E043
:1006E000FFF7E8FD801B022801D903206AE728688C
:1006F0008007F5D42078000729D5DFF844A2924876
:1007000061690AF1700A89B101210160FFF7D2FD28
:10071000064606E0FFF7CEFD801B022801D9032024
:1007200050E7DAF800008007F4D510E0C0F8009038
:10073000FFF7C0FD064606E0FFF7BCFD801B022860
:1007400001D903203EE7DAF800008007F4D42078CE
:10075000400778D54FF0000A79483C300068C00067
:100760000BD477483C30016841F08051016000684B
:1007700000F0805000904FF0010ADFF8D0B1DBF8B4
:100780000000C00514D4DBF8000040F48070CBF802
:100790000000FFF78FFD064606E0FFF78BFD801B8C
:1007A000022801D903200DE7DBF80000C005F4D5CD
:1007B000634EA0686C3601280FD0052812D030682F
:1007C00020F001003060306820F004003060A06844
:1007D000F8B1FFF76FFD834617E0306840F0010085
:1007E0003060F4E7306840F004003060306840F07A
:1007F00001003060EBE7FFF75DFDA0EB0B0141F27C
:100800008830814201D90320DCE630688007F2D5C8
:1008100010E0FFF74FFD834609E0FFF74BFDA0EB2B
:100820000B0141F28830814201D90320CAE63068C9
:100830008007F2D4BAF1010F05D141483C3001687C
:1008400021F080510160A069C0B33D49091D0968CC
:100850004FF0FF36C1F38101022946D0022805D0AE
:10086000C7F86090FFF726FD04463AE0C7F86090AD
:10087000FFF720FD814607E0FFF71CFDA0EB090014
:10088000022801D903209DE628688001F4D4D4E928
:1008900007010843616AA26A890106EB520241EA34
:1008A0000241084394F82C1040EA0160C8F80000A7
:1008B00001203866FFF7FEFC044607E03DE0FFF745
:1008C000F9FC001B022801D903207BE6286880017F
:1008D000F5D532E0FFF7EEFC001B022801D903201A
:1008E00070E628688001F5D427E0012823D0D8F8E5
:1008F0000000E26900F4800191421AD1226A00F0FE
:100900003F01914215D147F6C071626A0140B1EBD7
:10091000821F0ED1A26A00F4403106EB5202B1EB05
:10092000024F06D194F82C1000F07060B0EB016F0C
:1009300003D0012046E6012044E6002042E6000004
:100940000438024000004742800E474200700040D9
:1009500010B5401EB0F1807F01D3012010BD4FF0D3
:10096000E02460610F21601700F03DF90020A061D4
:1009700007202061002010BDFEE700002DE9F041B6
:100980000268264C264D274E274F284B4FF0804CAF
:10099000A04209D0604507D0A84205D0B04203D09C
:1009A000B84201D0984205D1D1F8048022F07002FB
:1009B00042EA0802A0421BD0604519D0A84217D0D5
:1009C000B04215D0B84213D0984211D0184DA84269
:1009D0000ED0184DA8420BD0174DA84208D0174D85
:1009E000A84205D0164DA84202D0164DA84203D108
:1009F000CD6822F440722A4302608A68C2620A8883
:100A00008262A04201D0984201D109690163416923
:100A100041F0010141610020BDE8F081000001408A
:100A20000004004000080040000C004000040140A9
:100A300000400140004401400048014000180040CF
:100A4000001C00400020004008B50948016841F042
:100A500080010160016801F080010091016841F0AE
:100A600001010160006800F00100009008BD000075
:100A70003038024010B586B0142101A8FFF7DAFB28
:100A80001B48016841F020010160006800F020006F
:100A9000009018480068C0F30220011D072901D208
:100AA000002000E0C01E002202FA00F108011249F5
:100AB000087012494FF40000C1F800015320ADF84E
:100AC000040002924FF6FF7003900D4C01A92046DE
:100AD000FFF754FF206820F080002060606820F05D
:100AE00070006060A06820F08000A06006B010BDBB
:100AF000403802400CED00E037E400E004E000E0A4
:100B000000140040FEE7FEE770477047FFF7D8BBD0
:100B100030B593B0302107A8FFF78CFB142102A851
:100B2000FFF788FB00251D48016841F080510160F6
:100B3000006800F0805001901948016841F480413C
:100B40000160006800F480400190012007900004DB
:100B5000089002240D9480010E9004200F90A8218B
:100B600010911194129007A8FFF712FD08B1FFF73A
:100B70009FFB0F200290039404954FF4A050059022
:100B80004FF480500690052102A8FFF727FC0028AB
:100B900001D0FFF78DFB13B030BD0000403802409C
:100BA000007000400248016841F470010160704724
:100BB00088ED00E0012000F035B87047AFF3008009
:100BC00006480169C1F30001002906D06FF0010158
:100BD000016103484168491C4160704700140040AE
:100BE00010000020FEE70907090E002804DB00F1D1
:100BF000E02080F80014704700F00F0000F1E020C2
:100C000080F8141D704702E008C8121F08C1002AAE
:100C1000FAD170477047002001E001C1121F002A7D
:100C2000FBD17047074908700748C16841F00101CE
:100C3000C1606FF001010161016841F001010160D3
:100C4000704700001000002000140040FFF740FB38
:100C5000FFF75EFFFFF7F8FEFFF70CFFFFF7AAFFB5
:100C6000FFF7ABFFFCE700000000000000000102FE
:100C70000304060708090000980C00080000002083
:100C800018000000060C0008B00C00081800002036
:100C900000040000160C0008010000001000000015
:100CA000000000000024F40000000000000000002C
:040000050800018965
:00000001FF
