:020000040800F2
:100000000844002061020008AB0D00087B0D0008C9
:10001000A90D0008910300085D0F00080000000012
:10002000000000000000000000000000A101000826
:100030009303000800000000FD010008B50D000852
:100040007B0200087B0200087B0200087B0200089C
:100050007B0200087B0200087B0200087B0200088C
:100060007B0200087B0200087B0200087B0200087C
:100070007B0200087B0200087B0200087B0200086C
:100080007B0200087B0200087B0200087B0200085C
:100090007B0200087B0200087B0200087B0200084C
:1000A0007B0200087B0200087B0200087B0200083C
:1000B0007B0200087B0200087B0200087B0200082C
:1000C0007B0200087B0200087B0200087B0200081C
:1000D0007B0200087B0200087B0200087B0200080C
:1000E0007B0200087B0200087B0200087B020008FC
:1000F0007B0200087B0200087B0200087B020008EC
:100100007B0200087B0200087B0200087B020008DB
:100110007B0200087B0200087B020008850E0008B5
:100120007B0200087B0200087B0200087B020008BB
:100130007B0200087B0200087B0200087B020008AB
:100140007B0200087B0200087B0200087B0200089B
:100150007B0200087B0200087B0200087B0200088B
:100160007B0200087B0200087B0200087B0200087B
:100170007B0200087B0200087B02000800000000F0
:100180007B0200087B020008DFF810D000F0EEF8D8
:10019000004800479D0F0008AFF30080084400208E
:1001A0002C4B19680868B0E8F04F80F30988BFF35A
:1001B0006F8F4FF0000080F311887047000000003F
:1001C00008480068006880F308884FF0000080F35A
:1001D000148862B661B6BFF34F8FBFF36F8F00DF35
:1001E00000BF00BF08ED00E0DFF80C00016841F43B
:1001F00070010160704700BF88ED00E0EFF30980F7
:10020000BFF36F8F134B1A681EF0100F08BF20ED5D
:10021000108A20E9F04F106009B44FF0500080F3CD
:100220001188BFF34F8FBFF36F8F01F08BFA4FF040
:10023000000080F3118809BC19680868B0E8F04F25
:100240001EF0100F08BFB0EC108A80F30988BFF3CE
:100250006F8F704714000020EFF305807047000097
:100260000648804706480047FEE7FEE7FEE7FEE750
:10027000FEE7FEE7FEE7FEE7FEE7FEE7750E000895
:10028000890100082DE9F05F0546002092469B4653
:1002900088460646814640241BE02846414647469C
:1002A000224600F053F853465A46C01A914110D3E3
:1002B00011461846224600F03AF82D1A67EB01085D
:1002C0004F4622460120002100F031F817EB0009CB
:1002D0004E41201EA4F10104DFDC484631462A4687
:1002E0004346BDE8F09F40EA01039B0703D009E0C5
:1002F00008C9121F08C0042AFAD203E011F8013B12
:1003000000F8013B521EF9D27047D2B201E000F86A
:10031000012B491EFBD270470022F6E710B51346A9
:100320000A4604461946FFF7F0FF204610BD202A72
:1003300004DB203A00FA02F1002070479140C2F13C
:10034000200320FA03F3194390407047202A04DB6E
:10035000203A21FA02F00021704721FA02F3D0403E
:10036000C2F120029140084319467047064C074DE0
:1003700006E0E06840F0010394E807009847103475
:10038000AC42F6D3FFF704FF341B0008541B0008EF
:10039000FEE7704772B6FEE70148806870470000CC
:1003A000040000200248816802781144816070478F
:1003B0000400002010B50B48016841F40071016091
:1003C000016841F480610160016841F4807101605D
:1003D000032000F09FF80F2000F006F800F050F81E
:1003E000002010BD003C024030B587B00546002417
:1003F0001E48016841F020010160006800F0200003
:10040000009001A902A800F03DF90598A8B100F0FC
:100410005DF940001649B0FBF1F1491E1648154A36
:10042000026040F2E732C26041600461846084612E
:1004300000F072FB04461CB115E000F047F9E9E753
:100440000D4800F08FFB04466CB9372000F034F8FB
:10045000102D07D200222946372000F03BF807482C
:10046000056000E0012407B0204630BD403802405E
:1004700040420F0000140040D0020020080000207D
:1004800082B00C48016841F480410160006800F4CA
:10049000804001900748001F016841F080510160D1
:1004A000006800F08050019000220F21901E02B0E1
:1004B00000F010B844380240002809DB00F01F02A9
:1004C000012191404009800000F1E020C0F80011B6
:1004D00070470000F0B40D460D4B1B68C3F30223B8
:1004E000C3F10704042C00D90424191D072901D2E3
:1004F000002300E0DB1E012606FA04F1491E294014
:1005000099409E40761E16403143F0BC00F027BD56
:100510000CED00E000F00701054A10684FF6FF03FC
:10052000184040EA0120034908431060704700006A
:100530000CED00E00000FA052DE9F04704460D46F9
:10054000002C13D0DFF82891D9F80000EFB200F0AA
:100550000700A8420CD289F80070D9F8000000F01A
:100560000700A84204D00120BDE8F0870120FBE786
:100570002068404E810712D5400703D5306840F40B
:10058000E05030602078000703D5306840F46040C8
:1005900030603068A16820F0F000084330602078B7
:1005A000C00731D0334960680839012808D00228D3
:1005B0000BD0032809D0096889070BD40120D3E7A1
:1005C0000968890306D40120CEE70968890101D4AE
:1005D0000120C9E7316821F0030101433160FFF7D1
:1005E000DBFE804641F2883A07E0FFF7D5FEA0EB3C
:1005F0000800504501D90320B6E73068616800F073
:100600000C00B0EB810FF0D1D9F8000000F007002A
:10061000A84209D989F80070D9F8000000F0070055
:10062000A84201D001209FE72078400705D5306817
:10063000E16820F4E050084330602078000706D5D8
:100640003068216920F4604040EAC100306000F069
:100650004DF83168084AC1F30311515CC84007499D
:10066000086007480068FFF7BFFE00207CE7000035
:10067000003C024008380240101B00081000002017
:10068000080000200F2202600B4A136803F00303E6
:100690004360136803F0F0038360136803F4E053CE
:1006A000C360126802F46042D20802610348006825
:1006B00000F007000860704708380240003C024024
:1006C00001480068704700001000002000B5FFF7E7
:1006D000F7FF04490968044AC1F38221515CC8400C
:1006E00000BD000008380240201B000810B5174864
:1006F000006810F00C01164816D04310042912D0DF
:10070000082911D1114C241F216801F03F022168F2
:1007100049020AD52068C0F38810A0FB030100231A
:10072000FFF7B0FD09E0184610BD21680023C1F3B2
:100730008811A1FB0001FFF7A5FD2168C1F301416C
:10074000491C4900B0FBF1F010BD00000838024020
:100750000024F4002DE9F84F0446002C13D0207833
:10076000DFF8A083C007A8F1040556D008F1040003
:100770000168C1F3810101290CD00068C0F3810038
:10078000022803D00DE00120BDE8F88FD8F8000062
:10079000400206D5286880033FD5606870BB012001
:1007A000F2E76068B0F5803F10D0B0F5A02F12D00E
:1007B000286820F480302860286820F48020286091
:1007C0006068E0B1FFF7E8FD064614E0286840F4F1
:1007D00080302860F4E7286840F48020286028688A
:1007E00040F480302860EBE7FFF7D6FD801B6428DB
:1007F00001D90320C8E728688003F5D50DE0FFF78D
:10080000CBFD064606E0FFF7C7FD801B642801D933
:100810000320B9E728688003F5D42078BA4F800711
:100820004FF0000948D5B748001D016811F00C0FC2
:1008300008D00068C0F38100022813D1D8F8000066
:1008400040020FD42868800704D5E068012801D051
:10085000012099E72868216920F0F80040EAC100EA
:10086000286029E0E068B8B101203860FFF794FD06
:10087000064606E0FFF790FD801B022801D9032001
:1008800082E728688007F5D52868216920F0F800FC
:1008900040EAC10028600FE0C7F80090FFF77CFD38
:1008A000064606E0FFF778FD801B022801D90320E9
:1008B0006AE728688007F5D42078000729D5DFF893
:1008C00044A2924861690AF1700A89B1012101606C
:1008D000FFF762FD064606E0FFF75EFD801B02287B
:1008E00001D9032050E7DAF800008007F4D510E0C2
:1008F000C0F80090FFF750FD064606E0FFF74CFDFC
:10090000801B022801D903203EE7DAF800008007A7
:10091000F4D42078400778D54FF0000A79483C306D
:100920000068C0000BD477483C30016841F080512A
:100930000160006800F0805000904FF0010ADFF87D
:10094000D0B1DBF80000C00514D4DBF8000040F49F
:100950008070CBF80000FFF71FFD064606E0FFF7AA
:100960001BFD801B022801D903200DE7DBF80000E6
:10097000C005F4D5634EA0686C3601280FD0052859
:1009800012D0306820F001003060306820F00400A0
:100990003060A068F8B1FFF7FFFC834617E03068CD
:1009A00040F001003060F4E7306840F0040030604F
:1009B000306840F001003060EBE7FFF7EDFCA0EBA2
:1009C0000B0141F28830814201D90320DCE6306816
:1009D0008007F2D510E0FFF7DFFC834609E0FFF760
:1009E000DBFCA0EB0B0141F28830814201D90320EE
:1009F000CAE630688007F2D4BAF1010F05D1414848
:100A00003C30016821F080510160A069C0B33D49CC
:100A1000091D09684FF0FF36C1F38101022946D054
:100A2000022805D0C7F86090FFF7B6FC04463AE00C
:100A3000C7F86090FFF7B0FC814607E0FFF7ACFC19
:100A4000A0EB0900022801D903209DE62868800157
:100A5000F4D4D4E907010843616AA26A890106EB6C
:100A6000520241EA0241084394F82C1040EA016026
:100A7000C8F8000001203866FFF78EFC044607E046
:100A80003DE0FFF789FC001B022801D903207BE62B
:100A900028688001F5D532E0FFF77EFC001B0228B4
:100AA00001D9032070E628688001F5D427E00128E9
:100AB00023D0D8F80000E26900F4800191421AD1F5
:100AC000226A00F03F01914215D147F6C071626A77
:100AD0000140B1EB821F0ED1A26A00F4403106EB57
:100AE0005202B1EB024F06D194F82C1000F0706066
:100AF000B0EB016F03D0012046E6012044E6002060
:100B000042E600000438024000004742800E47429F
:100B1000007000407047704710B50446002C03D0A9
:100B200094F83D0010B107E0012010BD002084F8CA
:100B30003C00204600F015F8022084F83D00211DFD
:100B4000206800F0A5F901203D3460726070A0704B
:100B5000E07020716071A071E0712072207000203F
:100B600010BD704790F83D10012901D00120704759
:100B7000022180F83D100168CA6842F00102CA6093
:100B800000681449884214D0B0F1804F11D0124946
:100B900088420ED0114988420BD01149884208D0B2
:100BA0001049884205D01049884202D00F49884236
:100BB00009D1816801F00701062908D0016841F0D8
:100BC0000101016003E0016841F0010101600020C2
:100BD0007047000000000140000400400008004091
:100BE000000C00400004014000400140001800409B
:100BF000704770B50446206801694FF00005C9438D
:100C0000890716D4C168C943890712D4E91E016156
:100C10000120207720688069800703D02046FFF7F5
:100C2000E7FF05E0204600F09BF8204600F099F829
:100C3000257720680169C943490718D4C168C943A9
:100C4000490714D46FF00401016102202077206865
:100C5000806910F4407F03D02046FFF7C9FF05E00C
:100C6000204600F07DF8204600F07BF825772068CC
:100C70000169C943090717D4C168C943090713D4D7
:100C80006FF008010161042020772068C0698007A7
:100C900003D02046FFF7ACFF05E0204600F060F8E7
:100CA000204600F05EF8257720680169C943C9062F
:100CB00018D4C168C943C90614D46FF0100101618A
:100CC000082020772068C06910F4407F03D02046B8
:100CD000FFF78EFF05E0204600F042F8204600F0C6
:100CE00040F8257720680169C943C90708D1C16860
:100CF000C943C90704D1891E0161204600F032F8BA
:100D000020680169C943090609D4C168C9430906B5
:100D100005D46FF0800101612046FFF7FBFE2068DB
:100D20000169C943490609D4C168C943490605D4C4
:100D30006FF040010161204600F01EF82068016953
:100D4000C94389060BD4C168C943890607D46FF02B
:100D5000200101612046BDE87040FFF7DCBE70BD98
:100D60007047704700680349884201D1FFF71ABBFA
:100D700070470000001400407047FEE708B50948BE
:100D8000016841F080010160016801F0800100917B
:100D9000016841F001010160006800F0010000906D
:100DA00008BD000030380240FEE7FEE7012000F0F9
:100DB00015F9FBE710B5502080F31188BFF34F8F72
:100DC000BFF36F8F00F0C8FD18B104494FF0805099
:100DD0000860002080F3118810BD000004ED00E0E1
:100DE00030B593B0302107A8FFF796FA142102A876
:100DF000FFF792FA00251D48016841F0805101601B
:100E0000006800F0805001901948016841F4804169
:100E10000160006800F48040019001200790000408
:100E2000089002240D9480010E9004200F90A821B8
:100E300010911194129007A8FFF78CFC08B1FFF7EE
:100E4000A9FA0F200290039404954FF4A050059046
:100E50004FF480500690052102A8FFF76DFB002893
:100E600001D0FFF797FA13B030BD000040380240C0
:100E7000007000400248016841F470010160704751
:100E800088ED00E00148FFF7B4BE0000D00200206A
:100E90002DE9F0410268264D264E274FDFF89CC011
:100EA000274B4FF08048A84209D0404507D0B042B8
:100EB00005D0B84203D0604501D0984203D122F05A
:100EC00070044A682243A8421BD0404519D0B04262
:100ED00017D0B84215D0604513D0984211D0194CA4
:100EE000A0420ED0184CA0420BD0184CA04208D003
:100EF000174CA04205D0174CA04202D0164CA0427D
:100F000003D122F44074CA6822434C6922F0800263
:100F1000224302608A68C2620A688262A84201D0E3
:100F2000984201D10969016301214161BDE8F08165
:100F3000000001400004004000080040000C004098
:100F400000040140004001400044014000480140CD
:100F500000180040001C004000200040FEE7090788
:100F6000090E002804DB00F1E02080F8001470472F
:100F700000F00F0000F1E02080F8141D704702E03F
:100F800008C8121F08C1002AFAD170477047002014
:100F900001E001C1121F002AFBD1704788B0FFF7A2
:100FA00009FAFFF71DFFFFF7E9FE1C22064901A819
:100FB000FFF799F9002101A800F01DF80349086026
:100FC00000F014F8FEE70000F41A0008000000200A
:100FD00001460020842900D0C81C704710B50028A5
:100FE00000D1012000F03AFB002010BD10B500F048
:100FF0005DFB002010BD7FB504460D466169B4F964
:101000000800002910D0A16971B1FFF7E1FFD4E910
:101010000521CDE901210090D4E900102B46226979
:1010200000F06CFC039010E0FFF7D2FF03A9CDE9BC
:101030000001208A2B4682B2D4E9001000F02CFC7B
:10104000012802D0002004B070BD0398FBE7000027
:101050002DE9F04104460F46174EF5683068001D33
:1010600000F032FA38B9306890F82C10012088402E
:10107000316981433161601C07D137B13168BDE806
:10108000F041091D0D4800F063BA2C4430684460FB
:10109000AC4206D23168B06B091DBDE8F04100F0EA
:1010A0003FBA3168706B091D00F03AFAB06A8442A9
:1010B00000D2B462BDE8F08114000020F4030020E7
:1010C00070B5044600F050FA1C4DA868401CA8609A
:1010D000286810B1686938B10CE02C60A868012854
:1010E00008D100F0F3F805E02868E16AC06A884298
:1010F00000D82C60686A401C6862E06A01212A6995
:101100008140114329610E4900EB800001EB800012
:10111000211D00F01DFA00F047FA686900280CD084
:101120002868E16AC06A884207D206494FF08050B9
:101130000860BFF34F8FBFF36F8F70BD14000020A6
:101140001803002004ED00E070B50C4D0C4E11E0CA
:1011500000F00AFAF068C468201D00F0B5F9A8682C
:10116000401EA8606868401E686000F01DFA2046B6
:1011700000F008F868680028EAD170BD140000206B
:10118000E003002010B5044694F8510000280BD06D
:10119000012811D0022814D0502080F31188BFF309
:1011A0004F8FBFF36F8FFEE7206B00F013FA2046DE
:1011B000BDE8104000F00EBA2046BDE8104000F037
:1011C00009BA10BD4FF470510F48420706D0C01D38
:1011D00020F007000C49411AC1F570510B4A10600C
:1011E000002353600144083921F00701183A1160C7
:1011F0004B600B600B1A4360016040689060506068
:101200004FF0004050617047080400206800002043
:10121000074E4FF08054074DFFF796FF30680128C6
:10122000FAD92C60BFF34F8FBFF36F8FF4E7000044
:101230001803002004ED00E02DE9F0478246DDE9C7
:1012400008580A9C9946521E206B00EB820020F041
:101250000706700707D0502080F31188BFF34F8F27
:10126000BFF36F8FFEE7002761B1002023180A5CEF
:1012700083F834200A5C12B1401C1028F6D384F89D
:10128000437001E084F83470072D00D30625E56231
:101290006564A764201D00F040F904F1180000F017
:1012A0003CF92461C5F10700A0616462E76484F839
:1012B00050704A465146304600F0F4F82060B8F1CC
:1012C000000F01D0C8F80040BDE8F08770B50024D9
:1012D000124D04EB840005EB800000F013F9641C50
:1012E000072CF6D30D488C3000F00CF90B48A030D9
:1012F00000F008F90948B43000F004F90748C83094
:1013000000F000F90548DC3000F0FCF8034904481F
:101310008C3141631431816370BD000018030020DB
:101320001400002030B5134900E011460A688242DB
:10133000FBD34B685C18844203D140681844486072
:1013400008460D6844682318AB420DD1094B183B81
:101350001B689A4206D05268224442600A681268AA
:10136000026002E0036000E00260814200D0086099
:1013700030BD0000680000200748416B0968002963
:1013800005D0416BC968C9684968816270474FF0F0
:10139000FF31816270470000140000200948406856
:1013A000401C07D0502080F31188BFF34F8FBFF34C
:1013B0006F8FFEE7502080F31188BFF34F8FBFF38C
:1013C0006F8FFEE7700000202DE9F04105460026F2
:1013D00000F0B0F9324F386808B9FFF7F3FE7869CA
:1013E00005424DD18DB1083568070ED005F00700D4
:1013F000C0F108000544680707D0502080F3118829
:10140000BFF34F8FBFF36F8FFEE7CDB37868854290
:1014100036D8234918310846046801E021460446BD
:101420006068A84202D220680028F7D13868844258
:1014300026D00E680836206808606068411B1029B5
:101440000ED96019420707D0502080F31188BFF3EE
:101450004F8FBFF36F8FFEE741606560FFF762FF5C
:1014600061687868401A7860BA68904200D2B860C3
:1014700078690143616000202060F868401CF860D2
:1014800000F0D2FA700707D0502080F31188BFF324
:101490004F8FBFF36F8FFEE73046BDE8F08100004D
:1014A0005000002024384FF08073036221F00101C6
:1014B000C1610449816142606FF0020140F8201966
:1014C000704700009D1300080169D0E901329A605D
:1014D000D0E901235A604A68824201D182684A6099
:1014E000002202610868401E08600868704700001A
:1014F000034B036003F154000860802010607047C4
:101500007C00002000F1080141604FF0FF32826052
:10151000C1600161002101607047002101617047D5
:1015200030B50C68621C02D000F1080202E00269CA
:1015300004E01A4653681D68A542FAD953684B6007
:1015400099608A60516008610168491C016030BD82
:1015500042684A6093688B60936859609160086143
:101560000168491C01607047502080F31188BFF367
:101570004F8FBFF36F8F0A494868401C48600128AD
:101580000CD10848006810F0FF0F07D0502080F3FE
:101590001188BFF34F8FBFF36F8FFEE770470000D6
:1015A0007000002004ED00E009494868002806D0DA
:1015B000401E4860002801D180F3118870475020F8
:1015C00080F31188BFF34F8FBFF36F8FFEE70000EA
:1015D0007000002070B500282AD008380446154D48
:1015E00060686969084207D1502080F31188BFF311
:1015F0004F8FBFF36F8FFEE722683AB1502080F320
:101600001188BFF34F8FBFF36F8FFEE78843606091
:1016100000F090F860686968084468602046FFF749
:1016200081FE2869401C2861BDE8704000F0FCB9CB
:1016300070BD0000500000204FF0E020002101614B
:10164000816105494FF47A720968B1FBF2F1491ED4
:1016500041610721016170471000002010B502466A
:101660000020002A12D00F48006B38B1502080F3C0
:101670001188BFF34F8FBFF36F8FFEE700F05AF86A
:1016800000211046FFF7E4FC00F0CEF9002807D156
:1016900005494FF080500860BFF34F8FBFF36F8F45
:1016A00010BD00001400002004ED00E010B586B06D
:1016B00000240594049403AA04A905A8FFF718FFC1
:1016C000DDE90410CDE900410290002315A117487F
:1016D000039A00F013F91649C86208B1012000E02E
:1016E0000020012809D0401C19D1502080F3118816
:1016F000BFF34F8FBFF36F8FFEE7502080F3118849
:10170000BFF34F8FBFF36F8F4FF0FF308862012020
:101710004861CC6006B0BDE8104000F043B806B0A8
:1017200010BD000049444C450000000011120008A3
:10173000140000200248016B491C0163704700003F
:1017400014000020154A106B002802D00120D0613F
:1017500070470020D0611069B0FA80F0C0F11F001E
:101760000F4900EB800051F8203073B101EB80008D
:1017700041684968416000F10803994201D1496814
:1017800041604068C06810607047502080F3118845
:10179000BFF34F8FBFF36F8FFEE7000014000020F0
:1017A000180300201CB537480168374A914207D119
:1017B000502080F31188BFF34F8FBFF36F8FFEE788
:1017C00000683149491E884207D1502080F31188B2
:1017D000BFF34F8FBFF36F8FFEE72C49087801905E
:1017E000FF200870087800909DF800009DF8002008
:1017F00000F0F000904207D0502080F31188BFF332
:101800004F8FBFF36F8FFEE79DF80000204C00F074
:10181000500020700720A06006E0A068401EA06075
:101820009DF80000400000909DF800000006F4D4F0
:10183000A068032807D0502080F31188BFF34F8F92
:10184000BFF36F8FFEE74FF44070A06001980870FF
:101850000C482030016841F470010160016841F0DA
:1018600070410160FFF7E8FE00206060FEF7BCFCFD
:101870000848016841F040410160FEF7A1FC0020EA
:101880001CBD000000ED00E071C20F4100E400E06B
:101890007000002034EF00E02DE9FF5F8146DDE9B4
:1018A0000E788A4616469B46B000FFF78DFD05462A
:1018B00028000AD05420FFF787FD04460CB12563A9
:1018C00004E02846FFF786FE00E000249CB10020DB
:1018D00084F85100CDE90240CDE900785B463246FC
:1018E00051464846FFF7A8FC2046FFF7E9FB0120D8
:1018F00004B0BDE8F09F4FF0FF30F9E7F0B585B0D8
:101900000746DDE90A600C9C002815D0E4B1542597
:1019100003952063022084F85100002004ADCDE936
:101920000240CDE900653846FFF786FC2046FFF708
:10193000C7FB049805B0F0BD502080F31188BFF3B9
:101940004F8FBFF36F8FFEE7502080F31188BFF3F6
:101950004F8FBFF36F8FFEE72DE9F0410026304F28
:10196000386B002805D0B869401CB8613046BDE826
:10197000F081FD686D1CFD609DB9786B006838B121
:10198000502080F31188BFF34F8FBFF36F8FFEE7B6
:10199000786BB96B7963B863386A401C3862FFF7BB
:1019A000EBFCB86ADFF87C8085420DD3786B006869
:1019B00038B1786BC068C4686068854212D2B8627A
:1019C00002E04FF0FF30B8623868C06A00EB800078
:1019D00058F82000012800D90126F8690028C5D050
:1019E0000126C3E7201DFFF76FFDA06A18B104F1BF
:1019F0001800FFF769FDE06A01213A69814011434F
:101A0000396100EB800008EB8000211DFFF7A0FD8D
:101A1000E06A3968C96A8842C8D30126C6E700006F
:101A200014000020180300202DE9F04100240027B5
:101A30002D4D286B002807D0FFF796FD286B401E20
:101A40002863286B40B14AE0502080F31188BFF32F
:101A50004F8FBFF36F8FFEE7A868E8B3DFF88C8085
:101A600001261EE0D8F80C00C46804F11800FFF746
:101A70002BFD201DFFF728FDE06A2A6906FA00F118
:101A800011432961194900EB8000B43901EB800052
:101A9000211DFFF75DFDE06A2968C96A884200D30D
:101AA000EE61D8F800000028DCD10CB1FFF764FC2F
:101AB000AC6944B1FFF750FF00B1EE61641E002C29
:101AC000F8D10020A861E86930B10127084938073A
:101AD0000860BFF34F8F00E001E0BFF36F8FFFF7A7
:101AE00063FD3846BDE8F08114000020CC030020DF
:101AF00004ED00E0281B0008AD0D00080000000008
:101B00000000000080000000000000000000000055
:101B1000000000000000000001020304060708099D
:101B2000000000000102030464656661756C745472
:101B300061736B00541B0008000000207C00000053
:101B40007E0F0008D01B00087C0000208C430000A2
:101B50008E0F0008000000000100000010000000CF
:101B6000000000000024F40000000000000000005D
:101B70000000000000000000000000000000000065
:101B80000000000000000000000000000000000055
:101B90000000000000000000000000000000000045
:101BA0000000000000000000000000000000000035
:101BB0000000000000000000000000000000000025
:101BC0000000000000000000AAAAAAAA000000006D
:040000050800018965
:00000001FF
