:020000040800F2
:10000000D8040020A1010008371A0008B30F000827
:10001000351A000899040008391C00080000000087
:100020000000000000000000000000003B1A000873
:100030009B04000800000000391A00083D1A00085F
:10004000BB010008BB010008BB010008BB010008A0
:10005000BB010008BB010008BB010008BB01000890
:10006000BB010008BB010008BB010008BB01000880
:10007000BB010008BB010008BB010008BB01000870
:10008000BB010008BB010008BB010008BB01000860
:10009000BB010008BB010008BB010008BB01000850
:1000A000BB010008BB010008BB010008BB01000840
:1000B000BB010008BB010008BB010008BB01000830
:1000C000BB010008BB010008BB010008BB01000820
:1000D000BB010008BB010008BB010008BB01000810
:1000E000BB010008BB010008BB010008BB01000800
:1000F000BB010008BB010008BB010008BB010008F0
:10010000BB010008BB010008BB010008BB010008DF
:10011000BB010008BB010008BB010008111C00085E
:10012000BB010008BB010008BB010008BB010008BF
:10013000BB010008BB010008BB010008BB010008AF
:10014000BB010008BB010008BB010008BB0100089F
:10015000BB010008BB010008BB010008BB0100088F
:10016000BB010008BB010008BB010008BB0100087F
:10017000BB010008BB010008BB0100080000000033
:10018000BB010008BB010008DFF810D000F072F9D5
:1001900000480047AD420008AFF30080D8040020BB
:1001A0000648804706480047FEE7FEE7FEE7FEE711
:1001B000FEE7FEE7FEE7FEE7FEE7FEE7D51A0008EA
:1001C000890100082DE9F05F0546002092469B4614
:1001D00088460646814640241BE02846414647465D
:1001E000224600F0D9F853465A46C01A914110D31E
:1001F00011461846224600F0C0F82D1A67EB010898
:100200004F4622460120002100F0B7F817EB000905
:100210004E41201EA4F10104DFDC484631462A4647
:100220004346BDE8F09FD2B201E000F8012B491E21
:10023000FBD270470022F6E710B513460A46044683
:100240001946FFF7F0FF204610BD2DE9FE4F81EA69
:10025000030404F0004421F0004100944FF0000B2F
:1002600023F0004350EA01045ED052EA03045BD05D
:10027000C3F30A54C1F30A552C44A4F2F334019495
:10028000A0FB0254C1F3130141F48011C3F3130323
:1002900043F4801301FB024400FB034E840A970AD7
:1002A00044EA815447EA8357A4FB076802958D0A04
:1002B00005FB07854FEA932C04FB0C542705029D90
:1002C0004FEA065847EA1637B5EB08056EEB070C00
:1002D000870E920E47EA811742EA8312A7FB0201BA
:1002E000B6EB0B0164EB00042B0D43EA0C335E18F4
:1002F00044EB1C50DA465146E7FB0201C5F31304F8
:100300004FEA0B3343EA14534FEA0432019C43EAA9
:100310000603A4F10C040294009CCDE900B400F0A3
:100320005AF803B0BDE8F08F00200146F9E70EB59A
:1003300040F2334102910021CDE900110A460B46FB
:1003400000F049F803B000BDC1F30A5210B5C1F383
:10035000130140F2FF3341F480119A4201DA002088
:1003600010BD40F233439A42A2F2334203DC5242C0
:1003700000F012F810BD904010BD202A04DB203A96
:1003800000FA02F1002070479140C2F1200320FAE8
:1003900003F3194390407047202A04DB203A21FAE6
:1003A00002F00021704721FA02F3D040C2F120028E
:1003B000914008431946704710B5141E73F10004AC
:1003C00008DA401C41F1000192185B411A4301D147
:1003D00020F0010010BD2DE9F04D92469B4611B171
:1003E000B1FA81F202E0B0FA80F220329046FFF7D3
:1003F000C4FF04460F4640EA0A0041EA0B01534697
:100400005A46084313D0114653EA010019D0C8F1E7
:1004100040025046FFF7C0FF05460E46504659467B
:100420004246FFF7AAFF084305D0012004E020461A
:100430003946BDE8F08D0020054346EAE0762C43BE
:1004400037430A986305E40AA0EB08000022FD0A7E
:1004500044EA47540A3002D500200146E9E7010585
:1004600010196941DDE9084500196941BDE8F04D01
:10047000A2E70000064C074D06E0E06840F00103EB
:1004800094E8070098471034AC42F6D3FFF780FE9B
:100490001C8A00083C8A0008FEE7704772B6FEE737
:1004A00030B5B3F5804F05D06FF0704140F82210A1
:1004B000002030BD8C690B688D6823434C688989A6
:1004C000240144EA0524234343EA014150F8223041
:1004D000024C2340194340F82210E9E70000F0CF16
:1004E00010B50A6850F8223023F0010340F822309A
:1004F0008B68082B23D000224C681C43CB68134325
:100500000A691C4314434A691443CA6914430A6ABA
:1005100014434A6A14438A6A1443CA6A14430A6B2E
:1005200014438A692243CB6B1343064C096850F885
:100530002120A2431A4340F82120002010BD402270
:10054000DAE700007FFF0F0030B5D1E9003443EA5D
:1005500004138C688D89240244EA054423430C8AE1
:10056000641E43EA04540B7D89699B1E44EA0363BD
:100570000B43521C50F8221001F040410B4340F84D
:100580002230002030BD002A08D04FF0D0435B5C01
:1005900000F8013B491C521E002AF6D1704710B5E5
:1005A000002A08D04FF0D04310F8014B5C54491C8E
:1005B000521E002AF6D110BD034801680348406866
:1005C000C0EB00400844704724140040180000208D
:1005D00070B5044600F05AF90546601C02D0044884
:1005E0000078044400F052F9401BA042FAD370BDD9
:1005F00008000020F0B587B0142102A8FFF71AFE0A
:100600002048016800293AD10121016000241E48D8
:10061000016841F001010160006800F001000190F3
:100620004FF23F000290022503950494032605969D
:100630000C27069702A9154800F030F841F23F4018
:100640000290039504940596069702A9104800F0BD
:1006500025F84FF68370029003950494059606974B
:1006600002A90C4800F01AF84FF633700290039577
:1006700004940596069702A9074800F00FF807B002
:10068000F0BD000000000020383802400014024095
:100690000018024000100240000C02402DE9F84F03
:1006A0000022DFF89C914FF0010803274FF00F0C58
:1006B00009F1040AA9F1040B08FA02F50B682B40B2
:1006C000AB426ED10C7904F00304012C01D0022C52
:1006D00015D18668540007FA04FE26EA0E06D1F802
:1006E0000CE00EFA04FE4EEA060EC0F808E044687C
:1006F000AC430D79C5F300159540254345600C7951
:10070000E443A40708D0C568540007FA04F6B543CB
:100710008E68A6402E43C6600C7904F00304022CB8
:1007200011D1D40800EB8406356A5407E40E0CFAA4
:1007300004FE25EA0E05D1F810E00EFA04FE4EEA9A
:10074000050EC6F820E00568540007FA04F6B54324
:100750000E7906F00306A6402E4306604C6814F49A
:10076000403F67D0374C256845F4804525602468B4
:1007700004F480440094344C22F003052E19D6F87A
:10078000085894074FEA147E0CFA0EF4A5432F4C38
:10079000A04201D1002424E02D4CA04202D101242A
:1007A0001FE047E02B4CA04201D1022419E02A4C63
:1007B000A04201D1032414E0284CA04201D104241A
:1007C0000FE0274CA04201D105240AE0254CA042AD
:1007D00001D1062405E0244CA04201D1072400E009
:1007E000082404FA0EF42C43C6F80848D9F800404F
:1007F0009C434D68ED0200D51C43C9F80040DAF86F
:1008000000409C434D68AD0200D51C43CAF800402F
:10081000DBF800409C434D68AD0300D51C43CBF88A
:100820000040074D083D2C689C434E68F60300D5F8
:100830001C432C60521C102AFFF43EAFBDE8F88F19
:10084000083C0140443802400030014000000240B2
:100850000004024000080240000C02400010024068
:100860000014024000180240001C0240426921EAC4
:1008700002030A4043EA024181617047002A01D025
:1008800081617047090481617047000001488068F8
:100890007047000008000020024881680278114477
:1008A000816070470800002010B50B48016841F4D2
:1008B00000710160016841F480610160016841F4E8
:1008C00080710160032000F063F80F2000F006F84B
:1008D00000F026F8002010BD003C024070B5044630
:1008E0000D4D4FF47A712878B1FBF0F00B4909688F
:1008F000B1FBF0F000F049FB08B1012070BD102CF5
:1009000007D200222146501E00F022F86C60002021
:1009100070BD012070BD0000080000201400002000
:1009200008B50A48016841F480410160006800F49C
:10093000804000900548001F016841F0805101602F
:10094000006800F08050009008BD0000443802406C
:10095000F0B40D460D4B1B68C3F30223C3F107042B
:10096000042C00D90424191D072901D2002300E01A
:10097000DB1E012606FA04F1491E294099409E40DB
:10098000761E16403143F0BC01F057B90CED00E083
:1009900000F00701054A10684FF6FF03184040EACF
:1009A0000120034908431060704700000CED00E08F
:1009B0000000FA052DE9F04704460D46002C13D03F
:1009C000DFF82891D9F80000EFB200F00700A84244
:1009D0000CD289F80070D9F8000000F00700A84296
:1009E00004D00120BDE8F0870120FBE72068404EDD
:1009F000810712D5400703D5306840F4E0503060DD
:100A00002078000703D5306840F4604030603068DB
:100A1000A16820F0F000084330602078C00731D092
:100A2000334960680839012808D002280BD0032810
:100A300009D0096889070BD40120D3E70968890325
:100A400006D40120CEE70968890101D40120C9E755
:100A5000316821F0030101433160FFF717FF804641
:100A600041F2883A07E0FFF711FFA0EB080050457C
:100A700001D90320B6E73068616800F00C00B0EBE4
:100A8000810FF0D1D9F8000000F00700A84209D981
:100A900089F80070D9F8000000F00700A84201D0E2
:100AA00001209FE72078400705D53068E16820F4F1
:100AB000E050084330602078000706D5306821698F
:100AC00020F4604040EAC100306000F019F831685D
:100AD000084AC1F30311515CC84007490860074840
:100AE0000068FFF7FBFE00207CE70000003C0240AE
:100AF00008380240CA420008140000200C00002000
:100B000010B51748006810F00C01164816D04310B5
:100B1000042912D0082911D1114C241F216801F099
:100B20003F02216849020AD52068C0F38810A0FB63
:100B300003010023FFF746FB09E0184610BD2168BA
:100B40000023C1F38811A1FB0001FFF73BFB2168E3
:100B5000C1F30141491C4900B0FBF1F010BD000098
:100B6000083802400024F4002DE9F84F0446002C18
:100B700013D02078DFF8A083C007A8F1040556D071
:100B800008F104000168C1F3810101290CD000685B
:100B9000C0F38100022803D00DE00120BDE8F88FEA
:100BA000D8F80000400206D5286880033FD5606869
:100BB00070BB0120F2E76068B0F5803F10D0B0F55F
:100BC000A02F12D0286820F480302860286820F4F4
:100BD000802028606068E0B1FFF758FE064614E008
:100BE000286840F480302860F4E7286840F48020CA
:100BF0002860286840F480302860EBE7FFF746FE65
:100C0000801B642801D90320C8E728688003F5D534
:100C10000DE0FFF73BFE064606E0FFF737FE801BC0
:100C2000642801D90320B9E728688003F5D4207827
:100C3000BA4F80074FF0000948D5B748001D01683A
:100C400011F00C0F08D00068C0F38100022813D106
:100C5000D8F8000040020FD42868800704D5E06867
:100C6000012801D0012099E72868216920F0F800C7
:100C700040EAC100286029E0E068B8B1012038608E
:100C8000FFF704FE064606E0FFF700FE801B022881
:100C900001D9032082E728688007F5D528682169F3
:100CA00020F0F80040EAC10028600FE0C7F800908B
:100CB000FFF7ECFD064606E0FFF7E8FD801B022883
:100CC00001D903206AE728688007F5D42078000757
:100CD00029D5DFF844A2924861690AF1700A89B106
:100CE00001210160FFF7D2FD064606E0FFF7CEFDC9
:100CF000801B022801D9032050E7DAF800008007A2
:100D0000F4D510E0C0F80090FFF7C0FD064606E0FD
:100D1000FFF7BCFD801B022801D903203EE7DAF86B
:100D200000008007F4D42078400778D54FF0000AFF
:100D300079483C300068C0000BD477483C300168EB
:100D400041F080510160006800F0805000904FF049
:100D5000010ADFF8D0B1DBF80000C00514D4DBF8DD
:100D6000000040F48070CBF80000FFF78FFD0646CE
:100D700006E0FFF78BFD801B022801D903200DE759
:100D8000DBF80000C005F4D5634EA0686C3601287E
:100D90000FD0052812D0306820F001003060306894
:100DA00020F004003060A068F8B1FFF76FFD8346C3
:100DB00017E0306840F001003060F4E7306840F040
:100DC00004003060306840F001003060EBE7FFF76E
:100DD0005DFDA0EB0B0141F28830814201D9032077
:100DE000DCE630688007F2D510E0FFF74FFD834660
:100DF00009E0FFF74BFDA0EB0B0141F28830814287
:100E000001D90320CAE630688007F2D4BAF1010F95
:100E100005D141483C30016821F080510160A06952
:100E2000C0B33D49091D09684FF0FF36C1F3810188
:100E3000022946D0022805D0C7F86090FFF726FDAA
:100E400004463AE0C7F86090FFF720FD814607E0CE
:100E5000FFF71CFDA0EB0900022801D903209DE645
:100E600028688001F4D4D4E907010843616AA26AC2
:100E7000890106EB520241EA0241084394F82C1022
:100E800040EA0160C8F8000001203866FFF7FEFC68
:100E9000044607E03DE0FFF7F9FC001B022801D9FA
:100EA00003207BE628688001F5D532E0FFF7EEFCF1
:100EB000001B022801D9032070E628688001F5D4C0
:100EC00027E0012823D0D8F80000E26900F480016F
:100ED00091421AD1226A00F03F01914215D147F6A2
:100EE000C071626A0140B1EB821F0ED1A26A00F4A8
:100EF000403106EB5202B1EB024F06D194F82C10B0
:100F000000F07060B0EB016F03D0012046E60120D5
:100F100044E6002042E60000043802400000474258
:100F2000800E47420070004070B504460E461546DC
:100F3000002C03D094F8490010B107E0012070BDE7
:100F4000002084F84800204600F01DF804F1080154
:100F50002068FFF7C5FA3146A2682068FFF7F4FA67
:100F6000D4E901022946236BFFF79AFAA1682068A9
:100F700050F8212042F0010240F82120012084F89D
:100F80004900002070BDFFF735BB10B5401EB0F121
:100F9000807F01D3012010BD4FF0E02460610F215C
:100FA000601700F04AFE0020A061072020610020A9
:100FB00010BDFEE770B5064600240A4A1188558820
:100FC0004D430021084600F0F7F900F07FFBB0B276
:100FD0004FF0D84102E0A1F88000641CAC42FAD383
:100FE00070BD0000C80000202DE9F04F304B987113
:100FF00019462C272B252A2689884FF430584FF480
:1010000028594FF4487441F6631A4FF0F00B45F23B
:10101000105E4FF4A07C4FF4F07200280ED0A3F8BD
:1010200000C0A3F802B071452BD1A3F80880A3F843
:101030000A90280298811C805A802DE0A3F800B005
:10104000A3F802C0714509D1A3F80880A3F80A905B
:101050004FF42C5098811A805C800AE0514505D1EC
:101060001F815D819E811A805C8002E01F815E810C
:101070009D81A1F5A640103815D1A3F800C05A8073
:1010800011E0514505D11F815E819D811C805A80F0
:1010900002E01F815E819D81A1F5A640103802D13A
:1010A0001A80A3F802C0BDE8F04F002000F0ACB8F1
:1010B000C80000202DE9F04104460D46334E2F0AAA
:1010C0003046B1884089A1F5AA434FEA1428103B65
:1010D0001AD0A1F5C853633B32D000F0EBFA40467A
:1010E00000F0DCFAE0B200F0D9FAB08900F0E2FAE0
:1010F000384600F0D3FAE8B200F0D0FA244831893B
:1011000001804280BDE8F08100F0D4FA404600F052
:10111000C5FA7089401C80B200F0CCFAE0B200F051
:10112000BDFAB08900F0C6FA384600F0B7FAB089C7
:10113000401C80B200F0BEFAE8B200F0AFFADDE782
:10114000B17919B93188091B491E8CB200F0B2FA85
:101150004FEA1428404600F0A1FAE0B200F09EFAEF
:10116000404600F09BFAE0B200F098FAB08900F037
:10117000A1FA384600F092FAE8B200F08FFA384649
:1011800000F08CFAE8B200F089FAB7E7C800002056
:101190007E00006C0346012000E05843491EC9B29E
:1011A000FBD2704708B5034800880090BDF80000E6
:1011B00008BD00008000006C10B50246BE2000F0A3
:1011C00079FA052000F06AFA1046FFF7B0F89FEDB3
:1011D0000C1B53EC112BFFF738F8FFF7B5F880B272
:1011E00000F05CFA012000F059FAFF2000F056FAF6
:1011F000002000F053FABDE81040002000F04EBA85
:10120000666666666666044070B50023694C41F602
:1012100063162146A2798988012A01D1B14202D1FF
:10122000C2B9B14216D1082814D2DFE800F0040692
:10123000080A0C0E101206200CE007200AE0042019
:1012400008E0052006E0012004E0002002E0032081
:1012500000E00220082812D2DFE800F0110406089E
:101260000A0C0E1080230AE0402308E0C02306E0A9
:10127000202304E0602302E0A02300E0E02345F205
:101280001055A94202D14FF4585000E03620A1F584
:101290001342413A03D0A1F5EE42893A01D143F01D
:1012A0000803194600F01CFAA288B2420ED0980634
:1012B00006D520886188884208D22180608005E0B8
:1012C00020886188884201D921806080AA4247D164
:1012D000608900F0EFF9002000F0E0F96089401C1F
:1012E00080B200F0E7F9002000F0D8F96089801C96
:1012F00080B200F0DFF92088401EC0F30F2000F01C
:10130000CDF96089C01C80B200F0D4F92078401E6D
:10131000C0B200F0C3F9A08900F0CCF9002000F0C1
:10132000BDF9A089401C80B200F0C4F9002000F093
:10133000B5F9A089801C80B200F0BCF96088401E1D
:10134000C0F30F2000F0AAF9A089C01C80B200F001
:10135000B1F9A078BDE87040401EC0B200F09EB95F
:10136000608900F0A7F9002000F098F9002000F053
:1013700095F92088401EC0F30F2000F08FF92078E7
:10138000401EC0B200F08AF9A08900F093F9002055
:1013900000F084F9002000F081F96088401EC0F35D
:1013A0000F2000F07BF9A078BDE87040401EC0B26D
:1013B00000F074B9C8000020F0B502460C463E4D5E
:1013C000260A2846A988170A4089A1F5C853633B15
:1013D00016D0A1F5AA43103B50D000F06BF9384667
:1013E00000F05CF9D0B200F059F9A88900F062F978
:1013F000304600F053F9E0B2BDE8F04000F04EB9DD
:10140000A97941B300F056F9384600F047F9D0B257
:1014100000F044F92888401EC0F30F2000F03EF988
:101420002878401EC0B200F039F9A88900F042F9CE
:10143000304600F033F9E0B200F030F96888401E21
:10144000C0F30F2000F02AF9A878BDE8F040401E54
:10145000C0B200F023B92988891A491E8AB200F067
:1014600029F9002000F01AF9002000F017F9100AFD
:1014700000F014F9D0B200F011F9D6E700F01AF933
:10148000384600F00BF96889401C80B200F012F970
:10149000D0B200F003F9A88900F00CF9304600F052
:1014A000FDF8A889401C80B200F004F9E0B2BDE864
:1014B000F04000F0F3B80000C80000202DE9F84F1C
:1014C00082460D461F46AB46780701D0012000E05A
:1014D000002000EBD70079084843C0B20090203AC2
:1014E00002F0FF09002650E00C2F14D0102F19D065
:1014F000182F1CD0202F4BD1264800EBC910845D3B
:101500004FF00008200619D52348294602685046A6
:10151000FFF7D0FD1AE0214909EB490001EB8000FB
:10152000845DEDE71E4800EB0910845DE8E71D4986
:1015300009EBC90001EB8000845DE1E70A9828B956
:101540001548294642685046FFF7B4FD6006040E70
:101550006D1CADB214484088A84219D9A5EB0B0008
:10156000B84209D15D460AF1010A1FFA8AFA0E480B
:10157000008850450CD906E008F1010808F0FF0882
:10158000B8F1080FBED3761CF6B200988642ABD3F2
:10159000BDE8F88F9A5A000820000020DA420008BF
:1015A0004E4700083E4D0008C80000202DE9F84FC6
:1015B0000446DDE90A760D4604F0FF0810191FFA0B
:1015C00080F958191FFA80FA4FF0000B11E04C45D2
:1015D00002D34446E81985B255450FD23B46294609
:1015E0002046CDF800B0FFF769FF04EB570084B246
:1015F000761C3278A2F120005E28E8D9BDE8F88F89
:101600002DE9FF4F81B08046DDF83CA093461F4690
:101610004FF0000900240E980AF00105460821E069
:10162000381B401EC1B20A20FFF7B4FDBBFBF0F02F
:101630000A21B0FBF1F201FB1200B9F1000F05D154
:10164000791E8C4202DA90B14FF001093030C2B2FB
:1016500006FB048080B200950E9B0299FFF72EFFD7
:10166000641CE4B2BC42DBD305B0BDE8F08F5FEA96
:101670000A6009D506FB048080B2009530220E9BDB
:101680000299FFF71BFFEBE706FB048080B2009591
:1016900020220E9B0299FFF711FFE1E701B5BDF88B
:1016A00000000090BDF800000149088008BD00005E
:1016B0008000006C01B5BDF800000090BDF800008E
:1016C0000149088008BD00007E00006C0248034903
:1016D0000089088070470000C80000207E00006C70
:1016E000014A1080518070477E00006C2DE9F04166
:1016F0000268264C264D274E274F284B4FF0804C32
:10170000A04209D0604507D0A84205D0B04203D01E
:10171000B84201D0984205D1D1F8048022F070027D
:1017200042EA0802A0421BD0604519D0A84217D057
:10173000B04215D0B84213D0984211D0184DA842EB
:101740000ED0184DA8420BD0174DA84208D0174D07
:10175000A84205D0164DA84202D0164DA84203D18A
:10176000CD6822F440722A4302608A68C2620A8805
:101770008262A04201D0984201D1096901634169A6
:1017800041F0010141610020BDE8F081000001400D
:101790000004004000080040000C0040000401402C
:1017A0000040014000440140004801400018004052
:1017B000001C0040002000402DE9F04F8FB01C219C
:1017C00008A8FEF737FD1C2101A8FEF733FD3248BB
:1017D0004FF02048C0F80080DFF8C090C0F80490B7
:1017E0004FF0060AC0F808A00024C4600461102568
:1017F00045618461C461046244624FF4805BC0F857
:1018000028B0C462A9020163446384634464022073
:1018100008900F2609960A950B940C9511270D97A1
:101820000E940920019002960820039004940595D7
:101830000697079401AA08A91748FFF775FB08B196
:10184000FEF72CFE14485030C0F80080C0F8049019
:1018500004218160C460046145618461C4610462E3
:101860004462C0F828B0C46204634463846344647F
:1018700008940996CDF828A00B940C950D970E941A
:10188000002208A9FFF750FB002801D0FEF706FE52
:101890000FB0BDE8F08F000028000020040100A078
:1018A0002DE9F04387B0142102A8FEF7C3FC0026FF
:1018B0003748016841F010010160016801F0100132
:1018C0000191016841F020010160016801F02001EF
:1018D0000191016841F080010160016801F080011F
:1018E0000191016841F001010160016801F001010D
:1018F0000191016841F040010160016801F040017F
:101900000191016841F002010160016801F00201EA
:101910000191016841F008010160006800F00800D1
:101920000190DFF870804FF4C065012229464046DF
:10193000FEF7A4FFDFF860904FF40047002239461D
:101940004846FEF79BFF182002900396012404945A
:1019500002A91248FEF7A2FE029503940494022500
:10196000059502A94046FEF799FE02940396049459
:1019700002A90B48FEF792FE029703940494059582
:1019800002A94846FEF78AFE07B0BDE8F0830000D2
:1019900030380240001402400004024000100240AF
:1019A0000000024010B586B0142101A8FEF742FCE9
:1019B0001B48016841F020010160006800F0200030
:1019C000009018480068C0F30220011D072901D2C9
:1019D000002000E0C01E002202FA00F108011249B6
:1019E000087012494FF40000C1F800015320ADF80F
:1019F000040002924FF6FF7003900D4C01A920469F
:101A0000FFF774FE206820F080002060606820F0FE
:101A100070006060A06820F08000A06006B010BD7B
:101A2000403802400CED00E037E400E004E000E064
:101A300000140040FEE7FEE770477047FEF72CBF3A
:101A400030B593B0302107A8FEF7F4FB142102A8AB
:101A5000FEF7F0FB00251D48016841F08051016050
:101A6000006800F0805001901948016841F48041FD
:101A70000160006800F4804001900120079000049C
:101A8000089002240D9480010E9004200F90A8214C
:101A900010911194129007A8FFF766F808B1FEF7AD
:101AA000FDFC0F200290039404954FF4A050059084
:101AB0004FF480500690052102A8FEF77BFF002816
:101AC00001D0FEF7EBFC13B030BD000040380240FF
:101AD000007000400248016841F4700101607047E5
:101AE00088ED00E07CB50024012000F0C5F800F08E
:101AF000FBF84FF6FF70FFF75DFA224E4FF4784087
:101B00003060102520A0CDE900502B46C82232219C
:101B10001E20FFF74BFD21A0CDE900501023C82265
:101B200046211E20FFF742FD1FA0CDE900501023E3
:101B3000C8225A211E20FFF739FD1FA0CDE9005011
:101B40001023C8226E211E20FFF730FD1DA0CDE915
:101B500000501023C82282211E20FFF727FD1DA060
:101B6000CDE900501023C82296211E20FFF71EFD4C
:101B70001F2030601B481C4940F82440641C8C42E4
:101B8000FAD37CBD200000204578706C6F726572BE
:101B90002053544D33324634000000005352414D1F
:101BA000205445535400000041544F4D40414C498E
:101BB000454E54454B000000323031372F342F3121
:101BC000380000004B4559303A5465737420537205
:101BD000616D00004B4559313A54455354204461DE
:101BE000746100000000006890D0030010B5AA21C5
:101BF0003C2002F007FB4FF480610448FEF736FEFC
:101C0000BDE810404FF4FA7000F04AB800140240EA
:101C1000AFF3008006480169C1F30001002906D036
:101C20006FF00101016103484168491C4160704740
:101C30000014004018000020FEE70907090E0028E4
:101C400004DB00F1E02080F80014704700F00F0082
:101C500000F1E02080F8141D704702E008C8121F50
:101C600008C1002AFAD170477047002001E001C185
:101C7000121F002AFBD17047074908700748C16846
:101C800041F00101C1606FF001010161016841F0A3
:101C9000010101607047000018000020001400409E
:101CA00010B502460A48007800280CD0FEF784FCE4
:101CB00002EB4201C1EBC21100EBC102FEF77CFC5A
:101CC0009042FBD910BDBDE810401046FEF780BC25
:101CD0001800002000B50246FEF76EFC0244FEF735
:101CE0006BFC9042FBD900BD2DE9F05FD320FFF7DC
:101CF000E1FCFFF757FAFE4DA880FFF753FAA880E2
:101D0000FFF750FA4FF6FF7909EA0020A880FFF7A5
:101D100049FAA9880843A88049F2413A45F21037A8
:101D200045F210564FF4704B41F6631847F2897430
:101D300050457AD00420FFF7BDFCFFF733FAA880A6
:101D4000FFF730FAA880FFF72DFA09EA0020A880F3
:101D5000FFF728FAA9880843A880A0F50541523961
:101D600000D1AC80A888A0425FD0D420FFF7A2FCAD
:101D7000FFF718FAA880FFF715FAA880FFF712FA04
:101D800009EA0020A880FFF70DFAA9880843A88077
:101D9000B8424AD055215846FFF7A2FCAA214FF27B
:101DA0000100FFF79DFC52214FF20200FFF798FC63
:101DB00008214FF20300FFF793FC01214FF20400CA
:101DC000FFF78EFC4FF44540FFF774FCFFF7EAF98C
:101DD00009EA0020A8804CF20150FFF76BFCFFF7E6
:101DE000E1F9A9880843A8800520FFF759FFA888D2
:101DF000B0F5004F00D1AE80A888B04215D0A12028
:101E0000FFF758FCFFF7CEF9A880FFF7CBF909EAF6
:101E10000020A880FFF7C6F9A9880843A880A0F58C
:101E2000AE41613901D1A5F80480A88850457CD124
:101E3000CF20FFF73FFC0020FFF730FCC120FFF769
:101E40002DFC3020FFF72AFCED20FFF733FC642047
:101E5000FFF724FC0320FFF721FC1220FFF71EFCF4
:101E60008120FFF71BFCE820FFF724FC8520FFF70B
:101E700015FC1020FFF712FC7A20FFF70FFCCB2097
:101E8000FFF718FC3920FFF709FC2C20FFF706FCB0
:101E90000020FFF703FC3420FFF700FC0220FFF7CF
:101EA000FDFBF720FFF706FC2020FFF7F7FBEA20F9
:101EB000FFF700FC0020FFF7F1FB0020FFF7EEFB2F
:101EC000C020FFF7F7FB1B20FFF7E8FBC120FFF75F
:101ED000F1FB0120FFF7E2FBC520FFF7EBFB302011
:101EE000FFF7DCFB3020FFF7D9FBC720FFF7E2FB51
:101EF000B720FFF7D3FB3620FFF7DCFB4820FFF7C6
:101F0000CDFB3A20FFF7D6FB5520FFF7C7FBB120EA
:101F1000FFF7D0FB0020FFF7C1FB1A20FFF7BEFB45
:101F2000B620FFF7C7FB0A2000E099E0FFF7B6FBF9
:101F3000A220FFF7B3FBF220FFF7BCFB0020FFF766
:101F4000ADFB2620FFF7B6FB0120FFF7A7FBE02043
:101F5000FFF7B0FB0F20FFF7A1FB2A20FFF79EFB46
:101F60002820FFF79BFB0820FFF798FB0E20FFF7C8
:101F700095FB0820FFF792FB5420FFF78FFBA92069
:101F8000FFF78CFB4320FFF789FB0A20FFF786FB56
:101F90000F20FFF783FB0020FFF780FB0020FFF7F7
:101FA0007DFB0020FFF77AFB0020FFF777FBE120A5
:101FB000FFF780FB0020FFF771FB1520FFF76EFB9A
:101FC0001720FFF76BFB0720FFF768FB1120FFF7D7
:101FD00065FB0620FFF762FB2B20FFF75FFB562017
:101FE000FFF75CFB3C20FFF759FB0520FFF756FB92
:101FF0001020FFF753FB0F20FFF750FB3F20FFF7A8
:102000004DFB3F20FFF74AFB0F20FFF747FB2B203C
:10201000FFF750FB0020FFF741FB0020FFF73EFBDE
:102020000120FFF73BFB3F20FFF738FB2A20FFF79B
:1020300041FB0020FFF732FB0020FFF72FFB0020C1
:10204000FFF72CFBEF20FFF729FB1120FFF732FBF6
:102050007820FFF725FE2920FFF72CFB02F097B828
:10206000A0427CD11120FFF725FB7820FFF718FE56
:102070003620FFF71FFB0020FFF710FB3A20FFF789
:1020800019FB0520FFF70AFBB220FFF713FB0C201A
:10209000FFF704FB0C20FFF701FB0020FFF7FEFA1F
:1020A0003320FFF7FBFA3320FFF7F8FAB720FFF7EA
:1020B00001FB3520FFF7F2FABB20FFF7FBFA3220D5
:1020C000FFF7ECFAC020FFF7F5FA0C20FFF7E6FA6D
:1020D000C220FFF7EFFA0120FFF7E0FAC320FFF775
:1020E000E9FA1020FFF7DAFAC420FFF7E3FA01E07B
:1020F000C80000202020FFF7D1FAC620FFF7DAFA47
:102100000F20FFF7CBFAD020FFF7D4FAA420FFF777
:10211000C5FAA120FFF7C2FAE020FFF7CBFAD020E2
:10212000FFF7BCFA0020FFF7B9FA0220FFF7B6FA72
:102130000720FFF7B3FA0A20FFF7B0FA2820FFF7CD
:10214000ADFA3220FFF7AAFA4420FFF7A7FA42209F
:10215000FFF7A4FA0620FFF7A1FA0E2000E059E0ED
:10216000FFF79CFA1220FFF799FA1420FFF796FA6E
:102170001720FFF793FAE120FFF79CFAD020FFF732
:102180008DFA0020FFF78AFA0220FFF787FA07206E
:10219000FFF784FA0A20FFF781FA2820FFF77EFA7A
:1021A0003120FFF77BFA5420FFF778FA4720FFF73A
:1021B00075FA0E20FFF772FA1C20FFF76FFA17204E
:1021C000FFF76CFA1B20FFF769FA1E20FFF766FA8B
:1021D0002A20FFF76FFA0020FFF760FA0020FFF7D0
:1021E0005DFA0020FFF75AFAEF20FFF757FA2B208D
:1021F000FFF760FA0020FFF751FA0020FFF74EFAD0
:102200000120FFF74BFA3F20FFF748FA2920FFF79C
:1022100051FA23E7B8427CD1ED20FFF74BFA0120B9
:10222000FFF73CFAFE20FFF739FAEE20FFF742FAFB
:10223000DE20FFF733FA2120FFF730FAF120FFF715
:1022400039FA0120FFF72AFADF20FFF733FA1020CE
:10225000FFF724FAC420FFF72DFA8F20FFF71EFAAC
:10226000C620FFF727FA0020FFF718FAE220FFF751
:1022700015FAE220FFF712FAE220FFF70FFABF206B
:10228000FFF718FAAA20FFF709FAB020FFF712FAB1
:102290000D20FFF703FA0020FFF700FA0D20FFF7EB
:1022A000FDF90020FFF7FAF91120FFF7F7F90020F8
:1022B000FFF7F4F91920FFF7F1F90020FFF7EEF925
:1022C0002120FFF7EBF90020FFF7E8F92D20FFF7B9
:1022D000E5F90020FFF7E2F93D20FFF7DFF90020E4
:1022E000FFF7DCF95D20FFF7D9F90020FFF7D6F9F9
:1022F0005D20FFF7D3F90020FFF7D0F9B120FFF7F9
:10230000D9F98020FFF7CAF90020FFF7C7F98B2021
:1023100000E0FCE3FFF7C2F90020FFF7BFF99620C9
:10232000FFF7BCF90020FFF7B9F9B220FFF7C2F9B7
:102330000020FFF7B3F90020FFF7B0F90220FFF704
:10234000ADF90020FFF7AAF90320FFF7A7F9002055
:10235000FFF7A4F9B320FFF7ADF90020FFF79EF9CE
:102360000020FFF79BF90020FFF798F90020FFF706
:1023700095F90020FFF792F90020FFF78FF9002070
:10238000FFF78CF90020FFF789F90020FFF786F9A5
:102390000020FFF783F90020FFF780F90020FFF706
:1023A0007DF90020FFF77AF90020FFF777F9002088
:1023B000FFF774F90020FFF771F90020FFF76EF9BD
:1023C0000020FFF76BF90020FFF768F90020FFF706
:1023D00065F90020FFF762F90020FFF75FF90020A0
:1023E000FFF75CF90020FFF759F9B420FFF762F915
:1023F0008B20FFF753F90020FFF750F99620FFF7E5
:102400004DF90020FFF74AF9A120FFF747F9002016
:10241000FFF744F9B520FFF74DF90220FFF73EF929
:102420000020FFF73BF90320FFF738F90020FFF702
:1024300035F90420FFF732F90020FFF72FF9B62015
:10244000FFF738F90020FFF729F90020FFF726F9F8
:10245000B720FFF72FF90020FFF720F90020FFF742
:102460001DF93F20FFF71AF90020FFF717F95E204A
:10247000FFF714F90020FFF711F96420FFF70EF9B8
:102480000020FFF70BF98C20FFF708F90020FFF779
:1024900005F9AC20FFF702F90020FFF7FFF8DC2078
:1024A000FFF7FCF80020FFF7F9F87020FFF7F6F8C7
:1024B0000020FFF7F3F89020FFF7F0F80020FFF777
:1024C000EDF8EB20FFF7EAF80020FFF7E7F8DC2053
:1024D000FFF7E4F80020FFF7E1F8B820FFF7EAF88B
:1024E0000020FFF7DBF80020FFF7D8F80020FFF707
:1024F000D5F80020FFF7D2F80020FFF7CFF8002032
:10250000FFF7CCF80020FFF7C9F80020FFF7C6F866
:10251000BA20FFF7CFF82420FFF7C0F80020FFF71C
:10252000BDF80020FFF7BAF80020FFF7B7F8C12088
:10253000FFF7C0F82020FFF7B1F80020FFF7AEF852
:102540005420FFF7ABF80020FFF7A8F8FF20FFF7B3
:10255000A5F80020FFF7A2F8C220FFF7ABF80A2089
:10256000FFF79CF80020FFF799F80420FFF796F892
:102570000020FFF793F8C320FFF79CF83C20FFF7FB
:102580008DF80020FFF78AF83A20FFF787F800203F
:10259000FFF784F83920FFF781F80020FFF77EF875
:1025A0003720FFF77BF80020FFF778F83C20FFF793
:1025B00075F80020FFF772F83620FFF76FF800205B
:1025C000FFF76CF83220FFF769F80020FFF766F894
:1025D0002F20FFF763F80020FFF760F82C20FFF7AB
:1025E0005DF80020FFF75AF82920FFF757F8002080
:1025F000FFF754F82620FFF751F80020FFF74EF8B8
:102600002420FFF74BF80020FFF748F82420FFF7BD
:1026100045F80020FFF742F82320FFF73FF800209D
:10262000FFF73CF83C20FFF739F80020FFF736F8B9
:102630003620FFF733F80020FFF730F83220FFF79D
:102640002DF80020FFF72AF82F20FFF727F80020A9
:10265000FFF724F82C20FFF721F80020FFF71EF8E1
:102660002920FFF71BF80020FFF718F82620FFF7B6
:1026700015F80020FFF712F82420FFF70FF80020CC
:10268000FFF70CF82420FFF709F80020FFF706F801
:102690002320FFF703F80020FFF700F8C420FFF71E
:1026A00009F86220FEF7FAFF0020FEF7F7FF052089
:1026B000FEF7F4FF0020FEF7F1FF8420FEF7EEFFA7
:1026C0000020FEF7EBFFF020FEF7E8FF0020FEF70A
:1026D000E5FF1820FEF7E2FF0020FEF7DFFFA42051
:1026E000FEF7DCFF0020FEF7D9FF1820FEF7D6FF2B
:1026F0000020FEF7D3FF5020FEF7D0FF0020FEF7AA
:10270000CDFF0C20FEF7CAFF0020FEF7C7FF172001
:10271000FEF7C4FF0020FEF7C1FF9520FEF7BEFFC5
:102720000020FEF7BBFFF320FEF7B8FF0020FEF706
:10273000B5FFE620FEF7B2FF0020FEF7AFFFC52091
:10274000FEF7B8FF3220FEF7A9FF0020FEF7A6FF34
:102750004420FEF7A3FF0020FEF7A0FF6520FEF750
:102760009DFF0020FEF79AFF7620FEF797FF0020DE
:10277000FEF794FF8820FEF791FF0020FEF78EFF02
:10278000C620FEF797FF2020FEF788FF0020FEF707
:1027900085FF1720FEF782FF0020FEF77FFF012054
:1027A000FEF77CFF0020FEF779FFC720FEF782FFCF
:1027B0000020FEF773FF0020FEF770FF0020FEF7F9
:1027C0006DFF0020FEF76AFFC820FEF773FF0020B0
:1027D000FEF764FF0020FEF761FF0020FEF75EFFBA
:1027E0000020FEF75BFFC920FEF764FF0020FEF724
:1027F00055FF0020FEF752FF0020FEF74FFF00209C
:10280000FEF74CFF0020FEF749FF0020FEF746FFD1
:102810000020FEF743FF0020FEF740FF0020FEF7F8
:102820003DFF0020FEF73AFF0020FEF737FF0020B3
:10283000FEF734FF0020FEF731FF0020FEF72EFFE9
:102840000020FEF72BFF0020FEF728FFE020FEF718
:1028500031FF1620FEF722FF0020FEF71FFF1C208D
:10286000FEF71CFF0020FEF719FF2120FEF716FFE0
:102870000020FEF713FF3620FEF710FF0020FEF7C2
:102880000DFF4620FEF70AFF0020FEF707FF52204B
:10289000FEF704FF0020FEF701FF6420FEF7FEFEB6
:1028A0000020FEF7FBFE7A20FEF7F8FE0020FEF780
:1028B000F5FE8B20FEF7F2FE0020FEF7EFFE9920DA
:1028C000FEF7ECFE0020FEF7E9FEA820FEF7E6FE8C
:1028D0000020FEF7E3FEB920FEF7E0FE0020FEF741
:1028E000DDFEC420FEF7DAFE0020FEF7D7FECA2088
:1028F000FEF7D4FE0020FEF7D1FED220FEF7CEFE7A
:102900000020FEF7CBFED920FEF7C8FE0020FEF720
:10291000C5FEE020FEF7C2FE0020FEF7BFFEF3205A
:10292000FEF7BCFE0020FEF7B9FEE120FEF7C2FE76
:102930001620FEF7B3FE0020FEF7B0FE1C20FEF7C7
:10294000ADFE0020FEF7AAFE2220FEF7A7FE002023
:10295000FEF7A4FE3620FEF7A1FE0020FEF79EFE45
:102960004520FEF79BFE0020FEF798FE5220FEF762
:1029700095FE0020FEF792FE6420FEF78FFE0020F9
:10298000FEF78CFE7A20FEF789FE0020FEF786FE19
:102990008B20FEF783FE0020FEF780FE9920FEF7D5
:1029A0007DFE0020FEF77AFEA820FEF777FE0020CD
:1029B000FEF774FEB920FEF771FE0020FEF76EFEF2
:1029C000C420FEF76BFE0020FEF768FECA20FEF76B
:1029D00065FE0020FEF762FED220FEF75FFE0020BB
:1029E000FEF75CFED820FEF759FE0020FEF756FEEB
:1029F000E020FEF753FE0020FEF750FEF320FEF726
:102A00004DFE0020FEF74AFEE220FEF753FE0520B1
:102A1000FEF744FE0020FEF741FE0B20FEF73EFECF
:102A20000020FEF73BFE1B20FEF738FE0020FEF7DD
:102A300035FE3420FEF732FE0020FEF72FFE442044
:102A4000FEF72CFE0020FEF729FE4F20FEF726FEA3
:102A50000020FEF723FE6120FEF720FE0020FEF797
:102A60001DFE7920FEF71AFE0020FEF717FE8820D3
:102A7000FEF714FE0020FEF711FE9720FEF70EFE73
:102A80000020FEF70BFEA620FEF708FE0020FEF752
:102A900005FEB720FEF702FE0020FEF7FFFDC22074
:102AA000FEF7FCFD0020FEF7F9FDC720FEF7F6FD5E
:102AB0000020FEF7F3FDD120FEF7F0FD0020FEF729
:102AC000EDFDD620FEF7EAFD0020FEF7E7FDDD2054
:102AD000FEF7E4FD0020FEF7E1FDF320FEF7DEFD4A
:102AE0000020FEF7DBFDE320FEF7E4FD0520FEF706
:102AF000D5FD0020FEF7D2FD0A20FEF7CFFD002015
:102B0000FEF7CCFD1C20FEF7C9FD002000E0FFE22F
:102B1000FEF7C4FD3320FEF7C1FD0020FEF7BEFD29
:102B20004420FEF7BBFD0020FEF7B8FD5020FEF765
:102B3000B5FD0020FEF7B2FD6220FEF7AFFD0020DC
:102B4000FEF7ACFD7820FEF7A9FD0020FEF7A6FDFC
:102B50008820FEF7A3FD0020FEF7A0FD9720FEF7DA
:102B60009DFD0020FEF79AFDA620FEF797FD0020B0
:102B7000FEF794FDB720FEF791FD0020FEF78EFDD5
:102B8000C220FEF78BFD0020FEF788FDC720FEF770
:102B900085FD0020FEF782FDD120FEF77FFD00209D
:102BA000FEF77CFDD520FEF779FD0020FEF776FDCF
:102BB000DD20FEF773FD0020FEF770FDF320FEF729
:102BC0006DFD0020FEF76AFDE420FEF773FD012095
:102BD000FEF764FD0020FEF761FD0120FEF75EFDBB
:102BE0000020FEF75BFD0220FEF758FD0020FEF7F7
:102BF00055FD2A20FEF752FD0020FEF74FFD3C2038
:102C0000FEF74CFD0020FEF749FD4B20FEF746FD88
:102C10000020FEF743FD5D20FEF740FD0020FEF79B
:102C20003DFD7420FEF73AFD0020FEF737FD8420BD
:102C3000FEF734FD0020FEF731FD9320FEF72EFD58
:102C40000020FEF72BFDA220FEF728FD0020FEF756
:102C500025FDB320FEF722FD0020FEF71FFDBE205C
:102C6000FEF71CFD0020FEF719FDC420FEF716FD3F
:102C70000020FEF713FDCD20FEF710FD0020FEF72B
:102C80000DFDD320FEF70AFD0020FEF707FDDD2035
:102C9000FEF704FD0020FEF701FDF320FEF7FEFC29
:102CA0000020FEF7FBFCE520FEF704FD0020FEF708
:102CB000F5FC0020FEF7F2FC0020FEF7EFFC002000
:102CC000FEF7ECFC0220FEF7E9FC0020FEF7E6FC34
:102CD0002920FEF7E3FC0020FEF7E0FC3C20FEF795
:102CE000DDFC0020FEF7DAFC4B20FEF7D7FC0020CD
:102CF000FEF7D4FC5D20FEF7D1FC0020FEF7CEFCF1
:102D00007420FEF7CBFC0020FEF7C8FC8420FEF701
:102D1000C5FC0020FEF7C2FC9320FEF7BFFC00209C
:102D2000FEF7BCFCA220FEF7B9FC0020FEF7B6FCC3
:102D3000B320FEF7B3FC0020FEF7B0FCBE20FEF788
:102D4000ADFC0020FEF7AAFCC420FEF7A7FC002083
:102D5000FEF7A4FCCD20FEF7A1FC0020FEF79EFCB0
:102D6000D320FEF79BFC0020FEF798FCDC20FEF74A
:102D700095FC0020FEF792FCF320FEF78FFC00206C
:102D8000FEF78CFCE620FEF795FC1120FEF786FC92
:102D90000020FEF783FC3420FEF780FC0020FEF7C5
:102DA0007DFC5620FEF77AFC0020FEF777FC7620AB
:102DB000FEF774FC0020FEF771FC7720FEF76EFC36
:102DC0000020FEF76BFC6620FEF768FC0020FEF793
:102DD00065FC8820FEF762FC0020FEF75FFC99206E
:102DE000FEF75CFC0020FEF759FCBB20FEF756FC0A
:102DF0000020FEF753FC9920FEF750FC0020FEF760
:102E00004DFC6620FEF74AFC0020FEF747FC5520EB
:102E1000FEF744FC0020FEF741FC5520FEF73EFC87
:102E20000020FEF73BFC4520FEF738FC0020FEF7B3
:102E300035FC4320FEF732FC0020FEF72FFC442037
:102E4000FEF72CFC0020FEF729FCE720FEF732FC01
:102E50003220FEF723FC0020FEF720FC5520FEF771
:102E60001DFC0020FEF71AFC7620FEF717FC002060
:102E7000FEF714FC6620FEF711FC0020FEF70EFCA6
:102E80006720FEF70BFC0020FEF708FC6720FEF72A
:102E900005FC0020FEF702FC8720FEF7FFFB002068
:102EA000FEF7FCFB9920FEF7F9FB0020FEF7F6FB8E
:102EB000BB20FEF7F3FB0020FEF7F0FB9920FEF7A6
:102EC000EDFB0020FEF7EAFB7720FEF7E7FB002092
:102ED000FEF7E4FB4420FEF7E1FB0020FEF7DEFBFB
:102EE0005620FEF7DBFB0020FEF7D8FB2320FEF781
:102EF000D5FB0020FEF7D2FB3320FEF7CFFB0020EE
:102F0000FEF7CCFB4520FEF7C9FB0020FEF7C6FB11
:102F1000E820FEF7CFFB0020FEF7C0FB0020FEF705
:102F2000BDFB9920FEF7BAFB0020FEF7B7FB872018
:102F3000FEF7B4FB0020FEF7B1FB8820FEF7AEFBE6
:102F40000020FEF7ABFB7720FEF7A8FB0020FEF782
:102F5000A5FB6620FEF7A2FB0020FEF79FFB882062
:102F6000FEF79CFB0020FEF799FBAA20FEF796FBDC
:102F70000020FEF793FBBB20FEF790FB0020FEF73E
:102F80008DFB9920FEF78AFB0020FEF787FB662069
:102F9000FEF784FB0020FEF781FB5520FEF77EFB49
:102FA0000020FEF77BFB5520FEF778FB0020FEF7A4
:102FB00075FB4420FEF772FB0020FEF76FFB4420F8
:102FC000FEF76CFB0020FEF769FB5520FEF766FB61
:102FD0000020FEF763FBE920FEF76CFBAA20FEF75A
:102FE0005DFB0020FEF75AFB0020FEF757FB002098
:102FF000FEF754FB0020FEF75DFBAA20FEF74EFB18
:10300000CF20FEF757FB0020FEF748FB0020FEF71D
:1030100045FB0020FEF742FB0020FEF73FFB0020AF
:10302000FEF73CFB0020FEF739FB0020FEF736FBE5
:103030000020FEF733FB0020FEF730FB0020FEF7F8
:103040002DFB0020FEF72AFB0020FEF727FB0020C7
:10305000FEF724FB0020FEF721FB0020FEF71EFBFD
:103060000020FEF71BFB0020FEF718FBF020FEF708
:1030700021FB0020FEF712FB5020FEF70FFB002083
:10308000FEF70CFB0020FEF709FB0020FEF706FB15
:10309000F320FEF70FFB0020FEF700FBF920FEF700
:1030A00009FB0620FEF7FAFA1020FEF7F7FA2920AE
:1030B000FEF7F4FA0020FEF7F1FA3A20FEF7FAFAEA
:1030C0005520FEF7EBFA1120FEF7F4FA6420FEF724
:1030D00001FE2920FEF7EEFA3520FEF7EBFA00207C
:1030E000FEF7DCFA5120FEF7E5FAFF20FEF7D6FAEC
:1030F0005320FEF7DFFA2C20FEF7D0FA5520FEF71A
:10310000D9FA8220FEF7CAFA2C20FEF7D3FAFDE3A3
:10311000B0427DD155214FF47040FEF7E1FAAA216B
:103120004FF20100FEF7DCFA52214FF20200FEF7E7
:10313000D7FA4FF2030308211846FEF7D1FA4FF2EF
:10314000040B01215846FEF7CBFA0D214FF4304015
:10315000FEF7C6FA0D214BF20100FEF7C1FA0D2170
:103160004BF20200FEF7BCFA34214FF43640FEF772
:10317000B7FA34214BF20160FEF7B2FA34214BF278
:103180000260FEF7ADFA0D214FF43140FEF7A8FAC8
:103190000D214BF20110FEF7A3FA0D214BF20210A4
:1031A000FEF79EFA34214FF43740FEF799FA3421A6
:1031B0004BF20170FEF794FA34214BF20270FEF7E5
:1031C0008FFA00214FF43240FEF78AFA00214BF2C9
:1031D0000120FEF785FA00214BF20220FEF780FA6B
:1031E00024214FF43840FEF77BFA24214BF60100EE
:1031F000FEF776FA24214BF60200FEF771FA012160
:103200004FF43F40FEF76CFA0F214FF4334000E0DB
:10321000FEE3FEF765FA0F214BF20130FEF760FA8C
:103220000F214BF20230FEF75BFA34214FF43940A4
:10323000FEF756FA34214BF60110FEF751FA34210D
:103240004BF60210FEF74CFA08214FF43540FEF71A
:1032500047FA08214BF20150FEF742FA08214BF2DF
:103260000250FEF73DFA03214FF44240FEF738FAD0
:1032700024214FF43A40FEF733FA24214BF6012083
:10328000FEF72EFA24214BF60220FEF729FA002140
:103290004FF43C40FEF724FA78214BF60140FEF74C
:1032A0001FFA00214BF60240FEF71AFA00214FF4F4
:1032B0003D40FEF715FA78214BF60150FEF710FA63
:1032C00000214BF60250FEF70BFA00214FF43E406E
:1032D000FEF706FA64214BF60160FEF701FA0021C1
:1032E0004FF45140FEF7FCF933214DF20110FEF787
:1032F000F7F900214DF20210FEF7F2F934214DF2F8
:103300000310FEF7EDF900214DF20410FEF7E8F985
:103310003A214DF20510FEF7E3F900214DF20610B7
:10332000FEF7DEF94A214DF20710FEF7D9F9002128
:103330004DF20810FEF7D4F95C214DF20910FEF7AA
:10334000CFF900214DF20A10FEF7CAF981214DF2A2
:103350000B10FEF7C5F900214DF20C10FEF7C0F975
:10336000A6214DF20D10FEF7BBF900214DF20E1013
:10337000FEF7B6F9E5214DF20F10FEF7B1F9012184
:103380004DF21010FEF7ACF913214DF21110FEF7BB
:10339000A7F901214DF21210FEF7A2F954214DF2C6
:1033A0001310FEF79DF901214DF21410FEF798F964
:1033B00082214DF21510FEF793F901214DF21610FE
:1033C000FEF78EF9CA214DF21710FEF789F9022196
:1033D0004DF21810FEF784F900214DF21910FEF796
:1033E0007FF902214DF21A10FEF77AF901214DF210
:1033F0001B10FEF775F902214DF21C10FEF770F953
:1034000034214DF21D10FEF76BF902214DF21E1012
:10341000FEF766F967214DF21F10FEF761F90221F0
:103420004DF22010FEF75CF984214DF22110FEF7D9
:1034300057F902214DF22210FEF752F9A4214DF264
:103440002310FEF74DF902214DF22410FEF748F942
:10345000B7214DF22510FEF743F902214DF2261057
:10346000FEF73EF9CF214DF22710FEF739F9022180
:103470004DF22810FEF734F9DE214DF22910FEF747
:103480002FF902214DF22A10FEF72AF9F2214DF20E
:103490002B10FEF725F902214DF22C10FEF720F932
:1034A000FE214DF22D10FEF71BF903214DF22E10D7
:1034B000FEF716F910214DF22F10FEF711F9032136
:1034C0004DF23010FEF70CF933214DF23110FEF7BA
:1034D00007F903214DF23210FEF702F96D214DF28A
:1034E0003310FEF7FDF800214FF45240FEF7F8F8D4
:1034F00033214DF20120FEF7F3F800214DF20220B6
:10350000FEF7EEF834214DF20320FEF7E9F8002132
:103510004DF20420FEF7E4F83A214DF20520FEF7C3
:10352000DFF800214DF20620FEF7DAF84A214DF2CD
:103530000720FEF7D5F800214DF20820FEF7D0F85D
:103540005C214DF20920FEF7CBF800214DF20A2054
:10355000FEF7C6F881214DF20B20FEF7C1F80021DD
:103560004DF20C20FEF7BCF8A6214DF20D20FEF71F
:10357000B7F800214DF20E20FEF7B2F8E5214DF22A
:103580000F20FEF7ADF801214DF21020FEF7A8F84C
:1035900013214DF21120FEF7A3F801214DF2122064
:1035A000FEF79EF854214DF21320FEF799F8012101
:1035B0004DF21420FEF794F882214DF21520FEF70B
:1035C0008FF801214DF21620FEF78AF8CA214DF23C
:1035D0001720FEF785F802214DF21820FEF780F83B
:1035E00000214DF21920FEF77BF802214DF21A203E
:1035F000FEF776F801214DF21B20FEF771F802214B
:103600004DF21C20FEF76CF834214DF21D20FEF720
:1036100067F802214DF21E20FEF762F867214DF295
:103620001F20FEF75DF802214DF22020FEF758F82A
:1036300084214DF22120FEF753F802214DF2222081
:10364000FEF74EF8A4214DF22320FEF749F802219F
:103650004DF22420FEF744F8B7214DF22520FEF765
:103660003FF802214DF22620FEF73AF8CF214DF225
:103670002720FEF735F802214DF22820FEF730F81A
:10368000DE214DF22920FEF72BF802214DF22A20EF
:10369000FEF726F8F2214DF22B20FEF721F8022149
:1036A0004DF22C20FEF71CF8FE214DF22D20FEF7E6
:1036B00017F803214DF22E20FEF712F810214DF2DB
:1036C0002F20FEF70DF803214DF23020FEF708F809
:1036D00033214DF23120FEF703F803214DF2322061
:1036E000FDF7FEFF6D214DF23320FDF7F9FF0021BC
:1036F0004FF45340FDF7F4FF33214DF20130FDF755
:10370000EFFF00214DF20230FDF7EAFF34214DF2C8
:103710000330FDF7E5FF00214DF20430FDF7E0FF37
:103720003A214DF20530FDF7DBFF00214DF2063066
:10373000FDF7D6FF4A214DF20730FDF7D1FF0021FA
:103740004DF20830FDF7CCFF5C214DF20930FDF75A
:10375000C7FF00214DF20A30FDF7C2FF81214DF273
:103760000B30FDF7BDFF00214DF20C30FDF7B8FF27
:10377000A6214DF20D30FDF7B3FF00214DF20E30C2
:10378000FDF7AEFFE5214DF20F30FDF7A9FF012156
:103790004DF21030FDF7A4FF13214DF21130FDF76B
:1037A0009FFF01214DF21230FDF79AFF54214DF297
:1037B0001330FDF795FF01214DF21430FDF790FF16
:1037C00082214DF21530FDF78BFF01214DF21630AD
:1037D000FDF786FFCA214DF21730FDF781FF022168
:1037E0004DF21830FDF77CFF00214DF21930FDF746
:1037F00077FF02214DF21A30FDF772FF01214DF2E1
:103800001B30FDF76DFF02214DF21C30FDF768FF04
:1038100034214DF21D30FDF763FF02214DF21E30C1
:10382000FDF75EFF67214DF21F30FDF759FF0221C2
:103830004DF22030FDF754FF84214DF22130FDF789
:103840004FFF02214DF22230FDF74AFFA4214DF235
:103850002330FDF745FF02214DF22430FDF740FFF4
:10386000B7214DF22530FDF73BFF02214DF2263006
:10387000FDF736FFCF214DF22730FDF731FF022152
:103880004DF22830FDF72CFFDE214DF22930FDF7F7
:1038900027FF02214DF22A30FDF722FFF2214DF2DF
:1038A0002B30FDF71DFF02214DF22C30FDF718FFE4
:1038B000FE214DF22D30FDF713FF03214DF22E3086
:1038C000FDF70EFF10214DF22F30FDF709FF032108
:1038D0004DF23030FDF704FF33214DF23130FDF76A
:1038E000FFFE03214DF23230FDF7FAFE6D214DF25D
:1038F0003330FDF7F5FE00214FF45440FDF7F0FEA4
:1039000033214DF20140FDF7EBFE00E084E300219E
:103910004DF20240FDF7E4FE34214DF20340FDF785
:10392000DFFE00214DF20440FDF7DAFE3A214DF2B0
:103930000540FDF7D5FE00214DF20640FDF7D0FE13
:103940004A214DF20740FDF7CBFE00214DF2084021
:10395000FDF7C6FE5C214DF20940FDF7C1FE0021D6
:103960004DF20A40FDF7BCFE81214DF20B40FDF700
:10397000B7FE00214DF20C40FDF7B2FEA6214DF23C
:103980000D40FDF7ADFE00214DF20E40FDF7A8FE03
:10399000E5214DF20F40FDF7A3FE01214DF210404D
:1039A000FDF79EFE13214DF21140FDF799FE012116
:1039B0004DF21240FDF794FE54214DF21340FDF7F5
:1039C0008FFE01214DF21440FDF78AFE82214DF257
:1039D0001540FDF785FE01214DF21640FDF780FEF2
:1039E000CA214DF21740FDF77BFE02214DF218402F
:1039F000FDF776FE00214DF21940FDF771FE022120
:103A00004DF21A40FDF76CFE01214DF21B4000E023
:103A100003E3FDF765FE02214DF21C40FDF760FE59
:103A200034214DF21D40FDF75BFE02214DF21E4098
:103A3000FDF756FE67214DF21F40FDF751FE0221B2
:103A40004DF22040FDF74CFE84214DF22140FDF760
:103A500047FE02214DF22240FDF742FEA4214DF225
:103A60002340FDF73DFE02214DF22440FDF738FED4
:103A7000B7214DF22540FDF733FE02214DF22640DD
:103A8000FDF72EFECF214DF22740FDF729FE022142
:103A90004DF22840FDF724FEDE214DF22940FDF7CE
:103AA0001FFE02214DF22A40FDF71AFEF2214DF2CF
:103AB0002B40FDF715FE02214DF22C40FDF710FEC4
:103AC000FE214DF22D40FDF70BFE03214DF22E405D
:103AD000FDF706FE10214DF22F40FDF701FE0321F8
:103AE0004DF23040FDF7FCFD33214DF23140FDF742
:103AF000F7FD03214DF23240FDF7F2FD6D214DF24D
:103B00003340FDF7EDFD00214FF45540FDF7E8FD92
:103B100033214DF20150FDF7E3FD00214DF202503B
:103B2000FDF7DEFD34214DF20350FDF7D9FD0021F4
:103B30004DF20450FDF7D4FD3A214DF20550FDF74A
:103B4000CFFD00214DF20650FDF7CAFD4A214DF28E
:103B50000750FDF7C5FD00214DF20850FDF7C0FDEF
:103B60005C214DF20950FDF7BBFD00214DF20A50DA
:103B7000FDF7B6FD81214DF20B50FDF7B1FD00219F
:103B80004DF20C50FDF7ACFDA6214DF20D50FDF7A6
:103B9000A7FD00214DF20E50FDF7A2FDE5214DF2EB
:103BA0000F50FDF79DFD01214DF21050FDF798FDDE
:103BB00013214DF21150FDF793FD01214DF21250EA
:103BC000FDF78EFD54214DF21350FDF789FD0121C3
:103BD0004DF21450FDF784FD82214DF21550FDF792
:103BE0007FFD01214DF21650FDF77AFDCA214DF2FD
:103BF0001750FDF775FD02214DF21850FDF770FDCD
:103C000000214DF21950FDF76BFD02214DF21A50C3
:103C1000FDF766FD01214DF21B50FDF761FD02210C
:103C20004DF21C50FDF75CFD34214DF21D50FDF7A7
:103C300057FD02214DF21E50FDF752FD67214DF256
:103C40001F50FDF74DFD02214DF22050FDF748FDBC
:103C500084214DF22150FDF743FD02214DF2225007
:103C6000FDF73EFDA4214DF22350FDF739FD022161
:103C70004DF22450FDF734FDB7214DF22550FDF7EC
:103C80002FFD02214DF22650FDF72AFDCF214DF2E6
:103C90002750FDF725FD02214DF22850FDF720FDAC
:103CA000DE214DF22950FDF71BFD02214DF22A5075
:103CB000FDF716FDF2214DF22B50FDF711FD02210B
:103CC0004DF22C50FDF70CFDFE214DF22D50FDF76D
:103CD00007FD03214DF22E50FDF702FD10214DF29C
:103CE0002F50FDF7FDFC03214DF23050FDF7F8FC9D
:103CF00033214DF23150FDF7F3FC03214DF23250E8
:103D0000FDF7EEFC6D214DF23350FDF7E9FC00218B
:103D10004FF45640FDF7E4FC33214DF20160FDF70E
:103D2000DFFC00214DF20260FDF7DAFC34214DF298
:103D30000360FDF7D5FC00214DF20460FDF7D0FCD7
:103D40003A214DF20560FDF7CBFC00214DF20660F3
:103D5000FDF7C6FC4A214DF20760FDF7C1FC0021CA
:103D60004DF20860FDF7BCFC5C214DF20960FDF7E7
:103D7000B7FC00214DF20A60FDF7B2FC81214DF243
:103D80000B60FDF7ADFC00214DF20C60FDF7A8FCC7
:103D9000A6214DF20D60FDF7A3FC00214DF20E604F
:103DA000FDF79EFCE5214DF20F60FDF799FC012126
:103DB0004DF21060FDF794FC13214DF21160FDF7F8
:103DC0008FFC01214DF21260FDF78AFC54214DF267
:103DD0001360FDF785FC01214DF21460FDF780FCB6
:103DE00082214DF21560FDF77BFC01214DF216603A
:103DF000FDF776FCCA214DF21760FDF771FC022138
:103E00004DF21860FDF76CFC00214DF21960FDF7D2
:103E100067FC02214DF21A60FDF762FC01214DF2B0
:103E20001B60FDF75DFC02214DF21C60FDF758FCA4
:103E300034214DF21D60FDF753FC02214DF21E604E
:103E4000FDF74EFC67214DF21F60FDF749FC022192
:103E50004DF22060FDF744FC84214DF22160FDF716
:103E60003FFC02214DF22260FDF73AFCA4214DF205
:103E70002360FDF735FC02214DF22460FDF730FC94
:103E8000B7214DF22560FDF72BFC02214DF2266093
:103E9000FDF726FCCF214DF22760FDF721FC022122
:103EA0004DF22860FDF71CFCDE214DF22960FDF784
:103EB00017FC02214DF22A60FDF712FCF2214DF2AF
:103EC0002B60FDF70DFC02214DF22C60FDF708FC84
:103ED000FE214DF22D60FDF703FC03214DF22E6013
:103EE000FDF7FEFB10214DF22F60FDF7F9FB0321DA
:103EF0004DF23060FDF7F4FB33214DF23160FDF7F8
:103F0000EFFB03214DF23260FDF7EAFB6D214DF22C
:103F10003360FDF7E5FB55214FF47040FDF7E0FB02
:103F2000AA214FF20100FDF7DBFB52214FF2020004
:103F3000FDF7D6FB08211846FDF7D2FB00215846B5
:103F4000FDF7CEFBCC214FF43140FDF7C9FB00213A
:103F50004BF20110FDF7C4FB05214FF43640FDF78D
:103F6000BFFB70214FF43740FDF7BAFB70214BF2D5
:103F70000170FDF7B5FB01214FF43840FDF7B0FBB0
:103F800003214BF60100FDF7ABFB03214BF60200CA
:103F9000FDF7A6FB03214BF60300FDF7A1FB022171
:103FA0004FF43C40FDF79CFB00214BF60140FDF730
:103FB00097FB00214BF60240FDF792FBD0214FF416
:103FC0004940FDF78DFB02214CF60110FDF788FBFF
:103FD00050214CF60210FDF783FB50214CF60310E4
:103FE000FDF77EFB50214CF60410FDF779FB002114
:103FF0004FF45450FDF774FB55214FF46850FDF712
:104000006FFB4FF48850FDF755FB7820FDF762FEFB
:104010004FF42450FDF74EFBB9E04045FCD1E220BF
:10402000FDF748FB1D20FDF739FB0220FDF736FBAD
:104030000420FDF733FB6420FDF74CFEE020FDF784
:1040400039FB0120FDF72AFB0A20FDF729FEE020BD
:10405000FDF730FB0320FDF721FB0C20FDF720FED0
:104060000120FDF727FB0A20FDF71AFEE620FDF7E9
:1040700021FB2F20FDF712FBFF20FDF70FFBFF2098
:10408000FDF70CFBB020FDF715FB2020FDF706FB2C
:104090000020FDF703FB0320FDF700FB40F21F307B
:1040A000FDF7FCFA0120FDF7F9FA40F2DF10FDF709
:1040B000F5FA0020FDF7F2FAB420FDF7FBFA042030
:1040C000FDF7ECFA40F21F40FDF7E8FA0020FDF79B
:1040D000E5FA2E20FDF7E2FA0020FDF7DFFA0020D6
:1040E000FDF7DCFA0020FDF7D9FA0020FDF7D6FA3B
:1040F000B620FDF7DFFA0220FDF7D0FA4FF4037087
:10410000FDF7CCFA0020FDF7C9FA1720FDF7C6FA33
:104110001520FDF7C3FA0020FDF7C0FA0020FDF7D7
:10412000BDFAF020FDF7C6FA0320FDF7B7FA292003
:10413000FDF7C0FAD020FDF7BDFA0020FDF7AEFA7A
:10414000BE20FDF7B7FA0520FDF7A8FAFE20FDF71F
:10415000A5FA0120FDF7A2FA0020FDF79FFA002042
:10416000FDF79CFA0020FDF799FAB820FDF7A2FAB6
:104170000320FDF793FA0120FDF790FABA20FDF72E
:1041800099FA0120FDF78AFA6420FDF715F8A8884E
:10419000504507D0A04205D0B84203D0B04201D06C
:1041A00040451DD115490A6822F00F020A600A68CD
:1041B00022F470620A600A6842F003020A60A1F504
:1041C0008E71A04206D1D1F81C0140F44070C1F8B4
:1041D0001C0105E0D1F81C0140F40070C1F81C017D
:1041E0000020FCF701FF0122D1030548FCF746FB44
:1041F0004846BDE8F05FFCF7DDBE00001C0100A0F2
:10420000000402402DE9FE4F81468A460024002624
:10421000029600251FA01027CDE900700AF11000BA
:1042200083B2EF2251464846FDF7C0F94FF480189B
:104230000122214602A8FCF7B2F99DF80800401CB3
:10424000029004F580544445F2D3002409F1780922
:104250000122214602A8FCF796F9BCB19DF808009E
:10426000A84211D99DF80800CDE90076401B401CFA
:104270000004820B1FFA89F004235146FDF7C0F9B0
:1042800004F580544445E3D3BDE8FE8F9DF8085003
:10429000E8E700004578204D656D6F727920546520
:1042A00073743A202020304B42000000FCF7FCFAE7
:1042B000FDF7C6FBFDF7F4FAFDF77EFAFDF772FB9A
:1042C000FDF710FCFDF792FCFCE700000000000089
:1042D00000000102030406070809000000000000B6
:1042E000000000000000000000003F40000000004F
:1042F00000000000300040003000400000000900D5
:104300000BC03D000BC03D00090018C024407FE0F9
:10431000224031800000180024C01B000D80324074
:10432000018003801C4027401C8007400040100093
:10433000600000000000000000000000000000001D
:104340001F80204040200000402020401F800000AF
:104350000000090006001F8006000900000004009C
:1043600004003F8004000400000000100060000012
:104370000000000000000400040004000400040029
:1043800000000000004000000000000000000020CD
:1043900001C006003800400000001F80204020407F
:1043A00020401F800000000010403FC0004000007F
:1043B000000018C021402240244018400000108016
:1043C0002040244024401B80000002000D0011000A
:1043D0003FC0014000003C80244024402440238012
:1043E00000001F802440244034400380000030003F
:1043F000200027C03800200000001B8024402440FB
:1044000024401B8000001C0022C0224022401F804C
:104410000000000000000840000000000000000054
:1044200000000460000000000000000004000A001A
:10443000110020804040090009000900090009001E
:10444000000000004040208011000A000400180015
:10445000200023402400180000001F802040274037
:1044600029401F400000004007C039000F0001C074
:10447000004020403FC0244024401B8000001F809B
:104480002040204020403080000020403FC020409D
:1044900020401F80000020403FC024402E4030C0FC
:1044A000000020403FC024402E00300000000F00DC
:1044B0001080204022403380020020403FC0040092
:1044C00004003FC02040204020403FC0204020400A
:1044D00000000060202020203FC02000200020405D
:1044E0003FC024400B0030C0204020403FC020404F
:1044F0000040004000C03FC03C0003C03C003FC043
:10450000000020403FC00C4023003FC020001F801F
:104510002040204020401F80000020403FC0244019
:104520002400180000001F802140214020E01FA02F
:10453000000020403FC02440260019C0004018C0A1
:1045400024402440224031800000300020403FC001
:1045500020403000000020003F80004000403F80AD
:10456000200020003E0001C0070038002000380075
:1045700007C03C0007C038000000204039C00600DA
:1045800039C0204000002000384007C038402000DB
:104590000000304021C02640384020C0000000000C
:1045A00000007FE0402040200000000070000C0070
:1045B0000380004000000000402040207FE0000019
:1045C000000000002000400020000000000000105B
:1045D000001000100010001000100000000040004B
:1045E000000000000000000002800540054003C0FC
:1045F000004020003FC00440044003800000000051
:104600000380044004400640000000000380044092
:1046100024403FC0004000000380054005400340A7
:104620000000000004401FC024402440200000007F
:1046300002E0055005500650042020403FC00440D1
:10464000040003C000400000044027C000400000F8
:10465000000000100010041027E0000000002040BF
:104660003FC00140070004C00440204020403FC03C
:1046700000400040000007C0040007C0040003C061
:104680000000044007C00440040003C000400000D4
:1046900003800440044003800000041007F004502D
:1046A000044003800000000003800440045007F031
:1046B0000010044007C00240040004000000000095
:1046C00006400540054004C00000000004001F80B3
:1046D000044000400000040007800040044007C080
:1046E00000400400070004C001800600040006002A
:1046F00001C0070001C006000000044006C0010020
:1047000006C0044000000410071004E00180060009
:1047100004000000044005C0064004400000000002
:10472000000004007BE040200000000000000000CA
:10473000FFF000000000000040207BE004000000CB
:1047400000004000800040002000200040000000E9
:104750000000000000000000000000000000000059
:10476000000000001FCC000C000000000000000052
:1047700008003000600008003000600000000220E7
:1047800003FC1E20022003FC1E200220000000006B
:104790000E1811043FFF10840C78000000000F0079
:1047A00010840F3800C00778188400780000007863
:1047B0000F8410C411240E9800E40084000808003F
:1047C0006800700000000000000000000000000011
:1047D0000000000007E0181820044002000000005C
:1047E00040022004181807E000000000000002400A
:1047F000024001800FF00180024002400000008072
:10480000008000800FF80080008000800000000120
:10481000000D000E0000000000000000000000007D
:104820000080008000800080008000800080000008
:10483000000C000C00000000000000000000000060
:10484000000600180060018006001800200000002B
:1048500007F0080810041004080807F00000000022
:10486000080408041FFC000400040000000000000D
:104870000E0C10141024104411840E0C00000000C3
:104880000C1810041104110412880C7000000000B0
:1048900000E00320042408241FFC00240000000082
:1048A0001F9810841104110410881070000000007B
:1048B00007F0088811041104188800700000000037
:1048C0001C00100010FC13001C0010000000000071
:1048D0000E3811441084108411440E38000000007A
:1048E0000700088C10441044088807F000000000FE
:1048F00000000000030C030C00000000000000009A
:10490000000000010106000000000000000000009F
:10491000008001400220041008081004000002205A
:1049200002200220022002200220022000000000BB
:10493000100408080410022001400080000000005C
:104940000E001200100C106C10800F00000003E02D
:104950000C1813E4142417C4082807D0000000041E
:10496000003C03C41C40074000E4001C0004100489
:104970001FFC1104110411040E880070000003E0F4
:104980000C1810041004100410081C10000010046F
:104990001FFC100410041004080807F000001004A5
:1049A0001FFC1104110417C410040818000010049F
:1049B0001FFC1104110017C010000800000003E0E4
:1049C0000C181004100410441C780040000010045F
:1049D0001FFC10840080008010841FFC1004000065
:1049E000100410041FFC1004100400000000000359
:1049F0000001100110011FFE100010000000100443
:104A00001FFC110403801464181C1004000010041F
:104A10001FFC1004000400040004000C000010043B
:104A20001FFC1F0000FC1F001FFC100400001004EE
:104A30001FFC0C04030000E010181FFC100007F01E
:104A40000808100410041004080807F000001004FF
:104A50001FFC10841080108010800F00000007F0F1
:104A6000081810241024101C080A07F20000100473
:104A70001FFC1104110011C011300E0C00040000C5
:104A80000E1C11041084108410441C3800001800FF
:104A9000100010041FFC100410001800000010008B
:104AA0001FF810040004000410041FF81000100088
:104AB0001E0011E0001C007013801C0010001FC0BD
:104AC000103C00E01F0000E0103C1FC0000010047C
:104AD000180C163401C001C01634180C1004100054
:104AE0001C00130400FC13041C0010000000080448
:104AF000101C1064108413041C0410180000000023
:104B0000000000007FFE4002400240020000000062
:104B100030000C0003800060001C00030000000057
:104B20004002400240027FFE000000000000000042
:104B30000000200040004000400020000000000174
:104B4000000100010001000100010001000100005E
:104B500040004000200000000000000000000000B5
:104B60000098012401440144014400FC00041000A9
:104B70001FFC008801040104008800700000000090
:104B80000070008801040104010400880000000096
:104B9000007000880104010411081FFC00040000DB
:104BA00000F8014401440144014400C80000000031
:104BB000010401040FFC110411041100180000008D
:104BC00000D601290129012901C9010600001004AC
:104BD0001FFC008401000100010400FC000400002F
:104BE0000104190419FC0004000400000000000086
:104BF000000300010101190119FE0000000010046A
:104C00001FFC0024004001B4010C0104000000005E
:104C1000100410041FFC0004000400000000010444
:104C200001FC0104010001FC0104010000FC01047D
:104C300001FC008401000100010400FC00040000EC
:104C400000F8010401040104010400F8000001015E
:104C500001FF0085010401040088007000000000CD
:104C60000070008801040104010501FF0001010436
:104C7000010401FC00840104010001800000000027
:104C800000CC01240124012401240198000000002B
:104C90000100010007F80104010400000000010008
:104CA00001F8000400040004010801FC00040100F4
:104CB00001800170000C001001600180010001F012
:104CC000010C003001C00030010C01F001000000B7
:104CD0000104018C00740170018C010400000101C9
:104CE00001810171000E00180160018001000000C7
:104CF0000184010C013401440184010C0000000016
:104D000000000000000001003EFC400240020000E4
:104D1000000000000000FFFF000000000000000095
:104D2000400240023EFC01000000000000000000C4
:104D30006000800080004000400020002000000053
:104D40000000000000000000000000000000000063
:104D50000000000000000000000000000000000053
:104D60000000000000000000000000000000000043
:104D7000000F80380FFE380F803800000000000060
:104D8000000000000000000000000000010000061C
:104D900000000C00003800003100000600000C008C
:104DA00000380000300000000000000000006180BA
:104DB0000067F807F9800061800061800061800071
:104DC00061800067F807F980006180000000000042
:104DD0000000000001C0E003E0F0063008041808FD
:104DE0001FFFFE040E080787F00381E000000000AB
:104DF000000001F000060C00040408060C7001F924
:104E0000C0000E00003BE000EC18070808040C1876
:104E10000003E00000000001E00007F003F81804C0
:104E20001C0804170807E1D003C0E00023B0003CD1
:104E30000800200800001000000000000001000031
:104E40003100003200001C000000000000000000E3
:104E50000000000000000000000000000000000052
:104E600000000000000000000000000000007F00C3
:104E700001FFC00780F00C001810000420000200A1
:104E800000000000002000021000040C0018078041
:104E9000F001FFC0007F00000000000000000000E3
:104EA000000000000000000000004200006600005A
:104EB0006600003C0000180003FFC0001800003C22
:104EC00000006600006600004200000000000800CC
:104ED00000080000080000080000080001FFC000F2
:104EE000080000080000080000080000080000009A
:104EF0000000000100003100003200001C00000032
:104F000000000000000000000000000000000000A1
:104F10000000000000000800000800000800000871
:104F20000000080000080000080000080000080059
:104F30000008000000000000000000000000380031
:104F400000380000380000000000000000000000F1
:104F5000000000000000000000000000000000064B
:104F600000001C000070000180000E0000380000EE
:104F7000C0000700001C000030000000000000001E
:104F800000007F8001FFE003807006001804000825
:104F900004000806001803807001FFE0007F800015
:104FA00000000000000000000100080100080100EE
:104FB0000803FFF807FFF8000008000008000008D9
:104FC00000000000000000000001C03802C05804CA
:104FD0000098040118040218040418061C1803F8A9
:104FE0001801E0F800000000000000000001C0E02F
:104FF00003C0F004000804080804080806180803A1
:10500000F41801E7F00001E00000000000000000DB
:1050100000000300000D0000110000610000810885
:1050200003010807FFF80FFFF8000108000108005E
:1050300000000000000000E007FCD0060808061091
:1050400008061008061008061838060FF00607C0F4
:10505000000000000000000000003F8001FFE003AE
:1050600084300208180410080410080410080718F7
:1050700010030FF00007C000000000000000000057
:1050800003C0000700000600000600F80607F80647
:10509000180006E000070000060000000000000005
:1050A0000001E1E003F7F0063410041808041808C2
:1050B000040C08040C0806161803F3F001C1E00004
:1050C000000000000000F80003FC30030638040272
:1050D000080402080402080404100308F001FFC0D9
:1050E000007F000000000000000000000000000041
:1050F00000000000000070380070380070380000B8
:10510000000000000000000000000000000000009F
:1051100000000000000000000000301A00301C00F9
:10512000000000000000000000000000000000007F
:1051300000000000000800001400002200004100F0
:1051400000808001004002002004001008000800D8
:1051500000000000000021000021000021000021CB
:10516000000021000021000021000021000021009A
:1051700000210000000000000000000008000804FA
:105180000010020020010040008080004100002249
:105190000000140000080000000000000003C00030
:1051A00004C000040000080038080F380808380858
:1051B00010000C300007E00003C0000000000000F9
:1051C00000003F8000FFE0038070020F100670882F
:1051D00004C088048308047F8802C0900301200073
:1051E000FE400000080000180001F8003E0801C25F
:1051F0000007020007E20000FE00001FC80001F8DF
:1052000000003800000804000807FFF807FFF80452
:10521000080804080804080804080806180803F425
:105220001801E7F00001E0000000000000003F80EE
:1052300001FFE00380700200180400080400080465
:1052400000080400100600200780C00000000400D1
:105250000807FFF807FFF804000804000804000826
:1052600004001802001003807001FFE0007F80003E
:10527000000004000807FFF807FFF8040808040806
:1052800008040808040808043E080400080600187A
:1052900001006000000004000807FFF807FFF804A1
:1052A0000808040800040800040800043E00060082
:1052B00000060000018000000000000000003F80A8
:1052C00001FFE003807006001804000804020804CF
:1052D00002080203F00783F000020000020004004D
:1052E0000807FFF807FFF804080800080000080096
:1052F00000080000080004080807FFF807FFF8048A
:105300000008000000000000040008040008040079
:105310000807FFF807FFF804000804000804000865
:105320000000000000000000000000060000070070
:10533000000104000104000104000307FFFE07FF51
:10534000FC04000004000004000004000807FFF84B
:1053500007FFF8040C08001800003E0004C7800591
:1053600003C80600F8040038040018000008040010
:105370000807FFF807FFF80400080000080000080D
:10538000000008000008000008000018000060008D
:10539000000004000807FFF807800807FC00007FF2
:1053A000C00003F80007C000780007800807FFF876
:1053B00007FFF804000804000807FFF807000803C7
:1053C000C00000E000003800001E000007000001DF
:1053D000C00400F007FFF8040000000000007F8018
:1053E00001FFE003807006001804000804000806AE
:1053F000001803003001FFE0007F8000000004007F
:105400000807FFF807FFF804040804040004040078
:10541000040400040400060C0003F80001F000007E
:105420000000000000007F8001FFE00380700600A4
:10543000880400880400C806003C03003E01FFE623
:10544000007F8400000004000807FFF807FFF8044D
:105450000808040800040C00040F00040BC0061028
:10546000F003F03801E00800000800000001E0F857
:1054700003F030063010041808041808040C08045F
:105480000C080206180207F00781E0000000018006
:105490000006000004000004000004000807FFF8F4
:1054A00007FFF804000804000004000006000001E3
:1054B000800004000007FFE007FFF0040018000070
:1054C00008000008000008000008000008040010A0
:1054D00007FFE004000004000006000007E00007EA
:1054E000FE00041FE00001F80000380001E0043E67
:1054F0000007C00006000004000004000007E000F0
:1055000007FFC0041FF80007C007F80007FF80046A
:105510003FF80007C004F800070000040000000086
:105520000004000806001807C07805F1C8003E0016
:10553000001F800463E80780F806001804000800D4
:10554000000004000006000007800007E008047C5B
:1055500008001FF80007F800180804E0080700001A
:1055600006000004000000000001000806003804E6
:1055700000F80403E8040F08047C0805F00807C0DD
:105580000807001804006000000000000000000090
:105590000000000000000000003FFFFE200002208D
:1055A0000002200002200002200002000000000093
:1055B0000000000008000007000000C000003800E4
:1055C0000006000001C000003000000E00000100D5
:1055D0000000000000000000200002200002200067
:1055E000022000022000023FFFFE00000000000039
:1055F00000000000000000000000000000000008A3
:1056000000001000003000002000003000001000FA
:105610000008000000000000000000000100000180
:105620000000010000010000010000010000010075
:105630000001000001000001000001000001000065
:10564000000000000000002000002000001000000A
:10565000100000000000000000000000000000003A
:1056600000000000000000F00019F8001B180022E4
:1056700008002608002408002410003FF8001FF846
:1056800000000800001800000004000007FFF80FE9
:10569000FFF0001818001008002008002008003053
:1056A00018001FF0000FC00000000000000007C03D
:1056B000001FF0001830002008002008002008001B
:1056C0003C08001C1000006000000000000000000A
:1056D000000007C0001FF000381800200800200854
:1056E00000200804101007FFF80FFFF00000100062
:1056F00000000000000000000007C0001FF00012C2
:1057000030002218002208002208003208001E1073
:10571000000E200000000000000020000020080013
:10572000200801FFF803FFF80620080420080420E1
:105730000807200003000000000000000000000E29
:10574000000E6E001FF30031B10020B10020B10047
:105750003191001F13002E1E00200E0030000000AB
:105760000004000807FFF80FFFF8001008002000F1
:10577000002000002008003FF8001FF8000008008B
:1057800000000000000000000020080020080020A9
:1057900008063FF8063FF80000080000080000086F
:1057A00000000000000000000000000000000300F6
:1057B0000003002001002001002003063FFE063FF9
:1057C000FC000000000000000000000000040008D1
:1057D00007FFF80FFFF8000188000300002FC0004A
:1057E00038F8002038002008000008000000000001
:1057F0000000000004000804000804000807FFF887
:105800000FFFF8000008000008000008000000007A
:105810000000002008003FF8003FF80010080020BA
:1058200000003FF8003FF8001008002000003FF89B
:10583000003FF8000008000000002008003FF800CA
:105840003FF8001008001000002000002008003F72
:10585000F8001FF80000080000000000000007C06A
:10586000000FF00018300030080020080020080069
:105870003008001830000FF00007C00000000000E2
:1058800000002001003FFF003FFF00101100200931
:10589000002008002008003038001FF0000FC00072
:1058A00000000000000007C0001FF00038180020B2
:1058B00008002008002009001011001FFF003FFF12
:1058C000000001000000002008002008002008005F
:1058D0003FF8003FF80008080010080020080020EA
:1058E0000000300000300000000000000000000058
:1058F000000C78001E18003308002308002108005F
:1059000021880021980030F000386000000000007D
:105910000000200000200000200000FFF003FFF83E
:1059200000200800200800200800003000000000CF
:105930000000000000002000003FF0007FF80000A1
:1059400018000008000008002010003FF8007FF059
:1059500000001000000000000000200000300000E7
:105960003C00003F800023F000007800007000231E
:1059700080003C00003000002000002000003C00BF
:10598000003FE00023F80000E0002700003E000098
:105990003FE00021F80001E0003E00002000000090
:1059A00000002008002008003838003E68002780EA
:1059B0000003C8002CF80038380020180020080028
:1059C0000000000000002000003003003C01003F08
:1059D000830023EC000070002380003C00002000C6
:1059E0000020000000000000000000000038080057
:1059F00020380020F80023E8002F88003E080038F7
:105A000008002018000070000000000000000000E6
:105A10000000000000000000000008000014001F4B
:105A2000F7FC30000620000200000000000000002B
:105A30000000000000000000000000000000000066
:105A4000FFFFFF0000000000000000000000000059
:105A500000000000000000002000023000061FF7D8
:105A6000FC0014000008000000000000000000001E
:105A7000000000000000000000180000600000406E
:105A8000000040000020000010000008000004009A
:105A9000000400000C0000100000000000000000E6
:105AA00000000000000000000000000000000000F6
:105AB00000000000000000000000000000000000E6
:105AC00000000000000000000000000000000000D6
:105AD00000000000000000000000000000000000C6
