:020000040800F2
:100000002004002005010008C30C0008050A0008B0
:10001000C10C0008710100088510000800000000F4
:10002000000000000000000000000000810F000838
:100030007301000800000000FD0E0008830F000897
:100040001F0100081F0100081F0100081F01000810
:100050001F0100081F0100081F0100081F01000800
:100060001F0100081F0100081F0100081F010008F0
:100070001F0100081F0100081F0100081F010008E0
:100080001F0100081F0100081F0100081F010008D0
:100090001F0100081F0100081F0100081F010008C0
:1000A0001F0100081F0100081F0100081F010008B0
:1000B0001F0100081F0100081F0100081F010008A0
:1000C0001F0100081F0100081F0100081F01000890
:1000D0001F0100081F0100081F0100081F01000880
:1000E0001F0100081F0100081F010008DFF810D0E1
:1000F00000F02CF80048004721110008AFF3008001
:10010000200400200648804706480047FEE7FEE737
:10011000FEE7FEE7FEE7FEE7FEE7FEE7FEE7FEE7B7
:10012000EF0F0008ED000008D2B201E000F8012B4B
:10013000491EFBD270470022F6E710B513460A4667
:1001400004461946FFF7F0FF204610BD064C074D48
:1001500006E0E06840F0010394E807009847103497
:10016000AC42F6D3FFF7C6FF6811000888110008FB
:10017000FEE7704772B6FEE72DE9F84F0024002332
:10018000DFF8C4914FF00F08A9F1040B09F1040A3C
:10019000ABF1040ED1E00127A7403A40BA4275D135
:1001A000DFF8A8C14D68A5EB0C0665452BD00DDC2A
:1001B000032D34D005DC35B3012D19D0022D2FD1FC
:1001C0001BE0112D16D0122D2AD119E0B6F5881F8B
:1001D00019D006DCB6F5803F15D0B6F5801F1FD1CB
:1001E00011E0B6F5001F0ED0B6F5041F18D10AE0D5
:1001F000CB6815E0CB681B1D12E0CB6808330FE01D
:10020000CB680C330CE08B6823B1012B04D008239E
:10021000476105E0042303E00823076100E00023B1
:10022000FF2A01D8054601E000F1040502D84FEA93
:10023000840603E0A4F108064FEA86062F6808FA50
:1002400006FC27EA0C0703FA06F647EA06072F60C2
:100250004D68ED0070D53E4DAE6946F00106AE61C9
:10026000AD6905F0010500953A4D24F003067719B4
:10027000BE68A5072D0F08FA05FC26EA0C06DFF874
:10028000D8C0604503D14FF0000C17E054E0DFF810
:10029000CCC0604502D14FF0010C0FE0DFF8C0C0C8
:1002A000604502D14FF0020C08E0DFF8B8C06045AD
:1002B00002D14FF0030C01E04FF0040C0CFA05FCE6
:1002C0004CEA060CC7F808C04D68ED0205D5D9F810
:1002D00000501543C9F8005004E0D9F80050954388
:1002E000C9F800504D68AD0205D5DAF80050154345
:1002F000CAF8005004E0DAF800509543CAF80050FC
:100300004D68AD0305D5DBF800501543CBF8005020
:1003100004E0DBF800509543CBF800504D68ED0346
:1003200005D5DEF800501543CEF8005004E0DEF8A5
:1003300000509543CEF80050641C0A6832FA04F568
:100340007FF429AFBDE8F88F0804014000001110C8
:10035000001002400000014000080140000C014074
:1003600000100140001401408068084201D00120C3
:10037000704700207047C26821EA02030A4043EA3E
:10038000024101617047002A01D0016170470904F0
:10039000016170470148806870470000000000203C
:1003A0000248816802781144816070470000002093
:1003B00010B50748016841F010010160032000F00A
:1003C00069F80F2000F006F800F026F8002010BDB4
:1003D0000020024070B504460D4D4FF47A71287824
:1003E000B1FBF0F00B490968B1FBF0F000F0F6FA50
:1003F00008B1012070BD102C07D200222146501EEA
:1004000000F028F86C60002070BD012070BD000075
:10041000000000200C00002008B50C48816941F064
:1004200001018161816901F001010091C16941F01F
:100430008051C161C06900F0805000900449486853
:1004400020F0E06040F00070486008BD00100240FD
:1004500000000140F0B40D460D4B1B68C3F30223AE
:10046000C3F10704042C00D90424191D072901D263
:10047000002300E0DB1E012606FA04F1491E294094
:1004800099409E40761E16403143F0BC00F0FBBD03
:100490000CED00E000F00701054A10684FF6FF037D
:1004A000184040EA012003490843106070470000EB
:1004B0000CED00E00000FA052DE9F04704460D467A
:1004C000002C17D0DFF83081D8F8000000F00700CA
:1004D000A84211D2D8F8000020F007002843C8F83D
:1004E0000000D8F8000000F00700A84204D0012066
:1004F000BDE8F0870120FBE72068404E810712D558
:10050000400703D5706840F4E06070602078000711
:1005100003D5706840F4605070607068A16820F086
:10052000F000084370602078C0072CD06068012874
:1005300006D0022809D0316889070BD40120D7E7FB
:100540003168890306D40120D2E73168890101D4DA
:100550000120CDE7716821F0030101437160FFF7CD
:1005600019FF074641F2883906E0FFF713FFC01B69
:10057000484501D90320BBE77068616800F00C00B2
:10058000B0EB810FF1D1D8F8000000F00700A842CD
:100590000ED9D8F8000020F007002843C8F8000062
:1005A000D8F8000000F00700A84201D001209FE722
:1005B0002078400705D57068E16820F4E0600843C2
:1005C00070602078000706D57068216920F46050BB
:1005D00040EAC100706000F019F87168084AC1F380
:1005E0000311515CC8400749086007480068FFF7DD
:1005F000F1FE00207CE700000020024000100240D5
:100600004C1100080C000020040000200E4B59681B
:100610000E4801F00C02042A11D0082A0FD10C4810
:10062000C1F38342805CC9030AD55968084AC1F303
:100630004041921E515C054A5043B0FBF1F07047B7
:1006400004494843704700000010024000127A003D
:100650003C11000800093D002DE9F84F0446002C2C
:100660000ED02078D94DC0075ED06868C0F38100F5
:1006700001280BD06868C0F38100022803D00CE089
:100680000120BDE8F88F6868C00306D5286880039C
:100690004AD56068A8BB0120F3E76068B0F5803FE9
:1006A00011D0A8B1B0F5A02F1BD0286820F480305D
:1006B0002860286820F480202860606830B3FFF745
:1006C00069FE06461EE0286840F480302860F4E7A2
:1006D000286820F480302860286820F48020286072
:1006E000EBE7286840F480202860286840F48030D8
:1006F0002860E2E7FFF74EFE801B642802D9032042
:10070000BFE711E028688003F4D50DE0FFF742FE53
:10071000064606E0FFF73EFE801B642801D9032051
:10072000AFE728688003F5D42078DFF8A48280073B
:100730004FF0010A4FF0000945D5686810F00C0F22
:1007400007D06868C0F38100022812D16868C0032E
:100750000FD42868800704D52069012801D0012022
:100760008FE72868616920F0F80040EAC10028603E
:1007700029E02069B8B1C8F800A0FFF70BFE0646D3
:1007800006E0FFF707FE801B022801D9032078E767
:1007900028688007F5D52868616920F0F80040EAEC
:1007A000C10028600FE0C8F80090FFF7F3FD06468F
:1007B00006E0FFF7EFFD801B022801D9032060E768
:1007C00028688007F5D42078000726D58148A169DC
:1007D00099B1C0F800A0FFF7DDFD064606E0FFF77F
:1007E000D9FD801B022801D903204AE7686A8007E7
:1007F000F5D5012000F084FB0FE0C0F80090FFF772
:10080000C9FD064606E0FFF7C5FD801B022801D999
:10081000032036E7686A8007F5D42078400773D54F
:100820000026E869C00008D4E86940F08050E8611B
:10083000E86900F0805000900126DFF89CB1DBF8F9
:100840000000C00514D4DBF8000040F48070CBF841
:100850000000FFF79FFD074606E0FFF79BFDC01B6A
:10086000642801D903200CE7DBF80000C005F4D5AB
:10087000E068012812D0B0B105281DD0286A20F008
:1008800001002862286A20F004002862E06841F232
:10089000883B28B3FFF77EFD07461DE0286A40F03D
:1008A00001002862F2E7286A20F001002862286A25
:1008B00020F004002862E9E7286A40F0040028627A
:1008C000286A40F001002862E0E7FFF763FDC01BE3
:1008D000584501D90320D4E6286A8007F5D50DE0F4
:1008E000FFF758FD074606E0FFF754FDC01B5845CB
:1008F00001D90320C5E6286A8007F5D4012E03D16B
:10090000E86920F08050E861E069A0B36968C1F34C
:100910008101022946D0022805D0C8F86090FFF76F
:1009200039FD04463AE0C8F86090FFF733FD06460B
:1009300006E0FFF72FFD801B022801D90320A0E667
:1009400028688001F5D4206AB0F5803F05D1686839
:10095000A16820F4003008436860D4E90801084326
:10096000696821F4741108436860C8F860A0FFF753
:1009700011FD044607E026E0FFF70CFD001B0228EE
:1009800001D903207DE628688001F5D51BE0FFF73B
:1009900001FD001B022801D9032072E628688001AE
:1009A000F5D410E001280CD06868226A00F4803188
:1009B000914204D1616A00F47010884203D0012092
:1009C0005FE601205DE600205BE6000000100240CB
:1009D00000004242800442420070004010B5401EB8
:1009E000B0F1807F01D3012010BD4FF0E0246061A1
:1009F0000F21601700F047FB0020A0610720206155
:100A0000002010BDFEE7000008B504498A690243D2
:100A10008A6189690140009108BD00000010024010
:100A20002DE9F0410A68C2F30F2595FAA5F2B2FA52
:100A300082F26BE0012393402B4266D0082A03D256
:100A400040F20113934006E0A2F108034FF00114B5
:100A50009C4044F080634C68082C0BD10C69C6683C
:100A60001F0A97FAA7F7B7FA87F726EA1326BC40BA
:100A70002643C6604F6800EB136493FAA3FCBCFAEC
:100A80008CFC4FEA8C084FF00F0C26680CFA08FC1F
:100A900026EA0C0693FAA3FCBCFA8CFC4FEA8C0CF9
:100AA00007FA0CF73E4326604F68012F01D0092F4B
:100AB0002BD18F6893FAA3FCBCFA8CFC4FEA8C080C
:100AC0004FF0030C0CFA08FC26EA0C0693FAA3FC80
:100AD000BCFA8CFC4FEA8C0C07FA0CF73E432660FC
:100AE000CF6893FAA3FCBCFA8CFC4FEA8C084FF059
:100AF000040C0CFA08FC93FAA3F3B3FA83F39B00FB
:100B000026EA0C069F403E432660521C35FA02F34B
:100B100090D10020BDE8F08110B501220368C3F335
:100B20008013002B25D1D1E900231A43D1E90234E7
:100B300023431A430B691A434B691A438B691A43BF
:100B4000CB691A430B6A1A4303684FF6BF74A34379
:100B50001A43026042684B6922F0040242EA1342DF
:100B600042600A6AB2F5005F02D1898C89B20161E4
:100B70000022104610BD00002DE9F04186B000248F
:100B800002940394049405942848816941F010016B
:100B90008161816901F010010191816941F02001B9
:100BA0008161816901F020010191816941F00401B5
:100BB0008161816901F004010191816941F00801BD
:100BC0008161806900F0080001900122184F5503EF
:100BD00029463846FFF7D7FBDFF85880002201216D
:100BE0004046FFF7D0FB012202214046FFF7CBFB36
:100BF00002950125039504950326059602A938461A
:100C0000FFF7BAFA102002900394049502A90A484B
:100C1000FFF7B2FA029603950495059602A940469D
:100C2000FFF7AAFA06B0BDE8F0810000001002400C
:100C300000100140000C01400008014030B58FB0A9
:100C4000282105A8FFF777FA14216846FFF773FA01
:100C50004FF48050FFF7D8FE0420FFF7D5FE4AF28C
:100C6000A00000900920019003200290002403942A
:100C7000114D69462846FFF7D3FE44F2400100912A
:100C80000421019169462846FFF7CAFE05944FF4F6
:100C90008270069007940894099468150A90282099
:100CA0000B900C940D940A200E9005A90348FFF7B1
:100CB00033FF0FB030BD000000080140003001409C
:100CC000FEE7FEE71CB510A003C8CDE9000128210E
:100CD0000F4800F043F905226946302000F0C4F8BF
:100CE00005226946102000F015F8002069460A5CCC
:100CF000A52A03D1401CC0B20528F8D3052801D08D
:100D000001201CBD00201CBDA5A5A5A5A5000000B7
:100D1000003001402DE9F04704460D461646DFF845
:100D20004090002202214846FFF72DFBDFF8348077
:100D30002146404600F0F6F80746002406E0FF2171
:100D4000404600F0EFF82855641CE4B2B442F6D3F4
:100D5000012202214846FFF716FB3846BDE8F0871E
:100D6000000C01400030014070B505460B4C0022DC
:100D700002212046FFF707FB2946094D284600F0CF
:100D8000D1F8FF21284600F0CDF8054601220221C6
:100D90002046FFF7F8FA284670BD0000000C01401D
:100DA0000030014010B5184C002201212046FFF709
:100DB000EAFA05221549302000F056F813490522B9
:100DC000491D2A2000F050F80121212000F076F87A
:100DD0000121222000F072F81A21242000F06EF880
:100DE0002821252000F06AF80F21262000F066F85F
:100DF0000E21202000F062F820460122BDE81040BC
:100E00001146FFF7C0BA0000000C01405C11000859
:100E100010B504462821124800F0A0F820222146EF
:100E2000A02000F021F80F4C10212046FFF79CFA7B
:100E30000028F9D10720FFF797FF04462146272015
:100E400000F03CF8E00605D5FF21E12000F036F87F
:100E5000102010BDA00601D5202010BDFF2010BD20
:100E600000300140000801402DE9F04704460D46DE
:100E70001646DFF84090002202214846FFF783FA29
:100E8000DFF834802146404600F04CF80746002445
:100E900006E015F8011B404600F044F8641CE4B27B
:100EA000B442F6D3012202214846FFF76CFA3846D5
:100EB000BDE8F087000C0140003001402DE9F04111
:100EC00005460F460B4C002202212046FFF75BFA35
:100ED0002946094D284600F025F806463946284699
:100EE00000F020F8012202212046FFF74CFA30469C
:100EF000BDE8F081000C0140003001407047000067
:100F000008B507494FF4FA520968B1FBF2F14143C1
:100F1000009100BF0098411E0091FAD208BD000068
:100F20000C00002010B54FF47A73002202E0521C2E
:100F30009A4204D88468C4F34004002CF7D0C160FE
:100F4000002102E0491C994204D88268C2F30002E1
:100F5000002AF7D0C068C0B210BD000010B5074A23
:100F600013684FF6C7742340136013680B43136074
:100F7000016841F04001016010BD000000300140F7
:100F8000704710B500F074F8BDE81040FFF708BADC
:100F900030B58FB0282105A8FFF7CDF81421684699
:100FA000FFF7C9F801210591080406900024079471
:100FB000099102250C950D904FF4E0100E9005A8B4
:100FC000FFF74AFB08B1FFF7D5F80F200090019515
:100FD00002944FF480600390049402216846FFF766
:100FE0006BFA002801D0FFF7C5F80FB030BD70478D
:100FF00070B50D4800F06CF80C4800F063F800F094
:101000007FF84FF400540A4D41F2883606E021463D
:101010002846FFF7B0F9304600F068F8FFF752FEB7
:101020000028F4D170BD0000A0860100003001400E
:101030000010014001220C4C550329462046FFF7C1
:10104000A2F9FFF7AFFE0948FFF7E2FE202805D01E
:10105000012229462046FFF796F9F4E700222946A7
:101060002046FFF790F9EEE7001001401000002045
:1010700003480168002902D00168491E01607047D9
:1010800018000020FEE70907090E002804DB00F124
:10109000E02080F80014704700F00F0000F1E0201D
:1010A00080F8141D704702E008C8121F08C1002A0A
:1010B000FAD170477047002001E001C1121F002AD9
:1010C000FBD17047016841F04001016070470000AA
:1010D00010B505490968B1FBF0F0FFF77FFC002867
:1010E00000D0FEE710BD00000C00002001B5034851
:1010F0000099016001680029FCD108BD180000209A
:1011000010B5064C002201212046FFF73CF920468D
:101110000122BDE810400221FFF735B9000C014063
:10112000FFF746F9FFF734FFFFF726FDFFF786FDCF
:10113000FFF75EFFFFF77EFFFCE7010202030405F5
:10114000060708090A0B0C0D0E0F10100000000016
:1011500000000000010203040607080934431010D0
:101160000134431010010000881100080000002025
:101170001C000000A6100008A41100081C0000209C
:1011800004040000B6100008010000001000000078
:10119000000000000024F40048656C6C6F21000022
:0411A000000000004B
:04000005080000ED02
:00000001FF
