:020000040800F2
:10000000280D0020A10100089D200008EB15000824
:100010009920000899040008DD2500080000000070
:100020000000000000000000000000006D2100083A
:100030009D04000800000000A1200008E521000840
:10004000BB010008BB010008BB010008BB010008A0
:10005000BB010008BB010008BB010008BB01000890
:10006000BB010008BB010008BB010008BB01000880
:10007000BB010008BB010008BB010008BB01000870
:10008000BB010008BB010008BB010008BB01000860
:10009000BB010008BB010008BB010008BB01000850
:1000A000BB010008BB010008BB010008BB01000840
:1000B000BB010008BB010008BB010008BB01000830
:1000C000BB010008BB010008BB010008BB01000820
:1000D000BB010008D5250008BB010008BB010008D2
:1000E000BB010008BB010008BB010008BB01000800
:1000F000BB010008BB010008BB010008BB010008F0
:10010000BB010008BB010008BB010008BB010008DF
:10011000BB010008BB010008BB010008BB010008CF
:10012000BB010008BB010008BB010008BB010008BF
:10013000BB010008BB010008BB010008BB010008AF
:10014000BB010008BB010008BB010008BB0100089F
:10015000BB010008BB010008BB010008BB0100088F
:10016000BB010008BB010008BB010008BB0100087F
:10017000BB010008BB010008BB0100080000000033
:10018000BB010008BB010008DFF810D000F072F9D5
:10019000004800477D4F0008AFF30080280D002085
:1001A0000648804706480047FEE7FEE7FEE7FEE711
:1001B000FEE7FEE7FEE7FEE7FEE7FEE79D2200081A
:1001C000890100082DE9F05F0546002092469B4614
:1001D00088460646814640241BE02846414647465D
:1001E000224600F0D9F853465A46C01A914110D31E
:1001F00011461846224600F0C0F82D1A67EB010898
:100200004F4622460120002100F0B7F817EB000905
:100210004E41201EA4F10104DFDC484631462A4647
:100220004346BDE8F09FD2B201E000F8012B491E21
:10023000FBD270470022F6E710B513460A46044683
:100240001946FFF7F0FF204610BD2DE9FE4F81EA69
:10025000030404F0004421F0004100944FF0000B2F
:1002600023F0004350EA01045ED052EA03045BD05D
:10027000C3F30A54C1F30A552C44A4F2F334019495
:10028000A0FB0254C1F3130141F48011C3F3130323
:1002900043F4801301FB024400FB034E840A970AD7
:1002A00044EA815447EA8357A4FB076802958D0A04
:1002B00005FB07854FEA932C04FB0C542705029D90
:1002C0004FEA065847EA1637B5EB08056EEB070C00
:1002D000870E920E47EA811742EA8312A7FB0201BA
:1002E000B6EB0B0164EB00042B0D43EA0C335E18F4
:1002F00044EB1C50DA465146E7FB0201C5F31304F8
:100300004FEA0B3343EA14534FEA0432019C43EAA9
:100310000603A4F10C040294009CCDE900B400F0A3
:100320005AF803B0BDE8F08F00200146F9E70EB59A
:1003300040F2334102910021CDE900110A460B46FB
:1003400000F049F803B000BDC1F30A5210B5C1F383
:10035000130140F2FF3341F480119A4201DA002088
:1003600010BD40F233439A42A2F2334203DC5242C0
:1003700000F012F810BD904010BD202A04DB203A96
:1003800000FA02F1002070479140C2F1200320FAE8
:1003900003F3194390407047202A04DB203A21FAE6
:1003A00002F00021704721FA02F3D040C2F120028E
:1003B000914008431946704710B5141E73F10004AC
:1003C00008DA401C41F1000192185B411A4301D147
:1003D00020F0010010BD2DE9F04D92469B4611B171
:1003E000B1FA81F202E0B0FA80F220329046FFF7D3
:1003F000C4FF04460F4640EA0A0041EA0B01534697
:100400005A46084313D0114653EA010019D0C8F1E7
:1004100040025046FFF7C0FF05460E46504659467B
:100420004246FFF7AAFF084305D0012004E020461A
:100430003946BDE8F08D0020054346EAE0762C43BE
:1004400037430A986305E40AA0EB08000022FD0A7E
:1004500044EA47540A3002D500200146E9E7010585
:1004600010196941DDE9084500196941BDE8F04D01
:10047000A2E70000064C074D06E0E06840F00103EB
:1004800094E8070098471034AC42F6D3FFF780FE9B
:10049000349800085498000800BFFEE77047000039
:1004A00038B530480078401CC0B28DF800002D48A7
:1004B0004078401CC0B28DF801002A488078401C6A
:1004C000C0B28DF802002748C078401CC0B28DF839
:1004D00003006A460C21002002F01EF901220021CF
:1004E000084602F0D9F801221146002002F0D4F8A3
:1004F000052002F0BBF90321002001F0F5FD1328CF
:1005000006D010220121002002F0C6F8002038BDDC
:1005100004220121002002F0BFF800BF00240221C4
:10052000002001F0E1FD044624B122460221002012
:1005300002F0B2F8052002F099F904F0080008284A
:1005400001D10020E3E70621002001F0CDFDFF28C6
:1005500006D010220121002002F09EF8FF20D6E7ED
:10056000DCE700003600002072B600BFFEE70000A6
:1005700070B50446B3F5804F13D1D1E9000540EAC8
:1005800005108D6840EA05208D6928438D8940EA71
:10059000054054F82250064E3540284344F82200C6
:1005A00003E06FF0704044F82200002070BD0000AE
:1005B0000000F0CF70B50246086852F8200020F025
:1005C00001000E6842F826008868082801D14023FF
:1005D00000E00023486818438E683043CE683043FB
:1005E0000E6930434E693043CE6930430E6A304362
:1005F0004E6A30438E6A3043CE6A30430E6B40EA17
:10060000060488690443C86B0443074D45F48065BC
:1006100045F4E025086852F82000A84320430E68FE
:1006200042F82600002070BD7FFB080010B503468D
:10063000D1E9000440EA04108C6840EA04208C8967
:1006400040EA0444088A401E44EA0054087D801EA3
:1006500044EA00608C692043541C53F8244004F0A1
:1006600040442043541C43F82400002010BD0000E7
:1006700000B587B0142102A8FFF7DCFD2A48006806
:1006800008B107B000BD01202749086000BF002065
:1006900001902648006840F001002449086008469F
:1006A000006800F00100019000BF00BF88140290B4
:1006B0000220039000200490032005900C20069057
:1006C00002A91B4800F03CF84FF68070029002200F
:1006D000039000200490032005900C20069002A9AE
:1006E000144800F02DF84CF2337002900220039071
:1006F00000200490032005900C20069002A90E48CB
:1007000000F01EF84FF48050029002200390002069
:100710000490032005900C20069002A9074800F0E1
:100720000FF800BFADE7000000000020383802409D
:100730000014024000100240000C02400018024069
:10074000F8B502460B460025002400200021D6E023
:10075000012606FA01F51E6806EA0504AC4274D1CA
:100760001E7906F00306012E04D01E7906F003065A
:10077000022E13D190684F000326BE40B0434F00B5
:10078000DE68BE4030439060506801268E40B04322
:100790001E79C6F300168E40304350601E7906F075
:1007A0000306032E09D0D0684F000326BE40B04395
:1007B0004F009E68BE403043D0601E7906F00306AD
:1007C000022E13D1CF0802F1200656F827004E075B
:1007D000F70E0F26BE40B0434F07FF0E1E69BE4006
:1007E0003043CF0802F1200646F8270010684F007A
:1007F0000326BE40B0431E7906F003064F00BE40FC
:10080000304310605E6806F44036002E76D000BF9C
:10081000002600963C4E366846F480463A4F3E60CD
:100820003E46366806F48046009600BF00BF374E4D
:100830008F0856F827008E07370F0F26BE40B043AB
:10084000334EB24202D1002624E057E0314EB2428C
:1008500001D101261EE0304EB24201D1022619E03C
:100860002E4EB24201D1032614E02D4EB24201D1E8
:1008700004260FE02B4EB24201D105260AE02A4E93
:10088000B24201D1062605E0284EB24201D1072628
:1008900000E008268F073F0FBE4030431B4E8F08F5
:1008A00046F82700224E3068A0435E6806F48016A2
:1008B00006B120431E4E3060361D3068A0435E688E
:1008C00006F4001606B12043194E361D3060184E4E
:1008D000361F3068A0435E6806F4003606B1204338
:1008E000134E361F3060361F3068A0435E6806F432
:1008F000803606B120430E4E083E3060491C102958
:10090000FFF426AFF8BD000044380240083801402B
:10091000000002400004024000080240000C0240B7
:10092000001002400014024000180240001C024067
:10093000083C01400AB1816101E00B04836170470A
:1009400001480068704700000800002010B50D48FD
:10095000006840F400700B4908600846006840F4E5
:10096000806008600846006840F4807008600320DA
:1009700000F0A6F80F2000F007F800F02BF8002098
:1009800010BD0000003C024070B504460E480078DF
:100990004FF47A71B1FBF0F00C490968B1FBF0F546
:1009A000284600F01FFD08B1012070BD102C07D2B1
:1009B00000222146501E00F045F80548046001E081
:1009C0000120F2E70020F0E71000002014000020D2
:1009D0000C00002008B500BF002000900E48006801
:1009E00040F480400C4908600846006800F48040EC
:1009F000009000BF00BF00BF00200090081F0068EB
:100A000040F08050091F08600846006800F08050E0
:100A1000009000BF00BF08BD4438024001460846B0
:100A200000280DDB00BF00BF00F01F0301229A4029
:100A300043099B0003F1E023C3F8002100BF00BF7E
:100A400000BF70472DE9F05F80460D46164600272F
:100A500001F0BAFE074639462A46334601F0070040
:100A6000C0F1070ABAF1040F02D94FF0040A01E0FD
:100A7000C0F1070AD14600F1040ABAF1070F02D209
:100A80004FF0000A01E0A0F1030AD4464FF0010A3A
:100A90000AFA09FAAAF1010A0AEA020A0AFA0CFA9F
:100AA0004FF0010B0BFA0CFBABF1010B0BEA030B44
:100AB0004AEA0B042146404601F08EFEBDE8F09F55
:100AC00000BF00F00702064B19684FF6FF031940FC
:100AD000044B0B4343EA0221014B196000BF7047EE
:100AE0000CED00E00000FA0570B504460D460CB9A7
:100AF000012070BD5848006800F00700A84209D2E4
:100B000055490D700846006800F00700A84201D062
:100B10000120EEE7207800F0020002281DD12078A5
:100B200000F00400042805D14C48006840F4E0506F
:100B30004A490860207800F00800082805D1474895
:100B4000006840F46040454908604448006820F06F
:100B5000F000A168084341490860207800F00100D6
:100B6000A8B36068012807D13C4808380068C0F382
:100B70004040B8B90120BCE76068022802D0606834
:100B8000032807D1354808380068C0F3406048B9E9
:100B90000120AEE7314808380068C0F3400008B9CA
:100BA0000120A6E72D48006820F003006168084393
:100BB0002A490860FFF7C4FE064609E0FFF7C0FEB9
:100BC000801B41F28831884202D9032091E707E077
:100BD0002248006800F00C006168B0EB810FEDD195
:100BE0001D48006800F00700A84209D91A490D7095
:100BF0000846006800F00700A84201D0012078E70D
:100C0000207800F00400042807D11448006820F47C
:100C1000E050E168084311490860207800F00800BE
:100C2000082808D10D48006820F46040216940EA96
:100C3000C1000A49086000F03FF808490968C1F39B
:100C40000311074A515CC84006490860064800681D
:100C5000FFF79AFE00204CE7003C024008380240B3
:100C6000DC500008140000200C000020014800683F
:100C7000704700001400002000B5FFF7F7FF04499B
:100C80000968C1F38221034A515CC84000BD0000DD
:100C900008380240EC50000800B5FFF7E7FF0449B0
:100CA0000968C1F34231034A515CC84000BD0000ED
:100CB00008380240EC5000082DE9F04700240025D8
:100CC0000026A1462548006800F00C0020B1042849
:100CD00005D008283AD105E0DFF8849039E0DFF844
:100CE000849036E01D48001F006800F03F041B4858
:100CF000001F006800F4800078B11A481749091FE6
:100D00000968C1F38811A0FB017001462246002347
:100D10003846FFF757FA05460EE011480F49091FFC
:100D20000968C1F38811A0FB017001462246002327
:100D30003846FFF747FA05460848001F0068C0F329
:100D40000140401C4600B5FBF6F902E0DFF81090C8
:100D500000BF00BF4846BDE8F087000008380240E9
:100D60000024F40000127A00F8B504460CB9012002
:100D7000F8BD207800F00100002874D0F948006820
:100D800000F00C0004280DD0F648006800F00C00BC
:100D9000082813D1F348001F006800F48000B0F564
:100DA000800F0BD1EF4808380068C0F3404000289E
:100DB00059D06068002856D10120D9E700BF60688B
:100DC000B0F5803F08D1E7480838006840F480302B
:100DD000E449083908601EE06068B0F5A02F0DD125
:100DE000E0480838006840F48020DE49083908608F
:100DF0000846006840F4803008600CE0D9480838A4
:100E0000006820F48030D749083908600846006837
:100E100020F48020086000BF606890B1FFF790FD6B
:100E2000054606E0FFF78CFD401B642801D903202E
:100E30009EE7CC4808380068C0F340400028F1D055
:100E400011E0FFF77DFD054606E0FFF779FD401B49
:100E5000642801D903208BE7C24808380068C0F332
:100E600040400028F1D1207800F0020002285FD134
:100E7000BC48006800F00C0058B1BA48006800F0A7
:100E80000C0008281CD1B748001F006800F480003F
:100E9000B0B9B44808380068C0F3400020B1E06839
:100EA000012801D0012063E7AE480838006820F02F
:100EB000F800216940EAC100AA490839086037E012
:100EC000E06800B30120A8490860FFF739FD054636
:100ED00006E0FFF735FD401B022801D9032047E754
:100EE000A04808380068C0F340000028F1D09D48B1
:100EF0000838006820F0F800216940EAC1009949EB
:100F00000839086014E0002097490860FFF718FDD1
:100F1000054606E0FFF714FD401B022801D9032017
:100F200026E7904808380068C0F340000028F1D157
:100F3000207800F0080008282CD16069A8B10120B1
:100F40008A490860FFF7FCFC054606E0FFF7F8FC5D
:100F5000401B022801D903200AE782486C30006850
:100F6000C0F340000028F1D014E000207F49086061
:100F7000FFF7E6FC054606E0FFF7E2FC401B02280F
:100F800001D90320F4E677486C300068C0F34000D4
:100F90000028F1D1207800F00400042870D1002747
:100FA00070483830006800F0805090B900BF0020D1
:100FB00000906C483830006840F080506949383102
:100FC00008600846006800F08050009000BF00BF35
:100FD00001276748006800F48070B0B96448006871
:100FE00040F4807062490860FFF7AAFC054606E0FD
:100FF000FFF7A6FC401B022801D90320B8E65C4895
:10100000006800F480700028F2D000BFA0680128BA
:1010100008D154486830006840F0010051496831F7
:1010200008601DE0A06805280DD14E4868300068B2
:1010300040F004004B49683108600846006840F001
:10104000010008600CE047486830006820F00100AB
:101050004449683108600846006820F004000860D0
:1010600000BFA068A8B1FFF76BFC054609E0FFF7D9
:1010700067FC401B41F28831884202D9032077E6A1
:1010800026E0384868300068C0F340000028EED001
:1010900013E0FFF755FC054608E0FFF751FC401B45
:1010A00041F28831884201D9032061E62D48683039
:1010B0000068C0F340000028EFD1012F07D1294874
:1010C0003830006820F0805026493831086000BF71
:1010D000A069002845D02348006800F00C000828CB
:1010E0005DD0A069022845D100201F490866FFF79E
:1010F00027FC054606E0FFF723FC401B022801D928
:10110000032035E6174808380068C0F3406000281F
:10111000F1D1D4E907010843616A40EA8111012253
:10112000A06AC2EB500041EA00412C20005D41EA78
:1011300000600C49091F086001200B490866FFF791
:10114000FFFB054606E0FFF7FBFB401B022801D929
:1011500003200DE6034808380068C0F3406000280B
:10116000F1D049E00838024000004742800E474273
:1011700000700040002021490866FFF7E1FB0546AA
:1011800006E0FFF7DDFB401B022801D90320EFE555
:101190001B480068C0F340600028F2D12CE0A06931
:1011A000012800D1E4E51648001D0668A069012861
:1011B00020D006F48001E06981421BD106F03F0196
:1011C000206A814216D147F6C0703040616AB0EBA8
:1011D000811F0FD106F440310122A06AC2EB5000FA
:1011E000B1EB004F06D106F070612C20005DB1EB31
:1011F000006F01D00120BBE50020B9E500004742A7
:101200000038024010B504460CB9012010BD606AD8
:1012100038B96068B0F5827F00D105E00021E16156
:1012200002E00021216161610021A16294F8510076
:1012300028B9002084F85000204600F047F802202A
:1012400084F851002068006820F0400021680860A0
:10125000A08800F48270218901F404410843A18927
:1012600001F400610843217C01F002010843217D63
:1012700001F001010843218B01F400710843217F33
:1012800001F0380108432021095D01F08001084385
:10129000218D01F400510843216808600421A069F0
:1012A00001EA104094F8241001F01001084321686D
:1012B00048602068C06920F400602168C86100208F
:1012C0006065012084F8510000209FE710B586B0CA
:1012D0000446142101A8FEF7ADFF1B49206888428F
:1012E0002FD100BF002000901848006840F48050C3
:1012F000164908600846006800F48050009000BF5E
:1013000000BF00BF0020009010481438006840F073
:1013100001000E49143908600846006800F0010019
:10132000009000BF00BFE02001900220029000204A
:101330000390032004900520059001A90448FFF7BD
:10134000FFF906B010BD00000030014044380240F3
:101350000000024070B504460E4615460CB9012047
:1013600070BD94F8490028B9002084F84800204650
:1013700000F01FF804F108012068FFF71BF931465F
:10138000A2682068FFF752F92946236BD4E90102CD
:10139000FFF7EEF8A168206850F8210040F0010046
:1013A000A268216841F82200012084F84900002049
:1013B000D6E710B50446FFF75BF910BD042808D145
:1013C0004FF0E021096941F004014FF0E022116182
:1013D00007E04FF0E021096921F004014FF0E0221D
:1013E0001161704770B504462546681EB0F1807FD4
:1013F00001D301200FE0681E4FF0E02148610F216A
:101400004FF0FF3001F0E8F900204FF0E021886153
:1014100007200861002070BD10B504460CB90120FA
:1014200010BDA06900B100E000BF94F8410028B9E8
:10143000002084F84000204600F02AF8242084F898
:1014400041002068C06820F400502168C860204630
:1014500000F064FF2068006920F490402168086172
:101460002068406920F02A00216848612068C0682F
:1014700040F400502168C86000206064202084F897
:10148000410084F842000020606300BFC8E700000C
:1014900010B586B00446142101A8FEF7CBFE1F4903
:1014A0002068884238D100BF002000901C480068A6
:1014B00040F010001A4908600846006800F010006B
:1014C000009000BF00BF00BF0020009014481438F7
:1014D000006840F0010012491439086008460068AD
:1014E00000F00100009000BF00BF4FF4C060019009
:1014F0000220029000200390032004900720059012
:1015000001A90848FFF71CF9002201212520FFF757
:1015100099FA2520FFF782FA06B010BD00100140AD
:1015200044380240000002402DE9F84F04460E46C0
:10153000174699464FF0000A94F84200202852D1ED
:1015400006B117B90120BDE8F88F002060642220A1
:1015500084F8420000202063FFF7F2F98246A78555
:10156000E785A068B0F5805F04D1206910B9002537
:10157000B04602E035464FF000082CE0534600220A
:1015800020212046CDF8009000F0DEFF20B1202081
:1015900084F842000320D6E745B920684068C0F3CC
:1015A0000800A8F8000008F1020811E0A068B0F5F2
:1015B000805F03D0A06828B9206918B92068406806
:1015C000287004E02068406800F07F0028706D1CDF
:1015D000E08D401EE085E08D0028CFD1202084F8EA
:1015E00042000020AFE70220ADE700BFFEE70000A9
:1015F00070B5044600260948058840884543002107
:10160000084600F075FA00F0EDFB00BF02E0044967
:101610000C80761CAE42FAD370BD00001409002085
:101620008000006C10B5044649488471002C45D1F7
:10163000F020474908804FF4A07048800846808811
:1016400045F21051884210D14FF430504049088182
:101650004FF4285048814FF42C5088814FF4F0709B
:1016600008804FF4487048801AE03948808841F675
:10167000631188420DD12C20354908812B204881E7
:101680002A2088814FF4F07008804FF44870488019
:1016900006E02C202E4908812A2048812B208881B1
:1016A0002B48808845F2103188424CD14FF4A0700D
:1016B000274908804FF4F070488044E04FF4A07050
:1016C00023490880F02048800846808845F2105160
:1016D000884210D14FF430501D4908814FF42850F2
:1016E00048814FF42C5088814FF4487008804FF4A3
:1016F000F07048801AE01648808841F663118842ED
:101700000DD12C20124908812A2048812B20888164
:101710004FF4487008804FF4F070488006E02C20A9
:101720000B4908812A2048812B208881084880881D
:1017300045F21031884206D14FF4F0700449088018
:101740004FF4A0704880002000F0B8F810BD0000F1
:101750001409002030B504460D463948808845F20A
:101760001051884220D13649488900F02FFB2012C1
:1017700000F020FB32494989491C88B200F026FB61
:10178000E0B200F017FB2E49888900F01FFB2812F9
:1017900000F010FB2A498989491C88B200F016FB29
:1017A000E8B200F007FB42E02548808841F663116B
:1017B000884228D12248807920B921480088401EDB
:1017C000001B84B21E49488900F000FB201200F083
:1017D000F1FAE0B200F0EEFA201200F0EBFAE0B21B
:1017E00000F0E8FA1649888900F0F0FA281200F0B3
:1017F000E1FAE8B200F0DEFA281200F0DBFAE8B213
:1018000000F0D8FA13E00E49488900F0DFFA201200
:1018100000F0D0FAE0B200F0CDFA0949888900F072
:10182000D5FA281200F0C6FAE8B200F0C3FA04486C
:101830000089044908804FF0D841A1F8802030BDCC
:10184000140900207E00006C08B503480088009051
:10185000BDF8000008BD00008000006C70B52DEDE3
:10186000048B0446BE2000F0B1FA052000F0A2FA75
:101870002046FEF75CFD41EC190B9FED0E0B53EC7F
:10188000102BFEF7E2FC41EC180BFEF75DFD85B274
:10189000284600F08FFA012000F08CFAFF2000F0BB
:1018A00089FA002000F086FA002000F083FABDECEF
:1018B000048B70BD6666666666660440F0B50546D4
:1018C0000024002789488079012805D1874880882D
:1018D00041F66311884208D184488079F0B9834881
:1018E000808841F66311884218D1082D15D2DFE8AF
:1018F00005F00406080A0C0E101206250DE0072557
:101900000BE0042509E0052507E0012505E0002599
:1019100003E0032501E0022500BF00BF082D1CD213
:10192000DFE805F00406090C0F12151800BF14E0DB
:1019300044F0800411E044F040040EE044F0C004A0
:101940000BE044F0200408E044F0600405E044F0BB
:10195000A00402E044F0E00400BF00BF63488088B8
:1019600045F21051884202D14FF4585700E0362713
:101970005E48808849F24131884205D05B488088C2
:1019800047F28971884201D144F008042146384663
:1019900000F032FA5548808841F6631188421DD024
:1019A00004F0200068B151480088504949888842B5
:1019B00014DA4E48068840884C490880084646801C
:1019C0000CE04A48008849494988884206DD474872
:1019D00006884088454908800846468043488088F4
:1019E00045F21051884252D14049488900F0EEF941
:1019F000002000F0DFF93D494989491C88B200F018
:101A0000E5F9002000F0D6F938494989891C88B2E7
:101A100000F0DCF935490988491EC1F30F2000F0B8
:101A2000C9F932494989C91C88B200F0CFF92F4958
:101A30000978491EC8B200F0BDF92C49888900F028
:101A4000C5F9002000F0B6F928498989491C88B2F7
:101A500000F0BCF9002000F0ADF924498989891C07
:101A600088B200F0B3F921494988491EC1F30F201B
:101A700000F0A0F91D498989C91C88B200F0A6F9B7
:101A80001A498978491EC8B200F094F92DE0174927
:101A9000488900F09BF9002000F08CF9002000F04C
:101AA00089F912490988491EC1F30F2000F082F913
:101AB0000E490978491EC8B200F07CF90B498889A3
:101AC00000F084F9002000F075F9002000F072F9B0
:101AD00006494988491EC1F30F2000F06BF90349FC
:101AE0008978491EC8B200F065F9F0BD14090020DC
:101AF00010B502460C464548808841F6631188427D
:101B000047D142488079A8B940480088401E801AD1
:101B100082B23E49488900F059F9002000F04AF9A4
:101B2000002000F047F9101200F044F9D0B200F0A4
:101B300041F916E03549488900F048F9101200F0E3
:101B400039F9D0B200F036F930490988491EC1F39D
:101B50000F2000F02FF92D490978491EC8B200F076
:101B600029F92A49888900F031F9201200F022F978
:101B7000E0B200F01FF925494988491EC1F30F2042
:101B800000F018F921498978491EC8B200F012F90D
:101B90003AE01E48808845F21051884220D11B4906
:101BA000488900F013F9101200F004F91749498927
:101BB000491C88B200F00AF9D0B200F0FBF81349D2
:101BC000888900F003F9201200F0F4F80F498989A0
:101BD000491C88B200F0FAF8E0B200F0EBF813E02C
:101BE0000A49488900F0F2F8101200F0E3F8D0B288
:101BF00000F0E0F80549888900F0E8F8201200F0CC
:101C0000D9F8E0B200F0D6F810BD000014090020A9
:101C10002DE9F84F80460F4616461C46BB46204627
:101C2000E31704EB5373DB1021464FEAE47C04EB2B
:101C30005C7C4FEAEC0CA4EBCC0CBCF1000F02D0A6
:101C40004FF0010C01E04FF0000C6344224604EB1E
:101C5000D27C4FEA6C0C03FB0CF3DBB20093A6F1D1
:101C60002000C6B200255EE00C2C07D106EB460032
:101C70002F4901EB800010F805901BE0102C05D1D6
:101C80002C4800EB061010F8059013E0182C07D133
:101C900006EBC600284901EB800010F8059009E02A
:101CA000202C05D1254800EBC61010F8059001E066
:101CB000BDE8F88F4FF0000A2FE009F0800030B146
:101CC0001F48394602684046FFF744FD07E00A987E
:101CD00028B91C48394602684046FFF73BFD4FEAE9
:101CE00049604FEA1069781C87B217484088B842AB
:101CF00000DCDDE7A7EB0B00A0420AD15F4608F14C
:101D000001001FFA80F810480088404500DCCFE74A
:101D100006E00AF1010000F0FF0ABAF1080FCCDB7F
:101D200000BF681CC5B2009885429DDB00BFBFE7BD
:101D3000F450000868550008585B0008B4680008B3
:101D40004C00002050000020140900202DE9F84725
:101D500004460D4690469946DDE9096704F0FF0AFE
:101D600008EB04001FFA80F809EB05001FFA80F960
:101D700016E0444502DB5446A81985B24D4500DB08
:101D800014E0002000903A78334629462046FFF7B9
:101D90003FFF304606EBD07104EB61018CB27F1C33
:101DA00038787E2802DC38782028E2DA00BFBDE8E7
:101DB000F887000001B5BDF800000090BDF80000F4
:101DC0000149088008BD00008000006C01B5BDF825
:101DD00000000090BDF800000149088008BD000027
:101DE0007E00006C024800890249088070470000AC
:101DF000140900207E00006C034A10804FF0D84286
:101E0000A2F88010704700007E00006C00B587B01B
:101E10001C216846FEF70EFA4FF020401849086072
:101E2000184848600620886000211548C16001619B
:101E30001021416100218161C161016241624FF461
:101E4000805181620021C162016341638163416409
:101E50000F2000900190FF2002900F20039010208F
:101E60000490112005900020069000226946044845
:101E7000FFF770FA08B1FEF777FB07B000BD00006E
:101E8000F4000020040100A000B587B0142102A8CE
:101E9000FEF7D0F900BF002001905B48006840F0D9
:101EA0001000594908600846006800F010000190D1
:101EB00000BF00BF00BF002001900846006840F04E
:101EC000200008600846006800F02000019000BF74
:101ED00000BF00BF002001900846006840F080006D
:101EE00008600846006800F08000019000BF00BF55
:101EF00000BF002001900846006840F00100086023
:101F00000846006800F00100019000BF00BF00BF5C
:101F1000002001900846006840F002000860084672
:101F2000006800F00200019000BF00BF00BF002069
:101F300001900846006840F0080008600846006804
:101F400000F00800019000BF00BF00BF002001901A
:101F50000846006840F0400008600846006800F04D
:101F60004000019000BF00BF01224FF4C06127482C
:101F7000FEF7E0FC002208212548FEF7DBFC0122E9
:101F800010212348FEF7D6FC00224FF400412148DF
:101F9000FEF7D0FC1820029000200390012004904E
:101FA00002A91D48FEF7CCFB4FF4C060029001204F
:101FB000039000200490059002A91448FEF7C0FB8E
:101FC00001200290002003900220049002A91048F2
:101FD000FEF7B6FB18200290012003900020049029
:101FE000059002A90A48FEF7ABFB4FF400400290AF
:101FF0000120039000200490059002A90548FEF7F7
:102000009FFB07B000BD00003038024000140240C2
:1020100000000240000402400010024010B50E48CB
:102020000E4908604FF48270486000210B488160BF
:10203000C160016141614FF4007181610021C161A2
:102040000162416281620A21C162FFF7DBF808B1D7
:10205000FEF78AFA10BD0000003001405400002055
:1020600010B50B480B4908604FF4E130486000217F
:1020700008488160C16001610C21416100218161DA
:10208000C161FFF7C9F908B1FEF76EFA10BD000093
:1020900000100140AC00002000BFFEE700BFFEE7DB
:1020A0007047000070B50446002210210C48FEF76E
:1020B00041FC204600F04CF8012000F03DF80948B2
:1020C000C068C5B2002000F037F80648C068C5B245
:1020D000012210210248FEF72DFC284670BD0000A9
:1020E000000002400030014070B504460D46002259
:1020F00010210F48FEF71EFC284600F029F80821A1
:1021000001EB4411C9B241F0010000F015F8094893
:10211000C068C6B2002000F00FF80648C068C6B21A
:10212000012210210248FEF705FC304670BD000078
:1021300000000240003001400449C86000BF03496C
:10214000896801F002010029F9D070470030014090
:1021500000B502461346D11702EB1161C1F3072007
:10216000FFF7EAFFD0B2FFF7E7FF00BD70470000BE
:1021700010B5044640F2B4521221002000F0ACFA2F
:10218000082C26D2DFE804F0041E1F20212223247D
:1021900011484178007801EB002082B20421002030
:1021A00000F09AFA0D484178007801EB002082B2E5
:1021B0001021002000F090FA094A0C21002000F0C4
:1021C000ABFA07E006E005E004E003E002E001E02E
:1021D00000E000BF00BF10BD3A000020400000201A
:1021E0003C0000207047000000B593B0302107A8E4
:1021F000FEF720F8142102A8FEF71CF800BF00200B
:1022000001902448006840F0805022490860084648
:10221000006800F08050019000BF00BF00BF0020A8
:1022200001901D48006840F480401B490860084642
:10223000006800F48040019000BF00BF01200790BB
:102240000004089002200D9041050E9104210F9189
:10225000A8211091022111910421129107A8FEF7E3
:1022600083FD08B1FEF780F90F2002900220039051
:10227000002004904FF4A05005904FF48050069039
:10228000052102A8FEF730FC08B1FEF76DF913B086
:1022900000BD000040380240007000400348006864
:1022A00040F47000014908607047000088ED00E0CC
:1022B00000BF00BF02680C3252E8002F22F4907178
:1022C00002680C3242E80013002BF3D100BF00BFBC
:1022D00000BF0268143252E8002F22F001010268A8
:1022E000143242E80013002BF3D100BF016B012927
:1022F0000ED100BF00BF02680C3252E8002F22F05E
:10230000100102680C3242E80013002BF3D100BF29
:10231000202180F842100021016370472DE9F84F19
:1023200004462068006920F44050E16808432168B1
:1023300008612169A068084361690843E1690843AD
:1023400000902068C06849F20C61884300990843F6
:102350002168C8602068406920F44070A169084382
:102360002168486176492068884203D07549206811
:10237000884203D1FEF790FC814602E0FEF77CFC28
:102380008146E069B0F5004F6CD102206168A0FB86
:10239000015003461920A9FB007001462A46384621
:1023A000FDF710FF6421B0FBF1F04FEA001A0220A4
:1023B0006168A0FB01510B461920A9FB00712A4658
:1023C0003846FDF7FFFE834602206168A0FB0150FE
:1023D00003461920A9FB00712A463846FDF7F2FE94
:1023E0006421B0FBF1F000EBC00101EB0010ABEB9E
:1023F0008000322101EBC0006421B0FBF1F000F05D
:10240000F8000AEB400A02206168A0FB0150034675
:102410001920A9FB007001462A463846FDF7D2FE76
:10242000834602206168A0FB015003461920A9FBE6
:1024300000712A463846FDF7C5FE6421B0FBF1F075
:1024400000EBC00101EB0010ABEB8000322101EB8F
:10245000C0006421B0FBF1F000F007005044216897
:1024600088606AE004206168A0FB015003461920DF
:10247000A9FB007001462A463846FDF7A3FE8246B6
:1024800004206168A0FB015003461920A9FB0070DD
:1024900001462A463846FDF795FE6421B0FBF1F06F
:1024A00000EBC00101EB0010AAEB8000322101EB30
:1024B00000106421B0FBF1F000F0F00A0420616824
:1024C000A0FB017003461920A9FB00513A4628469B
:1024D000FDF778FE6421B0FBF1F00AEB001A04204E
:1024E0006168A0FB01510B461920A9FB00712A4627
:1024F0003846FDF767FE834604206168A0FB015063
:1025000003461920A9FB007001462A463846FDF70C
:1025100059FE6421B0FBF1F000EBC00101EB0010AB
:10252000ABEB8000322101EB00106421B0FBF1F035
:1025300000F00F00504421688860BDE8F88F00006B
:1025400000100140001401402DE9F84304460D46F7
:1025500017469846089E31E0701C70B3FEF7F0F9FC
:10256000A0EB0800B04200D816B90320BDE8F883FC
:102570002068C06800F00400F8B1802D1ED0402D06
:102580001CD020680068C0F3C000B0B100BF0020BC
:10259000009020680068009020684068009000BFAC
:1025A00000BF2046FFF784FE0820606400BF0020C3
:1025B00084F8400000BF0120D8E7FFE720680068EA
:1025C0002840A84201D1012000E00020B842C3D039
:1025D0000020CBE710B502F05BFD10BD00BFFEE7A9
:1025E00010B5002210210B48FEF7A4F9322000F0AC
:1025F0003DF9012210210748FEF79CF9C82000F0A0
:1026000035F900BF2E20FFF74DFD00F00100002836
:10261000F8D010BD0000024010B5FFF7E1FF02F056
:102620005FFCFDF73DFF0020FFF7A2FD10BD00009D
:1026300070B505460C46002210210948FEF77AF9CC
:102640002846FFF785FD0520FFF776FD2046FFF7BA
:1026500073FD012210210248FEF76CF970BD0000E5
:102660000000024070B505460C46002210210948C2
:10267000FEF760F92846FFF76BFD0620FFF75CFDCB
:102680002046FFF765FD012210210248FEF752F9AE
:1026900070BD00000000024070B504460D461646AD
:1026A000002210210B48FEF745F92846FFF750FDA0
:1026B000082101EB4411C9B241F00500FFF73CFDD0
:1026C0003046FFF739FD012210210248FEF732F9AA
:1026D00070BD00000000024070B504460D4616466D
:1026E000002210210B48FEF725F92846FFF730FDA0
:1026F000082101EB4411C9B241F00600FFF71CFDAF
:102700003046FFF725FD012210210248FEF712F99D
:1027100070BD00000000024070B505460E4614462C
:10272000002210211148FEF705F93046FFF710FD91
:10273000082101EB4511C9B241F00700FFF7FCFC8D
:1027400014F8010BFFF7F8FC14F8010BFFF7F4FC89
:1027500014F8010BFFF7F0FC14F8010BFFF7ECFC89
:10276000012210210148FEF7E5F870BD000002408B
:102770002DE9F04107460C461546002210210D4870
:10278000FEF7D8F83846FFF7E3FC0420FFF7D4FC47
:10279000002605E014F8010BFFF7CEFC701C86B292
:1027A000AE42F7DB012210210248FEF7C3F8BDE874
:1027B000F081000000000240014A024900F02FB8F9
:1027C000614F00081800002002480068C0F3022092
:1027D000704700000CED00E010B5002804DB0A078C
:1027E000130E054A135406E00A07140E034A00F0BC
:1027F0000F031B1FD45410BD00E400E018ED00E0EF
:1028000002E008C8121F08C1002AFAD170477047B9
:10281000002001E001C1121F002AFBD170472DE901
:10282000F04116460F460446002503E03946B047FE
:10283000641C6D1C20780028F8D12846BDE8F08182
:1028400010B504460420FEF7B9FD0148046010BD30
:102850002400002004480068C06840F020000249BD
:102860000968C86070470000AC00002011B5002462
:1028700004E04FF47A7000F007F8641CBDF8000023
:102880008442F6D318BD000071B500224FF0E02558
:102890006C690E4E009D366805FB06F34FF0E0258F
:1028A000A96910E04FF0E025A86988420BD0884262
:1028B00002D20D1A2A4402E0251A0D442A44014688
:1028C0009A4200D300E0EDE700BF78BD240000206D
:1028D00010B5D320FFF77AFAFEF7B6FFFD498880DE
:1028E000FEF7B2FFFB498880FEF7AEFFF94988800A
:1028F000084680884FF6FF7101EA0020F54988807C
:10290000FEF7A2FFF34989880843F2498880084608
:10291000808849F2413188427DD00420FFF756FA81
:10292000FEF792FFEB498880FEF78EFFE949888029
:10293000FEF78AFFE7498880084680884FF6FF71D6
:1029400001EA0020E3498880FEF77EFFE14989889B
:102950000843E04988800846808848F252518842FE
:1029600003D147F28970DB498880DA48808847F2D2
:1029700089718842D0D0D420FFF728FAFEF764FF8F
:10298000D4498880FEF760FFD2498880FEF75CFF5B
:10299000D0498880084680884FF6FF7101EA002000
:1029A000CC498880FEF750FFCA4989880843C94945
:1029B00088800846808845F2103188426BD05521C6
:1029C0004FF47040FFF718FAAA214FF20100FFF709
:1029D00013FA52214FF20200FFF70EFA08214FF2CC
:1029E0000300FFF709FA01214FF20400FFF704FA90
:1029F0004FF44540FFF7EAF9FEF726FFB549888016
:102A0000084680884FF6FF7101EA0020B1498880AE
:102A10004CF2015000E03EE0FFF7D8F9FEF714FF5A
:102A2000AC4989880843AB4988800520FFF71EFF21
:102A3000A8488088B0F5004F03D145F21050A54951
:102A40008880A448808845F21051884223D0A12074
:102A5000FFF7BCF9FEF7F8FE9E498880FEF7F4FE0A
:102A60009C498880084680884FF6FF7101EA002063
:102A700098498880FEF7E8FE964989880843954979
:102A800088800846808845F26171884203D141F60A
:102A90006310904988808F48808849F2413188428C
:102AA0007ED1CF20FFF792F90020FFF783F9C120F4
:102AB000FFF780F93020FFF77DF9ED20FFF786F969
:102AC0006420FFF777F90320FFF774F91220FFF76E
:102AD00071F98120FFF76EF9E820FFF777F985207B
:102AE000FFF768F91020FFF765F97A20FFF762F920
:102AF000CB20FFF76BF93920FFF75CF92C20FFF7AB
:102B000059F90020FFF756F93420FFF753F9022056
:102B1000FFF750F9F720FFF759F92020FFF74AF99E
:102B2000EA20FFF753F90020FFF744F90020FFF7F0
:102B300041F9C020FFF74AF91B20FFF73BF9C120FC
:102B4000FFF744F90120FFF735F9C520FFF73EF9FB
:102B50003020FFF72FF93020FFF72CF9C720FFF7BF
:102B600035F9B720FFF726F93620FFF72FF948206F
:102B7000FFF720F93A20FFF729F95520FFF71AF956
:102B8000B120FFF723F90020FFF714F91A20FFF70F
:102B900011F9B620FFF71AF90A20FFF70BF900E048
:102BA0009AE0A220FFF706F9F220FFF70FF90020C4
:102BB000FFF700F92620FFF709F90120FFF7FAF8DF
:102BC000E020FFF703F90F20FFF7F4F82A20FFF7C2
:102BD000F1F82820FFF7EEF80820FFF7EBF80E20B9
:102BE000FFF7E8F80820FFF7E5F85420FFF7E2F8D0
:102BF000A920FFF7DFF84320FFF7DCF80A20FFF7F2
:102C0000D9F80F20FFF7D6F80020FFF7D3F80020FF
:102C1000FFF7D0F80020FFF7CDF80020FFF7CAF843
:102C2000E120FFF7D3F80020FFF7C4F81520FFF7E5
:102C3000C1F81720FFF7BEF80720FFF7BBF81120F7
:102C4000FFF7B8F80620FFF7B5F82B20FFF7B2F82A
:102C50005620FFF7AFF83C20FFF7ACF80520FFF750
:102C6000A9F81020FFF7A6F80F20FFF7A3F83F20E0
:102C7000FFF7A0F83F20FFF79DF80F20FFF79AF825
:102C80002B20FFF7A3F80020FFF794F80020FFF7B0
:102C900091F80120FFF78EF83F20FFF78BF82A20EC
:102CA000FFF794F80020FFF785F80020FFF782F87F
:102CB0000020FFF77FF8EF20FFF77CF81120FFF7E7
:102CC00085F87820FFF7D2FD2920FFF77FF802F082
:102CD000A9B8000014090020FE48808847F28971D5
:102CE00088427CD11120FFF771F87820FFF7BEFDF4
:102CF0003620FFF76BF80020FFF75CF83A20FFF76B
:102D000065F80520FFF756F8B220FFF75FF80C20B2
:102D1000FFF750F80C20FFF74DF80020FFF74AF8B6
:102D20003320FFF747F83320FFF744F8B720FFF7C9
:102D30004DF83520FFF73EF8BB20FFF747F832206B
:102D4000FFF738F8C020FFF741F80C20FFF732F802
:102D5000C220FFF73BF80120FFF72CF8C320FFF754
:102D600035F81020FFF726F8C420FFF72FF82020B1
:102D7000FFF720F8C620FFF729F80F20FFF71AF811
:102D8000D020FFF723F8A420FFF714F8A120FFF7C5
:102D900011F8E020FFF71AF8D020FFF70BF8002019
:102DA000FFF708F80220FFF705F80720FFF702F801
:102DB0000A20FEF7FFFF2820FEF7FCFF3220FEF777
:102DC000F9FF4420FEF7F6FF4220FEF7F3FF06204E
:102DD000FEF7F0FF0E20FEF7EDFF122000E056E0B8
:102DE000FEF7E8FF1420FEF7E5FF1720FEF7E2FFED
:102DF000E120FEF7EBFFD020FEF7DCFF0020FEF71E
:102E0000D9FF0220FEF7D6FF0720FEF7D3FF0A20E6
:102E1000FEF7D0FF2820FEF7CDFF3120FEF7CAFFD6
:102E20005420FEF7C7FF4720FEF7C4FF0E20FEF731
:102E3000C1FF1C20FEF7BEFF1720FEF7BBFF1B20C3
:102E4000FEF7B8FF1E20FEF7B5FF2A20FEF7BEFFF3
:102E50000020FEF7AFFF0020FEF7ACFF0020FEF7DA
:102E6000A9FFEF20FEF7A6FF2B20FEF7AFFF002003
:102E7000FEF7A0FF0020FEF79DFF0120FEF79AFF5E
:102E80003F20FEF797FF2920FEF7A0FF1FE791489C
:102E9000808845F21031884240F07C87ED20FEF7B3
:102EA00095FF0120FEF786FFFE20FEF783FFEE2050
:102EB000FEF78CFFDE20FEF77DFF2120FEF77AFF74
:102EC000F120FEF783FF0120FEF774FFDF20FEF7FD
:102ED0007DFF1020FEF76EFFC420FEF777FF8F20E6
:102EE000FEF768FFC620FEF771FF0020FEF762FFC5
:102EF000E220FEF75FFFE220FEF75CFFE220FEF734
:102F000059FFBF20FEF762FFAA20FEF753FFB02053
:102F1000FEF75CFF0D20FEF74DFF0020FEF74AFF95
:102F20000D20FEF747FF0020FEF744FF1120FEF7BB
:102F300041FF0020FEF73EFF1920FEF73BFF002077
:102F4000FEF738FF2120FEF735FF0020FEF732FFA5
:102F50002D20FEF72FFF0020FEF72CFF3D20FEF76F
:102F600029FF0020FEF726FF5D20FEF723FF00204B
:102F7000FEF720FF5D20FEF71DFF0020FEF71AFF81
:102F8000B120FEF723FF8020FEF714FF0020FEF79C
:102F900011FF8B20FEF70EFF0020FEF70BFF96209F
:102FA000FEF708FF0020FEF705FFB220FEF70EFF38
:102FB0000020FEF7FFFE0020FEF7FCFE0220FEF7D9
:102FC000F9FE0020FEF7F6FE0320FEF7F3FE0020D8
:102FD000FEF7F0FEB320FEF7F9FE0020FEF7EAFE52
:102FE0000020FEF7E7FE0020FEF7E4FE0020FEF7DB
:102FF000E1FE0020FEF7DEFE0020FEF7DBFE0020F3
:10300000FEF7D8FE0020FEF7D5FE0020FEF7D2FE28
:103010000020FEF7CFFE0020FEF7CCFE0020FEF7DA
:10302000C9FE0020FEF7C6FE0020FEF7C3FE00200A
:10303000FEF7C0FE0020FEF7BDFE0020FEF7BAFE40
:103040000020FEF7B7FE0020FEF7B4FE0020FEF7DA
:10305000B1FE0020FEF7AEFE0020FEF7ABFE002022
:10306000FEF7A8FE0020FEF7A5FEB420FEF7AEFE98
:103070008B20FEF79FFE0020FEF79CFE9620FEF7B9
:1030800099FE0020FEF796FEA120FEF793FE002099
:10309000FEF790FEB520FEF799FE0220FEF78AFEAD
:1030A0000020FEF787FE0320FEF784FE0020FEF7D7
:1030B00081FE0420FEF77EFE0020FEF77BFEB62098
:1030C000FEF784FE0020FEF775FE0020FEF772FE7C
:1030D000B72001E014090020FEF778FE0020FEF77B
:1030E00069FE0020FEF766FE3F20FEF763FE00202B
:1030F000FEF760FE5E20FEF75DFE0020FEF75AFE42
:103100006420FEF757FE0020FEF754FE8C20FEF7E9
:1031100051FE0020FEF74EFEAC20FEF74BFE0020D5
:10312000FEF748FEDC20FEF745FE0020FEF742FEDB
:103130007020FEF73FFE0020FEF73CFE9020FEF7D9
:1031400039FE0020FEF736FEEB20FEF733FE0020AE
:10315000FEF730FEDC20FEF72DFE0020FEF72AFEF3
:10316000B820FEF733FE0020FEF724FE0020FEF715
:1031700021FE0020FEF71EFE0020FEF71BFE0020B1
:10318000FEF718FE0020FEF715FE0020FEF712FEE7
:103190000020FEF70FFEBA20FEF718FE2420FEF7EF
:1031A00009FE0020FEF706FE0020FEF703FE0020C9
:1031B000FEF700FEC120FEF709FE2020FEF7FAFD13
:1031C0000020FEF7F7FD5420FEF7F4FD0020FEF787
:1031D000F1FDFF20FEF7EEFD0020FEF7EBFDC22023
:1031E000FEF7F4FD0A20FEF7E5FD0020FEF7E2FD04
:1031F0000420FEF7DFFD0020FEF7DCFDC320FEF714
:10320000E5FD3C20FEF7D6FD0020FEF7D3FD3A2079
:10321000FEF7D0FD0020FEF7CDFD3920FEF7CAFDF8
:103220000020FEF7C7FD3720FEF7C4FD0020FEF7A3
:10323000C1FD3C20FEF7BEFD0020FEF7BBFD3620A1
:10324000FEF7B8FD0020FEF7B5FD3220FEF7B2FD17
:103250000020FEF7AFFD2F20FEF7ACFD0020FEF7AB
:10326000A9FD2C20FEF7A6FD0020FEF7A3FD2920D6
:10327000FEF7A0FD0020FEF79DFD2620FEF79AFD3B
:103280000020FEF797FD2420FEF794FD0020FEF7B6
:1032900091FD2420FEF78EFD0020FEF78BFD2320FC
:1032A000FEF788FD0020FEF785FD3C20FEF782FD3D
:1032B0000020FEF77FFD3620FEF77CFD0020FEF7A4
:1032C00079FD3220FEF776FD0020FEF773FD2F20FA
:1032D000FEF770FD0020FEF76DFD2C20FEF76AFD65
:1032E0000020FEF767FD2920FEF764FD0020FEF7B1
:1032F00061FD2620FEF75EFD0020FEF75BFD242029
:10330000FEF758FD0020FEF755FD2420FEF752FD84
:103310000020FEF74FFD2320FEF74CFD0020FEF7B6
:1033200049FDC420FEF752FD6220FEF743FD002058
:10333000FEF740FD0520FEF73DFD0020FEF73AFDBB
:103340008420FEF737FD0020FEF734FDF020FEF765
:1033500031FD0020FEF72EFD1820FEF72BFD00208A
:10336000FEF728FDA420FEF725FD0020FEF722FD34
:103370001820FEF71FFD0020FEF71CFD5020FEF771
:1033800019FD0020FEF716FD0C20FEF713FD0020AE
:10339000FEF710FD1720FEF70DFD0020FEF70AFDD9
:1033A0009520FEF707FD0020FEF704FDF320FEF751
:1033B00001FD0020FEF7FEFCE620FEF7FBFC0020EE
:1033C000FEF7F8FCC520FEF701FD3220FEF7F2FC07
:1033D0000020FEF7EFFC4420FEF7ECFC0020FEF797
:1033E000E9FC6520FEF7E6FC0020FEF7E3FC762012
:1033F000FEF7E0FC0020FEF7DDFC8820FEF7DAFC9B
:103400000020FEF7D7FCC620FEF7E0FC2020FEF7E8
:10341000D1FC0020FEF7CEFC1720FEF7CBFC0020ED
:10342000FEF7C8FC0120FEF7C5FC0020FEF7C2FC39
:10343000C720FEF7CBFC0020FEF7BCFC0020FEF707
:10344000B9FC0020FEF7B6FC0020FEF7B3FCC82054
:10345000FEF7BCFC0020FEF7ADFC0020FEF7AAFC46
:103460000020FEF7A7FC0020FEF7A4FCC920FEF711
:10347000ADFC0020FEF79EFC0020FEF79BFC002028
:10348000FEF798FC0020FEF795FC0020FEF792FC6A
:103490000020FEF78FFC0020FEF78CFC0020FEF7DA
:1034A00089FC0020FEF786FC0020FEF783FC00204C
:1034B000FEF780FC0020FEF77DFC0020FEF77AFC82
:1034C0000020FEF777FC0020FEF774FC0020FEF7DA
:1034D00071FCE020FEF77AFC1620FEF76BFC002062
:1034E000FEF768FC1C20FEF765FC0020FEF762FC7E
:1034F0002120FEF75FFC0020FEF75CFC3620FEF783
:1035000059FC0020FEF756FC4620FEF753FC002035
:10351000FEF750FC5220FEF74DFC0020FEF74AFC5F
:103520006420FEF747FC0020FEF744FC7A20FEF7FB
:1035300041FC0020FEF73EFC8B20FEF73BFC002008
:10354000FEF738FC9920FEF735FC0020FEF732FC30
:10355000A820FEF72FFC0020FEF72CFCB920FEF778
:1035600029FC0020FEF726FCC420FEF723FC0020E7
:10357000FEF720FCCA20FEF71DFC0020FEF71AFC17
:10358000D220FEF717FC0020FEF714FCD920FEF72E
:1035900011FC0020FEF70EFCE020FEF70BFC0020E3
:1035A000FEF708FCF320FEF705FC0020FEF702FC06
:1035B000E120FEF70BFC1620FEF7FCFB0020FEF7D7
:1035C000F9FB1C20FEF7F6FB0020FEF7F3FB2220A0
:1035D000FEF7F0FB0020FEF7EDFB3620FEF7EAFBDE
:1035E0000020FEF7E7FB4520FEF7E4FB0020FEF796
:1035F000E1FB5220FEF7DEFB0020FEF7DBFB642040
:10360000FEF7D8FB0020FEF7D5FB7A20FEF7D2FBB1
:103610000020FEF7CFFB8B20FEF7CCFB0020FEF74F
:10362000C9FB9920FEF7C6FB0020FEF7C3FBA820CC
:10363000FEF7C0FB0020FEF7BDFBB920FEF7BAFB8A
:103640000020FEF7B7FBC420FEF7B4FB0020FEF716
:10365000B1FBCA20FEF7AEFB0020FEF7ABFBD22089
:10366000FEF7A8FB0020FEF7A5FBD820FEF7A2FB83
:103670000020FEF79FFBE020FEF79CFB0020FEF7FA
:1036800099FBF320FEF796FB0020FEF793FBE22068
:10369000FEF79CFB0520FEF78DFB0020FEF78AFB62
:1036A0000B20FEF787FB0020FEF784FB1B20FEF7B4
:1036B00081FB0020FEF77EFB3420FEF77BFB002021
:1036C000FEF778FB4420FEF775FB0020FEF772FB47
:1036D0004F20FEF76FFB0020FEF76CFB6120FEF72A
:1036E00069FB0020FEF766FB7920FEF763FB0020F4
:1036F000FEF760FB8820FEF75DFB0020FEF75AFB1B
:103700009720FEF757FB0020FEF754FBA620FEF79C
:1037100051FB0020FEF74EFBB720FEF74BFB0020CD
:10372000FEF748FBC220FEF745FB0020FEF742FBF8
:10373000C720FEF73FFB0020FEF73CFBD120FEF741
:1037400039FB0020FEF736FBD620FEF733FB0020C6
:10375000FEF730FBDD20FEF72DFB0020FEF72AFBF5
:10376000F320FEF727FB0020FEF724FBE320FEF703
:103770002DFB0520FEF71EFB0020FEF71BFB0A2099
:10378000FEF718FB0020FEF715FB1C20FEF712FBCE
:103790000020FEF70FFB3320FEF70CFB0020FEF7A6
:1037A00009FB4420FEF706FB0020FEF703FB502038
:1037B000FEF700FB0020FEF7FDFA6220FEF7FAFAA2
:1037C0000020FEF7F7FA7820FEF7F4FA0020FEF763
:1037D000F1FA8820FEF7EEFA0020FEF7EBFA9720C8
:1037E000FEF7E8FA0020FEF7E5FAA620FEF7E2FA77
:1037F0000020FEF7DFFAB720FEF7DCFA0020FEF724
:10380000D9FAC220FEF7D6FA0020FEF7D3FAC72075
:10381000FEF7D0FA0020FEF7CDFAD120FEF7CAFA63
:103820000020FEF7C7FAD520FEF7C4FA0020FEF705
:10383000C1FADD20FEF7BEFA0020FEF7BBFAF32046
:10384000FEF7B8FA0020FEF7B5FAE420FEF7BEFA5C
:103850000120FEF7AFFA0020FEF7ACFA0120FEF7D8
:10386000A9FA0020FEF7A6FA0220FEF7A3FA00202C
:10387000FEF7A0FA2A20FEF79DFA0020FEF79AFA3A
:103880003C20FEF797FA0020FEF794FA4B20FEF753
:1038900091FA0020FEF78EFA5D20FEF78BFA0020E9
:1038A000FEF788FA7420FEF785FA0020FEF782FA08
:1038B0008420FEF77FFA0020FEF77CFA9320FEF7C3
:1038C00079FA0020FEF776FAA220FEF773FA0020BC
:1038D000FEF770FAB320FEF76DFA0020FEF76AFAE1
:1038E000BE20FEF767FA0020FEF764FAC420FEF758
:1038F00061FA0020FEF75EFACD20FEF75BFA0020A9
:10390000FEF758FAD320FEF755FA0020FEF752FAD8
:10391000DD20FEF74FFA0020FEF74CFAF320FEF709
:1039200049FA0020FEF746FAE520FEF74FFA00209C
:10393000FEF740FA0020FEF73DFA0020FEF73AFAC3
:103940000020FEF737FA0220FEF734FA0020FEF7D7
:1039500031FA2920FEF72EFA0020FEF72BFA3C2040
:10396000FEF728FA0020FEF725FA4B20FEF722FA90
:103970000020FEF71FFA5D20FEF71CFA0020FEF77C
:1039800019FA7420FEF716FA0020FEF713FA8420C5
:10399000FEF710FA0020FEF70DFA9320FEF70AFA60
:1039A0000020FEF707FAA220FEF704FA0020FEF737
:1039B00001FAB320FEF7FEF90020FEF7FBF9BE2066
:1039C000FEF7F8F90020FEF7F5F9C420FEF7F2F94A
:1039D0000020FEF7EFF9CD20FEF7ECF90020FEF70E
:1039E000E9F9D320FEF7E6F90020FEF7E3F9DC2041
:1039F000FEF7E0F90020FEF7DDF9F320FEF7DAF933
:103A00000020FEF7D7F9E620FEF7E0F91120FEF7D7
:103A1000D1F90020FEF7CEF93420FEF7CBF90020D3
:103A2000FEF7C8F95620FEF7C5F90020FEF7C2F9E7
:103A30007620FEF7BFF90020FEF7BCF97720FEF7ED
:103A4000B9F90020FEF7B6F96620FEF7B3F90020B9
:103A5000FEF7B0F98820FEF7ADF90020FEF7AAF9CD
:103A60009920FEF7A7F90020FEF7A4F9BB20FEF786
:103A7000A1F90020FEF79EF99920FEF79BF900209E
:103A8000FEF798F96620FEF795F90020FEF792F907
:103A90005520FEF78FF90020FEF78CF95520FEF730
:103AA00089F90020FEF786F94520FEF783F900200A
:103AB000FEF780F94320FEF77DF90020FEF77AF942
:103AC0004420FEF777F90020FEF774F9E720FEF7AF
:103AD0007DF93220FEF76EF90020FEF76BF95520D4
:103AE000FEF768F90020FEF765F97620FEF762F927
:103AF0000020FEF75FF96620FEF75CF90020FEF774
:103B000059F96720FEF756F90020FEF753F96720B0
:103B1000FEF750F90020FEF74DF98720FEF74AF92D
:103B20000020FEF747F99920FEF744F90020FEF740
:103B300041F9BB20FEF73EF90020FEF73BF9992042
:103B4000FEF738F90020FEF735F97720FEF732F955
:103B50000020FEF72FF94420FEF72CF90020FEF795
:103B600029F95620FEF726F90020FEF723F9232035
:103B7000FEF720F90020FEF71DF93320FEF71AF9B1
:103B80000020FEF717F94520FEF714F90020FEF794
:103B900011F9E820FEF71AF90020FEF70BF90020D2
:103BA000FEF708F99920FEF705F90020FEF702F963
:103BB0008720FEF7FFF80020FEF7FCF88820FEF7CC
:103BC000F9F80020FEF7F6F87720FEF7F3F800206A
:103BD000FEF7F0F86620FEF7EDF80020FEF7EAF8B1
:103BE0008820FEF7E7F80020FEF7E4F8AA20FEF7A9
:103BF000E1F80020FEF7DEF8BB20FEF7DBF800203E
:103C0000FEF7D8F89920FEF7D5F80020FEF7D2F895
:103C10006620FEF7CFF80020FEF7CCF85520FEF71F
:103C2000C9F80020FEF7C6F85520FEF7C3F80020BB
:103C3000FEF7C0F84420FEF7BDF80020FEF7BAF802
:103C40004420FEF7B7F80020FEF7B4F85520FEF741
:103C5000B1F80020FEF7AEF8E920FEF7B7F8AA2089
:103C6000FEF7A8F80020FEF7A5F80020FEF7A2F85E
:103C70000020FEF79FF80020FEF7A8F8AA20FEF724
:103C800099F8CF20FEF7A2F80020FEF793F8002065
:103C9000FEF790F80020FEF78DF80020FEF78AF876
:103CA0000020FEF787F80020FEF784F80020FEF7DA
:103CB00081F80020FEF77EF80020FEF77BF8002058
:103CC000FEF778F80020FEF775F80020FEF772F88E
:103CD0000020FEF76FF80020FEF76CF80020FEF7DA
:103CE00069F80020FEF766F80020FEF763F8F02080
:103CF000FEF76CF80020FEF75DF85020FEF75AF84A
:103D00000020FEF757F80020FEF754F80020FEF7D9
:103D100051F8F320FEF75AF80020FEF74BF8F9208F
:103D2000FEF754F80620FEF745F81020FEF742F89B
:103D30002920FEF73FF80020FEF73CF83A20FEF776
:103D400045F85520FEF736F81120FEF73FF86420BD
:103D5000FEF79AFD2920FEF739F83520FEF736F8F0
:103D60000020FEF727F85120FEF730F8FF20FEF77D
:103D700021F85320FEF72AF82C20FEF71BF85520D7
:103D8000FEF724F88220FEF715F82C20FEF71EF827
:103D900001F048B8FE48808845F2105188427DD134
:103DA00055214FF47040FEF727F8AA214FF2010089
:103DB000FEF722F852214FF20200FEF71DF808210B
:103DC0004FF20300FEF718F801214FF20400FEF74E
:103DD00013F80D214FF43040FEF70EF80D214BF291
:103DE0000100FEF709F80D214BF20200FEF704F87E
:103DF00034214FF43640FDF7FFFF34214BF20160D0
:103E0000FDF7FAFF34214BF20260FDF7F5FF0D21BB
:103E10004FF43140FDF7F0FF0D214BF20110FDF79B
:103E2000EBFF0D214BF20210FDF7E6FF34214FF4BA
:103E30003740FDF7E1FF34214BF20170FDF7DCFF65
:103E400034214BF20270FDF7D7FF00214FF43240CE
:103E5000FDF7D2FF00214BF20120FDF7CDFF00213D
:103E60004BF20220FDF7C8FF24214FF43840FDF744
:103E7000C3FF24214BF60100FDF7BEFF24214BF6C2
:103E80000200FDF7B9FF01214FF43F40FDF7B4FFF9
:103E90000F214FF43340FDF7AFFF00E0FDE30F21AA
:103EA0004BF20130FDF7A8FF0F214BF20230FDF776
:103EB000A3FF34214FF43940FDF79EFF34214BF628
:103EC0000110FDF799FF34214BF60210FDF794FF26
:103ED00008214FF43540FDF78FFF08214BF20150C8
:103EE000FDF78AFF08214BF20250FDF785FF032101
:103EF0004FF44240FDF780FF24214FF43A40FDF794
:103F00007BFF24214BF60120FDF776FF24214BF6A1
:103F10000220FDF771FF00214FF43C40FDF76CFFDC
:103F200078214BF60140FDF767FF00214BF6024078
:103F3000FDF762FF00214FF43D40FDF75DFF782162
:103F40004BF60150FDF758FF00214BF60250FDF7EC
:103F500053FF00214FF43E40FDF74EFF64214BF626
:103F60000160FDF749FF00214FF45140FDF744FF88
:103F700033214DF20110FDF73FFF00214DF20210F9
:103F8000FDF73AFF34214DF20310FDF735FF002114
:103F90004DF20410FDF730FF3A214DF20510FDF708
:103FA0002BFF00214DF20610FDF726FF4A214DF2AE
:103FB0000710FDF721FF00214DF20810FDF71CFF4F
:103FC0005C214DF20910FDF717FF00214DF20A1098
:103FD000FDF712FF81214DF20B10FDF70DFF0021BF
:103FE0004DF20C10FDF708FFA6214DF20D10FDF764
:103FF00003FF00214DF20E10FDF7FEFEE5214DF20C
:104000000F10FDF7F9FE01214DF21010FDF7F4FE3F
:1040100013214DF21110FDF7EFFE01214DF21210A8
:10402000FDF7EAFE54214DF21310FDF7E5FE0121E4
:104030004DF21410FDF7E0FE82214DF21510FDF750
:10404000DBFE01214DF21610FDF7D6FECA214DF21E
:104050001710FDF7D1FE02214DF21810FDF7CCFE2E
:1040600000214DF21910FDF7C7FE02214DF21A1082
:10407000FDF7C2FE01214DF21B10FDF7BDFE02212E
:104080004DF21C10FDF7B8FE34214DF21D10FDF766
:10409000B3FE02214DF21E10FDF7AEFE67214DF278
:1040A0001F10FDF7A9FE02214DF22010FDF7A4FE1E
:1040B00084214DF22110FDF79FFE02214DF22210C6
:1040C000FDF79AFEA4214DF22310FDF795FE022183
:1040D0004DF22410FDF790FEB7214DF22510FDF7AB
:1040E0008BFE02214DF22610FDF786FECF214DF208
:1040F0002710FDF781FE02214DF22810FDF77CFE0E
:10410000DE214DF22910FDF777FE02214DF22A1033
:10411000FDF772FEF2214DF22B10FDF76DFE02212C
:104120004DF22C10FDF768FEFE214DF22D10FDF72B
:1041300063FE03214DF22E10FDF75EFE10214DF2BD
:104140002F10FDF759FE03214DF23010FDF754FEFC
:1041500033214DF23110FDF74FFE03214DF23210A5
:10416000FDF74AFE6D214DF23310FDF745FE0021AB
:104170004FF45240FDF740FE33214DF20120FDF790
:104180003BFE00214DF20220FDF736FE342101E016
:10419000140900204DF20320FDF72EFE00214DF200
:1041A0000420FDF729FE3A214DF20520FDF724FEFB
:1041B00000214DF20620FDF71FFE4A214DF2072097
:1041C000FDF71AFE00214DF20820FDF715FE5C21D7
:1041D0004DF20920FDF710FE00214DF20A20FDF7F7
:1041E0000BFE81214DF20B20FDF706FE00214DF262
:1041F0000C20FDF701FEA6214DF20D20FDF7FCFD80
:1042000000214DF20E20FDF7F7FDE5214DF20F20C4
:10421000FDF7F2FD01214DF21020FDF7EDFD132118
:104220004DF21120FDF7E8FD01214DF21220FDF7BE
:10423000E3FD54214DF21320FDF7DEFD01214DF287
:104240001420FDF7D9FD82214DF21520FDF7D4FD94
:1042500001214DF21620FDF7CFFDCA214DF21720A6
:10426000FDF7CAFD02214DF21820FDF7C5FD002122
:104270004DF21920FDF7C0FD02214DF21A20FDF785
:10428000BBFD01214DF21B20FDF7B6FD02214DF2D1
:104290001C20FDF7B1FD34214DF21D20FDF7ACFDD2
:1042A00002214DF21E20FDF7A7FD67214DF21F20D0
:1042B000FDF7A2FD02214DF22020FDF79DFD842196
:1042C0004DF22120FDF798FD02214DF22220FDF74D
:1042D00093FDA4214DF22320FDF78EFD02214DF226
:1042E0002420FDF789FDB7214DF22520FDF784FD3F
:1042F00002214DF22620FDF77FFDCF214DF2272030
:10430000FDF77AFD02214DF22820FDF775FDDE2133
:104310004DF22920FDF770FD02214DF22A20FDF714
:104320006BFDF2214DF22B20FDF766FD02214DF2CF
:104330002C20FDF761FDFE214DF22D20FDF75CFDE7
:1043400003214DF22E20FDF757FD10214DF22F20B5
:10435000FDF752FD03214DF23020FDF74DFD3321D5
:104360004DF23120FDF748FD03214DF23220FDF7DB
:1043700043FD6D214DF23320FDF73EFD00214FF44A
:104380005340FDF739FD33214DF20130FDF734FD87
:1043900000214DF20230FDF72FFD34214DF20330A4
:1043A000FDF72AFD00214DF20430FDF725FD3A21ED
:1043B0004DF20530FDF720FD00214DF20630FDF7EE
:1043C0001BFD4A214DF20730FDF716FD00214DF28D
:1043D0000830FDF711FD5C214DF20930FDF70CFDB1
:1043E00000214DF20A30FDF707FD81214DF20B301F
:1043F000FDF702FD00214DF20C30FDF7FDFCA6217A
:104400004DF20D30FDF7F8FC00214DF20E30FDF7B6
:10441000F3FCE5214DF20F30FDF7EEFC01214DF2EA
:104420001030FDF7E9FC13214DF21130FDF7E4FCEB
:1044300001214DF21230FDF7DFFC54214DF2133013
:10444000FDF7DAFC01214DF21430FDF7D5FC822195
:104450004DF21530FDF7D0FC01214DF21630FDF77D
:10446000CBFCCA214DF21730FDF7C6FC02214DF2FC
:104470001830FDF7C1FC00214DF21930FDF7BCFCEE
:1044800002214DF21A30FDF7B7FC01214DF21B302D
:10449000FDF7B2FC02214DF21C30FDF7ADFC3421DA
:1044A0004DF21D30FDF7A8FC02214DF21E30FDF744
:1044B000A3FC67214DF21F30FDF79EFC02214DF257
:1044C0002030FDF799FC84214DF22130FDF794FC5A
:1044D00002214DF22230FDF78FFCA4214DF2233052
:1044E000FDF78AFC02214DF22430FDF785FCB7214F
:1044F0004DF22530FDF780FC02214DF22630FDF70C
:104500007BFCCF214DF22730FDF776FC02214DF2E6
:104510002830FDF771FCDE214DF22930FDF76CFCEF
:1045200002214DF22A30FDF767FCF2214DF22B30CB
:10453000FDF762FC02214DF22C30FDF75DFCFE21FF
:104540004DF22D30FDF758FC03214DF22E30FDF7D2
:1045500053FC10214DF22F30FDF74EFC03214DF29C
:104560003030FDF749FC33214DF23130FDF744FC8A
:1045700003214DF23230FDF73FFC6D214DF2333017
:10458000FDF73AFC00214FF45440FDF735FC332190
:104590004DF20140FDF730FC00214DF20240FDF7E5
:1045A0002BFC34214DF20340FDF726FC00214DF297
:1045B0000440FDF721FC3A214DF20540FDF71CFCBB
:1045C00000214DF20640FDF717FC4A214DF207404D
:1045D000FDF712FC00214DF20840FDF70DFC5C21B7
:1045E0004DF20940FDF708FC00214DF20A40FDF7AD
:1045F00003FC81214DF20B40FDF7FEFB00214DF243
:104600000C40FDF7F9FBA6214DF20D40FDF7F4FB40
:1046100000214DF20E40FDF7EFFBE5214DF20F407A
:10462000FDF7EAFB01214DF21040FDF7E5FB1321F8
:104630004DF21140FDF7E0FB01214DF21240FDF774
:10464000DBFB54214DF21340FDF7D6FB01214DF267
:104650001440FDF7D1FB82214DF21540FDF7CCFB54
:1046600001214DF21640FDF7C7FBCA214DF217405C
:10467000FDF7C2FB02214DF21840FDF7BDFB002102
:104680004DF21940FDF7B8FB02214DF21A40FDF73B
:10469000B3FB01214DF21B4000E005E3FDF7ACFB4D
:1046A00002214DF21C40FDF7A7FB34214DF21D40C5
:1046B000FDF7A2FB02214DF21E40FDF79DFB672195
:1046C0004DF21F40FDF798FB02214DF22040FDF70F
:1046D00093FB84214DF22140FDF78EFB02214DF228
:1046E0002240FDF789FBA4214DF22340FDF784FB16
:1046F00002214DF22440FDF77FFBB7214DF225400A
:10470000FDF77AFB02214DF22640FDF775FBCF2124
:104710004DF22740FDF770FB02214DF22840FDF7D6
:104720006BFBDE214DF22940FDF766FB02214DF2C5
:104730002A40FDF761FBF2214DF22B40FDF75CFBB7
:1047400002214DF22C40FDF757FBFE214DF22D408A
:10475000FDF752FB03214DF22E40FDF74DFB1021DA
:104760004DF22F40FDF748FB03214DF23040FDF79D
:1047700043FB33214DF23140FDF73EFB03214DF267
:104780003240FDF739FB6D214DF23340FDF734FB2C
:1047900000214FF45540FDF72FFB33214DF201501E
:1047A000FDF72AFB00214DF20250FDF725FB3421D5
:1047B0004DF20350FDF720FB00214DF20450FDF7B0
:1047C0001BFB3A214DF20550FDF716FB00214DF27F
:1047D0000650FDF711FB4A214DF20750FDF70CFB87
:1047E00000214DF20850FDF707FB5C214DF2095006
:1047F000FDF702FB00214DF20A50FDF7FDFA812181
:104800004DF20B50FDF7F8FA00214DF20C50FDF778
:10481000F3FAA6214DF20D50FDF7EEFA00214DF20C
:104820000E50FDF7E9FAE5214DF20F50FDF7E4FADD
:1048300001214DF21050FDF7DFFA13214DF2115016
:10484000FDF7DAFA01214DF21250FDF7D5FA5421A5
:104850004DF21350FDF7D0FA01214DF21450FDF73F
:10486000CBFA82214DF21550FDF7C6FA01214DF227
:104870001650FDF7C1FACA214DF21750FDF7BCFAE8
:1048800002214DF21850FDF7B7FA00214DF21950F0
:10489000FDF7B2FA02214DF21A50FDF7ADFA0121EF
:1048A0004DF21B50FDF7A8FA02214DF21C50FDF706
:1048B000A3FA34214DF21D50FDF79EFA02214DF26C
:1048C0001E50FDF799FA67214DF21F50FDF794FA3B
:1048D00002214DF22050FDF78FFA84214DF2215034
:1048E000FDF78AFA02214DF22250FDF785FAA42144
:1048F0004DF22350FDF780FA02214DF22450FDF7CE
:104900007BFAB7214DF22550FDF776FA02214DF2E0
:104910002650FDF771FACF214DF22750FDF76CFAC2
:1049200002214DF22850FDF767FADE214DF22950A1
:10493000FDF762FA02214DF22A50FDF75DFAF221ED
:104940004DF22B50FDF758FA02214DF22C50FDF795
:1049500053FAFE214DF22D50FDF74EFA03214DF290
:104960002E50FDF749FA10214DF22F50FDF744FA71
:1049700003214DF23050FDF73FFA33214DF2315013
:10498000FDF73AFA03214DF23250FDF735FA6D2169
:104990004DF23350FDF730FA00214FF45640FDF749
:1049A0002BFA33214DF20160FDF726FA00214DF27A
:1049B0000260FDF721FA34214DF20360FDF71CFA85
:1049C00000214DF20460FDF717FA3A214DF205601F
:1049D000FDF712FA00214DF20660FDF70DFA4A21AB
:1049E0004DF20760FDF708FA00214DF20860FDF76F
:1049F00003FA5C214DF20960FDF7FEF900214DF24A
:104A00000A60FDF7F9F981214DF20B60FDF7F4F929
:104A100000214DF20C60FDF7EFF9A6214DF20D607B
:104A2000FDF7EAF900214DF20E60FDF7E5F9E52109
:104A30004DF20F60FDF7E0F901214DF21060FDF736
:104A4000DBF913214DF21160FDF7D6F901214DF28A
:104A50001260FDF7D1F954214DF21360FDF7CCF946
:104A600001214DF21460FDF7C7F982214DF2156066
:104A7000FDF7C2F901214DF21660FDF7BDF9CA211B
:104A80004DF21760FDF7B8F902214DF21860FDF7FD
:104A9000B3F900214DF21960FDF7AEF902214DF294
:104AA0001A60FDF7A9F901214DF21B60FDF7A4F989
:104AB00002214DF21C60FDF79FF934214DF21D607B
:104AC000FDF79AF902214DF21E60FDF795F9672175
:104AD0004DF21F60FDF790F902214DF22060FDF7C5
:104AE0008BF984214DF22160FDF786F902214DF208
:104AF0002260FDF781F9A4214DF22360FDF77CF9D6
:104B000002214DF22460FDF777F9B7214DF22560BF
:104B1000FDF772F902214DF22660FDF76DF9CF2104
:104B20004DF22760FDF768F902214DF22860FDF78C
:104B300063F9DE214DF22960FDF75EF902214DF2A5
:104B40002A60FDF759F9F2214DF22B60FDF754F977
:104B500002214DF22C60FDF74FF9FE214DF22D6040
:104B6000FDF74AF903214DF22E60FDF745F91021BA
:104B70004DF22F60FDF740F903214DF23060FDF753
:104B80003BF933214DF23160FDF736F903214DF247
:104B90003260FDF731F96D214DF23360FDF72CF9EC
:104BA00055214FF47040FDF727F9AA214FF201007B
:104BB000FDF722F952214FF20200FDF71DF90821FD
:104BC0004FF20300FDF718F900214FF20400FDF742
:104BD00013F9CC214FF43140FDF70EF900214BF2CF
:104BE0000110FDF709F905214FF43640FDF704F9EE
:104BF00070214FF43740FDF7FFF870214BF2017040
:104C0000FDF7FAF801214FF43840FDF7F5F80321DC
:104C10004BF60100FDF7F0F803214BF60200FDF71B
:104C2000EBF803214BF60300FDF7E6F802214FF401
:104C30003C40FDF7E1F800214BF60140FDF7DCF8C0
:104C400000214BF60240FDF7D7F8D0214FF4494040
:104C5000FDF7D2F802214CF60110FDF7CDF85021F6
:104C60004CF60210FDF7C8F850214CF60310FDF782
:104C7000C3F850214CF60410FDF7BEF800214FF4A4
:104C80005450FDF7B9F855214FF46850FDF7B4F8CA
:104C90004FF48850FDF79AF87820FDF7F5FD4FF4B2
:104CA0002450FDF793F8BDE08A48808841F66311EF
:104CB0008842F8D1E220FDF789F81D20FDF77AF847
:104CC0000220FDF777F80420FDF774F86420FDF763
:104CD000DBFDE020FDF77AF80120FDF76BF80A20F4
:104CE000FDF7C4FDE020FDF771F80320FDF762F841
:104CF0000C20FDF7BBFD0120FDF768F80A20FDF749
:104D0000B5FDE620FDF762F82F20FDF753F8FF20F0
:104D1000FDF750F8FF20FDF74DF8B020FDF756F8ED
:104D20002020FDF747F80020FDF744F80320FDF7A9
:104D300041F840F21F30FDF73DF80120FDF73AF849
:104D400040F2DF10FDF736F80020FDF733F8B4200D
:104D5000FDF73CF80420FDF72DF840F21F40FDF769
:104D600029F80020FDF726F82E20FDF723F8002073
:104D7000FDF720F80020FDF71DF80020FDF71AF8D8
:104D80000020FDF717F8B620FDF720F80220FDF708
:104D900011F84FF40370FDF70DF80020FDF70AF845
:104DA0001720FDF707F81520FDF704F80020FDF7A0
:104DB00001F80020FCF7FEFFF020FDF707F80320C4
:104DC000FCF7F8FF2920FDF701F8D020FCF7FEFFE3
:104DD0000020FCF7EFFFBE20FCF7F8FF0520FCF7F2
:104DE000E9FFFE20FCF7E6FF0120FCF7E3FF0020CF
:104DF000FCF7E0FF0020FCF7DDFF0020FCF7DAFF06
:104E0000B820FCF7E3FF0320FCF7D4FF0120FCF7F8
:104E1000D1FFBA20FCF7DAFF0120FCF7CBFF6420BA
:104E2000FCF71CFD2B48808849F24131884217D09D
:104E30002848808847F28971884211D025488088A7
:104E400045F2103188420BD02248808845F210513B
:104E5000884205D01F48808841F6631188422CD1D2
:104E60001D48006820F00F004FF02041C1F81C01E0
:104E70000846D0F81C0120F47060C1F81C010846F7
:104E8000D0F81C0140F00300C1F81C0111488088D3
:104E900047F28971884208D10F48006840F4407099
:104EA0004FF02041C1F81C0107E00B48006840F4B6
:104EB00000704FF02041C1F81C010020FCF7B2FB4C
:104EC0000122D1030548FBF735FD4FF6FF70FCF7D3
:104ED0008FFB10BD140900201C0100A0000402403B
:104EE00010B5002480210020FDF7A2FB0A20FDF769
:104EF000BDFC042216490120FDF73AFC04221549A5
:104F00000520FDF735FC062213490920FDF730FC8A
:104F1000042212490F20FDF72BFC00BF0BE00222F8
:104F20001E212046FDF7B8FB02221F212046FDF777
:104F3000B3FB601CC4B2082CF1DB4FF4FA611920FA
:104F4000FDF790FB08211B20FDF772FB10BD000050
:104F5000280000202C000020300000203600002017
:104F600000BF054A126802F04002002AF9D0C2B21E
:104F7000014B5A6070470000001001401CB500242E
:104F8000FBF7E4FCFDF730F9FCF77EFFFDF768F86E
:104F9000FDF744F8FCF73AFFA820FDF751FCFDF7B8
:104FA00059FCFDF795FC4FF6FF70FCF721FB4FF421
:104FB00078402249086022A0FDF7FEFB23A01021C3
:104FC0000B46C822CDE9001032211E20FCF7BEFEA0
:104FD00023A010210B46C822CDE9001046211E2037
:104FE000FCF7B4FE22A010210B46C822CDE9001028
:104FF0005A211E20FCF7AAFE21A010210B46C82230
:10500000CDE900106E211E20FCF7A0FE1F200B49E9
:105010000860FDF701FB10E01C48006850B11B4818
:105020000068844203D100201849086002E0174854
:10503000008884B20A20FDF719FCEDE74C0000203F
:1050400057656C636F6D6521210D0A004578706CA2
:105050006F7265722053544D3332463400000000A5
:105060004E455420574F524B205445535400000096
:1050700041544F4D40414C49454E54454B00000072
:10508000323032352F312F32310000002000002025
:1050900008B50F4800680068C0F34010B0B14FF485
:1050A0007A73012269460A48FCF73EFA094800680B
:1050B000B0F5FA6F0AD29DF800000749054A126858
:1050C000885404480068401C0249086008BD00007C
:1050D000AC0000202000002044010020000000005F
:1050E0000000000001020304060708090000000098
:1050F00001020304000000000000000000000000A6
:10510000000000003F4000000000000000003000F0
:10511000400030004000000009000BC03D000BC003
:105120003D00090018C024407FE02240318000008B
:10513000180024C01B000D803240018003801C40F9
:1051400027401C8007400040100060000000000065
:10515000000000000000000000001F8020404020F0
:105160000000402020401F800000000009000600D1
:105170001F80060009000000040004003F800400B6
:1051800004000000001000600000000000000000AB
:1051900004000400040004000400000000000040BB
:1051A0000000000000000000002001C006003800E0
:1051B000400000001F802040204020401F80000051
:1051C000000010403FC000400000000018C0214017
:1051D00022402440184000001080204024402440F9
:1051E0001B80000002000D0011003FC001400000C4
:1051F0003C80244024402440238000001F80244021
:1052000024403440038000003000200027C03800D4
:10521000200000001B802440244024401B8000000C
:105220001C0022C0224022401F800000000000001D
:1052300008400000000000000000000004600000C2
:1052400000000000000004000A001100208040401F
:1052500009000900090009000900000000004040A1
:10526000208011000A0004001800200023402400C0
:10527000180000001F802040274029401F400000E8
:10528000004007C039000F0001C0004020403FC06F
:10529000244024401B8000001F80204020402040EC
:1052A0003080000020403FC0204020401F80000090
:1052B00020403FC024402E4030C0000020403FC06E
:1052C00024402E00300000000F00108020402240BB
:1052D0003380020020403FC0040004003FC0204053
:1052E000204020403FC0204020400000006020209F
:1052F00020203FC02000200020403FC024400B0061
:1053000030C0204020403FC020400040004000C04E
:105310003FC03C0003C03C003FC0000020403FC0F5
:105320000C4023003FC020001F8020402040204030
:105330001F80000020403FC02440240018000000CF
:105340001F802140214020E01FA0000020403FC0DE
:105350002440260019C0004018C0244024402240A8
:1053600031800000300020403FC02040300000006D
:1053700020003F80004000403F80200020003E0091
:1053800001C0070038002000380007C03C0007C0FB
:1053900038000000204039C0060039C0204000001D
:1053A0002000384007C0384020000000304021C0B5
:1053B0002640384020C00000000000007FE0402070
:1053C00040200000000070000C000380004000003E
:1053D0000000402040207FE000000000000020008E
:1053E000400020000000000000100010001000101D
:1053F000001000100000000040000000000000004D
:10540000000002800540054003C0004020003FC06E
:105410000440044003800000000003800440044076
:105420000640000000000380044024403FC00040CC
:1054300000000380054005400340000000000440D8
:105440001FC0244024402000000002E00550055009
:105450000650042020403FC00440040003C0004028
:105460000000044027C000400000000000100010B1
:10547000041027E00000000020403FC0014007006A
:1054800004C00440204020403FC0004000400000D5
:1054900007C0040007C0040003C00000044007C0A8
:1054A0000440040003C000400000038004400440A6
:1054B00003800000041007F0045004400380000043
:1054C000000003800440045007F00010044007C0AF
:1054D00002400400040000000000064005400540B2
:1054E00004C00000000004001F80044000400000D1
:1054F000040007800040044007C00040040007008B
:1055000004C0018006000400060001C0070001C0BD
:1055100006000000044006C0010006C00440000070
:105520000410071004E0018006000400000004409D
:1055300005C00640044000000000000004007BE0BD
:1055400040200000000000000000FFF0000000000C
:10555000000040207BE004000000000040008000CC
:10556000400020002000400000000000000000007B
:1055700000000000000000000000000000001FCC40
:10558000000C000000000000000008003000600077
:105590000800300060000000022003FC1E200220F2
:1055A00003FC1E200220000000000E1811043FFF23
:1055B00010840C78000000000F0010840F3800C029
:1055C000077818840078000000780F8410C4112434
:1055D0000E9800E4008400080800680070000000D5
:1055E000000000000000000000000000000007E0D4
:1055F000181820044002000000004002200418187F
:1056000007E00000000000000240024001800FF0AF
:1056100001800240024000000080008000800FF8FE
:1056200000800080008000000001000D000E0000DE
:1056300000000000000000000000008000800080EA
:1056400000800080008000800000000C000C000042
:1056500000000000000000000000000600180060CC
:105660000180060018002000000007F00808100460
:105670001004080807F000000000080408041FFCDC
:10568000000400040000000000000E0C10141024A0
:10569000104411840E0C000000000C1810041104BA
:1056A000110412880C700000000000E003200424A4
:1056B00008241FFC0024000000001F98108411041F
:1056C0001104108810700000000007F00888110411
:1056D000110418880070000000001C00100010FC6D
:1056E00013001C001000000000000E38114410844C
:1056F000108411440E38000000000700088C10448C
:105700001044088807F00000000000000000030CAF
:10571000030C000000000000000000000001010672
:105720000000000000000000000000800140022096
:1057300004100808100400000220022002200220A9
:1057400002200220022000000000100408080410BB
:10575000022001400080000000000E001200100C2A
:10576000106C10800F00000003E00C1813E41424E8
:1057700017C4082807D000000004003C03C41C40E4
:10578000074000E4001C000410041FFC1104110475
:1057900011040E880070000003E00C1810041004BF
:1057A000100410081C10000010041FFC100410044A
:1057B0001004080807F0000010041FFC1104110475
:1057C00017C410040818000010041FFC1104110075
:1057D00017C010000800000003E00C1810041004AB
:1057E00010441C780040000010041FFC108400804E
:1057F000008010841FFC10040000100410041FFC23
:10580000100410040000000000030001100110014A
:105810001FFE10001000000010041FFC1104038084
:105820001464181C1004000010041FFC1004000471
:1058300000040004000C000010041FFC1F0000FC0A
:105840001F001FFC1004000010041FFC0C040300C8
:1058500000E010181FFC100007F0080810041004E6
:105860001004080807F0000010041FFC10841080CA
:10587000108010800F00000007F00818102410247A
:10588000101C080A07F2000010041FFC110411008C
:1058900011C011300E0C000400000E1C1104108405
:1058A000108410441C3800001800100010041FFC65
:1058B000100410001800000010001FF8100400046D
:1058C000000410041FF8100010001E0011E0001C5E
:1058D000007013801C0010001FC0103C00E01F006F
:1058E00000E0103C1FC000001004180C163401C06A
:1058F00001C01634180C100410001C00130400FC26
:1059000013041C00100000000804101C1064108414
:1059100013041C04101800000000000000007FFEAB
:105920004002400240020000000030000C000380F2
:105930000060001C00030000000040024002400222
:105940007FFE00000000000000000000200040007A
:1059500040004000200000000001000100010001A3
:105960000001000100010001000040004000200093
:105970000000000000000000000000980124014425
:105980000144014400FC000410001FFC00880104D5
:10599000010400880070000000000070008801040D
:1059A0000104010400880000000000700088010468
:1059B000010411081FFC0004000000F80144014428
:1059C0000144014400C800000000010401040FFC70
:1059D0001104110411001800000000D6012901294A
:1059E000012901C90106000010041FFC0084010008
:1059F0000100010400FC000400000104190419FC6A
:105A00000004000400000000000000030001010188
:105A1000190119FE0000000010041FFC00240040C2
:105A200001B4010C010400000000100410041FFC6C
:105A30000004000400000000010401FC0104010056
:105A400001FC0104010000FC010401FC00840100D0
:105A50000100010400FC0004000000F8010401043E
:105A60000104010400F80000010101FF00850104A8
:105A7000010400880070000000000070008801042C
:105A80000104010501FF00010104010401FC00847F
:105A90000104010001800000000000CC0124012469
:105AA000012401240198000000000100010007F812
:105AB0000104010400000000010001F800040004DA
:105AC0000004010801FC0004010001800170000CC9
:105AD000001001600180010001F0010C003001C0E4
