:020000040800F2
:10000000A8040020A10100088B1B0008770F00083E
:10001000891B000899040008ED1F0008000000007B
:10002000000000000000000000000000FD1D0008AE
:100030009B04000800000000A11D0008FF1D00082F
:10004000BB010008BB010008BB010008BB010008A0
:10005000BB010008BB010008BB010008BB01000890
:10006000BB010008BB010008BB010008BB01000880
:10007000BB010008BB010008BB010008BB01000870
:10008000BB010008BB010008BB010008BB01000860
:10009000BB010008BB010008BB010008BB01000850
:1000A000BB010008BB010008BB010008BB01000840
:1000B000BB010008BB010008BB010008BB01000830
:1000C000BB010008BB010008BB010008BB01000820
:1000D000BB010008BB010008BB010008BB01000810
:1000E000BB010008BB010008BB010008BB01000800
:1000F000BB010008BB010008BB010008BB010008F0
:10010000BB010008BB010008BB010008BB010008DF
:10011000BB010008BB010008BB010008C51F0008A7
:10012000BB010008BB010008BB010008BB010008BF
:10013000BB010008BB010008BB010008BB010008AF
:10014000BB010008BB010008BB010008BB0100089F
:10015000BB010008BB010008BB010008BB0100088F
:10016000BB010008BB010008BB010008BB0100087F
:10017000BB010008BB010008BB0100080000000033
:10018000BB010008BB010008DFF810D000F072F9D5
:1001900000480047E5450008AFF30080A8040020B0
:1001A0000648804706480047FEE7FEE7FEE7FEE711
:1001B000FEE7FEE7FEE7FEE7FEE7FEE7991E000822
:1001C000890100082DE9F05F0546002092469B4614
:1001D00088460646814640241BE02846414647465D
:1001E000224600F0D9F853465A46C01A914110D31E
:1001F00011461846224600F0C0F82D1A67EB010898
:100200004F4622460120002100F0B7F817EB000905
:100210004E41201EA4F10104DFDC484631462A4647
:100220004346BDE8F09FD2B201E000F8012B491E21
:10023000FBD270470022F6E710B513460A46044683
:100240001946FFF7F0FF204610BD2DE9FE4F81EA69
:10025000030404F0004421F0004100944FF0000B2F
:1002600023F0004350EA01045ED052EA03045BD05D
:10027000C3F30A54C1F30A552C44A4F2F334019495
:10028000A0FB0254C1F3130141F48011C3F3130323
:1002900043F4801301FB024400FB034E840A970AD7
:1002A00044EA815447EA8357A4FB076802958D0A04
:1002B00005FB07854FEA932C04FB0C542705029D90
:1002C0004FEA065847EA1637B5EB08056EEB070C00
:1002D000870E920E47EA811742EA8312A7FB0201BA
:1002E000B6EB0B0164EB00042B0D43EA0C335E18F4
:1002F00044EB1C50DA465146E7FB0201C5F31304F8
:100300004FEA0B3343EA14534FEA0432019C43EAA9
:100310000603A4F10C040294009CCDE900B400F0A3
:100320005AF803B0BDE8F08F00200146F9E70EB59A
:1003300040F2334102910021CDE900110A460B46FB
:1003400000F049F803B000BDC1F30A5210B5C1F383
:10035000130140F2FF3341F480119A4201DA002088
:1003600010BD40F233439A42A2F2334203DC5242C0
:1003700000F012F810BD904010BD202A04DB203A96
:1003800000FA02F1002070479140C2F1200320FAE8
:1003900003F3194390407047202A04DB203A21FAE6
:1003A00002F00021704721FA02F3D040C2F120028E
:1003B000914008431946704710B5141E73F10004AC
:1003C00008DA401C41F1000192185B411A4301D147
:1003D00020F0010010BD2DE9F04D92469B4611B171
:1003E000B1FA81F202E0B0FA80F220329046FFF7D3
:1003F000C4FF04460F4640EA0A0041EA0B01534697
:100400005A46084313D0114653EA010019D0C8F1E7
:1004100040025046FFF7C0FF05460E46504659467B
:100420004246FFF7AAFF084305D0012004E020461A
:100430003946BDE8F08D0020054346EAE0762C43BE
:1004400037430A986305E40AA0EB08000022FD0A7E
:1004500044EA47540A3002D500200146E9E7010585
:1004600010196941DDE9084500196941BDE8F04D01
:10047000A2E70000064C074D06E0E06840F00103EB
:1004800094E8070098471034AC42F6D3FFF780FE9B
:10049000608D0008808D0008FEE7704772B6FEE7A9
:1004A00030B5B3F5804F05D06FF0704140F82210A1
:1004B000002030BD8C690B688D6823434C688989A6
:1004C000240144EA0524234343EA014150F8223041
:1004D000024C2340194340F82210E9E70000F0CF16
:1004E00010B50A6850F8223023F0010340F822309A
:1004F0008B68082B23D000224C681C43CB68134325
:100500000A691C4314434A691443CA6914430A6ABA
:1005100014434A6A14438A6A1443CA6A14430A6B2E
:1005200014438A692243CB6B1343064C096850F885
:100530002120A2431A4340F82120002010BD402270
:10054000DAE700007FFF0F0030B5D1E9003443EA5D
:1005500004138C688D89240244EA054423430C8AE1
:10056000641E43EA04540B7D89699B1E44EA0363BD
:100570000B43521C50F8221001F040410B4340F84D
:100580002230002030BD0000034801680348406865
:10059000C0EB0040084470472414004018000020BD
:1005A00070B5044600F054F90546601C02D00448BA
:1005B0000078044400F04CF9401BA042FAD370BD0F
:1005C000080000202DE9F04186B0142101A8FFF7B2
:1005D00031FE2148016800293AD10121016000243F
:1005E0001E48016841F001010160006800F001004F
:1005F00000904FF48058CDF80480022502950394B2
:10060000032604960C27059701A9154800F030F839
:100610004FF680700190029503940496059701A906
:10062000104800F025F84CF23370019002950394C5
:100630000496059701A90C4800F01AF8CDF804803B
:10064000029503940496059701A9084800F010F854
:1006500006B0BDE8F08100000000002038380240FC
:100660000014024000100240000C0240001802403A
:100670002DE9F84F0022DFF89C914FF00108032785
:100680004FF00F0C09F1040AA9F1040B08FA02F566
:100690000B682B40AB426ED10C7904F00304012CA3
:1006A00001D0022C15D18668540007FA04FE26EA10
:1006B0000E06D1F80CE00EFA04FE4EEA060EC0F863
:1006C00008E04468AC430D79C5F300159540254317
:1006D00045600C79E443A40708D0C568540007FAC4
:1006E00004F6B5438E68A6402E43C6600C7904F02C
:1006F0000304022C11D1D40800EB8406356A540798
:10070000E40E0CFA04FE25EA0E05D1F810E00EFA0C
:1007100004FE4EEA050EC6F820E00568540007FA0C
:1007200004F6B5430E7906F00306A6402E43066094
:100730004C6814F4403F67D0374C256845F4804539
:100740002560246804F480440094344C22F00305AE
:100750002E19D6F8085894074FEA147E0CFA0EF4B6
:10076000A5432F4CA04201D1002424E02D4CA042EF
:1007700002D101241FE047E02B4CA04201D102240A
:1007800019E02A4CA04201D1032414E0284CA042D5
:1007900001D104240FE0274CA04201D105240AE036
:1007A000254CA04201D1062405E0244CA04201D1F1
:1007B000072400E0082404FA0EF42C43C6F8084885
:1007C000D9F800409C434D68ED0200D51C43C9F8A0
:1007D0000040DAF800409C434D68AD0200D51C4350
:1007E000CAF80040DBF800409C434D68AD0300D5DB
:1007F0001C43CBF80040074D083D2C689C434E68D5
:10080000F60300D51C432C60521C102AFFF43EAFA7
:10081000BDE8F88F083C01404438024000300140F8
:10082000000002400004024000080240000C0240A8
:10083000001002400014024000180240001C024058
:10084000002A01D08161704709048161704700006E
:100850000148806870470000080000200248816855
:1008600002781144816070470800002010B50B48E1
:10087000016841F400710160016841F48061016028
:10088000016841F480710160032000F063F80F20DB
:1008900000F006F800F026F8002010BD003C0240F1
:1008A00070B504460D4D4FF47A712878B1FBF0F025
:1008B0000B490968B1FBF0F000F049FB08B10120D9
:1008C00070BD102C07D200222146501E00F022F8E5
:1008D0006C60002070BD012070BD00000800002089
:1008E0001400002008B50A48016841F48041016005
:1008F000006800F4804000900548001F016841F046
:1009000080510160006800F08050009008BD000038
:1009100044380240F0B40D460D4B1B68C3F302236C
:10092000C3F10704042C00D90424191D072901D29E
:10093000002300E0DB1E012606FA04F1491E2940CF
:1009400099409E40761E16403143F0BC01F04FBBEB
:100950000CED00E000F00701054A10684FF6FF03B8
:10096000184040EA01200349084310607047000026
:100970000CED00E00000FA052DE9F04704460D46B5
:10098000002C13D0DFF82891D9F80000EFB200F066
:100990000700A8420CD289F80070D9F8000000F0D6
:1009A0000700A84204D00120BDE8F0870120FBE742
:1009B0002068404E810712D5400703D5306840F4C7
:1009C000E05030602078000703D5306840F4604084
:1009D00030603068A16820F0F00008433060207873
:1009E000C00731D0334960680839012808D002288F
:1009F0000BD0032809D0096889070BD40120D3E75D
:100A00000968890306D40120CEE70968890101D469
:100A10000120C9E7316821F0030101433160FFF78C
:100A200017FF804641F2883A07E0FFF711FFA0EB7D
:100A30000800504501D90320B6E73068616800F02E
:100A40000C00B0EB810FF0D1D9F8000000F00700E6
:100A5000A84209D989F80070D9F8000000F0070011
:100A6000A84201D001209FE72078400705D53068D3
:100A7000E16820F4E050084330602078000706D594
:100A80003068216920F4604040EAC100306000F025
:100A900019F83168084AC1F30311515CC84007498D
:100AA000086007480068FFF7FBFE00207CE70000B5
:100AB000003C0240083802400646000814000020AE
:100AC0000C00002010B51748006810F00C01164803
:100AD00016D04310042912D0082911D1114C241F1B
:100AE000216801F03F02216849020AD52068C0F35D
:100AF0008810A0FB03010023FFF764FB09E0184600
:100B000010BD21680023C1F38811A1FB0001FFF78C
:100B100059FB2168C1F30141491C4900B0FBF1F0C8
:100B200010BD0000083802400024F4002DE9F84F01
:100B30000446002C13D02078DFF8A083C007A8F16A
:100B4000040556D008F104000168C1F381010129B0
:100B50000CD00068C0F38100022803D00DE0012012
:100B6000BDE8F88FD8F80000400206D52868800359
:100B70003FD5606870BB0120F2E76068B0F5803F48
:100B800010D0B0F5A02F12D0286820F48030286053
:100B9000286820F4802028606068E0B1FFF758FEE4
:100BA000064614E0286840F480302860F4E728689E
:100BB00040F480202860286840F480302860EBE70B
:100BC000FFF746FE801B642801D90320C8E7286888
:100BD0008003F5D50DE0FFF73BFE064606E0FFF784
:100BE00037FE801B642801D90320B9E728688003F9
:100BF000F5D42078BA4F80074FF0000948D5B748A0
:100C0000001D016811F00C0F08D00068C0F38100CE
:100C1000022813D1D8F8000040020FD428688007BA
:100C200004D5E068012801D0012099E728682169EE
:100C300020F0F80040EAC100286029E0E068B8B17F
:100C400001203860FFF704FE064606E0FFF700FECD
:100C5000801B022801D9032082E728688007F5D588
:100C60002868216920F0F80040EAC10028600FE000
:100C7000C7F80090FFF7ECFD064606E0FFF7E8FD39
:100C8000801B022801D903206AE728688007F5D471
:100C90002078000729D5DFF844A2924861690AF15B
:100CA000700A89B101210160FFF7D2FD064606E016
:100CB000FFF7CEFD801B022801D9032050E7DAF8A8
:100CC00000008007F4D510E0C0F80090FFF7C0FDE9
:100CD000064606E0FFF7BCFD801B022801D9032071
:100CE0003EE7DAF800008007F4D42078400778D592
:100CF0004FF0000A79483C300068C0000BD47748B8
:100D00003C30016841F080510160006800F0805083
:100D100000904FF0010ADFF8D0B1DBF80000C00509
:100D200014D4DBF8000040F48070CBF80000FFF72B
:100D30008FFD064606E0FFF78BFD801B022801D9D8
:100D400003200DE7DBF80000C005F4D5634EA06872
:100D50006C3601280FD0052812D0306820F0010031
:100D60003060306820F004003060A068F8B1FFF710
:100D70006FFD834617E0306840F001003060F4E713
:100D8000306840F004003060306840F001003060AE
:100D9000EBE7FFF75DFDA0EB0B0141F288308142EC
:100DA00001D90320DCE630688007F2D510E0FFF7B8
:100DB0004FFD834609E0FFF74BFDA0EB0B0141F22D
:100DC0008830814201D90320CAE630688007F2D416
:100DD000BAF1010F05D141483C30016821F0805142
:100DE0000160A069C0B33D49091D09684FF0FF3695
:100DF000C1F38101022946D0022805D0C7F86090CE
:100E0000FFF726FD04463AE0C7F86090FFF720FDA3
:100E1000814607E0FFF71CFDA0EB0900022801D97D
:100E200003209DE628688001F4D4D4E90701084333
:100E3000616AA26A890106EB520241EA0241084353
:100E400094F82C1040EA0160C8F8000001203866D0
:100E5000FFF7FEFC044607E03DE0FFF7F9FC001B4E
:100E6000022801D903207BE628688001F5D532E00D
:100E7000FFF7EEFC001B022801D9032070E628686A
:100E80008001F5D427E0012823D0D8F80000E269DA
:100E900000F4800191421AD1226A00F03F01914290
:100EA00015D147F6C071626A0140B1EB821F0ED1C5
:100EB000A26A00F4403106EB5202B1EB024F06D1B8
:100EC00094F82C1000F07060B0EB016F03D001209B
:100ED00046E6012044E6002042E6000004380240D5
:100EE00000004742800E47420070004070B5044643
:100EF0000E461546002C03D094F8490010B107E0C7
:100F0000012070BD002084F84800204600F01DF844
:100F100004F108012068FFF7E3FA3146A26820686F
:100F2000FFF712FBD4E901022946236BFFF7B8FA59
:100F3000A168206850F8212042F0010240F82120E9
:100F4000012084F84900002070BDFFF73BBB10B5BD
:100F5000401EB0F1807F01D3012010BD4FF0E0248E
:100F600060610F21601701F042F80020A0610720A6
:100F70002061002010BDFEE770B5064600240A4A35
:100F8000118855884D430021084600F011FA00F001
:100F90004BFBB0B24FF0D84102E0A1F88000641CD6
:100FA000AC42FAD370BD00009A0000202DE9F04F4A
:100FB000304B987119462C272B252A2689884FF407
:100FC00030584FF428594FF4487441F6631A4FF0E3
:100FD000F00B45F2105E4FF4A07C4FF4F072002845
:100FE0000ED0A3F800C0A3F802B071452BD1A3F82E
:100FF0000880A3F80A90280298811C805A802DE06E
:10100000A3F800B0A3F802C0714509D1A3F8088085
:10101000A3F80A904FF42C5098811A805C800AE063
:10102000514505D11F815D819E811A805C8002E05F
:101030001F815E819D81A1F5A640103815D1A3F8CE
:1010400000C05A8011E0514505D11F815E819D810C
:101050001C805A8002E01F815E819D81A1F5A6401F
:10106000103802D11A80A3F802C0BDE8F04F00206A
:1010700000F0C6B89A0000202DE9F04104460D4664
:10108000334E2F0A3046B1884089A1F5AA434FEA72
:101090001428103B1AD0A1F5C853633B32D000F09E
:1010A000B7FA404600F0A8FAE0B200F0A5FAB0891D
:1010B00000F0AEFA384600F09FFAE8B200F09CFA71
:1010C0002448318901804280BDE8F08100F0A0FA17
:1010D000404600F091FA7089401C80B200F098FA06
:1010E000E0B200F089FAB08900F092FA384600F0D8
:1010F00083FAB089401C80B200F08AFAE8B200F0AE
:101100007BFADDE7B17919B93188091B491E8CB228
:1011100000F07EFA4FEA1428404600F06DFAE0B283
:1011200000F06AFA404600F067FAE0B200F064FAB4
:10113000B08900F06DFA384600F05EFAE8B200F0CF
:101140005BFA384600F058FAE8B200F055FAB7E713
:101150009A0000207E00006C2DE9F0439846079B22
:1011600081460C46A2EB0900401C86B29FB24FF0AC
:10117000D8450FE02146484600F01AF900F054FA2D
:10118000002203E0A5F88070521C92B2B242F9D35B
:10119000641CA4B24445EDD9BDE8F08308B503480A
:1011A00000880090BDF8000008BD00008000006CC1
:1011B00010B50246BE2000F02BFA052000F01CFA04
:1011C0001046FFF7B4F89FED0C1B53EC112BFFF703
:1011D0003CF8FFF7B9F880B200F00EFA012000F0F9
:1011E0000BFAFF2000F008FA002000F005FABDE835
:1011F0001040002000F000BA66666666666604402D
:1012000070B50023694C41F663162146A27989889E
:10121000012A01D1B14202D1C2B9B14216D1082886
:1012200014D2DFE800F00406080A0C0E10120620A3
:101230000CE007200AE0042008E0052006E0012079
:1012400004E0002002E0032000E00220082812D27F
:10125000DFE800F0110406080A0C0E1080230AE0F3
:10126000402308E0C02306E0202304E0602302E0DE
:10127000A02300E0E02345F21055A94202D14FF42B
:10128000585000E03620A1F51342413A03D0A1F5B1
:10129000EE42893A01D143F00803194600F0CEF935
:1012A000A288B2420ED0980606D52088618888426E
:1012B00008D22180608005E020886188884201D9B9
:1012C00021806080AA4247D1608900F0A1F9002006
:1012D00000F092F96089401C80B200F099F900207A
:1012E00000F08AF96089801C80B200F091F92088B2
:1012F000401EC0F30F2000F07FF96089C01C80B24F
:1013000000F086F92078401EC0B200F075F9A0897F
:1013100000F07EF9002000F06FF9A089401C80B237
:1013200000F076F9002000F067F9A089801C80B2F7
:1013300000F06EF96088401EC0F30F2000F05CF9E9
:10134000A089C01C80B200F063F9A078BDE87040AD
:10135000401EC0B200F050B9608900F059F9002079
:1013600000F04AF9002000F047F92088401EC0F341
:101370000F2000F041F92078401EC0B200F03CF987
:10138000A08900F045F9002000F036F9002000F0B7
:1013900033F96088401EC0F30F2000F02DF9A078CB
:1013A000BDE87040401EC0B200F026B99A0000208F
:1013B000F0B502460C463E4D260A2846A988170A73
:1013C0004089A1F5C853633B16D0A1F5AA43103B51
:1013D00050D000F01DF9384600F00EF9D0B200F000
:1013E0000BF9A88900F014F9304600F005F9E0B2D5
:1013F000BDE8F04000F000B9A97941B300F008F968
:10140000384600F0F9F8D0B200F0F6F82888401E0F
:10141000C0F30F2000F0F0F82878401EC0B200F0B2
:10142000EBF8A88900F0F4F8304600F0E5F8E0B2F7
:1014300000F0E2F86888401EC0F30F2000F0DCF8EE
:10144000A878BDE8F040401EC0B200F0D5B82988A9
:10145000891A491E8AB200F0DBF8002000F0CCF8AF
:10146000002000F0C9F8100A00F0C6F8D0B200F071
:10147000C3F8D6E700F0CCF8384600F0BDF868892C
:10148000401C80B200F0C4F8D0B200F0B5F8A889D2
:1014900000F0BEF8304600F0AFF8A889401C80B2DA
:1014A00000F0B6F8E0B2BDE8F04000F0A5B80000EA
:1014B0009A0000202DE9F84F82460D461F46AB46A4
:1014C000780701D0012000E0002000EBD700790868
:1014D0004843C0B20090203A02F0FF09002650E0D5
:1014E0000C2F14D0102F19D0182F1CD0202F4BD117
:1014F000264800EBC910845D4FF00008200619D57E
:101500002348294602685046FFF7B6FD1AE02149F4
:1015100009EB490001EB8000845DEDE71E4800EB1C
:101520000910845DE8E71D4909EBC90001EB800063
:10153000845DE1E70A9828B9154829464268504673
:10154000FFF79AFD6006040E6D1CADB2144840888A
:10155000A84219D9A5EB0B00B84209D15D460AF1A2
:10156000010A1FFA8AFA0E48008850450CD906E095
:1015700008F1010808F0FF08B8F1080FBED3761C87
:10158000F6B200988642ABD3BDE8F88FE05D000864
:101590002000002020460008944A000884500008DB
:1015A0009A0000202DE9F84F0446DDE90A760D4641
:1015B00004F0FF0810191FFA80F958191FFA80FA71
:1015C0004FF0000B11E04C4502D34446E81985B2B8
:1015D00055450FD23B4629462046CDF800B0FFF7CF
:1015E00069FF04EB570084B2761C3278A2F1200028
:1015F0005E28E8D9BDE8F88F01B5BDF8000000907D
:10160000BDF800000149088008BD00008000006CA2
:1016100001B5BDF800000090BDF800000149088048
:1016200008BD00007E00006C024803490089088064
:10163000704700009A0000207E00006C014A108074
:10164000518070477E00006C2DE9F0410A6892FAE3
:10165000A2F2B2FA82F30F2603258AE001249C400D
:101660002240002A7DD04C68012C01D0022C1BD1D5
:101670008C68876892FAA2FCBCFA8CFC4FEA4C0C8E
:1016800005FA0CFC27EA0C0792FAA2FCBCFA8CFCC7
:101690004FEA4C0C04FA0CF427438760CC68476887
:1016A00054439743274347600C69C76892FAA2FCEA
:1016B000BCFA8CFC4FEA4C0C05FA0CFC27EA0C0730
:1016C00092FAA2FCBCFA8CFC4FEA4C0C04FA0CF423
:1016D0002743C7604C68022C34D192FAA2F4B4FAC2
:1016E00084F4082C16D24C69076A92FAA2FCBCFA60
:1016F0008CFC4FEA8C0C06FA0CFC27EA0C0792FAD9
:10170000A2FCBCFA8CFC4FEA8C0C04FA0CF42743C4
:10171000076217E04F69D0F824C0140A94FAA4F8BD
:10172000B8FA88F84FEA880806FA08F894FAA4F498
:10173000B4FA84F4A4002CEA080CA7404CEA070C85
:10174000C0F824C04C68076892FAA2FCBCFA8CFC72
:101750004FEA4C0805FA08FC27EA0C0792FAA2F2B5
:1017600000E005E0B2FA82F252009440274307609D
:101770005B1C0A6832FA03F47FF470AF0020BDE806
:10178000F08110B501220368C3F38013002B25D12B
:10179000D1E900231A43D1E9023423431A430B69E8
:1017A0001A434B691A438B691A43CB691A430B6A74
:1017B0001A4303684FF6BF74A3431A43026042689A
:1017C0004B6922F0040242EA134242600A6AB2F50F
:1017D000005F02D1898C89B201610022C16921F4C4
:1017E0000061C161104610BD2DE9F0410268264C30
:1017F000264D274E274F284B4FF0804CA04209D052
:10180000604507D0A84205D0B04203D0B84201D00D
:10181000984205D1D1F8048022F0700242EA080211
:10182000A0421BD0604519D0A84217D0B04215D0B5
:10183000B84213D0984211D0184DA8420ED0184D7E
:10184000A8420BD0174DA84208D0174DA84205D08A
:10185000164DA84202D0164DA84203D1CD6822F4FD
:1018600040722A4302608A68C2620A888262A04289
:1018700001D0984201D109690163416941F0010138
:1018800041610020BDE8F0810000014000040040FB
:1018900000080040000C00400004014000400140EE
:1018A000004401400048014000180040001C004076
:1018B0000020004010B58EB01C2107A8FEF7BAFC2E
:1018C0001C216846FEF7B6FC1B484FF02041016022
:1018D0001A494160062181600021C1600161102226
:1018E00042618161C1610162416213028362C1622E
:1018F00093020363416381634164022007900F23D5
:10190000089309920A910B9211200C900D910924D1
:101910000094019308230293039104920590069189
:101920006A4607A90448FFF7E1FA002801D0FEF74C
:10193000B5FD0EB010BD000028000020040100A07D
:101940002DE9F04786B0142101A8FEF773FC0027AB
:101950003E48016841F020010160016801F020016A
:101960000091016841F080010160016801F080018F
:101970000091016841F010010160016801F010015F
:101980000091016841F002010160016801F002016B
:101990000091016841F008010160016801F008014F
:1019A0000091016841F040010160016801F04001CF
:1019B0000091016841F001010160006800F0010040
:1019C0000090DFF88C804FF4C0640122214640462D
:1019D000FEF736FFDFF87C904FF4004600223146D8
:1019E0004846FEF72DFFDFF870A000224021504648
:1019F000FEF726FF012280215046FEF721FF0194C9
:101A00000124029403940225049501A94046FEF79F
:101A10002FFE019602940394049501A94846FEF70F
:101A200027FEC020019002940394049501A950461A
:101A3000FEF71EFE200201900297039401A9504672
:101A4000FEF716FE06B0BDE8F08700003038024011
:101A500000140240000402400018024010B592B089
:101A6000282108A8FEF7E6FB182102A8FEF7E2FBF2
:101A70001E48016841F480510160006800F4805004
:101A800001901A481438016841F0020101600068B1
:101A900000F0020001903820029002200390032001
:101AA00004900024059406940520079002A910488C
:101AB000FFF7CAFD08944FF4827009900A940B94C2
:101AC0000C944FF400700D9028200E900F941094F9
:101AD0000A201190074C08A92046FFF752FE6168C2
:101AE00021F01001616012B010BD000044380240C6
:101AF000000402400030014010B586B0142101A856
:101B0000FEF798FB1B48016841F020010160006866
:101B100000F02000009018480068C0F30220011D6A
:101B2000072901D2002000E0C01E002202FA00F1C5
:101B300008011249087012494FF40000C1F8000171
:101B40005320ADF8040002924FF6FF7003900D4C45
:101B500001A92046FFF748FE206820F080002060A1
:101B6000606820F070006060A06820F08000A060D5
:101B700006B010BD403802400CED00E037E400E054
:101B800004E000E000140040FEE7FEE71CB510A0F2
:101B900003C8CDE9000128210F4800F01DF90522F6
:101BA0006946302000F0B2F805226946102000F0A6
:101BB00045F8002069460A5CA52A03D1401CC0B242
:101BC0000528F8D3052801D001201CBD00201CBD2C
:101BD000A5A5A5A5A50000000030014010B5154C35
:101BE000002240212046FEF72BFE052212492A2022
:101BF00000F08CF80121212000F0B2F80121222010
:101C000000F0AEF82821252000F0AAF8202131208C
:101C100000F0A6F80F21262000F0A2F80F212020C6
:101C200000F09EF820460122BDE810404021FEF75A
:101C300007BE0000001802401B4600082DE9F047CF
:101C400004460D461646DFF84090002280214846A3
:101C5000FEF7F6FDDFF834802146404600F0A1F89B
:101C60000746002406E0FF21404600F09AF8285578
:101C7000641CE4B2B442F6D3012280214846FEF748
:101C8000DFFD3846BDE8F087001802400030014013
:101C900070B505460B4C002280212046FEF7D0FD92
:101CA0002946094D284600F07CF8FF21284600F01F
:101CB00078F80546012280212046FEF7C1FD28461E
:101CC00070BD0000001802400030014070B50546AC
:101CD00028210D4800F080F80720FFF7D9FF0446BF
:101CE0002146272000F03CF860060AD5202229462C
:101CF0006120FFF7A3FFFF21E22000F031F8002070
:101D000070BD012070BD0000003001402DE9F0479A
:101D100004460D461646DFF84090002280214846D2
:101D2000FEF78EFDDFF834802146404600F039F89A
:101D30000746002406E015F8011B404600F031F884
:101D4000641CE4B2B442F6D3012280214846FEF777
:101D500077FD3846BDE8F0870018024000300140AA
:101D60002DE9F04105460F460B4C0022802120460C
:101D7000FEF766FD2946094D284600F012F8064692
:101D80003946284600F00DF8012280212046FEF752
:101D900057FD3046BDE8F081001802400030014098
:101DA000704710B54FF47A73002202E0521C9A4239
:101DB00004D88468C4F34004002CF7D0C16000212B
:101DC00002E0491C994204D88268C2F30002002A4A
:101DD000F7D0C068C0B210BD10B5074A13684FF6FF
:101DE000C7742340136013680B431360016841F00C
:101DF0004001016010BD0000003001407047FEF757
:101E00002DBD000030B593B0302107A8FEF712FABF
:101E1000142102A8FEF70EFA00251D48016841F0C2
:101E200080510160006800F08050019019480168FD
:101E300041F480410160006800F48040019001207D
:101E400007900004089002240D9480010E90042055
:101E50000F90A82110911194129007A8FEF766FE2A
:101E600008B1FEF71BFB0F200290039404954FF47A
:101E7000A05005904FF480500690052102A8FEF76F
:101E80007BFD002801D0FEF709FB13B030BD000038
:101E900040380240007000400248016841F470017F
:101EA0000160704788ED00E07CB5012000F0BEF8CD
:101EB000234800F0CFF800F007F94FF6FF752846E9
:101EC000FFF75AF81F4A4FF47841116010241EA101
:101ED000CDE900412346C82232211E20FFF762FBD4
:101EE0001EA1CDE900411023C82246211E20FFF784
:101EF00059FB00F0D9F815E01CA0CDE900401023F3
:101F0000C8225A211E20FFF74DFBC82000F0A8F878
:101F10009223EF225A211E200095FFF71DF9C820B9
:101F200000F09EF8FFF732FE0028E5D113A0CDE9BE
:101F300000401023C8225A211E20FFF733FB7CBD2E
:101F400000300140200000204578706C6F7265728F
:101F50002053544D33324634000000004E52463276
:101F6000344C303120544553540000004E52463218
:101F7000344C3031204572726F7200004E5246323E
:101F8000344C3031204F4B001CB5FFF727FE0025A5
:101F90000A4C0B4F10260948FFF798FE0028FAD18B
:101FA00084F82050CDE9006438882023401E82B296
:101FB000BE211E20FFF7F6FAEDE7000078000020B2
:101FC0009A000020AFF3008006480169C1F30001C8
:101FD000002906D06FF00101016103484168491CE6
:101FE000416070470014004018000020FEE7090718
:101FF000090E002804DB00F1E02080F8001470478F
:1020000000F00F0000F1E02080F8141D704702E09E
:1020100008C8121F08C1002AFAD170477047002073
:1020200001E001C1121F002AFBD170470749087067
:102030000748C16841F00101C1606FF00101016111
:10204000016841F0010101607047000018000020A4
:1020500000140040016841F0400101607047000039
:1020600010B502460A48007800280CD0FEF78CFA1A
:1020700002EB4201C1EBC21100EBC102FEF784FA90
:102080009042FBD910BDBDE810401046FEF788BA5B
:102090001800002000B50246FEF776FA0244FEF76B
:1020A00073FA9042FBD900BD10B5064C00224021C6
:1020B0002046FEF7C5FB20460122BDE810408021E6
:1020C000FEF7BEBB001802402DE9F05FD320FFF7FA
:1020D0009FFAFFF763F8FE4DA880FFF75FF8A8802E
:1020E000FFF75CF84FF6FF7909EA0020A880FFF7B8
:1020F00055F8A9880843A88049F2413A45F21037BB
:1021000045F210564FF4704B41F6631847F289744C
:1021100050457AD00420FFF77BFAFFF73FF8A880FC
:10212000FFF73CF8A880FFF739F809EA0020A880FB
:10213000FFF734F8A9880843A880A0F50541523973
:1021400000D1AC80A888A0425FD0D420FFF760FA0D
:10215000FFF724F8A880FFF721F8A880FFF71EF802
:1021600009EA0020A880FFF719F8A9880843A88089
:10217000B8424AD055215846FFF760FAAA214FF2DB
:102180000100FFF75BFA52214FF20200FFF756FA07
:1021900008214FF20300FFF751FA01214FF204002A
:1021A000FFF74CFA4FF44540FFF732FAFEF7F6FF1F
:1021B00009EA0020A8804CF20150FFF729FAFEF747
:1021C000EDFFA9880843A8800520FFF749FFA888EC
:1021D000B0F5004F00D1AE80A888B04215D0A12044
:1021E000FFF716FAFEF7DAFFA880FEF7D7FF09EA35
:1021F0000020A880FEF7D2FFA9880843A880A0F598
:10220000AE41613901D1A5F80480A88850457CD140
:10221000CF20FFF7FDF90020FFF7EEF9C120FFF70F
:10222000EBF93020FFF7E8F9ED20FFF7F1F9642032
:10223000FFF7E2F90320FFF7DFF91220FFF7DCF9DF
:102240008120FFF7D9F9E820FFF7E2F98520FFF7B1
:10225000D3F91020FFF7D0F97A20FFF7CDF9CB2082
:10226000FFF7D6F93920FFF7C7F92C20FFF7C4F99B
:102270000020FFF7C1F93420FFF7BEF90220FFF775
:10228000BBF9F720FFF7C4F92020FFF7B5F9EA20E2
:10229000FFF7BEF90020FFF7AFF90020FFF7ACF918
:1022A000C020FFF7B5F91B20FFF7A6F9C120FFF703
:1022B000AFF90120FFF7A0F9C520FFF7A9F93020F9
:1022C000FFF79AF93020FFF797F9C720FFF7A0F939
:1022D000B720FFF791F93620FFF79AF94820FFF76A
:1022E0008BF93A20FFF794F95520FFF785F9B120D3
:1022F000FFF78EF90020FFF77FF91A20FFF77CF92E
:10230000B620FFF785F90A2000E099E0FFF774F99D
:10231000A220FFF771F9F220FFF77AF90020FFF70A
:102320006BF92620FFF774F90120FFF765F9E0202B
:10233000FFF76EF90F20FFF75FF92A20FFF75CF92E
:102340002820FFF759F90820FFF756F90E20FFF76C
:1023500053F90820FFF750F95420FFF74DF9A92051
:10236000FFF74AF94320FFF747F90A20FFF744F93E
:102370000F20FFF741F90020FFF73EF90020FFF79B
:102380003BF90020FFF738F90020FFF735F9E1208D
:10239000FFF73EF90020FFF72FF91520FFF72CF982
:1023A0001720FFF729F90720FFF726F91120FFF77B
:1023B00023F90620FFF720F92B20FFF71DF95620FF
:1023C000FFF71AF93C20FFF717F90520FFF714F97A
:1023D0001020FFF711F90F20FFF70EF93F20FFF74C
:1023E0000BF93F20FFF708F90F20FFF705F92B2025
:1023F000FFF70EF90020FFF7FFF80020FFF7FCF8C9
:102400000120FFF7F9F83F20FFF7F6F82A20FFF741
:10241000FFF80020FFF7F0F80020FFF7EDF80020AC
:10242000FFF7EAF8EF20FFF7E7F81120FFF7F0F8E1
:102430007820FFF715FE2920FFF7EAF802F097B899
:10244000A0427CD11120FFF7E3F87820FFF708FEC7
:102450003620FFF7DDF80020FFF7CEF83A20FFF72F
:10246000D7F80520FFF7C8F8B220FFF7D1F80C2005
:10247000FFF7C2F80C20FFF7BFF80020FFF7BCF809
:102480003320FFF7B9F83320FFF7B6F8B720FFF78E
:10249000BFF83520FFF7B0F8BB20FFF7B9F83220BE
:1024A000FFF7AAF8C020FFF7B3F80C20FFF7A4F855
:1024B000C220FFF7ADF80120FFF79EF8C320FFF719
:1024C000A7F81020FFF798F8C420FFF7A1F801E063
:1024D0009A0000202020FFF78FF8C620FFF798F819
:1024E0000F20FFF789F8D020FFF792F8A420FFF71C
:1024F00083F8A120FFF780F8E020FFF789F8D020CB
:10250000FFF77AF80020FFF777F80220FFF774F85A
:102510000720FFF771F80A20FFF76EF82820FFF771
:102520006BF83220FFF768F84420FFF765F8422087
:10253000FFF762F80620FFF75FF80E2000E059E091
:10254000FFF75AF81220FFF757F81420FFF754F856
:102550001720FFF751F8E120FFF75AF8D020FFF7D6
:102560004BF80020FFF748F80220FFF745F8072056
:10257000FFF742F80A20FFF73FF82820FFF73CF862
:102580003120FFF739F85420FFF736F84720FFF7DE
:1025900033F80E20FFF730F81C20FFF72DF8172036
:1025A000FFF72AF81B20FFF727F81E20FFF724F873
:1025B0002A20FFF72DF80020FFF71EF80020FFF774
:1025C0001BF80020FFF718F8EF20FFF715F82B2075
:1025D000FFF71EF80020FFF70FF80020FFF70CF8B8
:1025E0000120FFF709F83F20FFF706F82920FFF741
:1025F0000FF823E7B8427CD1ED20FFF709F801205E
:10260000FEF7FAFFFE20FEF7F7FFEE20FFF700F8D7
:10261000DE20FEF7F1FF2120FEF7EEFFF120FEF7AE
:10262000F7FF0120FEF7E8FFDF20FEF7F1FF1020A3
:10263000FEF7E2FFC420FEF7EBFF8F20FEF7DCFF82
:10264000C620FEF7E5FF0020FEF7D6FFE220FEF7EA
:10265000D3FFE220FEF7D0FFE220FEF7CDFFBF2040
:10266000FEF7D6FFAA20FEF7C7FFB020FEF7D0FF87
:102670000D20FEF7C1FF0020FEF7BEFF0D20FEF784
:10268000BBFF0020FEF7B8FF1120FEF7B5FF0020CA
:10269000FEF7B2FF1920FEF7AFFF0020FEF7ACFFF8
:1026A0002120FEF7A9FF0020FEF7A6FF2D20FEF750
:1026B000A3FF0020FEF7A0FF3D20FEF79DFF0020B6
:1026C000FEF79AFF5D20FEF797FF0020FEF794FFCC
:1026D0005D20FEF791FF0020FEF78EFFB120FEF790
:1026E00097FF8020FEF788FF0020FEF785FF8B20F4
:1026F00000E0FCE3FEF780FF0020FEF77DFF962060
:10270000FEF77AFF0020FEF777FFB220FEF780FF8A
:102710000020FEF771FF0020FEF76EFF0220FEF79B
:102720006BFF0020FEF768FF0320FEF765FF002027
:10273000FEF762FFB320FEF76BFF0020FEF75CFFA1
:102740000020FEF759FF0020FEF756FF0020FEF79D
:1027500053FF0020FEF750FF0020FEF74DFF002042
:10276000FEF74AFF0020FEF747FF0020FEF744FF78
:102770000020FEF741FF0020FEF73EFF0020FEF79D
:102780003BFF0020FEF738FF0020FEF735FF00205A
:10279000FEF732FF0020FEF72FFF0020FEF72CFF90
:1027A0000020FEF729FF0020FEF726FF0020FEF79D
:1027B00023FF0020FEF720FF0020FEF71DFF002072
:1027C000FEF71AFF0020FEF717FFB420FEF720FFE8
:1027D0008B20FEF711FF0020FEF70EFF9620FEF77C
:1027E0000BFF0020FEF708FFA120FEF705FF0020E9
:1027F000FEF702FFB520FEF70BFF0220FEF7FCFEFE
:102800000020FEF7F9FE0320FEF7F6FE0020FEF79B
:10281000F3FE0420FEF7F0FE0020FEF7EDFEB620EA
:10282000FEF7F6FE0020FEF7E7FE0020FEF7E4FECE
:10283000B720FEF7EDFE0020FEF7DEFE0020FEF7DB
:10284000DBFE3F20FEF7D8FE0020FEF7D5FE5E201F
:10285000FEF7D2FE0020FEF7CFFE6420FEF7CCFE8E
:102860000020FEF7C9FE8C20FEF7C6FE0020FEF712
:10287000C3FEAC20FEF7C0FE0020FEF7BDFEDC204C
:10288000FEF7BAFE0020FEF7B7FE7020FEF7B4FE9A
:102890000020FEF7B1FE9020FEF7AEFE0020FEF70E
:1028A000ABFEEB20FEF7A8FE0020FEF7A5FEDC2025
:1028B000FEF7A2FE0020FEF79FFEB820FEF7A8FE5E
:1028C0000020FEF799FE0020FEF796FE0020FEF79E
:1028D00093FE0020FEF790FE0020FEF78DFE002004
:1028E000FEF78AFE0020FEF787FE0020FEF784FE3A
:1028F000BA20FEF78DFE2420FEF77EFE0020FEF7B4
:102900007BFE0020FEF778FE0020FEF775FEC1205A
:10291000FEF77EFE2020FEF76FFE0020FEF76CFE25
:102920005420FEF769FE0020FEF766FEFF20FEF74A
:1029300063FE0020FEF760FEC220FEF769FE0A205B
:10294000FEF75AFE0020FEF757FE0420FEF754FE65
:102950000020FEF751FEC320FEF75AFE3C20FEF792
:102960004BFE0020FEF748FE3A20FEF745FE002011
:10297000FEF742FE3920FEF73FFE0020FEF73CFE48
:102980003720FEF739FE0020FEF736FE3C20FEF72A
:1029900033FE0020FEF730FE3620FEF72DFE00202D
:1029A000FEF72AFE3220FEF727FE0020FEF724FE67
:1029B0002F20FEF721FE0020FEF71EFE2C20FEF742
:1029C0001BFE0020FEF718FE2920FEF715FE002052
:1029D000FEF712FE2620FEF70FFE0020FEF70CFE8B
:1029E0002420FEF709FE0020FEF706FE2420FEF755
:1029F00003FE0020FEF700FE2320FEF7FDFD002071
:102A0000FEF7FAFD3C20FEF7F7FD0020FEF7F4FD8F
:102A10003620FEF7F1FD0020FEF7EEFD3220FEF736
:102A2000EBFD0020FEF7E8FD2F20FEF7E5FD00207E
:102A3000FEF7E2FD2C20FEF7DFFD0020FEF7DCFDB7
:102A40002920FEF7D9FD0020FEF7D6FD2620FEF74F
:102A5000D3FD0020FEF7D0FD2420FEF7CDFD0020A1
:102A6000FEF7CAFD2420FEF7C7FD0020FEF7C4FDD7
:102A70002320FEF7C1FD0020FEF7BEFDC420FEF7B7
:102A8000C7FD6220FEF7B8FD0020FEF7B5FD05206A
:102A9000FEF7B2FD0020FEF7AFFD8420FEF7ACFD8F
:102AA0000020FEF7A9FDF020FEF7A6FD0020FEF7AE
:102AB000A3FD1820FEF7A0FD0020FEF79DFDA42039
:102AC000FEF79AFD0020FEF797FD1820FEF794FD13
:102AD0000020FEF791FD5020FEF78EFD0020FEF74E
:102AE0008BFD0C20FEF788FD0020FEF785FD1720EA
:102AF000FEF782FD0020FEF77FFD9520FEF77CFDAE
:102B00000020FEF779FDF320FEF776FD0020FEF7AA
:102B100073FDE620FEF770FD0020FEF76DFDC52079
:102B2000FEF776FD3220FEF767FD0020FEF764FD1C
:102B30004420FEF761FD0020FEF75EFD6520FEF7F4
:102B40005BFD0020FEF758FD7620FEF755FD0020C6
:102B5000FEF752FD8820FEF74FFD0020FEF74CFDEA
:102B6000C620FEF755FD2020FEF746FD0020FEF7AB
:102B700043FD1720FEF740FD0020FEF73DFD01203C
:102B8000FEF73AFD0020FEF737FDC720FEF740FDB7
:102B90000020FEF731FD0020FEF72EFD0020FEF79D
:102BA0002BFD0020FEF728FDC820FEF731FD002098
:102BB000FEF722FD0020FEF71FFD0020FEF71CFDA2
:102BC0000020FEF719FDC920FEF722FD0020FEF7C8
:102BD00013FD0020FEF710FD0020FEF70DFD002084
:102BE000FEF70AFD0020FEF707FD0020FEF704FDBA
:102BF0000020FEF701FD0020FEF7FEFC0020FEF79E
:102C0000FBFC0020FEF7F8FC0020FEF7F5FC00209E
:102C1000FEF7F2FC0020FEF7EFFC0020FEF7ECFCD4
:102C20000020FEF7E9FC0020FEF7E6FCE020FEF7BE
:102C3000EFFC1620FEF7E0FC0020FEF7DDFC1C2078
:102C4000FEF7DAFC0020FEF7D7FC2120FEF7D4FCCB
:102C50000020FEF7D1FC3620FEF7CEFC0020FEF768
:102C6000CBFC4620FEF7C8FC0020FEF7C5FC522036
:102C7000FEF7C2FC0020FEF7BFFC6420FEF7BCFCA0
:102C80000020FEF7B9FC7A20FEF7B6FC0020FEF724
:102C9000B3FC8B20FEF7B0FC0020FEF7ADFC9920C2
:102CA000FEF7AAFC0020FEF7A7FCA820FEF7A4FC74
:102CB0000020FEF7A1FCB920FEF79EFC0020FEF7E5
:102CC0009BFCC420FEF798FC0020FEF795FCCA2070
:102CD000FEF792FC0020FEF78FFCD220FEF78CFC62
:102CE0000020FEF789FCD920FEF786FC0020FEF7C5
:102CF00083FCE020FEF780FC0020FEF77DFCF32043
:102D0000FEF77AFC0020FEF777FCE120FEF780FC5E
:102D10001620FEF771FC0020FEF76EFC1C20FEF76B
:102D20006BFC0020FEF768FC2220FEF765FC00200B
:102D3000FEF762FC3620FEF75FFC0020FEF75CFC2D
:102D40004520FEF759FC0020FEF756FC5220FEF706
:102D500053FC0020FEF750FC6420FEF74DFC0020E1
:102D6000FEF74AFC7A20FEF747FC0020FEF744FC01
:102D70008B20FEF741FC0020FEF73EFC9920FEF779
:102D80003BFC0020FEF738FCA820FEF735FC0020B5
:102D9000FEF732FCB920FEF72FFC0020FEF72CFCDA
:102DA000C420FEF729FC0020FEF726FCCA20FEF70F
:102DB00023FC0020FEF720FCD220FEF71DFC0020A3
:102DC000FEF71AFCD820FEF717FC0020FEF714FCD3
:102DD000E020FEF711FC0020FEF70EFCF320FEF7CA
:102DE0000BFC0020FEF708FCE220FEF711FC05209A
:102DF000FEF702FC0020FEF7FFFB0B20FEF7FCFBBA
:102E00000020FEF7F9FB1B20FEF7F6FB0020FEF783
:102E1000F3FB3420FEF7F0FB0020FEF7EDFB44202F
:102E2000FEF7EAFB0020FEF7E7FB4F20FEF7E4FB8E
:102E30000020FEF7E1FB6120FEF7DEFB0020FEF73D
:102E4000DBFB7920FEF7D8FB0020FEF7D5FB8820BE
:102E5000FEF7D2FB0020FEF7CFFB9720FEF7CCFB5E
:102E60000020FEF7C9FBA620FEF7C6FB0020FEF7F8
:102E7000C3FBB720FEF7C0FB0020FEF7BDFBC2205E
:102E8000FEF7BAFB0020FEF7B7FBC720FEF7B4FB46
:102E90000020FEF7B1FBD120FEF7AEFB0020FEF7CD
:102EA000ABFBD620FEF7A8FB0020FEF7A5FBDD203C
:102EB000FEF7A2FB0020FEF79FFBF320FEF79CFB32
:102EC0000020FEF799FBE320FEF7A2FB0520FEF7AA
:102ED00093FB0020FEF790FB0A20FEF78DFB0020FD
:102EE000FEF78AFB1C20FEF787FB002000E0FFE2D4
:102EF000FEF782FB3320FEF77FFB0020FEF77CFB12
:102F00004420FEF779FB0020FEF776FB5020FEF709
:102F100073FB0020FEF770FB6220FEF76DFB0020C4
:102F2000FEF76AFB7820FEF767FB0020FEF764FBE4
:102F30008820FEF761FB0020FEF75EFB9720FEF77E
:102F40005BFB0020FEF758FBA620FEF755FB002098
:102F5000FEF752FBB720FEF74FFB0020FEF74CFBBD
:102F6000C220FEF749FB0020FEF746FBC720FEF714
:102F700043FB0020FEF740FBD120FEF73DFB002085
:102F8000FEF73AFBD520FEF737FB0020FEF734FBB7
:102F9000DD20FEF731FB0020FEF72EFBF320FEF7CD
:102FA0002BFB0020FEF728FBE420FEF731FB01207D
:102FB000FEF722FB0020FEF71FFB0120FEF71CFBA3
:102FC0000020FEF719FB0220FEF716FB0020FEF79B
:102FD00013FB2A20FEF710FB0020FEF70DFB3C2020
:102FE000FEF70AFB0020FEF707FB4B20FEF704FB71
:102FF0000020FEF701FB5D20FEF7FEFA0020FEF741
:10300000FBFA7420FEF7F8FA0020FEF7F5FA8420A8
:10301000FEF7F2FA0020FEF7EFFA9320FEF7ECFA43
:103020000020FEF7E9FAA220FEF7E6FA0020FEF7FC
:10303000E3FAB320FEF7E0FA0020FEF7DDFABE2047
:10304000FEF7DAFA0020FEF7D7FAC420FEF7D4FA2A
:103050000020FEF7D1FACD20FEF7CEFA0020FEF7D1
:10306000CBFAD320FEF7C8FA0020FEF7C5FADD2020
:10307000FEF7C2FA0020FEF7BFFAF320FEF7BCFA13
:103080000020FEF7B9FAE520FEF7C2FA0020FEF7AD
:10309000B3FA0020FEF7B0FA0020FEF7ADFA0020E8
:1030A000FEF7AAFA0220FEF7A7FA0020FEF7A4FA1C
:1030B0002920FEF7A1FA0020FEF79EFA3C20FEF739
:1030C0009BFA0020FEF798FA4B20FEF795FA0020B5
:1030D000FEF792FA5D20FEF78FFA0020FEF78CFAD9
:1030E0007420FEF789FA0020FEF786FA8420FEF7A6
:1030F00083FA0020FEF780FA9320FEF77DFA002085
:10310000FEF77AFAA220FEF777FA0020FEF774FAAB
:10311000B320FEF771FA0020FEF76EFABE20FEF72C
:103120006BFA0020FEF768FAC420FEF765FA00206B
:10313000FEF762FACD20FEF75FFA0020FEF75CFA98
:10314000D320FEF759FA0020FEF756FADC20FEF7EE
:1031500053FA0020FEF750FAF320FEF74DFA002054
:10316000FEF74AFAE620FEF753FA1120FEF744FA7A
:103170000020FEF741FA3420FEF73EFA0020FEF769
:103180003BFA5620FEF738FA0020FEF735FA762093
:10319000FEF732FA0020FEF72FFA7720FEF72CFA1E
:1031A0000020FEF729FA6620FEF726FA0020FEF737
:1031B00023FA8820FEF720FA0020FEF71DFA992056
:1031C000FEF71AFA0020FEF717FABB20FEF714FAF2
:1031D0000020FEF711FA9920FEF70EFA0020FEF704
:1031E0000BFA6620FEF708FA0020FEF705FA5520D4
:1031F000FEF702FA0020FEF7FFF95520FEF7FCF972
:103200000020FEF7F9F94520FEF7F6F90020FEF759
:10321000F3F94320FEF7F0F90020FEF7EDF9442022
:10322000FEF7EAF90020FEF7E7F9E720FEF7F0F9EC
:103230003220FEF7E1F90020FEF7DEF95520FEF717
:10324000DBF90020FEF7D8F97620FEF7D5F900204B
:10325000FEF7D2F96620FEF7CFF90020FEF7CCF991
:103260006720FEF7C9F90020FEF7C6F96720FEF7D0
:10327000C3F90020FEF7C0F98720FEF7BDF9002052
:10328000FEF7BAF99920FEF7B7F90020FEF7B4F976
:10329000BB20FEF7B1F90020FEF7AEF99920FEF74A
:1032A000ABF90020FEF7A8F97720FEF7A5F900207A
:1032B000FEF7A2F94420FEF79FF90020FEF79CF9E3
:1032C0005620FEF799F90020FEF796F92320FEF725
:1032D00093F90020FEF790F93320FEF78DF90020D6
:1032E000FEF78AF94520FEF787F90020FEF784F9FA
:1032F000E820FEF78DF90020FEF77EF90020FEF7AA
:103300007BF99920FEF778F90020FEF775F9872000
:10331000FEF772F90020FEF76FF98820FEF76CF9CE
:103320000020FEF769F97720FEF766F90020FEF726
:1033300063F96620FEF760F90020FEF75DF988204A
:10334000FEF75AF90020FEF757F9AA20FEF754F9C4
:103350000020FEF751F9BB20FEF74EF90020FEF7E2
:103360004BF99920FEF748F90020FEF745F9662051
:10337000FEF742F90020FEF73FF95520FEF73CF931
:103380000020FEF739F95520FEF736F90020FEF748
:1033900033F94420FEF730F90020FEF72DF94420E0
:1033A000FEF72AF90020FEF727F95520FEF724F949
:1033B0000020FEF721F9E920FEF72AF9AA20FEF7FE
:1033C0001BF90020FEF718F90020FEF715F9002080
:1033D000FEF712F90020FEF71BF9AA20FEF70CF900
:1033E000CF20FEF715F90020FEF706F90020FEF7C2
:1033F00003F90020FEF700F90020FEF7FDF8002099
:10340000FEF7FAF80020FEF7F7F80020FEF7F4F8D0
:103410000020FEF7F1F80020FEF7EEF80020FEF79E
:10342000EBF80020FEF7E8F80020FEF7E5F80020B2
:10343000FEF7E2F80020FEF7DFF80020FEF7DCF8E8
:103440000020FEF7D9F80020FEF7D6F8F020FEF7AE
:10345000DFF80020FEF7D0F85020FEF7CDF800206E
:10346000FEF7CAF80020FEF7C7F80020FEF7C4F800
:10347000F320FEF7CDF80020FEF7BEF8F920FEF7A6
:10348000C7F80620FEF7B8F81020FEF7B5F8292097
:10349000FEF7B2F80020FEF7AFF83A20FEF7B8F8D2
:1034A0005520FEF7A9F81120FEF7B2F86420FEF7C8
:1034B000F1FD2920FEF7ACF83520FEF7A9F8002031
:1034C000FEF79AF85120FEF7A3F8FF20FEF794F8D4
:1034D0005320FEF79DF82C20FEF78EF85520FEF7BE
:1034E00097F88220FEF788F82C20FEF791F8FDE38C
:1034F000B0427DD155214FF47040FEF79FF8AA21CC
:103500004FF20100FEF79AF852214FF20200FEF747
:1035100095F84FF2030308211846FEF78FF84FF293
:10352000040B01215846FEF789F80D214FF4304075
:10353000FEF784F80D214BF20100FEF77FF80D2114
:103540004BF20200FEF77AF834214FF43640FEF7D2
:1035500075F834214BF20160FEF770F834214BF21C
:103560000260FEF76BF80D214FF43140FEF766F86C
:103570000D214BF20110FEF761F80D214BF2021004
:10358000FEF75CF834214FF43740FEF757F834214A
:103590004BF20170FEF752F834214BF20270FEF745
:1035A0004DF800214FF43240FEF748F800214BF26D
:1035B0000120FEF743F800214BF20220FEF73EF80F
:1035C00024214FF43840FEF739F824214BF601004E
:1035D000FEF734F824214BF60200FEF72FF8012104
:1035E0004FF43F40FEF72AF80F214FF4334000E03C
:1035F000FEE3FEF723F80F214BF20130FEF71EF831
:103600000F214BF20230FEF719F834214FF4394004
:10361000FEF714F834214BF60110FEF70FF83421B1
:103620004BF60210FEF70AF808214FF43540FEF77A
:1036300005F808214BF20150FEF700F808214BF283
:103640000250FDF7FBFF03214FF44240FDF7F6FF68
:1036500024214FF43A40FDF7F1FF24214BF60120DD
:10366000FDF7ECFF24214BF60220FDF7E7FF0021D8
:103670004FF43C40FDF7E2FF78214BF60140FDF7A7
:10368000DDFF00214BF60240FDF7D8FF00214FF48B
:103690003D40FDF7D3FF78214BF60150FDF7CEFFFB
:1036A00000214BF60250FDF7C9FF00214FF43E40C8
:1036B000FDF7C4FF64214BF60160FDF7BFFF002159
:1036C0004FF45140FDF7BAFF33214DF20110FDF7E1
:1036D000B5FF00214DF20210FDF7B0FF34214DF28D
:1036E0000310FDF7ABFF00214DF20410FDF7A6FF1C
:1036F0003A214DF20510FDF7A1FF00214DF2061011
:10370000FDF79CFF4A214DF20710FDF797FF0021BE
:103710004DF20810FDF792FF5C214DF20910FDF704
:103720008DFF00214DF20A10FDF788FF81214DF237
:103730000B10FDF783FF00214DF20C10FDF77EFF0B
:10374000A6214DF20D10FDF779FF00214DF20E106C
:10375000FDF774FFE5214DF20F10FDF76FFF01211A
:103760004DF21010FDF76AFF13214DF21110FDF715
:1037700065FF01214DF21210FDF760FF54214DF25B
:103780001310FDF75BFF01214DF21410FDF756FFFA
:1037900082214DF21510FDF751FF01214DF2161057
:1037A000FDF74CFFCA214DF21710FDF747FF02212C
:1037B0004DF21810FDF742FF00214DF21910FDF7F0
:1037C0003DFF02214DF21A10FDF738FF01214DF2A5
:1037D0001B10FDF733FF02214DF21C10FDF72EFFE9
:1037E00034214DF21D10FDF729FF02214DF21E106C
:1037F000FDF724FF67214DF21F10FDF71FFF022187
:103800004DF22010FDF71AFF84214DF22110FDF733
:1038100015FF02214DF22210FDF710FFA4214DF2F9
:103820002310FDF70BFF02214DF22410FDF706FFD8
:10383000B7214DF22510FDF701FF02214DF22610B0
:10384000FDF7FCFECF214DF22710FDF7F7FE022118
:103850004DF22810FDF7F2FEDE214DF22910FDF7A2
:10386000EDFE02214DF22A10FDF7E8FEF2214DF2A5
:103870002B10FDF7E3FE02214DF22C10FDF7DEFECA
:10388000FE214DF22D10FDF7D9FE03214DF22E1031
:10389000FDF7D4FE10214DF22F10FDF7CFFE0321CE
:1038A0004DF23010FDF7CAFE33214DF23110FDF715
:1038B000C5FE03214DF23210FDF7C0FE6D214DF221
:1038C0003310FDF7BBFE00214FF45240FDF7B6FE6A
:1038D00033214DF20120FDF7B1FE00214DF202200F
:1038E000FDF7ACFE34214DF20320FDF7A7FE0021C9
:1038F0004DF20420FDF7A2FE3A214DF20520FDF71E
:103900009DFE00214DF20620FDF798FE4A214DF262
:103910000720FDF793FE00214DF20820FDF78EFEF3
:103920005C214DF20920FDF789FE00214DF20A20AD
:10393000FDF784FE81214DF20B20FDF77FFE002173
:103940004DF20C20FDF77AFEA6214DF20D20FDF779
:1039500075FE00214DF20E20FDF770FEE5214DF2BF
:103960000F20FDF76BFE01214DF21020FDF766FEE2
:1039700013214DF21120FDF761FE01214DF21220BD
:10398000FDF75CFE54214DF21320FDF757FE012197
:103990004DF21420FDF752FE82214DF21520FDF765
:1039A0004DFE01214DF21620FDF748FECA214DF2D1
:1039B0001720FDF743FE02214DF21820FDF73EFED1
:1039C00000214DF21920FDF739FE02214DF21A2097
:1039D000FDF734FE01214DF21B20FDF72FFE0221E1
:1039E0004DF21C20FDF72AFE34214DF21D20FDF77B
:1039F00025FE02214DF21E20FDF720FE67214DF22B
:103A00001F20FDF71BFE02214DF22020FDF716FEC0
:103A100084214DF22120FDF711FE02214DF22220DA
:103A2000FDF70CFEA4214DF22320FDF707FE022135
:103A30004DF22420FDF702FEB7214DF22520FDF7BF
:103A4000FDFD02214DF22620FDF7F8FDCF214DF2BC
:103A50002720FDF7F3FD02214DF22820FDF7EEFDB2
:103A6000DE214DF22920FDF7E9FD02214DF22A2049
:103A7000FDF7E4FDF2214DF22B20FDF7DFFD0221E1
:103A80004DF22C20FDF7DAFDFE214DF22D20FDF741
:103A9000D5FD03214DF22E20FDF7D0FD10214DF272
:103AA0002F20FDF7CBFD03214DF23020FDF7C6FDA1
:103AB00033214DF23120FDF7C1FD03214DF23220BB
:103AC000FDF7BCFD6D214DF23320FDF7B7FD002160
:103AD0004FF45340FDF7B2FD33214DF20130FDF7B5
:103AE000ADFD00214DF20230FDF7A8FD34214DF26D
:103AF0000330FDF7A3FD00214DF20430FDF79EFDDC
:103B00003A214DF20530FDF799FD00214DF20630C6
:103B1000FDF794FD4A214DF20730FDF78FFD00219E
:103B20004DF20830FDF78AFD5C214DF20930FDF7BA
:103B300085FD00214DF20A30FDF780FD81214DF217
:103B40000B30FDF77BFD00214DF20C30FDF776FDCB
:103B5000A6214DF20D30FDF771FD00214DF20E3022
:103B6000FDF76CFDE5214DF20F30FDF767FD0121FA
:103B70004DF21030FDF762FD13214DF21130FDF7CB
:103B80005DFD01214DF21230FDF758FD54214DF23B
:103B90001330FDF753FD01214DF21430FDF74EFDBA
:103BA00082214DF21530FDF749FD01214DF216300D
:103BB000FDF744FDCA214DF21730FDF73FFD02210C
:103BC0004DF21830FDF73AFD00214DF21930FDF7A6
:103BD00035FD02214DF21A30FDF730FD01214DF285
:103BE0001B30FDF72BFD02214DF21C30FDF726FDA9
:103BF00034214DF21D30FDF721FD02214DF21E3022
:103C0000FDF71CFD67214DF21F30FDF717FD022166
:103C10004DF22030FDF712FD84214DF22130FDF7E9
:103C20000DFD02214DF22230FDF708FDA4214DF2D9
:103C30002330FDF703FD02214DF22430FDF7FEFC99
:103C4000B7214DF22530FDF7F9FC02214DF2263067
:103C5000FDF7F4FCCF214DF22730FDF7EFFC0221F8
:103C60004DF22830FDF7EAFCDE214DF22930FDF758
:103C7000E5FC02214DF22A30FDF7E0FCF2214DF285
:103C80002B30FDF7DBFC02214DF22C30FDF7D6FC8A
:103C9000FE214DF22D30FDF7D1FC03214DF22E30E7
:103CA000FDF7CCFC10214DF22F30FDF7C7FC0321AE
:103CB0004DF23030FDF7C2FC33214DF23130FDF7CB
:103CC000BDFC03214DF23230FDF7B8FC6D214DF201
:103CD0003330FDF7B3FC00214FF45440FDF7AEFC48
:103CE00033214DF20140FDF7A9FC00E084E30021FF
:103CF0004DF20240FDF7A2FC34214DF20340FDF7E6
:103D00009DFC00214DF20440FDF798FC3A214DF254
:103D10000540FDF793FC00214DF20640FDF78EFCB7
:103D20004A214DF20740FDF789FC00214DF2084081
:103D3000FDF784FC5C214DF20940FDF77FFC00217A
:103D40004DF20A40FDF77AFC81214DF20B40FDF760
:103D500075FC00214DF20C40FDF770FCA6214DF2E0
:103D60000D40FDF76BFC00214DF20E40FDF766FCA7
:103D7000E5214DF20F40FDF761FC01214DF21040AD
:103D8000FDF75CFC13214DF21140FDF757FC0121BA
:103D90004DF21240FDF752FC54214DF21340FDF755
:103DA0004DFC01214DF21440FDF748FC82214DF2FB
:103DB0001540FDF743FC01214DF21640FDF73EFC96
:103DC000CA214DF21740FDF739FC02214DF218408F
:103DD000FDF734FC00214DF21940FDF72FFC0221C4
:103DE0004DF21A40FDF72AFC01214DF21B4000E084
:103DF00003E3FDF723FC02214DF21C40FDF71EFCFE
:103E000034214DF21D40FDF719FC02214DF21E40F8
:103E1000FDF714FC67214DF21F40FDF70FFC022156
:103E20004DF22040FDF70AFC84214DF22140FDF7C0
:103E300005FC02214DF22240FDF700FCA4214DF2C9
:103E40002340FDF7FBFB02214DF22440FDF7F6FB7A
:103E5000B7214DF22540FDF7F1FB02214DF226403E
:103E6000FDF7ECFBCF214DF22740FDF7E7FB0221E8
:103E70004DF22840FDF7E2FBDE214DF22940FDF72F
:103E8000DDFB02214DF22A40FDF7D8FBF2214DF275
:103E90002B40FDF7D3FB02214DF22C40FDF7CEFB6A
:103EA000FE214DF22D40FDF7C9FB03214DF22E40BE
:103EB000FDF7C4FB10214DF22F40FDF7BFFB03219E
:103EC0004DF23040FDF7BAFB33214DF23140FDF7A2
:103ED000B5FB03214DF23240FDF7B0FB6D214DF2F1
:103EE0003340FDF7ABFB00214FF45540FDF7A6FB37
:103EF00033214DF20150FDF7A1FB00214DF202509C
:103F0000FDF79CFB34214DF20350FDF797FB002198
:103F10004DF20450FDF792FB3A214DF20550FDF7AA
:103F20008DFB00214DF20650FDF788FB4A214DF232
:103F30000750FDF783FB00214DF20850FDF77EFB93
:103F40005C214DF20950FDF779FB00214DF20A503A
:103F5000FDF774FB81214DF20B50FDF76FFB002143
:103F60004DF20C50FDF76AFBA6214DF20D50FDF706
:103F700065FB00214DF20E50FDF760FBE5214DF28F
:103F80000F50FDF75BFB01214DF21050FDF756FB82
:103F900013214DF21150FDF751FB01214DF212504A
:103FA000FDF74CFB54214DF21350FDF747FB012167
:103FB0004DF21450FDF742FB82214DF21550FDF7F2
:103FC0003DFB01214DF21650FDF738FBCA214DF2A1
:103FD0001750FDF733FB02214DF21850FDF72EFB71
:103FE00000214DF21950FDF729FB02214DF21A5024
:103FF000FDF724FB01214DF21B50FDF71FFB0221B1
:104000004DF21C50FDF71AFB34214DF21D50FDF707
:1040100015FB02214DF21E50FDF710FB67214DF2FA
:104020001F50FDF70BFB02214DF22050FDF706FB60
:1040300084214DF22150FDF701FB02214DF2225067
:10404000FDF7FCFAA4214DF22350FDF7F7FA022107
:104050004DF22450FDF7F2FAB7214DF22550FDF74D
:10406000EDFA02214DF22650FDF7E8FACF214DF28C
:104070002750FDF7E3FA02214DF22850FDF7DEFA52
:10408000DE214DF22950FDF7D9FA02214DF22A50D6
:10409000FDF7D4FAF2214DF22B50FDF7CFFA0221B1
:1040A0004DF22C50FDF7CAFAFE214DF22D50FDF7CE
:1040B000C5FA03214DF22E50FDF7C0FA10214DF242
:1040C0002F50FDF7BBFA03214DF23050FDF7B6FA41
:1040D00033214DF23150FDF7B1FA03214DF2325048
:1040E000FDF7ACFA6D214DF23350FDF7A7FA002130
:1040F0004FF45640FDF7A2FA33214DF20160FDF76F
:104100009DFA00214DF20260FDF798FA34214DF23C
:104110000360FDF793FA00214DF20460FDF78EFA7B
:104120003A214DF20560FDF789FA00214DF2066053
:10413000FDF784FA4A214DF20760FDF77FFA00216E
:104140004DF20860FDF77AFA5C214DF20960FDF747
:1041500075FA00214DF20A60FDF770FA81214DF2E7
:104160000B60FDF76BFA00214DF20C60FDF766FA6B
:10417000A6214DF20D60FDF761FA00214DF20E60AF
:10418000FDF75CFAE5214DF20F60FDF757FA0121CA
:104190004DF21060FDF752FA13214DF21160FDF758
:1041A0004DFA01214DF21260FDF748FA54214DF20B
:1041B0001360FDF743FA01214DF21460FDF73EFA5A
:1041C00082214DF21560FDF739FA01214DF216609A
:1041D000FDF734FACA214DF21760FDF72FFA0221DC
:1041E0004DF21860FDF72AFA00214DF21960FDF733
:1041F00025FA02214DF21A60FDF720FA01214DF255
:104200001B60FDF71BFA02214DF21C60FDF716FA48
:1042100034214DF21D60FDF711FA02214DF21E60AE
:10422000FDF70CFA67214DF21F60FDF707FA022136
:104230004DF22060FDF702FA84214DF22160FDF776
:10424000FDF902214DF22260FDF7F8F9A4214DF2AB
:104250002360FDF7F3F902214DF22460FDF7EEF93A
:10426000B7214DF22560FDF7E9F902214DF22660F4
:10427000FDF7E4F9CF214DF22760FDF7DFF90221C8
:104280004DF22860FDF7DAF9DE214DF22960FDF7E5
:10429000D5F902214DF22A60FDF7D0F9F2214DF255
:1042A0002B60FDF7CBF902214DF22C60FDF7C6F92A
:1042B000FE214DF22D60FDF7C1F903214DF22E6074
:1042C000FDF7BCF910214DF22F60FDF7B7F903217E
:1042D0004DF23060FDF7B2F933214DF23160FDF758
:1042E000ADF903214DF23260FDF7A8F96D214DF2D1
:1042F0003360FDF7A3F955214FF47040FDF79EF9A7
:10430000AA214FF20100FDF799F952214FF2020064
:10431000FDF794F908211846FDF790F90021584659
:10432000FDF78CF9CC214FF43140FDF787F90021DE
:104330004BF20110FDF782F905214FF43640FDF7ED
:104340007DF970214FF43740FDF778F970214BF279
:104350000170FDF773F901214FF43840FDF76EF954
:1043600003214BF60100FDF769F903214BF602002A
:10437000FDF764F903214BF60300FDF75FF9022115
:104380004FF43C40FDF75AF900214BF60140FDF790
:1043900055F900214BF60240FDF750F9D0214FF4BA
:1043A0004940FDF74BF902214CF60110FDF746F9A3
:1043B00050214CF60210FDF741F950214CF6031044
:1043C000FDF73CF950214CF60410FDF737F90021B8
:1043D0004FF45450FDF732F955214FF46850FDF772
:1043E0002DF94FF48850FDF713F97820FDF752FEB0
:1043F0004FF42450FDF70CF9B9E04045FCD1E22020
:10440000FDF706F91D20FDF7F7F80220FDF7F4F897
:104410000420FDF7F1F86420FDF73CFEE020FDF7F5
:10442000F7F80120FDF7E8F80A20FDF719FEE02073
:10443000FDF7EEF80320FDF7DFF80C20FDF710FE86
:104440000120FDF7E5F80A20FDF70AFEE620FDF75A
:10445000DFF82F20FDF7D0F8FF20FDF7CDF8FF2083
:10446000FDF7CAF8B020FDF7D3F82020FDF7C4F817
:104470000020FDF7C1F80320FDF7BEF840F21F3021
:10448000FDF7BAF80120FDF7B7F840F2DF10FDF7AD
:10449000B3F80020FDF7B0F8B420FDF7B9F8042018
:1044A000FDF7AAF840F21F40FDF7A6F80020FDF73F
:1044B000A3F82E20FDF7A0F80020FDF79DF80020BE
:1044C000FDF79AF80020FDF797F80020FDF794F823
:1044D000B620FDF79DF80220FDF78EF84FF403702B
:1044E000FDF78AF80020FDF787F81720FDF784F81C
:1044F0001520FDF781F80020FDF77EF80020FDF77C
:104500007BF8F020FDF784F80320FDF775F82920EB
:10451000FDF77EF8D020FDF77BF80020FDF76CF862
:10452000BE20FDF775F80520FDF766F8FE20FDF7C3
:1045300063F80120FDF760F80020FDF75DF800202A
:10454000FDF75AF80020FDF757F8B820FDF760F89E
:104550000320FDF751F80120FDF74EF8BA20FDF7D2
:1045600057F80120FDF748F86420FCF721FEA888E1
:10457000504507D0A04205D0B84203D0B04201D088
:1045800040451DD115490A6822F00F020A600A68E9
:1045900022F470620A600A6842F003020A60A1F520
:1045A0008E71A04206D1D1F81C0140F44070C1F8D0
:1045B0001C0105E0D1F81C0140F40070C1F81C0199
:1045C0000020FCF7F3FC0122D1030548FCF738F981
:1045D0004846BDE8F05FFCF7CFBC00001C0100A01E
:1045E00000040240FCF742F9FDF70CFCFDF7A8F9C6
:1045F000FDF782FAFDF732FAFDF75CF9FDF754FC9E
:10460000FDF7C2FCFCE70000000000000000010212
:104610000304060708093443101001344310100145
:10462000000000000000000000000000000000008A
:104630003F4000000000000000003000400030005B
:104640004000000009000BC03D000BC03D00090008
:1046500018C024407FE0224031800000180024C0B0
:104660001B000D803240018003801C4027401C80CD
:104670000740004010006000000000000000000043
:104680000000000000001F8020404020000040206B
:1046900020401F8000000000090006001F80060067
:1046A00009000000040004003F8004000400000032
:1046B0000010006000000000000000000400040082
:1046C000040004000400000000000040000000009E
:1046D00000000000002001C006003800400000007B
:1046E0001F802040204020401F800000000010401C
:1046F0003FC000400000000018C02140224024407C
:104700001840000010802040244024401B800000FE
:1047100002000D0011003FC0014000003C80244019
:1047200024402440238000001F8024402440344043
:10473000038000003000200027C038002000000067
:104740001B802440244024401B8000001C0022C009
:10475000224022401F8000000000000008400000AE
:1047600000000000000000000460000000000000E5
:10477000000004000A0011002080404009000900E8
:1047800009000900090000000000404020801100DD
:104790000A00040018002000234024001800000034
:1047A0001F802040274029401F400000004007C0D4
:1047B00039000F0001C0004020403FC02440244089
:1047C0001B8000001F8020402040204030800000DF
:1047D00020403FC0204020401F80000020403FC0BC
:1047E00024402E4030C0000020403FC024402E0016
:1047F000300000000F001080204022403380020073
:1048000020403FC0040004003FC020402040204022
:104810003FC02040204000000060202020203FC0FA
:104820002000200020403FC024400B0030C020402A
:1048300020403FC020400040004000C03FC03C003E
:1048400003C03C003FC0000020403FC00C4023009C
:104850003FC020001F802040204020401F800000DB
:1048600020403FC024402400180000001F80214049
:10487000214020E01FA0000020403FC0244026002F
:1048800019C0004018C0244024402240318000005C
:10489000300020403FC020403000000020003F801A
:1048A000004000403F80200020003E0001C0070083
:1048B00038002000380007C03C0007C03800000066
:1048C000204039C0060039C0204000002000384098
:1048D00007C0384020000000304021C0264038404A
:1048E00020C00000000000007FE0402040200000C9
:1048F000000070000C000380004000000000402019
:1049000040207FE000000000000020004000200068
:104910000000000000100010001000100010001037
:1049200000000000400000000000000000000280C5
:104930000540054003C0004020003FC00440044043
:104940000380000000000380044004400640000093
:1049500000000380044024403FC00040000003806A
:104960000540054003400000000004401FC02440F3
:1049700024402000000002E00550055006500420AD
:1049800020403FC00440040003C000400000044039
:1049900027C000400000000000100010041027E0B5
:1049A0000000000020403FC00140070004C0044058
:1049B000204020403FC000400040000007C00400ED
:1049C00007C0040003C00000044007C00440040006
:1049D00003C0004000000380044004400380000046
:1049E000041007F00450044003800000000003801E
:1049F0000440045007F00010044007C002400400C7
:104A000004000000000006400540054004C000000E
:104A1000000004001F8004400040000004000780E4
:104A20000040044007C000400400070004C00180AB
:104A300006000400060001C0070001C006000000D7
:104A4000044006C0010006C0044000000410071026
:104A500004E00180060004000000044005C0064098
:104A6000044000000000000004007BE04020000043
:104A7000000000000000FFF00000000000004020E7
:104A80007BE00400000000004000800040002000A7
:104A900020004000000000000000000000000000B6
:104AA000000000000000000000001FCC000C00000F
:104AB0000000000000000800300060000800300026
:104AC00060000000022003FC1E20022003FC1E20C8
:104AD0000220000000000E1811043FFF10840C7823
:104AE000000000000F0010840F3800C00778188401
:104AF0000078000000780F8410C411240E9800E4A0
:104B00000084000808006800700000000000000039
:104B10000000000000000000000007E0181820045A
:104B200040020000000040022004181807E00000C6
:104B3000000000000240024001800FF001800240AE
:104B4000024000000080008000800FF8008000809C
:104B5000008000000001000D000E000000000000B9
:104B600000000000000000800080008000800080C5
:104B7000008000800000000C000C0000000000001D
:104B80000000000000000006001800600180060020
:104B900018002000000007F008081004100408089E
:104BA00007F000000000080408041FFC00040004D3
:104BB0000000000000000E0C10141024104411849A
:104BC0000E0C000000000C181004110411041288CF
:104BD0000C700000000000E00320042408241FFCE7
:104BE0000024000000001F98108411041104108894
:104BF00010700000000007F00888110411041888E4
:104C00000070000000001C00100010FC13001C00CD
:104C10001000000000000E3811441084108411446C
:104C20000E38000000000700088C1044104408886B
:104C300007F00000000000000000030C030C00005F
:104C4000000000000000000000010106000000005C
:104C5000000000000000008001400220041008084D
:104C60001004000002200220022002200220022064
:104C70000220000000001004080804100220014077
:104C80000080000000000E001200100C106C10805C
:104C90000F00000003E00C1813E4142417C40828C4
:104CA00007D000000004003C03C41C40074000E49F
:104CB000001C000410041FFC1104110411040E88D0
:104CC0000070000003E00C18100410041004100819
:104CD0001C10000010041FFC10041004100408082D
:104CE00007F0000010041FFC1104110417C4100485
:104CF0000818000010041FFC1104110017C0100058
:104D00000800000003E00C181004100410441C7884
:104D10000040000010041FFC1084008000801084FC
:104D20001FFC10040000100410041FFC10041004E9
:104D30000000000000030001100110011FFE100020
:104D40001000000010041FFC110403801464181CE0
:104D50001004000010041FFC1004000400040004F0
:104D6000000C000010041FFC1F0000FC1F001FFCB3
:104D70001004000010041FFC0C04030000E01018D5
:104D80001FFC100007F008081004100410040808A5
:104D900007F0000010041FFC1084108010801080A9
:104DA0000F00000007F0081810241024101C080A37
:104DB00007F2000010041FFC1104110011C0113093
:104DC0000E0C000400000E1C11041084108410440A
:104DD0001C3800001800100010041FFC1004100004
:104DE0001800000010001FF8100400040004100454
:104DF0001FF8100010001E0011E0001C007013804E
:104E00001C0010001FC0103C00E01F0000E0103C20
:104E10001FC000001004180C163401C001C0163465
:104E2000180C100410001C00130400FC13041C00D8
:104E3000100000000804101C1064108413041C04EB
:104E4000101800000000000000007FFE4002400239
:104E500040020000000030000C0003800060001CD5
:104E60000003000000004002400240027FFE0000FC
:104E70000000000000000000200040004000400052
:104E800020000000000100010001000100010001FC
:104E90000001000100004000400020000000000070
:104EA0000000000000000098012401440144014476
:104EB00000FC000410001FFC0088010401040088AD
:104EC000007000000000007000880104010401046B
:104ED000008800000000007000880104010411082F
:104EE0001FFC0004000000F8014401440144014497
:104EF00000C800000000010401040FFC11041104AB
:104F000011001800000000D601290129012901C95A
:104F10000106000010041FFC0084010001000104D0
:104F200000FC000400000104190419FC0004000442
:104F3000000000000000000300010101190119FE3A
:104F40000000000010041FFC0024004001B4010C0C
:104F5000010400000000100410041FFC0004000401
:104F600000000000010401FC0104010001FC010437
:104F7000010000FC010401FC0084010001000104A7
:104F800000FC0004000000F8010401040104010415
:104F900000F80000010101FF008501040104008800
:104FA0000070000000000070008801040104010589
:104FB00001FF00010104010401FC0084010401005F
:104FC00001800000000000CC012401240124012400
:104FD0000198000000000100010007F8010401042D
:104FE00000000000010001F80004000400040108B2
:104FF00001FC0004010001800170000C0010016040
:105000000180010001F0010C003001C00030010CF2
:1050100001F0010000000104018C00740170018C9A
:1050200001040000010101810171000E00180160FE
:105030000180010000000184010C0134014401845D
:10504000010C0000000000000000000001003EFC18
:10505000400240020000000000000000FFFF0000CE
:10506000000000000000400240023EFC0100000081
:105070000000000000006000800080004000400050
:1050800020002000000000000000000000000000E0
:105090000000000000000000000000000000000010
:1050A0000000000000000000000000000000000000
:1050B000000000000000000F80380FFE380F80381D
:1050C00000000000000000000000000000000000E0
:1050D00000000100000600000C0000380000310054
:1050E000000600000C000038000030000000000046
:1050F0000000000061800067F807F980006180000F
:1051000061800061800061800067F807F9800061BC
:105110008000000000000000000001C0E003E0F09B
:105120000630080418081FFFFE040E080787F00366
:1051300081E000000000000001F000060C00040403
:1051400008060C7001F9C0000E00003BE000EC18EE
:10515000070808040C180003E00000000001E0004C
:1051600007F003F818041C0804170807E1D003C06F
:10517000E00023B0003C0800200800001000000000
:105180000000000100003100003200001C0000009F
:10519000000000000000000000000000000000000F
:1051A00000000000000000000000000000000000FF
:1051B000000000007F0001FFC00780F00C00181005
:1051C0000004200002000000000000200002100087
:1051D000040C00180780F001FFC0007F00000000F1
:1051E00000000000000000000000000000000000BF
:1051F0004200006600006600003C0000180003FF4B
:10520000C0001800003C000066000066000042007C
:10521000000000000800000800000800000800006E
:10522000080001FFC0000800000800000800000896
:105230000000080000000000000100003100003202
:1052400000001C0000000000000000000000000042
:10525000000000000000000000000000080000083E
:105260000000080000080000080000080000080016
:105270000008000008000008000000000000000016
:105280000000000038000038000038000000000076
:10529000000000000000000000000000000000000E
:1052A00000000000000600001C00007000018000EB
:1052B0000E0000380000C0000700001C0000300095
:1052C00000000000000000007F8001FFE00380700C
:1052D0000600180400080400080600180380700186
:1052E000FFE0007F800000000000000000000100DF
:1052F0000801000801000803FFF807FFF800000894
:10530000000008000008000000000000000000018C
:10531000C03802C05804009804011804021804049C
:1053200018061C1803F81801E0F80000000000003F
:1053300000000001C0E003C0F004000804080804F5
:10534000080806180803F41801E7F00001E000005F
:1053500000000000000000000300000D000011002C
:1053600000610000810803010807FFF80FFFF80043
:1053700001080001080000000000000000E007FC38
:10538000D006080806100806100806100806183887
:10539000060FF00607C0000000000000000000003B
:1053A0003F8001FFE0038430020818041008041055
:1053B00008041008071810030FF00007C0000000D1
:1053C00000000000000003C0000700000600000607
:1053D00000F80607F806180006E0000700000600BF
:1053E0000000000000000001E1E003F7F0063410C7
:1053F000041808041808040C08040C0806161803FE
:10540000F3F001C1E000000000000000F80003FC20
:1054100030030638040208040208040208040410D9
:105420000308F001FFC0007F000000000000000042
:105430000000000000000000000000007038007054
:10544000380070380000000000000000000000007C
:10545000000000000000000000000000000000004C
:10546000301A00301C0000000000000000000000A6
:105470000000000000000000000000080000140010
:105480000022000041000080800100400200200452
:1054900000100800080000000000000021000021AA
:1054A0000000210000210000210000210000210057
:1054B0000021000021000021000000000000000089
:1054C00000000800080400100200200100400080D5
:1054D00080004100002200001400000800000000CD
:1054E00000000003C00004C00004000008003808E9
:1054F0000F380808380810000C300007E00003C01F
:1055000000000000000000003F8000FFE00380700A
:10551000020F1006708804C088048308047F880284
:10552000C09003012000FE400000080000180001A8
:10553000F8003E0801C20007020007E20000FE007A
:10554000001FC80001F80000380000080400080728
:10555000FFF807FFF804080804080804080804080E
:105560000806180803F41801E7F00001E000000045
:10557000000000003F8001FFE0038070020018047B
:10558000000804000804000804001006002007803A
:10559000C000000004000807FFF807FFF804000837
:1055A00004000804000804001802001003807001C1
:1055B000FFE0007F8000000004000807FFF807FFFD
:1055C000F8040808040808040808040808043E0849
:1055D000040008060018010060000000040008072D
:1055E000FFF807FFF804080804080004080004088E
:1055F00000043E00060000060000018000000000DC
:10560000000000003F8001FFE003807006001804E6
:1056100000080402080402080203F00783F00002F5
:105620000000020004000807FFF807FFF80408085C
:10563000000800000800000800000800040808072F
:10564000FFF807FFF8040008000000000000040055
:105650000804000804000807FFF807FFF804000822
:105660000400080400080000000000000000000022
:10567000000600000700000104000104000104000E
:105680000307FFFE07FFFC04000004000004000005
:1056900004000807FFF807FFF8040C0800180000D2
:1056A0003E0004C7800503C80600F8040038040063
:1056B0001800000804000807FFF807FFF8040008B6
:1056C00000000800000800000800000800000800B2
:1056D000001800006000000004000807FFF80780C1
:1056E0000807FC00007FC00003F80007C000780036
:1056F00007800807FFF807FFF80400080400080700
:10570000FFF807000803C00000E000003800001E9A
:10571000000007000001C00400F007FFF8040000CB
:10572000000000007F8001FFE00380700600180485
:10573000000804000806001803003001FFE0007FA5
:105740008000000004000807FFF807FFF8040408C1
:10575000040400040400040400040400060C000314
:10576000F80001F000000000000000007F8001FF51
:10577000E00380700600880400880400C806003C2E
:1057800003003E01FFE6007F8400000004000807DC
:10579000FFF807FFF8040808040800040C00040FD1
:1057A00000040BC00610F003F03801E00800000808
:1057B00000000001E0F803F030063010041808047F
:1057C0001808040C08040C080206180207F00781E8
:1057D000E00000000180000600000400000400005A
:1057E00004000807FFF807FFF8040008040000049D
:1057F000000006000001800004000007FFE007FF32
:10580000F00400180000080000080000080000086C
:1058100000000804001007FFE00400000400000678
:10582000000007E00007FE00041FE00001F8000090
:10583000380001E0043E0007C0000600000400003C
:1058400004000007E00007FFC0041FF80007C007BE
:10585000F80007FF80043FF80007C004F8000700C5
:105860000004000000000004000806001807C078CB
:1058700005F1C8003E00001F800463E80780F806B9
:105880000018040008000000040000060000078063
:105890000007E008047C08001FF80007F80018085B
:1058A00004E00807000006000004000000000001FA
:1058B00000080600380400F80403E8040F08047C1C
:1058C0000805F00807C00807001804006000000081
:1058D0000000000000000000000000000000003F89
:1058E000FFFE200002200002200002200002200013
:1058F0000200000000000000000008000007000097
:1059000000C0000038000006000001C000003000A8
:10591000000E000001000000000000000000200058
:10592000022000022000022000022000023FFFFEB1
:105930000000000000000000000000000000000067
:1059400000000000000800001000003000002000EF
:1059500000300000100000080000000000000000FF
:105960000000010000010000010000010000010032
:105970000001000001000001000001000001000022
:1059800001000001000000000000000000200000F5
:1059900020000010000010000000000000000000C7
:1059A00000000000000000000000000000F00019EE
:1059B000F8001B1800220800260800240800241004
:1059C000003FF8001FF80000080000180000000465
:1059D000000007FFF80FFFF0001818001008002063
:1059E00008002008003018001FF0000FC000000061
:1059F0000000000007C0001FF00018300020080061
:105A00002008002008003C08001C10000060000076
:105A1000000000000000000007C0001FF000381860
:105A200000200800200800200804101007FFF80FCD
:105A3000FFF0000010000000000000000000000760
:105A4000C0001FF0001230002218002208002208B7
:105A5000003208001E10000E2000000000000000B0
:105A6000200000200800200801FFF803FFF80620AE
:105A7000080420080420080720000300000000009C
:105A800000000000000E000E6E001FF30031B10098
:105A900020B10020B1003191001F13002E1E002004
:105AA0000E00300000000004000807FFF80FFFF8A8
:105AB000001008002000002000002008003FF8002F
:105AC0001FF8000008000000000000000000002097
:105AD00008002008002008063FF8063FF8000008EC
