:020000040801F1
:1000000000050020A1010108D12401083B190108C5
:10001000CD240108C50401087D2901080000000065
:100020000000000000000000000000007F25010823
:10003000C904010800000000D52401088125010839
:10004000BB010108BB010108BB010108BB0101089C
:10005000BB010108BB010108BB010108BB0101088C
:10006000BB010108BB010108BB010108BB0101087C
:10007000BB010108BB010108BB010108BB0101086C
:10008000BB010108BB010108BB010108BB0101085C
:10009000BB010108BB010108BB010108BB0101084C
:1000A000BB010108BB010108BB010108BB0101083C
:1000B000BB010108BB010108BB010108BB0101082C
:1000C000BB010108BB010108BB010108BB0101081C
:1000D000BB01010875290108BB010108BB0101082A
:1000E000BB010108BB010108BB010108BB010108FC
:1000F000BB010108BB010108BB010108BB010108EC
:10010000BB010108BB010108BB010108BB010108DB
:10011000BB010108BB010108BB010108BB010108CB
:10012000BB010108BB010108BB010108BB010108BB
:10013000BB010108BB010108BB010108BB010108AB
:10014000BB010108BB010108BB010108BB0101089B
:10015000BB010108BB010108BB010108BB0101088B
:10016000BB010108BB010108BB010108BB0101087B
:10017000BB010108BB010108BB0101080000000030
:10018000BB010108BB010108DFF810D000F088F9BD
:10019000004800470D540108AFF30080000500201F
:1001A0000648804706480047FEE7FEE7FEE7FEE711
:1001B000FEE7FEE7FEE7FEE7FEE7FEE73D26010875
:1001C000890101082DE9F05F0546002092469B4613
:1001D00088460646814640241BE02846414647465D
:1001E000224600F0EFF853465A46C01A914110D308
:1001F00011461846224600F0D6F82D1A67EB010882
:100200004F4622460120002100F0CDF817EB0009EF
:100210004E41201EA4F10104DFDC484631462A4647
:100220004346BDE8F09FD2B201E000F8012B491E21
:10023000FBD270470022F6E710B513460A46044683
:100240001946FFF7F0FF204610BD2DE9FE4F81EA69
:10025000030404F0004421F0004100944FF0000B2F
:1002600023F0004350EA01045ED052EA03045BD05D
:10027000C3F30A54C1F30A552C44A4F2F334019495
:10028000A0FB0254C1F3130141F48011C3F3130323
:1002900043F4801301FB024400FB034E840A970AD7
:1002A00044EA815447EA8357A4FB076802958D0A04
:1002B00005FB07854FEA932C04FB0C542705029D90
:1002C0004FEA065847EA1637B5EB08056EEB070C00
:1002D000870E920E47EA811742EA8312A7FB0201BA
:1002E000B6EB0B0164EB00042B0D43EA0C335E18F4
:1002F00044EB1C50DA465146E7FB0201C5F31304F8
:100300004FEA0B3343EA14534FEA0432019C43EAA9
:100310000603A4F10C040294009CCDE900B400F0A3
:1003200070F803B0BDE8F08F00200146F9E70EB584
:1003300040F2334102910021CDE900110A460B46FB
:1003400000F05FF803B000BDC1F30A5210B5C1F36D
:10035000130140F2FF3341F480119A4201DA002088
:1003600010BD40F233439A42A2F2334203DC5242C0
:1003700000F028F810BD904010BD30B50B46014686
:1003800000202022012409E021FA02F59D4205D334
:1003900003FA02F5491B04FA02F52844151EA2F1DE
:1003A0000102F1DC30BD202A04DB203A00FA02F120
:1003B000002070479140C2F1200320FA03F3194353
:1003C00090407047202A04DB203A21FA02F00021F5
:1003D000704721FA02F3D040C2F120029140084355
:1003E0001946704710B5141E73F1000408DA401C5A
:1003F00041F1000192185B411A4301D120F0010044
:1004000010BD2DE9F04D92469B4611B1B1FA81F233
:1004100002E0B0FA80F220329046FFF7C4FF0446B3
:100420000F4640EA0A0041EA0B0153465A46084388
:1004300013D0114653EA010019D0C8F140025046CA
:10044000FFF7C0FF05460E46504659464246FFF7A5
:10045000AAFF084305D0012004E020463946BDE844
:10046000F08D0020054346EAE0762C4337430A9896
:100470006305E40AA0EB08000022FD0A44EA4754A1
:100480000A3002D500200146E9E70105101969414B
:10049000DDE9084500196941BDE8F04DA2E700001B
:1004A000064C074D06E0E06840F0010394E80700C1
:1004B00098471034AC42F6D3FFF76AFE209E01083D
:1004C000409E010800BFFEE7704772B600BFFEE71E
:1004D00070B50446B3F5804F13D1D1E9000540EA69
:1004E00005108D6840EA05208D6928438D8940EA12
:1004F000054054F82250064E3540284344F8220067
:1005000003E06FF0704044F82200002070BD00004E
:100510000000F0CF70B50246086852F8200020F0C5
:1005200001000E6842F826008868082801D140239F
:1005300000E00023486818438E683043CE6830439B
:100540000E6930434E693043CE6930430E6A304302
:100550004E6A30438E6A3043CE6A30430E6B40EAB7
:10056000060488690443C86B0443074D45F480655D
:1005700045F4E025086852F82000A84320430E689F
:1005800042F82600002070BD7FFB080010B503462E
:10059000D1E9000440EA04108C6840EA04208C8908
:1005A00040EA0444088A401E44EA0054087D801E44
:1005B00044EA00608C692043541C53F8244004F042
:1005C00040442043541C43F82400002010BD000088
:1005D00000B587B0142102A8FFF72CFE2A48006856
:1005E00008B107B000BD01202749086000BF002006
:1005F00001902648006840F0010024490860084640
:10060000006800F00100019000BF00BF8814029054
:100610000220039000200490032005900C200690F7
:1006200002A91B4800F03CF84FF6807002900220AF
:10063000039000200490032005900C20069002A94E
:10064000144800F02DF84CF2337002900220039011
:1006500000200490032005900C20069002A90E486B
:1006600000F01EF84FF4805002900220039000200A
:100670000490032005900C20069002A9074800F082
:100680000FF800BFADE7000000000020383802403E
:100690000014024000100240000C0240001802400A
:1006A000F8B502460B460025002400200021D6E0C4
:1006B000012606FA01F51E6806EA0504AC4274D16B
:1006C0001E7906F00306012E04D01E7906F00306FB
:1006D000022E13D190684F000326BE40B0434F0056
:1006E000DE68BE4030439060506801268E40B043C3
:1006F0001E79C6F300168E40304350601E7906F016
:100700000306032E09D0D0684F000326BE40B04335
:100710004F009E68BE403043D0601E7906F003064D
:10072000022E13D1CF0802F1200656F827004E07FB
:10073000F70E0F26BE40B0434F07FF0E1E69BE40A6
:100740003043CF0802F1200646F8270010684F001A
:100750000326BE40B0431E7906F003064F00BE409C
:10076000304310605E6806F44036002E76D000BF3D
:10077000002600963C4E366846F480463A4F3E606E
:100780003E46366806F48046009600BF00BF374EEE
:100790008F0856F827008E07370F0F26BE40B0434C
:1007A000334EB24202D1002624E057E0314EB2422D
:1007B00001D101261EE0304EB24201D1022619E0DD
:1007C0002E4EB24201D1032614E02D4EB24201D189
:1007D00004260FE02B4EB24201D105260AE02A4E34
:1007E000B24201D1062605E0284EB24201D10726C9
:1007F00000E008268F073F0FBE4030431B4E8F0896
:1008000046F82700224E3068A0435E6806F4801642
:1008100006B120431E4E3060361D3068A0435E682E
:1008200006F4001606B12043194E361D3060184EEE
:10083000361F3068A0435E6806F4003606B12043D8
:10084000134E361F3060361F3068A0435E6806F4D2
:10085000803606B120430E4E083E3060491C1029F8
:10086000FFF426AFF8BD00004438024008380140CC
:10087000000002400004024000080240000C024058
:10088000001002400014024000180240001C024008
:10089000083C0140024613690B400BB1012000E007
:1008A0000020704710B5426921EA020302EA010400
:1008B00043EA0443836110BD0AB1816101E00B0486
:1008C00083617047014800687047000008000020FD
:1008D00010B50D48006840F400700B4908600846E8
:1008E000006840F4806008600846006840F480704A
:1008F0000860032000F0A6F80F2000F007F800F0D1
:100900002BF8002010BD0000003C024070B50446EA
:100910000E4800784FF47A71B1FBF0F00C49096889
:10092000B1FBF0F5284600F005FF08B1012070BDCD
:10093000102C07D200222146501E00F045F8054831
:10094000046001E00120F2E70020F0E71000002041
:10095000140000200C00002008B500BF002000900B
:100960000E48006840F480400C4908600846006862
:1009700000F48040009000BF00BF00BF0020009046
:10098000081F006840F08050091F08600846006892
:1009900000F08050009000BF00BF08BD4438024006
:1009A0000146084600280DDB00BF00BF00F01F0312
:1009B00001229A4043099B0003F1E023C3F8002180
:1009C00000BF00BF00BF70472DE9F05F80460D46B5
:1009D0001646002701F0E8FF074639462A46334607
:1009E00001F00700C0F1070ABAF1040F02D94FF075
:1009F000040A01E0C0F1070AD14600F1040ABAF185
:100A0000070F02D24FF0000A01E0A0F1030AD4461A
:100A10004FF0010A0AFA09FAAAF1010A0AEA020ADF
:100A20000AFA0CFA4FF0010B0BFA0CFBABF1010BBD
:100A30000BEA030B4AEA0B042146404601F0BCFFD7
:100A4000BDE8F09F00BF00F00702064B19684FF6A3
:100A5000FF031940044B0B4343EA0221014B196089
:100A600000BF70470CED00E00000FA05F8B5044641
:100A700000250026207800F0010020B9207800F041
:100A8000040004282FD100205B498866FFF71AFF75
:100A9000054606E0FFF716FF401B022801D9032098
:100AA000F8BD56480068C0F3C0600028F2D1606805
:100AB0008101207A41EA00705049843108600120A8
:100AC0004D498866FFF7FEFE054606E0FFF7FAFE91
:100AD000401B022801D90320E2E748480068C0F320
:100AE000C0600028F2D0207800F0020002287DD1FA
:100AF00000BF0020009041484030006840F0805026
:100B00003E49403108600846006800F0805000907F
:100B100000BF00BF3A48006840F480703849086060
:100B2000FFF7D0FE054606E0FFF7CCFE401B02288B
:100B300001D90320B4E73248006800F4807000282F
:100B4000F2D02E487030006800F440764EB3A08991
:100B500000F44070B04224D028487030006820F47F
:100B60004076012027490860002008602348703043
:100B70000660006800F0010098B1FFF7A3FE05468B
:100B800008E0FFF79FFE401B41F28831884201D9FF
:100B9000032085E7194870300068C0F34000002842
:100BA000EFD000BFA08900F44070B0F5407F0CD1B9
:100BB00012480830006820F4F810134AE168114028
:100BC00008430E490831086007E00C480830006807
:100BD00020F4F810094908310860084870300068AE
:100BE000A189C1F30B010843044900E002E0703120
:100BF000086000BF002053E7000047420038024071
:100C000000700040400E4742FFFCFF0F70B50446E5
:100C10000D460CB9012070BD5848006800F007006F
:100C2000A84209D255490D700846006800F0070037
:100C3000A84201D00120EEE7207800F0020002284F
:100C40001DD1207800F00400042805D14C4800682C
:100C500040F4E0504A490860207800F00800082875
:100C600005D14748006840F4604045490860444861
:100C7000006820F0F000A16808434149086020782E
:100C800000F00100A8B36068012807D13C4808388B
:100C90000068C0F34040B8B90120BCE76068022892
:100CA00002D06068032807D1354808380068C0F3CF
:100CB000406048B90120AEE7314808380068C0F309
:100CC000400008B90120A6E72D48006820F0030085
:100CD000616808432A490860FFF7F4FD064609E009
:100CE000FFF7F0FD801B41F28831884202D90320D2
:100CF00091E707E02248006800F00C006168B0EB63
:100D0000810FEDD11D48006800F00700A84209D905
:100D10001A490D700846006800F00700A84201D08B
:100D2000012078E7207800F00400042807D1144857
:100D3000006820F4E050E168084311490860207819
:100D400000F00800082808D10D48006820F4604031
:100D5000216940EAC1000A49086000F03FF80849EB
:100D60000968C1F30311074A515CC840064908608D
:100D700006480068FFF7CAFD00204CE7003C02402F
:100D800008380240C8560108140000200C0000205A
:100D900001480068704700001400002000B5FFF70C
:100DA000F7FF04490968C1F38221034A515CC84036
:100DB00000BD000008380240D856010800B5FFF712
:100DC000E7FF04490968C1F34231034A515CC84056
:100DD00000BD000008380240D85601082DE9F04750
:100DE000002400250026A1462548006800F00C00DC
:100DF00020B1042805D008283AD105E0DFF8849016
:100E000039E0DFF8849036E01D48001F006800F0EC
:100E10003F041B48001F006800F4800078B11A48A6
:100E20001749091F0968C1F38811A0FB0170014629
:100E3000224600233846FFF7C5F905460EE0114863
:100E40000F49091F0968C1F38811A0FB0170014611
:100E5000224600233846FFF7B5F905460848001F2B
:100E60000068C0F30140401C4600B5FBF6F902E003
:100E7000DFF8109000BF00BF4846BDE8F0870000D3
:100E8000083802400024F40000127A00F8B5044645
:100E90000CB90120F8BD207800F00100002874D0C2
:100EA000F948006800F00C0004280DD0F6480068EE
:100EB00000F00C00082813D1F348001F006800F46C
:100EC0008000B0F5800F0BD1EF4808380068C0F300
:100ED0004040002859D06068002856D10120D9E749
:100EE00000BF6068B0F5803F08D1E7480838006867
:100EF00040F48030E449083908601EE06068B0F5CD
:100F0000A02F0DD1E0480838006840F48020DE4969
:100F1000083908600846006840F4803008600CE03A
:100F2000D9480838006820F48030D749083908606B
:100F30000846006820F48020086000BF606890B117
:100F4000FFF7C0FC054606E0FFF7BCFC401B642829
:100F500001D903209EE7CC4808380068C0F3404020
:100F60000028F1D011E0FFF7ADFC054606E0FFF7E1
:100F7000A9FC401B642801D903208BE7C24808382C
:100F80000068C0F340400028F1D1207800F0020052
:100F900002285FD1BC48006800F00C0058B1BA4884
:100FA000006800F00C0008281CD1B748001F00683A
:100FB00000F48000B0B9B44808380068C0F34000BD
:100FC00020B1E068012801D0012063E7AE4808386D
:100FD000006820F0F800216940EAC100AA490839F8
:100FE000086037E0E06800B30120A8490860FFF717
:100FF00069FC054606E0FFF765FC401B022801D9A5
:10100000032047E7A04808380068C0F340000028E4
:10101000F1D09D480838006820F0F800216940EAC6
:10102000C10099490839086014E000209749086018
:10103000FFF748FC054606E0FFF744FC401B02288A
:1010400001D9032026E7904808380068C0F3400023
:101050000028F1D1207800F0080008282CD1606920
:10106000A8B101208A490860FFF72CFC054606E07C
:10107000FFF728FC401B022801D903200AE7824819
:101080006C300068C0F340000028F1D014E000206C
:101090007F490860FFF716FC054606E0FFF712FCE3
:1010A000401B022801D90320F4E677486C30006821
:1010B000C0F340000028F1D1207800F0040004289B
:1010C00070D1002770483830006800F0805090B927
:1010D00000BF002000906C483830006840F080501D
:1010E0006949383108600846006800F08050009077
:1010F00000BF00BF01276748006800F48070B0B9E6
:101100006448006840F4807062490860FFF7DAFBC9
:10111000054606E0FFF7D6FB401B022801D9032055
:10112000B8E65C48006800F480700028F2D000BF88
:10113000A068012808D154486830006840F00100D8
:101140005149683108601DE0A06805280DD14E485E
:101150006830006840F004004B4968310860084678
:10116000006840F0010008600CE047486830006803
:1011700020F001004449683108600846006820F00A
:101180000400086000BFA068A8B1FFF79BFB0546FC
:1011900009E0FFF797FB401B41F28831884202D9F2
:1011A000032077E626E0384868300068C0F3400046
:1011B0000028EED013E0FFF785FB054608E0FFF7B7
:1011C00081FB401B41F28831884201D9032061E64E
:1011D0002D4868300068C0F340000028EFD1012F8F
:1011E00007D129483830006820F08050264938312E
:1011F000086000BFA069002845D02348006800F0BF
:101200000C0008285DD0A069022845D100201F49A4
:101210000866FFF757FB054606E0FFF753FB401B48
:10122000022801D9032035E6174808380068C0F3C2
:1012300040600028F1D1D4E907010843616A40EA1F
:1012400081110122A06AC2EB500041EA00412C202A
:10125000005D41EA00600C49091F086001200B494C
:101260000866FFF72FFB054606E0FFF72BFB401B48
:10127000022801D903200DE6034808380068C0F3AE
:1012800040600028F1D049E00838024000004742A1
:10129000800E474200700040002021490866FFF799
:1012A00011FB054606E0FFF70DFB401B022801D9A4
:1012B0000320EFE51B480068C0F340600028F2D12E
:1012C0002CE0A069012800D1E4E51648001D06685D
:1012D000A069012820D006F48001E06981421BD179
:1012E00006F03F01206A814216D147F6C0703040B7
:1012F000616AB0EB811F0FD106F440310122A06A70
:10130000C2EB5000B1EB004F06D106F070612C200B
:10131000005DB1EB006F01D00120BBE50020B9E515
:10132000000047420038024070B505460B4616469D
:101330000024286840680E4900EA0104200CD87097
:10134000C4F30420587004F03F009870C4F3423096
:1013500018705EB9D87801F0BEF8D870587801F0EE
:10136000BAF85870987801F0B6F89870002070BDFF
:101370003FFFFF0070B504460B4616460025206867
:10138000806A586020680069C0F30E009860206889
:1013900000680E4900EA0105C5F305401870C5F361
:1013A0000620587005F07F009870A80DD8705EB9BF
:1013B000187801F090F81870587801F08CF858708F
:1013C000987801F088F89870002070BD7F7F7F00CA
:1013D00070B5044601250CB9012070BD607F20B9AD
:1013E00000202077204600F04DF80220607720682A
:1013F000C068C0F3001000283CD100BFCA2021689B
:10140000486253202168486200BF204601F07BF803
:101410000546EDB920688068194908402168886050
:101420002169606808436169084321688968084345
:10143000216888602168E068086120680169208966
:1014400041EA004021680861204601F081F8054624
:101450005DB92068006C20F4802021680864206851
:10146000006CA16908432168086400BFFF2021685F
:10147000486200E000250DB9012060772846ACE7FE
:10148000BFFF8FFF1FB5044600200090019002901F
:1014900003900949206888420CD102200090C001C5
:1014A00003906846FFF7E2FA08B1FFF70EF8012053
:1014B000024908601FBD0000002800403C0E474262
:1014C0002DE9F04105460C4617464FF0000800BFD5
:1014D000287F012802D10220BDE8F0810120287771
:1014E00000BF022068774FB9607800F01000102824
:1014F00004D1607800F0EF000A30607087B9E078BE
:1015000000F0F4FF0304607800F0F0FF43EA0023EA
:10151000A07800F0EBFF0343207843EA403809E06D
:10152000E0780004617840EA0120A178084321783E
:1015300040EA413800BFCA20296848625320296820
:10154000486200BF284600F0DEFF064646B90B4859
:1015500008EA000029684860284600F0F9FF0646BE
:101560000EB90120687700BFFF202968486200BFDC
:1015700000BF0020287700BF3046ADE73FFFFF00E7
:101580002DE9F04104460D4617464FF0000800BF14
:10159000207F012802D10220BDE8F08101202077C0
:1015A00000BF02206077CFB92068806800F040005B
:1015B00000B102E00020E87000BF287800F096FF3C
:1015C0000304687800F092FF43EA0023A87800F053
:1015D0008DFF0343E87843EA805812E02068806872
:1015E00000F0400000B102E00020E87000BF287861
:1015F0000004697840EA0120A9780843E97840EAC4
:10160000815800BFCA20216848625320216848627F
:1016100000BF204600F077FF0646B6B9124808EA38
:101620000000216808602068806820F4802021681C
:101630008860D5E903010843216889680843216867
:101640008860204600F084FF06460EB901206077CE
:1016500000BFFF202168486200BF00BF0020207744
:1016600000BF304698E700007F7F7F0070B50446DA
:1016700000250B482168C860FFF724F9054607E0FC
:10168000FFF720F9401BB0F57A7F01D9032070BD28
:101690002068C06800F020000028F1D00020F6E7A4
:1016A0005F7F010070B504460E4615460CB9012057
:1016B00070BD94F8490028B9002084F848002046FD
:1016C00000F01FF804F108012068FEF723FF3146FF
:1016D000A2682068FEF75AFF2946236BD4E901026D
:1016E000FEF7F6FEA168206850F8210040F00100E6
:1016F000A268216841F82200012084F849000020F6
:10170000D6E710B50446FEF763FF10BD042808D1E4
:101710004FF0E021096941F004014FF0E02211612E
:1017200007E04FF0E021096921F004014FF0E022C9
:101730001161704770B504462546681EB0F1807F80
:1017400001D301200FE0681E4FF0E02148610F2116
:101750004FF0FF3001F030F900204FF0E0218861B8
:1017600007200861002070BD10B504460CB90120A7
:1017700010BDA06900B100E000BF94F8410028B995
:10178000002084F84000204600F02AF8242084F845
:1017900041002068C06820F400502168C8602046DD
:1017A00000F08CFF2068006920F4904021680861F7
:1017B0002068406920F02A00216848612068C068DC
:1017C00040F400502168C86000206064202084F844
:1017D000410084F842000020606300BFC8E70000B9
:1017E00010B586B00446142101A8FEF723FD1F4959
:1017F0002068884238D100BF002000901C48006853
:1018000040F010001A4908600846006800F0100017
:10181000009000BF00BF00BF0020009014481438A3
:10182000006840F001001249143908600846006859
:1018300000F00100009000BF00BF4FF4C0600190B5
:1018400002200290002003900320049007200590BE
:1018500001A90848FEF724FF002201212520FFF7F7
:10186000B3F82520FFF79CF806B010BD001001402A
:1018700044380240000002402DE9F84F04460E466D
:10188000174699464FF0000A94F84200202852D19A
:1018900006B117B90120BDE8F88F0020606422204E
:1018A00084F8420000202063FFF70CF88246A785E9
:1018B000E785A068B0F5805F04D1206910B90025E4
:1018C000B04602E035464FF000082CE053460022B7
:1018D00020212046CDF8009001F006F820B120200C
:1018E00084F842000320D6E745B920684068C0F379
:1018F0000800A8F8000008F1020811E0A068B0F59F
:10190000805F03D0A06828B9206918B920684068B2
:10191000287004E02068406800F07F0028706D1C8B
:10192000E08D401EE085E08D0028CFD1202084F896
:1019300042000020AFE70220ADE700BFFEE7000055
:1019400010B50446012C01D12349087022480078C3
:1019500058B310212148FEF79DFF50B108211F48C0
:10196000FEF798FF28B101211D48FEF793FF0128DB
:101970001BD10A2003F03AFD0020174908701021FE
:101980001648FEF787FF08B9012010BD082113484B
:10199000FEF780FF08B90220F7E701211048FEF7A3
:1019A00079FF012815D10320EFE710210B48FEF73E
:1019B00071FF01280DD108210848FEF76BFF0128AF
:1019C00007D101210648FEF765FF10B90120024941
:1019D00008700020D9E70000180000200010024025
:1019E0000000024070B5044600260948058840887A
:1019F00045430021084600F075FA00F0EDFB00BFFA
:101A000002E004490C80761CAE42FAD370BD00009F
:101A1000EC0000208000006C10B504464948847139
:101A2000002C45D1F020474908804FF4A070488031
:101A30000846808845F21051884210D14FF430504A
:101A4000404908814FF4285048814FF42C50888138
:101A50004FF4F07008804FF4487048801AE039481D
:101A6000808841F6631188420DD12C2035490881C8
:101A70002B2048812A2088814FF4F07008804FF491
:101A80004870488006E02C202E4908812A20488191
:101A90002B2088812B48808845F2103188424CD118
:101AA0004FF4A070274908804FF4F070488044E05C
:101AB0004FF4A07023490880F020488008468088B1
:101AC00045F21051884210D14FF430501D49088121
:101AD0004FF4285048814FF42C5088814FF44870BF
:101AE00008804FF4F07048801AE01648808841F66C
:101AF000631188420DD12C20124908812A20488187
:101B00002B2088814FF4487008804FF4F070488093
:101B100006E02C200B4908812A2048812B2088814F
:101B20000848808845F21031884206D14FF4F070A1
:101B3000044908804FF4A0704880002000F0B8F8F5
:101B400010BD0000EC00002030B504460D463948B9
:101B5000808845F21051884220D13649488900F0EA
:101B60002FFB201200F020FB32494989491C88B222
:101B700000F026FBE0B200F017FB2E49888900F048
:101B80001FFB281200F010FB2A498989491C88B2E2
:101B900000F016FBE8B200F007FB42E02548808821
:101BA00041F66311884228D12248807920B9214822
:101BB0000088401E001B84B21E49488900F000FBCB
:101BC000201200F0F1FAE0B200F0EEFA201200F07C
:101BD000EBFAE0B200F0E8FA1649888900F0F0FA72
:101BE000281200F0E1FAE8B200F0DEFA281200F064
:101BF000DBFAE8B200F0D8FA13E00E49488900F0A9
:101C0000DFFA201200F0D0FAE0B200F0CDFA094974
:101C1000888900F0D5FA281200F0C6FAE8B200F080
:101C2000C3FA04480089044908804FF0D841A1F85C
:101C3000802030BDEC0000207E00006C08B5034819
:101C400000880090BDF8000008BD00008000006C16
:101C500070B52DED048B0446BE2000F0B1FA0520CE
:101C600000F0A2FA2046FEF762FB41EC190B9FED53
:101C70000E0B53EC102BFEF7E8FA41EC180BFEF7B5
:101C800063FB85B2284600F08FFA012000F08CFA41
:101C9000FF2000F089FA002000F086FA002000F012
:101CA00083FABDEC048B70BD6666666666660440AA
:101CB000F0B505460024002789488079012805D120
:101CC0008748808841F66311884208D1844880792A
:101CD000F0B98348808841F66311884218D1082DF5
:101CE00015D2DFE805F00406080A0C0E10120625CE
:101CF0000DE007250BE0042509E0052507E0012597
:101D000005E0002503E0032501E0022500BF00BF38
:101D1000082D1CD2DFE805F00406090C0F12151877
:101D200000BF14E044F0800411E044F040040EE0F1
:101D300044F0C0040BE044F0200408E044F06004E8
:101D400005E044F0A00402E044F0E00400BF00BF5E
:101D50006348808845F21051884202D14FF45857A9
:101D600000E036275E48808849F24131884205D03C
:101D70005B48808847F28971884201D144F00804A9
:101D80002146384600F032FA5548808841F6631102
:101D900088421DD004F0200068B1514800885049A5
:101DA0004988884214DA4E48068840884C490880A1
:101DB000084646800CE04A480088494949888842DC
:101DC00006DD474806884088454908800846468021
:101DD0004348808845F21051884252D14049488991
:101DE00000F0EEF9002000F0DFF93D494989491C77
:101DF00088B200F0E5F9002000F0D6F938494989A9
:101E0000891C88B200F0DCF935490988491EC1F304
:101E10000F2000F0C9F932494989C91C88B200F085
:101E2000CFF92F490978491EC8B200F0BDF92C49F5
:101E3000888900F0C5F9002000F0B6F928498989A1
:101E4000491C88B200F0BCF9002000F0ADF924492B
:101E50008989891C88B200F0B3F921494988491E53
:101E6000C1F30F2000F0A0F91D498989C91C88B26F
:101E700000F0A6F91A498978491EC8B200F094F911
:101E80002DE01749488900F09BF9002000F08CF9FB
:101E9000002000F089F912490988491EC1F30F207A
:101EA00000F082F90E490978491EC8B200F07CF9A9
:101EB0000B49888900F084F9002000F075F90020B2
:101EC00000F072F906494988491EC1F30F2000F05D
:101ED0006BF903498978491EC8B200F065F9F0BD75
:101EE000EC00002010B502460C464548808841F6BB
:101EF0006311884247D142488079A8B94048008898
:101F0000401E801A82B23E49488900F059F90020EB
:101F100000F04AF9002000F047F9101200F044F9EF
:101F2000D0B200F041F916E03549488900F048F98F
:101F3000101200F039F9D0B200F036F930490988B2
:101F4000491EC1F30F2000F02FF92D490978491ED1
:101F5000C8B200F029F92A49888900F031F9201225
:101F600000F022F9E0B200F01FF925494988491E26
:101F7000C1F30F2000F018F921498978491EC8B231
:101F800000F012F93AE01E48808845F2105188426C
:101F900020D11B49488900F013F9101200F004F910
:101FA00017494989491C88B200F00AF9D0B200F0FB
:101FB000FBF81349888900F003F9201200F0F4F8C7
:101FC0000F498989491C88B200F0FAF8E0B200F0A4
:101FD000EBF813E00A49488900F0F2F8101200F01B
:101FE000E3F8D0B200F0E0F80549888900F0E8F89D
:101FF000201200F0D9F8E0B200F0D6F810BD0000D1
:10200000EC0000202DE9F84F80460F4616461C468E
:10201000BB462046E31704EB5373DB1021464FEA1F
:10202000E47C04EB5C7C4FEAEC0CA4EBCC0CBCF144
:10203000000F02D04FF0010C01E04FF0000C6344A0
:10204000224604EBD27C4FEA6C0C03FB0CF3DBB2B0
:102050000093A6F12000C6B200255EE00C2C07D14B
:1020600006EB46002F4901EB800010F805901BE0BD
:10207000102C05D12C4800EB061010F8059013E049
:10208000182C07D106EBC600284901EB800010F898
:10209000059009E0202C05D1254800EBC61010F86A
:1020A000059001E0BDE8F88F4FF0000A2FE009F03D
:1020B000800030B11F48394602684046FFF744FDB2
:1020C00007E00A9828B91C48394602684046FFF7DD
:1020D0003BFD4FEA49604FEA1069781C87B2174808
:1020E0004088B84200DCDDE7A7EB0B00A0420AD134
:1020F0005F4608F101001FFA80F81048008840454B
:1021000000DCCFE706E00AF1010000F0FF0ABAF1B7
:10211000080FCCDB00BF681CC5B2009885429DDB70
:1021200000BFBFE7E0560108545B010844610108A5
:10213000A06E01081C00002020000020EC00002000
:102140002DE9F84704460D4690469946DDE90967B2
:1021500004F0FF0A08EB04001FFA80F809EB050001
:102160001FFA80F916E0444502DB5446A81985B2EF
:102170004D4500DB14E0002000903A7833462946B4
:102180002046FFF73FFF304606EBD07104EB6101BC
:102190008CB27F1C38787E2802DC38782028E2DA7E
:1021A00000BFBDE8F887000001B5BDF80000009051
:1021B000BDF800000149088008BD00008000006CE7
:1021C00001B5BDF800000090BDF80000014908808D
:1021D00008BD00007E00006C0248008902490880AA
:1021E00070470000EC0000207E00006C034A108065
:1021F0004FF0D842A2F88010704700007E00006CBB
:1022000000B587B01C216846FEF714F84FF0204057
:102210001849086018484860062088600021154861
:10222000C16001611021416100218161C1610162D0
:1022300041624FF4805181620021C16201634163B8
:10224000816341640F2000900190FF2002900F20D5
:102250000390102004901120059000200690002289
:1022600069460448FFF71EFA08B1FEF72EF907B0D9
:1022700000BD00009C000020040100A000B587B054
:10228000142102A8FDF7D6FF00BF00200190584896
:10229000006840F01000564908600846006800F0E9
:1022A0001000019000BF00BF00BF00200190084651
:1022B000006840F0040008600846006800F0040070
:1022C000019000BF00BF00BF0020019008460068D9
:1022D00040F0200008600846006800F020000190EF
:1022E00000BF00BF00BF002001900846006840F01A
:1022F000800008600846006800F08000019000BF80
:1023000000BF00BF002001900846006840F00100B7
:1023100008600846006800F00100019000BF00BF9F
:1023200000BF002001900846006840F002000860ED
:102330000846006800F00200019000BF00BF00BF27
:10234000002001900846006840F008000860084638
:10235000006800F00800019000BF00BF00BF00202F
:1023600001900846006840F0400008600846006898
:1023700000F04000019000BF00BF01224FF4C06197
:102380001C48FEF799FA00224FF400411A48FEF764
:1023900093FA18200290002003900120049002A9D3
:1023A0001648FEF77DF94FF4C060029001200390BB
:1023B00000200490059002A90E48FEF771F9012053
:1023C0000290002003900220049002A90C48FEF71E
:1023D00067F94FF400400290012003900020049020
:1023E000059002A90448FEF75BF907B000BD0000A4
:1023F0003038024000140240000402400010024045
:102400000000024000B587B0142102A8FDF712FFBA
:10241000002001901D481E490860002048607F216F
:102420001B488160FF21C160002101614161816120
:10243000FEF7CEFF08B1FEF748F816208DF8080029
:1024400000208DF809008DF80A0005900690012201
:1024500002A90F48FFF794F808B1FEF736F80720F5
:102460008DF8040001208DF8050019208DF8060074
:1024700025208DF80700012201A90548FFF720F863
:1024800008B1FEF722F807B000BD000000280040A8
:102490003400002010B50B480B4908604FF4E130C0
:1024A0004860002108488160C16001610C214161E0
:1024B00000218161C161FFF757F908B1FEF705F806
:1024C00010BD0000001001405400002000BFFEE7D6
:1024D00000BFFEE77047014600BF080900EB80001F
:1024E000420001F00F001044C0B2704701460022C4
:1024F00003E0521CA1F10A00C1B20A29F9D2100767
:1025000041EA1060704770B5044600260025206837
:10251000C06800F04000C8B92068C06840F0800082
:102520002168C860FEF7CEF9064608E0FEF7CAF952
:10253000801BB0F57A7F02D90420607701252068DE
:10254000C06800F0400008B9012DEFD1284670BDE9
:1025500070B5044600252068C06820F0800021681E
:10256000C8602068806800F0200030B92046FFF77E
:102570007DF810B1042060770125284670BD7047B2
:102580007047000000B593B0302107A8FDF752FE58
:10259000142102A8FDF74EFE00BF0020019025483F
:1025A000006840F08050234908600846006800F049
:1025B0008050019000BF00BF00BF002001901E4866
:1025C000006840F480401C4908600846006800F438
:1025D0008040019000BF00BF052007904FF480307D
:1025E00008900120099002200D9041050E910421D0
:1025F0000F91A8211091022111910421129107A895
:10260000FEF744FC08B1FDF760FF0F2002900220A6
:102610000390002004904FF4A05005904FF4805098
:102620000690052102A8FEF7F1FA08B1FDF74DFF6B
:1026300013B000BD403802400070004003480068FD
:1026400040F47000014908607047000088ED00E028
:1026500000BF00BF02680C3252E8002F22F49071D4
:1026600002680C3242E80013002BF3D100BF00BF18
:1026700000BF0268143252E8002F22F00101026804
:10268000143242E80013002BF3D100BF016B012983
:102690000ED100BF00BF02680C3252E8002F22F0BA
:1026A000100102680C3242E80013002BF3D100BF86
:1026B000202180F842100021016370472DE9F84F76
:1026C00004462068006920F44050E168084321680E
:1026D00008612169A068084361690843E16908430A
:1026E00000902068C06849F20C6188430099084353
:1026F0002168C8602068406920F44070A1690843DF
:102700002168486176492068884203D0754920686D
:10271000884203D1FEF752FB814602E0FEF73EFB02
:102720008146E069B0F5004F6CD102206168A0FBE2
:10273000015003461920A9FB007001462A4638467D
:10274000FDF740FD6421B0FBF1F04FEA001A0220D2
:102750006168A0FB01510B461920A9FB00712A46B4
:102760003846FDF72FFD834602206168A0FB01502B
:1027700003461920A9FB00712A463846FDF722FDC1
:102780006421B0FBF1F000EBC00101EB0010ABEBFA
:102790008000322101EBC0006421B0FBF1F000F0B9
:1027A000F8000AEB400A02206168A0FB01500346D2
:1027B0001920A9FB007001462A463846FDF702FDA4
:1027C000834602206168A0FB015003461920A9FB43
:1027D00000712A463846FDF7F5FC6421B0FBF1F0A4
:1027E00000EBC00101EB0010ABEB8000322101EBEC
:1027F000C0006421B0FBF1F000F0070050442168F4
:1028000088606AE004206168A0FB0150034619203B
:10281000A9FB007001462A463846FDF7D3FC8246E4
:1028200004206168A0FB015003461920A9FB007039
:1028300001462A463846FDF7C5FC6421B0FBF1F09D
:1028400000EBC00101EB0010AAEB8000322101EB8C
:1028500000106421B0FBF1F000F0F00A0420616880
:10286000A0FB017003461920A9FB00513A462846F7
:10287000FDF7A8FC6421B0FBF1F00AEB001A04207C
:102880006168A0FB01510B461920A9FB00712A4683
:102890003846FDF797FC834604206168A0FB015091
:1028A00003461920A9FB007001462A463846FDF769
:1028B00089FC6421B0FBF1F000EBC00101EB0010DA
:1028C000ABEB8000322101EB00106421B0FBF1F092
:1028D00000F00F00504421688860BDE8F88F0000C8
:1028E00000100140001401402DE9F84304460D4654
:1028F00017469846089E31E0701C70B3FDF7E2FF62
:10290000A0EB0800B04200D816B90320BDE8F88358
:102910002068C06800F00400F8B1802D1ED0402D62
:102920001CD020680068C0F3C000B0B100BF002018
:10293000009020680068009020684068009000BF08
:1029400000BF2046FFF784FE0820606400BF00201F
:1029500084F8400000BF0120D8E7FFE72068006846
:102960002840A84201D1012000E00020B842C3D095
:102970000020CBE710B502F081FE10BD00BFFEE7DE
:102980000FB4084B10B504A902AA039800F038F858
:10299000044602A9002000F0D4F9204610BC5DF8DE
:1029A00014FB0000432D010802480068C0F3022018
:1029B000704700000CED00E010B5002804DB0A07AA
:1029C000130E054A135406E00A07140E034A00F0DA
:1029D0000F031B1FD45410BD00E400E018ED00E00D
:1029E00002E008C8121F08C1002AFAD170477047D8
:1029F000002001E001C1121F002AFBD17047000036
:102A00002DE9FF4F8BB088460546002606E02528B5
:102A10000BD0DDE90D1290476D1C761C287800283C
:102A2000F5D10FB03046BDE8F08F0024A146A24694
:102A30000122AE4900E0044315F8013F203B02FAB1
:102A400003F00842F7D128782A2810D06FF02F021F
:102A50002878A0F13001092915D809EB890102EB8A
:102A6000410144F0020400EB01096D1CF0E758F845
:102A7000041B5FEA010903D544F40054C9F10009BD
:102A800044F002046D1C28782E2817D115F8010F88
:102A900044F004042A280ED06FF02F022878A0F109
:102AA000300109290AD80AEB8A0102EB410100EB47
:102AB000010A6D1CF2E758F804AB6D1C28786C28ED
:102AC0000FD006DC4C2817D068280DD06A2814D106
:102AD00004E0742810D07A280FD10DE044F40014DB
:102AE0000AE044F4801401E044F44014697881421F
:102AF00002D104F580146D1C6D1C2878692865D0FE
:102B000006DC00288DD0632827D0642806D15DE03C
:102B10006E2808D073282AD0752877D0DDE90D12E9
:102B20009047761CE0E0C4F30250022809D0032845
:102B30000DD0D8F8001004280DD00E6008F104085C
:102B4000D2E0D8F80010F217C1E90062F6E7D8F831
:102B500000100E80F2E70E70F0E718F8041B8DF8F5
:102B6000001000208DF80100EB46012003E058F82A
:102B700004BB4FF0FF3061074FF0000701D40AE0BB
:102B80007F1C57450DDA8742FADB1BF80710002936
:102B9000F6D106E07F1C8742FCDB1BF807100029FA
:102BA000F8D1DDE90D23A9EB07008146214600F0AD
:102BB000B1F83044C61904E0DDE90D121BF8010B31
:102BC00090477F1EF8D22146484688E058F8040B0B
:102BD000C4F302514FF00A0B032900D100B20429BB
:102BE00000D140B2002802DA40422D2102E0210546
:102BF00005D52B218DF82410012104E006E0E10722
:102C000010D02021F6E708AF089113E058F8040B24
:102C1000C4F302514FF00A0B032900D180B20429FA
:102C200000D1C0B20021EEE75946FDF7A6FB3031D6
:102C300007F8011D0028F7D1ADEB070000F1200BCC
:102C4000600702D524F4803401E04FF0010ADA4530
:102C500002DDAAEB0B0000E00020824600EB0B0136
:102C600008980144A9EB01000A90E00306D4DDE9CD
:102C70000D2321460A9800F04DF806444FF0000954
:102C800008E009A911F80900DDE90D12904709F1E2
:102C90000109761C08998945F3DBE0030CD5DDE9D1
:102CA0000D2321460A9800F035F8064404E0DDE9DA
:102CB0000D1230209047761CBAF10001AAF1010AEA
:102CC000F5DC05E0DDE90D1217F8010B9047761CE5
:102CD000BBF10001ABF1010BF4DC0A982146DDE900
:102CE0000D2300F005F806446D1C97E60928010045
:102CF0002DE9F041044600251E461746880404D4F9
:102D000005E039462020B0476D1C641EF9D52846E1
:102D1000BDE8F0812DE9F041044600251E469046AD
:102D2000C80301D5302700E02027880404D505E03A
:102D300041463846B0476D1C641EF9D52846BDE8AB
:102D4000F0810A68531C0B601070704710B5044680
:102D50000420FEF7DBFC0148046010BD30000020B9
:102D600004480068C06840F0200002490968C86053
:102D7000704700005400002011B5002404E04FF417
:102D80007A7000F007F8641CBDF800008442F6D3A6
:102D900018BD000071B500224FF0E0256C690E4EA1
:102DA000009D366805FB06F34FF0E025A96910E0A9
:102DB0004FF0E025A86988420BD0884202D20D1A54
:102DC0002A4402E0251A0D442A4401469A4200D3BF
:102DD00000E0EDE700BF78BD3000002010B5D32043
:102DE000FFF7EEF9FEF72AFFFD498880FEF726FF80
:102DF000FB498880FEF722FFF949888008468088D1
:102E00004FF6FF7101EA0020F5498880FEF716FFB2
:102E1000F34989880843F24988800846808849F246
:102E2000413188427DD00420FFF7CAF9FEF706FF42
:102E3000EB498880FEF702FFE9498880FEF7FEFE35
:102E4000E7498880084680884FF6FF7101EA002034
:102E5000E3498880FEF7F2FEE14989880843E049AA
:102E600088800846808848F25251884203D147F250
:102E70008970DB498880DA48808847F28971884206
:102E8000D0D0D420FFF79CF9FEF7D8FED449888033
:102E9000FEF7D4FED2498880FEF7D0FED049888064
:102EA000084680884FF6FF7101EA0020CC498880EF
:102EB000FEF7C4FECA4989880843C9498880084684
:102EC000808845F2103188426BD055214FF4704014
:102ED000FFF78CF9AA214FF20100FFF787F9522181
:102EE0004FF20200FFF782F908214FF20300FFF7CB
:102EF0007DF901214FF20400FFF778F94FF44540C6
:102F0000FFF75EF9FEF79AFEB5498880084680888B
:102F10004FF6FF7101EA0020B14988804CF2015060
:102F200000E03EE0FFF74CF9FEF788FEAC498988E7
:102F30000843AB4988800520FFF71EFFA84880881A
:102F4000B0F5004F03D145F21050A5498880A44840
:102F5000808845F21051884223D0A120FFF730F934
:102F6000FEF76CFE9E498880FEF768FE9C498880CB
:102F7000084680884FF6FF7101EA00209849888052
:102F8000FEF75CFE96498988084395498880084683
:102F9000808845F26171884203D141F663109049FF
:102FA00088808F48808849F2413188427ED1CF2085
:102FB000FFF706F90020FFF7F7F8C120FFF7F4F854
:102FC0003020FFF7F1F8ED20FFF7FAF86420FFF763
:102FD000EBF80320FFF7E8F81220FFF7E5F881206F
:102FE000FFF7E2F8E820FFF7EBF88520FFF7DCF8C1
:102FF0001020FFF7D9F87A20FFF7D6F8CB20FFF79B
:10300000DFF83920FFF7D0F82C20FFF7CDF80020AB
:10301000FFF7CAF83420FFF7C7F80220FFF7C4F81B
:10302000F720FFF7CDF82020FFF7BEF8EA20FFF7E2
:10303000C7F80020FFF7B8F80020FFF7B5F8C02068
:10304000FFF7BEF81B20FFF7AFF8C120FFF7B8F875
:103050000120FFF7A9F8C520FFF7B2F83020FFF7ED
:10306000A3F83020FFF7A0F8C720FFF7A9F8B72092
:10307000FFF79AF83620FFF7A3F84820FFF794F8F7
:103080003A20FFF79DF85520FFF78EF8B120FFF7A3
:1030900097F80020FFF788F81A20FFF785F8B62088
:1030A000FFF78EF80A20FFF77FF800E09AE0A220F1
:1030B000FFF77AF8F220FFF783F80020FFF774F8A3
:1030C0002620FFF77DF80120FFF76EF8E020FFF7DC
:1030D00077F80F20FFF768F82A20FFF765F8282017
:1030E000FFF762F80820FFF75FF80E20FFF75CF8A3
:1030F0000820FFF759F85420FFF756F8A920FFF7EA
:1031000053F84320FFF750F80A20FFF74DF80F203F
:10311000FFF74AF80020FFF747F80020FFF744F8D0
:103120000020FFF741F80020FFF73EF8E120FFF70D
:1031300047F80020FFF738F81520FFF735F817207B
:10314000FFF732F80720FFF72FF81120FFF72CF8D0
:103150000620FFF729F82B20FFF726F85620FFF767
:1031600023F83C20FFF720F80520FFF71DF810207A
:10317000FFF71AF80F20FFF717F83F20FFF714F8B2
:103180003F20FFF711F80F20FFF70EF82B20FFF775
:1031900017F80020FFF708F80020FFF705F80120D6
:1031A000FFF702F83F20FEF7FFFF2A20FFF708F89D
:1031B0000020FEF7F9FF0020FEF7F6FF0020FEF7E3
:1031C000F3FFEF20FEF7F0FF1120FEF7F9FF782064
:1031D000FFF7D2FD2920FEF7F3FF02F0A9B80000A7
:1031E000EC000020FE48808847F2897188427CD13B
:1031F0001120FEF7E5FF7820FFF7BEFD3620FEF731
:10320000DFFF0020FEF7D0FF3A20FEF7D9FF0520B0
:10321000FEF7CAFFB220FEF7D3FF0C20FEF7C4FF73
:103220000C20FEF7C1FF0020FEF7BEFF3320FEF7A3
:10323000BBFF3320FEF7B8FFB720FEF7C1FF3520F4
:10324000FEF7B2FFBB20FEF7BBFF3220FEF7ACFF5C
:10325000C020FEF7B5FF0C20FEF7A6FFC220FEF748
:10326000AFFF0120FEF7A0FFC320FEF7A9FF10204B
:10327000FEF79AFFC420FEF7A3FF2020FEF794FF7D
:10328000C620FEF79DFF0F20FEF78EFFD020FEF731
:1032900097FFA420FEF788FFA120FEF785FFE0201E
:1032A000FEF78EFFD020FEF77FFF0020FEF77CFFA9
:1032B0000220FEF779FF0720FEF776FF0A20FEF7CF
:1032C00073FF2820FEF770FF3220FEF76DFF4420C9
:1032D000FEF76AFF4220FEF767FF0620FEF764FF55
:1032E0000E20FEF761FF122000E056E0FEF75CFFC3
:1032F0001420FEF759FF1720FEF756FFE120FEF7D6
:103300005FFFD020FEF750FF0020FEF74DFF0220A8
:10331000FEF74AFF0720FEF747FF0A20FEF744FFAB
:103320002820FEF741FF3120FEF73EFF5420FEF734
:103330003BFF4720FEF738FF0E20FEF735FF1C202D
:10334000FEF732FF1720FEF72FFF1B20FEF72CFFA2
:103350001E20FEF729FF2A20FEF732FF0020FEF78D
:1033600023FF0020FEF720FF0020FEF71DFFEF20C7
:10337000FEF71AFF2B20FEF723FF0020FEF714FFB5
:103380000020FEF711FF0120FEF70EFF3F20FEF7A1
:103390000BFF2920FEF714FF1FE79148808845F2B4
:1033A0001031884240F07C87ED20FEF709FF0120B4
:1033B000FEF7FAFEFE20FEF7F7FEEE20FEF700FF16
:1033C000DE20FEF7F1FE2120FEF7EEFEF120FEF7F3
:1033D000F7FE0120FEF7E8FEDF20FEF7F1FE1020E9
:1033E000FEF7E2FEC420FEF7EBFE8F20FEF7DCFEC8
:1033F000C620FEF7E5FE0020FEF7D6FEE220FEF72F
:10340000D3FEE220FEF7D0FEE220FEF7CDFEBF2085
:10341000FEF7D6FEAA20FEF7C7FEB020FEF7D0FECC
:103420000D20FEF7C1FE0020FEF7BEFE0D20FEF7C8
:10343000BBFE0020FEF7B8FE1120FEF7B5FE00200F
:10344000FEF7B2FE1920FEF7AFFE0020FEF7ACFE3D
:103450002120FEF7A9FE0020FEF7A6FE2D20FEF794
:10346000A3FE0020FEF7A0FE3D20FEF79DFE0020FB
:10347000FEF79AFE5D20FEF797FE0020FEF794FE11
:103480005D20FEF791FE0020FEF78EFEB120FEF7D4
:1034900097FE8020FEF788FE0020FEF785FE8B2039
:1034A000FEF782FE0020FEF77FFE9620FEF77CFEF0
:1034B0000020FEF779FEB220FEF782FE0020FEF724
:1034C00073FE0020FEF770FE0220FEF76DFE002066
:1034D000FEF76AFE0320FEF767FE0020FEF764FE9B
:1034E000B320FEF76DFE0020FEF75EFE0020FEF723
:1034F0005BFE0020FEF758FE0020FEF755FE002080
:10350000FEF752FE0020FEF74FFE0020FEF74CFEB5
:103510000020FEF749FE0020FEF746FE0020FEF7E1
:1035200043FE0020FEF740FE0020FEF73DFE002097
:10353000FEF73AFE0020FEF737FE0020FEF734FECD
:103540000020FEF731FE0020FEF72EFE0020FEF7E1
:103550002BFE0020FEF728FE0020FEF725FE0020AF
:10356000FEF722FE0020FEF71FFE0020FEF71CFEE5
:103570000020FEF719FEB420FEF722FE8B20FEF796
:1035800013FE0020FEF710FE9620FEF70DFE002031
:10359000FEF70AFEA120FEF707FE0020FEF704FE5C
:1035A000B520FEF70DFE0220FEF7FEFD0020FEF71F
:1035B000FBFD0320FEF7F8FD0020FEF7F5FD0420DB
:1035C000FEF7F2FD0020FEF7EFFDB620FEF7F8FD56
:1035D0000020FEF7E9FD0020FEF7E6FDB72001E040
:1035E000EC000020FEF7ECFD0020FEF7DDFD0020E2
:1035F000FEF7DAFD3F20FEF7D7FD0020FEF7D4FDF1
:103600005E20FEF7D1FD0020FEF7CEFD6420FEF720
:10361000CBFD0020FEF7C8FD8C20FEF7C5FD002085
:10362000FEF7C2FDAC20FEF7BFFD0020FEF7BCFD9B
:10363000DC20FEF7B9FD0020FEF7B6FD7020FEF796
:10364000B3FD0020FEF7B0FD9020FEF7ADFD002099
:10365000FEF7AAFDEB20FEF7A7FD0020FEF7A4FD74
:10366000DC20FEF7A1FD0020FEF79EFDB820FEF74E
:10367000A7FD0020FEF798FD0020FEF795FD002035
:10368000FEF792FD0020FEF78FFD0020FEF78CFD77
:103690000020FEF789FD0020FEF786FD0020FEF7E2
:1036A00083FDBA20FEF78CFD2420FEF77DFD00206F
:1036B000FEF77AFD0020FEF777FD0020FEF774FD8F
:1036C000C120FEF77DFD2020FEF76EFD0020FEF7F5
:1036D0006BFD5420FEF768FD0020FEF765FDFF201E
:1036E000FEF762FD0020FEF75FFDC220FEF768FDD9
:1036F0000A20FEF759FD0020FEF756FD0420FEF7D4
:1037000053FD0020FEF750FDC320FEF759FD3C207D
:10371000FEF74AFD0020FEF747FD3A20FEF744FD84
:103720000020FEF741FD3920FEF73EFD0020FEF7A8
:103730003BFD3720FEF738FD0020FEF735FD3C202D
:10374000FEF732FD0020FEF72FFD3620FEF72CFDA0
:103750000020FEF729FD3220FEF726FD0020FEF7AF
:1037600023FD2F20FEF720FD0020FEF71DFD2C205D
:10377000FEF71AFD0020FEF717FD2920FEF714FDC5
:103780000020FEF711FD2620FEF70EFD0020FEF7BB
:103790000BFD2420FEF708FD0020FEF705FD242088
:1037A000FEF702FD0020FEF7FFFC2320FEF7FCFCE5
:1037B0000020FEF7F9FC3C20FEF7F6FC0020FEF7A7
:1037C000F3FC3620FEF7F0FC0020FEF7EDFC322083
:1037D000FEF7EAFC0020FEF7E7FC2F20FEF7E4FCF2
:1037E0000020FEF7E1FC2C20FEF7DEFC0020FEF7B7
:1037F000DBFC2920FEF7D8FC0020FEF7D5FC2620B4
:10380000FEF7D2FC0020FEF7CFFC2420FEF7CCFC14
:103810000020FEF7C9FC2420FEF7C6FC0020FEF7BE
:10382000C3FC2320FEF7C0FC0020FEF7BDFCC42033
:10383000FEF7C6FC6220FEF7B7FC0020FEF7B4FCE2
:103840000520FEF7B1FC0020FEF7AEFC8420FEF759
:10385000ABFC0020FEF7A8FCF020FEF7A5FC002042
:10386000FEF7A2FC1820FEF79FFC0020FEF79CFC50
:10387000A420FEF799FC0020FEF796FC1820FEF726
:1038800093FC0020FEF790FC5020FEF78DFC0020FA
:10389000FEF78AFC0C20FEF787FC0020FEF784FC74
:1038A0001720FEF781FC0020FEF77EFC9520FEF736
:1038B0007BFC0020FEF778FCF320FEF775FC00206F
:1038C000FEF772FCE620FEF76FFC0020FEF76CFCB2
:1038D000C520FEF775FC3220FEF766FC0020FEF7DF
:1038E00063FC4420FEF760FC0020FEF75DFC6520D1
:1038F000FEF75AFC0020FEF757FC7620FEF754FC3A
:103900000020FEF751FC8820FEF74EFC0020FEF759
:103910004BFCC620FEF754FC2020FEF745FC00209F
:10392000FEF742FC1720FEF73FFC0020FEF73CFCB0
:103930000120FEF739FC0020FEF736FCC720FEF719
:103940003FFC0020FEF730FC0020FEF72DFC00209D
:10395000FEF72AFC0020FEF727FCC820FEF730FC0B
:103960000020FEF721FC0020FEF71EFC0020FEF7E1
:103970001BFC0020FEF718FCC920FEF721FC0020EC
:10398000FEF712FC0020FEF70FFC0020FEF70CFCF7
:103990000020FEF709FC0020FEF706FC0020FEF7E1
:1039A00003FC0020FEF700FC0020FEF7FDFB0020DA
:1039B000FEF7FAFB0020FEF7F7FB0020FEF7F4FB12
:1039C0000020FEF7F1FB0020FEF7EEFB0020FEF7E3
:1039D000EBFB0020FEF7E8FB0020FEF7E5FBE02014
:1039E000FEF7EEFB1620FEF7DFFB0020FEF7DCFB08
:1039F0001C20FEF7D9FB0020FEF7D6FB2120FEF7A6
:103A0000D3FB0020FEF7D0FB3620FEF7CDFB0020D5
:103A1000FEF7CAFB4620FEF7C7FB0020FEF7C4FBFB
:103A20005220FEF7C1FB0020FEF7BEFB6420FEF72C
:103A3000BBFB0020FEF7B8FB7A20FEF7B5FB0020A9
:103A4000FEF7B2FB8B20FEF7AFFB0020FEF7ACFBCE
:103A50009920FEF7A9FB0020FEF7A6FBA820FEF7A1
:103A6000A3FB0020FEF7A0FBB920FEF79DFB002082
:103A7000FEF79AFBC420FEF797FB0020FEF794FBAD
:103A8000CA20FEF791FB0020FEF78EFBD220FEF746
:103A90008BFB0020FEF788FBD920FEF785FB00207A
:103AA000FEF782FBE020FEF77FFB0020FEF77CFBA9
:103AB000F320FEF779FB0020FEF776FBE120FEF70E
:103AC0007FFB1620FEF770FB0020FEF76DFB1C202D
:103AD000FEF76AFB0020FEF767FB2220FEF764FB7F
:103AE0000020FEF761FB3620FEF75EFB0020FEF7AC
:103AF0005BFB4520FEF758FB0020FEF755FB5220EC
:103B0000FEF752FB0020FEF74FFB6420FEF74CFB54
:103B10000020FEF749FB7A20FEF746FB0020FEF767
:103B200043FB8B20FEF740FB0020FEF73DFB992076
:103B3000FEF73AFB0020FEF737FBA820FEF734FB28
:103B40000020FEF731FBB920FEF72EFB0020FEF728
:103B50002BFBC420FEF728FB0020FEF725FBCA2024
:103B6000FEF722FB0020FEF71FFBD220FEF71CFB16
:103B70000020FEF719FBD820FEF716FB0020FEF709
:103B800013FBE020FEF710FB0020FEF70DFBF320F7
:103B9000FEF70AFB0020FEF707FBE220FEF710FB12
:103BA0000520FEF701FB0020FEF7FEFA0B20FEF7D2
:103BB000FBFA0020FEF7F8FA1B20FEF7F5FA0020CA
:103BC000FEF7F2FA3420FEF7EFFA0020FEF7ECFAE7
:103BD0004420FEF7E9FA0020FEF7E6FA4F20FEF750
:103BE000E3FA0020FEF7E0FA6120FEF7DDFA00209C
:103BF000FEF7DAFA7920FEF7D7FA0020FEF7D4FABA
:103C00008820FEF7D1FA0020FEF7CEFA9720FEF7C3
:103C1000CBFA0020FEF7C8FAA620FEF7C5FA00206E
:103C2000FEF7C2FAB720FEF7BFFA0020FEF7BCFA93
:103C3000C220FEF7B9FA0020FEF7B6FAC720FEF759
:103C4000B3FA0020FEF7B0FAD120FEF7ADFA00205B
:103C5000FEF7AAFAD620FEF7A7FA0020FEF7A4FA8C
:103C6000DD20FEF7A1FA0020FEF79EFAF320FEF712
:103C70009BFA0020FEF798FAE320FEF7A1FA052050
:103C8000FEF792FA0020FEF78FFA0A20FEF78CFA70
:103C90000020FEF789FA1C20FEF786FA0020FEF7C6
:103CA00083FA3320FEF780FA0020FEF77DFA4420E5
:103CB000FEF77AFA0020FEF777FA5020FEF774FA42
:103CC0000020FEF771FA6220FEF76EFA0020FEF780
:103CD0006BFA7820FEF768FA0020FEF765FA882074
:103CE000FEF762FA0020FEF75FFA9720FEF75CFA13
:103CF0000020FEF759FAA620FEF756FA0020FEF73C
:103D000053FAB720FEF750FA0020FEF74DFAC22012
:103D1000FEF74AFA0020FEF747FAC720FEF744FAFA
:103D20000020FEF741FAD120FEF73EFA0020FEF710
:103D30003BFAD520FEF738FA0020FEF735FADD20F1
:103D4000FEF732FA0020FEF72FFAF320FEF72CFAE6
:103D50000020FEF729FAE420FEF732FA0120FEF7F0
:103D600023FA0020FEF720FA0120FEF71DFA0020BA
:103D7000FEF71AFA0220FEF717FA0020FEF714FAEF
:103D80002A20FEF711FA0020FEF70EFA3C20FEF77B
:103D90000BFA0020FEF708FA4B20FEF705FA002088
:103DA000FEF702FA5D20FEF7FFF90020FEF7FCF9AE
:103DB0007420FEF7F9F90020FEF7F6F98420FEF7EB
:103DC000F3F90020FEF7F0F99320FEF7EDF900205B
:103DD000FEF7EAF9A220FEF7E7F90020FEF7E4F982
:103DE000B320FEF7E1F90020FEF7DEF9BE20FEF772
:103DF000DBF90020FEF7D8F9C420FEF7D5F9002042
:103E0000FEF7D2F9CD20FEF7CFF90020FEF7CCF96E
:103E1000D320FEF7C9F90020FEF7C6F9DD20FEF732
:103E2000C3F90020FEF7C0F9F320FEF7BDF900202A
:103E3000FEF7BAF9E520FEF7C3F90020FEF7B4F962
:103E40000020FEF7B1F90020FEF7AEF90020FEF7E2
:103E5000ABF90220FEF7A8F90020FEF7A5F929200A
:103E6000FEF7A2F90020FEF79FF93C20FEF79CF92F
:103E70000020FEF799F94B20FEF796F90020FEF797
:103E800093F95D20FEF790F90020FEF78DF974207C
:103E9000FEF78AF90020FEF787F98420FEF784F9FF
:103EA0000020FEF781F99320FEF77EF90020FEF74F
:103EB0007BF9A220FEF778F90020FEF775F9B32010
:103EC000FEF772F90020FEF76FF9BE20FEF76CF9DD
:103ED0000020FEF769F9C420FEF766F90020FEF71E
:103EE00063F9CD20FEF760F90020FEF75DF9D320DD
:103EF000FEF75AF90020FEF757F9DC20FEF754F9D7
:103F00000020FEF751F9F320FEF74EF90020FEF7EE
:103F10004BF9E620FEF754F91120FEF745F9002091
:103F2000FEF742F93420FEF73FF90020FEF73CF996
:103F30005620FEF739F90020FEF736F97620FEF715
:103F400033F90020FEF730F97720FEF72DF9002035
:103F5000FEF72AF96620FEF727F90020FEF724F97C
:103F60008820FEF721F90020FEF71EF99920FEF7C0
:103F70001BF90020FEF718F9BB20FEF715F9002009
:103F8000FEF712F99920FEF70FF90020FEF70CF961
:103F90006620FEF709F90020FEF706F95520FEF726
:103FA00003F90020FEF700F95520FEF7FDF8002088
:103FB000FEF7FAF84520FEF7F7F80020FEF7F4F8D0
:103FC0004320FEF7F1F80020FEF7EEF84420FEF75C
:103FD000EBF80020FEF7E8F8E720FEF7F1F83220D2
:103FE000FEF7E2F80020FEF7DFF85520FEF7DCF8D8
:103FF0000020FEF7D9F87620FEF7D6F80020FEF76D
:10400000D3F86620FEF7D0F80020FEF7CDF8672041
:10401000FEF7CAF80020FEF7C7F86720FEF7C4F8DD
:104020000020FEF7C1F88720FEF7BEF80020FEF75B
:10403000BBF89920FEF7B8F80020FEF7B5F8BB20D2
:10404000FEF7B2F80020FEF7AFF89920FEF7ACF8C3
:104050000020FEF7A9F87720FEF7A6F80020FEF76B
:10406000A3F84420FEF7A0F80020FEF79DF85620A4
:10407000FEF79AF80020FEF797F82320FEF794F851
:104080000020FEF791F83320FEF78EF80020FEF7AF
:104090008BF84520FEF788F80020FEF785F8E82029
:1040A000FEF78EF80020FEF77FF80020FEF77CF880
:1040B0009920FEF779F80020FEF776F88720FEF7C2
:1040C00073F80020FEF770F88820FEF76DF80020E6
:1040D000FEF76AF87720FEF767F80020FEF764F82D
:1040E0006620FEF761F80020FEF75EF88820FEF7F4
:1040F0005BF80020FEF758F8AA20FEF755F80020DC
:10410000FEF752F8BB20FEF74FF80020FEF74CF800
:104110009920FEF749F80020FEF746F86620FEF7E2
:1041200043F80020FEF740F85520FEF73DF8002048
:10413000FEF73AF85520FEF737F80020FEF734F87E
:104140004420FEF731F80020FEF72EF84420FEF759
:104150002BF80020FEF728F85520FEF725F8002060
:10416000FEF722F8E920FEF72BF8AA20FEF71CF84C
:104170000020FEF719F80020FEF716F80020FEF7E1
:1041800013F80020FEF71CF8AA20FEF70DF8CF2048
:10419000FEF716F80020FEF707F80020FEF704F8F7
:1041A0000020FEF701F80020FDF7FEFF0020FDF7DC
:1041B000FBFF0020FDF7F8FF0020FDF7F5FF0020D2
:1041C000FDF7F2FF0020FDF7EFFF0020FDF7ECFF09
:1041D0000020FDF7E9FF0020FDF7E6FF0020FDF7D6
:1041E000E3FF0020FDF7E0FF0020FDF7DDFF0020EA
:1041F000FDF7DAFF0020FDF7D7FFF020FDF7E0FF25
:104200000020FDF7D1FF5020FDF7CEFF0020FDF785
:10421000CBFF0020FDF7C8FF0020FDF7C5FFF3200E
:10422000FDF7CEFF0020FDF7BFFFF920FDF7C8FF27
:104230000620FDF7B9FF1020FDF7B6FF2920FDF796
:10424000B3FF0020FDF7B0FF3A20FDF7B9FF55207E
:10425000FDF7AAFF1120FDF7B3FF6420FEF79AFDDA
:104260002920FDF7ADFF3520FDF7AAFF0020FDF75F
:104270009BFF5120FDF7A4FFFF20FDF795FF532082
:10428000FDF79EFF2C20FDF78FFF5520FDF798FFCF
:104290008220FDF789FF2C20FDF792FF01F048B83E
:1042A000FE48808845F2105188427DD155214FF457
:1042B0007040FDF79BFFAA214FF20100FDF796FF2A
:1042C00052214FF20200FDF791FF08214FF2030047
:1042D000FDF78CFF01214FF20400FDF787FF0D2150
:1042E0004FF43040FDF782FF0D214BF20100FDF746
:1042F0007DFF0D214BF20200FDF778FF34214FF4D2
:104300003640FDF773FF34214BF20160FDF76EFF7D
:1043100034214BF20260FDF769FF0D214FF431406B
:10432000FDF764FF0D214BF20110FDF75FFF0D213A
:104330004BF20210FDF75AFF34214FF43740FDF7DE
:1043400055FF34214BF20170FDF750FF34214BF241
:104350000270FDF74BFF00214FF43240FDF746FF9E
:1043600000214BF20120FDF741FF00214BF202201A
:10437000FDF73CFF24214FF43840FDF737FF24219F
:104380004BF60100FDF732FF24214BF60200FDF74A
:104390002DFF01214FF43F40FDF728FF0F214FF47F
:1043A0003340FDF723FF00E0FDE30F214BF2013026
:1043B000FDF71CFF0F214BF20230FDF717FF3421F0
:1043C0004FF43940FDF712FF34214BF60110FDF791
:1043D0000DFF34214BF60210FDF708FF08214FF4C2
:1043E0003540FDF703FF08214BF20150FDF7FEFEBB
:1043F00008214BF20250FDF7F9FE03214FF4424031
:10440000FDF7F4FE24214FF43A40FDF7EFFE24219E
:104410004BF60120FDF7EAFE24214BF60220FDF7C2
:10442000E5FE00214FF43C40FDF7E0FE78214BF61D
:104430000140FDF7DBFE00214BF60240FDF7D6FE02
:1044400000214FF43D40FDF7D1FE78214BF601509D
:10445000FDF7CCFE00214BF60250FDF7C7FE002110
:104460004FF43E40FDF7C2FE64214BF60160FDF7BC
:10447000BDFE00214FF45140FDF7B8FE33214DF24F
:104480000110FDF7B3FE00214DF20210FDF7AEFE64
:1044900034214DF20310FDF7A9FE00214DF2041066
:1044A000FDF7A4FE3A214DF20510FDF79FFE002115
:1044B0004DF20610FDF79AFE4A214DF20710FDF766
:1044C00095FE00214DF20810FDF790FE5C214DF2A3
:1044D0000910FDF78BFE00214DF20A10FDF786FE54
:1044E00081214DF20B10FDF781FE00214DF20C10E1
:1044F000FDF77CFEA6214DF20D10FDF777FE0021A1
:104500004DF20E10FDF772FEE5214DF20F10FDF792
:104510006DFE01214DF21010FDF768FE13214DF2E2
:104520001110FDF763FE01214DF21210FDF75EFE42
:1045300054214DF21310FDF759FE01214DF21410D4
:10454000FDF754FE82214DF21510FDF74FFE0121BB
:104550004DF21610FDF74AFECA214DF21710FDF775
:1045600045FE02214DF21810FDF740FE00214DF2EC
:104570001910FDF73BFE02214DF21A10FDF736FE31
:1045800001214DF21B10FDF731FE02214DF21C10EE
:10459000FDF72CFE34214DF21D10FDF727FE022100
:1045A0004DF21E10FDF722FE67214DF21F10FDF7A0
:1045B0001DFE02214DF22010FDF718FE84214DF260
:1045C0002110FDF713FE02214DF22210FDF70EFE21
:1045D000A4214DF22310FDF709FE02214DF2241013
:1045E000FDF704FEB7214DF22510FDF7FFFD022176
:1045F0004DF22610FDF7FAFDCF214DF22710FDF701
:10460000F5FD02214DF22810FDF7F0FDDE214DF2FF
:104610002910FDF7EBFD02214DF22A10FDF7E6FD12
:10462000F2214DF22B10FDF7E1FD02214DF22C108D
:10463000FDF7DCFDFE214DF22D10FDF7D7FD032126
:104640004DF22E10FDF7D2FD10214DF22F10FDF787
:10465000CDFD03214DF23010FDF7C8FD33214DF2A1
:104660003110FDF7C3FD03214DF23210FDF7BEFD01
:104670006D214DF23310FDF7B9FD00214FF452408A
:10468000FDF7B4FD33214DF20120FDF7AFFD002110
:104690004DF20220FDF7AAFD342101E0EC000020DC
:1046A0004DF20320FDF7A2FD00214DF20420FDF79D
:1046B0009DFD3A214DF20520FDF798FD00214DF2B8
:1046C0000620FDF793FD4A214DF20720FDF78EFDF0
:1046D00000214DF20820FDF789FD5C214DF20920F3
:1046E000FDF784FD00214DF20A20FDF77FFD8121B9
:1046F0004DF20B20FDF77AFD00214DF20C20FDF765
:1047000075FDA6214DF20D20FDF770FD00214DF243
:104710000E20FDF76BFDE5214DF20F20FDF766FD44
:1047200001214DF21020FDF761FD13214DF2112002
:10473000FDF75CFD01214DF21220FDF757FD5421DC
:104740004DF21320FDF752FD01214DF21420FDF72B
:104750004DFD82214DF21520FDF748FD01214DF25E
:104760001620FDF743FDCA214DF21720FDF73EFD4F
:1047700002214DF21820FDF739FD00214DF21920DC
:10478000FDF734FD02214DF21A20FDF72FFD012126
:104790004DF21B20FDF72AFD02214DF21C20FDF7F2
:1047A00025FD34214DF21D20FDF720FD02214DF2A3
:1047B0001E20FDF71BFD67214DF21F20FDF716FDA2
:1047C00002214DF22020FDF711FD84214DF2212020
:1047D000FDF70CFD02214DF22220FDF707FDA4217B
:1047E0004DF22320FDF702FD02214DF22420FDF7BA
:1047F000FDFCB7214DF22520FDF7F8FC02214DF21A
:104800002620FDF7F3FCCF214DF22720FDF7EEFC2B
:1048100002214DF22820FDF7E9FCDE214DF229208E
:10482000FDF7E4FC02214DF22A20FDF7DFFCF22126
:104830004DF22B20FDF7DAFC02214DF22C20FDF782
:10484000D5FCFE214DF22D20FDF7D0FC03214DF2C9
:104850002E20FDF7CBFC10214DF22F20FDF7C6FCDA
:1048600003214DF23020FDF7C1FC33214DF2312000
:10487000FDF7BCFC03214DF23220FDF7B7FC6D21A2
:104880004DF23320FDF7B2FC00214FF45340FDF709
:10489000ADFC33214DF20130FDF7A8FC00214DF2B3
:1048A0000230FDF7A3FC34214DF20330FDF79EFCEE
:1048B00000214DF20430FDF799FC3A214DF205300C
:1048C000FDF794FC00214DF20630FDF78FFC4A21E4
:1048D0004DF20730FDF78AFC00214DF20830FDF75C
:1048E00085FC5C214DF20930FDF780FC00214DF282
:1048F0000A30FDF77BFC81214DF20B30FDF776FC91
:1049000000214DF20C30FDF771FCA6214DF20D3067
:10491000FDF76CFC00214DF20E30FDF767FCE52140
:104920004DF20F30FDF762FC01214DF21030FDF722
:104930005DFC13214DF21130FDF758FC01214DF2C1
:104940001230FDF753FC54214DF21330FDF74EFCAD
:1049500001214DF21430FDF749FC82214DF2153052
:10496000FDF744FC01214DF21630FDF73FFCCA2152
:104970004DF21730FDF73AFC02214DF21830FDF7E9
:1049800035FC00214DF21930FDF730FC02214DF2CB
:104990001A30FDF72BFC01214DF21B30FDF726FCF0
:1049A00002214DF21C30FDF721FC34214DF21D3067
:1049B000FDF71CFC02214DF21E30FDF717FC6721AC
:1049C0004DF21F30FDF712FC02214DF22030FDF7B1
:1049D0000DFC84214DF22130FDF708FC02214DF23F
:1049E0002230FDF703FCA4214DF22330FDF7FEFB3E
:1049F00002214DF22430FDF7F9FBB7214DF22530AD
:104A0000FDF7F4FB02214DF22630FDF7EFFBCF213D
:104A10004DF22730FDF7EAFB02214DF22830FDF779
:104A2000E5FBDE214DF22930FDF7E0FB02214DF2DE
:104A30002A30FDF7DBFBF2214DF22B30FDF7D6FBE0
:104A400002214DF22C30FDF7D1FBFE214DF22D302D
:104A5000FDF7CCFB03214DF22E30FDF7C7FB1021F3
:104A60004DF22F30FDF7C2FB03214DF23030FDF740
:104A7000BDFB33214DF23130FDF7B8FB03214DF280
:104A80003230FDF7B3FB6D214DF23330FDF7AEFB55
:104A900000214FF45440FDF7A9FB33214DF20140B2
:104AA000FDF7A4FB00214DF20240FDF79FFB3421EE
:104AB0004DF20340FDF79AFB00214DF20440FDF753
:104AC00095FB3A214DF20540FDF790FB00214DF298
:104AD0000640FDF78BFB4A214DF20740FDF786FBB0
:104AE00000214DF20840FDF781FB5C214DF20940A9
:104AF000FDF77CFB00214DF20A40FDF777FB812199
:104B00004DF20B40FDF772FB00214DF20C40FDF71A
:104B10006DFBA6214DF20D40FDF768FB00214DF223
:104B20000E40FDF763FBE5214DF20F40FDF75EFB04
:104B300001214DF21040FDF759FB13214DF21140B8
:104B4000FDF754FB01214DF21240FDF74FFB5421BC
:104B50004DF21340FDF74AFB01214DF21440FDF7E1
:104B600045FB82214DF21540FDF740FB01214DF23E
:104B70001640FDF73BFBCA214DF21740FDF736FB0F
:104B800002214DF21840FDF731FB00214DF2194092
:104B9000FDF72CFB02214DF21A40FDF727FB012106
:104BA0004DF21B4000E005E3FDF720FB02214DF232
:104BB0001C40FDF71BFB34214DF21D40FDF716FB99
:104BC00002214DF21E40FDF711FB67214DF21F40FF
:104BD000FDF70CFB02214DF22040FDF707FB84217D
:104BE0004DF22140FDF702FB02214DF22240FDF77C
:104BF000FDFAA4214DF22340FDF7F8FA02214DF20F
:104C00002440FDF7F3FAB7214DF22540FDF7EEFA07
:104C100002214DF22640FDF7E9FACF214DF227405F
:104C2000FDF7E4FA02214DF22840FDF7DFFADE211C
:104C30004DF22940FDF7DAFA02214DF22A40FDF744
:104C4000D5FAF2214DF22B40FDF7D0FA02214DF2B8
:104C50002C40FDF7CBFAFE214DF22D40FDF7C6FAB0
:104C600003214DF22E40FDF7C1FA10214DF22F40E5
:104C7000FDF7BCFA03214DF23040FDF7B7FA3321BE
:104C80004DF23140FDF7B2FA03214DF23240FDF70B
:104C9000ADFA6D214DF23340FDF7A8FA00214FF433
:104CA0005540FDF7A3FA33214DF20150FDF79EFA6E
:104CB00000214DF20250FDF799FA34214DF20350D4
:104CC000FDF794FA00214DF20450FDF78FFA3A21D6
:104CD0004DF20550FDF78AFA00214DF20650FDF71E
:104CE00085FA4A214DF20750FDF780FA00214DF276
:104CF0000850FDF77BFA5C214DF20950FDF776FA7A
:104D000000214DF20A50FDF771FA81214DF20B504E
:104D1000FDF76CFA00214DF20C50FDF767FAA62161
:104D20004DF20D50FDF762FA00214DF20E50FDF7E5
:104D30005DFAE5214DF20F50FDF758FA01214DF2D1
:104D40001050FDF753FA13214DF21150FDF74EFAB2
:104D500001214DF21250FDF749FA54214DF2135042
:104D6000FDF744FA01214DF21450FDF73FFA82217C
:104D70004DF21550FDF73AFA01214DF21650FDF7AC
:104D800035FACA214DF21750FDF730FA02214DF2E3
:104D90001850FDF72BFA00214DF21950FDF726FAB5
:104DA00002214DF21A50FDF721FA01214DF21B505C
:104DB000FDF71CFA02214DF21C50FDF717FA3421C1
:104DC0004DF21D50FDF712FA02214DF21E50FDF773
:104DD0000DFA67214DF21F50FDF708FA02214DF23E
:104DE0002050FDF703FA84214DF22150FDF7FEF922
:104DF00002214DF22250FDF7F9F9A4214DF2235082
:104E0000FDF7F4F902214DF22450FDF7EFF9B72137
:104E10004DF22550FDF7EAF902214DF22650FDF73B
:104E2000E5F9CF214DF22750FDF7E0F902214DF2CF
:104E30002850FDF7DBF9DE214DF22950FDF7D6F9B8
:104E400002214DF22A50FDF7D1F9F2214DF22B50FB
:104E5000FDF7CCF902214DF22C50FDF7C7F9FE21E8
:104E60004DF22D50FDF7C2F903214DF22E50FDF702
:104E7000BDF910214DF22F50FDF7B8F903214DF285
:104E80003050FDF7B3F933214DF23150FDF7AEF953
:104E900003214DF23250FDF7A9F96D214DF2335047
:104EA000FDF7A4F900214FF45640FDF79FF9332197
:104EB0004DF20160FDF79AF900214DF20260FDF715
:104EC00095F934214DF20360FDF790F900214DF280
:104ED0000460FDF78BF93A214DF20560FDF786F984
:104EE00000214DF20660FDF781F94A214DF207607D
:104EF000FDF77CF900214DF20860FDF777F95C21A0
:104F00004DF20960FDF772F900214DF20A60FDF7DC
:104F10006DF981214DF20B60FDF768F900214DF22A
:104F20000C60FDF763F9A6214DF20D60FDF75EF907
:104F300000214DF20E60FDF759F9E5214DF20F60A9
:104F4000FDF754F901214DF21060FDF74FF91321DF
:104F50004DF21160FDF74AF901214DF21260FDF7A3
:104F600045F954214DF21360FDF740F901214DF24E
:104F70001460FDF73BF982214DF21560FDF736F91B
:104F800001214DF21660FDF731F9CA214DF217608B
:104F9000FDF72CF902214DF21860FDF727F90021E9
:104FA0004DF21960FDF722F902214DF21A60FDF76A
:104FB0001DF901214DF21B60FDF718F902214DF298
:104FC0001C60FDF713F934214DF21D60FDF70EF959
:104FD00002214DF21E60FDF709F967214DF21F60B5
:104FE000FDF704F902214DF22060FDF7FFF884215E
:104FF0004DF22160FDF7FAF802214DF22260FDF733
:10500000F5F8A4214DF22360FDF7F0F802214DF2EE
:105010002460FDF7EBF8B7214DF22560FDF7E6F8C7
:1050200002214DF22660FDF7E1F8CF214DF2276015
:10503000FDF7DCF802214DF22860FDF7D7F8DE21FC
:105040004DF22960FDF7D2F802214DF22A60FDF7FA
:10505000CDF8F2214DF22B60FDF7C8F802214DF298
:105060002C60FDF7C3F8FE214DF22D60FDF7BEF870
:1050700003214DF22E60FDF7B9F810214DF22F609B
:10508000FDF7B4F803214DF23060FDF7AFF833219E
:105090004DF23160FDF7AAF803214DF23260FDF7C1
:1050A000A5F86D214DF23360FDF7A0F855214FF4BE
:1050B0007040FDF79BF8AA214FF20100FDF796F82A
:1050C00052214FF20200FDF791F808214FF2030040
:1050D000FDF78CF800214FF20400FDF787F8CC2192
:1050E0004FF43140FDF782F800214BF20110FDF73B
:1050F0007DF805214FF43640FDF778F870214FF424
:105100003740FDF773F870214BF20170FDF76EF830
:1051100001214FF43840FDF769F803214BF60100F7
:10512000FDF764F803214BF60200FDF75FF8032159
:105130004BF60300FDF75AF802214FF43C40FDF70F
:1051400055F800214BF60140FDF750F800214BF6D1
:105150000240FDF74BF8D0214FF44940FDF746F8E7
:1051600002214CF60110FDF741F850214CF60210D7
:10517000FDF73CF850214CF60310FDF737F85021AD
:105180004CF60410FDF732F800214FF45450FDF7AF
:105190002DF855214FF46850FDF728F84FF488504A
:1051A000FDF70EF87820FDF7F5FD4FF42450FDF7DC
:1051B00007F8BDE08A48808841F663118842F8D13B
:1051C000E220FCF7FDFF1D20FCF7EEFF0220FCF7BC
:1051D000EBFF0420FCF7E8FF6420FDF7DBFDE02097
:1051E000FCF7EEFF0120FCF7DFFF0A20FDF7C4FD0E
:1051F000E020FCF7E5FF0320FCF7D6FF0C20FDF7CD
:10520000BBFD0120FCF7DCFF0A20FDF7B5FDE62021
:10521000FCF7D6FF2F20FCF7C7FFFF20FCF7C4FFE9
:10522000FF20FCF7C1FFB020FCF7CAFF2020FCF7ED
:10523000BBFF0020FCF7B8FF0320FCF7B5FF40F2EE
:105240001F30FCF7B1FF0120FCF7AEFF40F2DF108A
:10525000FCF7AAFF0020FCF7A7FFB420FCF7B0FF83
:105260000420FCF7A1FF40F21F40FCF79DFF002047
:10527000FCF79AFF2E20FCF797FF0020FCF794FF25
:105280000020FCF791FF0020FCF78EFF0020FCF7C8
:105290008BFFB620FCF794FF0220FCF785FF4FF44C
:1052A0000370FCF781FF0020FCF77EFF1720FCF75E
:1052B0007BFF1520FCF778FF0020FCF775FF00202E
:1052C000FCF772FFF020FCF77BFF0320FCF76CFF7C
:1052D0002920FCF775FFD020FCF772FF0020FCF7B7
:1052E00063FFBE20FCF76CFF0520FCF75DFFFE208E
:1052F000FCF75AFF0120FCF757FF0020FCF754FF92
:105300000020FCF751FF0020FCF74EFFB820FCF70F
:1053100057FF0320FCF748FF0120FCF745FFBA20A8
:10532000FCF74EFF0120FCF73FFF6420FCF790FCE8
:105330002B48808849F24131884217D0284880881C
:1053400047F28971884211D02548808845F2103192
:1053500088420BD02248808845F21051884205D0FF
:105360001F48808841F6631188422CD11D4800688F
:1053700020F00F004FF02041C1F81C010846D0F882
:105380001C0120F47060C1F81C010846D0F81C0113
:1053900040F00300C1F81C011148808847F2897170
:1053A000884208D10F48006840F440704FF0204117
:1053B000C1F81C0107E00B48006840F400704FF092
:1053C0002041C1F81C010020FCF726FB0122D1037B
:1053D0000548FBF771FA4FF6FF70FCF703FB10BDB1
:1053E000EC0000201C0100A000040240002107E0A6
:1053F00042F6E06100BF0A1EA1F1010399B2FAD1A1
:10540000021EA0F1010398B2F2D1704792B00024BD
:1054100000256B486B490860FBF75AFAFDF7B2F8B4
:10542000FCF72CFFFCF7ECFEFDF734F8FCF7EAFF85
:10543000A820FDF78BFCFDF793FCFDF7CFFC4FF6A2
:10544000FF70FCF7CFFA4FF478405F4908605FA027
:1054500010210B46C822CDE9001032211E20FCF796
:105460006FFE5FA010210B46C822CDE90010462137
:105470001E20FCF765FE5DA010210B46C822CDE979
:1054800000105A211E20FCF75BFE5CA010210B4689
:10549000C822CDE900106E211E20FCF751FE5AA053
:1054A00010210B46C822CDE9001082211E20FCF7F6
:1054B00047FE5BA010210B46C822CDE900109621C3
:1054C0001E20FCF73DFE5AA010210B46C822CDE954
:1054D0000010AA211E20FCF733FE1F203A49086065
:1054E0006CE0601CC4B20A2094FBF0F100FB114098
:1054F000002843D100220DA95148FBF73BFF9DF83E
:10550000360000909DF835309DF834204DA102A85A
:10551000FDF736FA02A810210B46D222CDE9001081
:10552000BE211E20FCF70CFE00220CA94448FBF70C
:10553000FBFE9DF8320000909DF831309DF833203D
:1055400045A102A8FDF71CFA02A810210B46D222A1
:10555000CDE9001011461E20FCF7F2FD9DF8302029
:1055600043A102A8FDF70CFA02A810210B46D22293
:10557000CDE90010E6211E20FCF7E2FD142094FB8B
:10558000F0F100FB114020B94FF400713A48FBF7ED
:1055900089F90A20FDF7F0FB0020FCF7D1F9054658
:1055A000012D04D1002281023348FBF785F9022D39
:1055B00004D1012291023048FBF77EF991E7000007
:1055C0000000010808ED00E01C0000204578706C28
:1055D0006F7265722053544D333246340000000020
:1055E00041505020544553540000000041544F4D49
:1055F00040414C49454E54454B0000003230323555
:105600002F312F31390000004B45595F55503A4337
:105610006F70792041505032464C41534800000091
:105620004B4559313A4C454431204F4E0000000063
:105630004B4559303A4C454431204F464600000016
:105640003400002054696D653A253032643A2530C3
:1056500032643A2530326400446174653A32302550
:105660003032642D253032642D2530326400000044
:105670005765656B3A2564000014024008B50F4871
:1056800000680068C0F34010B0B14FF47A73012293
:1056900069460A48FCF7F0F809480068B0F5F03FA1
:1056A0000AD29DF800000749054A12688854044848
:1056B0000068401C0249086008BD0000540000203A
:1056C0002C0000200010002000000000000000005E
:1056D0000102030406070809000000000102030498
:1056E00000000000000000000000000000000000BA
:1056F0003F4000000000000000003000400030008B
:105700004000000009000BC03D000BC03D00090037
:1057100018C024407FE0224031800000180024C0DF
:105720001B000D803240018003801C4027401C80FC
:105730000740004010006000000000000000000072
:105740000000000000001F8020404020000040209A
:1057500020401F8000000000090006001F80060096
:1057600009000000040004003F8004000400000061
:1057700000100060000000000000000004000400B1
:1057800004000400040000000000004000000000CD
:1057900000000000002001C00600380040000000AA
:1057A0001F802040204020401F800000000010404B
:1057B0003FC000400000000018C0214022402440AB
:1057C0001840000010802040244024401B8000002E
:1057D00002000D0011003FC0014000003C80244049
:1057E00024402440238000001F8024402440344073
:1057F000038000003000200027C038002000000097
:105800001B802440244024401B8000001C0022C038
:10581000224022401F8000000000000008400000DD
:105820000000000000000000046000000000000014
:10583000000004000A001100208040400900090017
:10584000090009000900000000004040208011000C
:105850000A00040018002000234024001800000063
:105860001F802040274029401F400000004007C003
:1058700039000F0001C0004020403FC024402440B8
:105880001B8000001F80204020402040308000000E
:1058900020403FC0204020401F80000020403FC0EB
:1058A00024402E4030C0000020403FC024402E0045
:1058B000300000000F0010802040224033800200A2
:1058C00020403FC0040004003FC020402040204052
:1058D0003FC02040204000000060202020203FC02A
:1058E0002000200020403FC024400B0030C020405A
:1058F00020403FC020400040004000C03FC03C006E
:1059000003C03C003FC0000020403FC00C402300CB
:105910003FC020001F802040204020401F8000000A
:1059200020403FC024402400180000001F80214078
:10593000214020E01FA0000020403FC0244026005E
:1059400019C0004018C0244024402240318000008B
:10595000300020403FC020403000000020003F8049
:10596000004000403F80200020003E0001C00700B2
:1059700038002000380007C03C0007C03800000095
:10598000204039C0060039C02040000020003840C7
:1059900007C0384020000000304021C02640384079
:1059A00020C00000000000007FE0402040200000F8
:1059B000000070000C000380004000000000402048
:1059C00040207FE000000000000020004000200098
:1059D0000000000000100010001000100010001067
:1059E00000000000400000000000000000000280F5
:1059F0000540054003C0004020003FC00440044073
:105A000003800000000003800440044006400000C2
:105A100000000380044024403FC000400000038099
:105A20000540054003400000000004401FC0244022
:105A300024402000000002E00550055006500420DC
:105A400020403FC00440040003C000400000044068
:105A500027C000400000000000100010041027E0E4
:105A60000000000020403FC00140070004C0044087
:105A7000204020403FC000400040000007C004001C
:105A800007C0040003C00000044007C00440040035
:105A900003C0004000000380044004400380000075
:105AA000041007F00450044003800000000003804D
:105AB0000440045007F00010044007C002400400F6
:105AC00004000000000006400540054004C000003E
:105AD000000004001F800440004000000400078014
