:020000040800F2
:10000000000D0020B1010008F5240008BB1900080C
:10001000F1240008D5040008F528000800000000BD
:10002000000000000000000000000000FB240008A9
:10003000D904000800000000F9240008FD2400088D
:10004000CB010008CB010008CB010008CB01000860
:10005000CB010008CB010008CB010008CB01000850
:10006000CB010008CB010008CB010008CB01000840
:10007000CB010008CB010008CB010008CB01000830
:10008000CB010008CB010008CB010008CB01000820
:10009000CB010008CB010008CB010008CB01000810
:1000A000CB010008CB010008CB010008CB01000800
:1000B000CB010008CB010008CB010008CB010008F0
:1000C000CB010008CB010008CB010008CB010008E0
:1000D000CB010008ED280008CB010008CB01000887
:1000E000CB010008CB010008CB010008CB010008C0
:1000F000CB010008CB010008CB010008CB010008B0
:10010000CB010008CB010008CB010008CB0100089F
:10011000CB010008CB010008CB010008CB0100088F
:10012000CB010008CB010008CB010008CB0100087F
:10013000CB010008CB010008CB010008CB0100086F
:10014000CB010008CB010008CB010008CB0100085F
:10015000CB010008CB010008CB010008CB0100084F
:10016000CB010008CB010008CB010008CB0100083F
:10017000CB010008CB010008CB0100080000000003
:10018000CB010008CB010008DFF810D000F090F997
:100190000048004735520008AFF30080000D0020F2
:1001A00030BF72B6704762B6704780F308887047F8
:1001B0000648804706480047FEE7FEE7FEE7FEE701
:1001C000FEE7FEE7FEE7FEE7FEE7FEE7B5250008EF
:1001D000890100082DE9F05F0546002092469B4604
:1001E00088460646814640241BE02846414647464D
:1001F000224600F0EFF853465A46C01A914110D3F8
:1002000011461846224600F0D6F82D1A67EB010871
:100210004F4622460120002100F0CDF817EB0009DF
:100220004E41201EA4F10104DFDC484631462A4637
:100230004346BDE8F09FD2B201E000F8012B491E11
:10024000FBD270470022F6E710B513460A46044673
:100250001946FFF7F0FF204610BD2DE9FE4F81EA59
:10026000030404F0004421F0004100944FF0000B1F
:1002700023F0004350EA01045ED052EA03045BD04D
:10028000C3F30A54C1F30A552C44A4F2F334019485
:10029000A0FB0254C1F3130141F48011C3F3130313
:1002A00043F4801301FB024400FB034E840A970AC7
:1002B00044EA815447EA8357A4FB076802958D0AF4
:1002C00005FB07854FEA932C04FB0C542705029D80
:1002D0004FEA065847EA1637B5EB08056EEB070CF0
:1002E000870E920E47EA811742EA8312A7FB0201AA
:1002F000B6EB0B0164EB00042B0D43EA0C335E18E4
:1003000044EB1C50DA465146E7FB0201C5F31304E7
:100310004FEA0B3343EA14534FEA0432019C43EA99
:100320000603A4F10C040294009CCDE900B400F093
:1003300070F803B0BDE8F08F00200146F9E70EB574
:1003400040F2334102910021CDE900110A460B46EB
:1003500000F05FF803B000BDC1F30A5210B5C1F35D
:10036000130140F2FF3341F480119A4201DA002078
:1003700010BD40F233439A42A2F2334203DC5242B0
:1003800000F028F810BD904010BD30B50B46014676
:1003900000202022012409E021FA02F59D4205D324
:1003A00003FA02F5491B04FA02F52844151EA2F1CE
:1003B0000102F1DC30BD202A04DB203A00FA02F110
:1003C000002070479140C2F1200320FA03F3194343
:1003D00090407047202A04DB203A21FA02F00021E5
:1003E000704721FA02F3D040C2F120029140084345
:1003F0001946704710B5141E73F1000408DA401C4A
:1004000041F1000192185B411A4301D120F0010033
:1004100010BD2DE9F04D92469B4611B1B1FA81F223
:1004200002E0B0FA80F220329046FFF7C4FF0446A3
:100430000F4640EA0A0041EA0B0153465A46084378
:1004400013D0114653EA010019D0C8F140025046BA
:10045000FFF7C0FF05460E46504659464246FFF795
:10046000AAFF084305D0012004E020463946BDE834
:10047000F08D0020054346EAE0762C4337430A9886
:100480006305E40AA0EB08000022FD0A44EA475491
:100490000A3002D500200146E9E70105101969413B
:1004A000DDE9084500196941BDE8F04DA2E700000B
:1004B000064C074D06E0E06840F0010394E80700B1
:1004C00098471034AC42F6D3FFF762FE449E000812
:1004D000649E000800BFFEE7704772B600BFFEE7EB
:1004E00010B5002201B909E0012901D10A0205E095
:1004F000022901D10A0201E04FF440720E4B1B6841
:1005000023F440730C4C236023461B681343236081
:1005100023461B6823F0F803236023461B6802244C
:1005200044EAC0042343044C236023461B6843F47D
:100530008033236010BD0000103C02401C4800685E
:1005400000F40070B0B11A48006820F40070184937
:10055000086000BF0846006840F400600860084674
:10056000006820F40060086000BF0846006840F49E
:10057000007008600E48006800F48060B0B10C485C
:10058000006820F480600A49086000BF08460068DF
:1005900040F4805008600846006820F480500860ED
:1005A00000BF0846006840F48060086070470000A3
:1005B000003C024001461C48814201D200207047A5
:1005C0001A48814201D20120F9E71948814201D23B
:1005D0000220F4E71748814201D20320EFE71648D2
:1005E000814201D20420EAE71448814201D2052069
:1005F000E5E71348814201D20620E0E71148814235
:1006000001D20720DBE71048814201D20820D6E75B
:100610000E48814201D20920D1E70D48814201D222
:100620000A20CCE70B20CAE7004000080080000841
:1006300000C00008000001080000020800000408D3
:10064000000006080000080800000A0800000C0866
:1006500000000E080A4A126822F44072084B1A6021
:100660001A46126842F004021A601A4612684FF4E1
:10067000803343EA00231A43014B1A60704700009D
:10068000103C0240074A126822F44072054B1A607F
:100690001A4612681A601A46126842F001021A607D
:1006A00001707047103C024010B50A49096821F4F6
:1006B0004071084C21602146096841F44071216075
:1006C0002146096841F0010121600260BFF36F8F8C
:1006D000436010BD103C0240084A126822F4407288
:1006E000064B1A601A46126842F480721A601A4663
:1006F000126842F001021A6001807047103C02400B
:10070000084A126822F44072064B1A601A461268B0
:1007100042F400721A601A46126842F001021A602E
:1007200001607047103C02400146086870470000B5
:100730002348006800F0100040B12248C06940F032
:1007400010002049C86110201D4908601C4800683D
:1007500000F0200040B11B48C06940F00800194972
:10076000C8612020164908601548006800F0400064
:1007700040B11448C06940F004001249C8614020EB
:100780000F4908600E48006800F0800040B10D4835
:10079000C06940F002000B49C86180200849086028
:1007A0000748006800F0020040B10648C06940F008
:1007B00020000449C8610220014908607047000018
:1007C0000C3C0240D000002070B5044600250020FB
:1007D0001449C86100F044FB054609E0601C38B1CB
:1007E00024B100F03DFB401BA04201D9032070BDA5
:1007F0000D48006800F480300028EFD10A480068F6
:1008000000F0010010B101200749086006480068A7
:1008100000F0F20018B1FFF78BFF0120E7E700209E
:10082000E5E70000D00000200C3C02402DE9F04339
:1008300087B004460E4617464FF00009002001908D
:1008400000258046B4F1006F02D304F0030010B11C
:1008500007B0BDE8F08300F06FF9254604EB870888
:100860001E4885421DD219E02846FFF75DFF401C57
:1008700078B1002002902846FFF79CFE04900120EA
:1008800005900220069001A902A800F0A9F808B17D
:1008900006E02D1D4CF25030FFF796FF4545E3D39F
:1008A00000BF4CF25030FFF78FFF8146B9F1000FC7
:1008B0000FD10BE0D6F800C062460023214602208B
:1008C00000F0EEF800B103E0241D361D4445F1D3DD
:1008D00000BF00F0DBF800BFBAE700000000FF1F18
:1008E00070B50446B3F5804F13D1D1E9000540EA55
:1008F00005108D6840EA05208D6928438D8940EAFE
:10090000054054F82250064E3540284344F8220052
:1009100003E06FF0704044F82200002070BD00003A
:100920000000F0CF70B50246086852F8200020F0B1
:1009300001000E6842F826008868082801D140238B
:1009400000E00023486818438E683043CE68304387
:100950000E6930434E693043CE6930430E6A3043EE
:100960004E6A30438E6A3043CE6A30430E6B40EAA3
:10097000060488690443C86B0443074D45F4806549
:1009800045F4E025086852F82000A84320430E688B
:1009900042F82600002070BD7FFB080010B503461A
:1009A000D1E9000440EA04108C6840EA04208C89F4
:1009B00040EA0444088A401E44EA0054087D801E30
:1009C00044EA00608C692043541C53F8244004F02E
:1009D00040442043541C43F82400002010BD000074
:1009E0002DE9F04104460E460127002500BF2548A9
:1009F000007E012802D10220BDE8F08101202149BA
:100A0000087600BF4CF25030FFF7DEFE0746002F9D
:100A100031D1401E3060206801280FD1207C6168F0
:100A2000FFF718FE4CF25030FFF7CEFE074616488F
:100A3000006820F00400144908601AE0A56812E07C
:100A4000217C2846FFF74CFD4CF25030FFF7BCFEEE
:100A500007460D48006820F0FA000B4908600FB106
:100A6000356005E06D1CD4E902100844A842E7D8BF
:100A700000BFFFF763FD00BF00200249087600BFFA
:100A80003846B9E7D0000020103C02400348006817
:100A900040F000400149086000207047103C0240CF
:100AA0002DE9F04106460F4614461D464FF0010859
:100AB00000BF1F48007E012802D10220BDE8F0815E
:100AC00001201B49087600BF4CF25030FFF77CFE36
:100AD0008046B8F1000F23D126B9E1B23846FFF7BE
:100AE000D1FD12E0012E04D1A1B23846FFF7F4FD8A
:100AF0000BE0022E04D121463846FFF701FE04E048
:100B000022462B463846FFF7CFFD4CF25030FFF718
:100B10005BFE80460748006820F001000549086038
:100B200000BF00200249087600BF4046C6E700002B
:100B3000D0000020103C024000200949096801F063
:100B4000004159B10749064A0C3A11600649116043
:100B50000349096801F0004101B10120704700001C
:100B6000103C024023016745AB89EFCD00B587B04B
:100B7000142102A8FFF766FB2A48006808B107B0F5
:100B800000BD01202749086000BF002001902648D1
:100B9000006840F00100244908600846006800F041
:100BA0000100019000BF00BF881402900220039052
:100BB00000200490032005900C20069002A91B48F9
:100BC00000F03CF84FF68070029002200390002065
:100BD0000490032005900C20069002A9144800F010
:100BE0002DF84CF233700290022003900020049004
:100BF000032005900C20069002A90E4800F01EF874
:100C00004FF48050029002200390002004900320B3
:100C100005900C20069002A9074800F00FF800BFCD
:100C2000ADE7000000000020383802400014024008
:100C300000100240000C024000180240F8B50246C5
:100C40000B460025002400200021D6E0012606FAEC
:100C500001F51E6806EA0504AC4274D11E7906F05F
:100C60000306012E04D01E7906F00306022E13D1CE
:100C700090684F000326BE40B0434F00DE68BE4080
:100C800030439060506801268E40B0431E79C6F311
:100C900000168E40304350601E7906F00306032E86
:100CA00009D0D0684F000326BE40B0434F009E6875
:100CB000BE403043D0601E7906F00306022E13D1E9
:100CC000CF0802F1200656F827004E07F70E0F2630
:100CD000BE40B0434F07FF0E1E69BE403043CF08F1
:100CE00002F1200646F8270010684F000326BE4098
:100CF000B0431E7906F003064F00BE40304310603B
:100D00005E6806F44036002E76D000BF00260096BE
:100D10003C4E366846F480463A4F3E603E46366862
:100D200006F48046009600BF00BF374E8F0856F885
:100D300027008E07370F0F26BE40B043334EB24216
:100D400002D1002624E057E0314EB24201D1012603
:100D50001EE0304EB24201D1022619E02E4EB242C0
:100D600001D1032614E02D4EB24201D104260FE03A
:100D70002B4EB24201D105260AE02A4EB24201D1E1
:100D8000062605E0284EB24201D1072600E00826DB
:100D90008F073F0FBE4030431B4E8F0846F8270099
:100DA000224E3068A0435E6806F4801606B12043E8
:100DB0001E4E3060361D3068A0435E6806F4001693
:100DC00006B12043194E361D3060184E361F30686C
:100DD000A0435E6806F4003606B12043134E361F6A
:100DE0003060361F3068A0435E6806F4803606B176
:100DF00020430E4E083E3060491C1029FFF426AFF8
:100E0000F8BD0000443802400838014000000240AC
:100E10000004024000080240000C024000100240A2
:100E20000014024000180240001C0240083C01402F
:100E3000024613690B400BB1012000E0002070470F
:100E400010B5426921EA020302EA010443EA0443BD
:100E5000836110BD0AB1816101E00B0483617047B9
:100E600001480068704700000800002010B50D48D8
:100E7000006840F400700B4908600846006840F4C0
:100E8000806008600846006840F4807008600320B5
:100E900000F0A6F80F2000F007F800F02BF8002073
:100EA00010BD0000003C024070B504460E480078BA
:100EB0004FF47A71B1FBF0F00C490968B1FBF0F521
:100EC000284600F077FC08B1012070BD102C07D235
:100ED00000222146501E00F045F80548046001E05C
:100EE0000120F2E70020F0E71000002014000020AD
:100EF0000C00002008B500BF002000900E480068DC
:100F000040F480400C4908600846006800F48040C6
:100F1000009000BF00BF00BF00200090081F0068C5
:100F200040F08050091F08600846006800F08050BB
:100F3000009000BF00BF08BD44380240014608468B
:100F400000280DDB00BF00BF00F01F0301229A4004
:100F500043099B0003F1E023C3F8002100BF00BF59
:100F600000BF70472DE9F05F80460D46164600270A
:100F700001F0D2FC074639462A46334601F0070005
:100F8000C0F1070ABAF1040F02D94FF0040A01E0D8
:100F9000C0F1070AD14600F1040ABAF1070F02D2E4
:100FA0004FF0000A01E0A0F1030AD4464FF0010A15
:100FB0000AFA09FAAAF1010A0AEA020A0AFA0CFA7A
:100FC0004FF0010B0BFA0CFBABF1010B0BEA030B1F
:100FD0004AEA0B042146404601F0A6FCBDE8F09F1A
:100FE00000BF00F00702064B19684FF6FF031940D7
:100FF000044B0B4343EA0221014B196000BF7047C9
:101000000CED00E00000FA0570B504460D460CB981
:10101000012070BD5848006800F00700A84209D2BE
:1010200055490D700846006800F00700A84201D03D
:101030000120EEE7207800F0020002281DD1207880
:1010400000F00400042805D14C48006840F4E0504A
:101050004A490860207800F00800082805D1474870
:10106000006840F46040454908604448006820F04A
:10107000F000A168084341490860207800F00100B1
:10108000A8B36068012807D13C4808380068C0F35D
:101090004040B8B90120BCE76068022802D060680F
:1010A000032807D1354808380068C0F3406048B9C4
:1010B0000120AEE7314808380068C0F3400008B9A5
:1010C0000120A6E72D48006820F00300616808436E
:1010D0002A490860FFF7C4FE064609E0FFF7C0FE94
:1010E000801B41F28831884202D9032091E707E052
:1010F0002248006800F00C006168B0EB810FEDD170
:101100001D48006800F00700A84209D91A490D706F
:101110000846006800F00700A84201D0012078E7E7
:10112000207800F00400042807D11448006820F457
:10113000E050E168084311490860207800F0080099
:10114000082808D10D48006820F46040216940EA71
:10115000C1000A49086000F03FF808490968C1F376
:101160000311074A515CC8400649086006480068F8
:10117000FFF79AFE00204CE7003C0240083802408E
:10118000EC560008140000200C0000200148006804
:10119000704700001400002000B5FFF7F7FF044976
:1011A0000968C1F38221034A515CC84000BD0000B8
:1011B00008380240FC56000800B5FFF7E7FF044975
:1011C0000968C1F34231034A515CC84000BD0000C8
:1011D00008380240FC5600082DE9F047002400259D
:1011E0000026A1462548006800F00C0020B1042824
:1011F00005D008283AD105E0DFF8849039E0DFF81F
:10120000849036E01D48001F006800F03F041B4832
:10121000001F006800F4800078B11A481749091FC0
:101220000968C1F38811A0FB017001462246002322
:101230003846FEF7CFFF05460EE011480F49091F5B
:101240000968C1F38811A0FB017001462246002302
:101250003846FEF7BFFF05460848001F0068C0F388
:101260000140401C4600B5FBF6F902E0DFF81090A3
:1012700000BF00BF4846BDE8F087000008380240C4
:101280000024F40000127A00F8B504460CB90120DD
:10129000F8BD207800F00100002874D0F9480068FB
:1012A00000F00C0004280DD0F648006800F00C0097
:1012B000082813D1F348001F006800F48000B0F53F
:1012C000800F0BD1EF4808380068C0F34040002879
:1012D00059D06068002856D10120D9E700BF606866
:1012E000B0F5803F08D1E7480838006840F4803006
:1012F000E449083908601EE06068B0F5A02F0DD100
:10130000E0480838006840F48020DE490839086069
:101310000846006840F4803008600CE0D94808387E
:10132000006820F48030D749083908600846006812
:1013300020F48020086000BF606890B1FFF790FD46
:10134000054606E0FFF78CFD401B642801D9032009
:101350009EE7CC4808380068C0F340400028F1D030
:1013600011E0FFF77DFD054606E0FFF779FD401B24
:10137000642801D903208BE7C24808380068C0F30D
:1013800040400028F1D1207800F0020002285FD10F
:10139000BC48006800F00C0058B1BA48006800F082
:1013A0000C0008281CD1B748001F006800F480001A
:1013B000B0B9B44808380068C0F3400020B1E06814
:1013C000012801D0012063E7AE480838006820F00A
:1013D000F800216940EAC100AA490839086037E0ED
:1013E000E06800B30120A8490860FFF739FD054611
:1013F00006E0FFF735FD401B022801D9032047E72F
:10140000A04808380068C0F340000028F1D09D488B
:101410000838006820F0F800216940EAC1009949C5
:101420000839086014E0002097490860FFF718FDAC
:10143000054606E0FFF714FD401B022801D90320F2
:1014400026E7904808380068C0F340000028F1D132
:10145000207800F0080008282CD16069A8B101208C
:101460008A490860FFF7FCFC054606E0FFF7F8FC38
:10147000401B022801D903200AE782486C3000682B
:10148000C0F340000028F1D014E000207F4908603C
:10149000FFF7E6FC054606E0FFF7E2FC401B0228EA
:1014A00001D90320F4E677486C300068C0F34000AF
:1014B0000028F1D1207800F00400042870D1002722
:1014C00070483830006800F0805090B900BF0020AC
:1014D00000906C483830006840F0805069493831DD
:1014E00008600846006800F08050009000BF00BF10
:1014F00001276748006800F48070B0B9644800684C
:1015000040F4807062490860FFF7AAFC054606E0D7
:10151000FFF7A6FC401B022801D90320B8E65C486F
:10152000006800F480700028F2D000BFA068012895
:1015300008D154486830006840F0010051496831D2
:1015400008601DE0A06805280DD14E48683000688D
:1015500040F004004B49683108600846006840F0DC
:10156000010008600CE047486830006820F0010086
:101570004449683108600846006820F004000860AB
:1015800000BFA068A8B1FFF76BFC054609E0FFF7B4
:1015900067FC401B41F28831884202D9032077E67C
:1015A00026E0384868300068C0F340000028EED0DC
:1015B00013E0FFF755FC054608E0FFF751FC401B20
:1015C00041F28831884201D9032061E62D48683014
:1015D0000068C0F340000028EFD1012F07D129484F
:1015E0003830006820F0805026493831086000BF4C
:1015F000A069002845D02348006800F00C000828A6
:101600005DD0A069022845D100201F490866FFF778
:1016100027FC054606E0FFF723FC401B022801D902
:10162000032035E6174808380068C0F340600028FA
:10163000F1D1D4E907010843616A40EA811101222E
:10164000A06AC2EB500041EA00412C20005D41EA53
:1016500000600C49091F086001200B490866FFF76C
:10166000FFFB054606E0FFF7FBFB401B022801D904
:1016700003200DE6034808380068C0F340600028E6
:10168000F1D049E00838024000004742800E47424E
:1016900000700040002021490866FFF7E1FB054685
:1016A00006E0FFF7DDFB401B022801D90320EFE530
:1016B0001B480068C0F340600028F2D12CE0A0690C
:1016C000012800D1E4E51648001D0668A06901283C
:1016D00020D006F48001E06981421BD106F03F0171
:1016E000206A814216D147F6C0703040616AB0EB83
:1016F000811F0FD106F440310122A06AC2EB5000D5
:10170000B1EB004F06D106F070612C20005DB1EB0B
:10171000006F01D00120BBE50020B9E50000474281
:101720000038024070B504460E4615460CB901203B
:1017300070BD94F8490028B9002084F8480020467C
:1017400000F01FF804F108012068FFF7EBF83146BC
:10175000A2682068FFF722F92946236BD4E9010229
:10176000FFF7BEF8A168206850F8210040F00100A2
:10177000A268216841F82200012084F84900002075
:10178000D6E710B50446FFF7F1F910BD042808D1DB
:101790004FF0E021096941F004014FF0E0221161AE
:1017A00007E04FF0E021096921F004014FF0E02249
:1017B0001161704770B504462546681EB0F1807F00
:1017C00001D301200FE0681E4FF0E02148610F2196
:1017D0004FF0FF3001F0A8F800204FF0E0218861C1
:1017E00007200861002070BD10B504460CB9012027
:1017F00010BDA06900B100E000BF94F8410028B915
:10180000002084F84000204600F02AF8242084F8C4
:1018100041002068C06820F400502168C86020465C
:1018200000F008FF2068006920F4904021680861FA
:101830002068406920F02A00216848612068C0685B
:1018400040F400502168C86000206064202084F8C3
:10185000410084F842000020606300BFC8E7000038
:1018600010B586B00446142101A8FEF7EBFC1F4911
:101870002068884238D100BF002000901C480068D2
:1018800040F010001A4908600846006800F0100097
:10189000009000BF00BF00BF002000901448143823
:1018A000006840F0010012491439086008460068D9
:1018B00000F00100009000BF00BF4FF4C060019035
:1018C000022002900020039003200490072005903E
:1018D00001A90848FFF7B2F9002201212520FFF7EE
:1018E00041FB2520FFF72AFB06B010BD0010014088
:1018F00044380240000002402DE9F84F04460E46ED
:10190000174699464FF0000A94F84200202852D119
:1019100006B117B90120BDE8F88F002060642220CD
:1019200084F8420000202063FFF79AFA8246A785D8
:10193000E785A068B0F5805F04D1206910B9002563
:10194000B04602E035464FF000082CE05346002236
:1019500020212046CDF8009000F082FF20B1202009
:1019600084F842000320D6E745B920684068C0F3F8
:101970000800A8F8000008F1020811E0A068B0F51E
:10198000805F03D0A06828B9206918B92068406832
:10199000287004E02068406800F07F0028706D1C0B
:1019A000E08D401EE085E08D0028CFD1202084F816
:1019B00042000020AFE70220ADE700BFFEE70000D5
:1019C00010B50446012C01D1234908702248007843
:1019D00058B310212148FFF72BFA50B108211F48B6
:1019E000FFF726FA28B101211D48FFF721FA012847
:1019F0001BD10A2003F00EFC0020174908701021AB
:101A00001648FFF715FA08B9012010BD0821134840
:101A1000FFF70EFA08B90220F7E701211048FFF797
:101A200007FA012815D10320EFE710210B48FFF733
:101A3000FFF901280DD108210848FFF7F9F901281D
:101A400007D101210648FFF7F3F910B90120024937
:101A500008700020D9E700001800002000100240A4
:101A60000000024070B504460026094805884088F9
:101A700045430021084600F09FFA00F017FC00BF24
:101A800002E004490C80761CAE42FAD370BD00001F
:101A9000F00000208000006C10B5044649488471B5
:101AA000002C45D1F020474908804FF4A0704880B1
:101AB0000846808845F21051884210D14FF43050CA
:101AC000404908814FF4285048814FF42C508881B8
:101AD0004FF4F07008804FF4487048801AE039489D
:101AE000808841F6631188420DD12C203549088148
:101AF0002B2048812A2088814FF4F07008804FF411
:101B00004870488006E02C202E4908812A20488110
:101B10002B2088812B48808845F2103188424CD197
:101B20004FF4A070274908804FF4F070488044E0DB
:101B30004FF4A07023490880F02048800846808830
:101B400045F21051884210D14FF430501D490881A0
:101B50004FF4285048814FF42C5088814FF448703E
:101B600008804FF4F07048801AE01648808841F6EB
:101B7000631188420DD12C20124908812A20488106
:101B80002B2088814FF4487008804FF4F070488013
:101B900006E02C200B4908812A2048812B208881CF
:101BA0000848808845F21031884206D14FF4F07021
:101BB000044908804FF4A0704880002000F0E2F84B
:101BC00010BD0000F000002030B504460D46394835
:101BD000808845F21051884220D13649488900F06A
:101BE00059FB201200F04AFB32494989491C88B24E
:101BF00000F050FBE0B200F041FB2E49888900F074
:101C000049FB281200F03AFB2A498989491C88B20D
:101C100000F040FBE8B200F031FB42E0254880884C
:101C200041F66311884228D12248807920B92148A1
:101C30000088401E001B84B21E49488900F02AFB20
:101C4000201200F01BFBE0B200F018FB201200F0A5
:101C500015FBE0B200F012FB1649888900F01AFB70
:101C6000281200F00BFBE8B200F008FB281200F08D
:101C700005FBE8B200F002FB13E00E49488900F0D2
:101C800009FB201200F0FAFAE0B200F0F7FA094975
:101C9000888900F0FFFA281200F0F0FAE8B200F0AC
:101CA000EDFA04480089044908804FF0D841A1F8B2
:101CB000802030BDF00000207E00006C2DE9F04F48
:101CC00005460E4617469846DDF824A04FF0000B57
:101CD000781B401C1FFA80FB344613E0214628463F
:101CE00000F06AF900F0E2FA4FF0000906E0074957
:101CF000A1F800A009F101001FFA80F9D945F6DB2F
:101D0000601C84B24445E9DDBDE8F08F8000006CC2
:101D100008B5034800880090BDF8000008BD000029
:101D20008000006C70B52DED048B0446BE2000F0E1
:101D3000B1FA052000F0A2FA2046FEF700FB41ECC4
:101D4000190B9FED0E0B53EC102BFEF786FA41ECAE
:101D5000180BFEF701FB85B2284600F08FFA012030
:101D600000F08CFAFF2000F089FA002000F086FADB
:101D7000002000F083FABDEC048B70BD66666666D9
:101D800066660440F0B5054600240027894880793E
:101D9000012805D18748808841F66311884208D11F
:101DA00084488079F0B98348808841F6631188427D
:101DB00018D1082D15D2DFE805F00406080A0C0E2C
:101DC000101206250DE007250BE0042509E0052586
:101DD00007E0012505E0002503E0032501E00225D9
:101DE00000BF00BF082D1CD2DFE805F00406090C77
:101DF0000F12151800BF14E044F0800411E044F005
:101E000040040EE044F0C0040BE044F0200408E07D
:101E100044F0600405E044F0A00402E044F0E00473
:101E200000BF00BF6348808845F21051884202D14C
:101E30004FF4585700E036275E48808849F2413118
:101E4000884205D05B48808847F28971884201D179
:101E500044F008042146384600F032FA554880889C
:101E600041F6631188421DD004F0200068B151484A
:101E7000008850494988884214DA4E4806884088CC
:101E80004C490880084646800CE04A480088494989
:101E90004988884206DD47480688408845490880C9
:101EA000084646804348808845F21051884252D106
:101EB0004049488900F0EEF9002000F0DFF93D4983
:101EC0004989491C88B200F0E5F9002000F0D6F9F4
:101ED00038494989891C88B200F0DCF935490988FC
:101EE000491EC1F30F2000F0C9F932494989C91CC4
:101EF00088B200F0CFF92F490978491EC8B200F026
:101F0000BDF92C49888900F0C5F9002000F0B6F928
:101F100028498989491C88B200F0BCF9002000F0EA
:101F2000ADF924498989891C88B200F0B3F92149A7
:101F30004988491EC1F30F2000F0A0F91D49898985
:101F4000C91C88B200F0A6F91A498978491EC8B29E
:101F500000F094F92DE01749488900F09BF9002022
:101F600000F08CF9002000F089F912490988491E17
:101F7000C1F30F2000F082F90E490978491EC8B25A
:101F800000F07CF90B49888900F084F9002000F00A
:101F900075F9002000F072F906494988491EC1F31D
:101FA0000F2000F06BF903498978491EC8B200F090
:101FB00065F9F0BDF000002010B502460C4645481A
:101FC000808841F66311884247D142488079A8B998
:101FD00040480088401E801A82B23E49488900F07D
:101FE00059F9002000F04AF9002000F047F91012DA
:101FF00000F044F9D0B200F041F916E035494889C3
:1020000000F048F9101200F039F9D0B200F036F9BA
:1020100030490988491EC1F30F2000F02FF92D49DE
:102020000978491EC8B200F029F92A49888900F0C8
:1020300031F9201200F022F9E0B200F01FF9254931
:102040004988491EC1F30F2000F018F92149897809
:10205000491EC8B200F012F93AE01E48808845F2E5
:102060001051884220D11B49488900F013F9101201
:1020700000F004F917494989491C88B200F00AF9AF
:10208000D0B200F0FBF81349888900F003F9201260
:1020900000F0F4F80F498989491C88B200F0FAF879
:1020A000E0B200F0EBF813E00A49488900F0F2F8DA
:1020B000101200F0E3F8D0B200F0E0F8054988898A
:1020C00000F0E8F8201200F0D9F8E0B200F0D6F8FD
:1020D00010BD0000F00000202DE9F84F80460F46AB
:1020E00016461C46BB462046E31704EB5373DB1031
:1020F00021464FEAE47C04EB5C7C4FEAEC0CA4EB59
:10210000CC0CBCF1000F02D04FF0010C01E04FF0FD
:10211000000C6344224604EBD27C4FEA6C0C03FBB8
:102120000CF3DBB20093A6F12000C6B200255EE0FE
:102130000C2C07D106EB46002F4901EB800010F86C
:1021400005901BE0102C05D12C4800EB061010F870
:10215000059013E0182C07D106EBC600284901EBC7
:10216000800010F8059009E0202C05D1254800EBEF
:10217000C61010F8059001E0BDE8F88F4FF0000A96
:102180002FE009F0800030B11F4839460268404610
:10219000FFF71AFD07E00A9828B91C48394602687B
:1021A0004046FFF711FD4FEA49604FEA1069781C7D
:1021B00087B217484088B84200DCDDE7A7EB0B0088
:1021C000A0420AD15F4608F101001FFA80F81048CA
:1021D0000088404500DCCFE706E00AF1010000F08E
:1021E000FF0ABAF1080FCCDB00BF681CC5B200982B
:1021F00085429DDB00BFBFE704570008785B0008FD
:1022000068610008C46E00081C0000202000002047
:10221000F00000202DE9F84704460D469046994607
:10222000DDE9096704F0FF0A08EB04001FFA80F8F3
:1022300009EB05001FFA80F916E0444502DB54461D
:10224000A81985B24D4500DB14E0002000903A78D3
:10225000334629462046FFF73FFF304606EBD07154
:1022600004EB61018CB27F1C38787E2802DC387860
:102270002028E2DA00BFBDE8F887000001B5BDF80C
:1022800000000090BDF800000149088008BD000072
:102290008000006C01B5BDF800000090BDF80000A2
:1022A0000149088008BD00007E00006C02480089DA
:1022B0000249088070470000F00000207E00006C9A
:1022C000034A10804FF0D842A2F8801070470000F7
:1022D0007E00006C00B587B01C216846FDF7B2FF98
:1022E0004FF0204018490860184848600620886070
:1022F00000211548C1600161102141610021816107
:10230000C161016241624FF4805181620021C1626A
:1023100001634163816341640F2000900190FF20BD
:1023200002900F20039010200490112005900020AF
:102330000690002269460448FFF7F4F908B1FEF759
:10234000CCF807B000BD000080000020040100A010
:1023500000B587B0142102A8FDF774FF00BF00206C
:1023600001905048006840F010004E49086008464F
:10237000006800F01000019000BF00BF00BF002007
:1023800001900846006840F0200008600846006898
:1023900000F02000019000BF00BF00BF00200190AE
:1023A0000846006840F0800008600846006800F0B9
:1023B0008000019000BF00BF00BF002001900846D0
:1023C000006840F0010008600846006800F0010065
:1023D000019000BF00BF00BF0020019008460068C8
:1023E00040F0020008600846006800F0020001901A
:1023F00000BF00BF00BF002001900846006840F009
:10240000080008600846006800F00800019000BF5E
:1024100000BF00BF002001900846006840F0400067
:1024200008600846006800F04000019000BF00BF4F
:1024300001224FF4C0611C48FEF70CFD00224FF44E
:1024400000411A48FEF706FD182002900020039074
:102450000120049002A91648FEF7F0FB4FF4C0607B
:1024600002900120039000200490059002A90E48DC
:10247000FEF7E4FB0120029000200390022004906C
:1024800002A90C48FEF7DAFB4FF40040029001204D
:10249000039000200490059002A90448FEF7CEFBAB
:1024A00007B000BD30380240001402400004024072
:1024B000001002400000024010B50B480B490860B4
:1024C0004FF4E1304860002108488160C16001613B
:1024D0000C21416100218161C161FFF785F908B1DB
:1024E000FDF7FBFF10BD0000001001403800002088
:1024F00000BFFEE700BFFEE770477047704700006F
:1025000000B593B0302107A8FDF79CFE142102A866
:10251000FDF798FE00BF002001902448006840F0BD
:102520008050224908600846006800F08050019001
:1025300000BF00BF00BF002001901D48006840F4AC
:1025400080401B4908600846006800F48040019004
:1025500000BF00BF012007900004089002200D90EA
:1025600041050E9104210F91A82110910221119192
:102570000421129107A8FEF787FE08B1FDF7ADFF11
:102580000F20029002200390002004904FF4A050EE
:1025900005904FF480500690052102A8FEF734FD07
:1025A00008B1FDF79AFF13B000BD000040380240AB
:1025B000007000400348006840F470000149086062
:1025C0007047000088ED00E000BF00BF02680C32D9
:1025D00052E8002F22F4907102680C3242E8001396
:1025E000002BF3D100BF00BF00BF0268143252E8D5
:1025F000002F22F001010268143242E80013002B80
:10260000F3D100BF016B01290ED100BF00BF0268EA
:102610000C3252E8002F22F0100102680C3242E81E
:102620000013002BF3D100BF202180F842100021BD
:10263000016370472DE9F84F04462068006920F4D3
:102640004050E1680843216808612169A068084397
:1026500061690843E169084300902068C06849F255
:102660000C618843009908432168C860206840696C
:1026700020F44070A16908432168486176492068C8
:10268000884203D075492068884203D1FEF794FD43
:10269000814602E0FEF780FD8146E069B0F5004F1B
:1026A0006CD102206168A0FB015003461920A9FBF0
:1026B000007001462A463846FDF78CFD6421B0FBC8
:1026C000F1F04FEA001A02206168A0FB01510B46AD
:1026D0001920A9FB00712A463846FDF77BFD834689
:1026E00002206168A0FB015003461920A9FB00717C
:1026F0002A463846FDF76EFD6421B0FBF1F000EB91
:10270000C00101EB0010ABEB8000322101EBC000F7
:102710006421B0FBF1F000F0F8000AEB400A02205F
:102720006168A0FB015003461920A9FB0070014617
:102730002A463846FDF74EFD834602206168A0FB1D
:10274000015003461920A9FB00712A463846FDF7BF
:1027500041FD6421B0FBF1F000EBC00101EB001082
:10276000ABEB8000322101EBC0006421B0FBF1F043
:1027700000F007005044216888606AE00420616826
:10278000A0FB015003461920A9FB007001462A4610
:102790003846FDF71FFD824604206168A0FB01500A
:1027A00003461920A9FB007001462A463846FDF76A
:1027B00011FD6421B0FBF1F000EBC00101EB001052
:1027C000AAEB8000322101EB00106421B0FBF1F094
:1027D00000F0F00A04206168A0FB01700346192094
:1027E000A9FB00513A462846FDF7F4FC6421B0FBF2
:1027F000F1F00AEB001A04206168A0FB01510B46BE
:102800001920A9FB00712A463846FDF7E3FC8346F0
:1028100004206168A0FB015003461920A9FB007049
:1028200001462A463846FDF7D5FC6421B0FBF1F09D
:1028300000EBC00101EB0010ABEB8000322101EB9B
:1028400000106421B0FBF1F000F00F00504421684B
:102850008860BDE8F88F00000010014000140140BE
:102860002DE9F84304460D4617469846089E31E088
:10287000701C70B3FEF7F4FAA0EB0800B04200D869
:1028800016B90320BDE8F8832068C06800F0040092
:10289000F8B1802D1ED0402D1CD020680068C0F3F8
:1028A000C000B0B100BF0020009020680068009018
:1028B00020684068009000BF00BF2046FFF784FEFC
:1028C0000820606400BF002084F8400000BF0120A1
:1028D000D8E7FFE7206800682840A84201D101201E
:1028E00000E00020B842C3D00020CBE710B502F0D2
:1028F000D7FE10BD00BFFEE70FB4054B10B503A90E
:10290000044A029800F034F810BC5DF814FB000093
:10291000655100082400002002480068C0F302202E
:10292000704700000CED00E010B5002804DB0A073A
:10293000130E054A135406E00A07140E034A00F06A
:102940000F031B1FD45410BD00E400E018ED00E09D
:1029500002E008C8121F08C1002AFAD17047704768
:10296000002001E001C1121F002AFBD170470000C6
:102970002DE9FF4F89B09B460446002506E0252837
:102980000BD05A460B999047641C6D1C2078002888
:10299000F5D10DB02846BDE8F08F0027B8460122DA
:1029A000474900E0074314F8013F203B02FA03F0D7
:1029B0000842F7D120782E2819D114F8010F47F0DA
:1029C00004072A280ED06FF02F022078A0F13001E2
:1029D00009290CD808EB880102EB410100EB010842
:1029E000641CF2E70A98641C50F8048B0A90207863
:1029F0000028CED0642808D0692806D075281ED0BB
:102A00005A460B9990476D1C58E00A994FF00A09F5
:102A100001C90A91002802DA40422D2102E039055D
:102A200004D52B218DF82010012103E0F90704D0F3
:102A30002021F7E78A4608AE0DE00021FAE70A995F
:102A40004FF00A0901C90A91F7E74946FDF79DFCD5
:102A5000303106F8011D0028F7D1ADEB060000F17A
:102A60002009780701D44FF00108C84502DDA8EB22
:102A7000090000E000208046002706E008A85A462A
:102A8000C05D0B9990476D1C7F1C5745F6DB04E039
:102A900030205A460B9990476D1CB8F10001A8F1FF
:102AA0000108F5DC05E016F8010B5A460B99904732
:102AB0006D1CB9F10001A9F10109F4DC641C65E7A2
:102AC0000928010010B504460420FEF75FFE014806
:102AD000046010BD3400002004480068C06840F065
:102AE000200002490968C8607047000038000020D3
:102AF00011B5002404E04FF47A7000F007F8641C6C
:102B0000BDF800008442F6D318BD000071B5002264
:102B10004FF0E0256C690E4E009D366805FB06F30C
:102B20004FF0E025A96910E04FF0E025A869884240
:102B30000BD0884202D20D1A2A4402E0251A0D4415
:102B40002A4401469A4200D300E0EDE700BF78BD79
:102B50003400002010B5D320FFF79CFBFFF7D8F816
:102B6000FD498880FFF7D4F8FB498880FFF7D0F84B
:102B7000F9498880084680884FF6FF7101EA0020F5
:102B8000F5498880FFF7C4F8F34989880843F2497A
:102B900088800846808849F2413188427DD00420EF
:102BA000FFF778FBFFF7B4F8EB498880FFF7B0F840
:102BB000E9498880FFF7ACF8E749888008468088B3
:102BC0004FF6FF7101EA0020E3498880FFF7A0F883
:102BD000E14989880843E04988800846808848F2AE
:102BE0005251884203D147F28970DB498880DA4824
:102BF000808847F289718842D0D0D420FFF74AFB01
:102C0000FFF786F8D4498880FFF782F8D249888098
:102C1000FFF77EF8D0498880084680884FF6FF711C
:102C200001EA0020CC498880FFF772F8CA498988F8
:102C30000843C94988800846808845F21031884297
:102C40006BD055214FF47040FFF73AFBAA214FF2A9
:102C50000100FFF735FB52214FF20200FFF730FB76
:102C600008214FF20300FFF72BFB01214FF2040074
:102C7000FFF726FB4FF44540FFF70CFBFFF748F842
:102C8000B5498880084680884FF6FF7101EA002028
:102C9000B14988804CF2015000E03EE0FFF7FAFABB
:102CA000FFF736F8AC4989880843AB49888005208E
:102CB000FFF71EFFA8488088B0F5004F03D145F20A
:102CC0001050A5498880A448808845F21051884258
:102CD00023D0A120FFF7DEFAFFF71AF89E4988807B
:102CE000FFF716F89C498880084680884FF6FF71E8
:102CF00001EA002098498880FFF70AF896498988F8
:102D00000843954988800846808845F26171884269
:102D100003D141F66310904988808F48808849F23A
:102D2000413188427ED1CF20FFF7B4FA0020FFF76F
:102D3000A5FAC120FFF7A2FA3020FFF79FFAED2095
:102D4000FFF7A8FA6420FFF799FA0320FFF796FA35
:102D50001220FFF793FA8120FFF790FAE820FFF79F
:102D600099FA8520FFF78AFA1020FFF787FA7A2070
:102D7000FFF784FACB20FFF78DFA3920FFF77EFAB0
:102D80002C20FFF77BFA0020FFF778FA3420FFF7BA
:102D900075FA0220FFF772FAF720FFF77BFA20207E
:102DA000FFF76CFAEA20FFF775FA0020FFF766FAE2
:102DB0000020FFF763FAC020FFF76CFA1B20FFF733
:102DC0005DFAC120FFF766FA0120FFF757FAC52028
:102DD000FFF760FA3020FFF751FA3020FFF74EFA84
:102DE000C720FFF757FAB720FFF748FA3620FFF75A
:102DF00051FA4820FFF742FA3A20FFF74BFA5520E4
:102E0000FFF73CFAB120FFF745FA0020FFF736FA4A
:102E10001A20FFF733FAB620FFF73CFA0A20FFF733
:102E20002DFA00E09AE0A220FFF728FAF220FFF73F
:102E300031FA0020FFF722FA2620FFF72BFA0120B3
:102E4000FFF71CFAE020FFF725FA0F20FFF716FA2C
:102E50002A20FFF713FA2820FFF710FA0820FFF7BF
:102E60000DFA0E20FFF70AFA0820FFF707FA5420A0
:102E7000FFF704FAA920FFF701FA4320FFF7FEF954
:102E80000A20FFF7FBF90F20FFF7F8F90020FFF702
:102E9000F5F90020FFF7F2F90020FFF7EFF9002025
:102EA000FFF7ECF9E120FFF7F5F90020FFF7E6F96D
:102EB0001520FFF7E3F91720FFF7E0F90720FFF7E8
:102EC000DDF91120FFF7DAF90620FFF7D7F92B20FB
:102ED000FFF7D4F95620FFF7D1F93C20FFF7CEF9E0
:102EE0000520FFF7CBF91020FFF7C8F90F20FFF7F7
:102EF000C5F93F20FFF7C2F93F20FFF7BFF90F20C8
:102F0000FFF7BCF92B20FFF7C5F90020FFF7B6F952
:102F10000020FFF7B3F90120FFF7B0F93F20FFF7DA
:102F2000ADF92A20FFF7B6F90020FFF7A7F9002036
:102F3000FFF7A4F90020FFF7A1F9EF20FFF79EF9B2
:102F40001120FFF7A7F97820FFF7D2FD2920FFF71E
:102F5000A1F902F0A9B80000F0000020FE48808826
:102F600047F2897188427CD11120FFF793F97820CC
:102F7000FFF7BEFD3620FFF78DF90020FFF77EF941
:102F80003A20FFF787F90520FFF778F9B220FFF71D
:102F900081F90C20FFF772F90C20FFF76FF9002080
:102FA000FFF76CF93320FFF769F93320FFF766F973
:102FB000B720FFF76FF93520FFF760F9BB20FFF767
:102FC00069F93220FFF75AF9C020FFF763F90C20A6
:102FD000FFF754F9C220FFF75DF90120FFF74EF922
:102FE000C320FFF757F91020FFF748F9C420FFF777
:102FF00051F92020FFF742F9C620FFF74BF90F20C7
:10300000FFF73CF9D020FFF745F9A420FFF736F988
:10301000A120FFF733F9E020FFF73CF9D020FFF7BC
:103020002DF90020FFF72AF90220FFF727F90720E2
:10303000FFF724F90A20FFF721F92820FFF71EF9EE
:103040003220FFF71BF94420FFF718F94220FFF761
:1030500015F90620FFF712F90E20FFF70FF91220DD
:1030600000E056E0FFF70AF91420FFF707F91720F0
:10307000FFF704F9E120FFF70DF9D020FFF7FEF884
:103080000020FFF7FBF80220FFF7F8F80720FFF712
:10309000F5F80A20FFF7F2F82820FFF7EFF83120C3
:1030A000FFF7ECF85420FFF7E9F84720FFF7E6F8C0
:1030B0000E20FFF7E3F81C20FFF7E0F81720FFF7DA
:1030C000DDF81B20FFF7DAF81E20FFF7D7F82A20DB
:1030D000FFF7E0F80020FFF7D1F80020FFF7CEF867
:1030E0000020FFF7CBF8EF20FFF7C8F82B20FFF701
:1030F000D1F80020FFF7C2F80020FFF7BFF8012049
:10310000FFF7BCF83F20FFF7B9F82920FFF7C2F816
:103110001FE79148808845F21031884240F07C8753
:10312000ED20FFF7B7F80120FFF7A8F8FE20FFF722
:10313000A5F8EE20FFF7AEF8DE20FFF79FF821207C
:10314000FFF79CF8F120FFF7A5F80120FFF796F8AC
:10315000DF20FFF79FF81020FFF790F8C420FFF75B
:1031600099F88F20FFF78AF8C620FFF793F8002020
:10317000FFF784F8E220FFF781F8E220FFF77EF8FE
:10318000E220FFF77BF8BF20FFF784F8AA20FFF7C3
:1031900075F8B020FFF77EF80D20FFF76FF80020DC
:1031A000FFF76CF80D20FFF769F80020FFF766F8CD
:1031B0001120FFF763F80020FFF760F81920FFF7F0
:1031C0005DF80020FFF75AF82120FFF757F800209C
:1031D000FFF754F82D20FFF751F80020FFF74EF8C5
:1031E0003D20FFF74BF80020FFF748F85D20FFF780
:1031F00045F80020FFF742F85D20FFF73FF8002078
:10320000FFF73CF8B120FFF745F88020FFF736F8CC
:103210000020FFF733F88B20FFF730F80020FFF78E
:103220002DF89620FFF72AF80020FFF727F8B220A4
:10323000FFF730F80020FFF721F80020FFF71EF815
:103240000220FFF71BF80020FFF718F80320FFF714
:1032500015F80020FFF712F8B320FFF71BF8002045
:10326000FFF70CF80020FFF709F80020FFF706F839
:103270000020FFF703F80020FFF700F80020FEF71A
:10328000FDFF0020FEF7FAFF0020FEF7F7FF002009
:10329000FEF7F4FF0020FEF7F1FF0020FEF7EEFF3F
:1032A0000020FEF7EBFF0020FEF7E8FF0020FEF70E
:1032B000E5FF0020FEF7E2FF0020FEF7DFFF002021
:1032C000FEF7DCFF0020FEF7D9FF0020FEF7D6FF57
:1032D0000020FEF7D3FF0020FEF7D0FF0020FEF70E
:1032E000CDFF0020FEF7CAFF0020FEF7C7FFB42085
:1032F000FEF7D0FF8B20FEF7C1FF0020FEF7BEFFD8
:103300009620FEF7BBFF0020FEF7B8FFA120FEF7D6
:10331000B5FF0020FEF7B2FFB520FEF7BBFF02208D
:10332000FEF7ACFF0020FEF7A9FF0320FEF7A6FF83
:103330000020FEF7A3FF0420FEF7A0FF0020FEF709
:103340009DFFB620FEF7A6FF0020FEF797FF0020A6
:10335000FEF794FFB72001E0F0000020FEF79AFF8F
:103360000020FEF78BFF0020FEF788FF3F20FEF7CE
:1033700085FF0020FEF782FF5E20FEF77FFF002022
:10338000FEF77CFF6420FEF779FF0020FEF776FF52
:103390008C20FEF773FF0020FEF770FFAC20FEF7D5
:1033A0006DFF0020FEF76AFFDC20FEF767FF0020BC
:1033B000FEF764FF7020FEF761FF0020FEF75EFF5E
:1033C0009020FEF75BFF0020FEF758FFEB20FEF792
:1033D00055FF0020FEF752FFDC20FEF74FFF0020D4
:1033E000FEF74CFFB820FEF755FF0020FEF746FF22
:1033F0000020FEF743FF0020FEF740FF0020FEF70D
:103400003DFF0020FEF73AFF0020FEF737FF0020C7
:10341000FEF734FF0020FEF731FFBA20FEF73AFF37
:103420002420FEF72BFF0020FEF728FF0020FEF7E8
:1034300025FF0020FEF722FFC120FEF72BFF2020F2
:10344000FEF71CFF0020FEF719FF5420FEF716FFC1
:103450000020FEF713FFFF20FEF710FF0020FEF70D
:103460000DFFC220FEF716FF0A20FEF707FF00201F
:10347000FEF704FF0420FEF701FF0020FEF7FEFE2A
:10348000C320FEF707FF3C20FEF7F8FE0020FEF702
:10349000F5FE3A20FEF7F2FE0020FEF7EFFE39209F
:1034A000FEF7ECFE0020FEF7E9FE3720FEF7E6FE11
:1034B0000020FEF7E3FE3C20FEF7E0FE0020FEF7D2
:1034C000DDFE3620FEF7DAFE0020FEF7D7FE3220C2
:1034D000FEF7D4FE0020FEF7D1FE2F20FEF7CEFE31
:1034E0000020FEF7CBFE2C20FEF7C8FE0020FEF7E2
:1034F000C5FE2920FEF7C2FE0020FEF7BFFE2620F3
:10350000FEF7BCFE0020FEF7B9FE2420FEF7B6FE53
:103510000020FEF7B3FE2420FEF7B0FE0020FEF7E9
:10352000ADFE2320FEF7AAFE0020FEF7A7FE3C20FA
:10353000FEF7A4FE0020FEF7A1FE3620FEF79EFE59
:103540000020FEF79BFE3220FEF798FE0020FEF7DB
:1035500095FE2F20FEF792FE0020FEF78FFE2C2016
:10356000FEF78CFE0020FEF789FE2920FEF786FE7E
:103570000020FEF783FE2620FEF780FE0020FEF7E7
:103580007DFE2420FEF77AFE0020FEF777FE242041
:10359000FEF774FE0020FEF771FE2320FEF76EFE9C
:1035A0000020FEF76BFEC420FEF774FE6220FEF7DB
:1035B00065FE0020FEF762FE0520FEF75FFE00209C
:1035C000FEF75CFE8420FEF759FE0020FEF756FE53
:1035D000F020FEF753FE0020FEF750FE1820FEF705
:1035E0004DFE0020FEF74AFEA420FEF747FE002015
:1035F000FEF744FE1820FEF741FE0020FEF73EFED7
:103600005020FEF73BFE0020FEF738FE0C20FEF7B0
:1036100035FE0020FEF732FE1720FEF72FFE0020B9
:10362000FEF72CFE9520FEF729FE0020FEF726FE71
:10363000F320FEF723FE0020FEF720FEE620FEF733
:103640001DFE0020FEF71AFEC520FEF723FE3220E5
:10365000FEF714FE0020FEF711FE4420FEF70EFEDA
:103660000020FEF70BFE6520FEF708FE0020FEF7A7
:1036700005FE7620FEF702FE0020FEF7FFFD882003
:10368000FEF7FCFD0020FEF7F9FDC620FEF702FE66
:103690002020FEF7F3FD0020FEF7F0FD1720FEF7D7
:1036A000EDFD0020FEF7EAFD0120FEF7E7FD00201A
:1036B000FEF7E4FDC720FEF7EDFD0020FEF7DEFD7E
:1036C0000020FEF7DBFD0020FEF7D8FD0020FEF70E
:1036D000D5FDC820FEF7DEFD0020FEF7CFFD00205F
:1036E000FEF7CCFD0020FEF7C9FD0020FEF7C6FD69
:1036F000C920FEF7CFFD0020FEF7C0FD0020FEF739
:10370000BDFD0020FEF7BAFD0020FEF7B7FD00204A
:10371000FEF7B4FD0020FEF7B1FD0020FEF7AEFD80
:103720000020FEF7ABFD0020FEF7A8FD0020FEF70D
:10373000A5FD0020FEF7A2FD0020FEF79FFD002062
:10374000FEF79CFD0020FEF799FD0020FEF796FD98
:103750000020FEF793FDE020FEF79CFD1620FEF70B
:103760008DFD0020FEF78AFD1C20FEF787FD00205E
:10377000FEF784FD2120FEF781FD0020FEF77EFD8F
:103780003620FEF77BFD0020FEF778FD4620FEF791
:1037900075FD0020FEF772FD5220FEF76FFD002040
:1037A000FEF76CFD6420FEF769FD0020FEF766FD64
:1037B0007A20FEF763FD0020FEF760FD8B20FEF708
:1037C0005DFD0020FEF75AFD9920FEF757FD002011
:1037D000FEF754FDA820FEF751FD0020FEF74EFD38
:1037E000B920FEF74BFD0020FEF748FDC420FEF790
:1037F00045FD0020FEF742FDCA20FEF73FFD0020F8
:10380000FEF73CFDD220FEF739FD0020FEF736FD25
:10381000D920FEF733FD0020FEF730FDE020FEF753
:103820002DFD0020FEF72AFDF320FEF727FD0020E6
:10383000FEF724FDE120FEF72DFD1620FEF71EFD0C
:103840000020FEF71BFD1C20FEF718FD0020FEF7F0
:1038500015FD2220FEF712FD0020FEF70FFD362099
:10386000FEF70CFD0020FEF709FD4520FEF706FDE2
:103870000020FEF703FD5220FEF700FD0020FEF7BA
:10388000FDFC6420FEF7FAFC0020FEF7F7FC7A202E
:10389000FEF7F4FC0020FEF7F1FC8B20FEF7EEFCB7
:1038A0000020FEF7EBFC9920FEF7E8FC0020FEF775
:1038B000E5FCA820FEF7E2FC0020FEF7DFFCB920C3
:1038C000FEF7DCFC0020FEF7D9FCC420FEF7D6FC96
:1038D0000020FEF7D3FCCA20FEF7D0FC0020FEF744
:1038E000CDFCD220FEF7CAFC0020FEF7C7FCD82092
:1038F000FEF7C4FC0020FEF7C1FCE020FEF7BEFC92
:103900000020FEF7BBFCF320FEF7B8FC0020FEF71A
:10391000B5FCE220FEF7BEFC0520FEF7AFFC002060
:10392000FEF7ACFC0B20FEF7A9FC0020FEF7A6FC7E
:103930001B20FEF7A3FC0020FEF7A0FC3420FEF7BE
:103940009DFC0020FEF79AFC4420FEF797FC002027
:10395000FEF794FC4F20FEF791FC0020FEF78EFC52
:103960006120FEF78BFC0020FEF788FC7920FEF733
:1039700085FC0020FEF782FC8820FEF77FFC0020FB
:10398000FEF77CFC9720FEF779FC0020FEF776FC22
:10399000A620FEF773FC0020FEF770FCB720FEF7B0
:1039A0006DFC0020FEF76AFCC220FEF767FC0020D9
:1039B000FEF764FCC720FEF761FC0020FEF75EFC0A
:1039C000D120FEF75BFC0020FEF758FCD620FEF766
:1039D00055FC0020FEF752FCDD20FEF74FFC0020D6
:1039E000FEF74CFCF320FEF749FC0020FEF746FCF6
:1039F000E320FEF74FFC0520FEF740FC0020FEF719
:103A00003DFC0A20FEF73AFC0020FEF737FC1C20A4
:103A1000FEF734FC0020FEF731FC3320FEF72EFCCD
:103A20000020FEF72BFC4420FEF728FC0020FEF7C8
:103A300025FC5020FEF722FC0020FEF71FFC622030
:103A4000FEF71CFC0020FEF719FC7820FEF716FCA0
:103A50000020FEF713FC8820FEF710FC0020FEF784
:103A60000DFC9720FEF70AFC0020FEF707FCA620BD
:103A7000FEF704FC0020FEF701FCB720FEF7FEFB7A
:103A80000020FEF7FBFBC220FEF7F8FB0020FEF74C
:103A9000F5FBC720FEF7F2FB0020FEF7EFFBD1207D
:103AA000FEF7ECFB0020FEF7E9FBD520FEF7E6FB76
:103AB0000020FEF7E3FBDD20FEF7E0FB0020FEF731
:103AC000DDFBF320FEF7DAFB0020FEF7D7FBE42056
:103AD000FEF7E0FB0120FEF7D1FB0020FEF7CEFB56
:103AE0000120FEF7CBFB0020FEF7C8FB0220FEF70B
:103AF000C5FB0020FEF7C2FB2A20FEF7BFFB00201B
:103B0000FEF7BCFB3C20FEF7B9FB0020FEF7B6FB3E
:103B10004B20FEF7B3FB0020FEF7B0FB5D20FEF765
:103B2000ADFB0020FEF7AAFB7420FEF7A7FB0020E8
:103B3000FEF7A4FB8420FEF7A1FB0020FEF79EFB0E
:103B40009320FEF79BFB0020FEF798FBA220FEF7D8
:103B500095FB0020FEF792FBB320FEF78FFB0020C1
:103B6000FEF78CFBBE20FEF789FB0020FEF786FBEC
:103B7000C420FEF783FB0020FEF780FBCD20FEF77C
:103B80007DFB0020FEF77AFBD320FEF777FB0020B9
:103B9000FEF774FBDD20FEF771FB0020FEF76EFBE5
:103BA000F320FEF76BFB0020FEF768FBE520FEF735
:103BB00071FB0020FEF762FB0020FEF75FFB002098
:103BC000FEF75CFB0020FEF759FB0220FEF756FBD8
:103BD0000020FEF753FB2920FEF750FB0020FEF7E4
:103BE0004DFB3C20FEF74AFB0020FEF747FB4B2035
:103BF000FEF744FB0020FEF741FB5D20FEF73EFB95
:103C00000020FEF73BFB7420FEF738FB0020FEF798
:103C100035FB8420FEF732FB0020FEF72FFB9320BC
:103C2000FEF72CFB0020FEF729FBA220FEF726FB67
:103C30000020FEF723FBB320FEF720FB0020FEF759
:103C40001DFBBE20FEF71AFB0020FEF717FBC42069
:103C5000FEF714FB0020FEF711FBCD20FEF70EFB54
:103C60000020FEF70BFBD320FEF708FB0020FEF739
:103C700005FBDC20FEF702FB0020FEF7FFFAF32035
:103C8000FEF7FCFA0020FEF7F9FAE620FEF702FB49
:103C90001120FEF7F3FA0020FEF7F0FA3420FEF7C9
:103CA000EDFA0020FEF7EAFA5620FEF7E7FA0020C8
:103CB000FEF7E4FA7620FEF7E1FA0020FEF7DEFADE
:103CC0007720FEF7DBFA0020FEF7D8FA6620FEF731
:103CD000D5FA0020FEF7D2FA8820FEF7CFFA0020AE
:103CE000FEF7CCFA9920FEF7C9FA0020FEF7C6FAD3
:103CF000BB20FEF7C3FA0020FEF7C0FA9920FEF7BA
:103D0000BDFA0020FEF7BAFA6620FEF7B7FA0020E7
:103D1000FEF7B4FA5520FEF7B1FA0020FEF7AEFA2E
:103D20005520FEF7ABFA0020FEF7A8FA4520FEF773
:103D3000A5FA0020FEF7A2FA4320FEF79FFA002022
:103D4000FEF79CFA4420FEF799FA0020FEF796FA57
:103D5000E720FEF79FFA3220FEF790FA0020FEF7E8
:103D60008DFA5520FEF78AFA0020FEF787FA7620B2
:103D7000FEF784FA0020FEF781FA6620FEF77EFA4D
:103D80000020FEF77BFA6720FEF778FA0020FEF7A6
:103D900075FA6720FEF772FA0020FEF76FFA8720A7
:103DA000FEF76CFA0020FEF769FA9920FEF766FA32
:103DB0000020FEF763FABB20FEF760FA0020FEF752
:103DC0005DFA9920FEF75AFA0020FEF757FA77209D
:103DD000FEF754FA0020FEF751FA4420FEF74EFA9F
:103DE0000020FEF74BFA5620FEF748FA0020FEF7B7
:103DF00045FA2320FEF742FA0020FEF73FFA33206F
:103E0000FEF73CFA0020FEF739FA4520FEF736FAB5
:103E10000020FEF733FAE820FEF73CFA0020FEF718
:103E20002DFA0020FEF72AFA9920FEF727FA002043
:103E3000FEF724FA8720FEF721FA0020FEF71EFA8B
:103E40008820FEF71BFA0020FEF718FA7720FEF70D
:103E500015FA0020FEF712FA6620FEF70FFA00208E
:103E6000FEF70CFA8820FEF709FA0020FEF706FAA2
:103E7000AA20FEF703FA0020FEF700FABB20FEF7A7
:103E8000FDF90020FEF7FAF99920FEF7F7F9002076
:103E9000FEF7F4F96620FEF7F1F90020FEF7EEF9DF
:103EA0005520FEF7EBF90020FEF7E8F95520FEF764
:103EB000E5F90020FEF7E2F94420FEF7DFF90020E3
:103EC000FEF7DCF94420FEF7D9F90020FEF7D6F919
:103ED0005520FEF7D3F90020FEF7D0F9E920FEF7D0
:103EE000D9F9AA20FEF7CAF90020FEF7C7F9002089
:103EF000FEF7C4F90020FEF7C1F90020FEF7CAF969
:103F0000AA20FEF7BBF9CF20FEF7C4F90020FEF788
:103F1000B5F90020FEF7B2F90020FEF7AFF9002056
:103F2000FEF7ACF90020FEF7A9F90020FEF7A6F98C
:103F30000020FEF7A3F90020FEF7A0F90020FEF70D
:103F40009DF90020FEF79AF90020FEF797F900206E
:103F5000FEF794F90020FEF791F90020FEF78EF9A4
:103F60000020FEF78BF90020FEF788F90020FEF70D
:103F700085F9F020FEF78EF90020FEF77FF950203A
:103F8000FEF77CF90020FEF779F90020FEF776F9BC
:103F90000020FEF773F9F320FEF77CF90020FEF70E
:103FA0006DF9F920FEF776F90620FEF767F9102083
:103FB000FEF764F92920FEF761F90020FEF75EF9AB
:103FC0003A20FEF767F95520FEF758F91120FEF761
:103FD00061F96420FEF79AFD2920FEF75BF9352090
:103FE000FEF758F90020FEF749F95120FEF752F983
:103FF000FF20FEF743F95320FEF74CF92C20FEF783
:104000003DF95520FEF746F98220FEF737F92C20BE
:10401000FEF740F901F048B8FE48808845F210519B
:1040200088427DD155214FF47040FEF749F9AA210D
:104030004FF20100FEF744F952214FF20200FEF761
:104040003FF908214FF20300FEF73AF901214FF240
:104050000400FEF735F90D214FF43040FEF730F93A
:104060000D214BF20100FEF72BF90D214BF202005E
:10407000FEF726F934214FF43640FEF721F93421BA
:104080004BF20160FEF71CF934214BF20260FEF79F
:1040900017F90D214FF43140FEF712F90D214BF2C3
:1040A0000110FEF70DF90D214BF20210FEF708F991
:1040B00034214FF43740FEF703F934214BF20170FD
:1040C000FEF7FEF834214BF20270FEF7F9F80021FA
:1040D0004FF43240FEF7F4F800214BF20120FEF7D6
:1040E000EFF800214BF20220FEF7EAF824214FF40A
:1040F0003840FEF7E5F824214BF60100FEF7E0F822
:1041000024214BF60200FEF7DBF801214FF43F407B
:10411000FEF7D6F80F214FF43340FEF7D1F800E058
:10412000FDE30F214BF20130FEF7CAF80F214BF2ED
:104130000230FEF7C5F834214FF43940FEF7C0F8DD
:1041400034214BF60110FEF7BBF834214BF6021078
:10415000FEF7B6F808214FF43540FEF7B1F8082114
:104160004BF20150FEF7ACF808214BF20250FEF77B
:10417000A7F803214FF44240FEF7A2F824214FF4A0
:104180003A40FEF79DF824214BF60120FEF798F8FF
:1041900024214BF60220FEF793F800214FF43C4017
:1041A000FEF78EF878214BF60140FEF789F80021E2
:1041B0004BF60240FEF784F800214FF43D40FEF735
:1041C0007FF878214BF60150FEF77AF800214BF684
:1041D0000250FEF775F800214FF43E40FEF770F8EC
:1041E00064214BF60160FEF76BF800214FF451405B
:1041F000FEF766F833214DF20110FEF761F8002159
:104200004DF20210FEF75CF834214DF20310FEF778
:1042100057F800214DF20410FEF752F83A214DF202
:104220000510FEF74DF800214DF20610FEF748F894
:104230004A214DF20710FEF743F800214DF2081015
:10424000FEF73EF85C214DF20910FEF739F8002127
:104250004DF20A10FEF734F881214DF20B10FEF7F3
:104260002FF800214DF20C10FEF72AF8A6214DF28E
:104270000D10FEF725F800214DF20E10FEF720F884
:10428000E5214DF20F10FEF71BF801214DF2101041
:10429000FEF716F813214DF21110FEF711F8012167
:1042A0004DF21210FEF70CF854214DF21310FEF7E8
:1042B00007F801214DF21410FEF702F882214DF2A9
:1042C0001510FDF7FDFF01214DF21610FDF7F8FF67
:1042D000CA214DF21710FDF7F3FF02214DF218101D
:1042E000FDF7EEFF00214DF21910FDF7E9FF022165
:1042F0004DF21A10FDF7E4FF01214DF21B10FDF7FE
:10430000DFFF02214DF21C10FDF7DAFF34214DF2E0
:104310001D10FDF7D5FF02214DF21E10FDF7D0FF55
:1043200067214DF21F10FDF7CBFF02214DF2201047
:10433000FDF7C6FF84214DF22110FDF7C1FF0221D8
:104340004DF22210FDF7BCFFA4214DF22310FDF722
:10435000B7FF02214DF22410FDF7B2FFB7214DF255
:104360002510FDF7ADFF02214DF22610FDF7A8FF45
:10437000CF214DF22710FDF7A3FF02214DF22810A7
:10438000FDF79EFFDE214DF22910FDF799FF022176
:104390004DF22A10FDF794FFF2214DF22B10FDF79C
:1043A0008FFF02214DF22C10FDF78AFFFE214DF206
:1043B0002D10FDF785FF03214DF22E10FDF780FF34
:1043C00010214DF22F10FDF77BFF03214DF230102D
:1043D000FDF776FF33214DF23110FDF771FF032118
:1043E0004DF23210FDF76CFF6D214DF23310FDF7E9
:1043F00067FF00214FF45240FDF762FF33214DF279
:104400000120FDF75DFF00214DF20220FDF758FF6E
:10441000342101E0F00000204DF20320FDF750FFB1
:1044200000214DF20420FDF74BFF3A214DF205200B
:10443000FDF746FF00214DF20620FDF741FF4A211E
:104440004DF20720FDF73CFF00214DF20820FDF75B
:1044500037FF5C214DF20920FDF732FF00214DF2BC
:104460000A20FDF72DFF81214DF20B20FDF728FFDB
:1044700000214DF20C20FDF723FFA6214DF20D2067
:10448000FDF71EFF00214DF20E20FDF719FFE5217B
:104490004DF20F20FDF714FF01214DF21020FDF722
:1044A0000FFF13214DF21120FDF70AFF01214DF2FC
:1044B0001220FDF705FF54214DF21320FDF700FFF8
:1044C00001214DF21420FDF7FBFE82214DF2152053
:1044D000FDF7F6FE01214DF21620FDF7F1FECA218F
:1044E0004DF21720FDF7ECFE02214DF21820FDF7EA
:1044F000E7FE00214DF21920FDF7E2FE02214DF208
:104500001A20FDF7DDFE01214DF21B20FDF7D8FE3C
:1045100002214DF21C20FDF7D3FE34214DF21D2067
:10452000FDF7CEFE02214DF21E20FDF7C9FE6721E8
:104530004DF21F20FDF7C4FE02214DF22020FDF7B1
:10454000BFFE84214DF22120FDF7BAFE02214DF27B
:104550002220FDF7B5FEA4214DF22320FDF7B0FE89
:1045600002214DF22420FDF7ABFEB7214DF22520AC
:10457000FDF7A6FE02214DF22620FDF7A1FECF2178
:104580004DF22720FDF79CFE02214DF22820FDF779
:1045900097FEDE214DF22920FDF792FE02214DF219
:1045A0002A20FDF78DFEF2214DF22B20FDF788FE2B
:1045B00002214DF22C20FDF783FEFE214DF22D202D
:1045C000FDF77EFE03214DF22E20FDF779FE10212E
:1045D0004DF22F20FDF774FE03214DF23020FDF740
:1045E0006FFE33214DF23120FDF76AFE03214DF2BB
:1045F0003220FDF765FE6D214DF23320FDF760FEA0
:1046000000214FF45340FDF75BFE33214DF20130A2
:10461000FDF756FE00214DF20230FDF751FE342128
:104620004DF20330FDF74CFE00214DF20430FDF752
:1046300047FE3A214DF20530FDF742FE00214DF2D2
:104640000630FDF73DFE4A214DF20730FDF738FEFA
:1046500000214DF20830FDF733FE5C214DF20930A8
:10466000FDF72EFE00214DF20A30FDF729FE8121D3
:104670004DF20B30FDF724FE00214DF20C30FDF71A
:104680001FFEA6214DF20D30FDF71AFE00214DF25E
:104690000E30FDF715FEE5214DF20F30FDF710FE4F
:1046A00001214DF21030FDF70BFE13214DF21130B8
:1046B000FDF706FE01214DF21230FDF701FE5421F7
:1046C0004DF21330FDF7FCFD01214DF21430FDF7E2
:1046D000F7FD82214DF21530FDF7F2FD01214DF27B
:1046E0001630FDF7EDFDCA214DF21730FDF7E8FD5C
:1046F00002214DF21830FDF7E3FD00214DF2193093
:10470000FDF7DEFD02214DF21A30FDF7D9FD012142
:104710004DF21B30FDF7D4FD02214DF21C30FDF7A8
:10472000CFFD34214DF21D30FDF7CAFD02214DF2BF
:104730001E30FDF7C5FD67214DF21F30FDF7C0FDAE
:1047400002214DF22030FDF7BBFD84214DF22130D6
:10475000FDF7B6FD02214DF22230FDF7B1FDA42197
:104760004DF22330FDF7ACFD02214DF22430FDF770
:10477000A7FDB7214DF22530FDF7A2FD02214DF234
:104780002630FDF79DFDCF214DF22730FDF798FD36
:1047900002214DF22830FDF793FDDE214DF2293044
:1047A000FDF78EFD02214DF22A30FDF789FDF22141
:1047B0004DF22B30FDF784FD02214DF22C30FDF738
:1047C0007FFDFE214DF22D30FDF77AFD03214DF2E4
:1047D0002E30FDF775FD10214DF22F30FDF770FDE5
:1047E00003214DF23030FDF76BFD33214DF23130B6
:1047F000FDF766FD03214DF23230FDF761FD6D21BD
:104800004DF23330FDF75CFD00214FF45440FDF7CD
:1048100057FD33214DF20140FDF752FD00214DF2CD
:104820000240FDF74DFD34214DF20340FDF748FDF8
:1048300000214DF20440FDF743FD3A214DF20540C1
:10484000FDF73EFD00214DF20640FDF739FD4A21FE
:104850004DF20740FDF734FD00214DF20840FDF711
:104860002FFD5C214DF20940FDF72AFD00214DF29C
:104870000A40FDF725FD81214DF20B40FDF720FD9B
:1048800000214DF20C40FDF71BFDA6214DF20D401D
:10489000FDF716FD00214DF20E40FDF711FDE5215B
:1048A0004DF20F40FDF70CFD01214DF21040FDF7D8
:1048B00007FD13214DF21140FDF702FD01214DF2DC
:1048C0001240FDF7FDFC54214DF21340FDF7F8FCBA
:1048D00001214DF21440FDF7F3FC82214DF2154009
:1048E000FDF7EEFC01214DF21640FDF7E9FCCA216F
:1048F0004DF21740FDF7E4FC02214DF21840FDF7A0
:10490000DFFC00214DF21940FDF7DAFC02214DF2E7
:104910001A40FDF7D5FC01214DF21B4000E005E3F4
:10492000FDF7CEFC02214DF21C40FDF7C9FC3421FD
:104930004DF21D40FDF7C4FC02214DF21E40FDF773
:10494000BFFC67214DF21F40FDF7BAFC02214DF27A
:104950002040FDF7B5FC84214DF22140FDF7B0FC6D
:1049600002214DF22240FDF7ABFCA4214DF2234081
:10497000FDF7A6FC02214DF22440FDF7A1FCB72172
:104980004DF22540FDF79CFC02214DF22640FDF73B
:1049900097FCCF214DF22740FDF792FC02214DF20A
:1049A0002840FDF78DFCDE214DF22940FDF788FC03
:1049B00002214DF22A40FDF783FCF2214DF22B40FB
:1049C000FDF77EFC02214DF22C40FDF779FCFE2123
:1049D0004DF22D40FDF774FC03214DF22E40FDF702
:1049E0006FFC10214DF22F40FDF76AFC03214DF2C0
:1049F0003040FDF765FC33214DF23140FDF760FC9E
:104A000003214DF23240FDF75BFC6D214DF2334046
:104A1000FDF756FC00214FF45540FDF751FC3321C2
:104A20004DF20150FDF74CFC00214DF20250FDF714
:104A300047FC34214DF20350FDF742FC00214DF2BA
:104A40000450FDF73DFC3A214DF20550FDF738FCCE
:104A500000214DF20650FDF733FC4A214DF207507C
:104A6000FDF72EFC00214DF20850FDF729FC5C21DA
:104A70004DF20950FDF724FC00214DF20A50FDF7DC
:104A80001FFC81214DF20B50FDF71AFC00214DF265
:104A90000C50FDF715FCA6214DF20D50FDF710FC52
:104AA00000214DF20E50FDF70BFCE5214DF20F50A9
:104AB000FDF706FC01214DF21050FDF701FC13211A
:104AC0004DF21150FDF7FCFB01214DF21250FDF7A4
:104AD000F7FB54214DF21350FDF7F2FB01214DF28B
:104AE0001450FDF7EDFB82214DF21550FDF7E8FB68
:104AF00001214DF21650FDF7E3FBCA214DF217508C
:104B0000FDF7DEFB02214DF21850FDF7D9FB002125
:104B10004DF21950FDF7D4FB02214DF21A50FDF76A
:104B2000CFFB01214DF21B50FDF7CAFB02214DF2D4
:104B30001C50FDF7C5FB34214DF21D50FDF7C0FBA5
:104B400002214DF21E50FDF7BBFB67214DF21F50B5
:104B5000FDF7B6FB02214DF22050FDF7B1FB842199
:104B60004DF22150FDF7ACFB02214DF22250FDF732
:104B7000A7FBA4214DF22350FDF7A2FB02214DF229
:104B80002450FDF79DFBB7214DF22550FDF798FB12
:104B900002214DF22650FDF793FBCF214DF2275015
:104BA000FDF78EFB02214DF22850FDF789FBDE2137
:104BB0004DF22950FDF784FB02214DF22A50FDF7FA
:104BC0007FFBF2214DF22B50FDF77AFB02214DF2D3
:104BD0002C50FDF775FBFE214DF22D50FDF770FBBB
:104BE00003214DF22E50FDF76BFB10214DF22F509B
:104BF000FDF766FB03214DF23050FDF761FB3321D9
:104C00004DF23150FDF75CFB03214DF23250FDF7C0
:104C100057FB6D214DF23350FDF752FB00214FF44D
:104C20005640FDF74DFB33214DF20160FDF748FB87
:104C300000214DF20260FDF743FB34214DF2036089
:104C4000FDF73EFB00214DF20460FDF739FB3A21F0
:104C50004DF20560FDF734FB00214DF20660FDF7D3
:104C60002FFB4A214DF20760FDF72AFB00214DF290
:104C70000860FDF725FB5C214DF20960FDF720FB84
:104C800000214DF20A60FDF71BFB81214DF20B6004
:104C9000FDF716FB00214DF20C60FDF711FBA6217C
:104CA0004DF20D60FDF70CFB00214DF20E60FDF79B
:104CB00007FBE5214DF20F60FDF702FB01214DF2EC
:104CC0001060FDF7FDFA13214DF21160FDF7F8FABF
:104CD00001214DF21260FDF7F3FA54214DF21360F9
:104CE000FDF7EEFA01214DF21460FDF7E9FA822199
:104CF0004DF21560FDF7E4FA01214DF21660FDF763
:104D0000DFFACA214DF21760FDF7DAFA02214DF2FF
:104D10001860FDF7D5FA00214DF21960FDF7D0FAC1
:104D200002214DF21A60FDF7CBFA01214DF21B6012
:104D3000FDF7C6FA02214DF21C60FDF7C1FA3421DD
:104D40004DF21D60FDF7BCFA02214DF21E60FDF729
:104D5000B7FA67214DF21F60FDF7B2FA02214DF25A
:104D60002060FDF7ADFA84214DF22160FDF7A8FA2D
:104D700002214DF22260FDF7A3FAA4214DF2236037
:104D8000FDF79EFA02214DF22460FDF799FAB72152
:104D90004DF22560FDF794FA02214DF22660FDF7F1
:104DA0008FFACF214DF22760FDF78AFA02214DF2EA
:104DB0002860FDF785FADE214DF22960FDF780FAC3
:104DC00002214DF22A60FDF77BFAF2214DF22B60B1
:104DD000FDF776FA02214DF22C60FDF771FAFE2103
:104DE0004DF22D60FDF76CFA03214DF22E60FDF7B8
:104DF00067FA10214DF22F60FDF762FA03214DF2A0
:104E00003060FDF75DFA33214DF23160FDF758FA5D
:104E100003214DF23260FDF753FA6D214DF23360FC
:104E2000FDF74EFA55214FF47040FDF749FAAA21DB
:104E30004FF20100FDF744FA52214FF20200FDF754
:104E40003FFA08214FF20300FDF73AFA00214FF232
:104E50000400FDF735FACC214FF43140FDF730FA6C
:104E600000214BF20110FDF72BFA05214FF43640DB
:104E7000FDF726FA70214FF43740FDF721FA702133
:104E80004BF20170FDF71CFA01214FF43840FDF799
:104E900017FA03214BF60100FDF712FA03214BF636
:104EA0000200FDF70DFA03214BF60300FDF708FAA7
:104EB00002214FF43C40FDF703FA00214BF601407C
:104EC000FDF7FEF900214BF60240FDF7F9F9D0217C
:104ED0004FF44940FDF7F4F902214CF60110FDF7BB
:104EE000EFF950214CF60210FDF7EAF950214CF68B
:104EF0000310FDF7E5F950214CF60410FDF7E0F939
:104F000000214FF45450FDF7DBF955214FF4685060
:104F1000FDF7D6F94FF48850FDF7BCF97820FDF77E
:104F2000F5FD4FF42450FDF7B5F9BDE08A488088BF
:104F300041F663118842F8D1E220FDF7ABF91D205C
:104F4000FDF79CF90220FDF799F90420FDF796F989
:104F50006420FDF7DBFDE020FDF79CF90120FDF763
:104F60008DF90A20FDF7C4FDE020FDF793F9032039
:104F7000FDF784F90C20FDF7BBFD0120FDF78AF950
:104F80000A20FDF7B5FDE620FDF784F92F20FDF797
:104F900075F9FF20FDF772F9FF20FDF76FF9B020DA
:104FA000FDF778F92020FDF769F90020FDF766F993
:104FB0000320FDF763F940F21F30FDF75FF9012090
:104FC000FDF75CF940F2DF10FDF758F90020FDF71E
:104FD00055F9B420FDF75EF90420FDF74FF940F2D2
:104FE0001F40FDF74BF90020FDF748F92E20FDF793
:104FF00045F90020FDF742F90020FDF73FF90020B8
:10500000FDF73CF90020FDF739F9B620FDF742F92C
:105010000220FDF733F94FF40370FDF72FF900205C
:10502000FDF72CF91720FDF729F91520FDF726F9D2
:105030000020FDF723F90020FDF720F9F020FDF70F
:1050400029F90320FDF71AF92920FDF723F9D020CB
:10505000FDF720F90020FDF711F9BE20FDF71AF940
:105060000520FDF70BF9FE20FDF708F90120FDF7FB
:1050700005F90020FDF702F90020FDF7FFF80020F8
:10508000FDF7FCF8B820FDF705F90320FDF7F6F869
:105090000120FDF7F3F8BA20FDF7FCF80120FDF739
:1050A000EDF86420FCF73EFE2B48808849F2413140
:1050B000884217D02848808847F28971884211D0E9
:1050C0002548808845F2103188420BD022488088DC
:1050D00045F21051884205D01F48808841F663117F
:1050E00088422CD11D48006820F00F004FF020416D
:1050F000C1F81C010846D0F81C0120F47060C1F80A
:105100001C010846D0F81C0140F00300C1F81C0146
:105110001148808847F28971884208D10F48006899
:1051200040F440704FF02041C1F81C0107E00B48EB
:10513000006840F400704FF02041C1F81C010020CD
:10514000FCF7AAFC0122D1030548FBF783FE4FF6CA
:10515000FF70FCF787FC10BDF00000201C0100A0D0
:105160000004024000BF054A126802F04002002A13
:10517000F9D0C2B2014B5A607047000000100140E4
:1051800010B50446206807490840B0F1005F08D117
:105190006068054908602068FBF707F80248006866
:1051A000804710BD0000FE2F300000202DE9F05F89
:1051B0000746884691460025BB464446AA461DE060
:1051C000E0780606A07846EA0046607846EA0026BF
:1051D00020780643241D2846691C8DB20C4941F8ED
:1051E0002060B5F5007F07D100254FF400725846C6
:1051F000FBF71CFB0BF5006B0AF1040ACA45DFD371
:1052000025B12A4602495846FBF710FBBDE8F09F3E
:1052100000010020002107E042F6E06100BF0A1E05
:10522000A1F1010399B2FAD1021EA0F1010398B2D3
:10523000F2D170471CB50026B0460025FBF716FEDC
:10524000FDF75EF9FDF784F8FDF744F8FDF734F952
:10525000A820FDF737FCFDF73FFCFDF77BFC4FF680
:10526000FF70FCF7FFFB4FF478408A4908608AA082
:1052700010210B46C822CDE9001032211E20FCF778
:10528000C9FF8AA010210B46C822CDE90010462193
:105290001E20FCF7BFFF88A010210B46C822CDE9D5
:1052A00000105A211E20FCF7B5FF87A010210B46E5
:1052B000C822CDE900106E211E20FCF7ABFF85A0AF
:1052C00010210B46C822CDE9001082211E20FCF7D8
:1052D000A1FF86A010210B46C822CDE9001096211F
:1052E0001E20FCF797FF86A010210B46C822CDE9AF
:1052F0000010AA211E20FCF78DFF86A010210B466E
:10530000C822CDE90010BE211E20FCF783FF1F201C
:1053100060490860BCE084480068B0B18248006819
:1053200080450ED1804805684FF0000800207E4976
:1053300008607EA0FDF7E0FA294681A0FDF7DCFABF
:1053400003E0794800881FFA80F8781CC7B20A2069
:10535000FDF7CEFB1E2F12D14FF480617D48FBF785
:105360006FFD00275EB1701EC6B246B94FF6FF70E2
:10537000E223F022D22100901E20FCF79FFC0020A7
:10538000FCF71EFB0446032C44D1002D34D072A040
:10539000FDF7B2FA75A010210B46C822CDE9001026
:1053A000D2211E20FCF736FF7648406800F07F408F
:1053B000B0F1006F12D12A4673497448FFF7F6FE28
:1053C00073A010210B46C822CDE90010D2211E2067
:1053D000FCF720FF74A0FDF78FFA1AE076A01021E9
:1053E0000B46C822CDE90010D2211E20FCF712FF87
:1053F00077A0FDF781FA0CE07AA0FDF77DFA7FA097
:1054000010210B46C822CDE90010D2211E20FCF746
:1054100001FF0726012C1DD175B17AA0FDF76CFAAA
:105420007CA010210B46C822CDE90010D2211E20FD
:10543000FCF7F0FE00250CE07CA0FDF75DFA81A0F2
:1054400010210B46C822CDE90010D2211E20FCF706
:10545000E1FE0726022C1BD17EA0FDF74DFA4B483A
:10546000406800F07F40B0F1006F03D14748FFF77C
:1054700087FE0CE07EA0FDF73FFA84A010210B46CA
:10548000C822CDE90010D2211E20FCF7C3FE07265A
:1054900041E700001C0000204578706C6F72657257
:1054A0002053544D3332463400000000494150200F
:1054B000544553540000000041544F4D40414C4965
:1054C000454E54454B000000323031372F352F38D0
:1054D000000000004B45595F55503A436F707920EA
:1054E00041505032464C4153480000004B45593121
:1054F0003A4572617365205352414D20415050002E
:105500004B4559303A52756E205352414D2041500F
:10551000500000004B4559323A52756E20464C41BE
:1055200053482041505000002C000020D3C3BBA79B
:10553000B3CCD0F2BDD3CAD5CDEAB3C9210D0A0090
:10554000B4FAC2EBB3A4B6C83A2564427974657361
:105550000D0A000000140240BFAACABCB8FCD0C2A9
:10556000B9CCBCFE2E2E2E0D0A000000436F7079C0
:10557000696E672041505032464C4153482E2E2EC2
:1055800000000000001000200010002000000108B2
:10559000436F707920415050205375636365737376
:1055A0006564212100000000B9CCBCFEB8FCD0C26B
:1055B000CDEAB3C9210D0A00496C6C6567616C20A6
:1055C000464C41534820415050212020000000000B
:1055D000B7C7464C415348D3A6D3C3B3CCD0F2216E
:1055E0000D0A0000C3BBD3D0BFC9D2D4B8FCD0C20F
:1055F000B5C4B9CCBCFE210D0A0000004E6F20419D
:1056000050502100B9CCBCFEC7E5B3FDCDEAB3C90B
:10561000210D0A0041505020457261736520537579
:10562000636365737365642100000000C3BBD3D05E
:10563000BFC9D2D4C7E5B3FDB5C4B9CCBCFE210DFA
:105640000A0000004E6F2041505020436C6561728B
:1056500021000000BFAACABCD6B4D0D0464C4153EA
:1056600048D3C3BBA7B4FAC2EB21210D0A00000046
:10567000B7C7464C415348D3A6D3C3B3CCD0F22CC2
:10568000CEDEB7A8D6B4D0D0210D0A00496C6C6527
:1056900067616C20464C4153482041505021000026
:1056A00008B50F4800680068C0F34010B0B14FF46F
:1056B0007A73012269460A48FCF71EF90948006816
:1056C000B0F5F03F0AD29DF800000749054A12687C
:1056D000885404480068401C0249086008BD000066
:1056E000380000202C0000200010002000000000E6
:1056F0000000000001020304060708090000000082
:10570000010203040000000000000000000000008F
:10571000000000003F4000000000000000003000DA
:10572000400030004000000009000BC03D000BC0ED
:105730003D00090018C024407FE022403180000075
:10574000180024C01B000D803240018003801C40E3
:1057500027401C800740004010006000000000004F
:10576000000000000000000000001F8020404020DA
:105770000000402020401F800000000009000600BB
:105780001F80060009000000040004003F800400A0
:105790000400000000100060000000000000000095
:1057A00004000400040004000400000000000040A5
:1057B0000000000000000000002001C006003800CA
:1057C000400000001F802040204020401F8000003B
:1057D000000010403FC000400000000018C0214001
:1057E00022402440184000001080204024402440E3
:1057F0001B80000002000D0011003FC001400000AE
:105800003C80244024402440238000001F8024400A
:1058100024403440038000003000200027C03800BE
:10582000200000001B802440244024401B800000F6
:105830001C0022C0224022401F8000000000000007
:1058400008400000000000000000000004600000AC
:1058500000000000000004000A0011002080404009
:10586000090009000900090009000000000040408B
:10587000208011000A0004001800200023402400AA
:10588000180000001F802040274029401F400000D2
:10589000004007C039000F0001C0004020403FC059
:1058A000244024401B8000001F80204020402040D6
:1058B0003080000020403FC0204020401F8000007A
:1058C00020403FC024402E4030C0000020403FC058
:1058D00024402E00300000000F00108020402240A5
:1058E0003380020020403FC0040004003FC020403D
:1058F000204020403FC02040204000000060202089
:1059000020203FC02000200020403FC024400B004A
:1059100030C0204020403FC020400040004000C038
:105920003FC03C0003C03C003FC0000020403FC0DF
:105930000C4023003FC020001F802040204020401A
:105940001F80000020403FC02440240018000000B9
:105950001F802140214020E01FA0000020403FC0C8
:105960002440260019C0004018C024402440224092
:1059700031800000300020403FC020403000000057
:1059800020003F80004000403F80200020003E007B
:1059900001C0070038002000380007C03C0007C0E5
:1059A00038000000204039C0060039C02040000007
:1059B0002000384007C0384020000000304021C09F
:1059C0002640384020C00000000000007FE040205A
:1059D00040200000000070000C0003800040000028
:1059E0000000402040207FE0000000000000200078
:1059F0004000200000000000001000100010001007
:105A00000010001000000000400000000000000036
:105A1000000002800540054003C0004020003FC058
:105A20000440044003800000000003800440044060
:105A30000640000000000380044024403FC00040B6
:105A400000000380054005400340000000000440C2
:105A50001FC0244024402000000002E005500550F3
:105A60000650042020403FC00440040003C0004012
:105A70000000044027C0004000000000001000109B
:105A8000041027E00000000020403FC00140070054
:105A900004C00440204020403FC0004000400000BF
:105AA00007C0040007C0040003C00000044007C092
:105AB0000440040003C00040000003800440044090
:105AC00003800000041007F004500440038000002D
:105AD000000003800440045007F00010044007C099
