:020000040800F2
:10000000900C0020B1010008A917000897150008FE
:10001000A5170008E9020008A91B0008000000005D
:10002000000000000000000000000000AF17000802
:10003000ED02000800000000AD170008B11700082D
:10004000CB010008CB010008CB010008CB01000860
:10005000CB010008CB010008CB010008CB01000850
:10006000CB010008CB010008CB010008CB01000840
:10007000CB010008CB010008CB010008CB01000830
:10008000CB010008CB010008CB010008CB01000820
:10009000CB010008CB010008CB010008CB01000810
:1000A000CB010008CB010008CB010008CB01000800
:1000B000CB010008CB010008CB010008CB010008F0
:1000C000CB010008CB010008CB010008CB010008E0
:1000D000CB010008A11B0008CB010008CB010008E0
:1000E000CB010008CB010008CB010008CB010008C0
:1000F000CB010008CB010008CB010008CB010008B0
:10010000CB010008CB010008CB010008CB0100089F
:10011000CB010008CB010008CB010008CB0100088F
:10012000CB010008CB010008CB010008CB0100087F
:10013000CB010008CB010008CB010008CB0100086F
:10014000CB010008CB010008CB010008CB0100085F
:10015000CB010008CB010008CB010008CB0100084F
:10016000CB010008CB010008CB010008CB0100083F
:10017000CB010008CB010008CB0100080000000003
:10018000CB010008CB010008DFF810D000F09AF88E
:1001900000480047D91E0008AFF30080900C0020F3
:1001A00030BF72B6704762B6704780F308887047F8
:1001B0000648804706480047FEE7FEE7FEE7FEE701
:1001C000FEE7FEE7FEE7FEE7FEE7FEE76918000848
:1001D000890100082DE9F05F0546002092469B4604
:1001E00088460646814640241BE02846414647464D
:1001F000224600F057F853465A46C01A914110D390
:1002000011461846224600F03EF82D1A67EB010809
:100210004F4622460120002100F035F817EB000977
:100220004E41201EA4F10104DFDC484631462A4637
:100230004346BDE8F09FD2B201E000F8012B491E11
:10024000FBD270470022F6E710B513460A46044673
:100250001946FFF7F0FF204610BD30B50B460146AA
:1002600000202022012409E021FA02F59D4205D355
:1002700003FA02F5491B04FA02F52844151EA2F1FF
:100280000102F1DC30BD202A04DB203A00FA02F141
:10029000002070479140C2F1200320FA03F3194374
:1002A00090407047202A04DB203A21FA02F0002116
:1002B000704721FA02F3D040C2F120029140084376
:1002C00019467047064C074D06E0E06840F0010310
:1002D00094E8070098471034AC42F6D3FFF758FF74
:1002E00094230008B423000800BFFEE7704772B6ED
:1002F00000BFFEE710B5002201B909E0012901D1D4
:100300000A0205E0022901D10A0201E04FF440721D
:100310000E4B1B6823F440730C4C236023461B6870
:100320001343236023461B6823F0F803236023460E
:100330001B68022444EAC0042343044C2360234680
:100340001B6843F48033236010BD0000103C024062
:100350001C48006800F40070B0B11A48006820F42E
:1003600000701849086000BF0846006840F400604B
:1003700008600846006820F40060086000BF084676
:10038000006840F4007008600E48006800F4806067
:10039000B0B10C48006820F480600A49086000BFD2
:1003A0000846006840F4805008600846006820F461
:1003B0008050086000BF0846006840F48060086014
:1003C00070470000003C024001461C48814201D2B7
:1003D000002070471A48814201D20120F9E71948EC
:1003E000814201D20220F4E71748814201D2032062
:1003F000EFE71648814201D20420EAE7144881421F
:1004000001D20520E5E71348814201D20620E0E74A
:100410001148814201D20720DBE71048814201D216
:100420000820D6E70E48814201D20920D1E70D48C5
:10043000814201D20A20CCE70B20CAE70040000825
:100440000080000800C00008000001080000020849
:1004500000000408000006080000080800000A0860
:1004600000000C0800000E080A4A126822F44072CC
:10047000084B1A601A46126842F004021A601A46C3
:1004800012684FF4803343EA00231A43014B1A6089
:1004900070470000103C0240074A126822F4407284
:1004A000054B1A601A4612681A601A46126842F022
:1004B00001021A6001707047103C024010B50A49F1
:1004C000096821F44071084C21602146096841F413
:1004D000407121602146096841F0010121600260FC
:1004E000BFF36F8F436010BD103C0240084A126892
:1004F00022F44072064B1A601A46126842F4807267
:100500001A601A46126842F001021A6001807047B0
:10051000103C0240084A126822F44072064B1A60EE
:100520001A46126842F400721A601A46126842F0C3
:1005300001021A6001607047103C024001460868E1
:10054000704700002348006800F0100040B12248C6
:10055000C06940F010002049C86110201D490860A2
:100560001C48006800F0200040B11B48C06940F002
:1005700008001949C861202016490860154800681C
:1005800000F0400040B11448C06940F00400124936
:10059000C86140200F4908600E48006800F08000E4
:1005A00040B10D48C06940F002000B49C86180208D
:1005B000084908600748006800F0020040B106489A
:1005C000C06940F020000449C86102200149086068
:1005D000704700000C3C02407000002070B50446DB
:1005E000002500201449C86100F05CFA054609E0C6
:1005F000601C38B124B100F055FA401BA04201D96B
:10060000032070BD0D48006800F480300028EFD151
:100610000A48006800F0010010B101200749086095
:100620000648006800F0F20018B1FFF78BFF0120C8
:10063000E7E70020E5E70000700000200C3C0240E6
:100640002DE9F04387B004460E4617464FF00009E7
:100650000020019000258046B4F1006F02D304F021
:10066000030010B107B0BDE8F08300F0EFF82546B5
:1006700004EB87081E4885421DD219E02846FFF783
:100680005DFF401C78B1002002902846FFF79CFED9
:100690000490012005900220069001A902A800F014
:1006A00029F808B106E02D1D4CF25030FFF796FFF7
:1006B0004545E3D300BF4CF25030FFF78FFF814632
:1006C000B9F1000F0FD10BE0D6F800C0624600234D
:1006D0002146022000F06EF800B103E0241D361D13
:1006E0004445F1D300BF00F05BF800BFBAE700005B
:1006F0000000FF1F2DE9F04104460E4601270025AA
:1007000000BF2548007E012802D10220BDE8F0810B
:1007100001202149087600BF4CF25030FFF75EFF00
:100720000746002F31D1401E3060206801280FD1CC
:10073000207C6168FFF798FE4CF25030FFF74EFFC7
:1007400007461648006820F00400144908601AE0C3
:10075000A56812E0217C2846FFF7CCFD4CF2503012
:10076000FFF73CFF07460D48006820F0FA000B49F0
:1007700008600FB1356005E06D1CD4E90210084433
:10078000A842E7D800BFFFF7E3FD00BF0020024901
:10079000087600BF3846B9E770000020103C0240E0
:1007A0000348006840F0004001490860002070479D
:1007B000103C02402DE9F04106460F4614461D4606
:1007C0004FF0010800BF1F48007E012802D102201F
:1007D000BDE8F08101201B49087600BF4CF2503083
:1007E000FFF7FCFE8046B8F1000F23D126B9E1B235
:1007F0003846FFF751FE12E0012E04D1A1B238466F
:10080000FFF774FE0BE0022E04D121463846FFF7B5
:1008100081FE04E022462B463846FFF74FFE4CF29D
:100820005030FFF7DBFE80460748006820F00100EB
:100830000549086000BF00200249087600BF404615
:10084000C6E7000070000020103C0240002009496B
:10085000096801F0004159B10749064A0C3A116094
:10086000064911600349096801F0004101B1012006
:1008700070470000103C024023016745AB89EFCD73
:10088000F8B502460B460025002400200021D6E0E2
:10089000012606FA01F51E6806EA0504AC4274D189
:1008A0001E7906F00306012E04D01E7906F0030619
:1008B000022E13D190684F000326BE40B0434F0074
:1008C000DE68BE4030439060506801268E40B043E1
:1008D0001E79C6F300168E40304350601E7906F034
:1008E0000306032E09D0D0684F000326BE40B04354
:1008F0004F009E68BE403043D0601E7906F003066C
:10090000022E13D1CF0802F1200656F827004E0719
:10091000F70E0F26BE40B0434F07FF0E1E69BE40C4
:100920003043CF0802F1200646F8270010684F0038
:100930000326BE40B0431E7906F003064F00BE40BA
:10094000304310605E6806F44036002E76D000BF5B
:10095000002600963C4E366846F480463A4F3E608C
:100960003E46366806F48046009600BF00BF374E0C
:100970008F0856F827008E07370F0F26BE40B0436A
:10098000334EB24202D1002624E057E0314EB2424B
:1009900001D101261EE0304EB24201D1022619E0FB
:1009A0002E4EB24201D1032614E02D4EB24201D1A7
:1009B00004260FE02B4EB24201D105260AE02A4E52
:1009C000B24201D1062605E0284EB24201D10726E7
:1009D00000E008268F073F0FBE4030431B4E8F08B4
:1009E00046F82700224E3068A0435E6806F4801661
:1009F00006B120431E4E3060361D3068A0435E684D
:100A000006F4001606B12043194E361D3060184E0C
:100A1000361F3068A0435E6806F4003606B12043F6
:100A2000134E361F3060361F3068A0435E6806F4F0
:100A3000803606B120430E4E083E3060491C102916
:100A4000FFF426AFF8BD00004438024008380140EA
:100A5000000002400004024000080240000C024076
:100A6000001002400014024000180240001C024026
:100A7000083C0140024613690B400BB1012000E025
:100A80000020704710B5426921EA020302EA01041E
:100A900043EA0443836110BD0AB1816101E00B04A4
:100AA0008361704701480068704700000000002023
:100AB00010B50D48006840F400700B490860084606
:100AC000006840F4806008600846006840F4807068
:100AD0000860032000F0A6F80F2000F007F800F0EF
:100AE0002BF8002010BD0000003C024070B5044609
:100AF0000E4800784FF47A71B1FBF0F00C490968A8
:100B0000B1FBF0F5284600F043FC08B1012070BDB0
:100B1000102C07D200222146501E00F045F805484F
:100B2000046001E00120F2E70020F0E70800002067
:100B30000C0000200400002008B500BF0020009039
:100B40000E48006840F480400C4908600846006880
:100B500000F48040009000BF00BF00BF0020009064
:100B6000081F006840F08050091F086008460068B0
:100B700000F08050009000BF00BF08BD4438024024
:100B80000146084600280DDB00BF00BF00F01F0330
:100B900001229A4043099B0003F1E023C3F800219E
:100BA00000BF00BF00BF70472DE9F05F80460D46D3
:100BB0001646002701F00AF8074639462A4633460A
:100BC00001F00700C0F1070ABAF1040F02D94FF093
:100BD000040A01E0C0F1070AD14600F1040ABAF1A3
:100BE000070F02D24FF0000A01E0A0F1030AD44639
:100BF0004FF0010A0AFA09FAAAF1010A0AEA020AFE
:100C00000AFA0CFA4FF0010B0BFA0CFBABF1010BDB
:100C10000BEA030B4AEA0B042146404600F0DEFFD4
:100C2000BDE8F09F00BF00F00702064B19684FF6C1
:100C3000FF031940044B0B4343EA0221014B1960A7
:100C400000BF70470CED00E00000FA0570B50446E7
:100C50000D460CB9012070BD5848006800F007002F
:100C6000A84209D255490D700846006800F00700F7
:100C7000A84201D00120EEE7207800F0020002280F
:100C80001DD1207800F00400042805D14C480068EC
:100C900040F4E0504A490860207800F00800082835
:100CA00005D14748006840F4604045490860444821
:100CB000006820F0F000A1680843414908602078EE
:100CC00000F00100A8B36068012807D13C4808384B
:100CD0000068C0F34040B8B90120BCE76068022852
:100CE00002D06068032807D1354808380068C0F38F
:100CF000406048B90120AEE7314808380068C0F3C9
:100D0000400008B90120A6E72D48006820F0030044
:100D1000616808432A490860FFF7C4FE064609E0F7
:100D2000FFF7C0FE801B41F28831884202D90320C0
:100D300091E707E02248006800F00C006168B0EB22
:100D4000810FEDD11D48006800F00700A84209D9C5
:100D50001A490D700846006800F00700A84201D04B
:100D6000012078E7207800F00400042807D1144817
:100D7000006820F4E050E1680843114908602078D9
:100D800000F00800082808D10D48006820F46040F1
:100D9000216940EAC1000A49086000F03FF80849AB
:100DA0000968C1F30311074A515CC840064908604D
:100DB00006480068FFF79AFE00204CE7003C02401E
:100DC000083802407C2300080C00002004000020AA
:100DD00001480068704700000C00002000B5FFF7D4
:100DE000F7FF04490968C1F38221034A515CC840F6
:100DF00000BD0000083802408C23000800B5FFF752
:100E0000E7FF04490968C1F34231034A515CC84015
:100E100000BD0000083802408C2300082DE9F0478F
:100E2000002400250026A1462548006800F00C009B
:100E300020B1042805D008283AD105E0DFF88490D5
:100E400039E0DFF8849036E01D48001F006800F0AC
:100E50003F041B48001F006800F4800078B11A4866
:100E60001749091F0968C1F38811A0FB01700146E9
:100E7000224600233846FFF7ADF905460EE011483B
:100E80000F49091F0968C1F38811A0FB01700146D1
:100E9000224600233846FFF79DF905460848001F03
:100EA0000068C0F30140401C4600B5FBF6F902E0C3
:100EB000DFF8109000BF00BF4846BDE8F087000093
:100EC000083802400024F40000127A00F8B5044605
:100ED0000CB90120F8BD207800F00100002874D082
:100EE000F948006800F00C0004280DD0F6480068AE
:100EF00000F00C00082813D1F348001F006800F42C
:100F00008000B0F5800F0BD1EF4808380068C0F3BF
:100F10004040002859D06068002856D10120D9E708
:100F200000BF6068B0F5803F08D1E7480838006826
:100F300040F48030E449083908601EE06068B0F58C
:100F4000A02F0DD1E0480838006840F48020DE4929
:100F5000083908600846006840F4803008600CE0FA
:100F6000D9480838006820F48030D749083908602B
:100F70000846006820F48020086000BF606890B1D7
:100F8000FFF790FD054606E0FFF78CFD401B642847
:100F900001D903209EE7CC4808380068C0F34040E0
:100FA0000028F1D011E0FFF77DFD054606E0FFF7D0
:100FB00079FD401B642801D903208BE7C24808381B
:100FC0000068C0F340400028F1D1207800F0020012
:100FD00002285FD1BC48006800F00C0058B1BA4844
:100FE000006800F00C0008281CD1B748001F0068FA
:100FF00000F48000B0B9B44808380068C0F340007D
:1010000020B1E068012801D0012063E7AE4808382C
:10101000006820F0F800216940EAC100AA490839B7
:10102000086037E0E06800B30120A8490860FFF7D6
:1010300039FD054606E0FFF735FD401B022801D9C2
:10104000032047E7A04808380068C0F340000028A4
:10105000F1D09D480838006820F0F800216940EA86
:10106000C10099490839086014E0002097490860D8
:10107000FFF718FD054606E0FFF714FD401B0228A8
:1010800001D9032026E7904808380068C0F34000E3
:101090000028F1D1207800F0080008282CD16069E0
:1010A000A8B101208A490860FFF7FCFC054606E06C
:1010B000FFF7F8FC401B022801D903200AE7824809
:1010C0006C300068C0F340000028F1D014E000202C
:1010D0007F490860FFF7E6FC054606E0FFF7E2FC03
:1010E000401B022801D90320F4E677486C300068E1
:1010F000C0F340000028F1D1207800F0040004285B
:1011000070D1002770483830006800F0805090B9E6
:1011100000BF002000906C483830006840F08050DC
:101120006949383108600846006800F08050009036
:1011300000BF00BF01276748006800F48070B0B9A5
:101140006448006840F4807062490860FFF7AAFCB8
:10115000054606E0FFF7A6FC401B022801D9032044
:10116000B8E65C48006800F480700028F2D000BF48
:10117000A068012808D154486830006840F0010098
:101180005149683108601DE0A06805280DD14E481E
:101190006830006840F004004B4968310860084638
:1011A000006840F0010008600CE0474868300068C3
:1011B00020F001004449683108600846006820F0CA
:1011C0000400086000BFA068A8B1FFF76BFC0546EB
:1011D00009E0FFF767FC401B41F28831884202D9E1
:1011E000032077E626E0384868300068C0F3400006
:1011F0000028EED013E0FFF755FC054608E0FFF7A6
:1012000051FC401B41F28831884201D9032061E63C
:101210002D4868300068C0F340000028EFD1012F4E
:1012200007D129483830006820F0805026493831ED
:10123000086000BFA069002845D02348006800F07E
:101240000C0008285DD0A069022845D100201F4964
:101250000866FFF727FC054606E0FFF723FC401B66
:10126000022801D9032035E6174808380068C0F382
:1012700040600028F1D1D4E907010843616A40EADF
:1012800081110122A06AC2EB500041EA00412C20EA
:10129000005D41EA00600C49091F086001200B490C
:1012A0000866FFF7FFFB054606E0FFF7FBFB401B68
:1012B000022801D903200DE6034808380068C0F36E
:1012C00040600028F1D049E0083802400000474261
:1012D000800E474200700040002021490866FFF759
:1012E000E1FB054606E0FFF7DDFB401B022801D9C4
:1012F0000320EFE51B480068C0F340600028F2D1EE
:101300002CE0A069012800D1E4E51648001D06681C
:10131000A069012820D006F48001E06981421BD138
:1013200006F03F01206A814216D147F6C070304076
:10133000616AB0EB811F0FD106F440310122A06A2F
:10134000C2EB5000B1EB004F06D106F070612C20CB
:10135000005DB1EB006F01D00120BBE50020B9E5D5
:101360000000474200380240042808D14FF0E02135
:10137000096941F004014FF0E022116107E04FF0EC
:10138000E021096921F004014FF0E022116170476A
:1013900070B504462546681EB0F1807F01D3012058
:1013A0000FE0681E4FF0E02148610F214FF0FF3041
:1013B00000F014FC00204FF0E02188610720086154
:1013C000002070BD10B504460CB9012010BDA06905
:1013D00000B100E000BF94F8410028B9002084F873
:1013E0004000204600F02AF8242084F841002068BC
:1013F000C06820F400502168C860204600F074FAEC
:101400002068006920F490402168086120684069E4
:1014100020F02A00216848612068C06840F400502C
:101420002168C86000206064202084F8410084F8AE
:1014300042000020606300BFC8E7000010B586B01E
:101440000446142101A8FEF7FDFE1F4920688842CA
:1014500038D100BF002000901C48006840F0100008
:101460001A4908600846006800F01000009000BFAC
:1014700000BF00BF0020009014481438006840F0FE
:1014800001001249143908600846006800F00100A4
:10149000009000BF00BF4FF4C06001900220029096
:1014A00000200390032004900720059001A908481C
:1014B000FFF7E6F9002201212520FFF775FB252023
:1014C000FFF75EFB06B010BD00100140443802403B
:1014D000000002402DE9F84F04460E461746994693
:1014E0004FF0000A94F84200202852D106B117B9F3
:1014F0000120BDE8F88F00206064222084F84200BB
:1015000000202063FFF7CEFA8246A785E785A06812
:10151000B0F5805F04D1206910B90025B04602E023
:1015200035464FF000082CE053460022202120468B
:10153000CDF8009000F0EEFA20B1202084F84200AF
:101540000320D6E745B920684068C0F30800A8F832
:10155000000008F1020811E0A068B0F5805F03D038
:10156000A06828B9206918B920684068287004E08C
:101570002068406800F07F0028706D1CE08D401EE0
:10158000E085E08D0028CFD1202084F842000020A3
:10159000AFE70220ADE700BFFEE7000010B504464C
:1015A000012C01D1234908702248007858B310213A
:1015B0002148FFF75FFA50B108211F48FFF75AFA98
:1015C00028B101211D48FFF755FA01281BD10A2037
:1015D00000F072FC00201749087010211648FFF730
:1015E00049FA08B9012010BD08211348FFF742FA53
:1015F00008B90220F7E701211048FFF73BFA01285C
:1016000015D10320EFE710210B48FFF733FA01282B
:101610000DD108210848FFF72DFA012807D1012133
:101620000648FFF727FA10B9012002490870002088
:10163000D9E7000010000020001002400000024026
:1016400000B587B0142102A8FEF7FCFD00BF002002
:1016500001904148006840F010003F49086008468A
:10166000006800F01000019000BF00BF00BF002024
:1016700001900846006840F02000086008460068B5
:1016800000F02000019000BF00BF00BF00200190CB
:101690000846006840F0800008600846006800F0D6
:1016A0008000019000BF00BF00BF002001900846ED
:1016B000006840F0010008600846006800F0010082
:1016C000019000BF00BF00BF0020019008460068E5
:1016D00040F0020008600846006800F00200019037
:1016E00000BF00BF01224FF4C0611C48FFF7D4F9CE
:1016F00000224FF400411A48FFF7CEF9182002905B
:10170000002003900120049002A91648FFF7B8F8C2
:101710004FF4C060029001200390002004900590D7
:1017200002A90E48FFF7ACF80120029000200390B8
:101730000220049002A90C48FFF7A2F84FF40040E1
:1017400002900120039000200490059002A9044813
:10175000FFF796F807B000BD303802400014024091
:1017600000040240001002400000024010B50B4887
:101770000B4908604FF4E13048600021084881605F
:10178000C16001610C21416100218161C161FFF7EC
:1017900019FE08B1FEF7ABFD10BD000000100140BE
:1017A0002800002000BFFEE700BFFEE7704770473B
:1017B0007047000000B593B0302107A8FEF742FD46
:1017C000142102A8FEF73EFD00BF0020019024482E
:1017D000006840F08050224908600846006800F028
:1017E0008050019000BF00BF00BF002001901D4845
:1017F000006840F480401B4908600846006800F417
:101800008040019000BF00BF0120079000040890B5
:1018100002200D9041050E9104210F91A8211091F5
:10182000022111910421129107A8FFF74FFB08B183
:10183000FEF75DFD0F20029002200390002004902F
:101840004FF4A05005904FF480500690052102A857
:10185000FFF7FCF908B1FEF74AFD13B000BD000028
:1018600040380240007000400348006840F47000B7
:10187000014908607047000088ED00E000BF00BF2C
:1018800002680C3252E8002F22F4907102680C3288
:1018900042E80013002BF3D100BF00BF00BF026875
:1018A000143252E8002F22F001010268143242E89B
:1018B0000013002BF3D100BF016B01290ED100BF33
:1018C00000BF02680C3252E8002F22F010010268BB
:1018D0000C3242E80013002BF3D100BF202180F826
:1018E00042100021016370472DE9F84F044620683B
:1018F000006920F44050E1680843216808612169CB
:10190000A068084361690843E169084300902068C2
:10191000C06849F20C618843009908432168C86097
:101920002068406920F44070A1690843216848613B
:1019300076492068884203D075492068884203D1DF
:10194000FFF75CFA814602E0FFF748FA8146E0695A
:10195000B0F5004F6CD102206168A0FB0150034636
:101960001920A9FB007001462A463846FEF732FCD2
:101970006421B0FBF1F04FEA001A02206168A0FB7D
:1019800001510B461920A9FB00712A463846FEF783
:1019900021FC834602206168A0FB01500346192008
:1019A000A9FB00712A463846FEF714FC6421B0FBFF
:1019B000F1F000EBC00101EB0010ABEB8000322135
:1019C00001EBC0006421B0FBF1F000F0F8000AEB7D
:1019D000400A02206168A0FB015003461920A9FBC0
:1019E000007001462A463846FEF7F4FB8346022083
:1019F0006168A0FB015003461920A9FB00712A462B
:101A00003846FEF7E7FB6421B0FBF1F000EBC001C4
:101A100001EB0010ABEB8000322101EBC000642130
:101A2000B0FBF1F000F007005044216888606AE0E4
:101A300004206168A0FB015003461920A9FB007037
:101A400001462A463846FEF7C5FB824604206168F7
:101A5000A0FB015003461920A9FB007001462A464D
:101A60003846FEF7B7FB6421B0FBF1F000EBC00194
:101A700001EB0010AAEB8000322101EB0010642181
:101A8000B0FBF1F000F0F00A04206168A0FB0170E7
:101A900003461920A9FB00513A462846FEF79AFB57
:101AA0006421B0FBF1F00AEB001A04206168A0FB8E
:101AB00001510B461920A9FB00712A463846FEF752
:101AC00089FB834604206168A0FB0150034619206E
:101AD000A9FB007001462A463846FEF77BFB6421CD
:101AE000B0FBF1F000EBC00101EB0010ABEB8000AC
:101AF000322101EB00106421B0FBF1F000F00F0087
:101B0000504421688860BDE8F88F00000010014053
:101B1000001401402DE9F84304460D461746984647
:101B2000089E31E0701C70B3FEF7BCFFA0EB08000C
:101B3000B04200D816B90320BDE8F8832068C06819
:101B400000F00400F8B1802D1ED0402D1CD020687C
:101B50000068C0F3C000B0B100BF00200090206852
:101B60000068009020684068009000BF00BF2046D9
:101B7000FFF784FE0820606400BF002084F8400066
:101B800000BF0120D8E7FFE7206800682840A8428E
:101B900001D1012000E00020B842C3D00020CBE7F3
:101BA00010B500F0C5FB10BD00BFFEE70FB4054B3C
:101BB00010B503A9044A029800F034F810BC5DF88F
:101BC00014FB0000091E00081400002002480068F1
:101BD000C0F30220704700000CED00E010B50028B3
:101BE00004DB0A07130E054A135406E00A07140E15
:101BF000034A00F00F031B1FD45410BD00E400E0A3
:101C000018ED00E002E008C8121F08C1002AFAD14E
:101C100070477047002001E001C1121F002AFBD16C
:101C2000704700002DE9FF4F89B09B460446002510
:101C300006E025280BD05A460B999047641C6D1C72
:101C400020780028F5D10DB02846BDE8F08F002798
:101C5000B8460122474900E0074314F8013F203B02
:101C600002FA03F00842F7D120782E2819D114F88F
:101C7000010F47F004072A280ED06FF02F022078BA
:101C8000A0F1300109290CD808EB880102EB4101D1
:101C900000EB0108641CF2E70A98641C50F8048BFE
:101CA0000A9020780028CED0642808D0692806D071
:101CB00075281ED05A460B9990476D1C58E00A991A
:101CC0004FF00A0901C90A91002802DA40422D2189
:101CD00002E0390504D52B218DF82010012103E005
:101CE000F90704D02021F7E78A4608AE0DE000216D
:101CF000FAE70A994FF00A0901C90A91F7E749463C
:101D0000FEF7ABFA303106F8011D0028F7D1ADEB34
:101D1000060000F12009780701D44FF00108C845FA
:101D200002DDA8EB090000E000208046002706E065
:101D300008A85A46C05D0B9990476D1C7F1C5745FB
:101D4000F6DB04E030205A460B9990476D1CB8F141
:101D50000001A8F10108F5DC05E016F8010B5A4670
:101D60000B9990476D1CB9F10001A9F10109F4DC50
:101D7000641C65E70928010010B504460420FFF73C
:101D8000F3FA0148046010BD2400002004480068F4
:101D9000C06840F0200002490968C8607047000030
:101DA0002800002011B5002404E04FF47A7000F000
:101DB00007F8641CBDF800008442F6D318BD00008B
:101DC00071B500224FF0E0256C690E4E009D36681B
:101DD00005FB06F34FF0E025A96910E04FF0E02580
:101DE000A86988420BD0884202D20D1A2A4402E028
:101DF000251A0D442A4401469A4200D300E0EDE73B
:101E000000BF78BD2400002000BF054A126802F020
:101E10004002002AF9D0C2B2014B5A60704700005C
:101E20000010014010B50446206807490840B0F191
:101E3000005F08D16068054908602068FEF7B5F9C1
:101E400002480068804710BD0000FE2F20000020DF
:101E50002DE9F05F0746884691460025BB4644467B
:101E6000AA461DE0E0780606A07846EA00466078BB
:101E700046EA002620780643241D2846691C8DB2B8
:101E80000C4941F82060B5F5007F07D100254FF4DB
:101E900000725846FEF7D4FB0BF5006B0AF1040AFA
:101EA000CA45DFD325B12A4602495846FEF7C8FB8A
:101EB000BDE8F09F90000020002107E042F6E061BD
:101EC00000BF0A1EA1F1010399B2FAD1021EA0F1CE
:101ED000010398B2F2D1704705260024002700259F
:101EE000FEF7E6FDFFF766FCFFF7AAFBFFF73EFCF7
:101EF000A820FFF741FFFFF749FF60A0FFF756FE5C
:101F000066A0FFF753FE6DA0FFF750FE73A0FFF72A
:101F10004DFE55E00020FFF741FB0446032C2ED177
:101F2000002400BF012251027448FEF7B5FD74A0E1
:101F3000FFF73CFE7AA0FFF739FE71A0FFF736FEEF
:101F400076A0FFF733FE7FA0FFF730FE83A0FFF7F8
:101F50002DFE88A0FFF72AFE8CA0FFF727FE91A098
:101F6000FFF724FE95A0FFF721FE9BA0FFF71EFEC2
:101F7000A4A0FFF71BFEADA0FFF718FE21E031463D
:101F8000AFA0FFF713FE701EC6B24FF400715B489E
:101F9000FEF778FD4FF47A70FFF704FF86B9AAA028
:101FA000FFF704FEAF48406800F07F40B0F1006FDB
:101FB00003D1AC48FFF736FF02E0ABA0FFF7F6FD18
:101FC000A8E700BF59E0AF480068A0B1AD4800687D
:101FD00087420DD1AB48056800270020A949086059
:101FE000A9A0FFF7E3FD2946ACA0FFF7DFFD02E063
:101FF000A448008887B20A20FFF7D4FE0020FFF72C
:10200000CDFA0446032C1AD1B5B1A9A0FFF7CEFD35
:10201000AC48406800F07F40B0F1006F08D12A461C
:10202000A9499048FFF714FFA8A0FFF7BFFD06E0FD
:10203000AAA0FFF7BBFD02E0ADA0FFF7B7FD012CA2
:1020400008D125B1B0A0FFF7B1FD002502E0B2A094
:10205000FFF7ACFD022C10D17BA0FFF7A7FD814854
:10206000406800F07F40B0F1006F03D17D48FFF77A
:10207000D9FE02E07CA0FFF799FDA4E74578706CDB
:102080006F7265722053544D333246342020202025
:102090002020202020200D0A00000000424F4F5435
:1020A000204D4F444520202020202020202020208B
:1020B0002020202020200D0A00000000B3A4B0B48E
:1020C0004B45595F55503AB8FCD0C2B9CCBCFE2044
:1020D0002020202020200D0A00000000C8F4CEDEC1
:1020E000B2D9D7F7CEE5C3EBBAF3BDF8C8EBC4ACB1
:1020F000C8CFB9CCBCFE0D0A00000000001402409D
:102100000D0A3D3D3D3D3D3D3D3D3D3D3D3D3D3D62
:102110003D3D3D3D3D3D3D3D3D3D3D3D0D0A0000CC
:10212000202020202020BDF8C8EBB9CCBCFEB8FC94
:10213000D0C2C4A3CABD20202020202020202020DF
:10214000000000004578706C6F7265722053544D2A
:102150003332463420202020200D0A00424F4F54B5
:10216000204D4F44452020202020202020202020CA
:10217000200D0A004B45595F55503A436F70792046
:1021800041505032464C4153480D0A004B4559309E
:102190003A52756E20464C41534820415050202001
:1021A000200D0A004B4559313A4572617365205341
:1021B00052414D2041505020200D0A00312EC9CFF0
:1021C000CEBBBBFAB7A2CBCDB9CCBCFE2E62696E3A
:1021D000CEC4BCFE0D0A0000322EB0B4CFC24B45B7
:1021E000595F5550BDAB7372616DC4DAB5C4B9CCDB
:1021F000BCFEBCD3D4D8D6C1666C617368D6D00D92
:102200000A000000332EB0B4CFC24B45595F30D422
:10221000CBD0D0666C617368C4DAB8FCD0C2BAF3B4
:10222000B5C4B9CCBCFE0D0A00000000D5FDD4DA5F
:10223000B5C8B4FDD3C3BBA7B3CCD0F20D0A000020
:1022400025640D0A00000000BFAACABCD6B4D0D0D5
:10225000464C415348D3C3BBA7B4FAC2EB21210D6E
:102260000A00000000000108B7C7464C415348D39C
:10227000A6D3C3B3CCD0F22CCEDEB7A8D6B4D0D080
:10228000210D0A001C000020D3C3BBA7B3CCD0F2A1
:10229000BDD3CAD5CDEAB3C9210D0A00B4FAC2EB49
:1022A000B3A4B6C83A256442797465730D0A000078
:1022B000BFAACABCB8FCD0C2B9CCBCFE2E2E2E0D13
:1022C0000A0000000010002000100020B9CCBCFE65
:1022D000B8FCD0C2CDEAB3C9210D0A00B7C7464C3D
:1022E000415348D3A6D3C3B3CCD0F2210D0A00008A
:1022F000C3BBD3D0BFC9D2D4B8FCD0C2B5C4B9CC4B
:10230000BCFE210D0A000000B9CCBCFEC7E5B3FD40
:10231000CDEAB3C9210D0A00C3BBD3D0BFC9D2D403
:10232000C7E5B3FDB5C4B9CCBCFE210D0A00000061
:1023300008B50F4800680068C0F34010B0B14FF412
:102340007A73012269460A48FFF7C4F80948006811
:10235000B0F5F03F0AD29DF800000749054A12681F
:10236000885404480068401C0249086008BD000009
:10237000280000201C0000200010002000000000A9
:102380000000000001020304060708090000000025
:1023900001020304B423000800000020280000000C
:1023A000041C0008DC23000828000020D8EF0100EE
:1023B000141C0008000000001000000001000000D4
:1023C0000024F400010000000000000000000000F4
:0C23D00000000000000000000000000001
:040000050800018965
:00000001FF
